{
	"data": {
		"bytecode": {
			"linkReferences": {},
			"object": "60806040523480156200001157600080fd5b506040516200189238038062001892833981016040819052620000349162000107565b80620000408162000048565b505062000229565b80516200005d90600290602084019062000061565b5050565b8280546200006f90620001d6565b90600052602060002090601f016020900481019282620000935760008555620000de565b82601f10620000ae57805160ff1916838001178555620000de565b82800160010185558215620000de579182015b82811115620000de578251825591602001919060010190620000c1565b50620000ec929150620000f0565b5090565b5b80821115620000ec5760008155600101620000f1565b600060208083850312156200011a578182fd5b82516001600160401b038082111562000131578384fd5b818501915085601f83011262000145578384fd5b8151818111156200015a576200015a62000213565b604051601f8201601f191681018501838111828210171562000180576200018062000213565b604052818152838201850188101562000197578586fd5b8592505b81831015620001ba57838301850151818401860152918401916200019b565b81831115620001cb57858583830101525b979650505050505050565b600281046001821680620001eb57607f821691505b602082108114156200020d57634e487b7160e01b600052602260045260246000fd5b50919050565b634e487b7160e01b600052604160045260246000fd5b61165980620002396000396000f3fe608060405234801561001057600080fd5b506004361061009d5760003560e01c80634e1273f4116100665780634e1273f414610133578063a22cb46514610153578063bd85b03914610166578063e985e9c514610179578063f242432a1461018c5761009d565b8062fdd58e146100a257806301ffc9a7146100cb5780630e89341c146100eb578063156e29f61461010b5780632eb2c2d614610120575b600080fd5b6100b56100b0366004610f39565b61019f565b6040516100c2919061150b565b60405180910390f35b6100de6100d9366004611052565b6101f6565b6040516100c29190611212565b6100fe6100f9366004611091565b61023e565b6040516100c2919061121d565b61011e610119366004610f62565b6102d2565b005b61011e61012e366004610df6565b6102f2565b610146610141366004610f94565b610350565b6040516100c291906111d1565b61011e610161366004610eff565b610470565b6100b5610174366004611091565b610486565b6100de610187366004610dc4565b610498565b61011e61019a366004610e9c565b6104c6565b60006001600160a01b0383166101d05760405162461bcd60e51b81526004016101c790611230565b60405180910390fd5b506000908152602081815260408083206001600160a01b03949094168352929052205490565b60006001600160e01b03198216636433ca1f60e01b148061022757506001600160e01b031982166303a24d0760e21b145b8061023657506102368261051d565b90505b919050565b60606002805461024d90611588565b80601f016020809104026020016040519081016040528092919081815260200182805461027990611588565b80156102c65780601f1061029b576101008083540402835291602001916102c6565b820191906000526020600020905b8154815290600101906020018083116102a957829003601f168201915b50505050509050919050565b6102ed83838360405180602001604052806000815250610536565b505050565b6102fa610647565b6001600160a01b0316856001600160a01b03161480610320575061032085610187610647565b61033c5760405162461bcd60e51b81526004016101c79061136b565b610349858585858561064b565b5050505050565b606081518351146103735760405162461bcd60e51b81526004016101c790611278565b6000835167ffffffffffffffff81111561039d57634e487b7160e01b600052604160045260246000fd5b6040519080825280602002602001820160405280156103c6578160200160208202803683370190505b50905060005b84518110156104685761042d8582815181106103f857634e487b7160e01b600052603260045260246000fd5b602002602001015185838151811061042057634e487b7160e01b600052603260045260246000fd5b602002602001015161019f565b82828151811061044d57634e487b7160e01b600052603260045260246000fd5b6020908102919091010152610461816115c3565b90506103cc565b509392505050565b61048261047b610647565b838361082a565b5050565b60009081526003602052604090205490565b6001600160a01b03918216600090815260016020908152604080832093909416825291909152205460ff1690565b6104ce610647565b6001600160a01b0316856001600160a01b031614806104f457506104f485610187610647565b6105105760405162461bcd60e51b81526004016101c790611481565b61034985858585856108cd565b6001600160e01b031981166301ffc9a760e01b14919050565b6001600160a01b03841661055c5760405162461bcd60e51b81526004016101c79061144a565b6000610566610647565b9050600061057385610a2a565b9050600061058085610a2a565b905061059183600089858589610822565b6000868152602081815260408083206001600160a01b038b168452909152812080548792906105c1908490611570565b92505081905550866001600160a01b031660006001600160a01b0316846001600160a01b03167fc3d58168c5ae7397731d063d5bbf3d657854427343f4c083240f7aacaa2d0f628989604051610618929190611514565b60405180910390a461062f83600089858589610822565b61063e83600089898989610a83565b50505050505050565b3390565b815183511461066c5760405162461bcd60e51b81526004016101c790611325565b6001600160a01b0384166106925760405162461bcd60e51b81526004016101c7906114c8565b600061069c610647565b90506106ac818787878787610822565b60005b84518110156107ae5760008582815181106106da57634e487b7160e01b600052603260045260246000fd5b60200260200101519050600085838151811061070657634e487b7160e01b600052603260045260246000fd5b602090810291909101810151600084815280835260408082206001600160a01b038e1683529093529190912054909150818110156107565760405162461bcd60e51b81526004016101c7906113bb565b6000838152602081815260408083206001600160a01b038e8116855292528083208585039055908b16825281208054849290610793908490611570565b92505081905550505050806107a7906115c3565b90506106af565b50846001600160a01b0316866001600160a01b0316826001600160a01b03167f4a39dc06d4c0dbc64b70af90fd698a233a518aa5d07e595d983b8c0526c8f7fb87876040516107fe9291906111e4565b60405180910390a4610814818787878787610822565b610822818787878787610aad565b505050505050565b816001600160a01b0316836001600160a01b0316141561085c5760405162461bcd60e51b81526004016101c790611403565b6001600160a01b0383811660008181526001602090815260408083209487168084529490915290819020805460ff1916851515179055517f17307eab39ab6107e8899845ad3d59bd9653f200f220920489ca2b5937696c31906108c0908590611212565b60405180910390a3505050565b6001600160a01b0384166108f35760405162461bcd60e51b81526004016101c7906114c8565b60006108fd610647565b9050600061090a85610a2a565b9050600061091785610a2a565b9050610927838989858589610822565b6000868152602081815260408083206001600160a01b038c168452909152902054858110156109685760405162461bcd60e51b81526004016101c7906113bb565b6000878152602081815260408083206001600160a01b038d8116855292528083208985039055908a168252812080548892906109a5908490611570565b92505081905550876001600160a01b0316896001600160a01b0316856001600160a01b03167fc3d58168c5ae7397731d063d5bbf3d657854427343f4c083240f7aacaa2d0f628a8a6040516109fb929190611514565b60405180910390a4610a11848a8a86868a610822565b610a1f848a8a8a8a8a610a83565b505050505050505050565b60408051600180825281830190925260609160009190602080830190803683370190505090508281600081518110610a7257634e487b7160e01b600052603260045260246000fd5b602090810291909101015292915050565b610a91868686868686610abb565b6108225760405162461bcd60e51b81526004016101c7906112bd565b610a91868686868686610bc6565b6000610acf856001600160a01b0316610ca5565b15610bb85760405163e78b332560e01b81526001600160a01b0386169063e78b332590610b08908a908a9089908990899060040161118c565b602060405180830381600087803b158015610b2257600080fd5b505af1925050508015610b52575060408051601f3d908101601f19168201909252610b4f91810190611075565b60015b610b9e573d808015610b80576040519150601f19603f3d011682016040523d82523d6000602084013e610b85565b606091505b508051610b96576000915050610bbc565b805181602001fd5b6001600160e01b03191663e78b332560e01b149050610bbc565b5060015b9695505050505050565b6000610bda856001600160a01b0316610ca5565b15610bb857604051634da4f19960e11b81526001600160a01b03861690639b49e33290610c13908a908a9089908990899060040161112e565b602060405180830381600087803b158015610c2d57600080fd5b505af1925050508015610c5d575060408051601f3d908101601f19168201909252610c5a91810190611075565b60015b610c8b573d808015610b80576040519150601f19603f3d011682016040523d82523d6000602084013e610b85565b6001600160e01b031916634da4f19960e11b149050610bbc565b600080826001600160a01b0316803b806020016040519081016040528181526000908060200190933c511192915050565b80356001600160a01b038116811461023957600080fd5b600082601f830112610cfd578081fd5b81356020610d12610d0d8361154c565b611522565b8281528181019085830183850287018401881015610d2e578586fd5b855b85811015610d4c57813584529284019290840190600101610d30565b5090979650505050505050565b600082601f830112610d69578081fd5b813567ffffffffffffffff811115610d8357610d836115f4565b610d96601f8201601f1916602001611522565b818152846020838601011115610daa578283fd5b816020850160208301379081016020019190915292915050565b60008060408385031215610dd6578182fd5b610ddf83610cd6565b9150610ded60208401610cd6565b90509250929050565b600080600080600060a08688031215610e0d578081fd5b610e1686610cd6565b9450610e2460208701610cd6565b9350604086013567ffffffffffffffff80821115610e40578283fd5b610e4c89838a01610ced565b94506060880135915080821115610e61578283fd5b610e6d89838a01610ced565b93506080880135915080821115610e82578283fd5b50610e8f88828901610d59565b9150509295509295909350565b600080600080600060a08688031215610eb3578081fd5b610ebc86610cd6565b9450610eca60208701610cd6565b93506040860135925060608601359150608086013567ffffffffffffffff811115610ef3578182fd5b610e8f88828901610d59565b60008060408385031215610f11578182fd5b610f1a83610cd6565b915060208301358015158114610f2e578182fd5b809150509250929050565b60008060408385031215610f4b578182fd5b610f5483610cd6565b946020939093013593505050565b600080600060608486031215610f76578283fd5b610f7f84610cd6565b95602085013595506040909401359392505050565b60008060408385031215610fa6578182fd5b823567ffffffffffffffff80821115610fbd578384fd5b818501915085601f830112610fd0578384fd5b81356020610fe0610d0d8361154c565b82815281810190858301838502870184018b1015610ffc578889fd5b8896505b848710156110255761101181610cd6565b835260019690960195918301918301611000565b509650508601359250508082111561103b578283fd5b5061104885828601610ced565b9150509250929050565b600060208284031215611063578081fd5b813561106e8161160a565b9392505050565b600060208284031215611086578081fd5b815161106e8161160a565b6000602082840312156110a2578081fd5b5035919050565b6000815180845260208085019450808401835b838110156110d8578151875295820195908201906001016110bc565b509495945050505050565b60008151808452815b81811015611108576020818501810151868301820152016110ec565b818111156111195782602083870101525b50601f01601f19169290920160200192915050565b6001600160a01b0386811682528516602082015260a06040820181905260009061115a908301866110a9565b828103606084015261116c81866110a9565b9050828103608084015261118081856110e3565b98975050505050505050565b6001600160a01b03868116825285166020820152604081018490526060810183905260a0608082018190526000906111c6908301846110e3565b979650505050505050565b60006020825261106e60208301846110a9565b6000604082526111f760408301856110a9565b828103602084015261120981856110a9565b95945050505050565b901515815260200190565b60006020825261106e60208301846110e3565b60208082526028908201527f4b495033373a2061646472657373207a65726f206973206e6f7420612076616c60408201526734b21037bbb732b960c11b606082015260800190565b60208082526025908201527f4b495033373a206f776e65727320616e6420696473206c656e677468206d69736040820152640dac2e8c6d60db1b606082015260800190565b60208082526042908201527f4b495033373a207472616e7366657220746f206e6f6e20494b4950333752656360408201527f65697665722f4945524331313535526563656976657220696d706c656d656e7460608201526132b960f11b608082015260a00190565b60208082526026908201527f4b495033373a2069647320616e6420616d6f756e7473206c656e677468206d696040820152650e6dac2e8c6d60d31b606082015260800190565b60208082526030908201527f4b495033373a207472616e736665722063616c6c6572206973206e6f74206f7760408201526f1b995c881b9bdc88185c1c1c9bdd995960821b606082015260800190565b60208082526028908201527f4b495033373a20696e73756666696369656e742062616c616e636520666f72206040820152673a3930b739b332b960c11b606082015260800190565b60208082526027908201527f4b495033373a2073657474696e6720617070726f76616c20737461747573206660408201526637b91039b2b63360c91b606082015260800190565b6020808252601f908201527f4b495033373a206d696e7420746f20746865207a65726f206164647265737300604082015260600190565b60208082526027908201527f4b495033373a2063616c6c6572206973206e6f74206f776e6572206e6f7220616040820152661c1c1c9bdd995960ca1b606082015260800190565b60208082526023908201527f4b495033373a207472616e7366657220746f20746865207a65726f206164647260408201526265737360e81b606082015260800190565b90815260200190565b918252602082015260400190565b60405181810167ffffffffffffffff81118282101715611544576115446115f4565b604052919050565b600067ffffffffffffffff821115611566576115666115f4565b5060209081020190565b60008219821115611583576115836115de565b500190565b60028104600182168061159c57607f821691505b602082108114156115bd57634e487b7160e01b600052602260045260246000fd5b50919050565b60006000198214156115d7576115d76115de565b5060010190565b634e487b7160e01b600052601160045260246000fd5b634e487b7160e01b600052604160045260246000fd5b6001600160e01b03198116811461162057600080fd5b5056fea2646970667358221220b5a95a846aabe59a9e70e34375dac1c2d456895b584de5eb96dcf24f91257b6464736f6c63430008000033",
			"opcodes": "PUSH1 0x80 PUSH1 0x40 MSTORE CALLVALUE DUP1 ISZERO PUSH3 0x11 JUMPI PUSH1 0x0 DUP1 REVERT JUMPDEST POP PUSH1 0x40 MLOAD PUSH3 0x1892 CODESIZE SUB DUP1 PUSH3 0x1892 DUP4 CODECOPY DUP2 ADD PUSH1 0x40 DUP2 SWAP1 MSTORE PUSH3 0x34 SWAP2 PUSH3 0x107 JUMP JUMPDEST DUP1 PUSH3 0x40 DUP2 PUSH3 0x48 JUMP JUMPDEST POP POP PUSH3 0x229 JUMP JUMPDEST DUP1 MLOAD PUSH3 0x5D SWAP1 PUSH1 0x2 SWAP1 PUSH1 0x20 DUP5 ADD SWAP1 PUSH3 0x61 JUMP JUMPDEST POP POP JUMP JUMPDEST DUP3 DUP1 SLOAD PUSH3 0x6F SWAP1 PUSH3 0x1D6 JUMP JUMPDEST SWAP1 PUSH1 0x0 MSTORE PUSH1 0x20 PUSH1 0x0 KECCAK256 SWAP1 PUSH1 0x1F ADD PUSH1 0x20 SWAP1 DIV DUP2 ADD SWAP3 DUP3 PUSH3 0x93 JUMPI PUSH1 0x0 DUP6 SSTORE PUSH3 0xDE JUMP JUMPDEST DUP3 PUSH1 0x1F LT PUSH3 0xAE JUMPI DUP1 MLOAD PUSH1 0xFF NOT AND DUP4 DUP1 ADD OR DUP6 SSTORE PUSH3 0xDE JUMP JUMPDEST DUP3 DUP1 ADD PUSH1 0x1 ADD DUP6 SSTORE DUP3 ISZERO PUSH3 0xDE JUMPI SWAP2 DUP3 ADD JUMPDEST DUP3 DUP2 GT ISZERO PUSH3 0xDE JUMPI DUP3 MLOAD DUP3 SSTORE SWAP2 PUSH1 0x20 ADD SWAP2 SWAP1 PUSH1 0x1 ADD SWAP1 PUSH3 0xC1 JUMP JUMPDEST POP PUSH3 0xEC SWAP3 SWAP2 POP PUSH3 0xF0 JUMP JUMPDEST POP SWAP1 JUMP JUMPDEST JUMPDEST DUP1 DUP3 GT ISZERO PUSH3 0xEC JUMPI PUSH1 0x0 DUP2 SSTORE PUSH1 0x1 ADD PUSH3 0xF1 JUMP JUMPDEST PUSH1 0x0 PUSH1 0x20 DUP1 DUP4 DUP6 SUB SLT ISZERO PUSH3 0x11A JUMPI DUP2 DUP3 REVERT JUMPDEST DUP3 MLOAD PUSH1 0x1 PUSH1 0x1 PUSH1 0x40 SHL SUB DUP1 DUP3 GT ISZERO PUSH3 0x131 JUMPI DUP4 DUP5 REVERT JUMPDEST DUP2 DUP6 ADD SWAP2 POP DUP6 PUSH1 0x1F DUP4 ADD SLT PUSH3 0x145 JUMPI DUP4 DUP5 REVERT JUMPDEST DUP2 MLOAD DUP2 DUP2 GT ISZERO PUSH3 0x15A JUMPI PUSH3 0x15A PUSH3 0x213 JUMP JUMPDEST PUSH1 0x40 MLOAD PUSH1 0x1F DUP3 ADD PUSH1 0x1F NOT AND DUP2 ADD DUP6 ADD DUP4 DUP2 GT DUP3 DUP3 LT OR ISZERO PUSH3 0x180 JUMPI PUSH3 0x180 PUSH3 0x213 JUMP JUMPDEST PUSH1 0x40 MSTORE DUP2 DUP2 MSTORE DUP4 DUP3 ADD DUP6 ADD DUP9 LT ISZERO PUSH3 0x197 JUMPI DUP6 DUP7 REVERT JUMPDEST DUP6 SWAP3 POP JUMPDEST DUP2 DUP4 LT ISZERO PUSH3 0x1BA JUMPI DUP4 DUP4 ADD DUP6 ADD MLOAD DUP2 DUP5 ADD DUP7 ADD MSTORE SWAP2 DUP5 ADD SWAP2 PUSH3 0x19B JUMP JUMPDEST DUP2 DUP4 GT ISZERO PUSH3 0x1CB JUMPI DUP6 DUP6 DUP4 DUP4 ADD ADD MSTORE JUMPDEST SWAP8 SWAP7 POP POP POP POP POP POP POP JUMP JUMPDEST PUSH1 0x2 DUP2 DIV PUSH1 0x1 DUP3 AND DUP1 PUSH3 0x1EB JUMPI PUSH1 0x7F DUP3 AND SWAP2 POP JUMPDEST PUSH1 0x20 DUP3 LT DUP2 EQ ISZERO PUSH3 0x20D JUMPI PUSH4 0x4E487B71 PUSH1 0xE0 SHL PUSH1 0x0 MSTORE PUSH1 0x22 PUSH1 0x4 MSTORE PUSH1 0x24 PUSH1 0x0 REVERT JUMPDEST POP SWAP2 SWAP1 POP JUMP JUMPDEST PUSH4 0x4E487B71 PUSH1 0xE0 SHL PUSH1 0x0 MSTORE PUSH1 0x41 PUSH1 0x4 MSTORE PUSH1 0x24 PUSH1 0x0 REVERT JUMPDEST PUSH2 0x1659 DUP1 PUSH3 0x239 PUSH1 0x0 CODECOPY PUSH1 0x0 RETURN INVALID PUSH1 0x80 PUSH1 0x40 MSTORE CALLVALUE DUP1 ISZERO PUSH2 0x10 JUMPI PUSH1 0x0 DUP1 REVERT JUMPDEST POP PUSH1 0x4 CALLDATASIZE LT PUSH2 0x9D JUMPI PUSH1 0x0 CALLDATALOAD PUSH1 0xE0 SHR DUP1 PUSH4 0x4E1273F4 GT PUSH2 0x66 JUMPI DUP1 PUSH4 0x4E1273F4 EQ PUSH2 0x133 JUMPI DUP1 PUSH4 0xA22CB465 EQ PUSH2 0x153 JUMPI DUP1 PUSH4 0xBD85B039 EQ PUSH2 0x166 JUMPI DUP1 PUSH4 0xE985E9C5 EQ PUSH2 0x179 JUMPI DUP1 PUSH4 0xF242432A EQ PUSH2 0x18C JUMPI PUSH2 0x9D JUMP JUMPDEST DUP1 PUSH3 0xFDD58E EQ PUSH2 0xA2 JUMPI DUP1 PUSH4 0x1FFC9A7 EQ PUSH2 0xCB JUMPI DUP1 PUSH4 0xE89341C EQ PUSH2 0xEB JUMPI DUP1 PUSH4 0x156E29F6 EQ PUSH2 0x10B JUMPI DUP1 PUSH4 0x2EB2C2D6 EQ PUSH2 0x120 JUMPI JUMPDEST PUSH1 0x0 DUP1 REVERT JUMPDEST PUSH2 0xB5 PUSH2 0xB0 CALLDATASIZE PUSH1 0x4 PUSH2 0xF39 JUMP JUMPDEST PUSH2 0x19F JUMP JUMPDEST PUSH1 0x40 MLOAD PUSH2 0xC2 SWAP2 SWAP1 PUSH2 0x150B JUMP JUMPDEST PUSH1 0x40 MLOAD DUP1 SWAP2 SUB SWAP1 RETURN JUMPDEST PUSH2 0xDE PUSH2 0xD9 CALLDATASIZE PUSH1 0x4 PUSH2 0x1052 JUMP JUMPDEST PUSH2 0x1F6 JUMP JUMPDEST PUSH1 0x40 MLOAD PUSH2 0xC2 SWAP2 SWAP1 PUSH2 0x1212 JUMP JUMPDEST PUSH2 0xFE PUSH2 0xF9 CALLDATASIZE PUSH1 0x4 PUSH2 0x1091 JUMP JUMPDEST PUSH2 0x23E JUMP JUMPDEST PUSH1 0x40 MLOAD PUSH2 0xC2 SWAP2 SWAP1 PUSH2 0x121D JUMP JUMPDEST PUSH2 0x11E PUSH2 0x119 CALLDATASIZE PUSH1 0x4 PUSH2 0xF62 JUMP JUMPDEST PUSH2 0x2D2 JUMP JUMPDEST STOP JUMPDEST PUSH2 0x11E PUSH2 0x12E CALLDATASIZE PUSH1 0x4 PUSH2 0xDF6 JUMP JUMPDEST PUSH2 0x2F2 JUMP JUMPDEST PUSH2 0x146 PUSH2 0x141 CALLDATASIZE PUSH1 0x4 PUSH2 0xF94 JUMP JUMPDEST PUSH2 0x350 JUMP JUMPDEST PUSH1 0x40 MLOAD PUSH2 0xC2 SWAP2 SWAP1 PUSH2 0x11D1 JUMP JUMPDEST PUSH2 0x11E PUSH2 0x161 CALLDATASIZE PUSH1 0x4 PUSH2 0xEFF JUMP JUMPDEST PUSH2 0x470 JUMP JUMPDEST PUSH2 0xB5 PUSH2 0x174 CALLDATASIZE PUSH1 0x4 PUSH2 0x1091 JUMP JUMPDEST PUSH2 0x486 JUMP JUMPDEST PUSH2 0xDE PUSH2 0x187 CALLDATASIZE PUSH1 0x4 PUSH2 0xDC4 JUMP JUMPDEST PUSH2 0x498 JUMP JUMPDEST PUSH2 0x11E PUSH2 0x19A CALLDATASIZE PUSH1 0x4 PUSH2 0xE9C JUMP JUMPDEST PUSH2 0x4C6 JUMP JUMPDEST PUSH1 0x0 PUSH1 0x1 PUSH1 0x1 PUSH1 0xA0 SHL SUB DUP4 AND PUSH2 0x1D0 JUMPI PUSH1 0x40 MLOAD PUSH3 0x461BCD PUSH1 0xE5 SHL DUP2 MSTORE PUSH1 0x4 ADD PUSH2 0x1C7 SWAP1 PUSH2 0x1230 JUMP JUMPDEST PUSH1 0x40 MLOAD DUP1 SWAP2 SUB SWAP1 REVERT JUMPDEST POP PUSH1 0x0 SWAP1 DUP2 MSTORE PUSH1 0x20 DUP2 DUP2 MSTORE PUSH1 0x40 DUP1 DUP4 KECCAK256 PUSH1 0x1 PUSH1 0x1 PUSH1 0xA0 SHL SUB SWAP5 SWAP1 SWAP5 AND DUP4 MSTORE SWAP3 SWAP1 MSTORE KECCAK256 SLOAD SWAP1 JUMP JUMPDEST PUSH1 0x0 PUSH1 0x1 PUSH1 0x1 PUSH1 0xE0 SHL SUB NOT DUP3 AND PUSH4 0x6433CA1F PUSH1 0xE0 SHL EQ DUP1 PUSH2 0x227 JUMPI POP PUSH1 0x1 PUSH1 0x1 PUSH1 0xE0 SHL SUB NOT DUP3 AND PUSH4 0x3A24D07 PUSH1 0xE2 SHL EQ JUMPDEST DUP1 PUSH2 0x236 JUMPI POP PUSH2 0x236 DUP3 PUSH2 0x51D JUMP JUMPDEST SWAP1 POP JUMPDEST SWAP2 SWAP1 POP JUMP JUMPDEST PUSH1 0x60 PUSH1 0x2 DUP1 SLOAD PUSH2 0x24D SWAP1 PUSH2 0x1588 JUMP JUMPDEST DUP1 PUSH1 0x1F ADD PUSH1 0x20 DUP1 SWAP2 DIV MUL PUSH1 0x20 ADD PUSH1 0x40 MLOAD SWAP1 DUP2 ADD PUSH1 0x40 MSTORE DUP1 SWAP3 SWAP2 SWAP1 DUP2 DUP2 MSTORE PUSH1 0x20 ADD DUP3 DUP1 SLOAD PUSH2 0x279 SWAP1 PUSH2 0x1588 JUMP JUMPDEST DUP1 ISZERO PUSH2 0x2C6 JUMPI DUP1 PUSH1 0x1F LT PUSH2 0x29B JUMPI PUSH2 0x100 DUP1 DUP4 SLOAD DIV MUL DUP4 MSTORE SWAP2 PUSH1 0x20 ADD SWAP2 PUSH2 0x2C6 JUMP JUMPDEST DUP3 ADD SWAP2 SWAP1 PUSH1 0x0 MSTORE PUSH1 0x20 PUSH1 0x0 KECCAK256 SWAP1 JUMPDEST DUP2 SLOAD DUP2 MSTORE SWAP1 PUSH1 0x1 ADD SWAP1 PUSH1 0x20 ADD DUP1 DUP4 GT PUSH2 0x2A9 JUMPI DUP3 SWAP1 SUB PUSH1 0x1F AND DUP3 ADD SWAP2 JUMPDEST POP POP POP POP POP SWAP1 POP SWAP2 SWAP1 POP JUMP JUMPDEST PUSH2 0x2ED DUP4 DUP4 DUP4 PUSH1 0x40 MLOAD DUP1 PUSH1 0x20 ADD PUSH1 0x40 MSTORE DUP1 PUSH1 0x0 DUP2 MSTORE POP PUSH2 0x536 JUMP JUMPDEST POP POP POP JUMP JUMPDEST PUSH2 0x2FA PUSH2 0x647 JUMP JUMPDEST PUSH1 0x1 PUSH1 0x1 PUSH1 0xA0 SHL SUB AND DUP6 PUSH1 0x1 PUSH1 0x1 PUSH1 0xA0 SHL SUB AND EQ DUP1 PUSH2 0x320 JUMPI POP PUSH2 0x320 DUP6 PUSH2 0x187 PUSH2 0x647 JUMP JUMPDEST PUSH2 0x33C JUMPI PUSH1 0x40 MLOAD PUSH3 0x461BCD PUSH1 0xE5 SHL DUP2 MSTORE PUSH1 0x4 ADD PUSH2 0x1C7 SWAP1 PUSH2 0x136B JUMP JUMPDEST PUSH2 0x349 DUP6 DUP6 DUP6 DUP6 DUP6 PUSH2 0x64B JUMP JUMPDEST POP POP POP POP POP JUMP JUMPDEST PUSH1 0x60 DUP2 MLOAD DUP4 MLOAD EQ PUSH2 0x373 JUMPI PUSH1 0x40 MLOAD PUSH3 0x461BCD PUSH1 0xE5 SHL DUP2 MSTORE PUSH1 0x4 ADD PUSH2 0x1C7 SWAP1 PUSH2 0x1278 JUMP JUMPDEST PUSH1 0x0 DUP4 MLOAD PUSH8 0xFFFFFFFFFFFFFFFF DUP2 GT ISZERO PUSH2 0x39D JUMPI PUSH4 0x4E487B71 PUSH1 0xE0 SHL PUSH1 0x0 MSTORE PUSH1 0x41 PUSH1 0x4 MSTORE PUSH1 0x24 PUSH1 0x0 REVERT JUMPDEST PUSH1 0x40 MLOAD SWAP1 DUP1 DUP3 MSTORE DUP1 PUSH1 0x20 MUL PUSH1 0x20 ADD DUP3 ADD PUSH1 0x40 MSTORE DUP1 ISZERO PUSH2 0x3C6 JUMPI DUP2 PUSH1 0x20 ADD PUSH1 0x20 DUP3 MUL DUP1 CALLDATASIZE DUP4 CALLDATACOPY ADD SWAP1 POP JUMPDEST POP SWAP1 POP PUSH1 0x0 JUMPDEST DUP5 MLOAD DUP2 LT ISZERO PUSH2 0x468 JUMPI PUSH2 0x42D DUP6 DUP3 DUP2 MLOAD DUP2 LT PUSH2 0x3F8 JUMPI PUSH4 0x4E487B71 PUSH1 0xE0 SHL PUSH1 0x0 MSTORE PUSH1 0x32 PUSH1 0x4 MSTORE PUSH1 0x24 PUSH1 0x0 REVERT JUMPDEST PUSH1 0x20 MUL PUSH1 0x20 ADD ADD MLOAD DUP6 DUP4 DUP2 MLOAD DUP2 LT PUSH2 0x420 JUMPI PUSH4 0x4E487B71 PUSH1 0xE0 SHL PUSH1 0x0 MSTORE PUSH1 0x32 PUSH1 0x4 MSTORE PUSH1 0x24 PUSH1 0x0 REVERT JUMPDEST PUSH1 0x20 MUL PUSH1 0x20 ADD ADD MLOAD PUSH2 0x19F JUMP JUMPDEST DUP3 DUP3 DUP2 MLOAD DUP2 LT PUSH2 0x44D JUMPI PUSH4 0x4E487B71 PUSH1 0xE0 SHL PUSH1 0x0 MSTORE PUSH1 0x32 PUSH1 0x4 MSTORE PUSH1 0x24 PUSH1 0x0 REVERT JUMPDEST PUSH1 0x20 SWAP1 DUP2 MUL SWAP2 SWAP1 SWAP2 ADD ADD MSTORE PUSH2 0x461 DUP2 PUSH2 0x15C3 JUMP JUMPDEST SWAP1 POP PUSH2 0x3CC JUMP JUMPDEST POP SWAP4 SWAP3 POP POP POP JUMP JUMPDEST PUSH2 0x482 PUSH2 0x47B PUSH2 0x647 JUMP JUMPDEST DUP4 DUP4 PUSH2 0x82A JUMP JUMPDEST POP POP JUMP JUMPDEST PUSH1 0x0 SWAP1 DUP2 MSTORE PUSH1 0x3 PUSH1 0x20 MSTORE PUSH1 0x40 SWAP1 KECCAK256 SLOAD SWAP1 JUMP JUMPDEST PUSH1 0x1 PUSH1 0x1 PUSH1 0xA0 SHL SUB SWAP2 DUP3 AND PUSH1 0x0 SWAP1 DUP2 MSTORE PUSH1 0x1 PUSH1 0x20 SWAP1 DUP2 MSTORE PUSH1 0x40 DUP1 DUP4 KECCAK256 SWAP4 SWAP1 SWAP5 AND DUP3 MSTORE SWAP2 SWAP1 SWAP2 MSTORE KECCAK256 SLOAD PUSH1 0xFF AND SWAP1 JUMP JUMPDEST PUSH2 0x4CE PUSH2 0x647 JUMP JUMPDEST PUSH1 0x1 PUSH1 0x1 PUSH1 0xA0 SHL SUB AND DUP6 PUSH1 0x1 PUSH1 0x1 PUSH1 0xA0 SHL SUB AND EQ DUP1 PUSH2 0x4F4 JUMPI POP PUSH2 0x4F4 DUP6 PUSH2 0x187 PUSH2 0x647 JUMP JUMPDEST PUSH2 0x510 JUMPI PUSH1 0x40 MLOAD PUSH3 0x461BCD PUSH1 0xE5 SHL DUP2 MSTORE PUSH1 0x4 ADD PUSH2 0x1C7 SWAP1 PUSH2 0x1481 JUMP JUMPDEST PUSH2 0x349 DUP6 DUP6 DUP6 DUP6 DUP6 PUSH2 0x8CD JUMP JUMPDEST PUSH1 0x1 PUSH1 0x1 PUSH1 0xE0 SHL SUB NOT DUP2 AND PUSH4 0x1FFC9A7 PUSH1 0xE0 SHL EQ SWAP2 SWAP1 POP JUMP JUMPDEST PUSH1 0x1 PUSH1 0x1 PUSH1 0xA0 SHL SUB DUP5 AND PUSH2 0x55C JUMPI PUSH1 0x40 MLOAD PUSH3 0x461BCD PUSH1 0xE5 SHL DUP2 MSTORE PUSH1 0x4 ADD PUSH2 0x1C7 SWAP1 PUSH2 0x144A JUMP JUMPDEST PUSH1 0x0 PUSH2 0x566 PUSH2 0x647 JUMP JUMPDEST SWAP1 POP PUSH1 0x0 PUSH2 0x573 DUP6 PUSH2 0xA2A JUMP JUMPDEST SWAP1 POP PUSH1 0x0 PUSH2 0x580 DUP6 PUSH2 0xA2A JUMP JUMPDEST SWAP1 POP PUSH2 0x591 DUP4 PUSH1 0x0 DUP10 DUP6 DUP6 DUP10 PUSH2 0x822 JUMP JUMPDEST PUSH1 0x0 DUP7 DUP2 MSTORE PUSH1 0x20 DUP2 DUP2 MSTORE PUSH1 0x40 DUP1 DUP4 KECCAK256 PUSH1 0x1 PUSH1 0x1 PUSH1 0xA0 SHL SUB DUP12 AND DUP5 MSTORE SWAP1 SWAP2 MSTORE DUP2 KECCAK256 DUP1 SLOAD DUP8 SWAP3 SWAP1 PUSH2 0x5C1 SWAP1 DUP5 SWAP1 PUSH2 0x1570 JUMP JUMPDEST SWAP3 POP POP DUP2 SWAP1 SSTORE POP DUP7 PUSH1 0x1 PUSH1 0x1 PUSH1 0xA0 SHL SUB AND PUSH1 0x0 PUSH1 0x1 PUSH1 0x1 PUSH1 0xA0 SHL SUB AND DUP5 PUSH1 0x1 PUSH1 0x1 PUSH1 0xA0 SHL SUB AND PUSH32 0xC3D58168C5AE7397731D063D5BBF3D657854427343F4C083240F7AACAA2D0F62 DUP10 DUP10 PUSH1 0x40 MLOAD PUSH2 0x618 SWAP3 SWAP2 SWAP1 PUSH2 0x1514 JUMP JUMPDEST PUSH1 0x40 MLOAD DUP1 SWAP2 SUB SWAP1 LOG4 PUSH2 0x62F DUP4 PUSH1 0x0 DUP10 DUP6 DUP6 DUP10 PUSH2 0x822 JUMP JUMPDEST PUSH2 0x63E DUP4 PUSH1 0x0 DUP10 DUP10 DUP10 DUP10 PUSH2 0xA83 JUMP JUMPDEST POP POP POP POP POP POP POP JUMP JUMPDEST CALLER SWAP1 JUMP JUMPDEST DUP2 MLOAD DUP4 MLOAD EQ PUSH2 0x66C JUMPI PUSH1 0x40 MLOAD PUSH3 0x461BCD PUSH1 0xE5 SHL DUP2 MSTORE PUSH1 0x4 ADD PUSH2 0x1C7 SWAP1 PUSH2 0x1325 JUMP JUMPDEST PUSH1 0x1 PUSH1 0x1 PUSH1 0xA0 SHL SUB DUP5 AND PUSH2 0x692 JUMPI PUSH1 0x40 MLOAD PUSH3 0x461BCD PUSH1 0xE5 SHL DUP2 MSTORE PUSH1 0x4 ADD PUSH2 0x1C7 SWAP1 PUSH2 0x14C8 JUMP JUMPDEST PUSH1 0x0 PUSH2 0x69C PUSH2 0x647 JUMP JUMPDEST SWAP1 POP PUSH2 0x6AC DUP2 DUP8 DUP8 DUP8 DUP8 DUP8 PUSH2 0x822 JUMP JUMPDEST PUSH1 0x0 JUMPDEST DUP5 MLOAD DUP2 LT ISZERO PUSH2 0x7AE JUMPI PUSH1 0x0 DUP6 DUP3 DUP2 MLOAD DUP2 LT PUSH2 0x6DA JUMPI PUSH4 0x4E487B71 PUSH1 0xE0 SHL PUSH1 0x0 MSTORE PUSH1 0x32 PUSH1 0x4 MSTORE PUSH1 0x24 PUSH1 0x0 REVERT JUMPDEST PUSH1 0x20 MUL PUSH1 0x20 ADD ADD MLOAD SWAP1 POP PUSH1 0x0 DUP6 DUP4 DUP2 MLOAD DUP2 LT PUSH2 0x706 JUMPI PUSH4 0x4E487B71 PUSH1 0xE0 SHL PUSH1 0x0 MSTORE PUSH1 0x32 PUSH1 0x4 MSTORE PUSH1 0x24 PUSH1 0x0 REVERT JUMPDEST PUSH1 0x20 SWAP1 DUP2 MUL SWAP2 SWAP1 SWAP2 ADD DUP2 ADD MLOAD PUSH1 0x0 DUP5 DUP2 MSTORE DUP1 DUP4 MSTORE PUSH1 0x40 DUP1 DUP3 KECCAK256 PUSH1 0x1 PUSH1 0x1 PUSH1 0xA0 SHL SUB DUP15 AND DUP4 MSTORE SWAP1 SWAP4 MSTORE SWAP2 SWAP1 SWAP2 KECCAK256 SLOAD SWAP1 SWAP2 POP DUP2 DUP2 LT ISZERO PUSH2 0x756 JUMPI PUSH1 0x40 MLOAD PUSH3 0x461BCD PUSH1 0xE5 SHL DUP2 MSTORE PUSH1 0x4 ADD PUSH2 0x1C7 SWAP1 PUSH2 0x13BB JUMP JUMPDEST PUSH1 0x0 DUP4 DUP2 MSTORE PUSH1 0x20 DUP2 DUP2 MSTORE PUSH1 0x40 DUP1 DUP4 KECCAK256 PUSH1 0x1 PUSH1 0x1 PUSH1 0xA0 SHL SUB DUP15 DUP2 AND DUP6 MSTORE SWAP3 MSTORE DUP1 DUP4 KECCAK256 DUP6 DUP6 SUB SWAP1 SSTORE SWAP1 DUP12 AND DUP3 MSTORE DUP2 KECCAK256 DUP1 SLOAD DUP5 SWAP3 SWAP1 PUSH2 0x793 SWAP1 DUP5 SWAP1 PUSH2 0x1570 JUMP JUMPDEST SWAP3 POP POP DUP2 SWAP1 SSTORE POP POP POP POP DUP1 PUSH2 0x7A7 SWAP1 PUSH2 0x15C3 JUMP JUMPDEST SWAP1 POP PUSH2 0x6AF JUMP JUMPDEST POP DUP5 PUSH1 0x1 PUSH1 0x1 PUSH1 0xA0 SHL SUB AND DUP7 PUSH1 0x1 PUSH1 0x1 PUSH1 0xA0 SHL SUB AND DUP3 PUSH1 0x1 PUSH1 0x1 PUSH1 0xA0 SHL SUB AND PUSH32 0x4A39DC06D4C0DBC64B70AF90FD698A233A518AA5D07E595D983B8C0526C8F7FB DUP8 DUP8 PUSH1 0x40 MLOAD PUSH2 0x7FE SWAP3 SWAP2 SWAP1 PUSH2 0x11E4 JUMP JUMPDEST PUSH1 0x40 MLOAD DUP1 SWAP2 SUB SWAP1 LOG4 PUSH2 0x814 DUP2 DUP8 DUP8 DUP8 DUP8 DUP8 PUSH2 0x822 JUMP JUMPDEST PUSH2 0x822 DUP2 DUP8 DUP8 DUP8 DUP8 DUP8 PUSH2 0xAAD JUMP JUMPDEST POP POP POP POP POP POP JUMP JUMPDEST DUP2 PUSH1 0x1 PUSH1 0x1 PUSH1 0xA0 SHL SUB AND DUP4 PUSH1 0x1 PUSH1 0x1 PUSH1 0xA0 SHL SUB AND EQ ISZERO PUSH2 0x85C JUMPI PUSH1 0x40 MLOAD PUSH3 0x461BCD PUSH1 0xE5 SHL DUP2 MSTORE PUSH1 0x4 ADD PUSH2 0x1C7 SWAP1 PUSH2 0x1403 JUMP JUMPDEST PUSH1 0x1 PUSH1 0x1 PUSH1 0xA0 SHL SUB DUP4 DUP2 AND PUSH1 0x0 DUP2 DUP2 MSTORE PUSH1 0x1 PUSH1 0x20 SWAP1 DUP2 MSTORE PUSH1 0x40 DUP1 DUP4 KECCAK256 SWAP5 DUP8 AND DUP1 DUP5 MSTORE SWAP5 SWAP1 SWAP2 MSTORE SWAP1 DUP2 SWAP1 KECCAK256 DUP1 SLOAD PUSH1 0xFF NOT AND DUP6 ISZERO ISZERO OR SWAP1 SSTORE MLOAD PUSH32 0x17307EAB39AB6107E8899845AD3D59BD9653F200F220920489CA2B5937696C31 SWAP1 PUSH2 0x8C0 SWAP1 DUP6 SWAP1 PUSH2 0x1212 JUMP JUMPDEST PUSH1 0x40 MLOAD DUP1 SWAP2 SUB SWAP1 LOG3 POP POP POP JUMP JUMPDEST PUSH1 0x1 PUSH1 0x1 PUSH1 0xA0 SHL SUB DUP5 AND PUSH2 0x8F3 JUMPI PUSH1 0x40 MLOAD PUSH3 0x461BCD PUSH1 0xE5 SHL DUP2 MSTORE PUSH1 0x4 ADD PUSH2 0x1C7 SWAP1 PUSH2 0x14C8 JUMP JUMPDEST PUSH1 0x0 PUSH2 0x8FD PUSH2 0x647 JUMP JUMPDEST SWAP1 POP PUSH1 0x0 PUSH2 0x90A DUP6 PUSH2 0xA2A JUMP JUMPDEST SWAP1 POP PUSH1 0x0 PUSH2 0x917 DUP6 PUSH2 0xA2A JUMP JUMPDEST SWAP1 POP PUSH2 0x927 DUP4 DUP10 DUP10 DUP6 DUP6 DUP10 PUSH2 0x822 JUMP JUMPDEST PUSH1 0x0 DUP7 DUP2 MSTORE PUSH1 0x20 DUP2 DUP2 MSTORE PUSH1 0x40 DUP1 DUP4 KECCAK256 PUSH1 0x1 PUSH1 0x1 PUSH1 0xA0 SHL SUB DUP13 AND DUP5 MSTORE SWAP1 SWAP2 MSTORE SWAP1 KECCAK256 SLOAD DUP6 DUP2 LT ISZERO PUSH2 0x968 JUMPI PUSH1 0x40 MLOAD PUSH3 0x461BCD PUSH1 0xE5 SHL DUP2 MSTORE PUSH1 0x4 ADD PUSH2 0x1C7 SWAP1 PUSH2 0x13BB JUMP JUMPDEST PUSH1 0x0 DUP8 DUP2 MSTORE PUSH1 0x20 DUP2 DUP2 MSTORE PUSH1 0x40 DUP1 DUP4 KECCAK256 PUSH1 0x1 PUSH1 0x1 PUSH1 0xA0 SHL SUB DUP14 DUP2 AND DUP6 MSTORE SWAP3 MSTORE DUP1 DUP4 KECCAK256 DUP10 DUP6 SUB SWAP1 SSTORE SWAP1 DUP11 AND DUP3 MSTORE DUP2 KECCAK256 DUP1 SLOAD DUP9 SWAP3 SWAP1 PUSH2 0x9A5 SWAP1 DUP5 SWAP1 PUSH2 0x1570 JUMP JUMPDEST SWAP3 POP POP DUP2 SWAP1 SSTORE POP DUP8 PUSH1 0x1 PUSH1 0x1 PUSH1 0xA0 SHL SUB AND DUP10 PUSH1 0x1 PUSH1 0x1 PUSH1 0xA0 SHL SUB AND DUP6 PUSH1 0x1 PUSH1 0x1 PUSH1 0xA0 SHL SUB AND PUSH32 0xC3D58168C5AE7397731D063D5BBF3D657854427343F4C083240F7AACAA2D0F62 DUP11 DUP11 PUSH1 0x40 MLOAD PUSH2 0x9FB SWAP3 SWAP2 SWAP1 PUSH2 0x1514 JUMP JUMPDEST PUSH1 0x40 MLOAD DUP1 SWAP2 SUB SWAP1 LOG4 PUSH2 0xA11 DUP5 DUP11 DUP11 DUP7 DUP7 DUP11 PUSH2 0x822 JUMP JUMPDEST PUSH2 0xA1F DUP5 DUP11 DUP11 DUP11 DUP11 DUP11 PUSH2 0xA83 JUMP JUMPDEST POP POP POP POP POP POP POP POP POP JUMP JUMPDEST PUSH1 0x40 DUP1 MLOAD PUSH1 0x1 DUP1 DUP3 MSTORE DUP2 DUP4 ADD SWAP1 SWAP3 MSTORE PUSH1 0x60 SWAP2 PUSH1 0x0 SWAP2 SWAP1 PUSH1 0x20 DUP1 DUP4 ADD SWAP1 DUP1 CALLDATASIZE DUP4 CALLDATACOPY ADD SWAP1 POP POP SWAP1 POP DUP3 DUP2 PUSH1 0x0 DUP2 MLOAD DUP2 LT PUSH2 0xA72 JUMPI PUSH4 0x4E487B71 PUSH1 0xE0 SHL PUSH1 0x0 MSTORE PUSH1 0x32 PUSH1 0x4 MSTORE PUSH1 0x24 PUSH1 0x0 REVERT JUMPDEST PUSH1 0x20 SWAP1 DUP2 MUL SWAP2 SWAP1 SWAP2 ADD ADD MSTORE SWAP3 SWAP2 POP POP JUMP JUMPDEST PUSH2 0xA91 DUP7 DUP7 DUP7 DUP7 DUP7 DUP7 PUSH2 0xABB JUMP JUMPDEST PUSH2 0x822 JUMPI PUSH1 0x40 MLOAD PUSH3 0x461BCD PUSH1 0xE5 SHL DUP2 MSTORE PUSH1 0x4 ADD PUSH2 0x1C7 SWAP1 PUSH2 0x12BD JUMP JUMPDEST PUSH2 0xA91 DUP7 DUP7 DUP7 DUP7 DUP7 DUP7 PUSH2 0xBC6 JUMP JUMPDEST PUSH1 0x0 PUSH2 0xACF DUP6 PUSH1 0x1 PUSH1 0x1 PUSH1 0xA0 SHL SUB AND PUSH2 0xCA5 JUMP JUMPDEST ISZERO PUSH2 0xBB8 JUMPI PUSH1 0x40 MLOAD PUSH4 0xE78B3325 PUSH1 0xE0 SHL DUP2 MSTORE PUSH1 0x1 PUSH1 0x1 PUSH1 0xA0 SHL SUB DUP7 AND SWAP1 PUSH4 0xE78B3325 SWAP1 PUSH2 0xB08 SWAP1 DUP11 SWAP1 DUP11 SWAP1 DUP10 SWAP1 DUP10 SWAP1 DUP10 SWAP1 PUSH1 0x4 ADD PUSH2 0x118C JUMP JUMPDEST PUSH1 0x20 PUSH1 0x40 MLOAD DUP1 DUP4 SUB DUP2 PUSH1 0x0 DUP8 DUP1 EXTCODESIZE ISZERO DUP1 ISZERO PUSH2 0xB22 JUMPI PUSH1 0x0 DUP1 REVERT JUMPDEST POP GAS CALL SWAP3 POP POP POP DUP1 ISZERO PUSH2 0xB52 JUMPI POP PUSH1 0x40 DUP1 MLOAD PUSH1 0x1F RETURNDATASIZE SWAP1 DUP2 ADD PUSH1 0x1F NOT AND DUP3 ADD SWAP1 SWAP3 MSTORE PUSH2 0xB4F SWAP2 DUP2 ADD SWAP1 PUSH2 0x1075 JUMP JUMPDEST PUSH1 0x1 JUMPDEST PUSH2 0xB9E JUMPI RETURNDATASIZE DUP1 DUP1 ISZERO PUSH2 0xB80 JUMPI PUSH1 0x40 MLOAD SWAP2 POP PUSH1 0x1F NOT PUSH1 0x3F RETURNDATASIZE ADD AND DUP3 ADD PUSH1 0x40 MSTORE RETURNDATASIZE DUP3 MSTORE RETURNDATASIZE PUSH1 0x0 PUSH1 0x20 DUP5 ADD RETURNDATACOPY PUSH2 0xB85 JUMP JUMPDEST PUSH1 0x60 SWAP2 POP JUMPDEST POP DUP1 MLOAD PUSH2 0xB96 JUMPI PUSH1 0x0 SWAP2 POP POP PUSH2 0xBBC JUMP JUMPDEST DUP1 MLOAD DUP2 PUSH1 0x20 ADD REVERT JUMPDEST PUSH1 0x1 PUSH1 0x1 PUSH1 0xE0 SHL SUB NOT AND PUSH4 0xE78B3325 PUSH1 0xE0 SHL EQ SWAP1 POP PUSH2 0xBBC JUMP JUMPDEST POP PUSH1 0x1 JUMPDEST SWAP7 SWAP6 POP POP POP POP POP POP JUMP JUMPDEST PUSH1 0x0 PUSH2 0xBDA DUP6 PUSH1 0x1 PUSH1 0x1 PUSH1 0xA0 SHL SUB AND PUSH2 0xCA5 JUMP JUMPDEST ISZERO PUSH2 0xBB8 JUMPI PUSH1 0x40 MLOAD PUSH4 0x4DA4F199 PUSH1 0xE1 SHL DUP2 MSTORE PUSH1 0x1 PUSH1 0x1 PUSH1 0xA0 SHL SUB DUP7 AND SWAP1 PUSH4 0x9B49E332 SWAP1 PUSH2 0xC13 SWAP1 DUP11 SWAP1 DUP11 SWAP1 DUP10 SWAP1 DUP10 SWAP1 DUP10 SWAP1 PUSH1 0x4 ADD PUSH2 0x112E JUMP JUMPDEST PUSH1 0x20 PUSH1 0x40 MLOAD DUP1 DUP4 SUB DUP2 PUSH1 0x0 DUP8 DUP1 EXTCODESIZE ISZERO DUP1 ISZERO PUSH2 0xC2D JUMPI PUSH1 0x0 DUP1 REVERT JUMPDEST POP GAS CALL SWAP3 POP POP POP DUP1 ISZERO PUSH2 0xC5D JUMPI POP PUSH1 0x40 DUP1 MLOAD PUSH1 0x1F RETURNDATASIZE SWAP1 DUP2 ADD PUSH1 0x1F NOT AND DUP3 ADD SWAP1 SWAP3 MSTORE PUSH2 0xC5A SWAP2 DUP2 ADD SWAP1 PUSH2 0x1075 JUMP JUMPDEST PUSH1 0x1 JUMPDEST PUSH2 0xC8B JUMPI RETURNDATASIZE DUP1 DUP1 ISZERO PUSH2 0xB80 JUMPI PUSH1 0x40 MLOAD SWAP2 POP PUSH1 0x1F NOT PUSH1 0x3F RETURNDATASIZE ADD AND DUP3 ADD PUSH1 0x40 MSTORE RETURNDATASIZE DUP3 MSTORE RETURNDATASIZE PUSH1 0x0 PUSH1 0x20 DUP5 ADD RETURNDATACOPY PUSH2 0xB85 JUMP JUMPDEST PUSH1 0x1 PUSH1 0x1 PUSH1 0xE0 SHL SUB NOT AND PUSH4 0x4DA4F199 PUSH1 0xE1 SHL EQ SWAP1 POP PUSH2 0xBBC JUMP JUMPDEST PUSH1 0x0 DUP1 DUP3 PUSH1 0x1 PUSH1 0x1 PUSH1 0xA0 SHL SUB AND DUP1 EXTCODESIZE DUP1 PUSH1 0x20 ADD PUSH1 0x40 MLOAD SWAP1 DUP2 ADD PUSH1 0x40 MSTORE DUP2 DUP2 MSTORE PUSH1 0x0 SWAP1 DUP1 PUSH1 0x20 ADD SWAP1 SWAP4 EXTCODECOPY MLOAD GT SWAP3 SWAP2 POP POP JUMP JUMPDEST DUP1 CALLDATALOAD PUSH1 0x1 PUSH1 0x1 PUSH1 0xA0 SHL SUB DUP2 AND DUP2 EQ PUSH2 0x239 JUMPI PUSH1 0x0 DUP1 REVERT JUMPDEST PUSH1 0x0 DUP3 PUSH1 0x1F DUP4 ADD SLT PUSH2 0xCFD JUMPI DUP1 DUP2 REVERT JUMPDEST DUP2 CALLDATALOAD PUSH1 0x20 PUSH2 0xD12 PUSH2 0xD0D DUP4 PUSH2 0x154C JUMP JUMPDEST PUSH2 0x1522 JUMP JUMPDEST DUP3 DUP2 MSTORE DUP2 DUP2 ADD SWAP1 DUP6 DUP4 ADD DUP4 DUP6 MUL DUP8 ADD DUP5 ADD DUP9 LT ISZERO PUSH2 0xD2E JUMPI DUP6 DUP7 REVERT JUMPDEST DUP6 JUMPDEST DUP6 DUP2 LT ISZERO PUSH2 0xD4C JUMPI DUP2 CALLDATALOAD DUP5 MSTORE SWAP3 DUP5 ADD SWAP3 SWAP1 DUP5 ADD SWAP1 PUSH1 0x1 ADD PUSH2 0xD30 JUMP JUMPDEST POP SWAP1 SWAP8 SWAP7 POP POP POP POP POP POP POP JUMP JUMPDEST PUSH1 0x0 DUP3 PUSH1 0x1F DUP4 ADD SLT PUSH2 0xD69 JUMPI DUP1 DUP2 REVERT JUMPDEST DUP2 CALLDATALOAD PUSH8 0xFFFFFFFFFFFFFFFF DUP2 GT ISZERO PUSH2 0xD83 JUMPI PUSH2 0xD83 PUSH2 0x15F4 JUMP JUMPDEST PUSH2 0xD96 PUSH1 0x1F DUP3 ADD PUSH1 0x1F NOT AND PUSH1 0x20 ADD PUSH2 0x1522 JUMP JUMPDEST DUP2 DUP2 MSTORE DUP5 PUSH1 0x20 DUP4 DUP7 ADD ADD GT ISZERO PUSH2 0xDAA JUMPI DUP3 DUP4 REVERT JUMPDEST DUP2 PUSH1 0x20 DUP6 ADD PUSH1 0x20 DUP4 ADD CALLDATACOPY SWAP1 DUP2 ADD PUSH1 0x20 ADD SWAP2 SWAP1 SWAP2 MSTORE SWAP3 SWAP2 POP POP JUMP JUMPDEST PUSH1 0x0 DUP1 PUSH1 0x40 DUP4 DUP6 SUB SLT ISZERO PUSH2 0xDD6 JUMPI DUP2 DUP3 REVERT JUMPDEST PUSH2 0xDDF DUP4 PUSH2 0xCD6 JUMP JUMPDEST SWAP2 POP PUSH2 0xDED PUSH1 0x20 DUP5 ADD PUSH2 0xCD6 JUMP JUMPDEST SWAP1 POP SWAP3 POP SWAP3 SWAP1 POP JUMP JUMPDEST PUSH1 0x0 DUP1 PUSH1 0x0 DUP1 PUSH1 0x0 PUSH1 0xA0 DUP7 DUP9 SUB SLT ISZERO PUSH2 0xE0D JUMPI DUP1 DUP2 REVERT JUMPDEST PUSH2 0xE16 DUP7 PUSH2 0xCD6 JUMP JUMPDEST SWAP5 POP PUSH2 0xE24 PUSH1 0x20 DUP8 ADD PUSH2 0xCD6 JUMP JUMPDEST SWAP4 POP PUSH1 0x40 DUP7 ADD CALLDATALOAD PUSH8 0xFFFFFFFFFFFFFFFF DUP1 DUP3 GT ISZERO PUSH2 0xE40 JUMPI DUP3 DUP4 REVERT JUMPDEST PUSH2 0xE4C DUP10 DUP4 DUP11 ADD PUSH2 0xCED JUMP JUMPDEST SWAP5 POP PUSH1 0x60 DUP9 ADD CALLDATALOAD SWAP2 POP DUP1 DUP3 GT ISZERO PUSH2 0xE61 JUMPI DUP3 DUP4 REVERT JUMPDEST PUSH2 0xE6D DUP10 DUP4 DUP11 ADD PUSH2 0xCED JUMP JUMPDEST SWAP4 POP PUSH1 0x80 DUP9 ADD CALLDATALOAD SWAP2 POP DUP1 DUP3 GT ISZERO PUSH2 0xE82 JUMPI DUP3 DUP4 REVERT JUMPDEST POP PUSH2 0xE8F DUP9 DUP3 DUP10 ADD PUSH2 0xD59 JUMP JUMPDEST SWAP2 POP POP SWAP3 SWAP6 POP SWAP3 SWAP6 SWAP1 SWAP4 POP JUMP JUMPDEST PUSH1 0x0 DUP1 PUSH1 0x0 DUP1 PUSH1 0x0 PUSH1 0xA0 DUP7 DUP9 SUB SLT ISZERO PUSH2 0xEB3 JUMPI DUP1 DUP2 REVERT JUMPDEST PUSH2 0xEBC DUP7 PUSH2 0xCD6 JUMP JUMPDEST SWAP5 POP PUSH2 0xECA PUSH1 0x20 DUP8 ADD PUSH2 0xCD6 JUMP JUMPDEST SWAP4 POP PUSH1 0x40 DUP7 ADD CALLDATALOAD SWAP3 POP PUSH1 0x60 DUP7 ADD CALLDATALOAD SWAP2 POP PUSH1 0x80 DUP7 ADD CALLDATALOAD PUSH8 0xFFFFFFFFFFFFFFFF DUP2 GT ISZERO PUSH2 0xEF3 JUMPI DUP2 DUP3 REVERT JUMPDEST PUSH2 0xE8F DUP9 DUP3 DUP10 ADD PUSH2 0xD59 JUMP JUMPDEST PUSH1 0x0 DUP1 PUSH1 0x40 DUP4 DUP6 SUB SLT ISZERO PUSH2 0xF11 JUMPI DUP2 DUP3 REVERT JUMPDEST PUSH2 0xF1A DUP4 PUSH2 0xCD6 JUMP JUMPDEST SWAP2 POP PUSH1 0x20 DUP4 ADD CALLDATALOAD DUP1 ISZERO ISZERO DUP2 EQ PUSH2 0xF2E JUMPI DUP2 DUP3 REVERT JUMPDEST DUP1 SWAP2 POP POP SWAP3 POP SWAP3 SWAP1 POP JUMP JUMPDEST PUSH1 0x0 DUP1 PUSH1 0x40 DUP4 DUP6 SUB SLT ISZERO PUSH2 0xF4B JUMPI DUP2 DUP3 REVERT JUMPDEST PUSH2 0xF54 DUP4 PUSH2 0xCD6 JUMP JUMPDEST SWAP5 PUSH1 0x20 SWAP4 SWAP1 SWAP4 ADD CALLDATALOAD SWAP4 POP POP POP JUMP JUMPDEST PUSH1 0x0 DUP1 PUSH1 0x0 PUSH1 0x60 DUP5 DUP7 SUB SLT ISZERO PUSH2 0xF76 JUMPI DUP3 DUP4 REVERT JUMPDEST PUSH2 0xF7F DUP5 PUSH2 0xCD6 JUMP JUMPDEST SWAP6 PUSH1 0x20 DUP6 ADD CALLDATALOAD SWAP6 POP PUSH1 0x40 SWAP1 SWAP5 ADD CALLDATALOAD SWAP4 SWAP3 POP POP POP JUMP JUMPDEST PUSH1 0x0 DUP1 PUSH1 0x40 DUP4 DUP6 SUB SLT ISZERO PUSH2 0xFA6 JUMPI DUP2 DUP3 REVERT JUMPDEST DUP3 CALLDATALOAD PUSH8 0xFFFFFFFFFFFFFFFF DUP1 DUP3 GT ISZERO PUSH2 0xFBD JUMPI DUP4 DUP5 REVERT JUMPDEST DUP2 DUP6 ADD SWAP2 POP DUP6 PUSH1 0x1F DUP4 ADD SLT PUSH2 0xFD0 JUMPI DUP4 DUP5 REVERT JUMPDEST DUP2 CALLDATALOAD PUSH1 0x20 PUSH2 0xFE0 PUSH2 0xD0D DUP4 PUSH2 0x154C JUMP JUMPDEST DUP3 DUP2 MSTORE DUP2 DUP2 ADD SWAP1 DUP6 DUP4 ADD DUP4 DUP6 MUL DUP8 ADD DUP5 ADD DUP12 LT ISZERO PUSH2 0xFFC JUMPI DUP9 DUP10 REVERT JUMPDEST DUP9 SWAP7 POP JUMPDEST DUP5 DUP8 LT ISZERO PUSH2 0x1025 JUMPI PUSH2 0x1011 DUP2 PUSH2 0xCD6 JUMP JUMPDEST DUP4 MSTORE PUSH1 0x1 SWAP7 SWAP1 SWAP7 ADD SWAP6 SWAP2 DUP4 ADD SWAP2 DUP4 ADD PUSH2 0x1000 JUMP JUMPDEST POP SWAP7 POP POP DUP7 ADD CALLDATALOAD SWAP3 POP POP DUP1 DUP3 GT ISZERO PUSH2 0x103B JUMPI DUP3 DUP4 REVERT JUMPDEST POP PUSH2 0x1048 DUP6 DUP3 DUP7 ADD PUSH2 0xCED JUMP JUMPDEST SWAP2 POP POP SWAP3 POP SWAP3 SWAP1 POP JUMP JUMPDEST PUSH1 0x0 PUSH1 0x20 DUP3 DUP5 SUB SLT ISZERO PUSH2 0x1063 JUMPI DUP1 DUP2 REVERT JUMPDEST DUP2 CALLDATALOAD PUSH2 0x106E DUP2 PUSH2 0x160A JUMP JUMPDEST SWAP4 SWAP3 POP POP POP JUMP JUMPDEST PUSH1 0x0 PUSH1 0x20 DUP3 DUP5 SUB SLT ISZERO PUSH2 0x1086 JUMPI DUP1 DUP2 REVERT JUMPDEST DUP2 MLOAD PUSH2 0x106E DUP2 PUSH2 0x160A JUMP JUMPDEST PUSH1 0x0 PUSH1 0x20 DUP3 DUP5 SUB SLT ISZERO PUSH2 0x10A2 JUMPI DUP1 DUP2 REVERT JUMPDEST POP CALLDATALOAD SWAP2 SWAP1 POP JUMP JUMPDEST PUSH1 0x0 DUP2 MLOAD DUP1 DUP5 MSTORE PUSH1 0x20 DUP1 DUP6 ADD SWAP5 POP DUP1 DUP5 ADD DUP4 JUMPDEST DUP4 DUP2 LT ISZERO PUSH2 0x10D8 JUMPI DUP2 MLOAD DUP8 MSTORE SWAP6 DUP3 ADD SWAP6 SWAP1 DUP3 ADD SWAP1 PUSH1 0x1 ADD PUSH2 0x10BC JUMP JUMPDEST POP SWAP5 SWAP6 SWAP5 POP POP POP POP POP JUMP JUMPDEST PUSH1 0x0 DUP2 MLOAD DUP1 DUP5 MSTORE DUP2 JUMPDEST DUP2 DUP2 LT ISZERO PUSH2 0x1108 JUMPI PUSH1 0x20 DUP2 DUP6 ADD DUP2 ADD MLOAD DUP7 DUP4 ADD DUP3 ADD MSTORE ADD PUSH2 0x10EC JUMP JUMPDEST DUP2 DUP2 GT ISZERO PUSH2 0x1119 JUMPI DUP3 PUSH1 0x20 DUP4 DUP8 ADD ADD MSTORE JUMPDEST POP PUSH1 0x1F ADD PUSH1 0x1F NOT AND SWAP3 SWAP1 SWAP3 ADD PUSH1 0x20 ADD SWAP3 SWAP2 POP POP JUMP JUMPDEST PUSH1 0x1 PUSH1 0x1 PUSH1 0xA0 SHL SUB DUP7 DUP2 AND DUP3 MSTORE DUP6 AND PUSH1 0x20 DUP3 ADD MSTORE PUSH1 0xA0 PUSH1 0x40 DUP3 ADD DUP2 SWAP1 MSTORE PUSH1 0x0 SWAP1 PUSH2 0x115A SWAP1 DUP4 ADD DUP7 PUSH2 0x10A9 JUMP JUMPDEST DUP3 DUP2 SUB PUSH1 0x60 DUP5 ADD MSTORE PUSH2 0x116C DUP2 DUP7 PUSH2 0x10A9 JUMP JUMPDEST SWAP1 POP DUP3 DUP2 SUB PUSH1 0x80 DUP5 ADD MSTORE PUSH2 0x1180 DUP2 DUP6 PUSH2 0x10E3 JUMP JUMPDEST SWAP9 SWAP8 POP POP POP POP POP POP POP POP JUMP JUMPDEST PUSH1 0x1 PUSH1 0x1 PUSH1 0xA0 SHL SUB DUP7 DUP2 AND DUP3 MSTORE DUP6 AND PUSH1 0x20 DUP3 ADD MSTORE PUSH1 0x40 DUP2 ADD DUP5 SWAP1 MSTORE PUSH1 0x60 DUP2 ADD DUP4 SWAP1 MSTORE PUSH1 0xA0 PUSH1 0x80 DUP3 ADD DUP2 SWAP1 MSTORE PUSH1 0x0 SWAP1 PUSH2 0x11C6 SWAP1 DUP4 ADD DUP5 PUSH2 0x10E3 JUMP JUMPDEST SWAP8 SWAP7 POP POP POP POP POP POP POP JUMP JUMPDEST PUSH1 0x0 PUSH1 0x20 DUP3 MSTORE PUSH2 0x106E PUSH1 0x20 DUP4 ADD DUP5 PUSH2 0x10A9 JUMP JUMPDEST PUSH1 0x0 PUSH1 0x40 DUP3 MSTORE PUSH2 0x11F7 PUSH1 0x40 DUP4 ADD DUP6 PUSH2 0x10A9 JUMP JUMPDEST DUP3 DUP2 SUB PUSH1 0x20 DUP5 ADD MSTORE PUSH2 0x1209 DUP2 DUP6 PUSH2 0x10A9 JUMP JUMPDEST SWAP6 SWAP5 POP POP POP POP POP JUMP JUMPDEST SWAP1 ISZERO ISZERO DUP2 MSTORE PUSH1 0x20 ADD SWAP1 JUMP JUMPDEST PUSH1 0x0 PUSH1 0x20 DUP3 MSTORE PUSH2 0x106E PUSH1 0x20 DUP4 ADD DUP5 PUSH2 0x10E3 JUMP JUMPDEST PUSH1 0x20 DUP1 DUP3 MSTORE PUSH1 0x28 SWAP1 DUP3 ADD MSTORE PUSH32 0x4B495033373A2061646472657373207A65726F206973206E6F7420612076616C PUSH1 0x40 DUP3 ADD MSTORE PUSH8 0x34B21037BBB732B9 PUSH1 0xC1 SHL PUSH1 0x60 DUP3 ADD MSTORE PUSH1 0x80 ADD SWAP1 JUMP JUMPDEST PUSH1 0x20 DUP1 DUP3 MSTORE PUSH1 0x25 SWAP1 DUP3 ADD MSTORE PUSH32 0x4B495033373A206F776E65727320616E6420696473206C656E677468206D6973 PUSH1 0x40 DUP3 ADD MSTORE PUSH5 0xDAC2E8C6D PUSH1 0xDB SHL PUSH1 0x60 DUP3 ADD MSTORE PUSH1 0x80 ADD SWAP1 JUMP JUMPDEST PUSH1 0x20 DUP1 DUP3 MSTORE PUSH1 0x42 SWAP1 DUP3 ADD MSTORE PUSH32 0x4B495033373A207472616E7366657220746F206E6F6E20494B49503337526563 PUSH1 0x40 DUP3 ADD MSTORE PUSH32 0x65697665722F4945524331313535526563656976657220696D706C656D656E74 PUSH1 0x60 DUP3 ADD MSTORE PUSH2 0x32B9 PUSH1 0xF1 SHL PUSH1 0x80 DUP3 ADD MSTORE PUSH1 0xA0 ADD SWAP1 JUMP JUMPDEST PUSH1 0x20 DUP1 DUP3 MSTORE PUSH1 0x26 SWAP1 DUP3 ADD MSTORE PUSH32 0x4B495033373A2069647320616E6420616D6F756E7473206C656E677468206D69 PUSH1 0x40 DUP3 ADD MSTORE PUSH6 0xE6DAC2E8C6D PUSH1 0xD3 SHL PUSH1 0x60 DUP3 ADD MSTORE PUSH1 0x80 ADD SWAP1 JUMP JUMPDEST PUSH1 0x20 DUP1 DUP3 MSTORE PUSH1 0x30 SWAP1 DUP3 ADD MSTORE PUSH32 0x4B495033373A207472616E736665722063616C6C6572206973206E6F74206F77 PUSH1 0x40 DUP3 ADD MSTORE PUSH16 0x1B995C881B9BDC88185C1C1C9BDD9959 PUSH1 0x82 SHL PUSH1 0x60 DUP3 ADD MSTORE PUSH1 0x80 ADD SWAP1 JUMP JUMPDEST PUSH1 0x20 DUP1 DUP3 MSTORE PUSH1 0x28 SWAP1 DUP3 ADD MSTORE PUSH32 0x4B495033373A20696E73756666696369656E742062616C616E636520666F7220 PUSH1 0x40 DUP3 ADD MSTORE PUSH8 0x3A3930B739B332B9 PUSH1 0xC1 SHL PUSH1 0x60 DUP3 ADD MSTORE PUSH1 0x80 ADD SWAP1 JUMP JUMPDEST PUSH1 0x20 DUP1 DUP3 MSTORE PUSH1 0x27 SWAP1 DUP3 ADD MSTORE PUSH32 0x4B495033373A2073657474696E6720617070726F76616C207374617475732066 PUSH1 0x40 DUP3 ADD MSTORE PUSH7 0x37B91039B2B633 PUSH1 0xC9 SHL PUSH1 0x60 DUP3 ADD MSTORE PUSH1 0x80 ADD SWAP1 JUMP JUMPDEST PUSH1 0x20 DUP1 DUP3 MSTORE PUSH1 0x1F SWAP1 DUP3 ADD MSTORE PUSH32 0x4B495033373A206D696E7420746F20746865207A65726F206164647265737300 PUSH1 0x40 DUP3 ADD MSTORE PUSH1 0x60 ADD SWAP1 JUMP JUMPDEST PUSH1 0x20 DUP1 DUP3 MSTORE PUSH1 0x27 SWAP1 DUP3 ADD MSTORE PUSH32 0x4B495033373A2063616C6C6572206973206E6F74206F776E6572206E6F722061 PUSH1 0x40 DUP3 ADD MSTORE PUSH7 0x1C1C1C9BDD9959 PUSH1 0xCA SHL PUSH1 0x60 DUP3 ADD MSTORE PUSH1 0x80 ADD SWAP1 JUMP JUMPDEST PUSH1 0x20 DUP1 DUP3 MSTORE PUSH1 0x23 SWAP1 DUP3 ADD MSTORE PUSH32 0x4B495033373A207472616E7366657220746F20746865207A65726F2061646472 PUSH1 0x40 DUP3 ADD MSTORE PUSH3 0x657373 PUSH1 0xE8 SHL PUSH1 0x60 DUP3 ADD MSTORE PUSH1 0x80 ADD SWAP1 JUMP JUMPDEST SWAP1 DUP2 MSTORE PUSH1 0x20 ADD SWAP1 JUMP JUMPDEST SWAP2 DUP3 MSTORE PUSH1 0x20 DUP3 ADD MSTORE PUSH1 0x40 ADD SWAP1 JUMP JUMPDEST PUSH1 0x40 MLOAD DUP2 DUP2 ADD PUSH8 0xFFFFFFFFFFFFFFFF DUP2 GT DUP3 DUP3 LT OR ISZERO PUSH2 0x1544 JUMPI PUSH2 0x1544 PUSH2 0x15F4 JUMP JUMPDEST PUSH1 0x40 MSTORE SWAP2 SWAP1 POP JUMP JUMPDEST PUSH1 0x0 PUSH8 0xFFFFFFFFFFFFFFFF DUP3 GT ISZERO PUSH2 0x1566 JUMPI PUSH2 0x1566 PUSH2 0x15F4 JUMP JUMPDEST POP PUSH1 0x20 SWAP1 DUP2 MUL ADD SWAP1 JUMP JUMPDEST PUSH1 0x0 DUP3 NOT DUP3 GT ISZERO PUSH2 0x1583 JUMPI PUSH2 0x1583 PUSH2 0x15DE JUMP JUMPDEST POP ADD SWAP1 JUMP JUMPDEST PUSH1 0x2 DUP2 DIV PUSH1 0x1 DUP3 AND DUP1 PUSH2 0x159C JUMPI PUSH1 0x7F DUP3 AND SWAP2 POP JUMPDEST PUSH1 0x20 DUP3 LT DUP2 EQ ISZERO PUSH2 0x15BD JUMPI PUSH4 0x4E487B71 PUSH1 0xE0 SHL PUSH1 0x0 MSTORE PUSH1 0x22 PUSH1 0x4 MSTORE PUSH1 0x24 PUSH1 0x0 REVERT JUMPDEST POP SWAP2 SWAP1 POP JUMP JUMPDEST PUSH1 0x0 PUSH1 0x0 NOT DUP3 EQ ISZERO PUSH2 0x15D7 JUMPI PUSH2 0x15D7 PUSH2 0x15DE JUMP JUMPDEST POP PUSH1 0x1 ADD SWAP1 JUMP JUMPDEST PUSH4 0x4E487B71 PUSH1 0xE0 SHL PUSH1 0x0 MSTORE PUSH1 0x11 PUSH1 0x4 MSTORE PUSH1 0x24 PUSH1 0x0 REVERT JUMPDEST PUSH4 0x4E487B71 PUSH1 0xE0 SHL PUSH1 0x0 MSTORE PUSH1 0x41 PUSH1 0x4 MSTORE PUSH1 0x24 PUSH1 0x0 REVERT JUMPDEST PUSH1 0x1 PUSH1 0x1 PUSH1 0xE0 SHL SUB NOT DUP2 AND DUP2 EQ PUSH2 0x1620 JUMPI PUSH1 0x0 DUP1 REVERT JUMPDEST POP JUMP INVALID LOG2 PUSH5 0x6970667358 0x22 SLT KECCAK256 0xB5 0xA9 GAS DUP5 PUSH11 0xABE59A9E70E34375DAC1C2 0xD4 JUMP DUP10 JUMPDEST PC 0x4D 0xE5 0xEB SWAP7 0xDC CALLCODE 0x4F SWAP2 0x25 PUSH28 0x6464736F6C6343000800003300000000000000000000000000000000 "
		},
		"gasEstimates": {
			"creation": {
				"codeDepositCost": "1144200",
				"executionCost": "infinite",
				"totalCost": "infinite"
			},
			"external": {
				"balanceOf(address,uint256)": "1404",
				"balanceOfBatch(address[],uint256[])": "infinite",
				"isApprovedForAll(address,address)": "infinite",
				"mint(address,uint256,uint256)": "infinite",
				"safeBatchTransferFrom(address,address,uint256[],uint256[],bytes)": "infinite",
				"safeTransferFrom(address,address,uint256,uint256,bytes)": "infinite",
				"setApprovalForAll(address,bool)": "23371",
				"supportsInterface(bytes4)": "603",
				"totalSupply(uint256)": "1215",
				"uri(uint256)": "infinite"
			}
		},
		"methodIdentifiers": {
			"balanceOf(address,uint256)": "00fdd58e",
			"balanceOfBatch(address[],uint256[])": "4e1273f4",
			"isApprovedForAll(address,address)": "e985e9c5",
			"mint(address,uint256,uint256)": "156e29f6",
			"safeBatchTransferFrom(address,address,uint256[],uint256[],bytes)": "2eb2c2d6",
			"safeTransferFrom(address,address,uint256,uint256,bytes)": "f242432a",
			"setApprovalForAll(address,bool)": "a22cb465",
			"supportsInterface(bytes4)": "01ffc9a7",
			"totalSupply(uint256)": "bd85b039",
			"uri(uint256)": "0e89341c"
		}
	},
	"abi": [
		{
			"inputs": [
				{
					"internalType": "string",
					"name": "uri",
					"type": "string"
				}
			],
			"stateMutability": "nonpayable",
			"type": "constructor"
		},
		{
			"anonymous": false,
			"inputs": [
				{
					"indexed": true,
					"internalType": "address",
					"name": "_owner",
					"type": "address"
				},
				{
					"indexed": true,
					"internalType": "address",
					"name": "_operator",
					"type": "address"
				},
				{
					"indexed": false,
					"internalType": "bool",
					"name": "_approved",
					"type": "bool"
				}
			],
			"name": "ApprovalForAll",
			"type": "event"
		},
		{
			"anonymous": false,
			"inputs": [
				{
					"indexed": true,
					"internalType": "address",
					"name": "_operator",
					"type": "address"
				},
				{
					"indexed": true,
					"internalType": "address",
					"name": "_from",
					"type": "address"
				},
				{
					"indexed": true,
					"internalType": "address",
					"name": "_to",
					"type": "address"
				},
				{
					"indexed": false,
					"internalType": "uint256[]",
					"name": "_ids",
					"type": "uint256[]"
				},
				{
					"indexed": false,
					"internalType": "uint256[]",
					"name": "_values",
					"type": "uint256[]"
				}
			],
			"name": "TransferBatch",
			"type": "event"
		},
		{
			"anonymous": false,
			"inputs": [
				{
					"indexed": true,
					"internalType": "address",
					"name": "_operator",
					"type": "address"
				},
				{
					"indexed": true,
					"internalType": "address",
					"name": "_from",
					"type": "address"
				},
				{
					"indexed": true,
					"internalType": "address",
					"name": "_to",
					"type": "address"
				},
				{
					"indexed": false,
					"internalType": "uint256",
					"name": "_id",
					"type": "uint256"
				},
				{
					"indexed": false,
					"internalType": "uint256",
					"name": "_value",
					"type": "uint256"
				}
			],
			"name": "TransferSingle",
			"type": "event"
		},
		{
			"anonymous": false,
			"inputs": [
				{
					"indexed": false,
					"internalType": "string",
					"name": "_value",
					"type": "string"
				},
				{
					"indexed": true,
					"internalType": "uint256",
					"name": "_id",
					"type": "uint256"
				}
			],
			"name": "URI",
			"type": "event"
		},
		{
			"inputs": [
				{
					"internalType": "address",
					"name": "owner",
					"type": "address"
				},
				{
					"internalType": "uint256",
					"name": "id",
					"type": "uint256"
				}
			],
			"name": "balanceOf",
			"outputs": [
				{
					"internalType": "uint256",
					"name": "",
					"type": "uint256"
				}
			],
			"stateMutability": "view",
			"type": "function"
		},
		{
			"inputs": [
				{
					"internalType": "address[]",
					"name": "owners",
					"type": "address[]"
				},
				{
					"internalType": "uint256[]",
					"name": "ids",
					"type": "uint256[]"
				}
			],
			"name": "balanceOfBatch",
			"outputs": [
				{
					"internalType": "uint256[]",
					"name": "",
					"type": "uint256[]"
				}
			],
			"stateMutability": "view",
			"type": "function"
		},
		{
			"inputs": [
				{
					"internalType": "address",
					"name": "owner",
					"type": "address"
				},
				{
					"internalType": "address",
					"name": "operator",
					"type": "address"
				}
			],
			"name": "isApprovedForAll",
			"outputs": [
				{
					"internalType": "bool",
					"name": "",
					"type": "bool"
				}
			],
			"stateMutability": "view",
			"type": "function"
		},
		{
			"inputs": [
				{
					"internalType": "address",
					"name": "_user",
					"type": "address"
				},
				{
					"internalType": "uint256",
					"name": "_tokenId",
					"type": "uint256"
				},
				{
					"internalType": "uint256",
					"name": "_amount",
					"type": "uint256"
				}
			],
			"name": "mint",
			"outputs": [],
			"stateMutability": "nonpayable",
			"type": "function"
		},
		{
			"inputs": [
				{
					"internalType": "address",
					"name": "from",
					"type": "address"
				},
				{
					"internalType": "address",
					"name": "to",
					"type": "address"
				},
				{
					"internalType": "uint256[]",
					"name": "ids",
					"type": "uint256[]"
				},
				{
					"internalType": "uint256[]",
					"name": "amounts",
					"type": "uint256[]"
				},
				{
					"internalType": "bytes",
					"name": "data",
					"type": "bytes"
				}
			],
			"name": "safeBatchTransferFrom",
			"outputs": [],
			"stateMutability": "nonpayable",
			"type": "function"
		},
		{
			"inputs": [
				{
					"internalType": "address",
					"name": "from",
					"type": "address"
				},
				{
					"internalType": "address",
					"name": "to",
					"type": "address"
				},
				{
					"internalType": "uint256",
					"name": "id",
					"type": "uint256"
				},
				{
					"internalType": "uint256",
					"name": "amount",
					"type": "uint256"
				},
				{
					"internalType": "bytes",
					"name": "data",
					"type": "bytes"
				}
			],
			"name": "safeTransferFrom",
			"outputs": [],
			"stateMutability": "nonpayable",
			"type": "function"
		},
		{
			"inputs": [
				{
					"internalType": "address",
					"name": "operator",
					"type": "address"
				},
				{
					"internalType": "bool",
					"name": "approved",
					"type": "bool"
				}
			],
			"name": "setApprovalForAll",
			"outputs": [],
			"stateMutability": "nonpayable",
			"type": "function"
		},
		{
			"inputs": [
				{
					"internalType": "bytes4",
					"name": "interfaceId",
					"type": "bytes4"
				}
			],
			"name": "supportsInterface",
			"outputs": [
				{
					"internalType": "bool",
					"name": "",
					"type": "bool"
				}
			],
			"stateMutability": "view",
			"type": "function"
		},
		{
			"inputs": [
				{
					"internalType": "uint256",
					"name": "_id",
					"type": "uint256"
				}
			],
			"name": "totalSupply",
			"outputs": [
				{
					"internalType": "uint256",
					"name": "",
					"type": "uint256"
				}
			],
			"stateMutability": "view",
			"type": "function"
		},
		{
			"inputs": [
				{
					"internalType": "uint256",
					"name": "",
					"type": "uint256"
				}
			],
			"name": "uri",
			"outputs": [
				{
					"internalType": "string",
					"name": "",
					"type": "string"
				}
			],
			"stateMutability": "view",
			"type": "function"
		}
	]
}