{
	"data": {
		"bytecode": {
			"linkReferences": {},
			"object": "608060405234801561001057600080fd5b50610528806100206000396000f3fe608060405234801561001057600080fd5b50600436106100cf5760003560e01c80636805b84b1161008c5780639eb4eae5116100665780639eb4eae51461014c578063d7c41c7914610156578063e1c7392a14610169578063ee72b8cc14610171576100cf565b80636805b84b146101345780637cac00ee1461013c578063893d20e814610144576100cf565b80631b9cbdfb146100d457806321df0da7146100f257806328919df61461010757806328f833b71461011c5780633a1a80801461012457806348f497791461012c575b600080fd5b6100dc610179565b6040516100e991906104be565b60405180910390f35b6100fa61017f565b6040516100e99190610439565b61010f61018e565b6040516100e9919061044d565b6100fa61019e565b6100dc6101ad565b6100fa6101b3565b61010f6101c2565b6100fa6101d2565b6100fa6101e1565b6101546101f0565b005b6101546101643660046103d4565b610244565b6101546102ea565b61015461035a565b60065481565b6002546001600160a01b031690565b600454600160b01b900460ff1690565b6004546001600160a01b031681565b60055481565b6001546001600160a01b031690565b600454600160a81b900460ff1690565b6000546001600160a01b031690565b6003546001600160a01b031690565b6003546001600160a01b031633146102235760405162461bcd60e51b815260040161021a90610458565b60405180910390fd5b6004805460ff60a81b198116600160a81b9182900460ff1615909102179055565b6003546001600160a01b0316331461026e5760405162461bcd60e51b815260040161021a90610458565b61028082670de0b6b3a76400006103a5565b60055561029581670de0b6b3a76400006103a5565b6006555050600080546001600160a01b039586166001600160a01b0319918216179091556001805494861694821694909417909355600280549285169284169290921790915560048054919093169116179055565b600454600160a01b900460ff16156103145760405162461bcd60e51b815260040161021a9061048f565b60048054600380546001600160a01b0319163317905560ff60a01b1960ff60b01b1960ff60a81b19909216600160a81b1791909116600160b01b1716600160a01b179055565b6003546001600160a01b031633146103845760405162461bcd60e51b815260040161021a90610458565b6004805460ff60b01b198116600160b01b9182900460ff1615909102179055565b60006103b182846104c7565b9392505050565b80356001600160a01b03811681146103cf57600080fd5b919050565b60008060008060008060c087890312156103ec578182fd5b6103f5876103b8565b9550610403602088016103b8565b9450610411604088016103b8565b935061041f606088016103b8565b92506080870135915060a087013590509295509295509295565b6001600160a01b0391909116815260200190565b901515815260200190565b6020808252601a908201527f4865726f436f7265204572726f72203a206f6e6c794f776e6572000000000000604082015260600190565b602080825260159082015274616c726561647920496e697469616c697a6564212160581b604082015260600190565b90815260200190565b60008160001904831182151516156104ed57634e487b7160e01b81526011600452602481fd5b50029056fea2646970667358221220d48339481c2045abb5a9d7e94cae6ba8ab09a3b1533f080aed67f69a0054bc6c64736f6c63430008000033",
			"opcodes": "PUSH1 0x80 PUSH1 0x40 MSTORE CALLVALUE DUP1 ISZERO PUSH2 0x10 JUMPI PUSH1 0x0 DUP1 REVERT JUMPDEST POP PUSH2 0x528 DUP1 PUSH2 0x20 PUSH1 0x0 CODECOPY PUSH1 0x0 RETURN INVALID PUSH1 0x80 PUSH1 0x40 MSTORE CALLVALUE DUP1 ISZERO PUSH2 0x10 JUMPI PUSH1 0x0 DUP1 REVERT JUMPDEST POP PUSH1 0x4 CALLDATASIZE LT PUSH2 0xCF JUMPI PUSH1 0x0 CALLDATALOAD PUSH1 0xE0 SHR DUP1 PUSH4 0x6805B84B GT PUSH2 0x8C JUMPI DUP1 PUSH4 0x9EB4EAE5 GT PUSH2 0x66 JUMPI DUP1 PUSH4 0x9EB4EAE5 EQ PUSH2 0x14C JUMPI DUP1 PUSH4 0xD7C41C79 EQ PUSH2 0x156 JUMPI DUP1 PUSH4 0xE1C7392A EQ PUSH2 0x169 JUMPI DUP1 PUSH4 0xEE72B8CC EQ PUSH2 0x171 JUMPI PUSH2 0xCF JUMP JUMPDEST DUP1 PUSH4 0x6805B84B EQ PUSH2 0x134 JUMPI DUP1 PUSH4 0x7CAC00EE EQ PUSH2 0x13C JUMPI DUP1 PUSH4 0x893D20E8 EQ PUSH2 0x144 JUMPI PUSH2 0xCF JUMP JUMPDEST DUP1 PUSH4 0x1B9CBDFB EQ PUSH2 0xD4 JUMPI DUP1 PUSH4 0x21DF0DA7 EQ PUSH2 0xF2 JUMPI DUP1 PUSH4 0x28919DF6 EQ PUSH2 0x107 JUMPI DUP1 PUSH4 0x28F833B7 EQ PUSH2 0x11C JUMPI DUP1 PUSH4 0x3A1A8080 EQ PUSH2 0x124 JUMPI DUP1 PUSH4 0x48F49779 EQ PUSH2 0x12C JUMPI JUMPDEST PUSH1 0x0 DUP1 REVERT JUMPDEST PUSH2 0xDC PUSH2 0x179 JUMP JUMPDEST PUSH1 0x40 MLOAD PUSH2 0xE9 SWAP2 SWAP1 PUSH2 0x4BE JUMP JUMPDEST PUSH1 0x40 MLOAD DUP1 SWAP2 SUB SWAP1 RETURN JUMPDEST PUSH2 0xFA PUSH2 0x17F JUMP JUMPDEST PUSH1 0x40 MLOAD PUSH2 0xE9 SWAP2 SWAP1 PUSH2 0x439 JUMP JUMPDEST PUSH2 0x10F PUSH2 0x18E JUMP JUMPDEST PUSH1 0x40 MLOAD PUSH2 0xE9 SWAP2 SWAP1 PUSH2 0x44D JUMP JUMPDEST PUSH2 0xFA PUSH2 0x19E JUMP JUMPDEST PUSH2 0xDC PUSH2 0x1AD JUMP JUMPDEST PUSH2 0xFA PUSH2 0x1B3 JUMP JUMPDEST PUSH2 0x10F PUSH2 0x1C2 JUMP JUMPDEST PUSH2 0xFA PUSH2 0x1D2 JUMP JUMPDEST PUSH2 0xFA PUSH2 0x1E1 JUMP JUMPDEST PUSH2 0x154 PUSH2 0x1F0 JUMP JUMPDEST STOP JUMPDEST PUSH2 0x154 PUSH2 0x164 CALLDATASIZE PUSH1 0x4 PUSH2 0x3D4 JUMP JUMPDEST PUSH2 0x244 JUMP JUMPDEST PUSH2 0x154 PUSH2 0x2EA JUMP JUMPDEST PUSH2 0x154 PUSH2 0x35A JUMP JUMPDEST PUSH1 0x6 SLOAD DUP2 JUMP JUMPDEST PUSH1 0x2 SLOAD PUSH1 0x1 PUSH1 0x1 PUSH1 0xA0 SHL SUB AND SWAP1 JUMP JUMPDEST PUSH1 0x4 SLOAD PUSH1 0x1 PUSH1 0xB0 SHL SWAP1 DIV PUSH1 0xFF AND SWAP1 JUMP JUMPDEST PUSH1 0x4 SLOAD PUSH1 0x1 PUSH1 0x1 PUSH1 0xA0 SHL SUB AND DUP2 JUMP JUMPDEST PUSH1 0x5 SLOAD DUP2 JUMP JUMPDEST PUSH1 0x1 SLOAD PUSH1 0x1 PUSH1 0x1 PUSH1 0xA0 SHL SUB AND SWAP1 JUMP JUMPDEST PUSH1 0x4 SLOAD PUSH1 0x1 PUSH1 0xA8 SHL SWAP1 DIV PUSH1 0xFF AND SWAP1 JUMP JUMPDEST PUSH1 0x0 SLOAD PUSH1 0x1 PUSH1 0x1 PUSH1 0xA0 SHL SUB AND SWAP1 JUMP JUMPDEST PUSH1 0x3 SLOAD PUSH1 0x1 PUSH1 0x1 PUSH1 0xA0 SHL SUB AND SWAP1 JUMP JUMPDEST PUSH1 0x3 SLOAD PUSH1 0x1 PUSH1 0x1 PUSH1 0xA0 SHL SUB AND CALLER EQ PUSH2 0x223 JUMPI PUSH1 0x40 MLOAD PUSH3 0x461BCD PUSH1 0xE5 SHL DUP2 MSTORE PUSH1 0x4 ADD PUSH2 0x21A SWAP1 PUSH2 0x458 JUMP JUMPDEST PUSH1 0x40 MLOAD DUP1 SWAP2 SUB SWAP1 REVERT JUMPDEST PUSH1 0x4 DUP1 SLOAD PUSH1 0xFF PUSH1 0xA8 SHL NOT DUP2 AND PUSH1 0x1 PUSH1 0xA8 SHL SWAP2 DUP3 SWAP1 DIV PUSH1 0xFF AND ISZERO SWAP1 SWAP2 MUL OR SWAP1 SSTORE JUMP JUMPDEST PUSH1 0x3 SLOAD PUSH1 0x1 PUSH1 0x1 PUSH1 0xA0 SHL SUB AND CALLER EQ PUSH2 0x26E JUMPI PUSH1 0x40 MLOAD PUSH3 0x461BCD PUSH1 0xE5 SHL DUP2 MSTORE PUSH1 0x4 ADD PUSH2 0x21A SWAP1 PUSH2 0x458 JUMP JUMPDEST PUSH2 0x280 DUP3 PUSH8 0xDE0B6B3A7640000 PUSH2 0x3A5 JUMP JUMPDEST PUSH1 0x5 SSTORE PUSH2 0x295 DUP2 PUSH8 0xDE0B6B3A7640000 PUSH2 0x3A5 JUMP JUMPDEST PUSH1 0x6 SSTORE POP POP PUSH1 0x0 DUP1 SLOAD PUSH1 0x1 PUSH1 0x1 PUSH1 0xA0 SHL SUB SWAP6 DUP7 AND PUSH1 0x1 PUSH1 0x1 PUSH1 0xA0 SHL SUB NOT SWAP2 DUP3 AND OR SWAP1 SWAP2 SSTORE PUSH1 0x1 DUP1 SLOAD SWAP5 DUP7 AND SWAP5 DUP3 AND SWAP5 SWAP1 SWAP5 OR SWAP1 SWAP4 SSTORE PUSH1 0x2 DUP1 SLOAD SWAP3 DUP6 AND SWAP3 DUP5 AND SWAP3 SWAP1 SWAP3 OR SWAP1 SWAP2 SSTORE PUSH1 0x4 DUP1 SLOAD SWAP2 SWAP1 SWAP4 AND SWAP2 AND OR SWAP1 SSTORE JUMP JUMPDEST PUSH1 0x4 SLOAD PUSH1 0x1 PUSH1 0xA0 SHL SWAP1 DIV PUSH1 0xFF AND ISZERO PUSH2 0x314 JUMPI PUSH1 0x40 MLOAD PUSH3 0x461BCD PUSH1 0xE5 SHL DUP2 MSTORE PUSH1 0x4 ADD PUSH2 0x21A SWAP1 PUSH2 0x48F JUMP JUMPDEST PUSH1 0x4 DUP1 SLOAD PUSH1 0x3 DUP1 SLOAD PUSH1 0x1 PUSH1 0x1 PUSH1 0xA0 SHL SUB NOT AND CALLER OR SWAP1 SSTORE PUSH1 0xFF PUSH1 0xA0 SHL NOT PUSH1 0xFF PUSH1 0xB0 SHL NOT PUSH1 0xFF PUSH1 0xA8 SHL NOT SWAP1 SWAP3 AND PUSH1 0x1 PUSH1 0xA8 SHL OR SWAP2 SWAP1 SWAP2 AND PUSH1 0x1 PUSH1 0xB0 SHL OR AND PUSH1 0x1 PUSH1 0xA0 SHL OR SWAP1 SSTORE JUMP JUMPDEST PUSH1 0x3 SLOAD PUSH1 0x1 PUSH1 0x1 PUSH1 0xA0 SHL SUB AND CALLER EQ PUSH2 0x384 JUMPI PUSH1 0x40 MLOAD PUSH3 0x461BCD PUSH1 0xE5 SHL DUP2 MSTORE PUSH1 0x4 ADD PUSH2 0x21A SWAP1 PUSH2 0x458 JUMP JUMPDEST PUSH1 0x4 DUP1 SLOAD PUSH1 0xFF PUSH1 0xB0 SHL NOT DUP2 AND PUSH1 0x1 PUSH1 0xB0 SHL SWAP2 DUP3 SWAP1 DIV PUSH1 0xFF AND ISZERO SWAP1 SWAP2 MUL OR SWAP1 SSTORE JUMP JUMPDEST PUSH1 0x0 PUSH2 0x3B1 DUP3 DUP5 PUSH2 0x4C7 JUMP JUMPDEST SWAP4 SWAP3 POP POP POP JUMP JUMPDEST DUP1 CALLDATALOAD PUSH1 0x1 PUSH1 0x1 PUSH1 0xA0 SHL SUB DUP2 AND DUP2 EQ PUSH2 0x3CF JUMPI PUSH1 0x0 DUP1 REVERT JUMPDEST SWAP2 SWAP1 POP JUMP JUMPDEST PUSH1 0x0 DUP1 PUSH1 0x0 DUP1 PUSH1 0x0 DUP1 PUSH1 0xC0 DUP8 DUP10 SUB SLT ISZERO PUSH2 0x3EC JUMPI DUP2 DUP3 REVERT JUMPDEST PUSH2 0x3F5 DUP8 PUSH2 0x3B8 JUMP JUMPDEST SWAP6 POP PUSH2 0x403 PUSH1 0x20 DUP9 ADD PUSH2 0x3B8 JUMP JUMPDEST SWAP5 POP PUSH2 0x411 PUSH1 0x40 DUP9 ADD PUSH2 0x3B8 JUMP JUMPDEST SWAP4 POP PUSH2 0x41F PUSH1 0x60 DUP9 ADD PUSH2 0x3B8 JUMP JUMPDEST SWAP3 POP PUSH1 0x80 DUP8 ADD CALLDATALOAD SWAP2 POP PUSH1 0xA0 DUP8 ADD CALLDATALOAD SWAP1 POP SWAP3 SWAP6 POP SWAP3 SWAP6 POP SWAP3 SWAP6 JUMP JUMPDEST PUSH1 0x1 PUSH1 0x1 PUSH1 0xA0 SHL SUB SWAP2 SWAP1 SWAP2 AND DUP2 MSTORE PUSH1 0x20 ADD SWAP1 JUMP JUMPDEST SWAP1 ISZERO ISZERO DUP2 MSTORE PUSH1 0x20 ADD SWAP1 JUMP JUMPDEST PUSH1 0x20 DUP1 DUP3 MSTORE PUSH1 0x1A SWAP1 DUP3 ADD MSTORE PUSH32 0x4865726F436F7265204572726F72203A206F6E6C794F776E6572000000000000 PUSH1 0x40 DUP3 ADD MSTORE PUSH1 0x60 ADD SWAP1 JUMP JUMPDEST PUSH1 0x20 DUP1 DUP3 MSTORE PUSH1 0x15 SWAP1 DUP3 ADD MSTORE PUSH21 0x616C726561647920496E697469616C697A65642121 PUSH1 0x58 SHL PUSH1 0x40 DUP3 ADD MSTORE PUSH1 0x60 ADD SWAP1 JUMP JUMPDEST SWAP1 DUP2 MSTORE PUSH1 0x20 ADD SWAP1 JUMP JUMPDEST PUSH1 0x0 DUP2 PUSH1 0x0 NOT DIV DUP4 GT DUP3 ISZERO ISZERO AND ISZERO PUSH2 0x4ED JUMPI PUSH4 0x4E487B71 PUSH1 0xE0 SHL DUP2 MSTORE PUSH1 0x11 PUSH1 0x4 MSTORE PUSH1 0x24 DUP2 REVERT JUMPDEST POP MUL SWAP1 JUMP INVALID LOG2 PUSH5 0x6970667358 0x22 SLT KECCAK256 0xD4 DUP4 CODECOPY 0x48 SHR KECCAK256 GASLIMIT 0xAB 0xB5 0xA9 0xD7 0xE9 0x4C 0xAE PUSH12 0xA8AB09A3B1533F080AED67F6 SWAP11 STOP SLOAD 0xBC PUSH13 0x64736F6C634300080000330000 "
		},
		"gasEstimates": {
			"creation": {
				"codeDepositCost": "264000",
				"executionCost": "306",
				"totalCost": "264306"
			},
			"external": {
				"changeMiningPaused()": "21945",
				"changePaused()": "21879",
				"depositAddress()": "1137",
				"getDiagram()": "1181",
				"getHeroNFT()": "1115",
				"getMiningPaused()": "1102",
				"getOwner()": "1137",
				"getPaused()": "1080",
				"getToken()": "1093",
				"init()": "42793",
				"initialize(address,address,address,address,uint256,uint256)": "infinite",
				"priceOfKlay()": "1117",
				"priceOfToken()": "1029"
			}
		},
		"methodIdentifiers": {
			"changeMiningPaused()": "ee72b8cc",
			"changePaused()": "9eb4eae5",
			"depositAddress()": "28f833b7",
			"getDiagram()": "48f49779",
			"getHeroNFT()": "7cac00ee",
			"getMiningPaused()": "28919df6",
			"getOwner()": "893d20e8",
			"getPaused()": "6805b84b",
			"getToken()": "21df0da7",
			"init()": "e1c7392a",
			"initialize(address,address,address,address,uint256,uint256)": "d7c41c79",
			"priceOfKlay()": "3a1a8080",
			"priceOfToken()": "1b9cbdfb"
		}
	},
	"abi": [
		{
			"inputs": [],
			"name": "changeMiningPaused",
			"outputs": [],
			"stateMutability": "nonpayable",
			"type": "function"
		},
		{
			"inputs": [],
			"name": "changePaused",
			"outputs": [],
			"stateMutability": "nonpayable",
			"type": "function"
		},
		{
			"inputs": [],
			"name": "depositAddress",
			"outputs": [
				{
					"internalType": "address",
					"name": "",
					"type": "address"
				}
			],
			"stateMutability": "view",
			"type": "function"
		},
		{
			"inputs": [],
			"name": "getDiagram",
			"outputs": [
				{
					"internalType": "contract IMakeGrade",
					"name": "",
					"type": "address"
				}
			],
			"stateMutability": "view",
			"type": "function"
		},
		{
			"inputs": [],
			"name": "getHeroNFT",
			"outputs": [
				{
					"internalType": "contract IHeroNFT",
					"name": "",
					"type": "address"
				}
			],
			"stateMutability": "view",
			"type": "function"
		},
		{
			"inputs": [],
			"name": "getMiningPaused",
			"outputs": [
				{
					"internalType": "bool",
					"name": "",
					"type": "bool"
				}
			],
			"stateMutability": "view",
			"type": "function"
		},
		{
			"inputs": [],
			"name": "getOwner",
			"outputs": [
				{
					"internalType": "address payable",
					"name": "",
					"type": "address"
				}
			],
			"stateMutability": "view",
			"type": "function"
		},
		{
			"inputs": [],
			"name": "getPaused",
			"outputs": [
				{
					"internalType": "bool",
					"name": "",
					"type": "bool"
				}
			],
			"stateMutability": "view",
			"type": "function"
		},
		{
			"inputs": [],
			"name": "getToken",
			"outputs": [
				{
					"internalType": "contract IKIP7",
					"name": "",
					"type": "address"
				}
			],
			"stateMutability": "view",
			"type": "function"
		},
		{
			"inputs": [],
			"name": "init",
			"outputs": [],
			"stateMutability": "nonpayable",
			"type": "function"
		},
		{
			"inputs": [
				{
					"internalType": "address",
					"name": "_heroNFT",
					"type": "address"
				},
				{
					"internalType": "address",
					"name": "_gradeDiagram",
					"type": "address"
				},
				{
					"internalType": "address",
					"name": "_token",
					"type": "address"
				},
				{
					"internalType": "address",
					"name": "_depositAddress",
					"type": "address"
				},
				{
					"internalType": "uint256",
					"name": "_klay",
					"type": "uint256"
				},
				{
					"internalType": "uint256",
					"name": "_tokenPrice",
					"type": "uint256"
				}
			],
			"name": "initialize",
			"outputs": [],
			"stateMutability": "nonpayable",
			"type": "function"
		},
		{
			"inputs": [],
			"name": "priceOfKlay",
			"outputs": [
				{
					"internalType": "uint256",
					"name": "",
					"type": "uint256"
				}
			],
			"stateMutability": "view",
			"type": "function"
		},
		{
			"inputs": [],
			"name": "priceOfToken",
			"outputs": [
				{
					"internalType": "uint256",
					"name": "",
					"type": "uint256"
				}
			],
			"stateMutability": "view",
			"type": "function"
		}
	]
}