{
	"data": {
		"bytecode": {
			"linkReferences": {},
			"object": "608060405234801561001057600080fd5b506004805460ff60a81b1960ff60a01b19909116600160a01b1716600160a81b179055600380546001600160a01b03191633179055610466806100546000396000f3fe608060405234801561001057600080fd5b50600436106100b45760003560e01c80637cac00ee116100715780637cac00ee14610119578063893d20e8146101215780639eb4eae514610129578063c412eaba14610133578063d7c41c791461013b578063ee72b8cc1461014e576100b4565b80631b9cbdfb146100b957806321df0da7146100d757806328919df6146100ec57806328f833b7146101015780633a1a8080146101095780636805b84b14610111575b600080fd5b6100c1610156565b6040516100ce91906103fc565b60405180910390f35b6100df61015c565b6040516100ce91906103a6565b6100f461016b565b6040516100ce91906103ba565b6100df61017b565b6100c161018a565b6100f4610190565b6100df6101a0565b6100df6101af565b6101316101be565b005b6100df610212565b610131610149366004610341565b610221565b6101316102c7565b60065481565b6001546001600160a01b031690565b600454600160a81b900460ff1690565b6004546001600160a01b031681565b60055481565b600454600160a01b900460ff1690565b6000546001600160a01b031690565b6003546001600160a01b031690565b6003546001600160a01b031633146101f15760405162461bcd60e51b81526004016101e8906103c5565b60405180910390fd5b6004805460ff60a01b198116600160a01b9182900460ff1615909102179055565b6002546001600160a01b031690565b6003546001600160a01b0316331461024b5760405162461bcd60e51b81526004016101e8906103c5565b61025d82670de0b6b3a7640000610312565b60055561027281670de0b6b3a7640000610312565b6006555050600080546001600160a01b039586166001600160a01b0319918216179091556001805494861694821694909417909355600280549285169284169290921790915560048054919093169116179055565b6003546001600160a01b031633146102f15760405162461bcd60e51b81526004016101e8906103c5565b6004805460ff60a81b198116600160a81b9182900460ff1615909102179055565b600061031e8284610405565b9392505050565b80356001600160a01b038116811461033c57600080fd5b919050565b60008060008060008060c08789031215610359578182fd5b61036287610325565b955061037060208801610325565b945061037e60408801610325565b935061038c60608801610325565b92506080870135915060a087013590509295509295509295565b6001600160a01b0391909116815260200190565b901515815260200190565b6020808252601a908201527f4865726f436f7265204572726f72203a206f6e6c794f776e6572000000000000604082015260600190565b90815260200190565b600081600019048311821515161561042b57634e487b7160e01b81526011600452602481fd5b50029056fea264697066735822122078ddcc93a3a4dfca5c083e576a064c2a8512e1e7d596d5492bb62b12d0f29ecb64736f6c63430008000033",
			"opcodes": "PUSH1 0x80 PUSH1 0x40 MSTORE CALLVALUE DUP1 ISZERO PUSH2 0x10 JUMPI PUSH1 0x0 DUP1 REVERT JUMPDEST POP PUSH1 0x4 DUP1 SLOAD PUSH1 0xFF PUSH1 0xA8 SHL NOT PUSH1 0xFF PUSH1 0xA0 SHL NOT SWAP1 SWAP2 AND PUSH1 0x1 PUSH1 0xA0 SHL OR AND PUSH1 0x1 PUSH1 0xA8 SHL OR SWAP1 SSTORE PUSH1 0x3 DUP1 SLOAD PUSH1 0x1 PUSH1 0x1 PUSH1 0xA0 SHL SUB NOT AND CALLER OR SWAP1 SSTORE PUSH2 0x466 DUP1 PUSH2 0x54 PUSH1 0x0 CODECOPY PUSH1 0x0 RETURN INVALID PUSH1 0x80 PUSH1 0x40 MSTORE CALLVALUE DUP1 ISZERO PUSH2 0x10 JUMPI PUSH1 0x0 DUP1 REVERT JUMPDEST POP PUSH1 0x4 CALLDATASIZE LT PUSH2 0xB4 JUMPI PUSH1 0x0 CALLDATALOAD PUSH1 0xE0 SHR DUP1 PUSH4 0x7CAC00EE GT PUSH2 0x71 JUMPI DUP1 PUSH4 0x7CAC00EE EQ PUSH2 0x119 JUMPI DUP1 PUSH4 0x893D20E8 EQ PUSH2 0x121 JUMPI DUP1 PUSH4 0x9EB4EAE5 EQ PUSH2 0x129 JUMPI DUP1 PUSH4 0xC412EABA EQ PUSH2 0x133 JUMPI DUP1 PUSH4 0xD7C41C79 EQ PUSH2 0x13B JUMPI DUP1 PUSH4 0xEE72B8CC EQ PUSH2 0x14E JUMPI PUSH2 0xB4 JUMP JUMPDEST DUP1 PUSH4 0x1B9CBDFB EQ PUSH2 0xB9 JUMPI DUP1 PUSH4 0x21DF0DA7 EQ PUSH2 0xD7 JUMPI DUP1 PUSH4 0x28919DF6 EQ PUSH2 0xEC JUMPI DUP1 PUSH4 0x28F833B7 EQ PUSH2 0x101 JUMPI DUP1 PUSH4 0x3A1A8080 EQ PUSH2 0x109 JUMPI DUP1 PUSH4 0x6805B84B EQ PUSH2 0x111 JUMPI JUMPDEST PUSH1 0x0 DUP1 REVERT JUMPDEST PUSH2 0xC1 PUSH2 0x156 JUMP JUMPDEST PUSH1 0x40 MLOAD PUSH2 0xCE SWAP2 SWAP1 PUSH2 0x3FC JUMP JUMPDEST PUSH1 0x40 MLOAD DUP1 SWAP2 SUB SWAP1 RETURN JUMPDEST PUSH2 0xDF PUSH2 0x15C JUMP JUMPDEST PUSH1 0x40 MLOAD PUSH2 0xCE SWAP2 SWAP1 PUSH2 0x3A6 JUMP JUMPDEST PUSH2 0xF4 PUSH2 0x16B JUMP JUMPDEST PUSH1 0x40 MLOAD PUSH2 0xCE SWAP2 SWAP1 PUSH2 0x3BA JUMP JUMPDEST PUSH2 0xDF PUSH2 0x17B JUMP JUMPDEST PUSH2 0xC1 PUSH2 0x18A JUMP JUMPDEST PUSH2 0xF4 PUSH2 0x190 JUMP JUMPDEST PUSH2 0xDF PUSH2 0x1A0 JUMP JUMPDEST PUSH2 0xDF PUSH2 0x1AF JUMP JUMPDEST PUSH2 0x131 PUSH2 0x1BE JUMP JUMPDEST STOP JUMPDEST PUSH2 0xDF PUSH2 0x212 JUMP JUMPDEST PUSH2 0x131 PUSH2 0x149 CALLDATASIZE PUSH1 0x4 PUSH2 0x341 JUMP JUMPDEST PUSH2 0x221 JUMP JUMPDEST PUSH2 0x131 PUSH2 0x2C7 JUMP JUMPDEST PUSH1 0x6 SLOAD DUP2 JUMP JUMPDEST PUSH1 0x1 SLOAD PUSH1 0x1 PUSH1 0x1 PUSH1 0xA0 SHL SUB AND SWAP1 JUMP JUMPDEST PUSH1 0x4 SLOAD PUSH1 0x1 PUSH1 0xA8 SHL SWAP1 DIV PUSH1 0xFF AND SWAP1 JUMP JUMPDEST PUSH1 0x4 SLOAD PUSH1 0x1 PUSH1 0x1 PUSH1 0xA0 SHL SUB AND DUP2 JUMP JUMPDEST PUSH1 0x5 SLOAD DUP2 JUMP JUMPDEST PUSH1 0x4 SLOAD PUSH1 0x1 PUSH1 0xA0 SHL SWAP1 DIV PUSH1 0xFF AND SWAP1 JUMP JUMPDEST PUSH1 0x0 SLOAD PUSH1 0x1 PUSH1 0x1 PUSH1 0xA0 SHL SUB AND SWAP1 JUMP JUMPDEST PUSH1 0x3 SLOAD PUSH1 0x1 PUSH1 0x1 PUSH1 0xA0 SHL SUB AND SWAP1 JUMP JUMPDEST PUSH1 0x3 SLOAD PUSH1 0x1 PUSH1 0x1 PUSH1 0xA0 SHL SUB AND CALLER EQ PUSH2 0x1F1 JUMPI PUSH1 0x40 MLOAD PUSH3 0x461BCD PUSH1 0xE5 SHL DUP2 MSTORE PUSH1 0x4 ADD PUSH2 0x1E8 SWAP1 PUSH2 0x3C5 JUMP JUMPDEST PUSH1 0x40 MLOAD DUP1 SWAP2 SUB SWAP1 REVERT JUMPDEST PUSH1 0x4 DUP1 SLOAD PUSH1 0xFF PUSH1 0xA0 SHL NOT DUP2 AND PUSH1 0x1 PUSH1 0xA0 SHL SWAP2 DUP3 SWAP1 DIV PUSH1 0xFF AND ISZERO SWAP1 SWAP2 MUL OR SWAP1 SSTORE JUMP JUMPDEST PUSH1 0x2 SLOAD PUSH1 0x1 PUSH1 0x1 PUSH1 0xA0 SHL SUB AND SWAP1 JUMP JUMPDEST PUSH1 0x3 SLOAD PUSH1 0x1 PUSH1 0x1 PUSH1 0xA0 SHL SUB AND CALLER EQ PUSH2 0x24B JUMPI PUSH1 0x40 MLOAD PUSH3 0x461BCD PUSH1 0xE5 SHL DUP2 MSTORE PUSH1 0x4 ADD PUSH2 0x1E8 SWAP1 PUSH2 0x3C5 JUMP JUMPDEST PUSH2 0x25D DUP3 PUSH8 0xDE0B6B3A7640000 PUSH2 0x312 JUMP JUMPDEST PUSH1 0x5 SSTORE PUSH2 0x272 DUP2 PUSH8 0xDE0B6B3A7640000 PUSH2 0x312 JUMP JUMPDEST PUSH1 0x6 SSTORE POP POP PUSH1 0x0 DUP1 SLOAD PUSH1 0x1 PUSH1 0x1 PUSH1 0xA0 SHL SUB SWAP6 DUP7 AND PUSH1 0x1 PUSH1 0x1 PUSH1 0xA0 SHL SUB NOT SWAP2 DUP3 AND OR SWAP1 SWAP2 SSTORE PUSH1 0x1 DUP1 SLOAD SWAP5 DUP7 AND SWAP5 DUP3 AND SWAP5 SWAP1 SWAP5 OR SWAP1 SWAP4 SSTORE PUSH1 0x2 DUP1 SLOAD SWAP3 DUP6 AND SWAP3 DUP5 AND SWAP3 SWAP1 SWAP3 OR SWAP1 SWAP2 SSTORE PUSH1 0x4 DUP1 SLOAD SWAP2 SWAP1 SWAP4 AND SWAP2 AND OR SWAP1 SSTORE JUMP JUMPDEST PUSH1 0x3 SLOAD PUSH1 0x1 PUSH1 0x1 PUSH1 0xA0 SHL SUB AND CALLER EQ PUSH2 0x2F1 JUMPI PUSH1 0x40 MLOAD PUSH3 0x461BCD PUSH1 0xE5 SHL DUP2 MSTORE PUSH1 0x4 ADD PUSH2 0x1E8 SWAP1 PUSH2 0x3C5 JUMP JUMPDEST PUSH1 0x4 DUP1 SLOAD PUSH1 0xFF PUSH1 0xA8 SHL NOT DUP2 AND PUSH1 0x1 PUSH1 0xA8 SHL SWAP2 DUP3 SWAP1 DIV PUSH1 0xFF AND ISZERO SWAP1 SWAP2 MUL OR SWAP1 SSTORE JUMP JUMPDEST PUSH1 0x0 PUSH2 0x31E DUP3 DUP5 PUSH2 0x405 JUMP JUMPDEST SWAP4 SWAP3 POP POP POP JUMP JUMPDEST DUP1 CALLDATALOAD PUSH1 0x1 PUSH1 0x1 PUSH1 0xA0 SHL SUB DUP2 AND DUP2 EQ PUSH2 0x33C JUMPI PUSH1 0x0 DUP1 REVERT JUMPDEST SWAP2 SWAP1 POP JUMP JUMPDEST PUSH1 0x0 DUP1 PUSH1 0x0 DUP1 PUSH1 0x0 DUP1 PUSH1 0xC0 DUP8 DUP10 SUB SLT ISZERO PUSH2 0x359 JUMPI DUP2 DUP3 REVERT JUMPDEST PUSH2 0x362 DUP8 PUSH2 0x325 JUMP JUMPDEST SWAP6 POP PUSH2 0x370 PUSH1 0x20 DUP9 ADD PUSH2 0x325 JUMP JUMPDEST SWAP5 POP PUSH2 0x37E PUSH1 0x40 DUP9 ADD PUSH2 0x325 JUMP JUMPDEST SWAP4 POP PUSH2 0x38C PUSH1 0x60 DUP9 ADD PUSH2 0x325 JUMP JUMPDEST SWAP3 POP PUSH1 0x80 DUP8 ADD CALLDATALOAD SWAP2 POP PUSH1 0xA0 DUP8 ADD CALLDATALOAD SWAP1 POP SWAP3 SWAP6 POP SWAP3 SWAP6 POP SWAP3 SWAP6 JUMP JUMPDEST PUSH1 0x1 PUSH1 0x1 PUSH1 0xA0 SHL SUB SWAP2 SWAP1 SWAP2 AND DUP2 MSTORE PUSH1 0x20 ADD SWAP1 JUMP JUMPDEST SWAP1 ISZERO ISZERO DUP2 MSTORE PUSH1 0x20 ADD SWAP1 JUMP JUMPDEST PUSH1 0x20 DUP1 DUP3 MSTORE PUSH1 0x1A SWAP1 DUP3 ADD MSTORE PUSH32 0x4865726F436F7265204572726F72203A206F6E6C794F776E6572000000000000 PUSH1 0x40 DUP3 ADD MSTORE PUSH1 0x60 ADD SWAP1 JUMP JUMPDEST SWAP1 DUP2 MSTORE PUSH1 0x20 ADD SWAP1 JUMP JUMPDEST PUSH1 0x0 DUP2 PUSH1 0x0 NOT DIV DUP4 GT DUP3 ISZERO ISZERO AND ISZERO PUSH2 0x42B JUMPI PUSH4 0x4E487B71 PUSH1 0xE0 SHL DUP2 MSTORE PUSH1 0x11 PUSH1 0x4 MSTORE PUSH1 0x24 DUP2 REVERT JUMPDEST POP MUL SWAP1 JUMP INVALID LOG2 PUSH5 0x6970667358 0x22 SLT KECCAK256 PUSH25 0xDDCC93A3A4DFCA5C083E576A064C2A8512E1E7D596D5492BB6 0x2B SLT 0xD0 CALLCODE SWAP15 0xCB PUSH5 0x736F6C6343 STOP ADDMOD STOP STOP CALLER "
		},
		"gasEstimates": {
			"creation": {
				"codeDepositCost": "225200",
				"executionCost": "41973",
				"totalCost": "267173"
			},
			"external": {
				"changeMiningPaused()": "21967",
				"changePaused()": "21901",
				"depositAddress()": "1137",
				"getHeroNFT()": "1070",
				"getItem()": "1136",
				"getMiningPaused()": "1102",
				"getOwner()": "1092",
				"getPaused()": "1168",
				"getToken()": "1093",
				"initialize(address,address,address,address,uint256,uint256)": "infinite",
				"priceOfKlay()": "1117",
				"priceOfToken()": "1029"
			}
		},
		"methodIdentifiers": {
			"changeMiningPaused()": "ee72b8cc",
			"changePaused()": "9eb4eae5",
			"depositAddress()": "28f833b7",
			"getHeroNFT()": "7cac00ee",
			"getItem()": "c412eaba",
			"getMiningPaused()": "28919df6",
			"getOwner()": "893d20e8",
			"getPaused()": "6805b84b",
			"getToken()": "21df0da7",
			"initialize(address,address,address,address,uint256,uint256)": "d7c41c79",
			"priceOfKlay()": "3a1a8080",
			"priceOfToken()": "1b9cbdfb"
		}
	},
	"abi": [
		{
			"inputs": [],
			"stateMutability": "nonpayable",
			"type": "constructor"
		},
		{
			"inputs": [],
			"name": "changeMiningPaused",
			"outputs": [],
			"stateMutability": "nonpayable",
			"type": "function"
		},
		{
			"inputs": [],
			"name": "changePaused",
			"outputs": [],
			"stateMutability": "nonpayable",
			"type": "function"
		},
		{
			"inputs": [],
			"name": "depositAddress",
			"outputs": [
				{
					"internalType": "address",
					"name": "",
					"type": "address"
				}
			],
			"stateMutability": "view",
			"type": "function"
		},
		{
			"inputs": [],
			"name": "getHeroNFT",
			"outputs": [
				{
					"internalType": "contract IHeroNFT",
					"name": "",
					"type": "address"
				}
			],
			"stateMutability": "view",
			"type": "function"
		},
		{
			"inputs": [],
			"name": "getItem",
			"outputs": [
				{
					"internalType": "contract IKIP37Full",
					"name": "",
					"type": "address"
				}
			],
			"stateMutability": "view",
			"type": "function"
		},
		{
			"inputs": [],
			"name": "getMiningPaused",
			"outputs": [
				{
					"internalType": "bool",
					"name": "",
					"type": "bool"
				}
			],
			"stateMutability": "view",
			"type": "function"
		},
		{
			"inputs": [],
			"name": "getOwner",
			"outputs": [
				{
					"internalType": "address payable",
					"name": "",
					"type": "address"
				}
			],
			"stateMutability": "view",
			"type": "function"
		},
		{
			"inputs": [],
			"name": "getPaused",
			"outputs": [
				{
					"internalType": "bool",
					"name": "",
					"type": "bool"
				}
			],
			"stateMutability": "view",
			"type": "function"
		},
		{
			"inputs": [],
			"name": "getToken",
			"outputs": [
				{
					"internalType": "contract IKIP7",
					"name": "",
					"type": "address"
				}
			],
			"stateMutability": "view",
			"type": "function"
		},
		{
			"inputs": [
				{
					"internalType": "address",
					"name": "_heroNFT",
					"type": "address"
				},
				{
					"internalType": "address",
					"name": "_token",
					"type": "address"
				},
				{
					"internalType": "address",
					"name": "_item",
					"type": "address"
				},
				{
					"internalType": "address",
					"name": "_depositAddress",
					"type": "address"
				},
				{
					"internalType": "uint256",
					"name": "_klay",
					"type": "uint256"
				},
				{
					"internalType": "uint256",
					"name": "_tokenPrice",
					"type": "uint256"
				}
			],
			"name": "initialize",
			"outputs": [],
			"stateMutability": "nonpayable",
			"type": "function"
		},
		{
			"inputs": [],
			"name": "priceOfKlay",
			"outputs": [
				{
					"internalType": "uint256",
					"name": "",
					"type": "uint256"
				}
			],
			"stateMutability": "view",
			"type": "function"
		},
		{
			"inputs": [],
			"name": "priceOfToken",
			"outputs": [
				{
					"internalType": "uint256",
					"name": "",
					"type": "uint256"
				}
			],
			"stateMutability": "view",
			"type": "function"
		}
	]
}