{
	"data": {
		"bytecode": {
			"linkReferences": {},
			"object": "608060405234801561001057600080fd5b50604051610c04380380610c048339818101604052810190610032919061008d565b806000806101000a81548173ffffffffffffffffffffffffffffffffffffffff021916908373ffffffffffffffffffffffffffffffffffffffff160217905550506100ff565b600081519050610087816100e8565b92915050565b60006020828403121561009f57600080fd5b60006100ad84828501610078565b91505092915050565b60006100c1826100c8565b9050919050565b600073ffffffffffffffffffffffffffffffffffffffff82169050919050565b6100f1816100b6565b81146100fc57600080fd5b50565b610af68061010e6000396000f3fe608060405234801561001057600080fd5b50600436106100415760003560e01c80638e1fcdd114610046578063aa93c0ee14610076578063b79d5db4146100a6575b600080fd5b610060600480360381019061005b9190610644565b6100d6565b60405161006d9190610785565b60405180910390f35b610090600480360381019061008b9190610644565b610364565b60405161009d9190610785565b60405180910390f35b6100c060048036038101906100bb9190610698565b6103b4565b6040516100cd9190610785565b60405180910390f35b6000808380519060200120905060007f8c57226533ec41d2857120df9ace6dff88130d9b32385e09c9828f75027730f382146101d3577f181ebe3a8fa130246d49bfd123ac54849b05bdcd02c6b1322c78de2a3988a31082146101ca577f6764d804d57285ae9d4c42cc380377d3d0ee9b90ff9eeccaa32d3b2e3e8d7f1782146101bf577fb2c1aaaf9f516585466c9876e2eaf06ee68751aad537b2a6fa22f473d03b58eb82146101b7577fb5333297a8bd10e190cb97fb1ee0f49587c8b2e015370e943c69fd680dabc6bd82146101af5760006101b2565b60645b6101ba565b60965b6101c2565b60c85b60ff166101ce565b61012c5b6101d7565b6101c25b61ffff16905060006001851461022e5760028514610226576003851461021e5760048514610216576005851461020e576000610211565b60465b610219565b60285b610221565b60195b610229565b600f5b610231565b600a5b60ff169050600080600190505b600581116103345760008060009054906101000a900473ffffffffffffffffffffffffffffffffffffffff1673ffffffffffffffffffffffffffffffffffffffff1662fdd58e33846040518363ffffffff1660e01b81526004016102a392919061075c565b60206040518083038186803b1580156102bb57600080fd5b505afa1580156102cf573d6000803e3d6000fd5b505050506040513d601f19601f820116820180604052508101906102f391906106c1565b9050600060018361030491906107f6565b90508181610312919061087d565b8461031d91906107f6565b93505050808061032c90610987565b91505061023e565b50600a82828561034491906107f6565b61034e919061087d565b610358919061084c565b94505050505092915050565b60008061037084610414565b9050600061037d84610520565b9050670de0b6b3a7640000600a8284610396919061087d565b6103a0919061084c565b6103aa919061087d565b9250505092915050565b600080600190505b600581116104095760006103cf8261056e565b90508084106103eb5780846103e491906108d7565b93506103f5565b819250505061040f565b50808061040190610987565b9150506103bc565b50600090505b919050565b600080828051906020012090507f8c57226533ec41d2857120df9ace6dff88130d9b32385e09c9828f75027730f38114610510577f181ebe3a8fa130246d49bfd123ac54849b05bdcd02c6b1322c78de2a3988a3108114610507577f6764d804d57285ae9d4c42cc380377d3d0ee9b90ff9eeccaa32d3b2e3e8d7f1781146104fe577fb2c1aaaf9f516585466c9876e2eaf06ee68751aad537b2a6fa22f473d03b58eb81146104f3577fb5333297a8bd10e190cb97fb1ee0f49587c8b2e015370e943c69fd680dabc6bd81146104eb5760006104ee565b60c85b6104f6565b60e15b60ff16610502565b61012c5b61050b565b6101c25b610514565b6102a35b61ffff16915050919050565b60006001821461056157600282146105595760038214610551576004821461054957600061054c565b60505b610554565b602a5b61055c565b60165b610564565b600f5b60ff169050919050565b60006103e84244846040516020016105889392919061071f565b6040516020818303038152906040528051906020012060001c6105ab91906109da565b9050919050565b60006105c56105c0846107c5565b6107a0565b9050828152602081018484840111156105dd57600080fd5b6105e8848285610947565b509392505050565b600082601f83011261060157600080fd5b81356106118482602086016105b2565b91505092915050565b60008135905061062981610aa9565b92915050565b60008151905061063e81610aa9565b92915050565b6000806040838503121561065757600080fd5b600083013567ffffffffffffffff81111561067157600080fd5b61067d858286016105f0565b925050602061068e8582860161061a565b9150509250929050565b6000602082840312156106aa57600080fd5b60006106b88482850161061a565b91505092915050565b6000602082840312156106d357600080fd5b60006106e18482850161062f565b91505092915050565b6106f38161090b565b82525050565b6107028161093d565b82525050565b6107196107148261093d565b6109d0565b82525050565b600061072b8286610708565b60208201915061073b8285610708565b60208201915061074b8284610708565b602082019150819050949350505050565b600060408201905061077160008301856106ea565b61077e60208301846106f9565b9392505050565b600060208201905061079a60008301846106f9565b92915050565b60006107aa6107bb565b90506107b68282610956565b919050565b6000604051905090565b600067ffffffffffffffff8211156107e0576107df610a69565b5b6107e982610a98565b9050602081019050919050565b60006108018261093d565b915061080c8361093d565b9250827fffffffffffffffffffffffffffffffffffffffffffffffffffffffffffffffff0382111561084157610840610a0b565b5b828201905092915050565b60006108578261093d565b91506108628361093d565b92508261087257610871610a3a565b5b828204905092915050565b60006108888261093d565b91506108938361093d565b9250817fffffffffffffffffffffffffffffffffffffffffffffffffffffffffffffffff04831182151516156108cc576108cb610a0b565b5b828202905092915050565b60006108e28261093d565b91506108ed8361093d565b925082821015610900576108ff610a0b565b5b828203905092915050565b60006109168261091d565b9050919050565b600073ffffffffffffffffffffffffffffffffffffffff82169050919050565b6000819050919050565b82818337600083830152505050565b61095f82610a98565b810181811067ffffffffffffffff8211171561097e5761097d610a69565b5b80604052505050565b60006109928261093d565b91507fffffffffffffffffffffffffffffffffffffffffffffffffffffffffffffffff8214156109c5576109c4610a0b565b5b600182019050919050565b6000819050919050565b60006109e58261093d565b91506109f08361093d565b925082610a00576109ff610a3a565b5b828206905092915050565b7f4e487b7100000000000000000000000000000000000000000000000000000000600052601160045260246000fd5b7f4e487b7100000000000000000000000000000000000000000000000000000000600052601260045260246000fd5b7f4e487b7100000000000000000000000000000000000000000000000000000000600052604160045260246000fd5b6000601f19601f8301169050919050565b610ab28161093d565b8114610abd57600080fd5b5056fea2646970667358221220f3f58077329c4574a7720f76a1964f7677c9cff756e0b4bb7af5ad86ceb848e664736f6c63430008040033",
			"opcodes": "PUSH1 0x80 PUSH1 0x40 MSTORE CALLVALUE DUP1 ISZERO PUSH2 0x10 JUMPI PUSH1 0x0 DUP1 REVERT JUMPDEST POP PUSH1 0x40 MLOAD PUSH2 0xC04 CODESIZE SUB DUP1 PUSH2 0xC04 DUP4 CODECOPY DUP2 DUP2 ADD PUSH1 0x40 MSTORE DUP2 ADD SWAP1 PUSH2 0x32 SWAP2 SWAP1 PUSH2 0x8D JUMP JUMPDEST DUP1 PUSH1 0x0 DUP1 PUSH2 0x100 EXP DUP2 SLOAD DUP2 PUSH20 0xFFFFFFFFFFFFFFFFFFFFFFFFFFFFFFFFFFFFFFFF MUL NOT AND SWAP1 DUP4 PUSH20 0xFFFFFFFFFFFFFFFFFFFFFFFFFFFFFFFFFFFFFFFF AND MUL OR SWAP1 SSTORE POP POP PUSH2 0xFF JUMP JUMPDEST PUSH1 0x0 DUP2 MLOAD SWAP1 POP PUSH2 0x87 DUP2 PUSH2 0xE8 JUMP JUMPDEST SWAP3 SWAP2 POP POP JUMP JUMPDEST PUSH1 0x0 PUSH1 0x20 DUP3 DUP5 SUB SLT ISZERO PUSH2 0x9F JUMPI PUSH1 0x0 DUP1 REVERT JUMPDEST PUSH1 0x0 PUSH2 0xAD DUP5 DUP3 DUP6 ADD PUSH2 0x78 JUMP JUMPDEST SWAP2 POP POP SWAP3 SWAP2 POP POP JUMP JUMPDEST PUSH1 0x0 PUSH2 0xC1 DUP3 PUSH2 0xC8 JUMP JUMPDEST SWAP1 POP SWAP2 SWAP1 POP JUMP JUMPDEST PUSH1 0x0 PUSH20 0xFFFFFFFFFFFFFFFFFFFFFFFFFFFFFFFFFFFFFFFF DUP3 AND SWAP1 POP SWAP2 SWAP1 POP JUMP JUMPDEST PUSH2 0xF1 DUP2 PUSH2 0xB6 JUMP JUMPDEST DUP2 EQ PUSH2 0xFC JUMPI PUSH1 0x0 DUP1 REVERT JUMPDEST POP JUMP JUMPDEST PUSH2 0xAF6 DUP1 PUSH2 0x10E PUSH1 0x0 CODECOPY PUSH1 0x0 RETURN INVALID PUSH1 0x80 PUSH1 0x40 MSTORE CALLVALUE DUP1 ISZERO PUSH2 0x10 JUMPI PUSH1 0x0 DUP1 REVERT JUMPDEST POP PUSH1 0x4 CALLDATASIZE LT PUSH2 0x41 JUMPI PUSH1 0x0 CALLDATALOAD PUSH1 0xE0 SHR DUP1 PUSH4 0x8E1FCDD1 EQ PUSH2 0x46 JUMPI DUP1 PUSH4 0xAA93C0EE EQ PUSH2 0x76 JUMPI DUP1 PUSH4 0xB79D5DB4 EQ PUSH2 0xA6 JUMPI JUMPDEST PUSH1 0x0 DUP1 REVERT JUMPDEST PUSH2 0x60 PUSH1 0x4 DUP1 CALLDATASIZE SUB DUP2 ADD SWAP1 PUSH2 0x5B SWAP2 SWAP1 PUSH2 0x644 JUMP JUMPDEST PUSH2 0xD6 JUMP JUMPDEST PUSH1 0x40 MLOAD PUSH2 0x6D SWAP2 SWAP1 PUSH2 0x785 JUMP JUMPDEST PUSH1 0x40 MLOAD DUP1 SWAP2 SUB SWAP1 RETURN JUMPDEST PUSH2 0x90 PUSH1 0x4 DUP1 CALLDATASIZE SUB DUP2 ADD SWAP1 PUSH2 0x8B SWAP2 SWAP1 PUSH2 0x644 JUMP JUMPDEST PUSH2 0x364 JUMP JUMPDEST PUSH1 0x40 MLOAD PUSH2 0x9D SWAP2 SWAP1 PUSH2 0x785 JUMP JUMPDEST PUSH1 0x40 MLOAD DUP1 SWAP2 SUB SWAP1 RETURN JUMPDEST PUSH2 0xC0 PUSH1 0x4 DUP1 CALLDATASIZE SUB DUP2 ADD SWAP1 PUSH2 0xBB SWAP2 SWAP1 PUSH2 0x698 JUMP JUMPDEST PUSH2 0x3B4 JUMP JUMPDEST PUSH1 0x40 MLOAD PUSH2 0xCD SWAP2 SWAP1 PUSH2 0x785 JUMP JUMPDEST PUSH1 0x40 MLOAD DUP1 SWAP2 SUB SWAP1 RETURN JUMPDEST PUSH1 0x0 DUP1 DUP4 DUP1 MLOAD SWAP1 PUSH1 0x20 ADD KECCAK256 SWAP1 POP PUSH1 0x0 PUSH32 0x8C57226533EC41D2857120DF9ACE6DFF88130D9B32385E09C9828F75027730F3 DUP3 EQ PUSH2 0x1D3 JUMPI PUSH32 0x181EBE3A8FA130246D49BFD123AC54849B05BDCD02C6B1322C78DE2A3988A310 DUP3 EQ PUSH2 0x1CA JUMPI PUSH32 0x6764D804D57285AE9D4C42CC380377D3D0EE9B90FF9EECCAA32D3B2E3E8D7F17 DUP3 EQ PUSH2 0x1BF JUMPI PUSH32 0xB2C1AAAF9F516585466C9876E2EAF06EE68751AAD537B2A6FA22F473D03B58EB DUP3 EQ PUSH2 0x1B7 JUMPI PUSH32 0xB5333297A8BD10E190CB97FB1EE0F49587C8B2E015370E943C69FD680DABC6BD DUP3 EQ PUSH2 0x1AF JUMPI PUSH1 0x0 PUSH2 0x1B2 JUMP JUMPDEST PUSH1 0x64 JUMPDEST PUSH2 0x1BA JUMP JUMPDEST PUSH1 0x96 JUMPDEST PUSH2 0x1C2 JUMP JUMPDEST PUSH1 0xC8 JUMPDEST PUSH1 0xFF AND PUSH2 0x1CE JUMP JUMPDEST PUSH2 0x12C JUMPDEST PUSH2 0x1D7 JUMP JUMPDEST PUSH2 0x1C2 JUMPDEST PUSH2 0xFFFF AND SWAP1 POP PUSH1 0x0 PUSH1 0x1 DUP6 EQ PUSH2 0x22E JUMPI PUSH1 0x2 DUP6 EQ PUSH2 0x226 JUMPI PUSH1 0x3 DUP6 EQ PUSH2 0x21E JUMPI PUSH1 0x4 DUP6 EQ PUSH2 0x216 JUMPI PUSH1 0x5 DUP6 EQ PUSH2 0x20E JUMPI PUSH1 0x0 PUSH2 0x211 JUMP JUMPDEST PUSH1 0x46 JUMPDEST PUSH2 0x219 JUMP JUMPDEST PUSH1 0x28 JUMPDEST PUSH2 0x221 JUMP JUMPDEST PUSH1 0x19 JUMPDEST PUSH2 0x229 JUMP JUMPDEST PUSH1 0xF JUMPDEST PUSH2 0x231 JUMP JUMPDEST PUSH1 0xA JUMPDEST PUSH1 0xFF AND SWAP1 POP PUSH1 0x0 DUP1 PUSH1 0x1 SWAP1 POP JUMPDEST PUSH1 0x5 DUP2 GT PUSH2 0x334 JUMPI PUSH1 0x0 DUP1 PUSH1 0x0 SWAP1 SLOAD SWAP1 PUSH2 0x100 EXP SWAP1 DIV PUSH20 0xFFFFFFFFFFFFFFFFFFFFFFFFFFFFFFFFFFFFFFFF AND PUSH20 0xFFFFFFFFFFFFFFFFFFFFFFFFFFFFFFFFFFFFFFFF AND PUSH3 0xFDD58E CALLER DUP5 PUSH1 0x40 MLOAD DUP4 PUSH4 0xFFFFFFFF AND PUSH1 0xE0 SHL DUP2 MSTORE PUSH1 0x4 ADD PUSH2 0x2A3 SWAP3 SWAP2 SWAP1 PUSH2 0x75C JUMP JUMPDEST PUSH1 0x20 PUSH1 0x40 MLOAD DUP1 DUP4 SUB DUP2 DUP7 DUP1 EXTCODESIZE ISZERO DUP1 ISZERO PUSH2 0x2BB JUMPI PUSH1 0x0 DUP1 REVERT JUMPDEST POP GAS STATICCALL ISZERO DUP1 ISZERO PUSH2 0x2CF JUMPI RETURNDATASIZE PUSH1 0x0 DUP1 RETURNDATACOPY RETURNDATASIZE PUSH1 0x0 REVERT JUMPDEST POP POP POP POP PUSH1 0x40 MLOAD RETURNDATASIZE PUSH1 0x1F NOT PUSH1 0x1F DUP3 ADD AND DUP3 ADD DUP1 PUSH1 0x40 MSTORE POP DUP2 ADD SWAP1 PUSH2 0x2F3 SWAP2 SWAP1 PUSH2 0x6C1 JUMP JUMPDEST SWAP1 POP PUSH1 0x0 PUSH1 0x1 DUP4 PUSH2 0x304 SWAP2 SWAP1 PUSH2 0x7F6 JUMP JUMPDEST SWAP1 POP DUP2 DUP2 PUSH2 0x312 SWAP2 SWAP1 PUSH2 0x87D JUMP JUMPDEST DUP5 PUSH2 0x31D SWAP2 SWAP1 PUSH2 0x7F6 JUMP JUMPDEST SWAP4 POP POP POP DUP1 DUP1 PUSH2 0x32C SWAP1 PUSH2 0x987 JUMP JUMPDEST SWAP2 POP POP PUSH2 0x23E JUMP JUMPDEST POP PUSH1 0xA DUP3 DUP3 DUP6 PUSH2 0x344 SWAP2 SWAP1 PUSH2 0x7F6 JUMP JUMPDEST PUSH2 0x34E SWAP2 SWAP1 PUSH2 0x87D JUMP JUMPDEST PUSH2 0x358 SWAP2 SWAP1 PUSH2 0x84C JUMP JUMPDEST SWAP5 POP POP POP POP POP SWAP3 SWAP2 POP POP JUMP JUMPDEST PUSH1 0x0 DUP1 PUSH2 0x370 DUP5 PUSH2 0x414 JUMP JUMPDEST SWAP1 POP PUSH1 0x0 PUSH2 0x37D DUP5 PUSH2 0x520 JUMP JUMPDEST SWAP1 POP PUSH8 0xDE0B6B3A7640000 PUSH1 0xA DUP3 DUP5 PUSH2 0x396 SWAP2 SWAP1 PUSH2 0x87D JUMP JUMPDEST PUSH2 0x3A0 SWAP2 SWAP1 PUSH2 0x84C JUMP JUMPDEST PUSH2 0x3AA SWAP2 SWAP1 PUSH2 0x87D JUMP JUMPDEST SWAP3 POP POP POP SWAP3 SWAP2 POP POP JUMP JUMPDEST PUSH1 0x0 DUP1 PUSH1 0x1 SWAP1 POP JUMPDEST PUSH1 0x5 DUP2 GT PUSH2 0x409 JUMPI PUSH1 0x0 PUSH2 0x3CF DUP3 PUSH2 0x56E JUMP JUMPDEST SWAP1 POP DUP1 DUP5 LT PUSH2 0x3EB JUMPI DUP1 DUP5 PUSH2 0x3E4 SWAP2 SWAP1 PUSH2 0x8D7 JUMP JUMPDEST SWAP4 POP PUSH2 0x3F5 JUMP JUMPDEST DUP2 SWAP3 POP POP POP PUSH2 0x40F JUMP JUMPDEST POP DUP1 DUP1 PUSH2 0x401 SWAP1 PUSH2 0x987 JUMP JUMPDEST SWAP2 POP POP PUSH2 0x3BC JUMP JUMPDEST POP PUSH1 0x0 SWAP1 POP JUMPDEST SWAP2 SWAP1 POP JUMP JUMPDEST PUSH1 0x0 DUP1 DUP3 DUP1 MLOAD SWAP1 PUSH1 0x20 ADD KECCAK256 SWAP1 POP PUSH32 0x8C57226533EC41D2857120DF9ACE6DFF88130D9B32385E09C9828F75027730F3 DUP2 EQ PUSH2 0x510 JUMPI PUSH32 0x181EBE3A8FA130246D49BFD123AC54849B05BDCD02C6B1322C78DE2A3988A310 DUP2 EQ PUSH2 0x507 JUMPI PUSH32 0x6764D804D57285AE9D4C42CC380377D3D0EE9B90FF9EECCAA32D3B2E3E8D7F17 DUP2 EQ PUSH2 0x4FE JUMPI PUSH32 0xB2C1AAAF9F516585466C9876E2EAF06EE68751AAD537B2A6FA22F473D03B58EB DUP2 EQ PUSH2 0x4F3 JUMPI PUSH32 0xB5333297A8BD10E190CB97FB1EE0F49587C8B2E015370E943C69FD680DABC6BD DUP2 EQ PUSH2 0x4EB JUMPI PUSH1 0x0 PUSH2 0x4EE JUMP JUMPDEST PUSH1 0xC8 JUMPDEST PUSH2 0x4F6 JUMP JUMPDEST PUSH1 0xE1 JUMPDEST PUSH1 0xFF AND PUSH2 0x502 JUMP JUMPDEST PUSH2 0x12C JUMPDEST PUSH2 0x50B JUMP JUMPDEST PUSH2 0x1C2 JUMPDEST PUSH2 0x514 JUMP JUMPDEST PUSH2 0x2A3 JUMPDEST PUSH2 0xFFFF AND SWAP2 POP POP SWAP2 SWAP1 POP JUMP JUMPDEST PUSH1 0x0 PUSH1 0x1 DUP3 EQ PUSH2 0x561 JUMPI PUSH1 0x2 DUP3 EQ PUSH2 0x559 JUMPI PUSH1 0x3 DUP3 EQ PUSH2 0x551 JUMPI PUSH1 0x4 DUP3 EQ PUSH2 0x549 JUMPI PUSH1 0x0 PUSH2 0x54C JUMP JUMPDEST PUSH1 0x50 JUMPDEST PUSH2 0x554 JUMP JUMPDEST PUSH1 0x2A JUMPDEST PUSH2 0x55C JUMP JUMPDEST PUSH1 0x16 JUMPDEST PUSH2 0x564 JUMP JUMPDEST PUSH1 0xF JUMPDEST PUSH1 0xFF AND SWAP1 POP SWAP2 SWAP1 POP JUMP JUMPDEST PUSH1 0x0 PUSH2 0x3E8 TIMESTAMP DIFFICULTY DUP5 PUSH1 0x40 MLOAD PUSH1 0x20 ADD PUSH2 0x588 SWAP4 SWAP3 SWAP2 SWAP1 PUSH2 0x71F JUMP JUMPDEST PUSH1 0x40 MLOAD PUSH1 0x20 DUP2 DUP4 SUB SUB DUP2 MSTORE SWAP1 PUSH1 0x40 MSTORE DUP1 MLOAD SWAP1 PUSH1 0x20 ADD KECCAK256 PUSH1 0x0 SHR PUSH2 0x5AB SWAP2 SWAP1 PUSH2 0x9DA JUMP JUMPDEST SWAP1 POP SWAP2 SWAP1 POP JUMP JUMPDEST PUSH1 0x0 PUSH2 0x5C5 PUSH2 0x5C0 DUP5 PUSH2 0x7C5 JUMP JUMPDEST PUSH2 0x7A0 JUMP JUMPDEST SWAP1 POP DUP3 DUP2 MSTORE PUSH1 0x20 DUP2 ADD DUP5 DUP5 DUP5 ADD GT ISZERO PUSH2 0x5DD JUMPI PUSH1 0x0 DUP1 REVERT JUMPDEST PUSH2 0x5E8 DUP5 DUP3 DUP6 PUSH2 0x947 JUMP JUMPDEST POP SWAP4 SWAP3 POP POP POP JUMP JUMPDEST PUSH1 0x0 DUP3 PUSH1 0x1F DUP4 ADD SLT PUSH2 0x601 JUMPI PUSH1 0x0 DUP1 REVERT JUMPDEST DUP2 CALLDATALOAD PUSH2 0x611 DUP5 DUP3 PUSH1 0x20 DUP7 ADD PUSH2 0x5B2 JUMP JUMPDEST SWAP2 POP POP SWAP3 SWAP2 POP POP JUMP JUMPDEST PUSH1 0x0 DUP2 CALLDATALOAD SWAP1 POP PUSH2 0x629 DUP2 PUSH2 0xAA9 JUMP JUMPDEST SWAP3 SWAP2 POP POP JUMP JUMPDEST PUSH1 0x0 DUP2 MLOAD SWAP1 POP PUSH2 0x63E DUP2 PUSH2 0xAA9 JUMP JUMPDEST SWAP3 SWAP2 POP POP JUMP JUMPDEST PUSH1 0x0 DUP1 PUSH1 0x40 DUP4 DUP6 SUB SLT ISZERO PUSH2 0x657 JUMPI PUSH1 0x0 DUP1 REVERT JUMPDEST PUSH1 0x0 DUP4 ADD CALLDATALOAD PUSH8 0xFFFFFFFFFFFFFFFF DUP2 GT ISZERO PUSH2 0x671 JUMPI PUSH1 0x0 DUP1 REVERT JUMPDEST PUSH2 0x67D DUP6 DUP3 DUP7 ADD PUSH2 0x5F0 JUMP JUMPDEST SWAP3 POP POP PUSH1 0x20 PUSH2 0x68E DUP6 DUP3 DUP7 ADD PUSH2 0x61A JUMP JUMPDEST SWAP2 POP POP SWAP3 POP SWAP3 SWAP1 POP JUMP JUMPDEST PUSH1 0x0 PUSH1 0x20 DUP3 DUP5 SUB SLT ISZERO PUSH2 0x6AA JUMPI PUSH1 0x0 DUP1 REVERT JUMPDEST PUSH1 0x0 PUSH2 0x6B8 DUP5 DUP3 DUP6 ADD PUSH2 0x61A JUMP JUMPDEST SWAP2 POP POP SWAP3 SWAP2 POP POP JUMP JUMPDEST PUSH1 0x0 PUSH1 0x20 DUP3 DUP5 SUB SLT ISZERO PUSH2 0x6D3 JUMPI PUSH1 0x0 DUP1 REVERT JUMPDEST PUSH1 0x0 PUSH2 0x6E1 DUP5 DUP3 DUP6 ADD PUSH2 0x62F JUMP JUMPDEST SWAP2 POP POP SWAP3 SWAP2 POP POP JUMP JUMPDEST PUSH2 0x6F3 DUP2 PUSH2 0x90B JUMP JUMPDEST DUP3 MSTORE POP POP JUMP JUMPDEST PUSH2 0x702 DUP2 PUSH2 0x93D JUMP JUMPDEST DUP3 MSTORE POP POP JUMP JUMPDEST PUSH2 0x719 PUSH2 0x714 DUP3 PUSH2 0x93D JUMP JUMPDEST PUSH2 0x9D0 JUMP JUMPDEST DUP3 MSTORE POP POP JUMP JUMPDEST PUSH1 0x0 PUSH2 0x72B DUP3 DUP7 PUSH2 0x708 JUMP JUMPDEST PUSH1 0x20 DUP3 ADD SWAP2 POP PUSH2 0x73B DUP3 DUP6 PUSH2 0x708 JUMP JUMPDEST PUSH1 0x20 DUP3 ADD SWAP2 POP PUSH2 0x74B DUP3 DUP5 PUSH2 0x708 JUMP JUMPDEST PUSH1 0x20 DUP3 ADD SWAP2 POP DUP2 SWAP1 POP SWAP5 SWAP4 POP POP POP POP JUMP JUMPDEST PUSH1 0x0 PUSH1 0x40 DUP3 ADD SWAP1 POP PUSH2 0x771 PUSH1 0x0 DUP4 ADD DUP6 PUSH2 0x6EA JUMP JUMPDEST PUSH2 0x77E PUSH1 0x20 DUP4 ADD DUP5 PUSH2 0x6F9 JUMP JUMPDEST SWAP4 SWAP3 POP POP POP JUMP JUMPDEST PUSH1 0x0 PUSH1 0x20 DUP3 ADD SWAP1 POP PUSH2 0x79A PUSH1 0x0 DUP4 ADD DUP5 PUSH2 0x6F9 JUMP JUMPDEST SWAP3 SWAP2 POP POP JUMP JUMPDEST PUSH1 0x0 PUSH2 0x7AA PUSH2 0x7BB JUMP JUMPDEST SWAP1 POP PUSH2 0x7B6 DUP3 DUP3 PUSH2 0x956 JUMP JUMPDEST SWAP2 SWAP1 POP JUMP JUMPDEST PUSH1 0x0 PUSH1 0x40 MLOAD SWAP1 POP SWAP1 JUMP JUMPDEST PUSH1 0x0 PUSH8 0xFFFFFFFFFFFFFFFF DUP3 GT ISZERO PUSH2 0x7E0 JUMPI PUSH2 0x7DF PUSH2 0xA69 JUMP JUMPDEST JUMPDEST PUSH2 0x7E9 DUP3 PUSH2 0xA98 JUMP JUMPDEST SWAP1 POP PUSH1 0x20 DUP2 ADD SWAP1 POP SWAP2 SWAP1 POP JUMP JUMPDEST PUSH1 0x0 PUSH2 0x801 DUP3 PUSH2 0x93D JUMP JUMPDEST SWAP2 POP PUSH2 0x80C DUP4 PUSH2 0x93D JUMP JUMPDEST SWAP3 POP DUP3 PUSH32 0xFFFFFFFFFFFFFFFFFFFFFFFFFFFFFFFFFFFFFFFFFFFFFFFFFFFFFFFFFFFFFFFF SUB DUP3 GT ISZERO PUSH2 0x841 JUMPI PUSH2 0x840 PUSH2 0xA0B JUMP JUMPDEST JUMPDEST DUP3 DUP3 ADD SWAP1 POP SWAP3 SWAP2 POP POP JUMP JUMPDEST PUSH1 0x0 PUSH2 0x857 DUP3 PUSH2 0x93D JUMP JUMPDEST SWAP2 POP PUSH2 0x862 DUP4 PUSH2 0x93D JUMP JUMPDEST SWAP3 POP DUP3 PUSH2 0x872 JUMPI PUSH2 0x871 PUSH2 0xA3A JUMP JUMPDEST JUMPDEST DUP3 DUP3 DIV SWAP1 POP SWAP3 SWAP2 POP POP JUMP JUMPDEST PUSH1 0x0 PUSH2 0x888 DUP3 PUSH2 0x93D JUMP JUMPDEST SWAP2 POP PUSH2 0x893 DUP4 PUSH2 0x93D JUMP JUMPDEST SWAP3 POP DUP2 PUSH32 0xFFFFFFFFFFFFFFFFFFFFFFFFFFFFFFFFFFFFFFFFFFFFFFFFFFFFFFFFFFFFFFFF DIV DUP4 GT DUP3 ISZERO ISZERO AND ISZERO PUSH2 0x8CC JUMPI PUSH2 0x8CB PUSH2 0xA0B JUMP JUMPDEST JUMPDEST DUP3 DUP3 MUL SWAP1 POP SWAP3 SWAP2 POP POP JUMP JUMPDEST PUSH1 0x0 PUSH2 0x8E2 DUP3 PUSH2 0x93D JUMP JUMPDEST SWAP2 POP PUSH2 0x8ED DUP4 PUSH2 0x93D JUMP JUMPDEST SWAP3 POP DUP3 DUP3 LT ISZERO PUSH2 0x900 JUMPI PUSH2 0x8FF PUSH2 0xA0B JUMP JUMPDEST JUMPDEST DUP3 DUP3 SUB SWAP1 POP SWAP3 SWAP2 POP POP JUMP JUMPDEST PUSH1 0x0 PUSH2 0x916 DUP3 PUSH2 0x91D JUMP JUMPDEST SWAP1 POP SWAP2 SWAP1 POP JUMP JUMPDEST PUSH1 0x0 PUSH20 0xFFFFFFFFFFFFFFFFFFFFFFFFFFFFFFFFFFFFFFFF DUP3 AND SWAP1 POP SWAP2 SWAP1 POP JUMP JUMPDEST PUSH1 0x0 DUP2 SWAP1 POP SWAP2 SWAP1 POP JUMP JUMPDEST DUP3 DUP2 DUP4 CALLDATACOPY PUSH1 0x0 DUP4 DUP4 ADD MSTORE POP POP POP JUMP JUMPDEST PUSH2 0x95F DUP3 PUSH2 0xA98 JUMP JUMPDEST DUP2 ADD DUP2 DUP2 LT PUSH8 0xFFFFFFFFFFFFFFFF DUP3 GT OR ISZERO PUSH2 0x97E JUMPI PUSH2 0x97D PUSH2 0xA69 JUMP JUMPDEST JUMPDEST DUP1 PUSH1 0x40 MSTORE POP POP POP JUMP JUMPDEST PUSH1 0x0 PUSH2 0x992 DUP3 PUSH2 0x93D JUMP JUMPDEST SWAP2 POP PUSH32 0xFFFFFFFFFFFFFFFFFFFFFFFFFFFFFFFFFFFFFFFFFFFFFFFFFFFFFFFFFFFFFFFF DUP3 EQ ISZERO PUSH2 0x9C5 JUMPI PUSH2 0x9C4 PUSH2 0xA0B JUMP JUMPDEST JUMPDEST PUSH1 0x1 DUP3 ADD SWAP1 POP SWAP2 SWAP1 POP JUMP JUMPDEST PUSH1 0x0 DUP2 SWAP1 POP SWAP2 SWAP1 POP JUMP JUMPDEST PUSH1 0x0 PUSH2 0x9E5 DUP3 PUSH2 0x93D JUMP JUMPDEST SWAP2 POP PUSH2 0x9F0 DUP4 PUSH2 0x93D JUMP JUMPDEST SWAP3 POP DUP3 PUSH2 0xA00 JUMPI PUSH2 0x9FF PUSH2 0xA3A JUMP JUMPDEST JUMPDEST DUP3 DUP3 MOD SWAP1 POP SWAP3 SWAP2 POP POP JUMP JUMPDEST PUSH32 0x4E487B7100000000000000000000000000000000000000000000000000000000 PUSH1 0x0 MSTORE PUSH1 0x11 PUSH1 0x4 MSTORE PUSH1 0x24 PUSH1 0x0 REVERT JUMPDEST PUSH32 0x4E487B7100000000000000000000000000000000000000000000000000000000 PUSH1 0x0 MSTORE PUSH1 0x12 PUSH1 0x4 MSTORE PUSH1 0x24 PUSH1 0x0 REVERT JUMPDEST PUSH32 0x4E487B7100000000000000000000000000000000000000000000000000000000 PUSH1 0x0 MSTORE PUSH1 0x41 PUSH1 0x4 MSTORE PUSH1 0x24 PUSH1 0x0 REVERT JUMPDEST PUSH1 0x0 PUSH1 0x1F NOT PUSH1 0x1F DUP4 ADD AND SWAP1 POP SWAP2 SWAP1 POP JUMP JUMPDEST PUSH2 0xAB2 DUP2 PUSH2 0x93D JUMP JUMPDEST DUP2 EQ PUSH2 0xABD JUMPI PUSH1 0x0 DUP1 REVERT JUMPDEST POP JUMP INVALID LOG2 PUSH5 0x6970667358 0x22 SLT KECCAK256 RETURN CREATE2 DUP1 PUSH24 0x329C4574A7720F76A1964F7677C9CFF756E0B4BB7AF5AD86 0xCE 0xB8 0x48 0xE6 PUSH5 0x736F6C6343 STOP ADDMOD DIV STOP CALLER "
		},
		"gasEstimates": {
			"creation": {
				"codeDepositCost": "561200",
				"executionCost": "infinite",
				"totalCost": "infinite"
			},
			"external": {
				"calculateItemIndex(uint256)": "infinite",
				"calculatePower(string,uint256)": "infinite",
				"calculateTokenAmount(string,uint256)": "infinite"
			},
			"internal": {
				"calculateBasicGradeAmount(string memory)": "infinite",
				"calculateBasicLevelAmount(uint256)": "170",
				"makeRandomNumberForItem(uint256)": "infinite"
			}
		},
		"methodIdentifiers": {
			"calculateItemIndex(uint256)": "b79d5db4",
			"calculatePower(string,uint256)": "8e1fcdd1",
			"calculateTokenAmount(string,uint256)": "aa93c0ee"
		}
	},
	"abi": [
		{
			"inputs": [
				{
					"internalType": "address",
					"name": "_item",
					"type": "address"
				}
			],
			"stateMutability": "nonpayable",
			"type": "constructor"
		},
		{
			"inputs": [
				{
					"internalType": "uint256",
					"name": "_power",
					"type": "uint256"
				}
			],
			"name": "calculateItemIndex",
			"outputs": [
				{
					"internalType": "uint256",
					"name": "",
					"type": "uint256"
				}
			],
			"stateMutability": "view",
			"type": "function"
		},
		{
			"inputs": [
				{
					"internalType": "string",
					"name": "grade",
					"type": "string"
				},
				{
					"internalType": "uint256",
					"name": "level",
					"type": "uint256"
				}
			],
			"name": "calculatePower",
			"outputs": [
				{
					"internalType": "uint256",
					"name": "",
					"type": "uint256"
				}
			],
			"stateMutability": "view",
			"type": "function"
		},
		{
			"inputs": [
				{
					"internalType": "string",
					"name": "grade",
					"type": "string"
				},
				{
					"internalType": "uint256",
					"name": "level",
					"type": "uint256"
				}
			],
			"name": "calculateTokenAmount",
			"outputs": [
				{
					"internalType": "uint256",
					"name": "",
					"type": "uint256"
				}
			],
			"stateMutability": "pure",
			"type": "function"
		}
	]
}