{
	"data": {
		"bytecode": {
			"linkReferences": {},
			"object": "608060405234801561001057600080fd5b506004805460ff60a81b1960ff60a01b19909116600160a01b1716600160a81b179055600380546001600160a01b0319163317905561070f806100546000396000f3fe608060405234801561001057600080fd5b50600436106100cf5760003560e01c80637cac00ee1161008c578063aa93c0ee11610066578063aa93c0ee1461014e578063c412eaba14610161578063d7c41c7914610169578063ee72b8cc1461017c576100cf565b80637cac00ee14610134578063893d20e81461013c5780639eb4eae514610144576100cf565b80631b9cbdfb146100d457806321df0da7146100f257806328919df61461010757806328f833b71461011c5780633a1a8080146101245780636805b84b1461012c575b600080fd5b6100dc610184565b6040516100e9919061066f565b60405180910390f35b6100fa61018a565b6040516100e99190610619565b61010f610199565b6040516100e9919061062d565b6100fa6101a9565b6100dc6101b8565b61010f6101be565b6100fa6101ce565b6100fa6101dd565b61014c6101ec565b005b6100dc61015c366004610572565b610240565b6100fa61028c565b61014c61017736600461050d565b61029b565b61014c610341565b60065481565b6001546001600160a01b031690565b600454600160a81b900460ff1690565b6004546001600160a01b031681565b60055481565b600454600160a01b900460ff1690565b6000546001600160a01b031690565b6003546001600160a01b031690565b6003546001600160a01b0316331461021f5760405162461bcd60e51b815260040161021690610638565b60405180910390fd5b6004805460ff60a01b198116600160a01b9182900460ff1615909102179055565b60008061024c8461038c565b9050600061025984610496565b9050600a6102678284610698565b6102719190610678565b61028390670de0b6b3a7640000610698565b95945050505050565b6002546001600160a01b031690565b6003546001600160a01b031633146102c55760405162461bcd60e51b815260040161021690610638565b6102d782670de0b6b3a76400006104e3565b6005556102ec81670de0b6b3a76400006104e3565b6006555050600080546001600160a01b039586166001600160a01b0319918216179091556001805494861694821694909417909355600280549285169284169290921790915560048054919093169116179055565b6003546001600160a01b0316331461036b5760405162461bcd60e51b815260040161021690610638565b6004805460ff60a81b198116600160a81b9182900460ff1615909102179055565b805160208201206000907f8c57226533ec41d2857120df9ace6dff88130d9b32385e09c9828f75027730f38114610485577f181ebe3a8fa130246d49bfd123ac54849b05bdcd02c6b1322c78de2a3988a310811461047c577f6764d804d57285ae9d4c42cc380377d3d0ee9b90ff9eeccaa32d3b2e3e8d7f178114610473577fb2c1aaaf9f516585466c9876e2eaf06ee68751aad537b2a6fa22f473d03b58eb8114610468577fb5333297a8bd10e190cb97fb1ee0f49587c8b2e015370e943c69fd680dabc6bd8114610460576000610463565b60c85b61046b565b60e15b60ff16610477565b61012c5b610480565b6101c25b610489565b6102a35b61ffff169150505b919050565b6000816001146104d757816002146104cf57816003146104c757816004146104bf5760006104c2565b60505b6104ca565b602a5b6104d2565b60165b6104da565b600f5b60ff1692915050565b60006104ef8284610698565b9392505050565b80356001600160a01b038116811461049157600080fd5b60008060008060008060c08789031215610525578182fd5b61052e876104f6565b955061053c602088016104f6565b945061054a604088016104f6565b9350610558606088016104f6565b92506080870135915060a087013590509295509295509295565b60008060408385031215610584578182fd5b823567ffffffffffffffff8082111561059b578384fd5b818501915085601f8301126105ae578384fd5b81356020828211156105c2576105c26106c3565b604051601f8301601f19168101820184811182821017156105e5576105e56106c3565b60405282815284830182018910156105fb578687fd5b82828601838301379182018101959095529694909301359450505050565b6001600160a01b0391909116815260200190565b901515815260200190565b6020808252601a908201527f4865726f436f7265204572726f72203a206f6e6c794f776e6572000000000000604082015260600190565b90815260200190565b60008261069357634e487b7160e01b81526012600452602481fd5b500490565b60008160001904831182151516156106be57634e487b7160e01b81526011600452602481fd5b500290565b634e487b7160e01b600052604160045260246000fdfea2646970667358221220d21f712cea94424417d7009e5b06b0e8272243cb99d04ac1620aaa75ceff57d964736f6c63430008000033",
			"opcodes": "PUSH1 0x80 PUSH1 0x40 MSTORE CALLVALUE DUP1 ISZERO PUSH2 0x10 JUMPI PUSH1 0x0 DUP1 REVERT JUMPDEST POP PUSH1 0x4 DUP1 SLOAD PUSH1 0xFF PUSH1 0xA8 SHL NOT PUSH1 0xFF PUSH1 0xA0 SHL NOT SWAP1 SWAP2 AND PUSH1 0x1 PUSH1 0xA0 SHL OR AND PUSH1 0x1 PUSH1 0xA8 SHL OR SWAP1 SSTORE PUSH1 0x3 DUP1 SLOAD PUSH1 0x1 PUSH1 0x1 PUSH1 0xA0 SHL SUB NOT AND CALLER OR SWAP1 SSTORE PUSH2 0x70F DUP1 PUSH2 0x54 PUSH1 0x0 CODECOPY PUSH1 0x0 RETURN INVALID PUSH1 0x80 PUSH1 0x40 MSTORE CALLVALUE DUP1 ISZERO PUSH2 0x10 JUMPI PUSH1 0x0 DUP1 REVERT JUMPDEST POP PUSH1 0x4 CALLDATASIZE LT PUSH2 0xCF JUMPI PUSH1 0x0 CALLDATALOAD PUSH1 0xE0 SHR DUP1 PUSH4 0x7CAC00EE GT PUSH2 0x8C JUMPI DUP1 PUSH4 0xAA93C0EE GT PUSH2 0x66 JUMPI DUP1 PUSH4 0xAA93C0EE EQ PUSH2 0x14E JUMPI DUP1 PUSH4 0xC412EABA EQ PUSH2 0x161 JUMPI DUP1 PUSH4 0xD7C41C79 EQ PUSH2 0x169 JUMPI DUP1 PUSH4 0xEE72B8CC EQ PUSH2 0x17C JUMPI PUSH2 0xCF JUMP JUMPDEST DUP1 PUSH4 0x7CAC00EE EQ PUSH2 0x134 JUMPI DUP1 PUSH4 0x893D20E8 EQ PUSH2 0x13C JUMPI DUP1 PUSH4 0x9EB4EAE5 EQ PUSH2 0x144 JUMPI PUSH2 0xCF JUMP JUMPDEST DUP1 PUSH4 0x1B9CBDFB EQ PUSH2 0xD4 JUMPI DUP1 PUSH4 0x21DF0DA7 EQ PUSH2 0xF2 JUMPI DUP1 PUSH4 0x28919DF6 EQ PUSH2 0x107 JUMPI DUP1 PUSH4 0x28F833B7 EQ PUSH2 0x11C JUMPI DUP1 PUSH4 0x3A1A8080 EQ PUSH2 0x124 JUMPI DUP1 PUSH4 0x6805B84B EQ PUSH2 0x12C JUMPI JUMPDEST PUSH1 0x0 DUP1 REVERT JUMPDEST PUSH2 0xDC PUSH2 0x184 JUMP JUMPDEST PUSH1 0x40 MLOAD PUSH2 0xE9 SWAP2 SWAP1 PUSH2 0x66F JUMP JUMPDEST PUSH1 0x40 MLOAD DUP1 SWAP2 SUB SWAP1 RETURN JUMPDEST PUSH2 0xFA PUSH2 0x18A JUMP JUMPDEST PUSH1 0x40 MLOAD PUSH2 0xE9 SWAP2 SWAP1 PUSH2 0x619 JUMP JUMPDEST PUSH2 0x10F PUSH2 0x199 JUMP JUMPDEST PUSH1 0x40 MLOAD PUSH2 0xE9 SWAP2 SWAP1 PUSH2 0x62D JUMP JUMPDEST PUSH2 0xFA PUSH2 0x1A9 JUMP JUMPDEST PUSH2 0xDC PUSH2 0x1B8 JUMP JUMPDEST PUSH2 0x10F PUSH2 0x1BE JUMP JUMPDEST PUSH2 0xFA PUSH2 0x1CE JUMP JUMPDEST PUSH2 0xFA PUSH2 0x1DD JUMP JUMPDEST PUSH2 0x14C PUSH2 0x1EC JUMP JUMPDEST STOP JUMPDEST PUSH2 0xDC PUSH2 0x15C CALLDATASIZE PUSH1 0x4 PUSH2 0x572 JUMP JUMPDEST PUSH2 0x240 JUMP JUMPDEST PUSH2 0xFA PUSH2 0x28C JUMP JUMPDEST PUSH2 0x14C PUSH2 0x177 CALLDATASIZE PUSH1 0x4 PUSH2 0x50D JUMP JUMPDEST PUSH2 0x29B JUMP JUMPDEST PUSH2 0x14C PUSH2 0x341 JUMP JUMPDEST PUSH1 0x6 SLOAD DUP2 JUMP JUMPDEST PUSH1 0x1 SLOAD PUSH1 0x1 PUSH1 0x1 PUSH1 0xA0 SHL SUB AND SWAP1 JUMP JUMPDEST PUSH1 0x4 SLOAD PUSH1 0x1 PUSH1 0xA8 SHL SWAP1 DIV PUSH1 0xFF AND SWAP1 JUMP JUMPDEST PUSH1 0x4 SLOAD PUSH1 0x1 PUSH1 0x1 PUSH1 0xA0 SHL SUB AND DUP2 JUMP JUMPDEST PUSH1 0x5 SLOAD DUP2 JUMP JUMPDEST PUSH1 0x4 SLOAD PUSH1 0x1 PUSH1 0xA0 SHL SWAP1 DIV PUSH1 0xFF AND SWAP1 JUMP JUMPDEST PUSH1 0x0 SLOAD PUSH1 0x1 PUSH1 0x1 PUSH1 0xA0 SHL SUB AND SWAP1 JUMP JUMPDEST PUSH1 0x3 SLOAD PUSH1 0x1 PUSH1 0x1 PUSH1 0xA0 SHL SUB AND SWAP1 JUMP JUMPDEST PUSH1 0x3 SLOAD PUSH1 0x1 PUSH1 0x1 PUSH1 0xA0 SHL SUB AND CALLER EQ PUSH2 0x21F JUMPI PUSH1 0x40 MLOAD PUSH3 0x461BCD PUSH1 0xE5 SHL DUP2 MSTORE PUSH1 0x4 ADD PUSH2 0x216 SWAP1 PUSH2 0x638 JUMP JUMPDEST PUSH1 0x40 MLOAD DUP1 SWAP2 SUB SWAP1 REVERT JUMPDEST PUSH1 0x4 DUP1 SLOAD PUSH1 0xFF PUSH1 0xA0 SHL NOT DUP2 AND PUSH1 0x1 PUSH1 0xA0 SHL SWAP2 DUP3 SWAP1 DIV PUSH1 0xFF AND ISZERO SWAP1 SWAP2 MUL OR SWAP1 SSTORE JUMP JUMPDEST PUSH1 0x0 DUP1 PUSH2 0x24C DUP5 PUSH2 0x38C JUMP JUMPDEST SWAP1 POP PUSH1 0x0 PUSH2 0x259 DUP5 PUSH2 0x496 JUMP JUMPDEST SWAP1 POP PUSH1 0xA PUSH2 0x267 DUP3 DUP5 PUSH2 0x698 JUMP JUMPDEST PUSH2 0x271 SWAP2 SWAP1 PUSH2 0x678 JUMP JUMPDEST PUSH2 0x283 SWAP1 PUSH8 0xDE0B6B3A7640000 PUSH2 0x698 JUMP JUMPDEST SWAP6 SWAP5 POP POP POP POP POP JUMP JUMPDEST PUSH1 0x2 SLOAD PUSH1 0x1 PUSH1 0x1 PUSH1 0xA0 SHL SUB AND SWAP1 JUMP JUMPDEST PUSH1 0x3 SLOAD PUSH1 0x1 PUSH1 0x1 PUSH1 0xA0 SHL SUB AND CALLER EQ PUSH2 0x2C5 JUMPI PUSH1 0x40 MLOAD PUSH3 0x461BCD PUSH1 0xE5 SHL DUP2 MSTORE PUSH1 0x4 ADD PUSH2 0x216 SWAP1 PUSH2 0x638 JUMP JUMPDEST PUSH2 0x2D7 DUP3 PUSH8 0xDE0B6B3A7640000 PUSH2 0x4E3 JUMP JUMPDEST PUSH1 0x5 SSTORE PUSH2 0x2EC DUP2 PUSH8 0xDE0B6B3A7640000 PUSH2 0x4E3 JUMP JUMPDEST PUSH1 0x6 SSTORE POP POP PUSH1 0x0 DUP1 SLOAD PUSH1 0x1 PUSH1 0x1 PUSH1 0xA0 SHL SUB SWAP6 DUP7 AND PUSH1 0x1 PUSH1 0x1 PUSH1 0xA0 SHL SUB NOT SWAP2 DUP3 AND OR SWAP1 SWAP2 SSTORE PUSH1 0x1 DUP1 SLOAD SWAP5 DUP7 AND SWAP5 DUP3 AND SWAP5 SWAP1 SWAP5 OR SWAP1 SWAP4 SSTORE PUSH1 0x2 DUP1 SLOAD SWAP3 DUP6 AND SWAP3 DUP5 AND SWAP3 SWAP1 SWAP3 OR SWAP1 SWAP2 SSTORE PUSH1 0x4 DUP1 SLOAD SWAP2 SWAP1 SWAP4 AND SWAP2 AND OR SWAP1 SSTORE JUMP JUMPDEST PUSH1 0x3 SLOAD PUSH1 0x1 PUSH1 0x1 PUSH1 0xA0 SHL SUB AND CALLER EQ PUSH2 0x36B JUMPI PUSH1 0x40 MLOAD PUSH3 0x461BCD PUSH1 0xE5 SHL DUP2 MSTORE PUSH1 0x4 ADD PUSH2 0x216 SWAP1 PUSH2 0x638 JUMP JUMPDEST PUSH1 0x4 DUP1 SLOAD PUSH1 0xFF PUSH1 0xA8 SHL NOT DUP2 AND PUSH1 0x1 PUSH1 0xA8 SHL SWAP2 DUP3 SWAP1 DIV PUSH1 0xFF AND ISZERO SWAP1 SWAP2 MUL OR SWAP1 SSTORE JUMP JUMPDEST DUP1 MLOAD PUSH1 0x20 DUP3 ADD KECCAK256 PUSH1 0x0 SWAP1 PUSH32 0x8C57226533EC41D2857120DF9ACE6DFF88130D9B32385E09C9828F75027730F3 DUP2 EQ PUSH2 0x485 JUMPI PUSH32 0x181EBE3A8FA130246D49BFD123AC54849B05BDCD02C6B1322C78DE2A3988A310 DUP2 EQ PUSH2 0x47C JUMPI PUSH32 0x6764D804D57285AE9D4C42CC380377D3D0EE9B90FF9EECCAA32D3B2E3E8D7F17 DUP2 EQ PUSH2 0x473 JUMPI PUSH32 0xB2C1AAAF9F516585466C9876E2EAF06EE68751AAD537B2A6FA22F473D03B58EB DUP2 EQ PUSH2 0x468 JUMPI PUSH32 0xB5333297A8BD10E190CB97FB1EE0F49587C8B2E015370E943C69FD680DABC6BD DUP2 EQ PUSH2 0x460 JUMPI PUSH1 0x0 PUSH2 0x463 JUMP JUMPDEST PUSH1 0xC8 JUMPDEST PUSH2 0x46B JUMP JUMPDEST PUSH1 0xE1 JUMPDEST PUSH1 0xFF AND PUSH2 0x477 JUMP JUMPDEST PUSH2 0x12C JUMPDEST PUSH2 0x480 JUMP JUMPDEST PUSH2 0x1C2 JUMPDEST PUSH2 0x489 JUMP JUMPDEST PUSH2 0x2A3 JUMPDEST PUSH2 0xFFFF AND SWAP2 POP POP JUMPDEST SWAP2 SWAP1 POP JUMP JUMPDEST PUSH1 0x0 DUP2 PUSH1 0x1 EQ PUSH2 0x4D7 JUMPI DUP2 PUSH1 0x2 EQ PUSH2 0x4CF JUMPI DUP2 PUSH1 0x3 EQ PUSH2 0x4C7 JUMPI DUP2 PUSH1 0x4 EQ PUSH2 0x4BF JUMPI PUSH1 0x0 PUSH2 0x4C2 JUMP JUMPDEST PUSH1 0x50 JUMPDEST PUSH2 0x4CA JUMP JUMPDEST PUSH1 0x2A JUMPDEST PUSH2 0x4D2 JUMP JUMPDEST PUSH1 0x16 JUMPDEST PUSH2 0x4DA JUMP JUMPDEST PUSH1 0xF JUMPDEST PUSH1 0xFF AND SWAP3 SWAP2 POP POP JUMP JUMPDEST PUSH1 0x0 PUSH2 0x4EF DUP3 DUP5 PUSH2 0x698 JUMP JUMPDEST SWAP4 SWAP3 POP POP POP JUMP JUMPDEST DUP1 CALLDATALOAD PUSH1 0x1 PUSH1 0x1 PUSH1 0xA0 SHL SUB DUP2 AND DUP2 EQ PUSH2 0x491 JUMPI PUSH1 0x0 DUP1 REVERT JUMPDEST PUSH1 0x0 DUP1 PUSH1 0x0 DUP1 PUSH1 0x0 DUP1 PUSH1 0xC0 DUP8 DUP10 SUB SLT ISZERO PUSH2 0x525 JUMPI DUP2 DUP3 REVERT JUMPDEST PUSH2 0x52E DUP8 PUSH2 0x4F6 JUMP JUMPDEST SWAP6 POP PUSH2 0x53C PUSH1 0x20 DUP9 ADD PUSH2 0x4F6 JUMP JUMPDEST SWAP5 POP PUSH2 0x54A PUSH1 0x40 DUP9 ADD PUSH2 0x4F6 JUMP JUMPDEST SWAP4 POP PUSH2 0x558 PUSH1 0x60 DUP9 ADD PUSH2 0x4F6 JUMP JUMPDEST SWAP3 POP PUSH1 0x80 DUP8 ADD CALLDATALOAD SWAP2 POP PUSH1 0xA0 DUP8 ADD CALLDATALOAD SWAP1 POP SWAP3 SWAP6 POP SWAP3 SWAP6 POP SWAP3 SWAP6 JUMP JUMPDEST PUSH1 0x0 DUP1 PUSH1 0x40 DUP4 DUP6 SUB SLT ISZERO PUSH2 0x584 JUMPI DUP2 DUP3 REVERT JUMPDEST DUP3 CALLDATALOAD PUSH8 0xFFFFFFFFFFFFFFFF DUP1 DUP3 GT ISZERO PUSH2 0x59B JUMPI DUP4 DUP5 REVERT JUMPDEST DUP2 DUP6 ADD SWAP2 POP DUP6 PUSH1 0x1F DUP4 ADD SLT PUSH2 0x5AE JUMPI DUP4 DUP5 REVERT JUMPDEST DUP2 CALLDATALOAD PUSH1 0x20 DUP3 DUP3 GT ISZERO PUSH2 0x5C2 JUMPI PUSH2 0x5C2 PUSH2 0x6C3 JUMP JUMPDEST PUSH1 0x40 MLOAD PUSH1 0x1F DUP4 ADD PUSH1 0x1F NOT AND DUP2 ADD DUP3 ADD DUP5 DUP2 GT DUP3 DUP3 LT OR ISZERO PUSH2 0x5E5 JUMPI PUSH2 0x5E5 PUSH2 0x6C3 JUMP JUMPDEST PUSH1 0x40 MSTORE DUP3 DUP2 MSTORE DUP5 DUP4 ADD DUP3 ADD DUP10 LT ISZERO PUSH2 0x5FB JUMPI DUP7 DUP8 REVERT JUMPDEST DUP3 DUP3 DUP7 ADD DUP4 DUP4 ADD CALLDATACOPY SWAP2 DUP3 ADD DUP2 ADD SWAP6 SWAP1 SWAP6 MSTORE SWAP7 SWAP5 SWAP1 SWAP4 ADD CALLDATALOAD SWAP5 POP POP POP POP JUMP JUMPDEST PUSH1 0x1 PUSH1 0x1 PUSH1 0xA0 SHL SUB SWAP2 SWAP1 SWAP2 AND DUP2 MSTORE PUSH1 0x20 ADD SWAP1 JUMP JUMPDEST SWAP1 ISZERO ISZERO DUP2 MSTORE PUSH1 0x20 ADD SWAP1 JUMP JUMPDEST PUSH1 0x20 DUP1 DUP3 MSTORE PUSH1 0x1A SWAP1 DUP3 ADD MSTORE PUSH32 0x4865726F436F7265204572726F72203A206F6E6C794F776E6572000000000000 PUSH1 0x40 DUP3 ADD MSTORE PUSH1 0x60 ADD SWAP1 JUMP JUMPDEST SWAP1 DUP2 MSTORE PUSH1 0x20 ADD SWAP1 JUMP JUMPDEST PUSH1 0x0 DUP3 PUSH2 0x693 JUMPI PUSH4 0x4E487B71 PUSH1 0xE0 SHL DUP2 MSTORE PUSH1 0x12 PUSH1 0x4 MSTORE PUSH1 0x24 DUP2 REVERT JUMPDEST POP DIV SWAP1 JUMP JUMPDEST PUSH1 0x0 DUP2 PUSH1 0x0 NOT DIV DUP4 GT DUP3 ISZERO ISZERO AND ISZERO PUSH2 0x6BE JUMPI PUSH4 0x4E487B71 PUSH1 0xE0 SHL DUP2 MSTORE PUSH1 0x11 PUSH1 0x4 MSTORE PUSH1 0x24 DUP2 REVERT JUMPDEST POP MUL SWAP1 JUMP JUMPDEST PUSH4 0x4E487B71 PUSH1 0xE0 SHL PUSH1 0x0 MSTORE PUSH1 0x41 PUSH1 0x4 MSTORE PUSH1 0x24 PUSH1 0x0 REVERT INVALID LOG2 PUSH5 0x6970667358 0x22 SLT KECCAK256 0xD2 0x1F PUSH18 0x2CEA94424417D7009E5B06B0E8272243CB99 0xD0 0x4A 0xC1 PUSH3 0xAAA75 0xCE SELFDESTRUCT JUMPI 0xD9 PUSH5 0x736F6C6343 STOP ADDMOD STOP STOP CALLER "
		},
		"gasEstimates": {
			"creation": {
				"codeDepositCost": "361400",
				"executionCost": "42103",
				"totalCost": "403503"
			},
			"external": {
				"calculateTokenAmount(string,uint256)": "infinite",
				"changeMiningPaused()": "21945",
				"changePaused()": "21924",
				"depositAddress()": "1137",
				"getHeroNFT()": "1093",
				"getItem()": "1114",
				"getMiningPaused()": "1102",
				"getOwner()": "1115",
				"getPaused()": "1168",
				"getToken()": "1093",
				"initialize(address,address,address,address,uint256,uint256)": "infinite",
				"priceOfKlay()": "1117",
				"priceOfToken()": "1029"
			},
			"internal": {
				"calculateBasicGradeAmount(string memory)": "infinite",
				"calculateBasicLevelAmount(uint256)": "167",
				"calculateItemIndex(uint256)": "infinite",
				"calculatePower(string memory,uint256)": "infinite",
				"makeRandomNumberForItem(uint256)": "infinite"
			}
		},
		"methodIdentifiers": {
			"calculateTokenAmount(string,uint256)": "aa93c0ee",
			"changeMiningPaused()": "ee72b8cc",
			"changePaused()": "9eb4eae5",
			"depositAddress()": "28f833b7",
			"getHeroNFT()": "7cac00ee",
			"getItem()": "c412eaba",
			"getMiningPaused()": "28919df6",
			"getOwner()": "893d20e8",
			"getPaused()": "6805b84b",
			"getToken()": "21df0da7",
			"initialize(address,address,address,address,uint256,uint256)": "d7c41c79",
			"priceOfKlay()": "3a1a8080",
			"priceOfToken()": "1b9cbdfb"
		}
	},
	"abi": [
		{
			"inputs": [
				{
					"internalType": "string",
					"name": "grade",
					"type": "string"
				},
				{
					"internalType": "uint256",
					"name": "level",
					"type": "uint256"
				}
			],
			"name": "calculateTokenAmount",
			"outputs": [
				{
					"internalType": "uint256",
					"name": "",
					"type": "uint256"
				}
			],
			"stateMutability": "pure",
			"type": "function"
		},
		{
			"inputs": [],
			"name": "changeMiningPaused",
			"outputs": [],
			"stateMutability": "nonpayable",
			"type": "function"
		},
		{
			"inputs": [],
			"name": "changePaused",
			"outputs": [],
			"stateMutability": "nonpayable",
			"type": "function"
		},
		{
			"inputs": [],
			"name": "depositAddress",
			"outputs": [
				{
					"internalType": "address",
					"name": "",
					"type": "address"
				}
			],
			"stateMutability": "view",
			"type": "function"
		},
		{
			"inputs": [],
			"name": "getHeroNFT",
			"outputs": [
				{
					"internalType": "contract IHeroNFT",
					"name": "",
					"type": "address"
				}
			],
			"stateMutability": "view",
			"type": "function"
		},
		{
			"inputs": [],
			"name": "getItem",
			"outputs": [
				{
					"internalType": "contract IKIP37Full",
					"name": "",
					"type": "address"
				}
			],
			"stateMutability": "view",
			"type": "function"
		},
		{
			"inputs": [],
			"name": "getMiningPaused",
			"outputs": [
				{
					"internalType": "bool",
					"name": "",
					"type": "bool"
				}
			],
			"stateMutability": "view",
			"type": "function"
		},
		{
			"inputs": [],
			"name": "getOwner",
			"outputs": [
				{
					"internalType": "address payable",
					"name": "",
					"type": "address"
				}
			],
			"stateMutability": "view",
			"type": "function"
		},
		{
			"inputs": [],
			"name": "getPaused",
			"outputs": [
				{
					"internalType": "bool",
					"name": "",
					"type": "bool"
				}
			],
			"stateMutability": "view",
			"type": "function"
		},
		{
			"inputs": [],
			"name": "getToken",
			"outputs": [
				{
					"internalType": "contract IKIP7",
					"name": "",
					"type": "address"
				}
			],
			"stateMutability": "view",
			"type": "function"
		},
		{
			"inputs": [
				{
					"internalType": "address",
					"name": "_heroNFT",
					"type": "address"
				},
				{
					"internalType": "address",
					"name": "_token",
					"type": "address"
				},
				{
					"internalType": "address",
					"name": "_item",
					"type": "address"
				},
				{
					"internalType": "address",
					"name": "_depositAddress",
					"type": "address"
				},
				{
					"internalType": "uint256",
					"name": "_klay",
					"type": "uint256"
				},
				{
					"internalType": "uint256",
					"name": "_tokenPrice",
					"type": "uint256"
				}
			],
			"name": "initialize",
			"outputs": [],
			"stateMutability": "nonpayable",
			"type": "function"
		},
		{
			"inputs": [],
			"name": "priceOfKlay",
			"outputs": [
				{
					"internalType": "uint256",
					"name": "",
					"type": "uint256"
				}
			],
			"stateMutability": "view",
			"type": "function"
		},
		{
			"inputs": [],
			"name": "priceOfToken",
			"outputs": [
				{
					"internalType": "uint256",
					"name": "",
					"type": "uint256"
				}
			],
			"stateMutability": "view",
			"type": "function"
		}
	]
}