{
	"data": {
		"bytecode": {
			"linkReferences": {},
			"object": "608060405234801561001057600080fd5b50610341806100206000396000f3fe608060405234801561001057600080fd5b506004361061002b5760003560e01c8063aa93c0ee14610030575b600080fd5b61004361003e3660046101fa565b610059565b60405161005091906102a1565b60405180910390f35b600080610065846100a5565b90506000610072846101ad565b9050600a61008082846102ca565b61008a91906102aa565b61009c90670de0b6b3a76400006102ca565b95945050505050565b805160208201206000907f8c57226533ec41d2857120df9ace6dff88130d9b32385e09c9828f75027730f3811461019e577f181ebe3a8fa130246d49bfd123ac54849b05bdcd02c6b1322c78de2a3988a3108114610195577f6764d804d57285ae9d4c42cc380377d3d0ee9b90ff9eeccaa32d3b2e3e8d7f17811461018c577fb2c1aaaf9f516585466c9876e2eaf06ee68751aad537b2a6fa22f473d03b58eb8114610181577fb5333297a8bd10e190cb97fb1ee0f49587c8b2e015370e943c69fd680dabc6bd811461017957600061017c565b60c85b610184565b60e15b60ff16610190565b61012c5b610199565b6101c25b6101a2565b6102a35b61ffff169392505050565b6000816001146101ee57816002146101e657816003146101de57816004146101d65760006101d9565b60505b6101e1565b602a5b6101e9565b60165b6101f1565b600f5b60ff1692915050565b6000806040838503121561020c578182fd5b823567ffffffffffffffff80821115610223578384fd5b818501915085601f830112610236578384fd5b813560208282111561024a5761024a6102f5565b604051601f8301601f191681018201848111828210171561026d5761026d6102f5565b6040528281528483018201891015610283578687fd5b82828601838301379182018101959095529694909301359450505050565b90815260200190565b6000826102c557634e487b7160e01b81526012600452602481fd5b500490565b60008160001904831182151516156102f057634e487b7160e01b81526011600452602481fd5b500290565b634e487b7160e01b600052604160045260246000fdfea264697066735822122020874c7b341b0835d08c409938f7fcdcd11de120365c2523102d54cd0e5d5b6f64736f6c63430008000033",
			"opcodes": "PUSH1 0x80 PUSH1 0x40 MSTORE CALLVALUE DUP1 ISZERO PUSH2 0x10 JUMPI PUSH1 0x0 DUP1 REVERT JUMPDEST POP PUSH2 0x341 DUP1 PUSH2 0x20 PUSH1 0x0 CODECOPY PUSH1 0x0 RETURN INVALID PUSH1 0x80 PUSH1 0x40 MSTORE CALLVALUE DUP1 ISZERO PUSH2 0x10 JUMPI PUSH1 0x0 DUP1 REVERT JUMPDEST POP PUSH1 0x4 CALLDATASIZE LT PUSH2 0x2B JUMPI PUSH1 0x0 CALLDATALOAD PUSH1 0xE0 SHR DUP1 PUSH4 0xAA93C0EE EQ PUSH2 0x30 JUMPI JUMPDEST PUSH1 0x0 DUP1 REVERT JUMPDEST PUSH2 0x43 PUSH2 0x3E CALLDATASIZE PUSH1 0x4 PUSH2 0x1FA JUMP JUMPDEST PUSH2 0x59 JUMP JUMPDEST PUSH1 0x40 MLOAD PUSH2 0x50 SWAP2 SWAP1 PUSH2 0x2A1 JUMP JUMPDEST PUSH1 0x40 MLOAD DUP1 SWAP2 SUB SWAP1 RETURN JUMPDEST PUSH1 0x0 DUP1 PUSH2 0x65 DUP5 PUSH2 0xA5 JUMP JUMPDEST SWAP1 POP PUSH1 0x0 PUSH2 0x72 DUP5 PUSH2 0x1AD JUMP JUMPDEST SWAP1 POP PUSH1 0xA PUSH2 0x80 DUP3 DUP5 PUSH2 0x2CA JUMP JUMPDEST PUSH2 0x8A SWAP2 SWAP1 PUSH2 0x2AA JUMP JUMPDEST PUSH2 0x9C SWAP1 PUSH8 0xDE0B6B3A7640000 PUSH2 0x2CA JUMP JUMPDEST SWAP6 SWAP5 POP POP POP POP POP JUMP JUMPDEST DUP1 MLOAD PUSH1 0x20 DUP3 ADD KECCAK256 PUSH1 0x0 SWAP1 PUSH32 0x8C57226533EC41D2857120DF9ACE6DFF88130D9B32385E09C9828F75027730F3 DUP2 EQ PUSH2 0x19E JUMPI PUSH32 0x181EBE3A8FA130246D49BFD123AC54849B05BDCD02C6B1322C78DE2A3988A310 DUP2 EQ PUSH2 0x195 JUMPI PUSH32 0x6764D804D57285AE9D4C42CC380377D3D0EE9B90FF9EECCAA32D3B2E3E8D7F17 DUP2 EQ PUSH2 0x18C JUMPI PUSH32 0xB2C1AAAF9F516585466C9876E2EAF06EE68751AAD537B2A6FA22F473D03B58EB DUP2 EQ PUSH2 0x181 JUMPI PUSH32 0xB5333297A8BD10E190CB97FB1EE0F49587C8B2E015370E943C69FD680DABC6BD DUP2 EQ PUSH2 0x179 JUMPI PUSH1 0x0 PUSH2 0x17C JUMP JUMPDEST PUSH1 0xC8 JUMPDEST PUSH2 0x184 JUMP JUMPDEST PUSH1 0xE1 JUMPDEST PUSH1 0xFF AND PUSH2 0x190 JUMP JUMPDEST PUSH2 0x12C JUMPDEST PUSH2 0x199 JUMP JUMPDEST PUSH2 0x1C2 JUMPDEST PUSH2 0x1A2 JUMP JUMPDEST PUSH2 0x2A3 JUMPDEST PUSH2 0xFFFF AND SWAP4 SWAP3 POP POP POP JUMP JUMPDEST PUSH1 0x0 DUP2 PUSH1 0x1 EQ PUSH2 0x1EE JUMPI DUP2 PUSH1 0x2 EQ PUSH2 0x1E6 JUMPI DUP2 PUSH1 0x3 EQ PUSH2 0x1DE JUMPI DUP2 PUSH1 0x4 EQ PUSH2 0x1D6 JUMPI PUSH1 0x0 PUSH2 0x1D9 JUMP JUMPDEST PUSH1 0x50 JUMPDEST PUSH2 0x1E1 JUMP JUMPDEST PUSH1 0x2A JUMPDEST PUSH2 0x1E9 JUMP JUMPDEST PUSH1 0x16 JUMPDEST PUSH2 0x1F1 JUMP JUMPDEST PUSH1 0xF JUMPDEST PUSH1 0xFF AND SWAP3 SWAP2 POP POP JUMP JUMPDEST PUSH1 0x0 DUP1 PUSH1 0x40 DUP4 DUP6 SUB SLT ISZERO PUSH2 0x20C JUMPI DUP2 DUP3 REVERT JUMPDEST DUP3 CALLDATALOAD PUSH8 0xFFFFFFFFFFFFFFFF DUP1 DUP3 GT ISZERO PUSH2 0x223 JUMPI DUP4 DUP5 REVERT JUMPDEST DUP2 DUP6 ADD SWAP2 POP DUP6 PUSH1 0x1F DUP4 ADD SLT PUSH2 0x236 JUMPI DUP4 DUP5 REVERT JUMPDEST DUP2 CALLDATALOAD PUSH1 0x20 DUP3 DUP3 GT ISZERO PUSH2 0x24A JUMPI PUSH2 0x24A PUSH2 0x2F5 JUMP JUMPDEST PUSH1 0x40 MLOAD PUSH1 0x1F DUP4 ADD PUSH1 0x1F NOT AND DUP2 ADD DUP3 ADD DUP5 DUP2 GT DUP3 DUP3 LT OR ISZERO PUSH2 0x26D JUMPI PUSH2 0x26D PUSH2 0x2F5 JUMP JUMPDEST PUSH1 0x40 MSTORE DUP3 DUP2 MSTORE DUP5 DUP4 ADD DUP3 ADD DUP10 LT ISZERO PUSH2 0x283 JUMPI DUP7 DUP8 REVERT JUMPDEST DUP3 DUP3 DUP7 ADD DUP4 DUP4 ADD CALLDATACOPY SWAP2 DUP3 ADD DUP2 ADD SWAP6 SWAP1 SWAP6 MSTORE SWAP7 SWAP5 SWAP1 SWAP4 ADD CALLDATALOAD SWAP5 POP POP POP POP JUMP JUMPDEST SWAP1 DUP2 MSTORE PUSH1 0x20 ADD SWAP1 JUMP JUMPDEST PUSH1 0x0 DUP3 PUSH2 0x2C5 JUMPI PUSH4 0x4E487B71 PUSH1 0xE0 SHL DUP2 MSTORE PUSH1 0x12 PUSH1 0x4 MSTORE PUSH1 0x24 DUP2 REVERT JUMPDEST POP DIV SWAP1 JUMP JUMPDEST PUSH1 0x0 DUP2 PUSH1 0x0 NOT DIV DUP4 GT DUP3 ISZERO ISZERO AND ISZERO PUSH2 0x2F0 JUMPI PUSH4 0x4E487B71 PUSH1 0xE0 SHL DUP2 MSTORE PUSH1 0x11 PUSH1 0x4 MSTORE PUSH1 0x24 DUP2 REVERT JUMPDEST POP MUL SWAP1 JUMP JUMPDEST PUSH4 0x4E487B71 PUSH1 0xE0 SHL PUSH1 0x0 MSTORE PUSH1 0x41 PUSH1 0x4 MSTORE PUSH1 0x24 PUSH1 0x0 REVERT INVALID LOG2 PUSH5 0x6970667358 0x22 SLT KECCAK256 KECCAK256 DUP8 0x4C PUSH28 0x341B0835D08C409938F7FCDCD11DE120365C2523102D54CD0E5D5B6F PUSH5 0x736F6C6343 STOP ADDMOD STOP STOP CALLER "
		},
		"gasEstimates": {
			"creation": {
				"codeDepositCost": "166600",
				"executionCost": "214",
				"totalCost": "166814"
			},
			"external": {
				"calculateTokenAmount(string,uint256)": "infinite"
			},
			"internal": {
				"calculateBasicGradeAmount(string memory)": "infinite",
				"calculateBasicLevelAmount(uint256)": "167",
				"calculatePower(string memory,uint256)": "infinite"
			}
		},
		"methodIdentifiers": {
			"calculateTokenAmount(string,uint256)": "aa93c0ee"
		}
	},
	"abi": [
		{
			"inputs": [
				{
					"internalType": "string",
					"name": "grade",
					"type": "string"
				},
				{
					"internalType": "uint256",
					"name": "level",
					"type": "uint256"
				}
			],
			"name": "calculateTokenAmount",
			"outputs": [
				{
					"internalType": "uint256",
					"name": "",
					"type": "uint256"
				}
			],
			"stateMutability": "pure",
			"type": "function"
		}
	]
}