{
	"data": {
		"bytecode": {
			"linkReferences": {},
			"object": "60806040523480156200001157600080fd5b506005805460ff60a81b1960ff60a01b19909116600160a01b1716600160a81b178155600480546001600160a01b0319163317905560088054600181810183557ff3f7a9fe364faab93b216da50a3214154f22a0a2b415b23a84c8169e8b636ee39182018190558254808201845582019390935581548084018355600e9082015581548084018355601e9082015581548084019092556032910155600980549182018155600081905260408051808201909152818152684d7974686f6c6f677960b81b602091909101908152620000fa9260008051602062004729833981519152019162000247565b5060098054600181018255600082905260408051808201909152828152684c6567656e6461727960b81b60209091019081526200014b92600080516020620047298339815191529092019162000247565b5060098054600181018255600091909152604080518082019091526004808252634570696360e01b602090920191825262000199926000805160206200472983398151915201919062000247565b506009805460018101825560009190915260408051808201909152600d8082526c20b236b4b734b9ba3930ba37b960991b6020909201918252620001f0926000805160206200472983398151915201919062000247565b506009805460018101825560009190915260408051808201909152600680825265139bdc9b585b60d21b602090920191825262000240926000805160206200472983398151915201919062000247565b506200032a565b8280546200025590620002ed565b90600052602060002090601f016020900481019282620002795760008555620002c4565b82601f106200029457805160ff1916838001178555620002c4565b82800160010185558215620002c4579182015b82811115620002c4578251825591602001919060010190620002a7565b50620002d2929150620002d6565b5090565b5b80821115620002d25760008155600101620002d7565b6002810460018216806200030257607f821691505b602082108114156200032457634e487b7160e01b600052602260045260246000fd5b50919050565b6143ef806200033a6000396000f3fe6080604052600436106101ee5760003560e01c8063727da60a1161010d578063aa93c0ee116100a0578063cd7308d61161006f578063cd7308d6146104f3578063d7c41c7914610513578063d7dd41f214610533578063eb60046514610553578063ee72b8cc14610573576101ee565b8063aa93c0ee14610494578063ad74a212146104b4578063c21bae0c146104c9578063c412eaba146104de576101ee565b8063893d20e8116100dc578063893d20e8146104355780639eb4eae51461044a578063a694fc3a1461045f578063a8469ce91461047f576101ee565b8063727da60a146103c05780637cac00ee146103e057806380d953dd146103f557806383a1d7e514610415576101ee565b80632a47a9451161018557806342966c681161015457806342966c681461034b5780635d3eea911461036b5780636805b84b1461038b5780636f7c8c06146103a0576101ee565b80632a47a945146102e15780633015394c1461030157806332590c5c146103215780633a1a808014610336576101ee565b80631b9cbdfb116101c15780631b9cbdfb1461027357806321df0da71461028857806328919df6146102aa57806328f833b7146102cc576101ee565b80630ae2fe5c146101f35780630ce90ec214610215578063173489eb1461023557806317a135221461023d575b600080fd5b3480156101ff57600080fd5b5061021361020e366004613b34565b610588565b005b34801561022157600080fd5b50610213610230366004613ad5565b61083e565b610213610b60565b34801561024957600080fd5b5061025d610258366004613ad5565b610c79565b60405161026a919061428d565b60405180910390f35b34801561027f57600080fd5b5061025d610f37565b34801561029457600080fd5b5061029d610f3d565b60405161026a9190613b6b565b3480156102b657600080fd5b506102bf610f4c565b60405161026a9190613bdd565b3480156102d857600080fd5b5061029d610f5c565b3480156102ed57600080fd5b506102136102fc366004613ad5565b610f6b565b34801561030d57600080fd5b5061021361031c366004613ad5565b611164565b34801561032d57600080fd5b5061025d6115f9565b34801561034257600080fd5b5061025d611600565b34801561035757600080fd5b50610213610366366004613ad5565b611606565b34801561037757600080fd5b50610213610386366004613ad5565b611667565b34801561039757600080fd5b506102bf6118ca565b3480156103ac57600080fd5b506102136103bb366004613ad5565b6118da565b3480156103cc57600080fd5b506102136103db366004613ad5565b611a57565b3480156103ec57600080fd5b5061029d611bec565b34801561040157600080fd5b50610213610410366004613ad5565b611bfb565b34801561042157600080fd5b50610213610430366004613ad5565b611d93565b34801561044157600080fd5b5061029d611e03565b34801561045657600080fd5b50610213611e12565b34801561046b57600080fd5b5061021361047a366004613ad5565b611e5d565b34801561048b57600080fd5b5061025d611f9d565b3480156104a057600080fd5b5061025d6104af366004613a2e565b611fab565b3480156104c057600080fd5b5061025d611ff9565b3480156104d557600080fd5b5061025d61200c565b3480156104ea57600080fd5b5061029d612012565b3480156104ff57600080fd5b5061021361050e366004613ad5565b612021565b34801561051f57600080fd5b5061021361052e3660046139a1565b612301565b34801561053f57600080fd5b5061021361054e366004613ad5565b6123a7565b34801561055f57600080fd5b5061021361056e366004613b05565b6124d3565b34801561057f57600080fd5b50610213612682565b816000610593611bec565b6001600160a01b0316636352211e836040518263ffffffff1660e01b81526004016105be919061428d565b60206040518083038186803b1580156105d657600080fd5b505afa1580156105ea573d6000803e3d6000fd5b505050506040513d601f19601f8201168201806040525081019061060e9190613985565b90506001600160a01b03811630146106415760405162461bcd60e51b815260040161063890614163565b60405180910390fd5b6000848152600b60205260409020600481015460ff16156106745760405162461bcd60e51b815260040161063890613ea9565b336000908152600e6020526040902054156106a15760405162461bcd60e51b815260040161063890614214565b6000858152600d6020908152604080832081518083018352338082528185018a81528354600180820186559488528688209351600290910290930180546001600160a01b0319166001600160a01b039094169390931783555191909201558352600e909152812086905561071c8566038d7ea4c680006126cd565b9050610726610f3d565b6001600160a01b03166323b872dd3330846040518463ffffffff1660e01b815260040161075593929190613b98565b602060405180830381600087803b15801561076f57600080fd5b505af1158015610783573d6000803e3d6000fd5b505050506040513d601f19601f820116820180604052508101906107a79190613a0e565b506107b0610f3d565b60055460405163a9059cbb60e01b81526001600160a01b039283169263a9059cbb926107e3929116908590600401613b7f565b602060405180830381600087803b1580156107fd57600080fd5b505af1158015610811573d6000803e3d6000fd5b505050506040513d601f19601f820116820180604052508101906108359190613a0e565b50505050505050565b806000610849611bec565b6001600160a01b0316636352211e836040518263ffffffff1660e01b8152600401610874919061428d565b60206040518083038186803b15801561088c57600080fd5b505afa1580156108a0573d6000803e3d6000fd5b505050506040513d601f19601f820116820180604052508101906108c49190613985565b90506001600160a01b03811630146108ee5760405162461bcd60e51b815260040161063890614163565b6000838152600b602052604090206004810154630100000090046001600160a01b0316331461092f5760405162461bcd60e51b815260040161063890614028565b8054600581106109515760405162461bcd60e51b815260040161063890614258565b60006109e9836001018054610965906142f8565b80601f0160208091040260200160405190810160405280929190818152602001828054610991906142f8565b80156109de5780601f106109b3576101008083540402835291602001916109de565b820191906000526020600020905b8154815290600101906020018083116109c157829003601f168201915b505050505083611fab565b9050806109f4610f3d565b6001600160a01b03166370a08231336040518263ffffffff1660e01b8152600401610a1f9190613b6b565b60206040518083038186803b158015610a3757600080fd5b505afa158015610a4b573d6000803e3d6000fd5b505050506040513d601f19601f82011682018060405250810190610a6f9190613aed565b1015610a8d5760405162461bcd60e51b815260040161063890613f3e565b610a988260016126e0565b8355610aa2610f3d565b6001600160a01b03166323b872dd3330846040518463ffffffff1660e01b8152600401610ad193929190613b98565b602060405180830381600087803b158015610aeb57600080fd5b505af1158015610aff573d6000803e3d6000fd5b505050506040513d601f19601f82011682018060405250810190610b239190613a0e565b50610b2c610f3d565b6001600160a01b031663a9059cbb610b42611e03565b836040518363ffffffff1660e01b81526004016107e3929190613b7f565b336000908152600a6020526040812054600654349290610b819084906126ec565b905060038210610ba35760405162461bcd60e51b815260040161063890613dcf565b82610bc05760405162461bcd60e51b815260040161063890614134565b600654831015610be25760405162461bcd60e51b815260040161063890613ca0565b610bed8260016126e0565b336000908152600a6020526040902055610c056126f8565b610c0d611e03565b6001600160a01b03166108fc849081150290604051600060405180830381858888f19350505050158015610c45573d6000803e3d6000fd5b50604051339082156108fc029083906000818181858888f19350505050158015610c73573d6000803e3d6000fd5b50505050565b6000816000610c86611bec565b6001600160a01b0316636352211e836040518263ffffffff1660e01b8152600401610cb1919061428d565b60206040518083038186803b158015610cc957600080fd5b505afa158015610cdd573d6000803e3d6000fd5b505050506040513d601f19601f82011682018060405250810190610d019190613985565b90506001600160a01b0381163014610d2b5760405162461bcd60e51b815260040161063890614163565b6000600b60008681526020019081526020016000206040518060a001604052908160008201548152602001600182018054610d65906142f8565b80601f0160208091040260200160405190810160405280929190818152602001828054610d91906142f8565b8015610dde5780601f10610db357610100808354040283529160200191610dde565b820191906000526020600020905b815481529060010190602001808311610dc157829003601f168201915b505050918352505060028201546020808301919091526003830154604080840191909152805160c081018252600485015460ff8082161515835261010082048116151583860152620100008204161515828401526001600160a01b0363010000009091048116606083810191909152835180850185526005880154831681526006880154818701526080840152835180850190945260078701548452600890960154169282019290925260a08201529101529050610e9a610f4c565b610f29576000610eac6000600161295f565b90506000610ec4600c54610ebe612d2b565b906126ec565b90506000610ee982610ee3691a784379d99db4200000622819a0612d2f565b906126cd565b90506000610ef889600061295f565b90506000610f0a82610ee38588612d2f565b6060870151909150610f1c90826126e0565b9850505050505050610f30565b6060015192505b5050919050565b60075481565b6002546001600160a01b031690565b600554600160a81b900460ff1690565b6005546001600160a01b031681565b806000610f76611bec565b6001600160a01b0316636352211e836040518263ffffffff1660e01b8152600401610fa1919061428d565b60206040518083038186803b158015610fb957600080fd5b505afa158015610fcd573d6000803e3d6000fd5b505050506040513d601f19601f82011682018060405250810190610ff19190613985565b90506001600160a01b038116301461101b5760405162461bcd60e51b815260040161063890614163565b6000838152600b6020526040812090611032612d2b565b905060006110438262093a806126e0565b6004840154909150610100900460ff16156110705760405162461bcd60e51b8152600401610638906140c6565b600483015462010000900460ff161561109b5760405162461bcd60e51b8152600401610638906140c6565b600483015460ff16156110fd5760078301548111156110cc5760405162461bcd60e51b815260040161063890613cd7565b60088301546001600160a01b031633146110f85760405162461bcd60e51b81526004016106389061419a565b611130565b6004830154630100000090046001600160a01b031633146111305760405162461bcd60e51b8152600401610638906141dd565b60048301805461ff0019166101001790556005830180546001600160a01b0319163317905560069092019190915550505050565b80600061116f611bec565b6001600160a01b0316636352211e836040518263ffffffff1660e01b815260040161119a919061428d565b60206040518083038186803b1580156111b257600080fd5b505afa1580156111c6573d6000803e3d6000fd5b505050506040513d601f19601f820116820180604052508101906111ea9190613985565b90506001600160a01b03811630146112145760405162461bcd60e51b815260040161063890614163565b336000908152600e60205260409020546112405760405162461bcd60e51b81526004016106389061408f565b336000908152600e60209081526040808320839055858352600d9091528120905b81548110156115f257336001600160a01b031682828154811061129457634e487b7160e01b600052603260045260246000fd5b60009182526020909120600290910201546001600160a01b031614156115e0578181815481106112d457634e487b7160e01b600052603260045260246000fd5b60009182526020822060029091020180546001600160a01b0319168155600190810191909155825414806113145750815481906113129060016126ec565b145b15611365578180548061133757634e487b7160e01b600052603160045260246000fd5b60008281526020812060026000199093019283020180546001600160a01b0319168155600101559055611473565b815460009083906113779060016126ec565b8154811061139557634e487b7160e01b600052603260045260246000fd5b60009182526020918290206040805180820190915260029092020180546001600160a01b031682526001015491810191909152835490915081908490849081106113ef57634e487b7160e01b600052603260045260246000fd5b600091825260209182902083516002929092020180546001600160a01b0319166001600160a01b03909216919091178155910151600190910155825483908061144857634e487b7160e01b600052603160045260246000fd5b60008281526020812060026000199093019283020180546001600160a01b0319168155600101559055505b60006114c066038d7ea4c680008484815481106114a057634e487b7160e01b600052603260045260246000fd5b9060005260206000209060020201600101546126cd90919063ffffffff16565b90506114ca610f3d565b6005546040516323b872dd60e01b81526001600160a01b03928316926323b872dd926114ff9291169030908690600401613b98565b602060405180830381600087803b15801561151957600080fd5b505af115801561152d573d6000803e3d6000fd5b505050506040513d601f19601f820116820180604052508101906115519190613a0e565b5061155a610f3d565b6001600160a01b031663a9059cbb33836040518363ffffffff1660e01b8152600401611587929190613b7f565b602060405180830381600087803b1580156115a157600080fd5b505af11580156115b5573d6000803e3d6000fd5b505050506040513d601f19601f820116820180604052508101906115d99190613a0e565b50506115f2565b806115ea81614333565b915050611261565b5050505050565b622819a081565b60065481565b61160e611bec565b6001600160a01b03166342966c68826040518263ffffffff1660e01b8152600401611639919061428d565b600060405180830381600087803b15801561165357600080fd5b505af11580156115f2573d6000803e3d6000fd5b806000611672611bec565b6001600160a01b0316636352211e836040518263ffffffff1660e01b815260040161169d919061428d565b60206040518083038186803b1580156116b557600080fd5b505afa1580156116c9573d6000803e3d6000fd5b505050506040513d601f19601f820116820180604052508101906116ed9190613985565b90506001600160a01b03811630146117175760405162461bcd60e51b815260040161063890614163565b6000838152600b60205260409020600481015460ff161561174a5760405162461bcd60e51b815260040161063890613e3b565b6004810154610100900460ff16156117745760405162461bcd60e51b815260040161063890613f75565b600481015462010000900460ff161561179f5760405162461bcd60e51b8152600401610638906140fd565b6117a7612d3b565b6003810180546004830180546301000000600160b81b031916905560009091556117cf612d2b565b600c556117da610f3d565b6001600160a01b031663a9059cbb33836040518363ffffffff1660e01b8152600401611807929190613b7f565b602060405180830381600087803b15801561182157600080fd5b505af1158015611835573d6000803e3d6000fd5b505050506040513d601f19601f820116820180604052508101906118599190613a0e565b50611862611bec565b6001600160a01b03166323b872dd3033886040518463ffffffff1660e01b815260040161189193929190613b98565b600060405180830381600087803b1580156118ab57600080fd5b505af11580156118bf573d6000803e3d6000fd5b505050505050505050565b600554600160a01b900460ff1690565b8060006118e5611bec565b6001600160a01b0316636352211e836040518263ffffffff1660e01b8152600401611910919061428d565b60206040518083038186803b15801561192857600080fd5b505afa15801561193c573d6000803e3d6000fd5b505050506040513d601f19601f820116820180604052508101906119609190613985565b90506001600160a01b038116301461198a5760405162461bcd60e51b815260040161063890614163565b6000838152600b60205260408120906119a1612d2b565b600483015490915062010000900460ff16156119cf5760405162461bcd60e51b815260040161063890614058565b60088201546001600160a01b03163314156119e9576115f2565b6004820154630100000090046001600160a01b03163314611a1c5760405162461bcd60e51b815260040161063890613d61565b6007820154811015611a2d57600080fd5b5060048101805460ff191690556000600782015560080180546001600160a01b0319169055505050565b806000611a62611bec565b6001600160a01b0316636352211e836040518263ffffffff1660e01b8152600401611a8d919061428d565b60206040518083038186803b158015611aa557600080fd5b505afa158015611ab9573d6000803e3d6000fd5b505050506040513d601f19601f82011682018060405250810190611add9190613985565b90506001600160a01b0381163014611b075760405162461bcd60e51b815260040161063890614163565b6000838152600b60205260409020611b1d612d3b565b6003810180546000909155600482015462010000900460ff16611b525760405162461bcd60e51b815260040161063890613d2a565b611b5a612d2b565b600c55611b65610f3d565b6001600160a01b031663a9059cbb33836040518363ffffffff1660e01b8152600401611b92929190613b7f565b602060405180830381600087803b158015611bac57600080fd5b505af1158015611bc0573d6000803e3d6000fd5b505050506040513d601f19601f82011682018060405250810190611be49190613a0e565b505050505050565b6001546001600160a01b031690565b6007548190811015611c1f5760405162461bcd60e51b815260040161063890613be8565b611c27610f3d565b6001600160a01b03166323b872dd3330846040518463ffffffff1660e01b8152600401611c5693929190613b98565b602060405180830381600087803b158015611c7057600080fd5b505af1158015611c84573d6000803e3d6000fd5b505050506040513d601f19601f82011682018060405250810190611ca89190613a0e565b50600754811115611d5d576000611cca600754836126ec90919063ffffffff16565b9050611cd4610f3d565b6001600160a01b031663a9059cbb611cea611e03565b836040518363ffffffff1660e01b8152600401611d08929190613b7f565b602060405180830381600087803b158015611d2257600080fd5b505af1158015611d36573d6000803e3d6000fd5b505050506040513d601f19601f82011682018060405250810190611d5a9190613a0e565b50505b336000908152602081905260409020611d794262093a806126e0565b815460018101835560009283526020909220909101555050565b336000908152602081905260408120805483908110611dc257634e487b7160e01b600052603260045260246000fd5b90600052602060002001549050428111611dee5760405162461bcd60e51b815260040161063890613e04565b611df782612e6b565b611dff6126f8565b5050565b6004546001600160a01b031690565b6004546001600160a01b03163314611e3c5760405162461bcd60e51b815260040161063890613d98565b6005805460ff60a01b198116600160a01b9182900460ff1615909102179055565b6000611e67611bec565b6001600160a01b0316636352211e836040518263ffffffff1660e01b8152600401611e92919061428d565b60206040518083038186803b158015611eaa57600080fd5b505afa158015611ebe573d6000803e3d6000fd5b505050506040513d601f19601f82011682018060405250810190611ee29190613985565b6000838152600b602052604090209091506001600160a01b0382163314611f1b5760405162461bcd60e51b815260040161063890613d61565b6004810180546301000000600160b81b03191633630100000002179055611f40611bec565b6001600160a01b03166323b872dd3330866040518463ffffffff1660e01b8152600401611f6f93929190613b98565b600060405180830381600087803b158015611f8957600080fd5b505af1158015610835573d6000803e3d6000fd5b691a784379d99db420000081565b600080611fb784612f93565b90506000611fc48461309d565b9050600a611fd282846142c2565b611fdc91906142ae565b611fee90670de0b6b3a76400006142c2565b925050505b92915050565b336000908152600a602052604090205490565b600c5481565b6003546001600160a01b031690565b80600061202c611bec565b6001600160a01b0316636352211e836040518263ffffffff1660e01b8152600401612057919061428d565b60206040518083038186803b15801561206f57600080fd5b505afa158015612083573d6000803e3d6000fd5b505050506040513d601f19601f820116820180604052508101906120a79190613985565b90506001600160a01b03811630146120d15760405162461bcd60e51b815260040161063890614163565b6000838152600b60205260408120906120e8612d2b565b6004830154909150610100900460ff166121145760405162461bcd60e51b8152600401610638906140c6565b60068201548110156121385760405162461bcd60e51b815260040161063890613c32565b600582015460048301546001600160a01b039182169133630100000090920416148061216c5750336001600160a01b038216145b6121885760405162461bcd60e51b815260040161063890613fac565b60078301546000908311156121d4575060048301805460ff191690819055600060078501556008840180546001600160a01b0319169055630100000090046001600160a01b03166121d7565b50805b60048401805461ff00191690556005840180546001600160a01b0319169055600060068501819055612209888261295f565b90506000612216826130ea565b9050600181101561228c57612229612012565b6001600160a01b031663156e29f6846001806040518463ffffffff1660e01b815260040161225993929190613bbc565b600060405180830381600087803b15801561227357600080fd5b505af1158015612287573d6000803e3d6000fd5b505050505b612294612012565b6001600160a01b031663156e29f6848360016040518463ffffffff1660e01b81526004016122c493929190613bbc565b600060405180830381600087803b1580156122de57600080fd5b505af11580156122f2573d6000803e3d6000fd5b50505050505050505050505050565b6004546001600160a01b0316331461232b5760405162461bcd60e51b815260040161063890613d98565b61233d82670de0b6b3a76400006126cd565b60065561235281670de0b6b3a76400006126cd565b6007555050600180546001600160a01b039586166001600160a01b0319918216179091556002805494861694821694909417909355600380549285169284169290921790915560058054919093169116179055565b8060006123b2611bec565b6001600160a01b0316636352211e836040518263ffffffff1660e01b81526004016123dd919061428d565b60206040518083038186803b1580156123f557600080fd5b505afa158015612409573d6000803e3d6000fd5b505050506040513d601f19601f8201168201806040525081019061242d9190613985565b90506001600160a01b03811630146124575760405162461bcd60e51b815260040161063890614163565b6000838152600b60205260409020600481015460ff161561248a5760405162461bcd60e51b815260040161063890613e72565b6004810154610100900460ff16156124b45760405162461bcd60e51b815260040161063890613ff1565b6124bc612d3b565b600401805462ff0000191662010000179055505050565b8160006124de611bec565b6001600160a01b0316636352211e836040518263ffffffff1660e01b8152600401612509919061428d565b60206040518083038186803b15801561252157600080fd5b505afa158015612535573d6000803e3d6000fd5b505050506040513d601f19601f820116820180604052508101906125599190613985565b90506001600160a01b03811630146125835760405162461bcd60e51b815260040161063890614163565b6000848152600b602052604081209061259a612d2b565b600483015490915062010000900460ff16156125c85760405162461bcd60e51b815260040161063890614058565b6004820154630100000090046001600160a01b031633146125fb5760405162461bcd60e51b815260040161063890613c69565b6000806126088888613140565b91509150816126295760405162461bcd60e51b815260040161063890613eed565b602081015161263789613295565b60048501805460ff1916600117905561265084826126e0565b60078601555051600890930180546001600160a01b0319166001600160a01b0390941693909317909255505050505050565b6004546001600160a01b031633146126ac5760405162461bcd60e51b815260040161063890613d98565b6005805460ff60a81b198116600160a81b9182900460ff1615909102179055565b60006126d982846142c2565b9392505050565b60006126d98284614296565b60006126d982846142e1565b612700611bec565b6001600160a01b0316636a627842336040518263ffffffff1660e01b815260040161272b9190613b6b565b600060405180830381600087803b15801561274557600080fd5b505af1158015612759573d6000803e3d6000fd5b505050506000612767611bec565b6001600160a01b031663295d3ee86040518163ffffffff1660e01b815260040160206040518083038186803b15801561279f57600080fd5b505afa1580156127b3573d6000803e3d6000fd5b505050506040513d601f19601f820116820180604052508101906127d79190613aed565b905060006127e4826134c6565b6040805160a0808201835260018083526020808401868152428587015260006060808701829052875160c081018952828152808501839052808901839052908101829052875180890189528281528085018390526080828101919091528851808a018a528381528086018490529682019690965294860194909452888452600b82529490922083518155935180519596509294612889939185019291909101906138b4565b50604082810151600283015560608084015160038401556080938401518051600485018054602080850151968501519585015160ff199092169315159390931761ff001916610100961515969096029590951762ff000019166201000094151594909402939093176301000000600160b81b03191663010000006001600160a01b0395861602179092559384015180516005850180546001600160a01b031990811692861692909217905590820151600685015560a0909401518051600785015501516008909201805490931691161790555050565b60008115612ba8576000612971611bec565b6001600160a01b031663295d3ee86040518163ffffffff1660e01b815260040160206040518083038186803b1580156129a957600080fd5b505afa1580156129bd573d6000803e3d6000fd5b505050506040513d601f19601f820116820180604052508101906129e19190613aed565b9050600060015b828111612b9e576000600b60008381526020019081526020016000206040518060a001604052908160008201548152602001600182018054612a29906142f8565b80601f0160208091040260200160405190810160405280929190818152602001828054612a55906142f8565b8015612aa25780601f10612a7757610100808354040283529160200191612aa2565b820191906000526020600020905b815481529060010190602001808311612a8557829003601f168201915b505050918352505060028201546020808301919091526003830154604080840191909152805160c081018252600485015460ff8082161515835261010082048116151583860152620100008204161515828401526001600160a01b03630100000090910481166060838101919091528351808501855260058801548316815260068801548187015260808085019190915284518086018652600789015481526008909801549092169487019490945260a0820195909552919092015290820151015190915015612b8b57612b88612b8182602001518360000151613606565b84906126e0565b92505b5080612b9681614333565b9150506129e8565b509150611ff39050565b6000600b60008581526020019081526020016000206040518060a001604052908160008201548152602001600182018054612be2906142f8565b80601f0160208091040260200160405190810160405280929190818152602001828054612c0e906142f8565b8015612c5b5780601f10612c3057610100808354040283529160200191612c5b565b820191906000526020600020905b815481529060010190602001808311612c3e57829003601f168201915b505050918352505060028201546020808301919091526003830154604080840191909152805160c081018252600485015460ff8082161515835261010082048116151583860152620100008204161515828401526001600160a01b0363010000009091048116606083810191909152835180850185526005880154831681526006880154818701526080840152835180850190945260078701548452600890960154168284015260a081019190915292909101919091528101518151919250612d2391613606565b915050611ff3565b4290565b60006126d982846142ae565b612d43610f4c565b612e69576000612d556000600161295f565b90506000612d61611bec565b6001600160a01b031663295d3ee86040518163ffffffff1660e01b815260040160206040518083038186803b158015612d9957600080fd5b505afa158015612dad573d6000803e3d6000fd5b505050506040513d601f19601f82011682018060405250810190612dd19190613aed565b90506000612de3600c54610ebe612d2b565b90506000612e0282610ee3691a784379d99db4200000622819a0612d2f565b905060015b8381116115f2576000818152600b6020526040812090612e27838261295f565b90506000612e3982610ee3878b612d2f565b6003840154909150612e4b90826126e0565b83600301819055505050508080612e6190614333565b915050612e07565b565b336000908152602081905260408120612e8391613938565b336000908152602081905260409020805460011480612eaf575080548290612ead906001906142e1565b145b15612eed5780805480612ed257634e487b7160e01b600052603160045260246000fd5b60019003818190600052602060002001600090559055611dff565b80546000908290612f00906001906142e1565b81548110612f1e57634e487b7160e01b600052603260045260246000fd5b9060005260206000200154905080828481548110612f4c57634e487b7160e01b600052603260045260246000fd5b906000526020600020018190555081805480612f7857634e487b7160e01b600052603160045260246000fd5b60019003818190600052602060002001600090559055505050565b805160208201206000907f8c57226533ec41d2857120df9ace6dff88130d9b32385e09c9828f75027730f3811461308c577f181ebe3a8fa130246d49bfd123ac54849b05bdcd02c6b1322c78de2a3988a3108114613083577f6764d804d57285ae9d4c42cc380377d3d0ee9b90ff9eeccaa32d3b2e3e8d7f17811461307a577fb2c1aaaf9f516585466c9876e2eaf06ee68751aad537b2a6fa22f473d03b58eb811461306f577fb5333297a8bd10e190cb97fb1ee0f49587c8b2e015370e943c69fd680dabc6bd811461306757600061306a565b60c85b613072565b60e15b60ff1661307e565b61012c5b613087565b6101c25b613090565b6102a35b61ffff169150505b919050565b6000816001146130de57816002146130d657816003146130ce57816004146130c65760006130c9565b60505b6130d1565b602a5b6130d9565b60165b6130e1565b600f5b60ff1692915050565b600060015b600581116131375760006131028261385e565b905080841061311c5761311581856142e1565b9350613124565b509050613098565b508061312f81614333565b9150506130ef565b50600092915050565b600061314a613959565b6000848152600d6020908152604080832080548251818502810185019093528083529192909190849084015b828210156131be576000848152602090819020604080518082019091526002850290910180546001600160a01b03168252600190810154828401529083529092019101613176565b50505050905060005b815181101561325c57846001600160a01b03168282815181106131fa57634e487b7160e01b600052603260045260246000fd5b6020026020010151600001516001600160a01b0316141561324a57600182828151811061323757634e487b7160e01b600052603260045260246000fd5b602002602001015193509350505061328e565b8061325481614333565b9150506131c7565b5060008160008151811061328057634e487b7160e01b600052603260045260246000fd5b602002602001015192509250505b9250929050565b6000818152600d6020908152604080832080548251818502810185019093528083529192909190849084015b82821015613309576000848152602090819020604080518082019091526002850290910180546001600160a01b031682526001908101548284015290835290920191016132c1565b50505050905060005b81518110156134c157600061336266038d7ea4c6800084848151811061334857634e487b7160e01b600052603260045260246000fd5b6020026020010151602001516126cd90919063ffffffff16565b9050600083838151811061338657634e487b7160e01b600052603260045260246000fd5b602002602001015160000151905061339c610f3d565b6005546040516323b872dd60e01b81526001600160a01b03928316926323b872dd926133d19291169030908790600401613b98565b602060405180830381600087803b1580156133eb57600080fd5b505af11580156133ff573d6000803e3d6000fd5b505050506040513d601f19601f820116820180604052508101906134239190613a0e565b5061342c610f3d565b6001600160a01b031663a9059cbb82846040518363ffffffff1660e01b8152600401613459929190613b7f565b602060405180830381600087803b15801561347357600080fd5b505af1158015613487573d6000803e3d6000fd5b505050506040513d601f19601f820116820180604052508101906134ab9190613a0e565b50505080806134b990614333565b915050613312565b505050565b606060006134d38361389b565b90506000805b6008548110156135485760006008828154811061350657634e487b7160e01b600052603260045260246000fd5b906000526020600020015490508084111561352c5761352584826126ec565b9350613535565b81925050613548565b508061354081614333565b9150506134d9565b506009818154811061356a57634e487b7160e01b600052603260045260246000fd5b90600052602060002001805461357f906142f8565b80601f01602080910402602001604051908101604052809291908181526020018280546135ab906142f8565b80156135f85780601f106135cd576101008083540402835291602001916135f8565b820191906000526020600020905b8154815290600101906020018083116135db57829003601f168201915b505050505092505050919050565b81516020830120600090817f8c57226533ec41d2857120df9ace6dff88130d9b32385e09c9828f75027730f382146136ff577f181ebe3a8fa130246d49bfd123ac54849b05bdcd02c6b1322c78de2a3988a31082146136f6577f6764d804d57285ae9d4c42cc380377d3d0ee9b90ff9eeccaa32d3b2e3e8d7f1782146136eb577fb2c1aaaf9f516585466c9876e2eaf06ee68751aad537b2a6fa22f473d03b58eb82146136e3577fb5333297a8bd10e190cb97fb1ee0f49587c8b2e015370e943c69fd680dabc6bd82146136db5760006136de565b60645b6136e6565b60965b6136ee565b60c85b60ff166136fa565b61012c5b613703565b6101c25b61ffff16905060008460011461375a5784600214613752578460031461374a5784600414613742578460051461373a57600061373d565b60465b613745565b60285b61374d565b60195b613755565b600f5b61375d565b600a5b60ff169050600060015b60058111613831576000613779612012565b6001600160a01b031662fdd58e33846040518363ffffffff1660e01b81526004016137a5929190613b7f565b60206040518083038186803b1580156137bd57600080fd5b505afa1580156137d1573d6000803e3d6000fd5b505050506040513d601f19601f820116820180604052508101906137f59190613aed565b90506000613804836001614296565b905061381082826142c2565b61381a9085614296565b93505050808061382990614333565b915050613767565b50600a8261383f8386614296565b61384991906142c2565b61385391906142ae565b979650505050505050565b60006103e842448460405160200161387893929190613b55565b6040516020818303038152906040528051906020012060001c611ff3919061434e565b6000606442448460405160200161387893929190613b55565b8280546138c0906142f8565b90600052602060002090601f0160209004810192826138e25760008555613928565b82601f106138fb57805160ff1916838001178555613928565b82800160010185558215613928579182015b8281111561392857825182559160200191906001019061390d565b50613934929150613970565b5090565b50805460008255906000526020600020908101906139569190613970565b50565b604080518082019091526000808252602082015290565b5b808211156139345760008155600101613971565b600060208284031215613996578081fd5b81516126d9816143a4565b60008060008060008060c087890312156139b9578182fd5b86356139c4816143a4565b955060208701356139d4816143a4565b945060408701356139e4816143a4565b935060608701356139f4816143a4565b9598949750929560808101359460a0909101359350915050565b600060208284031215613a1f578081fd5b815180151581146126d9578182fd5b60008060408385031215613a40578182fd5b823567ffffffffffffffff80821115613a57578384fd5b818501915085601f830112613a6a578384fd5b8135602082821115613a7e57613a7e61438e565b604051601f8301601f1916810182018481118282101715613aa157613aa161438e565b6040528281528483018201891015613ab7578687fd5b82828601838301379182018101959095529694909301359450505050565b600060208284031215613ae6578081fd5b5035919050565b600060208284031215613afe578081fd5b5051919050565b60008060408385031215613b17578182fd5b823591506020830135613b29816143a4565b809150509250929050565b60008060408385031215613b46578182fd5b50508035926020909101359150565b9283526020830191909152604082015260600190565b6001600160a01b0391909116815260200190565b6001600160a01b03929092168252602082015260400190565b6001600160a01b039384168152919092166020820152604081019190915260600190565b6001600160a01b039390931683526020830191909152604082015260600190565b901515815260200190565b6020808252602a908201527f4572726f72203a20546f6b656e56616c7565206c6f776572207468616e20507260408201526934b1b2a7b32a37b5b2b760b11b606082015260800190565b6020808252601b908201527f4572726f72203a204e6f742054726176656c20456e642054696d650000000000604082015260600190565b60208082526018908201527f4572726f72203a204e6f7420546f6b656e204f776e6572210000000000000000604082015260600190565b60208082526017908201527f4572726f72203a204e6f7420456e6f756768204b6c6179000000000000000000604082015260600190565b60208082526033908201527f4572726f72203a204e6f7420456e6f7567682054696d6520466f722054726176604082015272656c20262620426f72726f77456e6454696d6560681b606082015260800190565b6020808252601b908201527f4572726f72203a20546f6b656e206973204e6f74204d696e696e670000000000604082015260600190565b60208082526017908201527f4572726f72203a204e6f7420546f6b656e204f776e6572000000000000000000604082015260600190565b6020808252601a908201527f4865726f436f7265204572726f72203a206f6e6c794f776e6572000000000000604082015260600190565b6020808252818101527f4572726f72203a206f6e6c794275792033204865726f2046726f6d204b6c6179604082015260600190565b60208082526019908201527f4572726f72203a2054696d654c6f636b204475726174696f6e00000000000000604082015260600190565b6020808252601b908201527f4572726f72203a20546f6b656e20697320426f72726f77656421210000000000604082015260600190565b6020808252601a908201527f4572726f72203a20546f6b656e20697320426f72726f77656421000000000000604082015260600190565b60208082526024908201527f4572726f72203a204865726f2069732042726f7777656420616e6f74686f72206040820152632ab9b2b960e11b606082015260800190565b60208082526031908201527f4572726f72203a205265717565737455736572206973204e6f74204578697374604082015270656420496e20526571756573744461746160781b606082015260800190565b60208082526018908201527f4572726f72203a204e6f742045786f75676820546f6b656e0000000000000000604082015260600190565b6020808252601b908201527f4572726f72203a20546f6b656e2069732054726176656c656421210000000000604082015260600190565b60208082526025908201527f4572726f72203a204e6f742054726176656c4f776e6572206f72207374616b6560408201526427bbb732b960d91b606082015260800190565b6020808252601a908201527f4572726f72203a20546f6b656e2069732054726176656c656421000000000000604082015260600190565b60208082526016908201527522b93937b9101d102737ba102a37b5b2b727bbb732b960511b604082015260600190565b60208082526018908201527f4572726f72203a20546f6b656e206973204d696e696e67210000000000000000604082015260600190565b6020808252601c908201527f4572726f72203a204e6f74204578697374656420526571756573742100000000604082015260600190565b60208082526019908201527f4572726f72203a206865726f2069732054726176656c65642100000000000000604082015260600190565b60208082526019908201527f4572726f72203a20546f6b656e206973204d696e696e67212100000000000000604082015260600190565b6020808252601590820152744572726f72203a2076616c7565206973205a65726f60581b604082015260600190565b6020808252601c908201527f4572726f72203a204865726f206973204e6f74205374616b6564212100000000604082015260600190565b60208082526023908201527f4572726f72203a206d73672e73656e646572206973204e6f7420426f72726f7760408201526265727360e81b606082015260800190565b6020808252601f908201527f4572726f72203a206d73672e73656e646572206973204e6f74204f776e657200604082015260600190565b60208082526024908201527f4572726f72203a20616c7265616479205265717565737420416e6f74686572206040820152634865726f60e01b606082015260800190565b6020808252818101527f4572726f72203a20546f6b656e206973204d61784c6576656c20537461747573604082015260600190565b90815260200190565b600082198211156142a9576142a9614362565b500190565b6000826142bd576142bd614378565b500490565b60008160001904831182151516156142dc576142dc614362565b500290565b6000828210156142f3576142f3614362565b500390565b60028104600182168061430c57607f821691505b6020821081141561432d57634e487b7160e01b600052602260045260246000fd5b50919050565b600060001982141561434757614347614362565b5060010190565b60008261435d5761435d614378565b500690565b634e487b7160e01b600052601160045260246000fd5b634e487b7160e01b600052601260045260246000fd5b634e487b7160e01b600052604160045260246000fd5b6001600160a01b038116811461395657600080fdfea2646970667358221220d3bee52a2a9b60b59229407ca36c461ffc21a21d3664663e279942d17792679264736f6c634300080000336e1540171b6c0c960b71a7020d9f60077f6af931a8bbf590da0223dacf75c7af",
			"opcodes": "PUSH1 0x80 PUSH1 0x40 MSTORE CALLVALUE DUP1 ISZERO PUSH3 0x11 JUMPI PUSH1 0x0 DUP1 REVERT JUMPDEST POP PUSH1 0x5 DUP1 SLOAD PUSH1 0xFF PUSH1 0xA8 SHL NOT PUSH1 0xFF PUSH1 0xA0 SHL NOT SWAP1 SWAP2 AND PUSH1 0x1 PUSH1 0xA0 SHL OR AND PUSH1 0x1 PUSH1 0xA8 SHL OR DUP2 SSTORE PUSH1 0x4 DUP1 SLOAD PUSH1 0x1 PUSH1 0x1 PUSH1 0xA0 SHL SUB NOT AND CALLER OR SWAP1 SSTORE PUSH1 0x8 DUP1 SLOAD PUSH1 0x1 DUP2 DUP2 ADD DUP4 SSTORE PUSH32 0xF3F7A9FE364FAAB93B216DA50A3214154F22A0A2B415B23A84C8169E8B636EE3 SWAP2 DUP3 ADD DUP2 SWAP1 SSTORE DUP3 SLOAD DUP1 DUP3 ADD DUP5 SSTORE DUP3 ADD SWAP4 SWAP1 SWAP4 SSTORE DUP2 SLOAD DUP1 DUP5 ADD DUP4 SSTORE PUSH1 0xE SWAP1 DUP3 ADD SSTORE DUP2 SLOAD DUP1 DUP5 ADD DUP4 SSTORE PUSH1 0x1E SWAP1 DUP3 ADD SSTORE DUP2 SLOAD DUP1 DUP5 ADD SWAP1 SWAP3 SSTORE PUSH1 0x32 SWAP2 ADD SSTORE PUSH1 0x9 DUP1 SLOAD SWAP2 DUP3 ADD DUP2 SSTORE PUSH1 0x0 DUP2 SWAP1 MSTORE PUSH1 0x40 DUP1 MLOAD DUP1 DUP3 ADD SWAP1 SWAP2 MSTORE DUP2 DUP2 MSTORE PUSH9 0x4D7974686F6C6F6779 PUSH1 0xB8 SHL PUSH1 0x20 SWAP2 SWAP1 SWAP2 ADD SWAP1 DUP2 MSTORE PUSH3 0xFA SWAP3 PUSH1 0x0 DUP1 MLOAD PUSH1 0x20 PUSH3 0x4729 DUP4 CODECOPY DUP2 MLOAD SWAP2 MSTORE ADD SWAP2 PUSH3 0x247 JUMP JUMPDEST POP PUSH1 0x9 DUP1 SLOAD PUSH1 0x1 DUP2 ADD DUP3 SSTORE PUSH1 0x0 DUP3 SWAP1 MSTORE PUSH1 0x40 DUP1 MLOAD DUP1 DUP3 ADD SWAP1 SWAP2 MSTORE DUP3 DUP2 MSTORE PUSH9 0x4C6567656E64617279 PUSH1 0xB8 SHL PUSH1 0x20 SWAP1 SWAP2 ADD SWAP1 DUP2 MSTORE PUSH3 0x14B SWAP3 PUSH1 0x0 DUP1 MLOAD PUSH1 0x20 PUSH3 0x4729 DUP4 CODECOPY DUP2 MLOAD SWAP2 MSTORE SWAP1 SWAP3 ADD SWAP2 PUSH3 0x247 JUMP JUMPDEST POP PUSH1 0x9 DUP1 SLOAD PUSH1 0x1 DUP2 ADD DUP3 SSTORE PUSH1 0x0 SWAP2 SWAP1 SWAP2 MSTORE PUSH1 0x40 DUP1 MLOAD DUP1 DUP3 ADD SWAP1 SWAP2 MSTORE PUSH1 0x4 DUP1 DUP3 MSTORE PUSH4 0x45706963 PUSH1 0xE0 SHL PUSH1 0x20 SWAP1 SWAP3 ADD SWAP2 DUP3 MSTORE PUSH3 0x199 SWAP3 PUSH1 0x0 DUP1 MLOAD PUSH1 0x20 PUSH3 0x4729 DUP4 CODECOPY DUP2 MLOAD SWAP2 MSTORE ADD SWAP2 SWAP1 PUSH3 0x247 JUMP JUMPDEST POP PUSH1 0x9 DUP1 SLOAD PUSH1 0x1 DUP2 ADD DUP3 SSTORE PUSH1 0x0 SWAP2 SWAP1 SWAP2 MSTORE PUSH1 0x40 DUP1 MLOAD DUP1 DUP3 ADD SWAP1 SWAP2 MSTORE PUSH1 0xD DUP1 DUP3 MSTORE PUSH13 0x20B236B4B734B9BA3930BA37B9 PUSH1 0x99 SHL PUSH1 0x20 SWAP1 SWAP3 ADD SWAP2 DUP3 MSTORE PUSH3 0x1F0 SWAP3 PUSH1 0x0 DUP1 MLOAD PUSH1 0x20 PUSH3 0x4729 DUP4 CODECOPY DUP2 MLOAD SWAP2 MSTORE ADD SWAP2 SWAP1 PUSH3 0x247 JUMP JUMPDEST POP PUSH1 0x9 DUP1 SLOAD PUSH1 0x1 DUP2 ADD DUP3 SSTORE PUSH1 0x0 SWAP2 SWAP1 SWAP2 MSTORE PUSH1 0x40 DUP1 MLOAD DUP1 DUP3 ADD SWAP1 SWAP2 MSTORE PUSH1 0x6 DUP1 DUP3 MSTORE PUSH6 0x139BDC9B585B PUSH1 0xD2 SHL PUSH1 0x20 SWAP1 SWAP3 ADD SWAP2 DUP3 MSTORE PUSH3 0x240 SWAP3 PUSH1 0x0 DUP1 MLOAD PUSH1 0x20 PUSH3 0x4729 DUP4 CODECOPY DUP2 MLOAD SWAP2 MSTORE ADD SWAP2 SWAP1 PUSH3 0x247 JUMP JUMPDEST POP PUSH3 0x32A JUMP JUMPDEST DUP3 DUP1 SLOAD PUSH3 0x255 SWAP1 PUSH3 0x2ED JUMP JUMPDEST SWAP1 PUSH1 0x0 MSTORE PUSH1 0x20 PUSH1 0x0 KECCAK256 SWAP1 PUSH1 0x1F ADD PUSH1 0x20 SWAP1 DIV DUP2 ADD SWAP3 DUP3 PUSH3 0x279 JUMPI PUSH1 0x0 DUP6 SSTORE PUSH3 0x2C4 JUMP JUMPDEST DUP3 PUSH1 0x1F LT PUSH3 0x294 JUMPI DUP1 MLOAD PUSH1 0xFF NOT AND DUP4 DUP1 ADD OR DUP6 SSTORE PUSH3 0x2C4 JUMP JUMPDEST DUP3 DUP1 ADD PUSH1 0x1 ADD DUP6 SSTORE DUP3 ISZERO PUSH3 0x2C4 JUMPI SWAP2 DUP3 ADD JUMPDEST DUP3 DUP2 GT ISZERO PUSH3 0x2C4 JUMPI DUP3 MLOAD DUP3 SSTORE SWAP2 PUSH1 0x20 ADD SWAP2 SWAP1 PUSH1 0x1 ADD SWAP1 PUSH3 0x2A7 JUMP JUMPDEST POP PUSH3 0x2D2 SWAP3 SWAP2 POP PUSH3 0x2D6 JUMP JUMPDEST POP SWAP1 JUMP JUMPDEST JUMPDEST DUP1 DUP3 GT ISZERO PUSH3 0x2D2 JUMPI PUSH1 0x0 DUP2 SSTORE PUSH1 0x1 ADD PUSH3 0x2D7 JUMP JUMPDEST PUSH1 0x2 DUP2 DIV PUSH1 0x1 DUP3 AND DUP1 PUSH3 0x302 JUMPI PUSH1 0x7F DUP3 AND SWAP2 POP JUMPDEST PUSH1 0x20 DUP3 LT DUP2 EQ ISZERO PUSH3 0x324 JUMPI PUSH4 0x4E487B71 PUSH1 0xE0 SHL PUSH1 0x0 MSTORE PUSH1 0x22 PUSH1 0x4 MSTORE PUSH1 0x24 PUSH1 0x0 REVERT JUMPDEST POP SWAP2 SWAP1 POP JUMP JUMPDEST PUSH2 0x43EF DUP1 PUSH3 0x33A PUSH1 0x0 CODECOPY PUSH1 0x0 RETURN INVALID PUSH1 0x80 PUSH1 0x40 MSTORE PUSH1 0x4 CALLDATASIZE LT PUSH2 0x1EE JUMPI PUSH1 0x0 CALLDATALOAD PUSH1 0xE0 SHR DUP1 PUSH4 0x727DA60A GT PUSH2 0x10D JUMPI DUP1 PUSH4 0xAA93C0EE GT PUSH2 0xA0 JUMPI DUP1 PUSH4 0xCD7308D6 GT PUSH2 0x6F JUMPI DUP1 PUSH4 0xCD7308D6 EQ PUSH2 0x4F3 JUMPI DUP1 PUSH4 0xD7C41C79 EQ PUSH2 0x513 JUMPI DUP1 PUSH4 0xD7DD41F2 EQ PUSH2 0x533 JUMPI DUP1 PUSH4 0xEB600465 EQ PUSH2 0x553 JUMPI DUP1 PUSH4 0xEE72B8CC EQ PUSH2 0x573 JUMPI PUSH2 0x1EE JUMP JUMPDEST DUP1 PUSH4 0xAA93C0EE EQ PUSH2 0x494 JUMPI DUP1 PUSH4 0xAD74A212 EQ PUSH2 0x4B4 JUMPI DUP1 PUSH4 0xC21BAE0C EQ PUSH2 0x4C9 JUMPI DUP1 PUSH4 0xC412EABA EQ PUSH2 0x4DE JUMPI PUSH2 0x1EE JUMP JUMPDEST DUP1 PUSH4 0x893D20E8 GT PUSH2 0xDC JUMPI DUP1 PUSH4 0x893D20E8 EQ PUSH2 0x435 JUMPI DUP1 PUSH4 0x9EB4EAE5 EQ PUSH2 0x44A JUMPI DUP1 PUSH4 0xA694FC3A EQ PUSH2 0x45F JUMPI DUP1 PUSH4 0xA8469CE9 EQ PUSH2 0x47F JUMPI PUSH2 0x1EE JUMP JUMPDEST DUP1 PUSH4 0x727DA60A EQ PUSH2 0x3C0 JUMPI DUP1 PUSH4 0x7CAC00EE EQ PUSH2 0x3E0 JUMPI DUP1 PUSH4 0x80D953DD EQ PUSH2 0x3F5 JUMPI DUP1 PUSH4 0x83A1D7E5 EQ PUSH2 0x415 JUMPI PUSH2 0x1EE JUMP JUMPDEST DUP1 PUSH4 0x2A47A945 GT PUSH2 0x185 JUMPI DUP1 PUSH4 0x42966C68 GT PUSH2 0x154 JUMPI DUP1 PUSH4 0x42966C68 EQ PUSH2 0x34B JUMPI DUP1 PUSH4 0x5D3EEA91 EQ PUSH2 0x36B JUMPI DUP1 PUSH4 0x6805B84B EQ PUSH2 0x38B JUMPI DUP1 PUSH4 0x6F7C8C06 EQ PUSH2 0x3A0 JUMPI PUSH2 0x1EE JUMP JUMPDEST DUP1 PUSH4 0x2A47A945 EQ PUSH2 0x2E1 JUMPI DUP1 PUSH4 0x3015394C EQ PUSH2 0x301 JUMPI DUP1 PUSH4 0x32590C5C EQ PUSH2 0x321 JUMPI DUP1 PUSH4 0x3A1A8080 EQ PUSH2 0x336 JUMPI PUSH2 0x1EE JUMP JUMPDEST DUP1 PUSH4 0x1B9CBDFB GT PUSH2 0x1C1 JUMPI DUP1 PUSH4 0x1B9CBDFB EQ PUSH2 0x273 JUMPI DUP1 PUSH4 0x21DF0DA7 EQ PUSH2 0x288 JUMPI DUP1 PUSH4 0x28919DF6 EQ PUSH2 0x2AA JUMPI DUP1 PUSH4 0x28F833B7 EQ PUSH2 0x2CC JUMPI PUSH2 0x1EE JUMP JUMPDEST DUP1 PUSH4 0xAE2FE5C EQ PUSH2 0x1F3 JUMPI DUP1 PUSH4 0xCE90EC2 EQ PUSH2 0x215 JUMPI DUP1 PUSH4 0x173489EB EQ PUSH2 0x235 JUMPI DUP1 PUSH4 0x17A13522 EQ PUSH2 0x23D JUMPI JUMPDEST PUSH1 0x0 DUP1 REVERT JUMPDEST CALLVALUE DUP1 ISZERO PUSH2 0x1FF JUMPI PUSH1 0x0 DUP1 REVERT JUMPDEST POP PUSH2 0x213 PUSH2 0x20E CALLDATASIZE PUSH1 0x4 PUSH2 0x3B34 JUMP JUMPDEST PUSH2 0x588 JUMP JUMPDEST STOP JUMPDEST CALLVALUE DUP1 ISZERO PUSH2 0x221 JUMPI PUSH1 0x0 DUP1 REVERT JUMPDEST POP PUSH2 0x213 PUSH2 0x230 CALLDATASIZE PUSH1 0x4 PUSH2 0x3AD5 JUMP JUMPDEST PUSH2 0x83E JUMP JUMPDEST PUSH2 0x213 PUSH2 0xB60 JUMP JUMPDEST CALLVALUE DUP1 ISZERO PUSH2 0x249 JUMPI PUSH1 0x0 DUP1 REVERT JUMPDEST POP PUSH2 0x25D PUSH2 0x258 CALLDATASIZE PUSH1 0x4 PUSH2 0x3AD5 JUMP JUMPDEST PUSH2 0xC79 JUMP JUMPDEST PUSH1 0x40 MLOAD PUSH2 0x26A SWAP2 SWAP1 PUSH2 0x428D JUMP JUMPDEST PUSH1 0x40 MLOAD DUP1 SWAP2 SUB SWAP1 RETURN JUMPDEST CALLVALUE DUP1 ISZERO PUSH2 0x27F JUMPI PUSH1 0x0 DUP1 REVERT JUMPDEST POP PUSH2 0x25D PUSH2 0xF37 JUMP JUMPDEST CALLVALUE DUP1 ISZERO PUSH2 0x294 JUMPI PUSH1 0x0 DUP1 REVERT JUMPDEST POP PUSH2 0x29D PUSH2 0xF3D JUMP JUMPDEST PUSH1 0x40 MLOAD PUSH2 0x26A SWAP2 SWAP1 PUSH2 0x3B6B JUMP JUMPDEST CALLVALUE DUP1 ISZERO PUSH2 0x2B6 JUMPI PUSH1 0x0 DUP1 REVERT JUMPDEST POP PUSH2 0x2BF PUSH2 0xF4C JUMP JUMPDEST PUSH1 0x40 MLOAD PUSH2 0x26A SWAP2 SWAP1 PUSH2 0x3BDD JUMP JUMPDEST CALLVALUE DUP1 ISZERO PUSH2 0x2D8 JUMPI PUSH1 0x0 DUP1 REVERT JUMPDEST POP PUSH2 0x29D PUSH2 0xF5C JUMP JUMPDEST CALLVALUE DUP1 ISZERO PUSH2 0x2ED JUMPI PUSH1 0x0 DUP1 REVERT JUMPDEST POP PUSH2 0x213 PUSH2 0x2FC CALLDATASIZE PUSH1 0x4 PUSH2 0x3AD5 JUMP JUMPDEST PUSH2 0xF6B JUMP JUMPDEST CALLVALUE DUP1 ISZERO PUSH2 0x30D JUMPI PUSH1 0x0 DUP1 REVERT JUMPDEST POP PUSH2 0x213 PUSH2 0x31C CALLDATASIZE PUSH1 0x4 PUSH2 0x3AD5 JUMP JUMPDEST PUSH2 0x1164 JUMP JUMPDEST CALLVALUE DUP1 ISZERO PUSH2 0x32D JUMPI PUSH1 0x0 DUP1 REVERT JUMPDEST POP PUSH2 0x25D PUSH2 0x15F9 JUMP JUMPDEST CALLVALUE DUP1 ISZERO PUSH2 0x342 JUMPI PUSH1 0x0 DUP1 REVERT JUMPDEST POP PUSH2 0x25D PUSH2 0x1600 JUMP JUMPDEST CALLVALUE DUP1 ISZERO PUSH2 0x357 JUMPI PUSH1 0x0 DUP1 REVERT JUMPDEST POP PUSH2 0x213 PUSH2 0x366 CALLDATASIZE PUSH1 0x4 PUSH2 0x3AD5 JUMP JUMPDEST PUSH2 0x1606 JUMP JUMPDEST CALLVALUE DUP1 ISZERO PUSH2 0x377 JUMPI PUSH1 0x0 DUP1 REVERT JUMPDEST POP PUSH2 0x213 PUSH2 0x386 CALLDATASIZE PUSH1 0x4 PUSH2 0x3AD5 JUMP JUMPDEST PUSH2 0x1667 JUMP JUMPDEST CALLVALUE DUP1 ISZERO PUSH2 0x397 JUMPI PUSH1 0x0 DUP1 REVERT JUMPDEST POP PUSH2 0x2BF PUSH2 0x18CA JUMP JUMPDEST CALLVALUE DUP1 ISZERO PUSH2 0x3AC JUMPI PUSH1 0x0 DUP1 REVERT JUMPDEST POP PUSH2 0x213 PUSH2 0x3BB CALLDATASIZE PUSH1 0x4 PUSH2 0x3AD5 JUMP JUMPDEST PUSH2 0x18DA JUMP JUMPDEST CALLVALUE DUP1 ISZERO PUSH2 0x3CC JUMPI PUSH1 0x0 DUP1 REVERT JUMPDEST POP PUSH2 0x213 PUSH2 0x3DB CALLDATASIZE PUSH1 0x4 PUSH2 0x3AD5 JUMP JUMPDEST PUSH2 0x1A57 JUMP JUMPDEST CALLVALUE DUP1 ISZERO PUSH2 0x3EC JUMPI PUSH1 0x0 DUP1 REVERT JUMPDEST POP PUSH2 0x29D PUSH2 0x1BEC JUMP JUMPDEST CALLVALUE DUP1 ISZERO PUSH2 0x401 JUMPI PUSH1 0x0 DUP1 REVERT JUMPDEST POP PUSH2 0x213 PUSH2 0x410 CALLDATASIZE PUSH1 0x4 PUSH2 0x3AD5 JUMP JUMPDEST PUSH2 0x1BFB JUMP JUMPDEST CALLVALUE DUP1 ISZERO PUSH2 0x421 JUMPI PUSH1 0x0 DUP1 REVERT JUMPDEST POP PUSH2 0x213 PUSH2 0x430 CALLDATASIZE PUSH1 0x4 PUSH2 0x3AD5 JUMP JUMPDEST PUSH2 0x1D93 JUMP JUMPDEST CALLVALUE DUP1 ISZERO PUSH2 0x441 JUMPI PUSH1 0x0 DUP1 REVERT JUMPDEST POP PUSH2 0x29D PUSH2 0x1E03 JUMP JUMPDEST CALLVALUE DUP1 ISZERO PUSH2 0x456 JUMPI PUSH1 0x0 DUP1 REVERT JUMPDEST POP PUSH2 0x213 PUSH2 0x1E12 JUMP JUMPDEST CALLVALUE DUP1 ISZERO PUSH2 0x46B JUMPI PUSH1 0x0 DUP1 REVERT JUMPDEST POP PUSH2 0x213 PUSH2 0x47A CALLDATASIZE PUSH1 0x4 PUSH2 0x3AD5 JUMP JUMPDEST PUSH2 0x1E5D JUMP JUMPDEST CALLVALUE DUP1 ISZERO PUSH2 0x48B JUMPI PUSH1 0x0 DUP1 REVERT JUMPDEST POP PUSH2 0x25D PUSH2 0x1F9D JUMP JUMPDEST CALLVALUE DUP1 ISZERO PUSH2 0x4A0 JUMPI PUSH1 0x0 DUP1 REVERT JUMPDEST POP PUSH2 0x25D PUSH2 0x4AF CALLDATASIZE PUSH1 0x4 PUSH2 0x3A2E JUMP JUMPDEST PUSH2 0x1FAB JUMP JUMPDEST CALLVALUE DUP1 ISZERO PUSH2 0x4C0 JUMPI PUSH1 0x0 DUP1 REVERT JUMPDEST POP PUSH2 0x25D PUSH2 0x1FF9 JUMP JUMPDEST CALLVALUE DUP1 ISZERO PUSH2 0x4D5 JUMPI PUSH1 0x0 DUP1 REVERT JUMPDEST POP PUSH2 0x25D PUSH2 0x200C JUMP JUMPDEST CALLVALUE DUP1 ISZERO PUSH2 0x4EA JUMPI PUSH1 0x0 DUP1 REVERT JUMPDEST POP PUSH2 0x29D PUSH2 0x2012 JUMP JUMPDEST CALLVALUE DUP1 ISZERO PUSH2 0x4FF JUMPI PUSH1 0x0 DUP1 REVERT JUMPDEST POP PUSH2 0x213 PUSH2 0x50E CALLDATASIZE PUSH1 0x4 PUSH2 0x3AD5 JUMP JUMPDEST PUSH2 0x2021 JUMP JUMPDEST CALLVALUE DUP1 ISZERO PUSH2 0x51F JUMPI PUSH1 0x0 DUP1 REVERT JUMPDEST POP PUSH2 0x213 PUSH2 0x52E CALLDATASIZE PUSH1 0x4 PUSH2 0x39A1 JUMP JUMPDEST PUSH2 0x2301 JUMP JUMPDEST CALLVALUE DUP1 ISZERO PUSH2 0x53F JUMPI PUSH1 0x0 DUP1 REVERT JUMPDEST POP PUSH2 0x213 PUSH2 0x54E CALLDATASIZE PUSH1 0x4 PUSH2 0x3AD5 JUMP JUMPDEST PUSH2 0x23A7 JUMP JUMPDEST CALLVALUE DUP1 ISZERO PUSH2 0x55F JUMPI PUSH1 0x0 DUP1 REVERT JUMPDEST POP PUSH2 0x213 PUSH2 0x56E CALLDATASIZE PUSH1 0x4 PUSH2 0x3B05 JUMP JUMPDEST PUSH2 0x24D3 JUMP JUMPDEST CALLVALUE DUP1 ISZERO PUSH2 0x57F JUMPI PUSH1 0x0 DUP1 REVERT JUMPDEST POP PUSH2 0x213 PUSH2 0x2682 JUMP JUMPDEST DUP2 PUSH1 0x0 PUSH2 0x593 PUSH2 0x1BEC JUMP JUMPDEST PUSH1 0x1 PUSH1 0x1 PUSH1 0xA0 SHL SUB AND PUSH4 0x6352211E DUP4 PUSH1 0x40 MLOAD DUP3 PUSH4 0xFFFFFFFF AND PUSH1 0xE0 SHL DUP2 MSTORE PUSH1 0x4 ADD PUSH2 0x5BE SWAP2 SWAP1 PUSH2 0x428D JUMP JUMPDEST PUSH1 0x20 PUSH1 0x40 MLOAD DUP1 DUP4 SUB DUP2 DUP7 DUP1 EXTCODESIZE ISZERO DUP1 ISZERO PUSH2 0x5D6 JUMPI PUSH1 0x0 DUP1 REVERT JUMPDEST POP GAS STATICCALL ISZERO DUP1 ISZERO PUSH2 0x5EA JUMPI RETURNDATASIZE PUSH1 0x0 DUP1 RETURNDATACOPY RETURNDATASIZE PUSH1 0x0 REVERT JUMPDEST POP POP POP POP PUSH1 0x40 MLOAD RETURNDATASIZE PUSH1 0x1F NOT PUSH1 0x1F DUP3 ADD AND DUP3 ADD DUP1 PUSH1 0x40 MSTORE POP DUP2 ADD SWAP1 PUSH2 0x60E SWAP2 SWAP1 PUSH2 0x3985 JUMP JUMPDEST SWAP1 POP PUSH1 0x1 PUSH1 0x1 PUSH1 0xA0 SHL SUB DUP2 AND ADDRESS EQ PUSH2 0x641 JUMPI PUSH1 0x40 MLOAD PUSH3 0x461BCD PUSH1 0xE5 SHL DUP2 MSTORE PUSH1 0x4 ADD PUSH2 0x638 SWAP1 PUSH2 0x4163 JUMP JUMPDEST PUSH1 0x40 MLOAD DUP1 SWAP2 SUB SWAP1 REVERT JUMPDEST PUSH1 0x0 DUP5 DUP2 MSTORE PUSH1 0xB PUSH1 0x20 MSTORE PUSH1 0x40 SWAP1 KECCAK256 PUSH1 0x4 DUP2 ADD SLOAD PUSH1 0xFF AND ISZERO PUSH2 0x674 JUMPI PUSH1 0x40 MLOAD PUSH3 0x461BCD PUSH1 0xE5 SHL DUP2 MSTORE PUSH1 0x4 ADD PUSH2 0x638 SWAP1 PUSH2 0x3EA9 JUMP JUMPDEST CALLER PUSH1 0x0 SWAP1 DUP2 MSTORE PUSH1 0xE PUSH1 0x20 MSTORE PUSH1 0x40 SWAP1 KECCAK256 SLOAD ISZERO PUSH2 0x6A1 JUMPI PUSH1 0x40 MLOAD PUSH3 0x461BCD PUSH1 0xE5 SHL DUP2 MSTORE PUSH1 0x4 ADD PUSH2 0x638 SWAP1 PUSH2 0x4214 JUMP JUMPDEST PUSH1 0x0 DUP6 DUP2 MSTORE PUSH1 0xD PUSH1 0x20 SWAP1 DUP2 MSTORE PUSH1 0x40 DUP1 DUP4 KECCAK256 DUP2 MLOAD DUP1 DUP4 ADD DUP4 MSTORE CALLER DUP1 DUP3 MSTORE DUP2 DUP6 ADD DUP11 DUP2 MSTORE DUP4 SLOAD PUSH1 0x1 DUP1 DUP3 ADD DUP7 SSTORE SWAP5 DUP9 MSTORE DUP7 DUP9 KECCAK256 SWAP4 MLOAD PUSH1 0x2 SWAP1 SWAP2 MUL SWAP1 SWAP4 ADD DUP1 SLOAD PUSH1 0x1 PUSH1 0x1 PUSH1 0xA0 SHL SUB NOT AND PUSH1 0x1 PUSH1 0x1 PUSH1 0xA0 SHL SUB SWAP1 SWAP5 AND SWAP4 SWAP1 SWAP4 OR DUP4 SSTORE MLOAD SWAP2 SWAP1 SWAP3 ADD SSTORE DUP4 MSTORE PUSH1 0xE SWAP1 SWAP2 MSTORE DUP2 KECCAK256 DUP7 SWAP1 SSTORE PUSH2 0x71C DUP6 PUSH7 0x38D7EA4C68000 PUSH2 0x26CD JUMP JUMPDEST SWAP1 POP PUSH2 0x726 PUSH2 0xF3D JUMP JUMPDEST PUSH1 0x1 PUSH1 0x1 PUSH1 0xA0 SHL SUB AND PUSH4 0x23B872DD CALLER ADDRESS DUP5 PUSH1 0x40 MLOAD DUP5 PUSH4 0xFFFFFFFF AND PUSH1 0xE0 SHL DUP2 MSTORE PUSH1 0x4 ADD PUSH2 0x755 SWAP4 SWAP3 SWAP2 SWAP1 PUSH2 0x3B98 JUMP JUMPDEST PUSH1 0x20 PUSH1 0x40 MLOAD DUP1 DUP4 SUB DUP2 PUSH1 0x0 DUP8 DUP1 EXTCODESIZE ISZERO DUP1 ISZERO PUSH2 0x76F JUMPI PUSH1 0x0 DUP1 REVERT JUMPDEST POP GAS CALL ISZERO DUP1 ISZERO PUSH2 0x783 JUMPI RETURNDATASIZE PUSH1 0x0 DUP1 RETURNDATACOPY RETURNDATASIZE PUSH1 0x0 REVERT JUMPDEST POP POP POP POP PUSH1 0x40 MLOAD RETURNDATASIZE PUSH1 0x1F NOT PUSH1 0x1F DUP3 ADD AND DUP3 ADD DUP1 PUSH1 0x40 MSTORE POP DUP2 ADD SWAP1 PUSH2 0x7A7 SWAP2 SWAP1 PUSH2 0x3A0E JUMP JUMPDEST POP PUSH2 0x7B0 PUSH2 0xF3D JUMP JUMPDEST PUSH1 0x5 SLOAD PUSH1 0x40 MLOAD PUSH4 0xA9059CBB PUSH1 0xE0 SHL DUP2 MSTORE PUSH1 0x1 PUSH1 0x1 PUSH1 0xA0 SHL SUB SWAP3 DUP4 AND SWAP3 PUSH4 0xA9059CBB SWAP3 PUSH2 0x7E3 SWAP3 SWAP2 AND SWAP1 DUP6 SWAP1 PUSH1 0x4 ADD PUSH2 0x3B7F JUMP JUMPDEST PUSH1 0x20 PUSH1 0x40 MLOAD DUP1 DUP4 SUB DUP2 PUSH1 0x0 DUP8 DUP1 EXTCODESIZE ISZERO DUP1 ISZERO PUSH2 0x7FD JUMPI PUSH1 0x0 DUP1 REVERT JUMPDEST POP GAS CALL ISZERO DUP1 ISZERO PUSH2 0x811 JUMPI RETURNDATASIZE PUSH1 0x0 DUP1 RETURNDATACOPY RETURNDATASIZE PUSH1 0x0 REVERT JUMPDEST POP POP POP POP PUSH1 0x40 MLOAD RETURNDATASIZE PUSH1 0x1F NOT PUSH1 0x1F DUP3 ADD AND DUP3 ADD DUP1 PUSH1 0x40 MSTORE POP DUP2 ADD SWAP1 PUSH2 0x835 SWAP2 SWAP1 PUSH2 0x3A0E JUMP JUMPDEST POP POP POP POP POP POP POP JUMP JUMPDEST DUP1 PUSH1 0x0 PUSH2 0x849 PUSH2 0x1BEC JUMP JUMPDEST PUSH1 0x1 PUSH1 0x1 PUSH1 0xA0 SHL SUB AND PUSH4 0x6352211E DUP4 PUSH1 0x40 MLOAD DUP3 PUSH4 0xFFFFFFFF AND PUSH1 0xE0 SHL DUP2 MSTORE PUSH1 0x4 ADD PUSH2 0x874 SWAP2 SWAP1 PUSH2 0x428D JUMP JUMPDEST PUSH1 0x20 PUSH1 0x40 MLOAD DUP1 DUP4 SUB DUP2 DUP7 DUP1 EXTCODESIZE ISZERO DUP1 ISZERO PUSH2 0x88C JUMPI PUSH1 0x0 DUP1 REVERT JUMPDEST POP GAS STATICCALL ISZERO DUP1 ISZERO PUSH2 0x8A0 JUMPI RETURNDATASIZE PUSH1 0x0 DUP1 RETURNDATACOPY RETURNDATASIZE PUSH1 0x0 REVERT JUMPDEST POP POP POP POP PUSH1 0x40 MLOAD RETURNDATASIZE PUSH1 0x1F NOT PUSH1 0x1F DUP3 ADD AND DUP3 ADD DUP1 PUSH1 0x40 MSTORE POP DUP2 ADD SWAP1 PUSH2 0x8C4 SWAP2 SWAP1 PUSH2 0x3985 JUMP JUMPDEST SWAP1 POP PUSH1 0x1 PUSH1 0x1 PUSH1 0xA0 SHL SUB DUP2 AND ADDRESS EQ PUSH2 0x8EE JUMPI PUSH1 0x40 MLOAD PUSH3 0x461BCD PUSH1 0xE5 SHL DUP2 MSTORE PUSH1 0x4 ADD PUSH2 0x638 SWAP1 PUSH2 0x4163 JUMP JUMPDEST PUSH1 0x0 DUP4 DUP2 MSTORE PUSH1 0xB PUSH1 0x20 MSTORE PUSH1 0x40 SWAP1 KECCAK256 PUSH1 0x4 DUP2 ADD SLOAD PUSH4 0x1000000 SWAP1 DIV PUSH1 0x1 PUSH1 0x1 PUSH1 0xA0 SHL SUB AND CALLER EQ PUSH2 0x92F JUMPI PUSH1 0x40 MLOAD PUSH3 0x461BCD PUSH1 0xE5 SHL DUP2 MSTORE PUSH1 0x4 ADD PUSH2 0x638 SWAP1 PUSH2 0x4028 JUMP JUMPDEST DUP1 SLOAD PUSH1 0x5 DUP2 LT PUSH2 0x951 JUMPI PUSH1 0x40 MLOAD PUSH3 0x461BCD PUSH1 0xE5 SHL DUP2 MSTORE PUSH1 0x4 ADD PUSH2 0x638 SWAP1 PUSH2 0x4258 JUMP JUMPDEST PUSH1 0x0 PUSH2 0x9E9 DUP4 PUSH1 0x1 ADD DUP1 SLOAD PUSH2 0x965 SWAP1 PUSH2 0x42F8 JUMP JUMPDEST DUP1 PUSH1 0x1F ADD PUSH1 0x20 DUP1 SWAP2 DIV MUL PUSH1 0x20 ADD PUSH1 0x40 MLOAD SWAP1 DUP2 ADD PUSH1 0x40 MSTORE DUP1 SWAP3 SWAP2 SWAP1 DUP2 DUP2 MSTORE PUSH1 0x20 ADD DUP3 DUP1 SLOAD PUSH2 0x991 SWAP1 PUSH2 0x42F8 JUMP JUMPDEST DUP1 ISZERO PUSH2 0x9DE JUMPI DUP1 PUSH1 0x1F LT PUSH2 0x9B3 JUMPI PUSH2 0x100 DUP1 DUP4 SLOAD DIV MUL DUP4 MSTORE SWAP2 PUSH1 0x20 ADD SWAP2 PUSH2 0x9DE JUMP JUMPDEST DUP3 ADD SWAP2 SWAP1 PUSH1 0x0 MSTORE PUSH1 0x20 PUSH1 0x0 KECCAK256 SWAP1 JUMPDEST DUP2 SLOAD DUP2 MSTORE SWAP1 PUSH1 0x1 ADD SWAP1 PUSH1 0x20 ADD DUP1 DUP4 GT PUSH2 0x9C1 JUMPI DUP3 SWAP1 SUB PUSH1 0x1F AND DUP3 ADD SWAP2 JUMPDEST POP POP POP POP POP DUP4 PUSH2 0x1FAB JUMP JUMPDEST SWAP1 POP DUP1 PUSH2 0x9F4 PUSH2 0xF3D JUMP JUMPDEST PUSH1 0x1 PUSH1 0x1 PUSH1 0xA0 SHL SUB AND PUSH4 0x70A08231 CALLER PUSH1 0x40 MLOAD DUP3 PUSH4 0xFFFFFFFF AND PUSH1 0xE0 SHL DUP2 MSTORE PUSH1 0x4 ADD PUSH2 0xA1F SWAP2 SWAP1 PUSH2 0x3B6B JUMP JUMPDEST PUSH1 0x20 PUSH1 0x40 MLOAD DUP1 DUP4 SUB DUP2 DUP7 DUP1 EXTCODESIZE ISZERO DUP1 ISZERO PUSH2 0xA37 JUMPI PUSH1 0x0 DUP1 REVERT JUMPDEST POP GAS STATICCALL ISZERO DUP1 ISZERO PUSH2 0xA4B JUMPI RETURNDATASIZE PUSH1 0x0 DUP1 RETURNDATACOPY RETURNDATASIZE PUSH1 0x0 REVERT JUMPDEST POP POP POP POP PUSH1 0x40 MLOAD RETURNDATASIZE PUSH1 0x1F NOT PUSH1 0x1F DUP3 ADD AND DUP3 ADD DUP1 PUSH1 0x40 MSTORE POP DUP2 ADD SWAP1 PUSH2 0xA6F SWAP2 SWAP1 PUSH2 0x3AED JUMP JUMPDEST LT ISZERO PUSH2 0xA8D JUMPI PUSH1 0x40 MLOAD PUSH3 0x461BCD PUSH1 0xE5 SHL DUP2 MSTORE PUSH1 0x4 ADD PUSH2 0x638 SWAP1 PUSH2 0x3F3E JUMP JUMPDEST PUSH2 0xA98 DUP3 PUSH1 0x1 PUSH2 0x26E0 JUMP JUMPDEST DUP4 SSTORE PUSH2 0xAA2 PUSH2 0xF3D JUMP JUMPDEST PUSH1 0x1 PUSH1 0x1 PUSH1 0xA0 SHL SUB AND PUSH4 0x23B872DD CALLER ADDRESS DUP5 PUSH1 0x40 MLOAD DUP5 PUSH4 0xFFFFFFFF AND PUSH1 0xE0 SHL DUP2 MSTORE PUSH1 0x4 ADD PUSH2 0xAD1 SWAP4 SWAP3 SWAP2 SWAP1 PUSH2 0x3B98 JUMP JUMPDEST PUSH1 0x20 PUSH1 0x40 MLOAD DUP1 DUP4 SUB DUP2 PUSH1 0x0 DUP8 DUP1 EXTCODESIZE ISZERO DUP1 ISZERO PUSH2 0xAEB JUMPI PUSH1 0x0 DUP1 REVERT JUMPDEST POP GAS CALL ISZERO DUP1 ISZERO PUSH2 0xAFF JUMPI RETURNDATASIZE PUSH1 0x0 DUP1 RETURNDATACOPY RETURNDATASIZE PUSH1 0x0 REVERT JUMPDEST POP POP POP POP PUSH1 0x40 MLOAD RETURNDATASIZE PUSH1 0x1F NOT PUSH1 0x1F DUP3 ADD AND DUP3 ADD DUP1 PUSH1 0x40 MSTORE POP DUP2 ADD SWAP1 PUSH2 0xB23 SWAP2 SWAP1 PUSH2 0x3A0E JUMP JUMPDEST POP PUSH2 0xB2C PUSH2 0xF3D JUMP JUMPDEST PUSH1 0x1 PUSH1 0x1 PUSH1 0xA0 SHL SUB AND PUSH4 0xA9059CBB PUSH2 0xB42 PUSH2 0x1E03 JUMP JUMPDEST DUP4 PUSH1 0x40 MLOAD DUP4 PUSH4 0xFFFFFFFF AND PUSH1 0xE0 SHL DUP2 MSTORE PUSH1 0x4 ADD PUSH2 0x7E3 SWAP3 SWAP2 SWAP1 PUSH2 0x3B7F JUMP JUMPDEST CALLER PUSH1 0x0 SWAP1 DUP2 MSTORE PUSH1 0xA PUSH1 0x20 MSTORE PUSH1 0x40 DUP2 KECCAK256 SLOAD PUSH1 0x6 SLOAD CALLVALUE SWAP3 SWAP1 PUSH2 0xB81 SWAP1 DUP5 SWAP1 PUSH2 0x26EC JUMP JUMPDEST SWAP1 POP PUSH1 0x3 DUP3 LT PUSH2 0xBA3 JUMPI PUSH1 0x40 MLOAD PUSH3 0x461BCD PUSH1 0xE5 SHL DUP2 MSTORE PUSH1 0x4 ADD PUSH2 0x638 SWAP1 PUSH2 0x3DCF JUMP JUMPDEST DUP3 PUSH2 0xBC0 JUMPI PUSH1 0x40 MLOAD PUSH3 0x461BCD PUSH1 0xE5 SHL DUP2 MSTORE PUSH1 0x4 ADD PUSH2 0x638 SWAP1 PUSH2 0x4134 JUMP JUMPDEST PUSH1 0x6 SLOAD DUP4 LT ISZERO PUSH2 0xBE2 JUMPI PUSH1 0x40 MLOAD PUSH3 0x461BCD PUSH1 0xE5 SHL DUP2 MSTORE PUSH1 0x4 ADD PUSH2 0x638 SWAP1 PUSH2 0x3CA0 JUMP JUMPDEST PUSH2 0xBED DUP3 PUSH1 0x1 PUSH2 0x26E0 JUMP JUMPDEST CALLER PUSH1 0x0 SWAP1 DUP2 MSTORE PUSH1 0xA PUSH1 0x20 MSTORE PUSH1 0x40 SWAP1 KECCAK256 SSTORE PUSH2 0xC05 PUSH2 0x26F8 JUMP JUMPDEST PUSH2 0xC0D PUSH2 0x1E03 JUMP JUMPDEST PUSH1 0x1 PUSH1 0x1 PUSH1 0xA0 SHL SUB AND PUSH2 0x8FC DUP5 SWAP1 DUP2 ISZERO MUL SWAP1 PUSH1 0x40 MLOAD PUSH1 0x0 PUSH1 0x40 MLOAD DUP1 DUP4 SUB DUP2 DUP6 DUP9 DUP9 CALL SWAP4 POP POP POP POP ISZERO DUP1 ISZERO PUSH2 0xC45 JUMPI RETURNDATASIZE PUSH1 0x0 DUP1 RETURNDATACOPY RETURNDATASIZE PUSH1 0x0 REVERT JUMPDEST POP PUSH1 0x40 MLOAD CALLER SWAP1 DUP3 ISZERO PUSH2 0x8FC MUL SWAP1 DUP4 SWAP1 PUSH1 0x0 DUP2 DUP2 DUP2 DUP6 DUP9 DUP9 CALL SWAP4 POP POP POP POP ISZERO DUP1 ISZERO PUSH2 0xC73 JUMPI RETURNDATASIZE PUSH1 0x0 DUP1 RETURNDATACOPY RETURNDATASIZE PUSH1 0x0 REVERT JUMPDEST POP POP POP POP JUMP JUMPDEST PUSH1 0x0 DUP2 PUSH1 0x0 PUSH2 0xC86 PUSH2 0x1BEC JUMP JUMPDEST PUSH1 0x1 PUSH1 0x1 PUSH1 0xA0 SHL SUB AND PUSH4 0x6352211E DUP4 PUSH1 0x40 MLOAD DUP3 PUSH4 0xFFFFFFFF AND PUSH1 0xE0 SHL DUP2 MSTORE PUSH1 0x4 ADD PUSH2 0xCB1 SWAP2 SWAP1 PUSH2 0x428D JUMP JUMPDEST PUSH1 0x20 PUSH1 0x40 MLOAD DUP1 DUP4 SUB DUP2 DUP7 DUP1 EXTCODESIZE ISZERO DUP1 ISZERO PUSH2 0xCC9 JUMPI PUSH1 0x0 DUP1 REVERT JUMPDEST POP GAS STATICCALL ISZERO DUP1 ISZERO PUSH2 0xCDD JUMPI RETURNDATASIZE PUSH1 0x0 DUP1 RETURNDATACOPY RETURNDATASIZE PUSH1 0x0 REVERT JUMPDEST POP POP POP POP PUSH1 0x40 MLOAD RETURNDATASIZE PUSH1 0x1F NOT PUSH1 0x1F DUP3 ADD AND DUP3 ADD DUP1 PUSH1 0x40 MSTORE POP DUP2 ADD SWAP1 PUSH2 0xD01 SWAP2 SWAP1 PUSH2 0x3985 JUMP JUMPDEST SWAP1 POP PUSH1 0x1 PUSH1 0x1 PUSH1 0xA0 SHL SUB DUP2 AND ADDRESS EQ PUSH2 0xD2B JUMPI PUSH1 0x40 MLOAD PUSH3 0x461BCD PUSH1 0xE5 SHL DUP2 MSTORE PUSH1 0x4 ADD PUSH2 0x638 SWAP1 PUSH2 0x4163 JUMP JUMPDEST PUSH1 0x0 PUSH1 0xB PUSH1 0x0 DUP7 DUP2 MSTORE PUSH1 0x20 ADD SWAP1 DUP2 MSTORE PUSH1 0x20 ADD PUSH1 0x0 KECCAK256 PUSH1 0x40 MLOAD DUP1 PUSH1 0xA0 ADD PUSH1 0x40 MSTORE SWAP1 DUP2 PUSH1 0x0 DUP3 ADD SLOAD DUP2 MSTORE PUSH1 0x20 ADD PUSH1 0x1 DUP3 ADD DUP1 SLOAD PUSH2 0xD65 SWAP1 PUSH2 0x42F8 JUMP JUMPDEST DUP1 PUSH1 0x1F ADD PUSH1 0x20 DUP1 SWAP2 DIV MUL PUSH1 0x20 ADD PUSH1 0x40 MLOAD SWAP1 DUP2 ADD PUSH1 0x40 MSTORE DUP1 SWAP3 SWAP2 SWAP1 DUP2 DUP2 MSTORE PUSH1 0x20 ADD DUP3 DUP1 SLOAD PUSH2 0xD91 SWAP1 PUSH2 0x42F8 JUMP JUMPDEST DUP1 ISZERO PUSH2 0xDDE JUMPI DUP1 PUSH1 0x1F LT PUSH2 0xDB3 JUMPI PUSH2 0x100 DUP1 DUP4 SLOAD DIV MUL DUP4 MSTORE SWAP2 PUSH1 0x20 ADD SWAP2 PUSH2 0xDDE JUMP JUMPDEST DUP3 ADD SWAP2 SWAP1 PUSH1 0x0 MSTORE PUSH1 0x20 PUSH1 0x0 KECCAK256 SWAP1 JUMPDEST DUP2 SLOAD DUP2 MSTORE SWAP1 PUSH1 0x1 ADD SWAP1 PUSH1 0x20 ADD DUP1 DUP4 GT PUSH2 0xDC1 JUMPI DUP3 SWAP1 SUB PUSH1 0x1F AND DUP3 ADD SWAP2 JUMPDEST POP POP POP SWAP2 DUP4 MSTORE POP POP PUSH1 0x2 DUP3 ADD SLOAD PUSH1 0x20 DUP1 DUP4 ADD SWAP2 SWAP1 SWAP2 MSTORE PUSH1 0x3 DUP4 ADD SLOAD PUSH1 0x40 DUP1 DUP5 ADD SWAP2 SWAP1 SWAP2 MSTORE DUP1 MLOAD PUSH1 0xC0 DUP2 ADD DUP3 MSTORE PUSH1 0x4 DUP6 ADD SLOAD PUSH1 0xFF DUP1 DUP3 AND ISZERO ISZERO DUP4 MSTORE PUSH2 0x100 DUP3 DIV DUP2 AND ISZERO ISZERO DUP4 DUP7 ADD MSTORE PUSH3 0x10000 DUP3 DIV AND ISZERO ISZERO DUP3 DUP5 ADD MSTORE PUSH1 0x1 PUSH1 0x1 PUSH1 0xA0 SHL SUB PUSH4 0x1000000 SWAP1 SWAP2 DIV DUP2 AND PUSH1 0x60 DUP4 DUP2 ADD SWAP2 SWAP1 SWAP2 MSTORE DUP4 MLOAD DUP1 DUP6 ADD DUP6 MSTORE PUSH1 0x5 DUP9 ADD SLOAD DUP4 AND DUP2 MSTORE PUSH1 0x6 DUP9 ADD SLOAD DUP2 DUP8 ADD MSTORE PUSH1 0x80 DUP5 ADD MSTORE DUP4 MLOAD DUP1 DUP6 ADD SWAP1 SWAP5 MSTORE PUSH1 0x7 DUP8 ADD SLOAD DUP5 MSTORE PUSH1 0x8 SWAP1 SWAP7 ADD SLOAD AND SWAP3 DUP3 ADD SWAP3 SWAP1 SWAP3 MSTORE PUSH1 0xA0 DUP3 ADD MSTORE SWAP2 ADD MSTORE SWAP1 POP PUSH2 0xE9A PUSH2 0xF4C JUMP JUMPDEST PUSH2 0xF29 JUMPI PUSH1 0x0 PUSH2 0xEAC PUSH1 0x0 PUSH1 0x1 PUSH2 0x295F JUMP JUMPDEST SWAP1 POP PUSH1 0x0 PUSH2 0xEC4 PUSH1 0xC SLOAD PUSH2 0xEBE PUSH2 0x2D2B JUMP JUMPDEST SWAP1 PUSH2 0x26EC JUMP JUMPDEST SWAP1 POP PUSH1 0x0 PUSH2 0xEE9 DUP3 PUSH2 0xEE3 PUSH10 0x1A784379D99DB4200000 PUSH3 0x2819A0 PUSH2 0x2D2F JUMP JUMPDEST SWAP1 PUSH2 0x26CD JUMP JUMPDEST SWAP1 POP PUSH1 0x0 PUSH2 0xEF8 DUP10 PUSH1 0x0 PUSH2 0x295F JUMP JUMPDEST SWAP1 POP PUSH1 0x0 PUSH2 0xF0A DUP3 PUSH2 0xEE3 DUP6 DUP9 PUSH2 0x2D2F JUMP JUMPDEST PUSH1 0x60 DUP8 ADD MLOAD SWAP1 SWAP2 POP PUSH2 0xF1C SWAP1 DUP3 PUSH2 0x26E0 JUMP JUMPDEST SWAP9 POP POP POP POP POP POP POP PUSH2 0xF30 JUMP JUMPDEST PUSH1 0x60 ADD MLOAD SWAP3 POP JUMPDEST POP POP SWAP2 SWAP1 POP JUMP JUMPDEST PUSH1 0x7 SLOAD DUP2 JUMP JUMPDEST PUSH1 0x2 SLOAD PUSH1 0x1 PUSH1 0x1 PUSH1 0xA0 SHL SUB AND SWAP1 JUMP JUMPDEST PUSH1 0x5 SLOAD PUSH1 0x1 PUSH1 0xA8 SHL SWAP1 DIV PUSH1 0xFF AND SWAP1 JUMP JUMPDEST PUSH1 0x5 SLOAD PUSH1 0x1 PUSH1 0x1 PUSH1 0xA0 SHL SUB AND DUP2 JUMP JUMPDEST DUP1 PUSH1 0x0 PUSH2 0xF76 PUSH2 0x1BEC JUMP JUMPDEST PUSH1 0x1 PUSH1 0x1 PUSH1 0xA0 SHL SUB AND PUSH4 0x6352211E DUP4 PUSH1 0x40 MLOAD DUP3 PUSH4 0xFFFFFFFF AND PUSH1 0xE0 SHL DUP2 MSTORE PUSH1 0x4 ADD PUSH2 0xFA1 SWAP2 SWAP1 PUSH2 0x428D JUMP JUMPDEST PUSH1 0x20 PUSH1 0x40 MLOAD DUP1 DUP4 SUB DUP2 DUP7 DUP1 EXTCODESIZE ISZERO DUP1 ISZERO PUSH2 0xFB9 JUMPI PUSH1 0x0 DUP1 REVERT JUMPDEST POP GAS STATICCALL ISZERO DUP1 ISZERO PUSH2 0xFCD JUMPI RETURNDATASIZE PUSH1 0x0 DUP1 RETURNDATACOPY RETURNDATASIZE PUSH1 0x0 REVERT JUMPDEST POP POP POP POP PUSH1 0x40 MLOAD RETURNDATASIZE PUSH1 0x1F NOT PUSH1 0x1F DUP3 ADD AND DUP3 ADD DUP1 PUSH1 0x40 MSTORE POP DUP2 ADD SWAP1 PUSH2 0xFF1 SWAP2 SWAP1 PUSH2 0x3985 JUMP JUMPDEST SWAP1 POP PUSH1 0x1 PUSH1 0x1 PUSH1 0xA0 SHL SUB DUP2 AND ADDRESS EQ PUSH2 0x101B JUMPI PUSH1 0x40 MLOAD PUSH3 0x461BCD PUSH1 0xE5 SHL DUP2 MSTORE PUSH1 0x4 ADD PUSH2 0x638 SWAP1 PUSH2 0x4163 JUMP JUMPDEST PUSH1 0x0 DUP4 DUP2 MSTORE PUSH1 0xB PUSH1 0x20 MSTORE PUSH1 0x40 DUP2 KECCAK256 SWAP1 PUSH2 0x1032 PUSH2 0x2D2B JUMP JUMPDEST SWAP1 POP PUSH1 0x0 PUSH2 0x1043 DUP3 PUSH3 0x93A80 PUSH2 0x26E0 JUMP JUMPDEST PUSH1 0x4 DUP5 ADD SLOAD SWAP1 SWAP2 POP PUSH2 0x100 SWAP1 DIV PUSH1 0xFF AND ISZERO PUSH2 0x1070 JUMPI PUSH1 0x40 MLOAD PUSH3 0x461BCD PUSH1 0xE5 SHL DUP2 MSTORE PUSH1 0x4 ADD PUSH2 0x638 SWAP1 PUSH2 0x40C6 JUMP JUMPDEST PUSH1 0x4 DUP4 ADD SLOAD PUSH3 0x10000 SWAP1 DIV PUSH1 0xFF AND ISZERO PUSH2 0x109B JUMPI PUSH1 0x40 MLOAD PUSH3 0x461BCD PUSH1 0xE5 SHL DUP2 MSTORE PUSH1 0x4 ADD PUSH2 0x638 SWAP1 PUSH2 0x40C6 JUMP JUMPDEST PUSH1 0x4 DUP4 ADD SLOAD PUSH1 0xFF AND ISZERO PUSH2 0x10FD JUMPI PUSH1 0x7 DUP4 ADD SLOAD DUP2 GT ISZERO PUSH2 0x10CC JUMPI PUSH1 0x40 MLOAD PUSH3 0x461BCD PUSH1 0xE5 SHL DUP2 MSTORE PUSH1 0x4 ADD PUSH2 0x638 SWAP1 PUSH2 0x3CD7 JUMP JUMPDEST PUSH1 0x8 DUP4 ADD SLOAD PUSH1 0x1 PUSH1 0x1 PUSH1 0xA0 SHL SUB AND CALLER EQ PUSH2 0x10F8 JUMPI PUSH1 0x40 MLOAD PUSH3 0x461BCD PUSH1 0xE5 SHL DUP2 MSTORE PUSH1 0x4 ADD PUSH2 0x638 SWAP1 PUSH2 0x419A JUMP JUMPDEST PUSH2 0x1130 JUMP JUMPDEST PUSH1 0x4 DUP4 ADD SLOAD PUSH4 0x1000000 SWAP1 DIV PUSH1 0x1 PUSH1 0x1 PUSH1 0xA0 SHL SUB AND CALLER EQ PUSH2 0x1130 JUMPI PUSH1 0x40 MLOAD PUSH3 0x461BCD PUSH1 0xE5 SHL DUP2 MSTORE PUSH1 0x4 ADD PUSH2 0x638 SWAP1 PUSH2 0x41DD JUMP JUMPDEST PUSH1 0x4 DUP4 ADD DUP1 SLOAD PUSH2 0xFF00 NOT AND PUSH2 0x100 OR SWAP1 SSTORE PUSH1 0x5 DUP4 ADD DUP1 SLOAD PUSH1 0x1 PUSH1 0x1 PUSH1 0xA0 SHL SUB NOT AND CALLER OR SWAP1 SSTORE PUSH1 0x6 SWAP1 SWAP3 ADD SWAP2 SWAP1 SWAP2 SSTORE POP POP POP POP JUMP JUMPDEST DUP1 PUSH1 0x0 PUSH2 0x116F PUSH2 0x1BEC JUMP JUMPDEST PUSH1 0x1 PUSH1 0x1 PUSH1 0xA0 SHL SUB AND PUSH4 0x6352211E DUP4 PUSH1 0x40 MLOAD DUP3 PUSH4 0xFFFFFFFF AND PUSH1 0xE0 SHL DUP2 MSTORE PUSH1 0x4 ADD PUSH2 0x119A SWAP2 SWAP1 PUSH2 0x428D JUMP JUMPDEST PUSH1 0x20 PUSH1 0x40 MLOAD DUP1 DUP4 SUB DUP2 DUP7 DUP1 EXTCODESIZE ISZERO DUP1 ISZERO PUSH2 0x11B2 JUMPI PUSH1 0x0 DUP1 REVERT JUMPDEST POP GAS STATICCALL ISZERO DUP1 ISZERO PUSH2 0x11C6 JUMPI RETURNDATASIZE PUSH1 0x0 DUP1 RETURNDATACOPY RETURNDATASIZE PUSH1 0x0 REVERT JUMPDEST POP POP POP POP PUSH1 0x40 MLOAD RETURNDATASIZE PUSH1 0x1F NOT PUSH1 0x1F DUP3 ADD AND DUP3 ADD DUP1 PUSH1 0x40 MSTORE POP DUP2 ADD SWAP1 PUSH2 0x11EA SWAP2 SWAP1 PUSH2 0x3985 JUMP JUMPDEST SWAP1 POP PUSH1 0x1 PUSH1 0x1 PUSH1 0xA0 SHL SUB DUP2 AND ADDRESS EQ PUSH2 0x1214 JUMPI PUSH1 0x40 MLOAD PUSH3 0x461BCD PUSH1 0xE5 SHL DUP2 MSTORE PUSH1 0x4 ADD PUSH2 0x638 SWAP1 PUSH2 0x4163 JUMP JUMPDEST CALLER PUSH1 0x0 SWAP1 DUP2 MSTORE PUSH1 0xE PUSH1 0x20 MSTORE PUSH1 0x40 SWAP1 KECCAK256 SLOAD PUSH2 0x1240 JUMPI PUSH1 0x40 MLOAD PUSH3 0x461BCD PUSH1 0xE5 SHL DUP2 MSTORE PUSH1 0x4 ADD PUSH2 0x638 SWAP1 PUSH2 0x408F JUMP JUMPDEST CALLER PUSH1 0x0 SWAP1 DUP2 MSTORE PUSH1 0xE PUSH1 0x20 SWAP1 DUP2 MSTORE PUSH1 0x40 DUP1 DUP4 KECCAK256 DUP4 SWAP1 SSTORE DUP6 DUP4 MSTORE PUSH1 0xD SWAP1 SWAP2 MSTORE DUP2 KECCAK256 SWAP1 JUMPDEST DUP2 SLOAD DUP2 LT ISZERO PUSH2 0x15F2 JUMPI CALLER PUSH1 0x1 PUSH1 0x1 PUSH1 0xA0 SHL SUB AND DUP3 DUP3 DUP2 SLOAD DUP2 LT PUSH2 0x1294 JUMPI PUSH4 0x4E487B71 PUSH1 0xE0 SHL PUSH1 0x0 MSTORE PUSH1 0x32 PUSH1 0x4 MSTORE PUSH1 0x24 PUSH1 0x0 REVERT JUMPDEST PUSH1 0x0 SWAP2 DUP3 MSTORE PUSH1 0x20 SWAP1 SWAP2 KECCAK256 PUSH1 0x2 SWAP1 SWAP2 MUL ADD SLOAD PUSH1 0x1 PUSH1 0x1 PUSH1 0xA0 SHL SUB AND EQ ISZERO PUSH2 0x15E0 JUMPI DUP2 DUP2 DUP2 SLOAD DUP2 LT PUSH2 0x12D4 JUMPI PUSH4 0x4E487B71 PUSH1 0xE0 SHL PUSH1 0x0 MSTORE PUSH1 0x32 PUSH1 0x4 MSTORE PUSH1 0x24 PUSH1 0x0 REVERT JUMPDEST PUSH1 0x0 SWAP2 DUP3 MSTORE PUSH1 0x20 DUP3 KECCAK256 PUSH1 0x2 SWAP1 SWAP2 MUL ADD DUP1 SLOAD PUSH1 0x1 PUSH1 0x1 PUSH1 0xA0 SHL SUB NOT AND DUP2 SSTORE PUSH1 0x1 SWAP1 DUP2 ADD SWAP2 SWAP1 SWAP2 SSTORE DUP3 SLOAD EQ DUP1 PUSH2 0x1314 JUMPI POP DUP2 SLOAD DUP2 SWAP1 PUSH2 0x1312 SWAP1 PUSH1 0x1 PUSH2 0x26EC JUMP JUMPDEST EQ JUMPDEST ISZERO PUSH2 0x1365 JUMPI DUP2 DUP1 SLOAD DUP1 PUSH2 0x1337 JUMPI PUSH4 0x4E487B71 PUSH1 0xE0 SHL PUSH1 0x0 MSTORE PUSH1 0x31 PUSH1 0x4 MSTORE PUSH1 0x24 PUSH1 0x0 REVERT JUMPDEST PUSH1 0x0 DUP3 DUP2 MSTORE PUSH1 0x20 DUP2 KECCAK256 PUSH1 0x2 PUSH1 0x0 NOT SWAP1 SWAP4 ADD SWAP3 DUP4 MUL ADD DUP1 SLOAD PUSH1 0x1 PUSH1 0x1 PUSH1 0xA0 SHL SUB NOT AND DUP2 SSTORE PUSH1 0x1 ADD SSTORE SWAP1 SSTORE PUSH2 0x1473 JUMP JUMPDEST DUP2 SLOAD PUSH1 0x0 SWAP1 DUP4 SWAP1 PUSH2 0x1377 SWAP1 PUSH1 0x1 PUSH2 0x26EC JUMP JUMPDEST DUP2 SLOAD DUP2 LT PUSH2 0x1395 JUMPI PUSH4 0x4E487B71 PUSH1 0xE0 SHL PUSH1 0x0 MSTORE PUSH1 0x32 PUSH1 0x4 MSTORE PUSH1 0x24 PUSH1 0x0 REVERT JUMPDEST PUSH1 0x0 SWAP2 DUP3 MSTORE PUSH1 0x20 SWAP2 DUP3 SWAP1 KECCAK256 PUSH1 0x40 DUP1 MLOAD DUP1 DUP3 ADD SWAP1 SWAP2 MSTORE PUSH1 0x2 SWAP1 SWAP3 MUL ADD DUP1 SLOAD PUSH1 0x1 PUSH1 0x1 PUSH1 0xA0 SHL SUB AND DUP3 MSTORE PUSH1 0x1 ADD SLOAD SWAP2 DUP2 ADD SWAP2 SWAP1 SWAP2 MSTORE DUP4 SLOAD SWAP1 SWAP2 POP DUP2 SWAP1 DUP5 SWAP1 DUP5 SWAP1 DUP2 LT PUSH2 0x13EF JUMPI PUSH4 0x4E487B71 PUSH1 0xE0 SHL PUSH1 0x0 MSTORE PUSH1 0x32 PUSH1 0x4 MSTORE PUSH1 0x24 PUSH1 0x0 REVERT JUMPDEST PUSH1 0x0 SWAP2 DUP3 MSTORE PUSH1 0x20 SWAP2 DUP3 SWAP1 KECCAK256 DUP4 MLOAD PUSH1 0x2 SWAP3 SWAP1 SWAP3 MUL ADD DUP1 SLOAD PUSH1 0x1 PUSH1 0x1 PUSH1 0xA0 SHL SUB NOT AND PUSH1 0x1 PUSH1 0x1 PUSH1 0xA0 SHL SUB SWAP1 SWAP3 AND SWAP2 SWAP1 SWAP2 OR DUP2 SSTORE SWAP2 ADD MLOAD PUSH1 0x1 SWAP1 SWAP2 ADD SSTORE DUP3 SLOAD DUP4 SWAP1 DUP1 PUSH2 0x1448 JUMPI PUSH4 0x4E487B71 PUSH1 0xE0 SHL PUSH1 0x0 MSTORE PUSH1 0x31 PUSH1 0x4 MSTORE PUSH1 0x24 PUSH1 0x0 REVERT JUMPDEST PUSH1 0x0 DUP3 DUP2 MSTORE PUSH1 0x20 DUP2 KECCAK256 PUSH1 0x2 PUSH1 0x0 NOT SWAP1 SWAP4 ADD SWAP3 DUP4 MUL ADD DUP1 SLOAD PUSH1 0x1 PUSH1 0x1 PUSH1 0xA0 SHL SUB NOT AND DUP2 SSTORE PUSH1 0x1 ADD SSTORE SWAP1 SSTORE POP JUMPDEST PUSH1 0x0 PUSH2 0x14C0 PUSH7 0x38D7EA4C68000 DUP5 DUP5 DUP2 SLOAD DUP2 LT PUSH2 0x14A0 JUMPI PUSH4 0x4E487B71 PUSH1 0xE0 SHL PUSH1 0x0 MSTORE PUSH1 0x32 PUSH1 0x4 MSTORE PUSH1 0x24 PUSH1 0x0 REVERT JUMPDEST SWAP1 PUSH1 0x0 MSTORE PUSH1 0x20 PUSH1 0x0 KECCAK256 SWAP1 PUSH1 0x2 MUL ADD PUSH1 0x1 ADD SLOAD PUSH2 0x26CD SWAP1 SWAP2 SWAP1 PUSH4 0xFFFFFFFF AND JUMP JUMPDEST SWAP1 POP PUSH2 0x14CA PUSH2 0xF3D JUMP JUMPDEST PUSH1 0x5 SLOAD PUSH1 0x40 MLOAD PUSH4 0x23B872DD PUSH1 0xE0 SHL DUP2 MSTORE PUSH1 0x1 PUSH1 0x1 PUSH1 0xA0 SHL SUB SWAP3 DUP4 AND SWAP3 PUSH4 0x23B872DD SWAP3 PUSH2 0x14FF SWAP3 SWAP2 AND SWAP1 ADDRESS SWAP1 DUP7 SWAP1 PUSH1 0x4 ADD PUSH2 0x3B98 JUMP JUMPDEST PUSH1 0x20 PUSH1 0x40 MLOAD DUP1 DUP4 SUB DUP2 PUSH1 0x0 DUP8 DUP1 EXTCODESIZE ISZERO DUP1 ISZERO PUSH2 0x1519 JUMPI PUSH1 0x0 DUP1 REVERT JUMPDEST POP GAS CALL ISZERO DUP1 ISZERO PUSH2 0x152D JUMPI RETURNDATASIZE PUSH1 0x0 DUP1 RETURNDATACOPY RETURNDATASIZE PUSH1 0x0 REVERT JUMPDEST POP POP POP POP PUSH1 0x40 MLOAD RETURNDATASIZE PUSH1 0x1F NOT PUSH1 0x1F DUP3 ADD AND DUP3 ADD DUP1 PUSH1 0x40 MSTORE POP DUP2 ADD SWAP1 PUSH2 0x1551 SWAP2 SWAP1 PUSH2 0x3A0E JUMP JUMPDEST POP PUSH2 0x155A PUSH2 0xF3D JUMP JUMPDEST PUSH1 0x1 PUSH1 0x1 PUSH1 0xA0 SHL SUB AND PUSH4 0xA9059CBB CALLER DUP4 PUSH1 0x40 MLOAD DUP4 PUSH4 0xFFFFFFFF AND PUSH1 0xE0 SHL DUP2 MSTORE PUSH1 0x4 ADD PUSH2 0x1587 SWAP3 SWAP2 SWAP1 PUSH2 0x3B7F JUMP JUMPDEST PUSH1 0x20 PUSH1 0x40 MLOAD DUP1 DUP4 SUB DUP2 PUSH1 0x0 DUP8 DUP1 EXTCODESIZE ISZERO DUP1 ISZERO PUSH2 0x15A1 JUMPI PUSH1 0x0 DUP1 REVERT JUMPDEST POP GAS CALL ISZERO DUP1 ISZERO PUSH2 0x15B5 JUMPI RETURNDATASIZE PUSH1 0x0 DUP1 RETURNDATACOPY RETURNDATASIZE PUSH1 0x0 REVERT JUMPDEST POP POP POP POP PUSH1 0x40 MLOAD RETURNDATASIZE PUSH1 0x1F NOT PUSH1 0x1F DUP3 ADD AND DUP3 ADD DUP1 PUSH1 0x40 MSTORE POP DUP2 ADD SWAP1 PUSH2 0x15D9 SWAP2 SWAP1 PUSH2 0x3A0E JUMP JUMPDEST POP POP PUSH2 0x15F2 JUMP JUMPDEST DUP1 PUSH2 0x15EA DUP2 PUSH2 0x4333 JUMP JUMPDEST SWAP2 POP POP PUSH2 0x1261 JUMP JUMPDEST POP POP POP POP POP JUMP JUMPDEST PUSH3 0x2819A0 DUP2 JUMP JUMPDEST PUSH1 0x6 SLOAD DUP2 JUMP JUMPDEST PUSH2 0x160E PUSH2 0x1BEC JUMP JUMPDEST PUSH1 0x1 PUSH1 0x1 PUSH1 0xA0 SHL SUB AND PUSH4 0x42966C68 DUP3 PUSH1 0x40 MLOAD DUP3 PUSH4 0xFFFFFFFF AND PUSH1 0xE0 SHL DUP2 MSTORE PUSH1 0x4 ADD PUSH2 0x1639 SWAP2 SWAP1 PUSH2 0x428D JUMP JUMPDEST PUSH1 0x0 PUSH1 0x40 MLOAD DUP1 DUP4 SUB DUP2 PUSH1 0x0 DUP8 DUP1 EXTCODESIZE ISZERO DUP1 ISZERO PUSH2 0x1653 JUMPI PUSH1 0x0 DUP1 REVERT JUMPDEST POP GAS CALL ISZERO DUP1 ISZERO PUSH2 0x15F2 JUMPI RETURNDATASIZE PUSH1 0x0 DUP1 RETURNDATACOPY RETURNDATASIZE PUSH1 0x0 REVERT JUMPDEST DUP1 PUSH1 0x0 PUSH2 0x1672 PUSH2 0x1BEC JUMP JUMPDEST PUSH1 0x1 PUSH1 0x1 PUSH1 0xA0 SHL SUB AND PUSH4 0x6352211E DUP4 PUSH1 0x40 MLOAD DUP3 PUSH4 0xFFFFFFFF AND PUSH1 0xE0 SHL DUP2 MSTORE PUSH1 0x4 ADD PUSH2 0x169D SWAP2 SWAP1 PUSH2 0x428D JUMP JUMPDEST PUSH1 0x20 PUSH1 0x40 MLOAD DUP1 DUP4 SUB DUP2 DUP7 DUP1 EXTCODESIZE ISZERO DUP1 ISZERO PUSH2 0x16B5 JUMPI PUSH1 0x0 DUP1 REVERT JUMPDEST POP GAS STATICCALL ISZERO DUP1 ISZERO PUSH2 0x16C9 JUMPI RETURNDATASIZE PUSH1 0x0 DUP1 RETURNDATACOPY RETURNDATASIZE PUSH1 0x0 REVERT JUMPDEST POP POP POP POP PUSH1 0x40 MLOAD RETURNDATASIZE PUSH1 0x1F NOT PUSH1 0x1F DUP3 ADD AND DUP3 ADD DUP1 PUSH1 0x40 MSTORE POP DUP2 ADD SWAP1 PUSH2 0x16ED SWAP2 SWAP1 PUSH2 0x3985 JUMP JUMPDEST SWAP1 POP PUSH1 0x1 PUSH1 0x1 PUSH1 0xA0 SHL SUB DUP2 AND ADDRESS EQ PUSH2 0x1717 JUMPI PUSH1 0x40 MLOAD PUSH3 0x461BCD PUSH1 0xE5 SHL DUP2 MSTORE PUSH1 0x4 ADD PUSH2 0x638 SWAP1 PUSH2 0x4163 JUMP JUMPDEST PUSH1 0x0 DUP4 DUP2 MSTORE PUSH1 0xB PUSH1 0x20 MSTORE PUSH1 0x40 SWAP1 KECCAK256 PUSH1 0x4 DUP2 ADD SLOAD PUSH1 0xFF AND ISZERO PUSH2 0x174A JUMPI PUSH1 0x40 MLOAD PUSH3 0x461BCD PUSH1 0xE5 SHL DUP2 MSTORE PUSH1 0x4 ADD PUSH2 0x638 SWAP1 PUSH2 0x3E3B JUMP JUMPDEST PUSH1 0x4 DUP2 ADD SLOAD PUSH2 0x100 SWAP1 DIV PUSH1 0xFF AND ISZERO PUSH2 0x1774 JUMPI PUSH1 0x40 MLOAD PUSH3 0x461BCD PUSH1 0xE5 SHL DUP2 MSTORE PUSH1 0x4 ADD PUSH2 0x638 SWAP1 PUSH2 0x3F75 JUMP JUMPDEST PUSH1 0x4 DUP2 ADD SLOAD PUSH3 0x10000 SWAP1 DIV PUSH1 0xFF AND ISZERO PUSH2 0x179F JUMPI PUSH1 0x40 MLOAD PUSH3 0x461BCD PUSH1 0xE5 SHL DUP2 MSTORE PUSH1 0x4 ADD PUSH2 0x638 SWAP1 PUSH2 0x40FD JUMP JUMPDEST PUSH2 0x17A7 PUSH2 0x2D3B JUMP JUMPDEST PUSH1 0x3 DUP2 ADD DUP1 SLOAD PUSH1 0x4 DUP4 ADD DUP1 SLOAD PUSH4 0x1000000 PUSH1 0x1 PUSH1 0xB8 SHL SUB NOT AND SWAP1 SSTORE PUSH1 0x0 SWAP1 SWAP2 SSTORE PUSH2 0x17CF PUSH2 0x2D2B JUMP JUMPDEST PUSH1 0xC SSTORE PUSH2 0x17DA PUSH2 0xF3D JUMP JUMPDEST PUSH1 0x1 PUSH1 0x1 PUSH1 0xA0 SHL SUB AND PUSH4 0xA9059CBB CALLER DUP4 PUSH1 0x40 MLOAD DUP4 PUSH4 0xFFFFFFFF AND PUSH1 0xE0 SHL DUP2 MSTORE PUSH1 0x4 ADD PUSH2 0x1807 SWAP3 SWAP2 SWAP1 PUSH2 0x3B7F JUMP JUMPDEST PUSH1 0x20 PUSH1 0x40 MLOAD DUP1 DUP4 SUB DUP2 PUSH1 0x0 DUP8 DUP1 EXTCODESIZE ISZERO DUP1 ISZERO PUSH2 0x1821 JUMPI PUSH1 0x0 DUP1 REVERT JUMPDEST POP GAS CALL ISZERO DUP1 ISZERO PUSH2 0x1835 JUMPI RETURNDATASIZE PUSH1 0x0 DUP1 RETURNDATACOPY RETURNDATASIZE PUSH1 0x0 REVERT JUMPDEST POP POP POP POP PUSH1 0x40 MLOAD RETURNDATASIZE PUSH1 0x1F NOT PUSH1 0x1F DUP3 ADD AND DUP3 ADD DUP1 PUSH1 0x40 MSTORE POP DUP2 ADD SWAP1 PUSH2 0x1859 SWAP2 SWAP1 PUSH2 0x3A0E JUMP JUMPDEST POP PUSH2 0x1862 PUSH2 0x1BEC JUMP JUMPDEST PUSH1 0x1 PUSH1 0x1 PUSH1 0xA0 SHL SUB AND PUSH4 0x23B872DD ADDRESS CALLER DUP9 PUSH1 0x40 MLOAD DUP5 PUSH4 0xFFFFFFFF AND PUSH1 0xE0 SHL DUP2 MSTORE PUSH1 0x4 ADD PUSH2 0x1891 SWAP4 SWAP3 SWAP2 SWAP1 PUSH2 0x3B98 JUMP JUMPDEST PUSH1 0x0 PUSH1 0x40 MLOAD DUP1 DUP4 SUB DUP2 PUSH1 0x0 DUP8 DUP1 EXTCODESIZE ISZERO DUP1 ISZERO PUSH2 0x18AB JUMPI PUSH1 0x0 DUP1 REVERT JUMPDEST POP GAS CALL ISZERO DUP1 ISZERO PUSH2 0x18BF JUMPI RETURNDATASIZE PUSH1 0x0 DUP1 RETURNDATACOPY RETURNDATASIZE PUSH1 0x0 REVERT JUMPDEST POP POP POP POP POP POP POP POP POP JUMP JUMPDEST PUSH1 0x5 SLOAD PUSH1 0x1 PUSH1 0xA0 SHL SWAP1 DIV PUSH1 0xFF AND SWAP1 JUMP JUMPDEST DUP1 PUSH1 0x0 PUSH2 0x18E5 PUSH2 0x1BEC JUMP JUMPDEST PUSH1 0x1 PUSH1 0x1 PUSH1 0xA0 SHL SUB AND PUSH4 0x6352211E DUP4 PUSH1 0x40 MLOAD DUP3 PUSH4 0xFFFFFFFF AND PUSH1 0xE0 SHL DUP2 MSTORE PUSH1 0x4 ADD PUSH2 0x1910 SWAP2 SWAP1 PUSH2 0x428D JUMP JUMPDEST PUSH1 0x20 PUSH1 0x40 MLOAD DUP1 DUP4 SUB DUP2 DUP7 DUP1 EXTCODESIZE ISZERO DUP1 ISZERO PUSH2 0x1928 JUMPI PUSH1 0x0 DUP1 REVERT JUMPDEST POP GAS STATICCALL ISZERO DUP1 ISZERO PUSH2 0x193C JUMPI RETURNDATASIZE PUSH1 0x0 DUP1 RETURNDATACOPY RETURNDATASIZE PUSH1 0x0 REVERT JUMPDEST POP POP POP POP PUSH1 0x40 MLOAD RETURNDATASIZE PUSH1 0x1F NOT PUSH1 0x1F DUP3 ADD AND DUP3 ADD DUP1 PUSH1 0x40 MSTORE POP DUP2 ADD SWAP1 PUSH2 0x1960 SWAP2 SWAP1 PUSH2 0x3985 JUMP JUMPDEST SWAP1 POP PUSH1 0x1 PUSH1 0x1 PUSH1 0xA0 SHL SUB DUP2 AND ADDRESS EQ PUSH2 0x198A JUMPI PUSH1 0x40 MLOAD PUSH3 0x461BCD PUSH1 0xE5 SHL DUP2 MSTORE PUSH1 0x4 ADD PUSH2 0x638 SWAP1 PUSH2 0x4163 JUMP JUMPDEST PUSH1 0x0 DUP4 DUP2 MSTORE PUSH1 0xB PUSH1 0x20 MSTORE PUSH1 0x40 DUP2 KECCAK256 SWAP1 PUSH2 0x19A1 PUSH2 0x2D2B JUMP JUMPDEST PUSH1 0x4 DUP4 ADD SLOAD SWAP1 SWAP2 POP PUSH3 0x10000 SWAP1 DIV PUSH1 0xFF AND ISZERO PUSH2 0x19CF JUMPI PUSH1 0x40 MLOAD PUSH3 0x461BCD PUSH1 0xE5 SHL DUP2 MSTORE PUSH1 0x4 ADD PUSH2 0x638 SWAP1 PUSH2 0x4058 JUMP JUMPDEST PUSH1 0x8 DUP3 ADD SLOAD PUSH1 0x1 PUSH1 0x1 PUSH1 0xA0 SHL SUB AND CALLER EQ ISZERO PUSH2 0x19E9 JUMPI PUSH2 0x15F2 JUMP JUMPDEST PUSH1 0x4 DUP3 ADD SLOAD PUSH4 0x1000000 SWAP1 DIV PUSH1 0x1 PUSH1 0x1 PUSH1 0xA0 SHL SUB AND CALLER EQ PUSH2 0x1A1C JUMPI PUSH1 0x40 MLOAD PUSH3 0x461BCD PUSH1 0xE5 SHL DUP2 MSTORE PUSH1 0x4 ADD PUSH2 0x638 SWAP1 PUSH2 0x3D61 JUMP JUMPDEST PUSH1 0x7 DUP3 ADD SLOAD DUP2 LT ISZERO PUSH2 0x1A2D JUMPI PUSH1 0x0 DUP1 REVERT JUMPDEST POP PUSH1 0x4 DUP2 ADD DUP1 SLOAD PUSH1 0xFF NOT AND SWAP1 SSTORE PUSH1 0x0 PUSH1 0x7 DUP3 ADD SSTORE PUSH1 0x8 ADD DUP1 SLOAD PUSH1 0x1 PUSH1 0x1 PUSH1 0xA0 SHL SUB NOT AND SWAP1 SSTORE POP POP POP JUMP JUMPDEST DUP1 PUSH1 0x0 PUSH2 0x1A62 PUSH2 0x1BEC JUMP JUMPDEST PUSH1 0x1 PUSH1 0x1 PUSH1 0xA0 SHL SUB AND PUSH4 0x6352211E DUP4 PUSH1 0x40 MLOAD DUP3 PUSH4 0xFFFFFFFF AND PUSH1 0xE0 SHL DUP2 MSTORE PUSH1 0x4 ADD PUSH2 0x1A8D SWAP2 SWAP1 PUSH2 0x428D JUMP JUMPDEST PUSH1 0x20 PUSH1 0x40 MLOAD DUP1 DUP4 SUB DUP2 DUP7 DUP1 EXTCODESIZE ISZERO DUP1 ISZERO PUSH2 0x1AA5 JUMPI PUSH1 0x0 DUP1 REVERT JUMPDEST POP GAS STATICCALL ISZERO DUP1 ISZERO PUSH2 0x1AB9 JUMPI RETURNDATASIZE PUSH1 0x0 DUP1 RETURNDATACOPY RETURNDATASIZE PUSH1 0x0 REVERT JUMPDEST POP POP POP POP PUSH1 0x40 MLOAD RETURNDATASIZE PUSH1 0x1F NOT PUSH1 0x1F DUP3 ADD AND DUP3 ADD DUP1 PUSH1 0x40 MSTORE POP DUP2 ADD SWAP1 PUSH2 0x1ADD SWAP2 SWAP1 PUSH2 0x3985 JUMP JUMPDEST SWAP1 POP PUSH1 0x1 PUSH1 0x1 PUSH1 0xA0 SHL SUB DUP2 AND ADDRESS EQ PUSH2 0x1B07 JUMPI PUSH1 0x40 MLOAD PUSH3 0x461BCD PUSH1 0xE5 SHL DUP2 MSTORE PUSH1 0x4 ADD PUSH2 0x638 SWAP1 PUSH2 0x4163 JUMP JUMPDEST PUSH1 0x0 DUP4 DUP2 MSTORE PUSH1 0xB PUSH1 0x20 MSTORE PUSH1 0x40 SWAP1 KECCAK256 PUSH2 0x1B1D PUSH2 0x2D3B JUMP JUMPDEST PUSH1 0x3 DUP2 ADD DUP1 SLOAD PUSH1 0x0 SWAP1 SWAP2 SSTORE PUSH1 0x4 DUP3 ADD SLOAD PUSH3 0x10000 SWAP1 DIV PUSH1 0xFF AND PUSH2 0x1B52 JUMPI PUSH1 0x40 MLOAD PUSH3 0x461BCD PUSH1 0xE5 SHL DUP2 MSTORE PUSH1 0x4 ADD PUSH2 0x638 SWAP1 PUSH2 0x3D2A JUMP JUMPDEST PUSH2 0x1B5A PUSH2 0x2D2B JUMP JUMPDEST PUSH1 0xC SSTORE PUSH2 0x1B65 PUSH2 0xF3D JUMP JUMPDEST PUSH1 0x1 PUSH1 0x1 PUSH1 0xA0 SHL SUB AND PUSH4 0xA9059CBB CALLER DUP4 PUSH1 0x40 MLOAD DUP4 PUSH4 0xFFFFFFFF AND PUSH1 0xE0 SHL DUP2 MSTORE PUSH1 0x4 ADD PUSH2 0x1B92 SWAP3 SWAP2 SWAP1 PUSH2 0x3B7F JUMP JUMPDEST PUSH1 0x20 PUSH1 0x40 MLOAD DUP1 DUP4 SUB DUP2 PUSH1 0x0 DUP8 DUP1 EXTCODESIZE ISZERO DUP1 ISZERO PUSH2 0x1BAC JUMPI PUSH1 0x0 DUP1 REVERT JUMPDEST POP GAS CALL ISZERO DUP1 ISZERO PUSH2 0x1BC0 JUMPI RETURNDATASIZE PUSH1 0x0 DUP1 RETURNDATACOPY RETURNDATASIZE PUSH1 0x0 REVERT JUMPDEST POP POP POP POP PUSH1 0x40 MLOAD RETURNDATASIZE PUSH1 0x1F NOT PUSH1 0x1F DUP3 ADD AND DUP3 ADD DUP1 PUSH1 0x40 MSTORE POP DUP2 ADD SWAP1 PUSH2 0x1BE4 SWAP2 SWAP1 PUSH2 0x3A0E JUMP JUMPDEST POP POP POP POP POP POP JUMP JUMPDEST PUSH1 0x1 SLOAD PUSH1 0x1 PUSH1 0x1 PUSH1 0xA0 SHL SUB AND SWAP1 JUMP JUMPDEST PUSH1 0x7 SLOAD DUP2 SWAP1 DUP2 LT ISZERO PUSH2 0x1C1F JUMPI PUSH1 0x40 MLOAD PUSH3 0x461BCD PUSH1 0xE5 SHL DUP2 MSTORE PUSH1 0x4 ADD PUSH2 0x638 SWAP1 PUSH2 0x3BE8 JUMP JUMPDEST PUSH2 0x1C27 PUSH2 0xF3D JUMP JUMPDEST PUSH1 0x1 PUSH1 0x1 PUSH1 0xA0 SHL SUB AND PUSH4 0x23B872DD CALLER ADDRESS DUP5 PUSH1 0x40 MLOAD DUP5 PUSH4 0xFFFFFFFF AND PUSH1 0xE0 SHL DUP2 MSTORE PUSH1 0x4 ADD PUSH2 0x1C56 SWAP4 SWAP3 SWAP2 SWAP1 PUSH2 0x3B98 JUMP JUMPDEST PUSH1 0x20 PUSH1 0x40 MLOAD DUP1 DUP4 SUB DUP2 PUSH1 0x0 DUP8 DUP1 EXTCODESIZE ISZERO DUP1 ISZERO PUSH2 0x1C70 JUMPI PUSH1 0x0 DUP1 REVERT JUMPDEST POP GAS CALL ISZERO DUP1 ISZERO PUSH2 0x1C84 JUMPI RETURNDATASIZE PUSH1 0x0 DUP1 RETURNDATACOPY RETURNDATASIZE PUSH1 0x0 REVERT JUMPDEST POP POP POP POP PUSH1 0x40 MLOAD RETURNDATASIZE PUSH1 0x1F NOT PUSH1 0x1F DUP3 ADD AND DUP3 ADD DUP1 PUSH1 0x40 MSTORE POP DUP2 ADD SWAP1 PUSH2 0x1CA8 SWAP2 SWAP1 PUSH2 0x3A0E JUMP JUMPDEST POP PUSH1 0x7 SLOAD DUP2 GT ISZERO PUSH2 0x1D5D JUMPI PUSH1 0x0 PUSH2 0x1CCA PUSH1 0x7 SLOAD DUP4 PUSH2 0x26EC SWAP1 SWAP2 SWAP1 PUSH4 0xFFFFFFFF AND JUMP JUMPDEST SWAP1 POP PUSH2 0x1CD4 PUSH2 0xF3D JUMP JUMPDEST PUSH1 0x1 PUSH1 0x1 PUSH1 0xA0 SHL SUB AND PUSH4 0xA9059CBB PUSH2 0x1CEA PUSH2 0x1E03 JUMP JUMPDEST DUP4 PUSH1 0x40 MLOAD DUP4 PUSH4 0xFFFFFFFF AND PUSH1 0xE0 SHL DUP2 MSTORE PUSH1 0x4 ADD PUSH2 0x1D08 SWAP3 SWAP2 SWAP1 PUSH2 0x3B7F JUMP JUMPDEST PUSH1 0x20 PUSH1 0x40 MLOAD DUP1 DUP4 SUB DUP2 PUSH1 0x0 DUP8 DUP1 EXTCODESIZE ISZERO DUP1 ISZERO PUSH2 0x1D22 JUMPI PUSH1 0x0 DUP1 REVERT JUMPDEST POP GAS CALL ISZERO DUP1 ISZERO PUSH2 0x1D36 JUMPI RETURNDATASIZE PUSH1 0x0 DUP1 RETURNDATACOPY RETURNDATASIZE PUSH1 0x0 REVERT JUMPDEST POP POP POP POP PUSH1 0x40 MLOAD RETURNDATASIZE PUSH1 0x1F NOT PUSH1 0x1F DUP3 ADD AND DUP3 ADD DUP1 PUSH1 0x40 MSTORE POP DUP2 ADD SWAP1 PUSH2 0x1D5A SWAP2 SWAP1 PUSH2 0x3A0E JUMP JUMPDEST POP POP JUMPDEST CALLER PUSH1 0x0 SWAP1 DUP2 MSTORE PUSH1 0x20 DUP2 SWAP1 MSTORE PUSH1 0x40 SWAP1 KECCAK256 PUSH2 0x1D79 TIMESTAMP PUSH3 0x93A80 PUSH2 0x26E0 JUMP JUMPDEST DUP2 SLOAD PUSH1 0x1 DUP2 ADD DUP4 SSTORE PUSH1 0x0 SWAP3 DUP4 MSTORE PUSH1 0x20 SWAP1 SWAP3 KECCAK256 SWAP1 SWAP2 ADD SSTORE POP POP JUMP JUMPDEST CALLER PUSH1 0x0 SWAP1 DUP2 MSTORE PUSH1 0x20 DUP2 SWAP1 MSTORE PUSH1 0x40 DUP2 KECCAK256 DUP1 SLOAD DUP4 SWAP1 DUP2 LT PUSH2 0x1DC2 JUMPI PUSH4 0x4E487B71 PUSH1 0xE0 SHL PUSH1 0x0 MSTORE PUSH1 0x32 PUSH1 0x4 MSTORE PUSH1 0x24 PUSH1 0x0 REVERT JUMPDEST SWAP1 PUSH1 0x0 MSTORE PUSH1 0x20 PUSH1 0x0 KECCAK256 ADD SLOAD SWAP1 POP TIMESTAMP DUP2 GT PUSH2 0x1DEE JUMPI PUSH1 0x40 MLOAD PUSH3 0x461BCD PUSH1 0xE5 SHL DUP2 MSTORE PUSH1 0x4 ADD PUSH2 0x638 SWAP1 PUSH2 0x3E04 JUMP JUMPDEST PUSH2 0x1DF7 DUP3 PUSH2 0x2E6B JUMP JUMPDEST PUSH2 0x1DFF PUSH2 0x26F8 JUMP JUMPDEST POP POP JUMP JUMPDEST PUSH1 0x4 SLOAD PUSH1 0x1 PUSH1 0x1 PUSH1 0xA0 SHL SUB AND SWAP1 JUMP JUMPDEST PUSH1 0x4 SLOAD PUSH1 0x1 PUSH1 0x1 PUSH1 0xA0 SHL SUB AND CALLER EQ PUSH2 0x1E3C JUMPI PUSH1 0x40 MLOAD PUSH3 0x461BCD PUSH1 0xE5 SHL DUP2 MSTORE PUSH1 0x4 ADD PUSH2 0x638 SWAP1 PUSH2 0x3D98 JUMP JUMPDEST PUSH1 0x5 DUP1 SLOAD PUSH1 0xFF PUSH1 0xA0 SHL NOT DUP2 AND PUSH1 0x1 PUSH1 0xA0 SHL SWAP2 DUP3 SWAP1 DIV PUSH1 0xFF AND ISZERO SWAP1 SWAP2 MUL OR SWAP1 SSTORE JUMP JUMPDEST PUSH1 0x0 PUSH2 0x1E67 PUSH2 0x1BEC JUMP JUMPDEST PUSH1 0x1 PUSH1 0x1 PUSH1 0xA0 SHL SUB AND PUSH4 0x6352211E DUP4 PUSH1 0x40 MLOAD DUP3 PUSH4 0xFFFFFFFF AND PUSH1 0xE0 SHL DUP2 MSTORE PUSH1 0x4 ADD PUSH2 0x1E92 SWAP2 SWAP1 PUSH2 0x428D JUMP JUMPDEST PUSH1 0x20 PUSH1 0x40 MLOAD DUP1 DUP4 SUB DUP2 DUP7 DUP1 EXTCODESIZE ISZERO DUP1 ISZERO PUSH2 0x1EAA JUMPI PUSH1 0x0 DUP1 REVERT JUMPDEST POP GAS STATICCALL ISZERO DUP1 ISZERO PUSH2 0x1EBE JUMPI RETURNDATASIZE PUSH1 0x0 DUP1 RETURNDATACOPY RETURNDATASIZE PUSH1 0x0 REVERT JUMPDEST POP POP POP POP PUSH1 0x40 MLOAD RETURNDATASIZE PUSH1 0x1F NOT PUSH1 0x1F DUP3 ADD AND DUP3 ADD DUP1 PUSH1 0x40 MSTORE POP DUP2 ADD SWAP1 PUSH2 0x1EE2 SWAP2 SWAP1 PUSH2 0x3985 JUMP JUMPDEST PUSH1 0x0 DUP4 DUP2 MSTORE PUSH1 0xB PUSH1 0x20 MSTORE PUSH1 0x40 SWAP1 KECCAK256 SWAP1 SWAP2 POP PUSH1 0x1 PUSH1 0x1 PUSH1 0xA0 SHL SUB DUP3 AND CALLER EQ PUSH2 0x1F1B JUMPI PUSH1 0x40 MLOAD PUSH3 0x461BCD PUSH1 0xE5 SHL DUP2 MSTORE PUSH1 0x4 ADD PUSH2 0x638 SWAP1 PUSH2 0x3D61 JUMP JUMPDEST PUSH1 0x4 DUP2 ADD DUP1 SLOAD PUSH4 0x1000000 PUSH1 0x1 PUSH1 0xB8 SHL SUB NOT AND CALLER PUSH4 0x1000000 MUL OR SWAP1 SSTORE PUSH2 0x1F40 PUSH2 0x1BEC JUMP JUMPDEST PUSH1 0x1 PUSH1 0x1 PUSH1 0xA0 SHL SUB AND PUSH4 0x23B872DD CALLER ADDRESS DUP7 PUSH1 0x40 MLOAD DUP5 PUSH4 0xFFFFFFFF AND PUSH1 0xE0 SHL DUP2 MSTORE PUSH1 0x4 ADD PUSH2 0x1F6F SWAP4 SWAP3 SWAP2 SWAP1 PUSH2 0x3B98 JUMP JUMPDEST PUSH1 0x0 PUSH1 0x40 MLOAD DUP1 DUP4 SUB DUP2 PUSH1 0x0 DUP8 DUP1 EXTCODESIZE ISZERO DUP1 ISZERO PUSH2 0x1F89 JUMPI PUSH1 0x0 DUP1 REVERT JUMPDEST POP GAS CALL ISZERO DUP1 ISZERO PUSH2 0x835 JUMPI RETURNDATASIZE PUSH1 0x0 DUP1 RETURNDATACOPY RETURNDATASIZE PUSH1 0x0 REVERT JUMPDEST PUSH10 0x1A784379D99DB4200000 DUP2 JUMP JUMPDEST PUSH1 0x0 DUP1 PUSH2 0x1FB7 DUP5 PUSH2 0x2F93 JUMP JUMPDEST SWAP1 POP PUSH1 0x0 PUSH2 0x1FC4 DUP5 PUSH2 0x309D JUMP JUMPDEST SWAP1 POP PUSH1 0xA PUSH2 0x1FD2 DUP3 DUP5 PUSH2 0x42C2 JUMP JUMPDEST PUSH2 0x1FDC SWAP2 SWAP1 PUSH2 0x42AE JUMP JUMPDEST PUSH2 0x1FEE SWAP1 PUSH8 0xDE0B6B3A7640000 PUSH2 0x42C2 JUMP JUMPDEST SWAP3 POP POP POP JUMPDEST SWAP3 SWAP2 POP POP JUMP JUMPDEST CALLER PUSH1 0x0 SWAP1 DUP2 MSTORE PUSH1 0xA PUSH1 0x20 MSTORE PUSH1 0x40 SWAP1 KECCAK256 SLOAD SWAP1 JUMP JUMPDEST PUSH1 0xC SLOAD DUP2 JUMP JUMPDEST PUSH1 0x3 SLOAD PUSH1 0x1 PUSH1 0x1 PUSH1 0xA0 SHL SUB AND SWAP1 JUMP JUMPDEST DUP1 PUSH1 0x0 PUSH2 0x202C PUSH2 0x1BEC JUMP JUMPDEST PUSH1 0x1 PUSH1 0x1 PUSH1 0xA0 SHL SUB AND PUSH4 0x6352211E DUP4 PUSH1 0x40 MLOAD DUP3 PUSH4 0xFFFFFFFF AND PUSH1 0xE0 SHL DUP2 MSTORE PUSH1 0x4 ADD PUSH2 0x2057 SWAP2 SWAP1 PUSH2 0x428D JUMP JUMPDEST PUSH1 0x20 PUSH1 0x40 MLOAD DUP1 DUP4 SUB DUP2 DUP7 DUP1 EXTCODESIZE ISZERO DUP1 ISZERO PUSH2 0x206F JUMPI PUSH1 0x0 DUP1 REVERT JUMPDEST POP GAS STATICCALL ISZERO DUP1 ISZERO PUSH2 0x2083 JUMPI RETURNDATASIZE PUSH1 0x0 DUP1 RETURNDATACOPY RETURNDATASIZE PUSH1 0x0 REVERT JUMPDEST POP POP POP POP PUSH1 0x40 MLOAD RETURNDATASIZE PUSH1 0x1F NOT PUSH1 0x1F DUP3 ADD AND DUP3 ADD DUP1 PUSH1 0x40 MSTORE POP DUP2 ADD SWAP1 PUSH2 0x20A7 SWAP2 SWAP1 PUSH2 0x3985 JUMP JUMPDEST SWAP1 POP PUSH1 0x1 PUSH1 0x1 PUSH1 0xA0 SHL SUB DUP2 AND ADDRESS EQ PUSH2 0x20D1 JUMPI PUSH1 0x40 MLOAD PUSH3 0x461BCD PUSH1 0xE5 SHL DUP2 MSTORE PUSH1 0x4 ADD PUSH2 0x638 SWAP1 PUSH2 0x4163 JUMP JUMPDEST PUSH1 0x0 DUP4 DUP2 MSTORE PUSH1 0xB PUSH1 0x20 MSTORE PUSH1 0x40 DUP2 KECCAK256 SWAP1 PUSH2 0x20E8 PUSH2 0x2D2B JUMP JUMPDEST PUSH1 0x4 DUP4 ADD SLOAD SWAP1 SWAP2 POP PUSH2 0x100 SWAP1 DIV PUSH1 0xFF AND PUSH2 0x2114 JUMPI PUSH1 0x40 MLOAD PUSH3 0x461BCD PUSH1 0xE5 SHL DUP2 MSTORE PUSH1 0x4 ADD PUSH2 0x638 SWAP1 PUSH2 0x40C6 JUMP JUMPDEST PUSH1 0x6 DUP3 ADD SLOAD DUP2 LT ISZERO PUSH2 0x2138 JUMPI PUSH1 0x40 MLOAD PUSH3 0x461BCD PUSH1 0xE5 SHL DUP2 MSTORE PUSH1 0x4 ADD PUSH2 0x638 SWAP1 PUSH2 0x3C32 JUMP JUMPDEST PUSH1 0x5 DUP3 ADD SLOAD PUSH1 0x4 DUP4 ADD SLOAD PUSH1 0x1 PUSH1 0x1 PUSH1 0xA0 SHL SUB SWAP2 DUP3 AND SWAP2 CALLER PUSH4 0x1000000 SWAP1 SWAP3 DIV AND EQ DUP1 PUSH2 0x216C JUMPI POP CALLER PUSH1 0x1 PUSH1 0x1 PUSH1 0xA0 SHL SUB DUP3 AND EQ JUMPDEST PUSH2 0x2188 JUMPI PUSH1 0x40 MLOAD PUSH3 0x461BCD PUSH1 0xE5 SHL DUP2 MSTORE PUSH1 0x4 ADD PUSH2 0x638 SWAP1 PUSH2 0x3FAC JUMP JUMPDEST PUSH1 0x7 DUP4 ADD SLOAD PUSH1 0x0 SWAP1 DUP4 GT ISZERO PUSH2 0x21D4 JUMPI POP PUSH1 0x4 DUP4 ADD DUP1 SLOAD PUSH1 0xFF NOT AND SWAP1 DUP2 SWAP1 SSTORE PUSH1 0x0 PUSH1 0x7 DUP6 ADD SSTORE PUSH1 0x8 DUP5 ADD DUP1 SLOAD PUSH1 0x1 PUSH1 0x1 PUSH1 0xA0 SHL SUB NOT AND SWAP1 SSTORE PUSH4 0x1000000 SWAP1 DIV PUSH1 0x1 PUSH1 0x1 PUSH1 0xA0 SHL SUB AND PUSH2 0x21D7 JUMP JUMPDEST POP DUP1 JUMPDEST PUSH1 0x4 DUP5 ADD DUP1 SLOAD PUSH2 0xFF00 NOT AND SWAP1 SSTORE PUSH1 0x5 DUP5 ADD DUP1 SLOAD PUSH1 0x1 PUSH1 0x1 PUSH1 0xA0 SHL SUB NOT AND SWAP1 SSTORE PUSH1 0x0 PUSH1 0x6 DUP6 ADD DUP2 SWAP1 SSTORE PUSH2 0x2209 DUP9 DUP3 PUSH2 0x295F JUMP JUMPDEST SWAP1 POP PUSH1 0x0 PUSH2 0x2216 DUP3 PUSH2 0x30EA JUMP JUMPDEST SWAP1 POP PUSH1 0x1 DUP2 LT ISZERO PUSH2 0x228C JUMPI PUSH2 0x2229 PUSH2 0x2012 JUMP JUMPDEST PUSH1 0x1 PUSH1 0x1 PUSH1 0xA0 SHL SUB AND PUSH4 0x156E29F6 DUP5 PUSH1 0x1 DUP1 PUSH1 0x40 MLOAD DUP5 PUSH4 0xFFFFFFFF AND PUSH1 0xE0 SHL DUP2 MSTORE PUSH1 0x4 ADD PUSH2 0x2259 SWAP4 SWAP3 SWAP2 SWAP1 PUSH2 0x3BBC JUMP JUMPDEST PUSH1 0x0 PUSH1 0x40 MLOAD DUP1 DUP4 SUB DUP2 PUSH1 0x0 DUP8 DUP1 EXTCODESIZE ISZERO DUP1 ISZERO PUSH2 0x2273 JUMPI PUSH1 0x0 DUP1 REVERT JUMPDEST POP GAS CALL ISZERO DUP1 ISZERO PUSH2 0x2287 JUMPI RETURNDATASIZE PUSH1 0x0 DUP1 RETURNDATACOPY RETURNDATASIZE PUSH1 0x0 REVERT JUMPDEST POP POP POP POP JUMPDEST PUSH2 0x2294 PUSH2 0x2012 JUMP JUMPDEST PUSH1 0x1 PUSH1 0x1 PUSH1 0xA0 SHL SUB AND PUSH4 0x156E29F6 DUP5 DUP4 PUSH1 0x1 PUSH1 0x40 MLOAD DUP5 PUSH4 0xFFFFFFFF AND PUSH1 0xE0 SHL DUP2 MSTORE PUSH1 0x4 ADD PUSH2 0x22C4 SWAP4 SWAP3 SWAP2 SWAP1 PUSH2 0x3BBC JUMP JUMPDEST PUSH1 0x0 PUSH1 0x40 MLOAD DUP1 DUP4 SUB DUP2 PUSH1 0x0 DUP8 DUP1 EXTCODESIZE ISZERO DUP1 ISZERO PUSH2 0x22DE JUMPI PUSH1 0x0 DUP1 REVERT JUMPDEST POP GAS CALL ISZERO DUP1 ISZERO PUSH2 0x22F2 JUMPI RETURNDATASIZE PUSH1 0x0 DUP1 RETURNDATACOPY RETURNDATASIZE PUSH1 0x0 REVERT JUMPDEST POP POP POP POP POP POP POP POP POP POP POP POP POP JUMP JUMPDEST PUSH1 0x4 SLOAD PUSH1 0x1 PUSH1 0x1 PUSH1 0xA0 SHL SUB AND CALLER EQ PUSH2 0x232B JUMPI PUSH1 0x40 MLOAD PUSH3 0x461BCD PUSH1 0xE5 SHL DUP2 MSTORE PUSH1 0x4 ADD PUSH2 0x638 SWAP1 PUSH2 0x3D98 JUMP JUMPDEST PUSH2 0x233D DUP3 PUSH8 0xDE0B6B3A7640000 PUSH2 0x26CD JUMP JUMPDEST PUSH1 0x6 SSTORE PUSH2 0x2352 DUP2 PUSH8 0xDE0B6B3A7640000 PUSH2 0x26CD JUMP JUMPDEST PUSH1 0x7 SSTORE POP POP PUSH1 0x1 DUP1 SLOAD PUSH1 0x1 PUSH1 0x1 PUSH1 0xA0 SHL SUB SWAP6 DUP7 AND PUSH1 0x1 PUSH1 0x1 PUSH1 0xA0 SHL SUB NOT SWAP2 DUP3 AND OR SWAP1 SWAP2 SSTORE PUSH1 0x2 DUP1 SLOAD SWAP5 DUP7 AND SWAP5 DUP3 AND SWAP5 SWAP1 SWAP5 OR SWAP1 SWAP4 SSTORE PUSH1 0x3 DUP1 SLOAD SWAP3 DUP6 AND SWAP3 DUP5 AND SWAP3 SWAP1 SWAP3 OR SWAP1 SWAP2 SSTORE PUSH1 0x5 DUP1 SLOAD SWAP2 SWAP1 SWAP4 AND SWAP2 AND OR SWAP1 SSTORE JUMP JUMPDEST DUP1 PUSH1 0x0 PUSH2 0x23B2 PUSH2 0x1BEC JUMP JUMPDEST PUSH1 0x1 PUSH1 0x1 PUSH1 0xA0 SHL SUB AND PUSH4 0x6352211E DUP4 PUSH1 0x40 MLOAD DUP3 PUSH4 0xFFFFFFFF AND PUSH1 0xE0 SHL DUP2 MSTORE PUSH1 0x4 ADD PUSH2 0x23DD SWAP2 SWAP1 PUSH2 0x428D JUMP JUMPDEST PUSH1 0x20 PUSH1 0x40 MLOAD DUP1 DUP4 SUB DUP2 DUP7 DUP1 EXTCODESIZE ISZERO DUP1 ISZERO PUSH2 0x23F5 JUMPI PUSH1 0x0 DUP1 REVERT JUMPDEST POP GAS STATICCALL ISZERO DUP1 ISZERO PUSH2 0x2409 JUMPI RETURNDATASIZE PUSH1 0x0 DUP1 RETURNDATACOPY RETURNDATASIZE PUSH1 0x0 REVERT JUMPDEST POP POP POP POP PUSH1 0x40 MLOAD RETURNDATASIZE PUSH1 0x1F NOT PUSH1 0x1F DUP3 ADD AND DUP3 ADD DUP1 PUSH1 0x40 MSTORE POP DUP2 ADD SWAP1 PUSH2 0x242D SWAP2 SWAP1 PUSH2 0x3985 JUMP JUMPDEST SWAP1 POP PUSH1 0x1 PUSH1 0x1 PUSH1 0xA0 SHL SUB DUP2 AND ADDRESS EQ PUSH2 0x2457 JUMPI PUSH1 0x40 MLOAD PUSH3 0x461BCD PUSH1 0xE5 SHL DUP2 MSTORE PUSH1 0x4 ADD PUSH2 0x638 SWAP1 PUSH2 0x4163 JUMP JUMPDEST PUSH1 0x0 DUP4 DUP2 MSTORE PUSH1 0xB PUSH1 0x20 MSTORE PUSH1 0x40 SWAP1 KECCAK256 PUSH1 0x4 DUP2 ADD SLOAD PUSH1 0xFF AND ISZERO PUSH2 0x248A JUMPI PUSH1 0x40 MLOAD PUSH3 0x461BCD PUSH1 0xE5 SHL DUP2 MSTORE PUSH1 0x4 ADD PUSH2 0x638 SWAP1 PUSH2 0x3E72 JUMP JUMPDEST PUSH1 0x4 DUP2 ADD SLOAD PUSH2 0x100 SWAP1 DIV PUSH1 0xFF AND ISZERO PUSH2 0x24B4 JUMPI PUSH1 0x40 MLOAD PUSH3 0x461BCD PUSH1 0xE5 SHL DUP2 MSTORE PUSH1 0x4 ADD PUSH2 0x638 SWAP1 PUSH2 0x3FF1 JUMP JUMPDEST PUSH2 0x24BC PUSH2 0x2D3B JUMP JUMPDEST PUSH1 0x4 ADD DUP1 SLOAD PUSH3 0xFF0000 NOT AND PUSH3 0x10000 OR SWAP1 SSTORE POP POP POP JUMP JUMPDEST DUP2 PUSH1 0x0 PUSH2 0x24DE PUSH2 0x1BEC JUMP JUMPDEST PUSH1 0x1 PUSH1 0x1 PUSH1 0xA0 SHL SUB AND PUSH4 0x6352211E DUP4 PUSH1 0x40 MLOAD DUP3 PUSH4 0xFFFFFFFF AND PUSH1 0xE0 SHL DUP2 MSTORE PUSH1 0x4 ADD PUSH2 0x2509 SWAP2 SWAP1 PUSH2 0x428D JUMP JUMPDEST PUSH1 0x20 PUSH1 0x40 MLOAD DUP1 DUP4 SUB DUP2 DUP7 DUP1 EXTCODESIZE ISZERO DUP1 ISZERO PUSH2 0x2521 JUMPI PUSH1 0x0 DUP1 REVERT JUMPDEST POP GAS STATICCALL ISZERO DUP1 ISZERO PUSH2 0x2535 JUMPI RETURNDATASIZE PUSH1 0x0 DUP1 RETURNDATACOPY RETURNDATASIZE PUSH1 0x0 REVERT JUMPDEST POP POP POP POP PUSH1 0x40 MLOAD RETURNDATASIZE PUSH1 0x1F NOT PUSH1 0x1F DUP3 ADD AND DUP3 ADD DUP1 PUSH1 0x40 MSTORE POP DUP2 ADD SWAP1 PUSH2 0x2559 SWAP2 SWAP1 PUSH2 0x3985 JUMP JUMPDEST SWAP1 POP PUSH1 0x1 PUSH1 0x1 PUSH1 0xA0 SHL SUB DUP2 AND ADDRESS EQ PUSH2 0x2583 JUMPI PUSH1 0x40 MLOAD PUSH3 0x461BCD PUSH1 0xE5 SHL DUP2 MSTORE PUSH1 0x4 ADD PUSH2 0x638 SWAP1 PUSH2 0x4163 JUMP JUMPDEST PUSH1 0x0 DUP5 DUP2 MSTORE PUSH1 0xB PUSH1 0x20 MSTORE PUSH1 0x40 DUP2 KECCAK256 SWAP1 PUSH2 0x259A PUSH2 0x2D2B JUMP JUMPDEST PUSH1 0x4 DUP4 ADD SLOAD SWAP1 SWAP2 POP PUSH3 0x10000 SWAP1 DIV PUSH1 0xFF AND ISZERO PUSH2 0x25C8 JUMPI PUSH1 0x40 MLOAD PUSH3 0x461BCD PUSH1 0xE5 SHL DUP2 MSTORE PUSH1 0x4 ADD PUSH2 0x638 SWAP1 PUSH2 0x4058 JUMP JUMPDEST PUSH1 0x4 DUP3 ADD SLOAD PUSH4 0x1000000 SWAP1 DIV PUSH1 0x1 PUSH1 0x1 PUSH1 0xA0 SHL SUB AND CALLER EQ PUSH2 0x25FB JUMPI PUSH1 0x40 MLOAD PUSH3 0x461BCD PUSH1 0xE5 SHL DUP2 MSTORE PUSH1 0x4 ADD PUSH2 0x638 SWAP1 PUSH2 0x3C69 JUMP JUMPDEST PUSH1 0x0 DUP1 PUSH2 0x2608 DUP9 DUP9 PUSH2 0x3140 JUMP JUMPDEST SWAP2 POP SWAP2 POP DUP2 PUSH2 0x2629 JUMPI PUSH1 0x40 MLOAD PUSH3 0x461BCD PUSH1 0xE5 SHL DUP2 MSTORE PUSH1 0x4 ADD PUSH2 0x638 SWAP1 PUSH2 0x3EED JUMP JUMPDEST PUSH1 0x20 DUP2 ADD MLOAD PUSH2 0x2637 DUP10 PUSH2 0x3295 JUMP JUMPDEST PUSH1 0x4 DUP6 ADD DUP1 SLOAD PUSH1 0xFF NOT AND PUSH1 0x1 OR SWAP1 SSTORE PUSH2 0x2650 DUP5 DUP3 PUSH2 0x26E0 JUMP JUMPDEST PUSH1 0x7 DUP7 ADD SSTORE POP MLOAD PUSH1 0x8 SWAP1 SWAP4 ADD DUP1 SLOAD PUSH1 0x1 PUSH1 0x1 PUSH1 0xA0 SHL SUB NOT AND PUSH1 0x1 PUSH1 0x1 PUSH1 0xA0 SHL SUB SWAP1 SWAP5 AND SWAP4 SWAP1 SWAP4 OR SWAP1 SWAP3 SSTORE POP POP POP POP POP POP JUMP JUMPDEST PUSH1 0x4 SLOAD PUSH1 0x1 PUSH1 0x1 PUSH1 0xA0 SHL SUB AND CALLER EQ PUSH2 0x26AC JUMPI PUSH1 0x40 MLOAD PUSH3 0x461BCD PUSH1 0xE5 SHL DUP2 MSTORE PUSH1 0x4 ADD PUSH2 0x638 SWAP1 PUSH2 0x3D98 JUMP JUMPDEST PUSH1 0x5 DUP1 SLOAD PUSH1 0xFF PUSH1 0xA8 SHL NOT DUP2 AND PUSH1 0x1 PUSH1 0xA8 SHL SWAP2 DUP3 SWAP1 DIV PUSH1 0xFF AND ISZERO SWAP1 SWAP2 MUL OR SWAP1 SSTORE JUMP JUMPDEST PUSH1 0x0 PUSH2 0x26D9 DUP3 DUP5 PUSH2 0x42C2 JUMP JUMPDEST SWAP4 SWAP3 POP POP POP JUMP JUMPDEST PUSH1 0x0 PUSH2 0x26D9 DUP3 DUP5 PUSH2 0x4296 JUMP JUMPDEST PUSH1 0x0 PUSH2 0x26D9 DUP3 DUP5 PUSH2 0x42E1 JUMP JUMPDEST PUSH2 0x2700 PUSH2 0x1BEC JUMP JUMPDEST PUSH1 0x1 PUSH1 0x1 PUSH1 0xA0 SHL SUB AND PUSH4 0x6A627842 CALLER PUSH1 0x40 MLOAD DUP3 PUSH4 0xFFFFFFFF AND PUSH1 0xE0 SHL DUP2 MSTORE PUSH1 0x4 ADD PUSH2 0x272B SWAP2 SWAP1 PUSH2 0x3B6B JUMP JUMPDEST PUSH1 0x0 PUSH1 0x40 MLOAD DUP1 DUP4 SUB DUP2 PUSH1 0x0 DUP8 DUP1 EXTCODESIZE ISZERO DUP1 ISZERO PUSH2 0x2745 JUMPI PUSH1 0x0 DUP1 REVERT JUMPDEST POP GAS CALL ISZERO DUP1 ISZERO PUSH2 0x2759 JUMPI RETURNDATASIZE PUSH1 0x0 DUP1 RETURNDATACOPY RETURNDATASIZE PUSH1 0x0 REVERT JUMPDEST POP POP POP POP PUSH1 0x0 PUSH2 0x2767 PUSH2 0x1BEC JUMP JUMPDEST PUSH1 0x1 PUSH1 0x1 PUSH1 0xA0 SHL SUB AND PUSH4 0x295D3EE8 PUSH1 0x40 MLOAD DUP2 PUSH4 0xFFFFFFFF AND PUSH1 0xE0 SHL DUP2 MSTORE PUSH1 0x4 ADD PUSH1 0x20 PUSH1 0x40 MLOAD DUP1 DUP4 SUB DUP2 DUP7 DUP1 EXTCODESIZE ISZERO DUP1 ISZERO PUSH2 0x279F JUMPI PUSH1 0x0 DUP1 REVERT JUMPDEST POP GAS STATICCALL ISZERO DUP1 ISZERO PUSH2 0x27B3 JUMPI RETURNDATASIZE PUSH1 0x0 DUP1 RETURNDATACOPY RETURNDATASIZE PUSH1 0x0 REVERT JUMPDEST POP POP POP POP PUSH1 0x40 MLOAD RETURNDATASIZE PUSH1 0x1F NOT PUSH1 0x1F DUP3 ADD AND DUP3 ADD DUP1 PUSH1 0x40 MSTORE POP DUP2 ADD SWAP1 PUSH2 0x27D7 SWAP2 SWAP1 PUSH2 0x3AED JUMP JUMPDEST SWAP1 POP PUSH1 0x0 PUSH2 0x27E4 DUP3 PUSH2 0x34C6 JUMP JUMPDEST PUSH1 0x40 DUP1 MLOAD PUSH1 0xA0 DUP1 DUP3 ADD DUP4 MSTORE PUSH1 0x1 DUP1 DUP4 MSTORE PUSH1 0x20 DUP1 DUP5 ADD DUP7 DUP2 MSTORE TIMESTAMP DUP6 DUP8 ADD MSTORE PUSH1 0x0 PUSH1 0x60 DUP1 DUP8 ADD DUP3 SWAP1 MSTORE DUP8 MLOAD PUSH1 0xC0 DUP2 ADD DUP10 MSTORE DUP3 DUP2 MSTORE DUP1 DUP6 ADD DUP4 SWAP1 MSTORE DUP1 DUP10 ADD DUP4 SWAP1 MSTORE SWAP1 DUP2 ADD DUP3 SWAP1 MSTORE DUP8 MLOAD DUP1 DUP10 ADD DUP10 MSTORE DUP3 DUP2 MSTORE DUP1 DUP6 ADD DUP4 SWAP1 MSTORE PUSH1 0x80 DUP3 DUP2 ADD SWAP2 SWAP1 SWAP2 MSTORE DUP9 MLOAD DUP1 DUP11 ADD DUP11 MSTORE DUP4 DUP2 MSTORE DUP1 DUP7 ADD DUP5 SWAP1 MSTORE SWAP7 DUP3 ADD SWAP7 SWAP1 SWAP7 MSTORE SWAP5 DUP7 ADD SWAP5 SWAP1 SWAP5 MSTORE DUP9 DUP5 MSTORE PUSH1 0xB DUP3 MSTORE SWAP5 SWAP1 SWAP3 KECCAK256 DUP4 MLOAD DUP2 SSTORE SWAP4 MLOAD DUP1 MLOAD SWAP6 SWAP7 POP SWAP3 SWAP5 PUSH2 0x2889 SWAP4 SWAP2 DUP6 ADD SWAP3 SWAP2 SWAP1 SWAP2 ADD SWAP1 PUSH2 0x38B4 JUMP JUMPDEST POP PUSH1 0x40 DUP3 DUP2 ADD MLOAD PUSH1 0x2 DUP4 ADD SSTORE PUSH1 0x60 DUP1 DUP5 ADD MLOAD PUSH1 0x3 DUP5 ADD SSTORE PUSH1 0x80 SWAP4 DUP5 ADD MLOAD DUP1 MLOAD PUSH1 0x4 DUP6 ADD DUP1 SLOAD PUSH1 0x20 DUP1 DUP6 ADD MLOAD SWAP7 DUP6 ADD MLOAD SWAP6 DUP6 ADD MLOAD PUSH1 0xFF NOT SWAP1 SWAP3 AND SWAP4 ISZERO ISZERO SWAP4 SWAP1 SWAP4 OR PUSH2 0xFF00 NOT AND PUSH2 0x100 SWAP7 ISZERO ISZERO SWAP7 SWAP1 SWAP7 MUL SWAP6 SWAP1 SWAP6 OR PUSH3 0xFF0000 NOT AND PUSH3 0x10000 SWAP5 ISZERO ISZERO SWAP5 SWAP1 SWAP5 MUL SWAP4 SWAP1 SWAP4 OR PUSH4 0x1000000 PUSH1 0x1 PUSH1 0xB8 SHL SUB NOT AND PUSH4 0x1000000 PUSH1 0x1 PUSH1 0x1 PUSH1 0xA0 SHL SUB SWAP6 DUP7 AND MUL OR SWAP1 SWAP3 SSTORE SWAP4 DUP5 ADD MLOAD DUP1 MLOAD PUSH1 0x5 DUP6 ADD DUP1 SLOAD PUSH1 0x1 PUSH1 0x1 PUSH1 0xA0 SHL SUB NOT SWAP1 DUP2 AND SWAP3 DUP7 AND SWAP3 SWAP1 SWAP3 OR SWAP1 SSTORE SWAP1 DUP3 ADD MLOAD PUSH1 0x6 DUP6 ADD SSTORE PUSH1 0xA0 SWAP1 SWAP5 ADD MLOAD DUP1 MLOAD PUSH1 0x7 DUP6 ADD SSTORE ADD MLOAD PUSH1 0x8 SWAP1 SWAP3 ADD DUP1 SLOAD SWAP1 SWAP4 AND SWAP2 AND OR SWAP1 SSTORE POP POP JUMP JUMPDEST PUSH1 0x0 DUP2 ISZERO PUSH2 0x2BA8 JUMPI PUSH1 0x0 PUSH2 0x2971 PUSH2 0x1BEC JUMP JUMPDEST PUSH1 0x1 PUSH1 0x1 PUSH1 0xA0 SHL SUB AND PUSH4 0x295D3EE8 PUSH1 0x40 MLOAD DUP2 PUSH4 0xFFFFFFFF AND PUSH1 0xE0 SHL DUP2 MSTORE PUSH1 0x4 ADD PUSH1 0x20 PUSH1 0x40 MLOAD DUP1 DUP4 SUB DUP2 DUP7 DUP1 EXTCODESIZE ISZERO DUP1 ISZERO PUSH2 0x29A9 JUMPI PUSH1 0x0 DUP1 REVERT JUMPDEST POP GAS STATICCALL ISZERO DUP1 ISZERO PUSH2 0x29BD JUMPI RETURNDATASIZE PUSH1 0x0 DUP1 RETURNDATACOPY RETURNDATASIZE PUSH1 0x0 REVERT JUMPDEST POP POP POP POP PUSH1 0x40 MLOAD RETURNDATASIZE PUSH1 0x1F NOT PUSH1 0x1F DUP3 ADD AND DUP3 ADD DUP1 PUSH1 0x40 MSTORE POP DUP2 ADD SWAP1 PUSH2 0x29E1 SWAP2 SWAP1 PUSH2 0x3AED JUMP JUMPDEST SWAP1 POP PUSH1 0x0 PUSH1 0x1 JUMPDEST DUP3 DUP2 GT PUSH2 0x2B9E JUMPI PUSH1 0x0 PUSH1 0xB PUSH1 0x0 DUP4 DUP2 MSTORE PUSH1 0x20 ADD SWAP1 DUP2 MSTORE PUSH1 0x20 ADD PUSH1 0x0 KECCAK256 PUSH1 0x40 MLOAD DUP1 PUSH1 0xA0 ADD PUSH1 0x40 MSTORE SWAP1 DUP2 PUSH1 0x0 DUP3 ADD SLOAD DUP2 MSTORE PUSH1 0x20 ADD PUSH1 0x1 DUP3 ADD DUP1 SLOAD PUSH2 0x2A29 SWAP1 PUSH2 0x42F8 JUMP JUMPDEST DUP1 PUSH1 0x1F ADD PUSH1 0x20 DUP1 SWAP2 DIV MUL PUSH1 0x20 ADD PUSH1 0x40 MLOAD SWAP1 DUP2 ADD PUSH1 0x40 MSTORE DUP1 SWAP3 SWAP2 SWAP1 DUP2 DUP2 MSTORE PUSH1 0x20 ADD DUP3 DUP1 SLOAD PUSH2 0x2A55 SWAP1 PUSH2 0x42F8 JUMP JUMPDEST DUP1 ISZERO PUSH2 0x2AA2 JUMPI DUP1 PUSH1 0x1F LT PUSH2 0x2A77 JUMPI PUSH2 0x100 DUP1 DUP4 SLOAD DIV MUL DUP4 MSTORE SWAP2 PUSH1 0x20 ADD SWAP2 PUSH2 0x2AA2 JUMP JUMPDEST DUP3 ADD SWAP2 SWAP1 PUSH1 0x0 MSTORE PUSH1 0x20 PUSH1 0x0 KECCAK256 SWAP1 JUMPDEST DUP2 SLOAD DUP2 MSTORE SWAP1 PUSH1 0x1 ADD SWAP1 PUSH1 0x20 ADD DUP1 DUP4 GT PUSH2 0x2A85 JUMPI DUP3 SWAP1 SUB PUSH1 0x1F AND DUP3 ADD SWAP2 JUMPDEST POP POP POP SWAP2 DUP4 MSTORE POP POP PUSH1 0x2 DUP3 ADD SLOAD PUSH1 0x20 DUP1 DUP4 ADD SWAP2 SWAP1 SWAP2 MSTORE PUSH1 0x3 DUP4 ADD SLOAD PUSH1 0x40 DUP1 DUP5 ADD SWAP2 SWAP1 SWAP2 MSTORE DUP1 MLOAD PUSH1 0xC0 DUP2 ADD DUP3 MSTORE PUSH1 0x4 DUP6 ADD SLOAD PUSH1 0xFF DUP1 DUP3 AND ISZERO ISZERO DUP4 MSTORE PUSH2 0x100 DUP3 DIV DUP2 AND ISZERO ISZERO DUP4 DUP7 ADD MSTORE PUSH3 0x10000 DUP3 DIV AND ISZERO ISZERO DUP3 DUP5 ADD MSTORE PUSH1 0x1 PUSH1 0x1 PUSH1 0xA0 SHL SUB PUSH4 0x1000000 SWAP1 SWAP2 DIV DUP2 AND PUSH1 0x60 DUP4 DUP2 ADD SWAP2 SWAP1 SWAP2 MSTORE DUP4 MLOAD DUP1 DUP6 ADD DUP6 MSTORE PUSH1 0x5 DUP9 ADD SLOAD DUP4 AND DUP2 MSTORE PUSH1 0x6 DUP9 ADD SLOAD DUP2 DUP8 ADD MSTORE PUSH1 0x80 DUP1 DUP6 ADD SWAP2 SWAP1 SWAP2 MSTORE DUP5 MLOAD DUP1 DUP7 ADD DUP7 MSTORE PUSH1 0x7 DUP10 ADD SLOAD DUP2 MSTORE PUSH1 0x8 SWAP1 SWAP9 ADD SLOAD SWAP1 SWAP3 AND SWAP5 DUP8 ADD SWAP5 SWAP1 SWAP5 MSTORE PUSH1 0xA0 DUP3 ADD SWAP6 SWAP1 SWAP6 MSTORE SWAP2 SWAP1 SWAP3 ADD MSTORE SWAP1 DUP3 ADD MLOAD ADD MLOAD SWAP1 SWAP2 POP ISZERO PUSH2 0x2B8B JUMPI PUSH2 0x2B88 PUSH2 0x2B81 DUP3 PUSH1 0x20 ADD MLOAD DUP4 PUSH1 0x0 ADD MLOAD PUSH2 0x3606 JUMP JUMPDEST DUP5 SWAP1 PUSH2 0x26E0 JUMP JUMPDEST SWAP3 POP JUMPDEST POP DUP1 PUSH2 0x2B96 DUP2 PUSH2 0x4333 JUMP JUMPDEST SWAP2 POP POP PUSH2 0x29E8 JUMP JUMPDEST POP SWAP2 POP PUSH2 0x1FF3 SWAP1 POP JUMP JUMPDEST PUSH1 0x0 PUSH1 0xB PUSH1 0x0 DUP6 DUP2 MSTORE PUSH1 0x20 ADD SWAP1 DUP2 MSTORE PUSH1 0x20 ADD PUSH1 0x0 KECCAK256 PUSH1 0x40 MLOAD DUP1 PUSH1 0xA0 ADD PUSH1 0x40 MSTORE SWAP1 DUP2 PUSH1 0x0 DUP3 ADD SLOAD DUP2 MSTORE PUSH1 0x20 ADD PUSH1 0x1 DUP3 ADD DUP1 SLOAD PUSH2 0x2BE2 SWAP1 PUSH2 0x42F8 JUMP JUMPDEST DUP1 PUSH1 0x1F ADD PUSH1 0x20 DUP1 SWAP2 DIV MUL PUSH1 0x20 ADD PUSH1 0x40 MLOAD SWAP1 DUP2 ADD PUSH1 0x40 MSTORE DUP1 SWAP3 SWAP2 SWAP1 DUP2 DUP2 MSTORE PUSH1 0x20 ADD DUP3 DUP1 SLOAD PUSH2 0x2C0E SWAP1 PUSH2 0x42F8 JUMP JUMPDEST DUP1 ISZERO PUSH2 0x2C5B JUMPI DUP1 PUSH1 0x1F LT PUSH2 0x2C30 JUMPI PUSH2 0x100 DUP1 DUP4 SLOAD DIV MUL DUP4 MSTORE SWAP2 PUSH1 0x20 ADD SWAP2 PUSH2 0x2C5B JUMP JUMPDEST DUP3 ADD SWAP2 SWAP1 PUSH1 0x0 MSTORE PUSH1 0x20 PUSH1 0x0 KECCAK256 SWAP1 JUMPDEST DUP2 SLOAD DUP2 MSTORE SWAP1 PUSH1 0x1 ADD SWAP1 PUSH1 0x20 ADD DUP1 DUP4 GT PUSH2 0x2C3E JUMPI DUP3 SWAP1 SUB PUSH1 0x1F AND DUP3 ADD SWAP2 JUMPDEST POP POP POP SWAP2 DUP4 MSTORE POP POP PUSH1 0x2 DUP3 ADD SLOAD PUSH1 0x20 DUP1 DUP4 ADD SWAP2 SWAP1 SWAP2 MSTORE PUSH1 0x3 DUP4 ADD SLOAD PUSH1 0x40 DUP1 DUP5 ADD SWAP2 SWAP1 SWAP2 MSTORE DUP1 MLOAD PUSH1 0xC0 DUP2 ADD DUP3 MSTORE PUSH1 0x4 DUP6 ADD SLOAD PUSH1 0xFF DUP1 DUP3 AND ISZERO ISZERO DUP4 MSTORE PUSH2 0x100 DUP3 DIV DUP2 AND ISZERO ISZERO DUP4 DUP7 ADD MSTORE PUSH3 0x10000 DUP3 DIV AND ISZERO ISZERO DUP3 DUP5 ADD MSTORE PUSH1 0x1 PUSH1 0x1 PUSH1 0xA0 SHL SUB PUSH4 0x1000000 SWAP1 SWAP2 DIV DUP2 AND PUSH1 0x60 DUP4 DUP2 ADD SWAP2 SWAP1 SWAP2 MSTORE DUP4 MLOAD DUP1 DUP6 ADD DUP6 MSTORE PUSH1 0x5 DUP9 ADD SLOAD DUP4 AND DUP2 MSTORE PUSH1 0x6 DUP9 ADD SLOAD DUP2 DUP8 ADD MSTORE PUSH1 0x80 DUP5 ADD MSTORE DUP4 MLOAD DUP1 DUP6 ADD SWAP1 SWAP5 MSTORE PUSH1 0x7 DUP8 ADD SLOAD DUP5 MSTORE PUSH1 0x8 SWAP1 SWAP7 ADD SLOAD AND DUP3 DUP5 ADD MSTORE PUSH1 0xA0 DUP2 ADD SWAP2 SWAP1 SWAP2 MSTORE SWAP3 SWAP1 SWAP2 ADD SWAP2 SWAP1 SWAP2 MSTORE DUP2 ADD MLOAD DUP2 MLOAD SWAP2 SWAP3 POP PUSH2 0x2D23 SWAP2 PUSH2 0x3606 JUMP JUMPDEST SWAP2 POP POP PUSH2 0x1FF3 JUMP JUMPDEST TIMESTAMP SWAP1 JUMP JUMPDEST PUSH1 0x0 PUSH2 0x26D9 DUP3 DUP5 PUSH2 0x42AE JUMP JUMPDEST PUSH2 0x2D43 PUSH2 0xF4C JUMP JUMPDEST PUSH2 0x2E69 JUMPI PUSH1 0x0 PUSH2 0x2D55 PUSH1 0x0 PUSH1 0x1 PUSH2 0x295F JUMP JUMPDEST SWAP1 POP PUSH1 0x0 PUSH2 0x2D61 PUSH2 0x1BEC JUMP JUMPDEST PUSH1 0x1 PUSH1 0x1 PUSH1 0xA0 SHL SUB AND PUSH4 0x295D3EE8 PUSH1 0x40 MLOAD DUP2 PUSH4 0xFFFFFFFF AND PUSH1 0xE0 SHL DUP2 MSTORE PUSH1 0x4 ADD PUSH1 0x20 PUSH1 0x40 MLOAD DUP1 DUP4 SUB DUP2 DUP7 DUP1 EXTCODESIZE ISZERO DUP1 ISZERO PUSH2 0x2D99 JUMPI PUSH1 0x0 DUP1 REVERT JUMPDEST POP GAS STATICCALL ISZERO DUP1 ISZERO PUSH2 0x2DAD JUMPI RETURNDATASIZE PUSH1 0x0 DUP1 RETURNDATACOPY RETURNDATASIZE PUSH1 0x0 REVERT JUMPDEST POP POP POP POP PUSH1 0x40 MLOAD RETURNDATASIZE PUSH1 0x1F NOT PUSH1 0x1F DUP3 ADD AND DUP3 ADD DUP1 PUSH1 0x40 MSTORE POP DUP2 ADD SWAP1 PUSH2 0x2DD1 SWAP2 SWAP1 PUSH2 0x3AED JUMP JUMPDEST SWAP1 POP PUSH1 0x0 PUSH2 0x2DE3 PUSH1 0xC SLOAD PUSH2 0xEBE PUSH2 0x2D2B JUMP JUMPDEST SWAP1 POP PUSH1 0x0 PUSH2 0x2E02 DUP3 PUSH2 0xEE3 PUSH10 0x1A784379D99DB4200000 PUSH3 0x2819A0 PUSH2 0x2D2F JUMP JUMPDEST SWAP1 POP PUSH1 0x1 JUMPDEST DUP4 DUP2 GT PUSH2 0x15F2 JUMPI PUSH1 0x0 DUP2 DUP2 MSTORE PUSH1 0xB PUSH1 0x20 MSTORE PUSH1 0x40 DUP2 KECCAK256 SWAP1 PUSH2 0x2E27 DUP4 DUP3 PUSH2 0x295F JUMP JUMPDEST SWAP1 POP PUSH1 0x0 PUSH2 0x2E39 DUP3 PUSH2 0xEE3 DUP8 DUP12 PUSH2 0x2D2F JUMP JUMPDEST PUSH1 0x3 DUP5 ADD SLOAD SWAP1 SWAP2 POP PUSH2 0x2E4B SWAP1 DUP3 PUSH2 0x26E0 JUMP JUMPDEST DUP4 PUSH1 0x3 ADD DUP2 SWAP1 SSTORE POP POP POP POP DUP1 DUP1 PUSH2 0x2E61 SWAP1 PUSH2 0x4333 JUMP JUMPDEST SWAP2 POP POP PUSH2 0x2E07 JUMP JUMPDEST JUMP JUMPDEST CALLER PUSH1 0x0 SWAP1 DUP2 MSTORE PUSH1 0x20 DUP2 SWAP1 MSTORE PUSH1 0x40 DUP2 KECCAK256 PUSH2 0x2E83 SWAP2 PUSH2 0x3938 JUMP JUMPDEST CALLER PUSH1 0x0 SWAP1 DUP2 MSTORE PUSH1 0x20 DUP2 SWAP1 MSTORE PUSH1 0x40 SWAP1 KECCAK256 DUP1 SLOAD PUSH1 0x1 EQ DUP1 PUSH2 0x2EAF JUMPI POP DUP1 SLOAD DUP3 SWAP1 PUSH2 0x2EAD SWAP1 PUSH1 0x1 SWAP1 PUSH2 0x42E1 JUMP JUMPDEST EQ JUMPDEST ISZERO PUSH2 0x2EED JUMPI DUP1 DUP1 SLOAD DUP1 PUSH2 0x2ED2 JUMPI PUSH4 0x4E487B71 PUSH1 0xE0 SHL PUSH1 0x0 MSTORE PUSH1 0x31 PUSH1 0x4 MSTORE PUSH1 0x24 PUSH1 0x0 REVERT JUMPDEST PUSH1 0x1 SWAP1 SUB DUP2 DUP2 SWAP1 PUSH1 0x0 MSTORE PUSH1 0x20 PUSH1 0x0 KECCAK256 ADD PUSH1 0x0 SWAP1 SSTORE SWAP1 SSTORE PUSH2 0x1DFF JUMP JUMPDEST DUP1 SLOAD PUSH1 0x0 SWAP1 DUP3 SWAP1 PUSH2 0x2F00 SWAP1 PUSH1 0x1 SWAP1 PUSH2 0x42E1 JUMP JUMPDEST DUP2 SLOAD DUP2 LT PUSH2 0x2F1E JUMPI PUSH4 0x4E487B71 PUSH1 0xE0 SHL PUSH1 0x0 MSTORE PUSH1 0x32 PUSH1 0x4 MSTORE PUSH1 0x24 PUSH1 0x0 REVERT JUMPDEST SWAP1 PUSH1 0x0 MSTORE PUSH1 0x20 PUSH1 0x0 KECCAK256 ADD SLOAD SWAP1 POP DUP1 DUP3 DUP5 DUP2 SLOAD DUP2 LT PUSH2 0x2F4C JUMPI PUSH4 0x4E487B71 PUSH1 0xE0 SHL PUSH1 0x0 MSTORE PUSH1 0x32 PUSH1 0x4 MSTORE PUSH1 0x24 PUSH1 0x0 REVERT JUMPDEST SWAP1 PUSH1 0x0 MSTORE PUSH1 0x20 PUSH1 0x0 KECCAK256 ADD DUP2 SWAP1 SSTORE POP DUP2 DUP1 SLOAD DUP1 PUSH2 0x2F78 JUMPI PUSH4 0x4E487B71 PUSH1 0xE0 SHL PUSH1 0x0 MSTORE PUSH1 0x31 PUSH1 0x4 MSTORE PUSH1 0x24 PUSH1 0x0 REVERT JUMPDEST PUSH1 0x1 SWAP1 SUB DUP2 DUP2 SWAP1 PUSH1 0x0 MSTORE PUSH1 0x20 PUSH1 0x0 KECCAK256 ADD PUSH1 0x0 SWAP1 SSTORE SWAP1 SSTORE POP POP POP JUMP JUMPDEST DUP1 MLOAD PUSH1 0x20 DUP3 ADD KECCAK256 PUSH1 0x0 SWAP1 PUSH32 0x8C57226533EC41D2857120DF9ACE6DFF88130D9B32385E09C9828F75027730F3 DUP2 EQ PUSH2 0x308C JUMPI PUSH32 0x181EBE3A8FA130246D49BFD123AC54849B05BDCD02C6B1322C78DE2A3988A310 DUP2 EQ PUSH2 0x3083 JUMPI PUSH32 0x6764D804D57285AE9D4C42CC380377D3D0EE9B90FF9EECCAA32D3B2E3E8D7F17 DUP2 EQ PUSH2 0x307A JUMPI PUSH32 0xB2C1AAAF9F516585466C9876E2EAF06EE68751AAD537B2A6FA22F473D03B58EB DUP2 EQ PUSH2 0x306F JUMPI PUSH32 0xB5333297A8BD10E190CB97FB1EE0F49587C8B2E015370E943C69FD680DABC6BD DUP2 EQ PUSH2 0x3067 JUMPI PUSH1 0x0 PUSH2 0x306A JUMP JUMPDEST PUSH1 0xC8 JUMPDEST PUSH2 0x3072 JUMP JUMPDEST PUSH1 0xE1 JUMPDEST PUSH1 0xFF AND PUSH2 0x307E JUMP JUMPDEST PUSH2 0x12C JUMPDEST PUSH2 0x3087 JUMP JUMPDEST PUSH2 0x1C2 JUMPDEST PUSH2 0x3090 JUMP JUMPDEST PUSH2 0x2A3 JUMPDEST PUSH2 0xFFFF AND SWAP2 POP POP JUMPDEST SWAP2 SWAP1 POP JUMP JUMPDEST PUSH1 0x0 DUP2 PUSH1 0x1 EQ PUSH2 0x30DE JUMPI DUP2 PUSH1 0x2 EQ PUSH2 0x30D6 JUMPI DUP2 PUSH1 0x3 EQ PUSH2 0x30CE JUMPI DUP2 PUSH1 0x4 EQ PUSH2 0x30C6 JUMPI PUSH1 0x0 PUSH2 0x30C9 JUMP JUMPDEST PUSH1 0x50 JUMPDEST PUSH2 0x30D1 JUMP JUMPDEST PUSH1 0x2A JUMPDEST PUSH2 0x30D9 JUMP JUMPDEST PUSH1 0x16 JUMPDEST PUSH2 0x30E1 JUMP JUMPDEST PUSH1 0xF JUMPDEST PUSH1 0xFF AND SWAP3 SWAP2 POP POP JUMP JUMPDEST PUSH1 0x0 PUSH1 0x1 JUMPDEST PUSH1 0x5 DUP2 GT PUSH2 0x3137 JUMPI PUSH1 0x0 PUSH2 0x3102 DUP3 PUSH2 0x385E JUMP JUMPDEST SWAP1 POP DUP1 DUP5 LT PUSH2 0x311C JUMPI PUSH2 0x3115 DUP2 DUP6 PUSH2 0x42E1 JUMP JUMPDEST SWAP4 POP PUSH2 0x3124 JUMP JUMPDEST POP SWAP1 POP PUSH2 0x3098 JUMP JUMPDEST POP DUP1 PUSH2 0x312F DUP2 PUSH2 0x4333 JUMP JUMPDEST SWAP2 POP POP PUSH2 0x30EF JUMP JUMPDEST POP PUSH1 0x0 SWAP3 SWAP2 POP POP JUMP JUMPDEST PUSH1 0x0 PUSH2 0x314A PUSH2 0x3959 JUMP JUMPDEST PUSH1 0x0 DUP5 DUP2 MSTORE PUSH1 0xD PUSH1 0x20 SWAP1 DUP2 MSTORE PUSH1 0x40 DUP1 DUP4 KECCAK256 DUP1 SLOAD DUP3 MLOAD DUP2 DUP6 MUL DUP2 ADD DUP6 ADD SWAP1 SWAP4 MSTORE DUP1 DUP4 MSTORE SWAP2 SWAP3 SWAP1 SWAP2 SWAP1 DUP5 SWAP1 DUP5 ADD JUMPDEST DUP3 DUP3 LT ISZERO PUSH2 0x31BE JUMPI PUSH1 0x0 DUP5 DUP2 MSTORE PUSH1 0x20 SWAP1 DUP2 SWAP1 KECCAK256 PUSH1 0x40 DUP1 MLOAD DUP1 DUP3 ADD SWAP1 SWAP2 MSTORE PUSH1 0x2 DUP6 MUL SWAP1 SWAP2 ADD DUP1 SLOAD PUSH1 0x1 PUSH1 0x1 PUSH1 0xA0 SHL SUB AND DUP3 MSTORE PUSH1 0x1 SWAP1 DUP2 ADD SLOAD DUP3 DUP5 ADD MSTORE SWAP1 DUP4 MSTORE SWAP1 SWAP3 ADD SWAP2 ADD PUSH2 0x3176 JUMP JUMPDEST POP POP POP POP SWAP1 POP PUSH1 0x0 JUMPDEST DUP2 MLOAD DUP2 LT ISZERO PUSH2 0x325C JUMPI DUP5 PUSH1 0x1 PUSH1 0x1 PUSH1 0xA0 SHL SUB AND DUP3 DUP3 DUP2 MLOAD DUP2 LT PUSH2 0x31FA JUMPI PUSH4 0x4E487B71 PUSH1 0xE0 SHL PUSH1 0x0 MSTORE PUSH1 0x32 PUSH1 0x4 MSTORE PUSH1 0x24 PUSH1 0x0 REVERT JUMPDEST PUSH1 0x20 MUL PUSH1 0x20 ADD ADD MLOAD PUSH1 0x0 ADD MLOAD PUSH1 0x1 PUSH1 0x1 PUSH1 0xA0 SHL SUB AND EQ ISZERO PUSH2 0x324A JUMPI PUSH1 0x1 DUP3 DUP3 DUP2 MLOAD DUP2 LT PUSH2 0x3237 JUMPI PUSH4 0x4E487B71 PUSH1 0xE0 SHL PUSH1 0x0 MSTORE PUSH1 0x32 PUSH1 0x4 MSTORE PUSH1 0x24 PUSH1 0x0 REVERT JUMPDEST PUSH1 0x20 MUL PUSH1 0x20 ADD ADD MLOAD SWAP4 POP SWAP4 POP POP POP PUSH2 0x328E JUMP JUMPDEST DUP1 PUSH2 0x3254 DUP2 PUSH2 0x4333 JUMP JUMPDEST SWAP2 POP POP PUSH2 0x31C7 JUMP JUMPDEST POP PUSH1 0x0 DUP2 PUSH1 0x0 DUP2 MLOAD DUP2 LT PUSH2 0x3280 JUMPI PUSH4 0x4E487B71 PUSH1 0xE0 SHL PUSH1 0x0 MSTORE PUSH1 0x32 PUSH1 0x4 MSTORE PUSH1 0x24 PUSH1 0x0 REVERT JUMPDEST PUSH1 0x20 MUL PUSH1 0x20 ADD ADD MLOAD SWAP3 POP SWAP3 POP POP JUMPDEST SWAP3 POP SWAP3 SWAP1 POP JUMP JUMPDEST PUSH1 0x0 DUP2 DUP2 MSTORE PUSH1 0xD PUSH1 0x20 SWAP1 DUP2 MSTORE PUSH1 0x40 DUP1 DUP4 KECCAK256 DUP1 SLOAD DUP3 MLOAD DUP2 DUP6 MUL DUP2 ADD DUP6 ADD SWAP1 SWAP4 MSTORE DUP1 DUP4 MSTORE SWAP2 SWAP3 SWAP1 SWAP2 SWAP1 DUP5 SWAP1 DUP5 ADD JUMPDEST DUP3 DUP3 LT ISZERO PUSH2 0x3309 JUMPI PUSH1 0x0 DUP5 DUP2 MSTORE PUSH1 0x20 SWAP1 DUP2 SWAP1 KECCAK256 PUSH1 0x40 DUP1 MLOAD DUP1 DUP3 ADD SWAP1 SWAP2 MSTORE PUSH1 0x2 DUP6 MUL SWAP1 SWAP2 ADD DUP1 SLOAD PUSH1 0x1 PUSH1 0x1 PUSH1 0xA0 SHL SUB AND DUP3 MSTORE PUSH1 0x1 SWAP1 DUP2 ADD SLOAD DUP3 DUP5 ADD MSTORE SWAP1 DUP4 MSTORE SWAP1 SWAP3 ADD SWAP2 ADD PUSH2 0x32C1 JUMP JUMPDEST POP POP POP POP SWAP1 POP PUSH1 0x0 JUMPDEST DUP2 MLOAD DUP2 LT ISZERO PUSH2 0x34C1 JUMPI PUSH1 0x0 PUSH2 0x3362 PUSH7 0x38D7EA4C68000 DUP5 DUP5 DUP2 MLOAD DUP2 LT PUSH2 0x3348 JUMPI PUSH4 0x4E487B71 PUSH1 0xE0 SHL PUSH1 0x0 MSTORE PUSH1 0x32 PUSH1 0x4 MSTORE PUSH1 0x24 PUSH1 0x0 REVERT JUMPDEST PUSH1 0x20 MUL PUSH1 0x20 ADD ADD MLOAD PUSH1 0x20 ADD MLOAD PUSH2 0x26CD SWAP1 SWAP2 SWAP1 PUSH4 0xFFFFFFFF AND JUMP JUMPDEST SWAP1 POP PUSH1 0x0 DUP4 DUP4 DUP2 MLOAD DUP2 LT PUSH2 0x3386 JUMPI PUSH4 0x4E487B71 PUSH1 0xE0 SHL PUSH1 0x0 MSTORE PUSH1 0x32 PUSH1 0x4 MSTORE PUSH1 0x24 PUSH1 0x0 REVERT JUMPDEST PUSH1 0x20 MUL PUSH1 0x20 ADD ADD MLOAD PUSH1 0x0 ADD MLOAD SWAP1 POP PUSH2 0x339C PUSH2 0xF3D JUMP JUMPDEST PUSH1 0x5 SLOAD PUSH1 0x40 MLOAD PUSH4 0x23B872DD PUSH1 0xE0 SHL DUP2 MSTORE PUSH1 0x1 PUSH1 0x1 PUSH1 0xA0 SHL SUB SWAP3 DUP4 AND SWAP3 PUSH4 0x23B872DD SWAP3 PUSH2 0x33D1 SWAP3 SWAP2 AND SWAP1 ADDRESS SWAP1 DUP8 SWAP1 PUSH1 0x4 ADD PUSH2 0x3B98 JUMP JUMPDEST PUSH1 0x20 PUSH1 0x40 MLOAD DUP1 DUP4 SUB DUP2 PUSH1 0x0 DUP8 DUP1 EXTCODESIZE ISZERO DUP1 ISZERO PUSH2 0x33EB JUMPI PUSH1 0x0 DUP1 REVERT JUMPDEST POP GAS CALL ISZERO DUP1 ISZERO PUSH2 0x33FF JUMPI RETURNDATASIZE PUSH1 0x0 DUP1 RETURNDATACOPY RETURNDATASIZE PUSH1 0x0 REVERT JUMPDEST POP POP POP POP PUSH1 0x40 MLOAD RETURNDATASIZE PUSH1 0x1F NOT PUSH1 0x1F DUP3 ADD AND DUP3 ADD DUP1 PUSH1 0x40 MSTORE POP DUP2 ADD SWAP1 PUSH2 0x3423 SWAP2 SWAP1 PUSH2 0x3A0E JUMP JUMPDEST POP PUSH2 0x342C PUSH2 0xF3D JUMP JUMPDEST PUSH1 0x1 PUSH1 0x1 PUSH1 0xA0 SHL SUB AND PUSH4 0xA9059CBB DUP3 DUP5 PUSH1 0x40 MLOAD DUP4 PUSH4 0xFFFFFFFF AND PUSH1 0xE0 SHL DUP2 MSTORE PUSH1 0x4 ADD PUSH2 0x3459 SWAP3 SWAP2 SWAP1 PUSH2 0x3B7F JUMP JUMPDEST PUSH1 0x20 PUSH1 0x40 MLOAD DUP1 DUP4 SUB DUP2 PUSH1 0x0 DUP8 DUP1 EXTCODESIZE ISZERO DUP1 ISZERO PUSH2 0x3473 JUMPI PUSH1 0x0 DUP1 REVERT JUMPDEST POP GAS CALL ISZERO DUP1 ISZERO PUSH2 0x3487 JUMPI RETURNDATASIZE PUSH1 0x0 DUP1 RETURNDATACOPY RETURNDATASIZE PUSH1 0x0 REVERT JUMPDEST POP POP POP POP PUSH1 0x40 MLOAD RETURNDATASIZE PUSH1 0x1F NOT PUSH1 0x1F DUP3 ADD AND DUP3 ADD DUP1 PUSH1 0x40 MSTORE POP DUP2 ADD SWAP1 PUSH2 0x34AB SWAP2 SWAP1 PUSH2 0x3A0E JUMP JUMPDEST POP POP POP DUP1 DUP1 PUSH2 0x34B9 SWAP1 PUSH2 0x4333 JUMP JUMPDEST SWAP2 POP POP PUSH2 0x3312 JUMP JUMPDEST POP POP POP JUMP JUMPDEST PUSH1 0x60 PUSH1 0x0 PUSH2 0x34D3 DUP4 PUSH2 0x389B JUMP JUMPDEST SWAP1 POP PUSH1 0x0 DUP1 JUMPDEST PUSH1 0x8 SLOAD DUP2 LT ISZERO PUSH2 0x3548 JUMPI PUSH1 0x0 PUSH1 0x8 DUP3 DUP2 SLOAD DUP2 LT PUSH2 0x3506 JUMPI PUSH4 0x4E487B71 PUSH1 0xE0 SHL PUSH1 0x0 MSTORE PUSH1 0x32 PUSH1 0x4 MSTORE PUSH1 0x24 PUSH1 0x0 REVERT JUMPDEST SWAP1 PUSH1 0x0 MSTORE PUSH1 0x20 PUSH1 0x0 KECCAK256 ADD SLOAD SWAP1 POP DUP1 DUP5 GT ISZERO PUSH2 0x352C JUMPI PUSH2 0x3525 DUP5 DUP3 PUSH2 0x26EC JUMP JUMPDEST SWAP4 POP PUSH2 0x3535 JUMP JUMPDEST DUP2 SWAP3 POP POP PUSH2 0x3548 JUMP JUMPDEST POP DUP1 PUSH2 0x3540 DUP2 PUSH2 0x4333 JUMP JUMPDEST SWAP2 POP POP PUSH2 0x34D9 JUMP JUMPDEST POP PUSH1 0x9 DUP2 DUP2 SLOAD DUP2 LT PUSH2 0x356A JUMPI PUSH4 0x4E487B71 PUSH1 0xE0 SHL PUSH1 0x0 MSTORE PUSH1 0x32 PUSH1 0x4 MSTORE PUSH1 0x24 PUSH1 0x0 REVERT JUMPDEST SWAP1 PUSH1 0x0 MSTORE PUSH1 0x20 PUSH1 0x0 KECCAK256 ADD DUP1 SLOAD PUSH2 0x357F SWAP1 PUSH2 0x42F8 JUMP JUMPDEST DUP1 PUSH1 0x1F ADD PUSH1 0x20 DUP1 SWAP2 DIV MUL PUSH1 0x20 ADD PUSH1 0x40 MLOAD SWAP1 DUP2 ADD PUSH1 0x40 MSTORE DUP1 SWAP3 SWAP2 SWAP1 DUP2 DUP2 MSTORE PUSH1 0x20 ADD DUP3 DUP1 SLOAD PUSH2 0x35AB SWAP1 PUSH2 0x42F8 JUMP JUMPDEST DUP1 ISZERO PUSH2 0x35F8 JUMPI DUP1 PUSH1 0x1F LT PUSH2 0x35CD JUMPI PUSH2 0x100 DUP1 DUP4 SLOAD DIV MUL DUP4 MSTORE SWAP2 PUSH1 0x20 ADD SWAP2 PUSH2 0x35F8 JUMP JUMPDEST DUP3 ADD SWAP2 SWAP1 PUSH1 0x0 MSTORE PUSH1 0x20 PUSH1 0x0 KECCAK256 SWAP1 JUMPDEST DUP2 SLOAD DUP2 MSTORE SWAP1 PUSH1 0x1 ADD SWAP1 PUSH1 0x20 ADD DUP1 DUP4 GT PUSH2 0x35DB JUMPI DUP3 SWAP1 SUB PUSH1 0x1F AND DUP3 ADD SWAP2 JUMPDEST POP POP POP POP POP SWAP3 POP POP POP SWAP2 SWAP1 POP JUMP JUMPDEST DUP2 MLOAD PUSH1 0x20 DUP4 ADD KECCAK256 PUSH1 0x0 SWAP1 DUP2 PUSH32 0x8C57226533EC41D2857120DF9ACE6DFF88130D9B32385E09C9828F75027730F3 DUP3 EQ PUSH2 0x36FF JUMPI PUSH32 0x181EBE3A8FA130246D49BFD123AC54849B05BDCD02C6B1322C78DE2A3988A310 DUP3 EQ PUSH2 0x36F6 JUMPI PUSH32 0x6764D804D57285AE9D4C42CC380377D3D0EE9B90FF9EECCAA32D3B2E3E8D7F17 DUP3 EQ PUSH2 0x36EB JUMPI PUSH32 0xB2C1AAAF9F516585466C9876E2EAF06EE68751AAD537B2A6FA22F473D03B58EB DUP3 EQ PUSH2 0x36E3 JUMPI PUSH32 0xB5333297A8BD10E190CB97FB1EE0F49587C8B2E015370E943C69FD680DABC6BD DUP3 EQ PUSH2 0x36DB JUMPI PUSH1 0x0 PUSH2 0x36DE JUMP JUMPDEST PUSH1 0x64 JUMPDEST PUSH2 0x36E6 JUMP JUMPDEST PUSH1 0x96 JUMPDEST PUSH2 0x36EE JUMP JUMPDEST PUSH1 0xC8 JUMPDEST PUSH1 0xFF AND PUSH2 0x36FA JUMP JUMPDEST PUSH2 0x12C JUMPDEST PUSH2 0x3703 JUMP JUMPDEST PUSH2 0x1C2 JUMPDEST PUSH2 0xFFFF AND SWAP1 POP PUSH1 0x0 DUP5 PUSH1 0x1 EQ PUSH2 0x375A JUMPI DUP5 PUSH1 0x2 EQ PUSH2 0x3752 JUMPI DUP5 PUSH1 0x3 EQ PUSH2 0x374A JUMPI DUP5 PUSH1 0x4 EQ PUSH2 0x3742 JUMPI DUP5 PUSH1 0x5 EQ PUSH2 0x373A JUMPI PUSH1 0x0 PUSH2 0x373D JUMP JUMPDEST PUSH1 0x46 JUMPDEST PUSH2 0x3745 JUMP JUMPDEST PUSH1 0x28 JUMPDEST PUSH2 0x374D JUMP JUMPDEST PUSH1 0x19 JUMPDEST PUSH2 0x3755 JUMP JUMPDEST PUSH1 0xF JUMPDEST PUSH2 0x375D JUMP JUMPDEST PUSH1 0xA JUMPDEST PUSH1 0xFF AND SWAP1 POP PUSH1 0x0 PUSH1 0x1 JUMPDEST PUSH1 0x5 DUP2 GT PUSH2 0x3831 JUMPI PUSH1 0x0 PUSH2 0x3779 PUSH2 0x2012 JUMP JUMPDEST PUSH1 0x1 PUSH1 0x1 PUSH1 0xA0 SHL SUB AND PUSH3 0xFDD58E CALLER DUP5 PUSH1 0x40 MLOAD DUP4 PUSH4 0xFFFFFFFF AND PUSH1 0xE0 SHL DUP2 MSTORE PUSH1 0x4 ADD PUSH2 0x37A5 SWAP3 SWAP2 SWAP1 PUSH2 0x3B7F JUMP JUMPDEST PUSH1 0x20 PUSH1 0x40 MLOAD DUP1 DUP4 SUB DUP2 DUP7 DUP1 EXTCODESIZE ISZERO DUP1 ISZERO PUSH2 0x37BD JUMPI PUSH1 0x0 DUP1 REVERT JUMPDEST POP GAS STATICCALL ISZERO DUP1 ISZERO PUSH2 0x37D1 JUMPI RETURNDATASIZE PUSH1 0x0 DUP1 RETURNDATACOPY RETURNDATASIZE PUSH1 0x0 REVERT JUMPDEST POP POP POP POP PUSH1 0x40 MLOAD RETURNDATASIZE PUSH1 0x1F NOT PUSH1 0x1F DUP3 ADD AND DUP3 ADD DUP1 PUSH1 0x40 MSTORE POP DUP2 ADD SWAP1 PUSH2 0x37F5 SWAP2 SWAP1 PUSH2 0x3AED JUMP JUMPDEST SWAP1 POP PUSH1 0x0 PUSH2 0x3804 DUP4 PUSH1 0x1 PUSH2 0x4296 JUMP JUMPDEST SWAP1 POP PUSH2 0x3810 DUP3 DUP3 PUSH2 0x42C2 JUMP JUMPDEST PUSH2 0x381A SWAP1 DUP6 PUSH2 0x4296 JUMP JUMPDEST SWAP4 POP POP POP DUP1 DUP1 PUSH2 0x3829 SWAP1 PUSH2 0x4333 JUMP JUMPDEST SWAP2 POP POP PUSH2 0x3767 JUMP JUMPDEST POP PUSH1 0xA DUP3 PUSH2 0x383F DUP4 DUP7 PUSH2 0x4296 JUMP JUMPDEST PUSH2 0x3849 SWAP2 SWAP1 PUSH2 0x42C2 JUMP JUMPDEST PUSH2 0x3853 SWAP2 SWAP1 PUSH2 0x42AE JUMP JUMPDEST SWAP8 SWAP7 POP POP POP POP POP POP POP JUMP JUMPDEST PUSH1 0x0 PUSH2 0x3E8 TIMESTAMP DIFFICULTY DUP5 PUSH1 0x40 MLOAD PUSH1 0x20 ADD PUSH2 0x3878 SWAP4 SWAP3 SWAP2 SWAP1 PUSH2 0x3B55 JUMP JUMPDEST PUSH1 0x40 MLOAD PUSH1 0x20 DUP2 DUP4 SUB SUB DUP2 MSTORE SWAP1 PUSH1 0x40 MSTORE DUP1 MLOAD SWAP1 PUSH1 0x20 ADD KECCAK256 PUSH1 0x0 SHR PUSH2 0x1FF3 SWAP2 SWAP1 PUSH2 0x434E JUMP JUMPDEST PUSH1 0x0 PUSH1 0x64 TIMESTAMP DIFFICULTY DUP5 PUSH1 0x40 MLOAD PUSH1 0x20 ADD PUSH2 0x3878 SWAP4 SWAP3 SWAP2 SWAP1 PUSH2 0x3B55 JUMP JUMPDEST DUP3 DUP1 SLOAD PUSH2 0x38C0 SWAP1 PUSH2 0x42F8 JUMP JUMPDEST SWAP1 PUSH1 0x0 MSTORE PUSH1 0x20 PUSH1 0x0 KECCAK256 SWAP1 PUSH1 0x1F ADD PUSH1 0x20 SWAP1 DIV DUP2 ADD SWAP3 DUP3 PUSH2 0x38E2 JUMPI PUSH1 0x0 DUP6 SSTORE PUSH2 0x3928 JUMP JUMPDEST DUP3 PUSH1 0x1F LT PUSH2 0x38FB JUMPI DUP1 MLOAD PUSH1 0xFF NOT AND DUP4 DUP1 ADD OR DUP6 SSTORE PUSH2 0x3928 JUMP JUMPDEST DUP3 DUP1 ADD PUSH1 0x1 ADD DUP6 SSTORE DUP3 ISZERO PUSH2 0x3928 JUMPI SWAP2 DUP3 ADD JUMPDEST DUP3 DUP2 GT ISZERO PUSH2 0x3928 JUMPI DUP3 MLOAD DUP3 SSTORE SWAP2 PUSH1 0x20 ADD SWAP2 SWAP1 PUSH1 0x1 ADD SWAP1 PUSH2 0x390D JUMP JUMPDEST POP PUSH2 0x3934 SWAP3 SWAP2 POP PUSH2 0x3970 JUMP JUMPDEST POP SWAP1 JUMP JUMPDEST POP DUP1 SLOAD PUSH1 0x0 DUP3 SSTORE SWAP1 PUSH1 0x0 MSTORE PUSH1 0x20 PUSH1 0x0 KECCAK256 SWAP1 DUP2 ADD SWAP1 PUSH2 0x3956 SWAP2 SWAP1 PUSH2 0x3970 JUMP JUMPDEST POP JUMP JUMPDEST PUSH1 0x40 DUP1 MLOAD DUP1 DUP3 ADD SWAP1 SWAP2 MSTORE PUSH1 0x0 DUP1 DUP3 MSTORE PUSH1 0x20 DUP3 ADD MSTORE SWAP1 JUMP JUMPDEST JUMPDEST DUP1 DUP3 GT ISZERO PUSH2 0x3934 JUMPI PUSH1 0x0 DUP2 SSTORE PUSH1 0x1 ADD PUSH2 0x3971 JUMP JUMPDEST PUSH1 0x0 PUSH1 0x20 DUP3 DUP5 SUB SLT ISZERO PUSH2 0x3996 JUMPI DUP1 DUP2 REVERT JUMPDEST DUP2 MLOAD PUSH2 0x26D9 DUP2 PUSH2 0x43A4 JUMP JUMPDEST PUSH1 0x0 DUP1 PUSH1 0x0 DUP1 PUSH1 0x0 DUP1 PUSH1 0xC0 DUP8 DUP10 SUB SLT ISZERO PUSH2 0x39B9 JUMPI DUP2 DUP3 REVERT JUMPDEST DUP7 CALLDATALOAD PUSH2 0x39C4 DUP2 PUSH2 0x43A4 JUMP JUMPDEST SWAP6 POP PUSH1 0x20 DUP8 ADD CALLDATALOAD PUSH2 0x39D4 DUP2 PUSH2 0x43A4 JUMP JUMPDEST SWAP5 POP PUSH1 0x40 DUP8 ADD CALLDATALOAD PUSH2 0x39E4 DUP2 PUSH2 0x43A4 JUMP JUMPDEST SWAP4 POP PUSH1 0x60 DUP8 ADD CALLDATALOAD PUSH2 0x39F4 DUP2 PUSH2 0x43A4 JUMP JUMPDEST SWAP6 SWAP9 SWAP5 SWAP8 POP SWAP3 SWAP6 PUSH1 0x80 DUP2 ADD CALLDATALOAD SWAP5 PUSH1 0xA0 SWAP1 SWAP2 ADD CALLDATALOAD SWAP4 POP SWAP2 POP POP JUMP JUMPDEST PUSH1 0x0 PUSH1 0x20 DUP3 DUP5 SUB SLT ISZERO PUSH2 0x3A1F JUMPI DUP1 DUP2 REVERT JUMPDEST DUP2 MLOAD DUP1 ISZERO ISZERO DUP2 EQ PUSH2 0x26D9 JUMPI DUP2 DUP3 REVERT JUMPDEST PUSH1 0x0 DUP1 PUSH1 0x40 DUP4 DUP6 SUB SLT ISZERO PUSH2 0x3A40 JUMPI DUP2 DUP3 REVERT JUMPDEST DUP3 CALLDATALOAD PUSH8 0xFFFFFFFFFFFFFFFF DUP1 DUP3 GT ISZERO PUSH2 0x3A57 JUMPI DUP4 DUP5 REVERT JUMPDEST DUP2 DUP6 ADD SWAP2 POP DUP6 PUSH1 0x1F DUP4 ADD SLT PUSH2 0x3A6A JUMPI DUP4 DUP5 REVERT JUMPDEST DUP2 CALLDATALOAD PUSH1 0x20 DUP3 DUP3 GT ISZERO PUSH2 0x3A7E JUMPI PUSH2 0x3A7E PUSH2 0x438E JUMP JUMPDEST PUSH1 0x40 MLOAD PUSH1 0x1F DUP4 ADD PUSH1 0x1F NOT AND DUP2 ADD DUP3 ADD DUP5 DUP2 GT DUP3 DUP3 LT OR ISZERO PUSH2 0x3AA1 JUMPI PUSH2 0x3AA1 PUSH2 0x438E JUMP JUMPDEST PUSH1 0x40 MSTORE DUP3 DUP2 MSTORE DUP5 DUP4 ADD DUP3 ADD DUP10 LT ISZERO PUSH2 0x3AB7 JUMPI DUP7 DUP8 REVERT JUMPDEST DUP3 DUP3 DUP7 ADD DUP4 DUP4 ADD CALLDATACOPY SWAP2 DUP3 ADD DUP2 ADD SWAP6 SWAP1 SWAP6 MSTORE SWAP7 SWAP5 SWAP1 SWAP4 ADD CALLDATALOAD SWAP5 POP POP POP POP JUMP JUMPDEST PUSH1 0x0 PUSH1 0x20 DUP3 DUP5 SUB SLT ISZERO PUSH2 0x3AE6 JUMPI DUP1 DUP2 REVERT JUMPDEST POP CALLDATALOAD SWAP2 SWAP1 POP JUMP JUMPDEST PUSH1 0x0 PUSH1 0x20 DUP3 DUP5 SUB SLT ISZERO PUSH2 0x3AFE JUMPI DUP1 DUP2 REVERT JUMPDEST POP MLOAD SWAP2 SWAP1 POP JUMP JUMPDEST PUSH1 0x0 DUP1 PUSH1 0x40 DUP4 DUP6 SUB SLT ISZERO PUSH2 0x3B17 JUMPI DUP2 DUP3 REVERT JUMPDEST DUP3 CALLDATALOAD SWAP2 POP PUSH1 0x20 DUP4 ADD CALLDATALOAD PUSH2 0x3B29 DUP2 PUSH2 0x43A4 JUMP JUMPDEST DUP1 SWAP2 POP POP SWAP3 POP SWAP3 SWAP1 POP JUMP JUMPDEST PUSH1 0x0 DUP1 PUSH1 0x40 DUP4 DUP6 SUB SLT ISZERO PUSH2 0x3B46 JUMPI DUP2 DUP3 REVERT JUMPDEST POP POP DUP1 CALLDATALOAD SWAP3 PUSH1 0x20 SWAP1 SWAP2 ADD CALLDATALOAD SWAP2 POP JUMP JUMPDEST SWAP3 DUP4 MSTORE PUSH1 0x20 DUP4 ADD SWAP2 SWAP1 SWAP2 MSTORE PUSH1 0x40 DUP3 ADD MSTORE PUSH1 0x60 ADD SWAP1 JUMP JUMPDEST PUSH1 0x1 PUSH1 0x1 PUSH1 0xA0 SHL SUB SWAP2 SWAP1 SWAP2 AND DUP2 MSTORE PUSH1 0x20 ADD SWAP1 JUMP JUMPDEST PUSH1 0x1 PUSH1 0x1 PUSH1 0xA0 SHL SUB SWAP3 SWAP1 SWAP3 AND DUP3 MSTORE PUSH1 0x20 DUP3 ADD MSTORE PUSH1 0x40 ADD SWAP1 JUMP JUMPDEST PUSH1 0x1 PUSH1 0x1 PUSH1 0xA0 SHL SUB SWAP4 DUP5 AND DUP2 MSTORE SWAP2 SWAP1 SWAP3 AND PUSH1 0x20 DUP3 ADD MSTORE PUSH1 0x40 DUP2 ADD SWAP2 SWAP1 SWAP2 MSTORE PUSH1 0x60 ADD SWAP1 JUMP JUMPDEST PUSH1 0x1 PUSH1 0x1 PUSH1 0xA0 SHL SUB SWAP4 SWAP1 SWAP4 AND DUP4 MSTORE PUSH1 0x20 DUP4 ADD SWAP2 SWAP1 SWAP2 MSTORE PUSH1 0x40 DUP3 ADD MSTORE PUSH1 0x60 ADD SWAP1 JUMP JUMPDEST SWAP1 ISZERO ISZERO DUP2 MSTORE PUSH1 0x20 ADD SWAP1 JUMP JUMPDEST PUSH1 0x20 DUP1 DUP3 MSTORE PUSH1 0x2A SWAP1 DUP3 ADD MSTORE PUSH32 0x4572726F72203A20546F6B656E56616C7565206C6F776572207468616E205072 PUSH1 0x40 DUP3 ADD MSTORE PUSH10 0x34B1B2A7B32A37B5B2B7 PUSH1 0xB1 SHL PUSH1 0x60 DUP3 ADD MSTORE PUSH1 0x80 ADD SWAP1 JUMP JUMPDEST PUSH1 0x20 DUP1 DUP3 MSTORE PUSH1 0x1B SWAP1 DUP3 ADD MSTORE PUSH32 0x4572726F72203A204E6F742054726176656C20456E642054696D650000000000 PUSH1 0x40 DUP3 ADD MSTORE PUSH1 0x60 ADD SWAP1 JUMP JUMPDEST PUSH1 0x20 DUP1 DUP3 MSTORE PUSH1 0x18 SWAP1 DUP3 ADD MSTORE PUSH32 0x4572726F72203A204E6F7420546F6B656E204F776E6572210000000000000000 PUSH1 0x40 DUP3 ADD MSTORE PUSH1 0x60 ADD SWAP1 JUMP JUMPDEST PUSH1 0x20 DUP1 DUP3 MSTORE PUSH1 0x17 SWAP1 DUP3 ADD MSTORE PUSH32 0x4572726F72203A204E6F7420456E6F756768204B6C6179000000000000000000 PUSH1 0x40 DUP3 ADD MSTORE PUSH1 0x60 ADD SWAP1 JUMP JUMPDEST PUSH1 0x20 DUP1 DUP3 MSTORE PUSH1 0x33 SWAP1 DUP3 ADD MSTORE PUSH32 0x4572726F72203A204E6F7420456E6F7567682054696D6520466F722054726176 PUSH1 0x40 DUP3 ADD MSTORE PUSH19 0x656C20262620426F72726F77456E6454696D65 PUSH1 0x68 SHL PUSH1 0x60 DUP3 ADD MSTORE PUSH1 0x80 ADD SWAP1 JUMP JUMPDEST PUSH1 0x20 DUP1 DUP3 MSTORE PUSH1 0x1B SWAP1 DUP3 ADD MSTORE PUSH32 0x4572726F72203A20546F6B656E206973204E6F74204D696E696E670000000000 PUSH1 0x40 DUP3 ADD MSTORE PUSH1 0x60 ADD SWAP1 JUMP JUMPDEST PUSH1 0x20 DUP1 DUP3 MSTORE PUSH1 0x17 SWAP1 DUP3 ADD MSTORE PUSH32 0x4572726F72203A204E6F7420546F6B656E204F776E6572000000000000000000 PUSH1 0x40 DUP3 ADD MSTORE PUSH1 0x60 ADD SWAP1 JUMP JUMPDEST PUSH1 0x20 DUP1 DUP3 MSTORE PUSH1 0x1A SWAP1 DUP3 ADD MSTORE PUSH32 0x4865726F436F7265204572726F72203A206F6E6C794F776E6572000000000000 PUSH1 0x40 DUP3 ADD MSTORE PUSH1 0x60 ADD SWAP1 JUMP JUMPDEST PUSH1 0x20 DUP1 DUP3 MSTORE DUP2 DUP2 ADD MSTORE PUSH32 0x4572726F72203A206F6E6C794275792033204865726F2046726F6D204B6C6179 PUSH1 0x40 DUP3 ADD MSTORE PUSH1 0x60 ADD SWAP1 JUMP JUMPDEST PUSH1 0x20 DUP1 DUP3 MSTORE PUSH1 0x19 SWAP1 DUP3 ADD MSTORE PUSH32 0x4572726F72203A2054696D654C6F636B204475726174696F6E00000000000000 PUSH1 0x40 DUP3 ADD MSTORE PUSH1 0x60 ADD SWAP1 JUMP JUMPDEST PUSH1 0x20 DUP1 DUP3 MSTORE PUSH1 0x1B SWAP1 DUP3 ADD MSTORE PUSH32 0x4572726F72203A20546F6B656E20697320426F72726F77656421210000000000 PUSH1 0x40 DUP3 ADD MSTORE PUSH1 0x60 ADD SWAP1 JUMP JUMPDEST PUSH1 0x20 DUP1 DUP3 MSTORE PUSH1 0x1A SWAP1 DUP3 ADD MSTORE PUSH32 0x4572726F72203A20546F6B656E20697320426F72726F77656421000000000000 PUSH1 0x40 DUP3 ADD MSTORE PUSH1 0x60 ADD SWAP1 JUMP JUMPDEST PUSH1 0x20 DUP1 DUP3 MSTORE PUSH1 0x24 SWAP1 DUP3 ADD MSTORE PUSH32 0x4572726F72203A204865726F2069732042726F7777656420616E6F74686F7220 PUSH1 0x40 DUP3 ADD MSTORE PUSH4 0x2AB9B2B9 PUSH1 0xE1 SHL PUSH1 0x60 DUP3 ADD MSTORE PUSH1 0x80 ADD SWAP1 JUMP JUMPDEST PUSH1 0x20 DUP1 DUP3 MSTORE PUSH1 0x31 SWAP1 DUP3 ADD MSTORE PUSH32 0x4572726F72203A205265717565737455736572206973204E6F74204578697374 PUSH1 0x40 DUP3 ADD MSTORE PUSH17 0x656420496E205265717565737444617461 PUSH1 0x78 SHL PUSH1 0x60 DUP3 ADD MSTORE PUSH1 0x80 ADD SWAP1 JUMP JUMPDEST PUSH1 0x20 DUP1 DUP3 MSTORE PUSH1 0x18 SWAP1 DUP3 ADD MSTORE PUSH32 0x4572726F72203A204E6F742045786F75676820546F6B656E0000000000000000 PUSH1 0x40 DUP3 ADD MSTORE PUSH1 0x60 ADD SWAP1 JUMP JUMPDEST PUSH1 0x20 DUP1 DUP3 MSTORE PUSH1 0x1B SWAP1 DUP3 ADD MSTORE PUSH32 0x4572726F72203A20546F6B656E2069732054726176656C656421210000000000 PUSH1 0x40 DUP3 ADD MSTORE PUSH1 0x60 ADD SWAP1 JUMP JUMPDEST PUSH1 0x20 DUP1 DUP3 MSTORE PUSH1 0x25 SWAP1 DUP3 ADD MSTORE PUSH32 0x4572726F72203A204E6F742054726176656C4F776E6572206F72207374616B65 PUSH1 0x40 DUP3 ADD MSTORE PUSH5 0x27BBB732B9 PUSH1 0xD9 SHL PUSH1 0x60 DUP3 ADD MSTORE PUSH1 0x80 ADD SWAP1 JUMP JUMPDEST PUSH1 0x20 DUP1 DUP3 MSTORE PUSH1 0x1A SWAP1 DUP3 ADD MSTORE PUSH32 0x4572726F72203A20546F6B656E2069732054726176656C656421000000000000 PUSH1 0x40 DUP3 ADD MSTORE PUSH1 0x60 ADD SWAP1 JUMP JUMPDEST PUSH1 0x20 DUP1 DUP3 MSTORE PUSH1 0x16 SWAP1 DUP3 ADD MSTORE PUSH22 0x22B93937B9101D102737BA102A37B5B2B727BBB732B9 PUSH1 0x51 SHL PUSH1 0x40 DUP3 ADD MSTORE PUSH1 0x60 ADD SWAP1 JUMP JUMPDEST PUSH1 0x20 DUP1 DUP3 MSTORE PUSH1 0x18 SWAP1 DUP3 ADD MSTORE PUSH32 0x4572726F72203A20546F6B656E206973204D696E696E67210000000000000000 PUSH1 0x40 DUP3 ADD MSTORE PUSH1 0x60 ADD SWAP1 JUMP JUMPDEST PUSH1 0x20 DUP1 DUP3 MSTORE PUSH1 0x1C SWAP1 DUP3 ADD MSTORE PUSH32 0x4572726F72203A204E6F74204578697374656420526571756573742100000000 PUSH1 0x40 DUP3 ADD MSTORE PUSH1 0x60 ADD SWAP1 JUMP JUMPDEST PUSH1 0x20 DUP1 DUP3 MSTORE PUSH1 0x19 SWAP1 DUP3 ADD MSTORE PUSH32 0x4572726F72203A206865726F2069732054726176656C65642100000000000000 PUSH1 0x40 DUP3 ADD MSTORE PUSH1 0x60 ADD SWAP1 JUMP JUMPDEST PUSH1 0x20 DUP1 DUP3 MSTORE PUSH1 0x19 SWAP1 DUP3 ADD MSTORE PUSH32 0x4572726F72203A20546F6B656E206973204D696E696E67212100000000000000 PUSH1 0x40 DUP3 ADD MSTORE PUSH1 0x60 ADD SWAP1 JUMP JUMPDEST PUSH1 0x20 DUP1 DUP3 MSTORE PUSH1 0x15 SWAP1 DUP3 ADD MSTORE PUSH21 0x4572726F72203A2076616C7565206973205A65726F PUSH1 0x58 SHL PUSH1 0x40 DUP3 ADD MSTORE PUSH1 0x60 ADD SWAP1 JUMP JUMPDEST PUSH1 0x20 DUP1 DUP3 MSTORE PUSH1 0x1C SWAP1 DUP3 ADD MSTORE PUSH32 0x4572726F72203A204865726F206973204E6F74205374616B6564212100000000 PUSH1 0x40 DUP3 ADD MSTORE PUSH1 0x60 ADD SWAP1 JUMP JUMPDEST PUSH1 0x20 DUP1 DUP3 MSTORE PUSH1 0x23 SWAP1 DUP3 ADD MSTORE PUSH32 0x4572726F72203A206D73672E73656E646572206973204E6F7420426F72726F77 PUSH1 0x40 DUP3 ADD MSTORE PUSH3 0x657273 PUSH1 0xE8 SHL PUSH1 0x60 DUP3 ADD MSTORE PUSH1 0x80 ADD SWAP1 JUMP JUMPDEST PUSH1 0x20 DUP1 DUP3 MSTORE PUSH1 0x1F SWAP1 DUP3 ADD MSTORE PUSH32 0x4572726F72203A206D73672E73656E646572206973204E6F74204F776E657200 PUSH1 0x40 DUP3 ADD MSTORE PUSH1 0x60 ADD SWAP1 JUMP JUMPDEST PUSH1 0x20 DUP1 DUP3 MSTORE PUSH1 0x24 SWAP1 DUP3 ADD MSTORE PUSH32 0x4572726F72203A20616C7265616479205265717565737420416E6F7468657220 PUSH1 0x40 DUP3 ADD MSTORE PUSH4 0x4865726F PUSH1 0xE0 SHL PUSH1 0x60 DUP3 ADD MSTORE PUSH1 0x80 ADD SWAP1 JUMP JUMPDEST PUSH1 0x20 DUP1 DUP3 MSTORE DUP2 DUP2 ADD MSTORE PUSH32 0x4572726F72203A20546F6B656E206973204D61784C6576656C20537461747573 PUSH1 0x40 DUP3 ADD MSTORE PUSH1 0x60 ADD SWAP1 JUMP JUMPDEST SWAP1 DUP2 MSTORE PUSH1 0x20 ADD SWAP1 JUMP JUMPDEST PUSH1 0x0 DUP3 NOT DUP3 GT ISZERO PUSH2 0x42A9 JUMPI PUSH2 0x42A9 PUSH2 0x4362 JUMP JUMPDEST POP ADD SWAP1 JUMP JUMPDEST PUSH1 0x0 DUP3 PUSH2 0x42BD JUMPI PUSH2 0x42BD PUSH2 0x4378 JUMP JUMPDEST POP DIV SWAP1 JUMP JUMPDEST PUSH1 0x0 DUP2 PUSH1 0x0 NOT DIV DUP4 GT DUP3 ISZERO ISZERO AND ISZERO PUSH2 0x42DC JUMPI PUSH2 0x42DC PUSH2 0x4362 JUMP JUMPDEST POP MUL SWAP1 JUMP JUMPDEST PUSH1 0x0 DUP3 DUP3 LT ISZERO PUSH2 0x42F3 JUMPI PUSH2 0x42F3 PUSH2 0x4362 JUMP JUMPDEST POP SUB SWAP1 JUMP JUMPDEST PUSH1 0x2 DUP2 DIV PUSH1 0x1 DUP3 AND DUP1 PUSH2 0x430C JUMPI PUSH1 0x7F DUP3 AND SWAP2 POP JUMPDEST PUSH1 0x20 DUP3 LT DUP2 EQ ISZERO PUSH2 0x432D JUMPI PUSH4 0x4E487B71 PUSH1 0xE0 SHL PUSH1 0x0 MSTORE PUSH1 0x22 PUSH1 0x4 MSTORE PUSH1 0x24 PUSH1 0x0 REVERT JUMPDEST POP SWAP2 SWAP1 POP JUMP JUMPDEST PUSH1 0x0 PUSH1 0x0 NOT DUP3 EQ ISZERO PUSH2 0x4347 JUMPI PUSH2 0x4347 PUSH2 0x4362 JUMP JUMPDEST POP PUSH1 0x1 ADD SWAP1 JUMP JUMPDEST PUSH1 0x0 DUP3 PUSH2 0x435D JUMPI PUSH2 0x435D PUSH2 0x4378 JUMP JUMPDEST POP MOD SWAP1 JUMP JUMPDEST PUSH4 0x4E487B71 PUSH1 0xE0 SHL PUSH1 0x0 MSTORE PUSH1 0x11 PUSH1 0x4 MSTORE PUSH1 0x24 PUSH1 0x0 REVERT JUMPDEST PUSH4 0x4E487B71 PUSH1 0xE0 SHL PUSH1 0x0 MSTORE PUSH1 0x12 PUSH1 0x4 MSTORE PUSH1 0x24 PUSH1 0x0 REVERT JUMPDEST PUSH4 0x4E487B71 PUSH1 0xE0 SHL PUSH1 0x0 MSTORE PUSH1 0x41 PUSH1 0x4 MSTORE PUSH1 0x24 PUSH1 0x0 REVERT JUMPDEST PUSH1 0x1 PUSH1 0x1 PUSH1 0xA0 SHL SUB DUP2 AND DUP2 EQ PUSH2 0x3956 JUMPI PUSH1 0x0 DUP1 REVERT INVALID LOG2 PUSH5 0x6970667358 0x22 SLT KECCAK256 0xD3 0xBE 0xE5 0x2A 0x2A SWAP12 PUSH1 0xB5 SWAP3 0x29 BLOCKHASH PUSH29 0xA36C461FFC21A21D3664663E279942D17792679264736F6C6343000800 STOP CALLER PUSH15 0x1540171B6C0C960B71A7020D9F6007 PUSH32 0x6AF931A8BBF590DA0223DACF75C7AF0000000000000000000000000000000000 "
		},
		"gasEstimates": {
			"creation": {
				"codeDepositCost": "3478200",
				"executionCost": "infinite",
				"totalCost": "infinite"
			},
			"external": {
				"MINING_DURATION()": "318",
				"MINING_REWARD()": "339",
				"approveBorrow(uint256,address)": "infinite",
				"burn(uint256)": "infinite",
				"calculateTokenAmount(string,uint256)": "infinite",
				"cancelRequest(uint256)": "infinite",
				"changeMiningPaused()": "21989",
				"changePaused()": "21924",
				"claimMiningAmount(uint256)": "infinite",
				"depositAddress()": "1182",
				"getHeroNFT()": "1138",
				"getItem()": "1181",
				"getMiningPaused()": "1147",
				"getMintBuyAmount()": "1163",
				"getOwner()": "1115",
				"getPaused()": "1146",
				"getRewardToTravel(uint256)": "infinite",
				"getToken()": "1138",
				"initialize(address,address,address,address,uint256,uint256)": "infinite",
				"lastClaimTime()": "1117",
				"levelUp(uint256)": "infinite",
				"mining(uint256)": "infinite",
				"mintBuy()": "infinite",
				"mintByToken(uint256)": "infinite",
				"mintTimeLock(uint256)": "infinite",
				"priceOfKlay()": "1140",
				"priceOfToken()": "1074",
				"requestBorrow(uint256,uint256)": "infinite",
				"returnHero(uint256)": "infinite",
				"stake(uint256)": "infinite",
				"travel(uint256)": "infinite",
				"unStake(uint256)": "infinite",
				"viewCanClaimAmount(uint256)": "infinite"
			},
			"internal": {
				"_checkUserInBorrowData(uint256,address)": "infinite",
				"_currentTime()": "14",
				"_distributeReward()": "infinite",
				"_getHeroPower(uint256,bool)": "infinite",
				"_mintHero()": "infinite",
				"_returnBorrowRequestToken(uint256)": "infinite"
			}
		},
		"methodIdentifiers": {
			"MINING_DURATION()": "32590c5c",
			"MINING_REWARD()": "a8469ce9",
			"approveBorrow(uint256,address)": "eb600465",
			"burn(uint256)": "42966c68",
			"calculateTokenAmount(string,uint256)": "aa93c0ee",
			"cancelRequest(uint256)": "3015394c",
			"changeMiningPaused()": "ee72b8cc",
			"changePaused()": "9eb4eae5",
			"claimMiningAmount(uint256)": "727da60a",
			"depositAddress()": "28f833b7",
			"getHeroNFT()": "7cac00ee",
			"getItem()": "c412eaba",
			"getMiningPaused()": "28919df6",
			"getMintBuyAmount()": "ad74a212",
			"getOwner()": "893d20e8",
			"getPaused()": "6805b84b",
			"getRewardToTravel(uint256)": "cd7308d6",
			"getToken()": "21df0da7",
			"initialize(address,address,address,address,uint256,uint256)": "d7c41c79",
			"lastClaimTime()": "c21bae0c",
			"levelUp(uint256)": "0ce90ec2",
			"mining(uint256)": "d7dd41f2",
			"mintBuy()": "173489eb",
			"mintByToken(uint256)": "80d953dd",
			"mintTimeLock(uint256)": "83a1d7e5",
			"priceOfKlay()": "3a1a8080",
			"priceOfToken()": "1b9cbdfb",
			"requestBorrow(uint256,uint256)": "0ae2fe5c",
			"returnHero(uint256)": "6f7c8c06",
			"stake(uint256)": "a694fc3a",
			"travel(uint256)": "2a47a945",
			"unStake(uint256)": "5d3eea91",
			"viewCanClaimAmount(uint256)": "17a13522"
		}
	},
	"abi": [
		{
			"inputs": [],
			"name": "MINING_DURATION",
			"outputs": [
				{
					"internalType": "uint256",
					"name": "",
					"type": "uint256"
				}
			],
			"stateMutability": "view",
			"type": "function"
		},
		{
			"inputs": [],
			"name": "MINING_REWARD",
			"outputs": [
				{
					"internalType": "uint256",
					"name": "",
					"type": "uint256"
				}
			],
			"stateMutability": "view",
			"type": "function"
		},
		{
			"inputs": [
				{
					"internalType": "uint256",
					"name": "_tokenId",
					"type": "uint256"
				},
				{
					"internalType": "address",
					"name": "_apprrovedUser",
					"type": "address"
				}
			],
			"name": "approveBorrow",
			"outputs": [],
			"stateMutability": "nonpayable",
			"type": "function"
		},
		{
			"inputs": [
				{
					"internalType": "uint256",
					"name": "_tokenId",
					"type": "uint256"
				}
			],
			"name": "burn",
			"outputs": [],
			"stateMutability": "nonpayable",
			"type": "function"
		},
		{
			"inputs": [
				{
					"internalType": "string",
					"name": "grade",
					"type": "string"
				},
				{
					"internalType": "uint256",
					"name": "level",
					"type": "uint256"
				}
			],
			"name": "calculateTokenAmount",
			"outputs": [
				{
					"internalType": "uint256",
					"name": "",
					"type": "uint256"
				}
			],
			"stateMutability": "pure",
			"type": "function"
		},
		{
			"inputs": [
				{
					"internalType": "uint256",
					"name": "_tokenId",
					"type": "uint256"
				}
			],
			"name": "cancelRequest",
			"outputs": [],
			"stateMutability": "nonpayable",
			"type": "function"
		},
		{
			"inputs": [],
			"name": "changeMiningPaused",
			"outputs": [],
			"stateMutability": "nonpayable",
			"type": "function"
		},
		{
			"inputs": [],
			"name": "changePaused",
			"outputs": [],
			"stateMutability": "nonpayable",
			"type": "function"
		},
		{
			"inputs": [
				{
					"internalType": "uint256",
					"name": "_tokenId",
					"type": "uint256"
				}
			],
			"name": "claimMiningAmount",
			"outputs": [],
			"stateMutability": "nonpayable",
			"type": "function"
		},
		{
			"inputs": [],
			"name": "depositAddress",
			"outputs": [
				{
					"internalType": "address",
					"name": "",
					"type": "address"
				}
			],
			"stateMutability": "view",
			"type": "function"
		},
		{
			"inputs": [],
			"name": "getHeroNFT",
			"outputs": [
				{
					"internalType": "contract IHeroNFT",
					"name": "",
					"type": "address"
				}
			],
			"stateMutability": "view",
			"type": "function"
		},
		{
			"inputs": [],
			"name": "getItem",
			"outputs": [
				{
					"internalType": "contract IKIP37Full",
					"name": "",
					"type": "address"
				}
			],
			"stateMutability": "view",
			"type": "function"
		},
		{
			"inputs": [],
			"name": "getMiningPaused",
			"outputs": [
				{
					"internalType": "bool",
					"name": "",
					"type": "bool"
				}
			],
			"stateMutability": "view",
			"type": "function"
		},
		{
			"inputs": [],
			"name": "getMintBuyAmount",
			"outputs": [
				{
					"internalType": "uint256",
					"name": "",
					"type": "uint256"
				}
			],
			"stateMutability": "view",
			"type": "function"
		},
		{
			"inputs": [],
			"name": "getOwner",
			"outputs": [
				{
					"internalType": "address payable",
					"name": "",
					"type": "address"
				}
			],
			"stateMutability": "view",
			"type": "function"
		},
		{
			"inputs": [],
			"name": "getPaused",
			"outputs": [
				{
					"internalType": "bool",
					"name": "",
					"type": "bool"
				}
			],
			"stateMutability": "view",
			"type": "function"
		},
		{
			"inputs": [
				{
					"internalType": "uint256",
					"name": "_tokenId",
					"type": "uint256"
				}
			],
			"name": "getRewardToTravel",
			"outputs": [],
			"stateMutability": "nonpayable",
			"type": "function"
		},
		{
			"inputs": [],
			"name": "getToken",
			"outputs": [
				{
					"internalType": "contract IKIP7",
					"name": "",
					"type": "address"
				}
			],
			"stateMutability": "view",
			"type": "function"
		},
		{
			"inputs": [
				{
					"internalType": "address",
					"name": "_heroNFT",
					"type": "address"
				},
				{
					"internalType": "address",
					"name": "_token",
					"type": "address"
				},
				{
					"internalType": "address",
					"name": "_item",
					"type": "address"
				},
				{
					"internalType": "address",
					"name": "_depositAddress",
					"type": "address"
				},
				{
					"internalType": "uint256",
					"name": "_klay",
					"type": "uint256"
				},
				{
					"internalType": "uint256",
					"name": "_tokenPrice",
					"type": "uint256"
				}
			],
			"name": "initialize",
			"outputs": [],
			"stateMutability": "nonpayable",
			"type": "function"
		},
		{
			"inputs": [],
			"name": "lastClaimTime",
			"outputs": [
				{
					"internalType": "uint256",
					"name": "",
					"type": "uint256"
				}
			],
			"stateMutability": "view",
			"type": "function"
		},
		{
			"inputs": [
				{
					"internalType": "uint256",
					"name": "_tokenId",
					"type": "uint256"
				}
			],
			"name": "levelUp",
			"outputs": [],
			"stateMutability": "nonpayable",
			"type": "function"
		},
		{
			"inputs": [
				{
					"internalType": "uint256",
					"name": "_tokenId",
					"type": "uint256"
				}
			],
			"name": "mining",
			"outputs": [],
			"stateMutability": "nonpayable",
			"type": "function"
		},
		{
			"inputs": [],
			"name": "mintBuy",
			"outputs": [],
			"stateMutability": "payable",
			"type": "function"
		},
		{
			"inputs": [
				{
					"internalType": "uint256",
					"name": "_tokenAmount",
					"type": "uint256"
				}
			],
			"name": "mintByToken",
			"outputs": [],
			"stateMutability": "nonpayable",
			"type": "function"
		},
		{
			"inputs": [
				{
					"internalType": "uint256",
					"name": "_index",
					"type": "uint256"
				}
			],
			"name": "mintTimeLock",
			"outputs": [],
			"stateMutability": "nonpayable",
			"type": "function"
		},
		{
			"inputs": [],
			"name": "priceOfKlay",
			"outputs": [
				{
					"internalType": "uint256",
					"name": "",
					"type": "uint256"
				}
			],
			"stateMutability": "view",
			"type": "function"
		},
		{
			"inputs": [],
			"name": "priceOfToken",
			"outputs": [
				{
					"internalType": "uint256",
					"name": "",
					"type": "uint256"
				}
			],
			"stateMutability": "view",
			"type": "function"
		},
		{
			"inputs": [
				{
					"internalType": "uint256",
					"name": "_tokenId",
					"type": "uint256"
				},
				{
					"internalType": "uint256",
					"name": "_duartion",
					"type": "uint256"
				}
			],
			"name": "requestBorrow",
			"outputs": [],
			"stateMutability": "nonpayable",
			"type": "function"
		},
		{
			"inputs": [
				{
					"internalType": "uint256",
					"name": "_tokenId",
					"type": "uint256"
				}
			],
			"name": "returnHero",
			"outputs": [],
			"stateMutability": "nonpayable",
			"type": "function"
		},
		{
			"inputs": [
				{
					"internalType": "uint256",
					"name": "_tokenId",
					"type": "uint256"
				}
			],
			"name": "stake",
			"outputs": [],
			"stateMutability": "nonpayable",
			"type": "function"
		},
		{
			"inputs": [
				{
					"internalType": "uint256",
					"name": "_tokenId",
					"type": "uint256"
				}
			],
			"name": "travel",
			"outputs": [],
			"stateMutability": "nonpayable",
			"type": "function"
		},
		{
			"inputs": [
				{
					"internalType": "uint256",
					"name": "_tokenId",
					"type": "uint256"
				}
			],
			"name": "unStake",
			"outputs": [],
			"stateMutability": "nonpayable",
			"type": "function"
		},
		{
			"inputs": [
				{
					"internalType": "uint256",
					"name": "_tokenId",
					"type": "uint256"
				}
			],
			"name": "viewCanClaimAmount",
			"outputs": [
				{
					"internalType": "uint256",
					"name": "",
					"type": "uint256"
				}
			],
			"stateMutability": "view",
			"type": "function"
		}
	]
}