{
	"data": {
		"bytecode": {
			"linkReferences": {},
			"object": "608060405234801561001057600080fd5b50614027806100206000396000f3fe6080604052600436106101ee5760003560e01c8063727da60a1161010d578063aa93c0ee116100a0578063d7c41c791161006f578063d7c41c79146104f3578063d7dd41f214610513578063e1c7392a14610533578063eb60046514610548578063ee72b8cc14610568576101ee565b8063aa93c0ee14610489578063ad74a212146104a9578063c21bae0c146104be578063cd7308d6146104d3576101ee565b8063893d20e8116100dc578063893d20e81461042a5780639eb4eae51461043f578063a694fc3a14610454578063a8469ce914610474576101ee565b8063727da60a146103b55780637cac00ee146103d557806380d953dd146103ea57806383a1d7e51461040a576101ee565b80632a47a9451161018557806342966c681161015457806342966c681461034b57806348f497791461036b5780635d3eea91146103805780636805b84b146103a0576101ee565b80632a47a945146102e15780633015394c1461030157806332590c5c146103215780633a1a808014610336576101ee565b80631b9cbdfb116101c15780631b9cbdfb1461027357806321df0da71461028857806328919df6146102aa57806328f833b7146102cc576101ee565b80630ae2fe5c146101f35780630ce90ec214610215578063173489eb1461023557806317a135221461023d575b600080fd5b3480156101ff57600080fd5b5061021361020e366004613740565b61057d565b005b34801561022157600080fd5b506102136102303660046136e1565b610833565b610213610b55565b34801561024957600080fd5b5061025d6102583660046136e1565b610c6e565b60405161026a9190613e91565b60405180910390f35b34801561027f57600080fd5b5061025d610f2c565b34801561029457600080fd5b5061029d610f32565b60405161026a9190613761565b3480156102b657600080fd5b506102bf610f41565b60405161026a91906137b2565b3480156102d857600080fd5b5061029d610f51565b3480156102ed57600080fd5b506102136102fc3660046136e1565b610f60565b34801561030d57600080fd5b5061021361031c3660046136e1565b611159565b34801561032d57600080fd5b5061025d6115ee565b34801561034257600080fd5b5061025d6115f5565b34801561035757600080fd5b506102136103663660046136e1565b6115fb565b34801561037757600080fd5b5061029d61165c565b34801561038c57600080fd5b5061021361039b3660046136e1565b61166b565b3480156103ac57600080fd5b506102bf6118ce565b3480156103c157600080fd5b506102136103d03660046136e1565b6118de565b3480156103e157600080fd5b5061029d611a73565b3480156103f657600080fd5b506102136104053660046136e1565b611a82565b34801561041657600080fd5b506102136104253660046136e1565b611c1a565b34801561043657600080fd5b5061029d611c8a565b34801561044b57600080fd5b50610213611c99565b34801561046057600080fd5b5061021361046f3660046136e1565b611ce4565b34801561048057600080fd5b5061025d611e24565b34801561049557600080fd5b5061025d6104a4366004613665565b611e32565b3480156104b557600080fd5b5061025d611e80565b3480156104ca57600080fd5b5061025d611e93565b3480156104df57600080fd5b506102136104ee3660046136e1565b611e99565b3480156104ff57600080fd5b5061021361050e366004613542565b61207e565b34801561051f57600080fd5b5061021361052e3660046136e1565b612124565b34801561053f57600080fd5b50610213612250565b34801561055457600080fd5b50610213610563366004613711565b6122c0565b34801561057457600080fd5b5061021361246f565b816000610588611a73565b6001600160a01b0316636352211e836040518263ffffffff1660e01b81526004016105b39190613e91565b60206040518083038186803b1580156105cb57600080fd5b505afa1580156105df573d6000803e3d6000fd5b505050506040513d601f19601f820116820180604052508101906106039190613526565b90506001600160a01b03811630146106365760405162461bcd60e51b815260040161062d90613d67565b60405180910390fd5b6000848152600960205260409020600481015460ff16156106695760405162461bcd60e51b815260040161062d90613aad565b336000908152600c6020526040902054156106965760405162461bcd60e51b815260040161062d90613e18565b6000858152600b6020908152604080832081518083018352338082528185018a81528354600180820186559488528688209351600290910290930180546001600160a01b0319166001600160a01b039094169390931783555191909201558352600c90915281208690556107118566038d7ea4c680006124ba565b905061071b610f32565b6001600160a01b03166323b872dd3330846040518463ffffffff1660e01b815260040161074a9392919061378e565b602060405180830381600087803b15801561076457600080fd5b505af1158015610778573d6000803e3d6000fd5b505050506040513d601f19601f8201168201806040525081019061079c91906135af565b506107a5610f32565b6004805460405163a9059cbb60e01b81526001600160a01b039384169363a9059cbb936107d89390911691869101613775565b602060405180830381600087803b1580156107f257600080fd5b505af1158015610806573d6000803e3d6000fd5b505050506040513d601f19601f8201168201806040525081019061082a91906135af565b50505050505050565b80600061083e611a73565b6001600160a01b0316636352211e836040518263ffffffff1660e01b81526004016108699190613e91565b60206040518083038186803b15801561088157600080fd5b505afa158015610895573d6000803e3d6000fd5b505050506040513d601f19601f820116820180604052508101906108b99190613526565b90506001600160a01b03811630146108e35760405162461bcd60e51b815260040161062d90613d67565b60008381526009602052604090206004810154630100000090046001600160a01b031633146109245760405162461bcd60e51b815260040161062d90613c2c565b8054600581106109465760405162461bcd60e51b815260040161062d90613e5c565b60006109de83600101805461095a90613f5a565b80601f016020809104026020016040519081016040528092919081815260200182805461098690613f5a565b80156109d35780601f106109a8576101008083540402835291602001916109d3565b820191906000526020600020905b8154815290600101906020018083116109b657829003601f168201915b505050505083611e32565b9050806109e9610f32565b6001600160a01b03166370a08231336040518263ffffffff1660e01b8152600401610a149190613761565b60206040518083038186803b158015610a2c57600080fd5b505afa158015610a40573d6000803e3d6000fd5b505050506040513d601f19601f82011682018060405250810190610a6491906136f9565b1015610a825760405162461bcd60e51b815260040161062d90613b42565b610a8d8260016124cd565b8355610a97610f32565b6001600160a01b03166323b872dd3330846040518463ffffffff1660e01b8152600401610ac69392919061378e565b602060405180830381600087803b158015610ae057600080fd5b505af1158015610af4573d6000803e3d6000fd5b505050506040513d601f19601f82011682018060405250810190610b1891906135af565b50610b21610f32565b6001600160a01b031663a9059cbb610b37611c8a565b836040518363ffffffff1660e01b81526004016107d8929190613775565b33600090815260086020526040812054600554349290610b769084906124d9565b905060038210610b985760405162461bcd60e51b815260040161062d906139a4565b82610bb55760405162461bcd60e51b815260040161062d90613d38565b600554831015610bd75760405162461bcd60e51b815260040161062d90613875565b610be28260016124cd565b33600090815260086020526040902055610bfa6124e5565b610c02611c8a565b6001600160a01b03166108fc849081150290604051600060405180830381858888f19350505050158015610c3a573d6000803e3d6000fd5b50604051339082156108fc029083906000818181858888f19350505050158015610c68573d6000803e3d6000fd5b50505050565b6000816000610c7b611a73565b6001600160a01b0316636352211e836040518263ffffffff1660e01b8152600401610ca69190613e91565b60206040518083038186803b158015610cbe57600080fd5b505afa158015610cd2573d6000803e3d6000fd5b505050506040513d601f19601f82011682018060405250810190610cf69190613526565b90506001600160a01b0381163014610d205760405162461bcd60e51b815260040161062d90613d67565b6000600960008681526020019081526020016000206040518060a001604052908160008201548152602001600182018054610d5a90613f5a565b80601f0160208091040260200160405190810160405280929190818152602001828054610d8690613f5a565b8015610dd35780601f10610da857610100808354040283529160200191610dd3565b820191906000526020600020905b815481529060010190602001808311610db657829003601f168201915b505050918352505060028201546020808301919091526003830154604080840191909152805160c081018252600485015460ff8082161515835261010082048116151583860152620100008204161515828401526001600160a01b0363010000009091048116606083810191909152835180850185526005880154831681526006880154818701526080840152835180850190945260078701548452600890960154169282019290925260a08201529101529050610e8f610f41565b610f1e576000610ea1600060016127ca565b90506000610eb9600a54610eb3612b96565b906124d9565b90506000610ede82610ed8691a784379d99db4200000622819a0612b9a565b906124ba565b90506000610eed8960006127ca565b90506000610eff82610ed88588612b9a565b6060870151909150610f1190826124cd565b9850505050505050610f25565b6060015192505b5050919050565b60065481565b6002546001600160a01b031690565b600454600160b01b900460ff1690565b6004546001600160a01b031681565b806000610f6b611a73565b6001600160a01b0316636352211e836040518263ffffffff1660e01b8152600401610f969190613e91565b60206040518083038186803b158015610fae57600080fd5b505afa158015610fc2573d6000803e3d6000fd5b505050506040513d601f19601f82011682018060405250810190610fe69190613526565b90506001600160a01b03811630146110105760405162461bcd60e51b815260040161062d90613d67565b600083815260096020526040812090611027612b96565b905060006110388262093a806124cd565b6004840154909150610100900460ff16156110655760405162461bcd60e51b815260040161062d90613cca565b600483015462010000900460ff16156110905760405162461bcd60e51b815260040161062d90613cca565b600483015460ff16156110f25760088301546001600160a01b031633146110c95760405162461bcd60e51b815260040161062d90613d9e565b60078301548111156110ed5760405162461bcd60e51b815260040161062d906138ac565b611125565b6004830154630100000090046001600160a01b031633146111255760405162461bcd60e51b815260040161062d90613de1565b60048301805461ff0019166101001790556005830180546001600160a01b0319163317905560069092019190915550505050565b806000611164611a73565b6001600160a01b0316636352211e836040518263ffffffff1660e01b815260040161118f9190613e91565b60206040518083038186803b1580156111a757600080fd5b505afa1580156111bb573d6000803e3d6000fd5b505050506040513d601f19601f820116820180604052508101906111df9190613526565b90506001600160a01b03811630146112095760405162461bcd60e51b815260040161062d90613d67565b336000908152600c60205260409020546112355760405162461bcd60e51b815260040161062d90613c93565b336000908152600c60209081526040808320839055858352600b9091528120905b81548110156115e757336001600160a01b031682828154811061128957634e487b7160e01b600052603260045260246000fd5b60009182526020909120600290910201546001600160a01b031614156115d5578181815481106112c957634e487b7160e01b600052603260045260246000fd5b60009182526020822060029091020180546001600160a01b0319168155600190810191909155825414806113095750815481906113079060016124d9565b145b1561135a578180548061132c57634e487b7160e01b600052603160045260246000fd5b60008281526020812060026000199093019283020180546001600160a01b0319168155600101559055611468565b8154600090839061136c9060016124d9565b8154811061138a57634e487b7160e01b600052603260045260246000fd5b60009182526020918290206040805180820190915260029092020180546001600160a01b031682526001015491810191909152835490915081908490849081106113e457634e487b7160e01b600052603260045260246000fd5b600091825260209182902083516002929092020180546001600160a01b0319166001600160a01b03909216919091178155910151600190910155825483908061143d57634e487b7160e01b600052603160045260246000fd5b60008281526020812060026000199093019283020180546001600160a01b0319168155600101559055505b60006114b566038d7ea4c6800084848154811061149557634e487b7160e01b600052603260045260246000fd5b9060005260206000209060020201600101546124ba90919063ffffffff16565b90506114bf610f32565b600480546040516323b872dd60e01b81526001600160a01b03938416936323b872dd936114f49390911691309187910161378e565b602060405180830381600087803b15801561150e57600080fd5b505af1158015611522573d6000803e3d6000fd5b505050506040513d601f19601f8201168201806040525081019061154691906135af565b5061154f610f32565b6001600160a01b031663a9059cbb33836040518363ffffffff1660e01b815260040161157c929190613775565b602060405180830381600087803b15801561159657600080fd5b505af11580156115aa573d6000803e3d6000fd5b505050506040513d601f19601f820116820180604052508101906115ce91906135af565b50506115e7565b806115df81613f95565b915050611256565b5050505050565b622819a081565b60055481565b611603611a73565b6001600160a01b03166342966c68826040518263ffffffff1660e01b815260040161162e9190613e91565b600060405180830381600087803b15801561164857600080fd5b505af11580156115e7573d6000803e3d6000fd5b6001546001600160a01b031690565b806000611676611a73565b6001600160a01b0316636352211e836040518263ffffffff1660e01b81526004016116a19190613e91565b60206040518083038186803b1580156116b957600080fd5b505afa1580156116cd573d6000803e3d6000fd5b505050506040513d601f19601f820116820180604052508101906116f19190613526565b90506001600160a01b038116301461171b5760405162461bcd60e51b815260040161062d90613d67565b6000838152600960205260409020600481015460ff161561174e5760405162461bcd60e51b815260040161062d90613a3f565b6004810154610100900460ff16156117785760405162461bcd60e51b815260040161062d90613b79565b600481015462010000900460ff16156117a35760405162461bcd60e51b815260040161062d90613d01565b6117ab612ba6565b6003810180546004830180546301000000600160b81b031916905560009091556117d3612b96565b600a556117de610f32565b6001600160a01b031663a9059cbb33836040518363ffffffff1660e01b815260040161180b929190613775565b602060405180830381600087803b15801561182557600080fd5b505af1158015611839573d6000803e3d6000fd5b505050506040513d601f19601f8201168201806040525081019061185d91906135af565b50611866611a73565b6001600160a01b03166323b872dd3033886040518463ffffffff1660e01b81526004016118959392919061378e565b600060405180830381600087803b1580156118af57600080fd5b505af11580156118c3573d6000803e3d6000fd5b505050505050505050565b600454600160a81b900460ff1690565b8060006118e9611a73565b6001600160a01b0316636352211e836040518263ffffffff1660e01b81526004016119149190613e91565b60206040518083038186803b15801561192c57600080fd5b505afa158015611940573d6000803e3d6000fd5b505050506040513d601f19601f820116820180604052508101906119649190613526565b90506001600160a01b038116301461198e5760405162461bcd60e51b815260040161062d90613d67565b60008381526009602052604090206119a4612ba6565b6003810180546000909155600482015462010000900460ff166119d95760405162461bcd60e51b815260040161062d906138ff565b6119e1612b96565b600a556119ec610f32565b6001600160a01b031663a9059cbb33836040518363ffffffff1660e01b8152600401611a19929190613775565b602060405180830381600087803b158015611a3357600080fd5b505af1158015611a47573d6000803e3d6000fd5b505050506040513d601f19601f82011682018060405250810190611a6b91906135af565b505050505050565b6000546001600160a01b031690565b6006548190811015611aa65760405162461bcd60e51b815260040161062d906137bd565b611aae610f32565b6001600160a01b03166323b872dd3330846040518463ffffffff1660e01b8152600401611add9392919061378e565b602060405180830381600087803b158015611af757600080fd5b505af1158015611b0b573d6000803e3d6000fd5b505050506040513d601f19601f82011682018060405250810190611b2f91906135af565b50600654811115611be4576000611b51600654836124d990919063ffffffff16565b9050611b5b610f32565b6001600160a01b031663a9059cbb611b71611c8a565b836040518363ffffffff1660e01b8152600401611b8f929190613775565b602060405180830381600087803b158015611ba957600080fd5b505af1158015611bbd573d6000803e3d6000fd5b505050506040513d601f19601f82011682018060405250810190611be191906135af565b50505b336000908152600760205260409020611c004262093a806124cd565b815460018101835560009283526020909220909101555050565b336000908152600760205260408120805483908110611c4957634e487b7160e01b600052603260045260246000fd5b90600052602060002001549050428111611c755760405162461bcd60e51b815260040161062d90613a08565b611c7e82612cd6565b611c866124e5565b5050565b6003546001600160a01b031690565b6003546001600160a01b03163314611cc35760405162461bcd60e51b815260040161062d9061396d565b6004805460ff60a81b198116600160a81b9182900460ff1615909102179055565b6000611cee611a73565b6001600160a01b0316636352211e836040518263ffffffff1660e01b8152600401611d199190613e91565b60206040518083038186803b158015611d3157600080fd5b505afa158015611d45573d6000803e3d6000fd5b505050506040513d601f19601f82011682018060405250810190611d699190613526565b60008381526009602052604090209091506001600160a01b0382163314611da25760405162461bcd60e51b815260040161062d90613936565b6004810180546301000000600160b81b03191633630100000002179055611dc7611a73565b6001600160a01b03166323b872dd3330866040518463ffffffff1660e01b8152600401611df69392919061378e565b600060405180830381600087803b158015611e1057600080fd5b505af115801561082a573d6000803e3d6000fd5b691a784379d99db420000081565b600080611e3e84612dfe565b90506000611e4b84612f06565b9050600a611e598284613f24565b611e639190613f04565b611e7590670de0b6b3a7640000613f24565b925050505b92915050565b3360009081526008602052604090205490565b600a5481565b806000611ea4611a73565b6001600160a01b0316636352211e836040518263ffffffff1660e01b8152600401611ecf9190613e91565b60206040518083038186803b158015611ee757600080fd5b505afa158015611efb573d6000803e3d6000fd5b505050506040513d601f19601f82011682018060405250810190611f1f9190613526565b90506001600160a01b0381163014611f495760405162461bcd60e51b815260040161062d90613d67565b600083815260096020526040812090611f60612b96565b6004830154909150610100900460ff16611f8c5760405162461bcd60e51b815260040161062d90613cca565b6006820154811015611fb05760405162461bcd60e51b815260040161062d90613807565b600582015460048301546001600160a01b0391821691336301000000909204161480611fe45750336001600160a01b038216145b6120005760405162461bcd60e51b815260040161062d90613bb0565b600783015460009083111561204c575060048301805460ff191690819055600060078501556008840180546001600160a01b0319169055630100000090046001600160a01b031661204f565b50805b50505060048101805461ff00191690556005810180546001600160a01b03191690556000600690910155505050565b6003546001600160a01b031633146120a85760405162461bcd60e51b815260040161062d9061396d565b6120ba82670de0b6b3a76400006124ba565b6005556120cf81670de0b6b3a76400006124ba565b6006555050600080546001600160a01b039586166001600160a01b0319918216179091556001805494861694821694909417909355600280549285169284169290921790915560048054919093169116179055565b80600061212f611a73565b6001600160a01b0316636352211e836040518263ffffffff1660e01b815260040161215a9190613e91565b60206040518083038186803b15801561217257600080fd5b505afa158015612186573d6000803e3d6000fd5b505050506040513d601f19601f820116820180604052508101906121aa9190613526565b90506001600160a01b03811630146121d45760405162461bcd60e51b815260040161062d90613d67565b6000838152600960205260409020600481015460ff16156122075760405162461bcd60e51b815260040161062d90613a76565b6004810154610100900460ff16156122315760405162461bcd60e51b815260040161062d90613bf5565b612239612ba6565b600401805462ff0000191662010000179055505050565b600454600160a01b900460ff161561227a5760405162461bcd60e51b815260040161062d906139d9565b60048054600380546001600160a01b0319163317905560ff60a01b1960ff60b01b1960ff60a81b19909216600160a81b1791909116600160b01b1716600160a01b179055565b8160006122cb611a73565b6001600160a01b0316636352211e836040518263ffffffff1660e01b81526004016122f69190613e91565b60206040518083038186803b15801561230e57600080fd5b505afa158015612322573d6000803e3d6000fd5b505050506040513d601f19601f820116820180604052508101906123469190613526565b90506001600160a01b03811630146123705760405162461bcd60e51b815260040161062d90613d67565b600084815260096020526040812090612387612b96565b600483015490915062010000900460ff16156123b55760405162461bcd60e51b815260040161062d90613c5c565b6004820154630100000090046001600160a01b031633146123e85760405162461bcd60e51b815260040161062d9061383e565b6000806123f58888612f53565b91509150816124165760405162461bcd60e51b815260040161062d90613af1565b6020810151612424896130a8565b60048501805460ff1916600117905561243d84826124cd565b60078601555051600890930180546001600160a01b0319166001600160a01b0390941693909317909255505050505050565b6003546001600160a01b031633146124995760405162461bcd60e51b815260040161062d9061396d565b6004805460ff60b01b198116600160b01b9182900460ff1615909102179055565b60006124c68284613f24565b9392505050565b60006124c68284613eec565b60006124c68284613f43565b6124ed611a73565b6001600160a01b0316636a627842336040518263ffffffff1660e01b81526004016125189190613761565b600060405180830381600087803b15801561253257600080fd5b505af1158015612546573d6000803e3d6000fd5b505050506000612554611a73565b6001600160a01b031663295d3ee86040518163ffffffff1660e01b815260040160206040518083038186803b15801561258c57600080fd5b505afa1580156125a0573d6000803e3d6000fd5b505050506040513d601f19601f820116820180604052508101906125c491906136f9565b905060006125d061165c565b6001600160a01b0316636a3f9171836040518263ffffffff1660e01b81526004016125fb9190613e91565b60006040518083038186803b15801561261357600080fd5b505afa158015612627573d6000803e3d6000fd5b505050506040513d6000823e601f3d908101601f1916820160405261264f91908101906135cf565b6040805160a0808201835260018083526020808401868152428587015260006060808701829052875160c081018952828152808501839052808901839052908101829052875180890189528281528085018390526080828101919091528851808a018a5283815280860184905296820196909652948601949094528884526009825294909220835181559351805195965092946126f493918501929190910190613455565b50604082810151600283015560608084015160038401556080938401518051600485018054602080850151968501519585015160ff199092169315159390931761ff001916610100961515969096029590951762ff000019166201000094151594909402939093176301000000600160b81b03191663010000006001600160a01b0395861602179092559384015180516005850180546001600160a01b031990811692861692909217905590820151600685015560a0909401518051600785015501516008909201805490931691161790555050565b60008115612a135760006127dc611a73565b6001600160a01b031663295d3ee86040518163ffffffff1660e01b815260040160206040518083038186803b15801561281457600080fd5b505afa158015612828573d6000803e3d6000fd5b505050506040513d601f19601f8201168201806040525081019061284c91906136f9565b9050600060015b828111612a09576000600960008381526020019081526020016000206040518060a00160405290816000820154815260200160018201805461289490613f5a565b80601f01602080910402602001604051908101604052809291908181526020018280546128c090613f5a565b801561290d5780601f106128e25761010080835404028352916020019161290d565b820191906000526020600020905b8154815290600101906020018083116128f057829003601f168201915b505050918352505060028201546020808301919091526003830154604080840191909152805160c081018252600485015460ff8082161515835261010082048116151583860152620100008204161515828401526001600160a01b03630100000090910481166060838101919091528351808501855260058801548316815260068801548187015260808085019190915284518086018652600789015481526008909801549092169487019490945260a08201959095529190920152908201510151909150156129f6576129f36129ec826020015183600001516132d9565b84906124cd565b92505b5080612a0181613f95565b915050612853565b509150611e7a9050565b6000600960008581526020019081526020016000206040518060a001604052908160008201548152602001600182018054612a4d90613f5a565b80601f0160208091040260200160405190810160405280929190818152602001828054612a7990613f5a565b8015612ac65780601f10612a9b57610100808354040283529160200191612ac6565b820191906000526020600020905b815481529060010190602001808311612aa957829003601f168201915b505050918352505060028201546020808301919091526003830154604080840191909152805160c081018252600485015460ff8082161515835261010082048116151583860152620100008204161515828401526001600160a01b0363010000009091048116606083810191909152835180850185526005880154831681526006880154818701526080840152835180850190945260078701548452600890960154168284015260a081019190915292909101919091528101518151919250612b8e916132d9565b915050611e7a565b4290565b60006124c68284613f04565b612bae610f41565b612cd4576000612bc0600060016127ca565b90506000612bcc611a73565b6001600160a01b031663295d3ee86040518163ffffffff1660e01b815260040160206040518083038186803b158015612c0457600080fd5b505afa158015612c18573d6000803e3d6000fd5b505050506040513d601f19601f82011682018060405250810190612c3c91906136f9565b90506000612c4e600a54610eb3612b96565b90506000612c6d82610ed8691a784379d99db4200000622819a0612b9a565b905060015b8381116115e757600081815260096020526040812090612c9283826127ca565b90506000612ca482610ed8878b612b9a565b6003840154909150612cb690826124cd565b83600301819055505050508080612ccc90613f95565b915050612c72565b565b336000908152600760205260408120612cee916134d9565b336000908152600760205260409020805460011480612d1a575080548290612d1890600190613f43565b145b15612d585780805480612d3d57634e487b7160e01b600052603160045260246000fd5b60019003818190600052602060002001600090559055611c86565b80546000908290612d6b90600190613f43565b81548110612d8957634e487b7160e01b600052603260045260246000fd5b9060005260206000200154905080828481548110612db757634e487b7160e01b600052603260045260246000fd5b906000526020600020018190555081805480612de357634e487b7160e01b600052603160045260246000fd5b60019003818190600052602060002001600090559055505050565b805160208201206000907f8c57226533ec41d2857120df9ace6dff88130d9b32385e09c9828f75027730f38114612ef7577f181ebe3a8fa130246d49bfd123ac54849b05bdcd02c6b1322c78de2a3988a3108114612eee577f6764d804d57285ae9d4c42cc380377d3d0ee9b90ff9eeccaa32d3b2e3e8d7f178114612ee5577fb2c1aaaf9f516585466c9876e2eaf06ee68751aad537b2a6fa22f473d03b58eb8114612eda577fb5333297a8bd10e190cb97fb1ee0f49587c8b2e015370e943c69fd680dabc6bd8114612ed2576000612ed5565b60c85b612edd565b60e15b60ff16612ee9565b61012c5b612ef2565b6101c25b612efb565b6102a35b61ffff169392505050565b600081600114612f475781600214612f3f5781600314612f375781600414612f2f576000612f32565b60505b612f3a565b602a5b612f42565b60165b612f4a565b600f5b60ff1692915050565b6000612f5d6134fa565b6000848152600b6020908152604080832080548251818502810185019093528083529192909190849084015b82821015612fd1576000848152602090819020604080518082019091526002850290910180546001600160a01b03168252600190810154828401529083529092019101612f89565b50505050905060005b815181101561306f57846001600160a01b031682828151811061300d57634e487b7160e01b600052603260045260246000fd5b6020026020010151600001516001600160a01b0316141561305d57600182828151811061304a57634e487b7160e01b600052603260045260246000fd5b60200260200101519350935050506130a1565b8061306781613f95565b915050612fda565b5060008160008151811061309357634e487b7160e01b600052603260045260246000fd5b602002602001015192509250505b9250929050565b6000818152600b6020908152604080832080548251818502810185019093528083529192909190849084015b8282101561311c576000848152602090819020604080518082019091526002850290910180546001600160a01b031682526001908101548284015290835290920191016130d4565b50505050905060005b81518110156132d457600061317566038d7ea4c6800084848151811061315b57634e487b7160e01b600052603260045260246000fd5b6020026020010151602001516124ba90919063ffffffff16565b9050600083838151811061319957634e487b7160e01b600052603260045260246000fd5b60200260200101516000015190506131af610f32565b600480546040516323b872dd60e01b81526001600160a01b03938416936323b872dd936131e49390911691309188910161378e565b602060405180830381600087803b1580156131fe57600080fd5b505af1158015613212573d6000803e3d6000fd5b505050506040513d601f19601f8201168201806040525081019061323691906135af565b5061323f610f32565b6001600160a01b031663a9059cbb82846040518363ffffffff1660e01b815260040161326c929190613775565b602060405180830381600087803b15801561328657600080fd5b505af115801561329a573d6000803e3d6000fd5b505050506040513d601f19601f820116820180604052508101906132be91906135af565b50505080806132cc90613f95565b915050613125565b505050565b81516020830120600090817f8c57226533ec41d2857120df9ace6dff88130d9b32385e09c9828f75027730f382146133d2577f181ebe3a8fa130246d49bfd123ac54849b05bdcd02c6b1322c78de2a3988a31082146133c9577f6764d804d57285ae9d4c42cc380377d3d0ee9b90ff9eeccaa32d3b2e3e8d7f1782146133be577fb2c1aaaf9f516585466c9876e2eaf06ee68751aad537b2a6fa22f473d03b58eb82146133b6577fb5333297a8bd10e190cb97fb1ee0f49587c8b2e015370e943c69fd680dabc6bd82146133ae5760006133b1565b60645b6133b9565b60965b6133c1565b60c85b60ff166133cd565b61012c5b6133d6565b6101c25b61ffff16905060008460011461342d5784600214613425578460031461341d5784600414613415578460051461340d576000613410565b60465b613418565b60285b613420565b60195b613428565b600f5b613430565b600a5b60ff169050600a6134418284613f24565b61344b9190613f04565b9695505050505050565b82805461346190613f5a565b90600052602060002090601f01602090048101928261348357600085556134c9565b82601f1061349c57805160ff19168380011785556134c9565b828001600101855582156134c9579182015b828111156134c95782518255916020019190600101906134ae565b506134d5929150613511565b5090565b50805460008255906000526020600020908101906134f79190613511565b50565b604080518082019091526000808252602082015290565b5b808211156134d55760008155600101613512565b600060208284031215613537578081fd5b81516124c681613fdc565b60008060008060008060c0878903121561355a578182fd5b863561356581613fdc565b9550602087013561357581613fdc565b9450604087013561358581613fdc565b9350606087013561359581613fdc565b9598949750929560808101359460a0909101359350915050565b6000602082840312156135c0578081fd5b815180151581146124c6578182fd5b600060208083850312156135e1578182fd5b825167ffffffffffffffff8111156135f7578283fd5b8301601f81018513613607578283fd5b805161361a61361582613ec4565b613e9a565b818152868483850101111561362d578485fd5b845b8281101561364a57838101850151828201860152840161362f565b8281111561365a57858584840101525b509695505050505050565b60008060408385031215613677578182fd5b823567ffffffffffffffff81111561368d578283fd5b8301601f8101851361369d578283fd5b80356136ab61361582613ec4565b8181528660208385010111156136bf578485fd5b8160208401602083013790810160209081019490945295939092013593505050565b6000602082840312156136f2578081fd5b5035919050565b60006020828403121561370a578081fd5b5051919050565b60008060408385031215613723578182fd5b82359150602083013561373581613fdc565b809150509250929050565b60008060408385031215613752578182fd5b50508035926020909101359150565b6001600160a01b0391909116815260200190565b6001600160a01b03929092168252602082015260400190565b6001600160a01b039384168152919092166020820152604081019190915260600190565b901515815260200190565b6020808252602a908201527f4572726f72203a20546f6b656e56616c7565206c6f776572207468616e20507260408201526934b1b2a7b32a37b5b2b760b11b606082015260800190565b6020808252601b908201527f4572726f72203a204e6f742054726176656c20456e642054696d650000000000604082015260600190565b60208082526018908201527f4572726f72203a204e6f7420546f6b656e204f776e6572210000000000000000604082015260600190565b60208082526017908201527f4572726f72203a204e6f7420456e6f756768204b6c6179000000000000000000604082015260600190565b60208082526033908201527f4572726f72203a204e6f7420456e6f7567682054696d6520466f722054726176604082015272656c20262620426f72726f77456e6454696d6560681b606082015260800190565b6020808252601b908201527f4572726f72203a20546f6b656e206973204e6f74204d696e696e670000000000604082015260600190565b60208082526017908201527f4572726f72203a204e6f7420546f6b656e204f776e6572000000000000000000604082015260600190565b6020808252601a908201527f4865726f436f7265204572726f72203a206f6e6c794f776e6572000000000000604082015260600190565b6020808252818101527f4572726f72203a206f6e6c794275792033204865726f2046726f6d204b6c6179604082015260600190565b602080825260159082015274616c726561647920496e697469616c697a6564212160581b604082015260600190565b60208082526019908201527f4572726f72203a2054696d654c6f636b204475726174696f6e00000000000000604082015260600190565b6020808252601b908201527f4572726f72203a20546f6b656e20697320426f72726f77656421210000000000604082015260600190565b6020808252601a908201527f4572726f72203a20546f6b656e20697320426f72726f77656421000000000000604082015260600190565b60208082526024908201527f4572726f72203a204865726f2069732042726f7777656420616e6f74686f72206040820152632ab9b2b960e11b606082015260800190565b60208082526031908201527f4572726f72203a205265717565737455736572206973204e6f74204578697374604082015270656420496e20526571756573744461746160781b606082015260800190565b60208082526018908201527f4572726f72203a204e6f742045786f75676820546f6b656e0000000000000000604082015260600190565b6020808252601b908201527f4572726f72203a20546f6b656e2069732054726176656c656421210000000000604082015260600190565b60208082526025908201527f4572726f72203a204e6f742054726176656c4f776e6572206f72207374616b6560408201526427bbb732b960d91b606082015260800190565b6020808252601a908201527f4572726f72203a20546f6b656e2069732054726176656c656421000000000000604082015260600190565b60208082526016908201527522b93937b9101d102737ba102a37b5b2b727bbb732b960511b604082015260600190565b60208082526018908201527f4572726f72203a20546f6b656e206973204d696e696e67210000000000000000604082015260600190565b6020808252601c908201527f4572726f72203a204e6f74204578697374656420526571756573742100000000604082015260600190565b60208082526019908201527f4572726f72203a206865726f2069732054726176656c65642100000000000000604082015260600190565b60208082526019908201527f4572726f72203a20546f6b656e206973204d696e696e67212100000000000000604082015260600190565b6020808252601590820152744572726f72203a2076616c7565206973205a65726f60581b604082015260600190565b6020808252601c908201527f4572726f72203a204865726f206973204e6f74205374616b6564212100000000604082015260600190565b60208082526023908201527f4572726f72203a206d73672e73656e646572206973204e6f7420426f72726f7760408201526265727360e81b606082015260800190565b6020808252601f908201527f4572726f72203a206d73672e73656e646572206973204e6f74204f776e657200604082015260600190565b60208082526024908201527f4572726f72203a20616c7265616479205265717565737420416e6f74686572206040820152634865726f60e01b606082015260800190565b6020808252818101527f4572726f72203a20546f6b656e206973204d61784c6576656c20537461747573604082015260600190565b90815260200190565b60405181810167ffffffffffffffff81118282101715613ebc57613ebc613fc6565b604052919050565b600067ffffffffffffffff821115613ede57613ede613fc6565b50601f01601f191660200190565b60008219821115613eff57613eff613fb0565b500190565b600082613f1f57634e487b7160e01b81526012600452602481fd5b500490565b6000816000190483118215151615613f3e57613f3e613fb0565b500290565b600082821015613f5557613f55613fb0565b500390565b600281046001821680613f6e57607f821691505b60208210811415613f8f57634e487b7160e01b600052602260045260246000fd5b50919050565b6000600019821415613fa957613fa9613fb0565b5060010190565b634e487b7160e01b600052601160045260246000fd5b634e487b7160e01b600052604160045260246000fd5b6001600160a01b03811681146134f757600080fdfea2646970667358221220b3aac7b45393d15e311c5ce5fa7b91a25c66201538586100fa84ca65cd07d8ef64736f6c63430008000033",
			"opcodes": "PUSH1 0x80 PUSH1 0x40 MSTORE CALLVALUE DUP1 ISZERO PUSH2 0x10 JUMPI PUSH1 0x0 DUP1 REVERT JUMPDEST POP PUSH2 0x4027 DUP1 PUSH2 0x20 PUSH1 0x0 CODECOPY PUSH1 0x0 RETURN INVALID PUSH1 0x80 PUSH1 0x40 MSTORE PUSH1 0x4 CALLDATASIZE LT PUSH2 0x1EE JUMPI PUSH1 0x0 CALLDATALOAD PUSH1 0xE0 SHR DUP1 PUSH4 0x727DA60A GT PUSH2 0x10D JUMPI DUP1 PUSH4 0xAA93C0EE GT PUSH2 0xA0 JUMPI DUP1 PUSH4 0xD7C41C79 GT PUSH2 0x6F JUMPI DUP1 PUSH4 0xD7C41C79 EQ PUSH2 0x4F3 JUMPI DUP1 PUSH4 0xD7DD41F2 EQ PUSH2 0x513 JUMPI DUP1 PUSH4 0xE1C7392A EQ PUSH2 0x533 JUMPI DUP1 PUSH4 0xEB600465 EQ PUSH2 0x548 JUMPI DUP1 PUSH4 0xEE72B8CC EQ PUSH2 0x568 JUMPI PUSH2 0x1EE JUMP JUMPDEST DUP1 PUSH4 0xAA93C0EE EQ PUSH2 0x489 JUMPI DUP1 PUSH4 0xAD74A212 EQ PUSH2 0x4A9 JUMPI DUP1 PUSH4 0xC21BAE0C EQ PUSH2 0x4BE JUMPI DUP1 PUSH4 0xCD7308D6 EQ PUSH2 0x4D3 JUMPI PUSH2 0x1EE JUMP JUMPDEST DUP1 PUSH4 0x893D20E8 GT PUSH2 0xDC JUMPI DUP1 PUSH4 0x893D20E8 EQ PUSH2 0x42A JUMPI DUP1 PUSH4 0x9EB4EAE5 EQ PUSH2 0x43F JUMPI DUP1 PUSH4 0xA694FC3A EQ PUSH2 0x454 JUMPI DUP1 PUSH4 0xA8469CE9 EQ PUSH2 0x474 JUMPI PUSH2 0x1EE JUMP JUMPDEST DUP1 PUSH4 0x727DA60A EQ PUSH2 0x3B5 JUMPI DUP1 PUSH4 0x7CAC00EE EQ PUSH2 0x3D5 JUMPI DUP1 PUSH4 0x80D953DD EQ PUSH2 0x3EA JUMPI DUP1 PUSH4 0x83A1D7E5 EQ PUSH2 0x40A JUMPI PUSH2 0x1EE JUMP JUMPDEST DUP1 PUSH4 0x2A47A945 GT PUSH2 0x185 JUMPI DUP1 PUSH4 0x42966C68 GT PUSH2 0x154 JUMPI DUP1 PUSH4 0x42966C68 EQ PUSH2 0x34B JUMPI DUP1 PUSH4 0x48F49779 EQ PUSH2 0x36B JUMPI DUP1 PUSH4 0x5D3EEA91 EQ PUSH2 0x380 JUMPI DUP1 PUSH4 0x6805B84B EQ PUSH2 0x3A0 JUMPI PUSH2 0x1EE JUMP JUMPDEST DUP1 PUSH4 0x2A47A945 EQ PUSH2 0x2E1 JUMPI DUP1 PUSH4 0x3015394C EQ PUSH2 0x301 JUMPI DUP1 PUSH4 0x32590C5C EQ PUSH2 0x321 JUMPI DUP1 PUSH4 0x3A1A8080 EQ PUSH2 0x336 JUMPI PUSH2 0x1EE JUMP JUMPDEST DUP1 PUSH4 0x1B9CBDFB GT PUSH2 0x1C1 JUMPI DUP1 PUSH4 0x1B9CBDFB EQ PUSH2 0x273 JUMPI DUP1 PUSH4 0x21DF0DA7 EQ PUSH2 0x288 JUMPI DUP1 PUSH4 0x28919DF6 EQ PUSH2 0x2AA JUMPI DUP1 PUSH4 0x28F833B7 EQ PUSH2 0x2CC JUMPI PUSH2 0x1EE JUMP JUMPDEST DUP1 PUSH4 0xAE2FE5C EQ PUSH2 0x1F3 JUMPI DUP1 PUSH4 0xCE90EC2 EQ PUSH2 0x215 JUMPI DUP1 PUSH4 0x173489EB EQ PUSH2 0x235 JUMPI DUP1 PUSH4 0x17A13522 EQ PUSH2 0x23D JUMPI JUMPDEST PUSH1 0x0 DUP1 REVERT JUMPDEST CALLVALUE DUP1 ISZERO PUSH2 0x1FF JUMPI PUSH1 0x0 DUP1 REVERT JUMPDEST POP PUSH2 0x213 PUSH2 0x20E CALLDATASIZE PUSH1 0x4 PUSH2 0x3740 JUMP JUMPDEST PUSH2 0x57D JUMP JUMPDEST STOP JUMPDEST CALLVALUE DUP1 ISZERO PUSH2 0x221 JUMPI PUSH1 0x0 DUP1 REVERT JUMPDEST POP PUSH2 0x213 PUSH2 0x230 CALLDATASIZE PUSH1 0x4 PUSH2 0x36E1 JUMP JUMPDEST PUSH2 0x833 JUMP JUMPDEST PUSH2 0x213 PUSH2 0xB55 JUMP JUMPDEST CALLVALUE DUP1 ISZERO PUSH2 0x249 JUMPI PUSH1 0x0 DUP1 REVERT JUMPDEST POP PUSH2 0x25D PUSH2 0x258 CALLDATASIZE PUSH1 0x4 PUSH2 0x36E1 JUMP JUMPDEST PUSH2 0xC6E JUMP JUMPDEST PUSH1 0x40 MLOAD PUSH2 0x26A SWAP2 SWAP1 PUSH2 0x3E91 JUMP JUMPDEST PUSH1 0x40 MLOAD DUP1 SWAP2 SUB SWAP1 RETURN JUMPDEST CALLVALUE DUP1 ISZERO PUSH2 0x27F JUMPI PUSH1 0x0 DUP1 REVERT JUMPDEST POP PUSH2 0x25D PUSH2 0xF2C JUMP JUMPDEST CALLVALUE DUP1 ISZERO PUSH2 0x294 JUMPI PUSH1 0x0 DUP1 REVERT JUMPDEST POP PUSH2 0x29D PUSH2 0xF32 JUMP JUMPDEST PUSH1 0x40 MLOAD PUSH2 0x26A SWAP2 SWAP1 PUSH2 0x3761 JUMP JUMPDEST CALLVALUE DUP1 ISZERO PUSH2 0x2B6 JUMPI PUSH1 0x0 DUP1 REVERT JUMPDEST POP PUSH2 0x2BF PUSH2 0xF41 JUMP JUMPDEST PUSH1 0x40 MLOAD PUSH2 0x26A SWAP2 SWAP1 PUSH2 0x37B2 JUMP JUMPDEST CALLVALUE DUP1 ISZERO PUSH2 0x2D8 JUMPI PUSH1 0x0 DUP1 REVERT JUMPDEST POP PUSH2 0x29D PUSH2 0xF51 JUMP JUMPDEST CALLVALUE DUP1 ISZERO PUSH2 0x2ED JUMPI PUSH1 0x0 DUP1 REVERT JUMPDEST POP PUSH2 0x213 PUSH2 0x2FC CALLDATASIZE PUSH1 0x4 PUSH2 0x36E1 JUMP JUMPDEST PUSH2 0xF60 JUMP JUMPDEST CALLVALUE DUP1 ISZERO PUSH2 0x30D JUMPI PUSH1 0x0 DUP1 REVERT JUMPDEST POP PUSH2 0x213 PUSH2 0x31C CALLDATASIZE PUSH1 0x4 PUSH2 0x36E1 JUMP JUMPDEST PUSH2 0x1159 JUMP JUMPDEST CALLVALUE DUP1 ISZERO PUSH2 0x32D JUMPI PUSH1 0x0 DUP1 REVERT JUMPDEST POP PUSH2 0x25D PUSH2 0x15EE JUMP JUMPDEST CALLVALUE DUP1 ISZERO PUSH2 0x342 JUMPI PUSH1 0x0 DUP1 REVERT JUMPDEST POP PUSH2 0x25D PUSH2 0x15F5 JUMP JUMPDEST CALLVALUE DUP1 ISZERO PUSH2 0x357 JUMPI PUSH1 0x0 DUP1 REVERT JUMPDEST POP PUSH2 0x213 PUSH2 0x366 CALLDATASIZE PUSH1 0x4 PUSH2 0x36E1 JUMP JUMPDEST PUSH2 0x15FB JUMP JUMPDEST CALLVALUE DUP1 ISZERO PUSH2 0x377 JUMPI PUSH1 0x0 DUP1 REVERT JUMPDEST POP PUSH2 0x29D PUSH2 0x165C JUMP JUMPDEST CALLVALUE DUP1 ISZERO PUSH2 0x38C JUMPI PUSH1 0x0 DUP1 REVERT JUMPDEST POP PUSH2 0x213 PUSH2 0x39B CALLDATASIZE PUSH1 0x4 PUSH2 0x36E1 JUMP JUMPDEST PUSH2 0x166B JUMP JUMPDEST CALLVALUE DUP1 ISZERO PUSH2 0x3AC JUMPI PUSH1 0x0 DUP1 REVERT JUMPDEST POP PUSH2 0x2BF PUSH2 0x18CE JUMP JUMPDEST CALLVALUE DUP1 ISZERO PUSH2 0x3C1 JUMPI PUSH1 0x0 DUP1 REVERT JUMPDEST POP PUSH2 0x213 PUSH2 0x3D0 CALLDATASIZE PUSH1 0x4 PUSH2 0x36E1 JUMP JUMPDEST PUSH2 0x18DE JUMP JUMPDEST CALLVALUE DUP1 ISZERO PUSH2 0x3E1 JUMPI PUSH1 0x0 DUP1 REVERT JUMPDEST POP PUSH2 0x29D PUSH2 0x1A73 JUMP JUMPDEST CALLVALUE DUP1 ISZERO PUSH2 0x3F6 JUMPI PUSH1 0x0 DUP1 REVERT JUMPDEST POP PUSH2 0x213 PUSH2 0x405 CALLDATASIZE PUSH1 0x4 PUSH2 0x36E1 JUMP JUMPDEST PUSH2 0x1A82 JUMP JUMPDEST CALLVALUE DUP1 ISZERO PUSH2 0x416 JUMPI PUSH1 0x0 DUP1 REVERT JUMPDEST POP PUSH2 0x213 PUSH2 0x425 CALLDATASIZE PUSH1 0x4 PUSH2 0x36E1 JUMP JUMPDEST PUSH2 0x1C1A JUMP JUMPDEST CALLVALUE DUP1 ISZERO PUSH2 0x436 JUMPI PUSH1 0x0 DUP1 REVERT JUMPDEST POP PUSH2 0x29D PUSH2 0x1C8A JUMP JUMPDEST CALLVALUE DUP1 ISZERO PUSH2 0x44B JUMPI PUSH1 0x0 DUP1 REVERT JUMPDEST POP PUSH2 0x213 PUSH2 0x1C99 JUMP JUMPDEST CALLVALUE DUP1 ISZERO PUSH2 0x460 JUMPI PUSH1 0x0 DUP1 REVERT JUMPDEST POP PUSH2 0x213 PUSH2 0x46F CALLDATASIZE PUSH1 0x4 PUSH2 0x36E1 JUMP JUMPDEST PUSH2 0x1CE4 JUMP JUMPDEST CALLVALUE DUP1 ISZERO PUSH2 0x480 JUMPI PUSH1 0x0 DUP1 REVERT JUMPDEST POP PUSH2 0x25D PUSH2 0x1E24 JUMP JUMPDEST CALLVALUE DUP1 ISZERO PUSH2 0x495 JUMPI PUSH1 0x0 DUP1 REVERT JUMPDEST POP PUSH2 0x25D PUSH2 0x4A4 CALLDATASIZE PUSH1 0x4 PUSH2 0x3665 JUMP JUMPDEST PUSH2 0x1E32 JUMP JUMPDEST CALLVALUE DUP1 ISZERO PUSH2 0x4B5 JUMPI PUSH1 0x0 DUP1 REVERT JUMPDEST POP PUSH2 0x25D PUSH2 0x1E80 JUMP JUMPDEST CALLVALUE DUP1 ISZERO PUSH2 0x4CA JUMPI PUSH1 0x0 DUP1 REVERT JUMPDEST POP PUSH2 0x25D PUSH2 0x1E93 JUMP JUMPDEST CALLVALUE DUP1 ISZERO PUSH2 0x4DF JUMPI PUSH1 0x0 DUP1 REVERT JUMPDEST POP PUSH2 0x213 PUSH2 0x4EE CALLDATASIZE PUSH1 0x4 PUSH2 0x36E1 JUMP JUMPDEST PUSH2 0x1E99 JUMP JUMPDEST CALLVALUE DUP1 ISZERO PUSH2 0x4FF JUMPI PUSH1 0x0 DUP1 REVERT JUMPDEST POP PUSH2 0x213 PUSH2 0x50E CALLDATASIZE PUSH1 0x4 PUSH2 0x3542 JUMP JUMPDEST PUSH2 0x207E JUMP JUMPDEST CALLVALUE DUP1 ISZERO PUSH2 0x51F JUMPI PUSH1 0x0 DUP1 REVERT JUMPDEST POP PUSH2 0x213 PUSH2 0x52E CALLDATASIZE PUSH1 0x4 PUSH2 0x36E1 JUMP JUMPDEST PUSH2 0x2124 JUMP JUMPDEST CALLVALUE DUP1 ISZERO PUSH2 0x53F JUMPI PUSH1 0x0 DUP1 REVERT JUMPDEST POP PUSH2 0x213 PUSH2 0x2250 JUMP JUMPDEST CALLVALUE DUP1 ISZERO PUSH2 0x554 JUMPI PUSH1 0x0 DUP1 REVERT JUMPDEST POP PUSH2 0x213 PUSH2 0x563 CALLDATASIZE PUSH1 0x4 PUSH2 0x3711 JUMP JUMPDEST PUSH2 0x22C0 JUMP JUMPDEST CALLVALUE DUP1 ISZERO PUSH2 0x574 JUMPI PUSH1 0x0 DUP1 REVERT JUMPDEST POP PUSH2 0x213 PUSH2 0x246F JUMP JUMPDEST DUP2 PUSH1 0x0 PUSH2 0x588 PUSH2 0x1A73 JUMP JUMPDEST PUSH1 0x1 PUSH1 0x1 PUSH1 0xA0 SHL SUB AND PUSH4 0x6352211E DUP4 PUSH1 0x40 MLOAD DUP3 PUSH4 0xFFFFFFFF AND PUSH1 0xE0 SHL DUP2 MSTORE PUSH1 0x4 ADD PUSH2 0x5B3 SWAP2 SWAP1 PUSH2 0x3E91 JUMP JUMPDEST PUSH1 0x20 PUSH1 0x40 MLOAD DUP1 DUP4 SUB DUP2 DUP7 DUP1 EXTCODESIZE ISZERO DUP1 ISZERO PUSH2 0x5CB JUMPI PUSH1 0x0 DUP1 REVERT JUMPDEST POP GAS STATICCALL ISZERO DUP1 ISZERO PUSH2 0x5DF JUMPI RETURNDATASIZE PUSH1 0x0 DUP1 RETURNDATACOPY RETURNDATASIZE PUSH1 0x0 REVERT JUMPDEST POP POP POP POP PUSH1 0x40 MLOAD RETURNDATASIZE PUSH1 0x1F NOT PUSH1 0x1F DUP3 ADD AND DUP3 ADD DUP1 PUSH1 0x40 MSTORE POP DUP2 ADD SWAP1 PUSH2 0x603 SWAP2 SWAP1 PUSH2 0x3526 JUMP JUMPDEST SWAP1 POP PUSH1 0x1 PUSH1 0x1 PUSH1 0xA0 SHL SUB DUP2 AND ADDRESS EQ PUSH2 0x636 JUMPI PUSH1 0x40 MLOAD PUSH3 0x461BCD PUSH1 0xE5 SHL DUP2 MSTORE PUSH1 0x4 ADD PUSH2 0x62D SWAP1 PUSH2 0x3D67 JUMP JUMPDEST PUSH1 0x40 MLOAD DUP1 SWAP2 SUB SWAP1 REVERT JUMPDEST PUSH1 0x0 DUP5 DUP2 MSTORE PUSH1 0x9 PUSH1 0x20 MSTORE PUSH1 0x40 SWAP1 KECCAK256 PUSH1 0x4 DUP2 ADD SLOAD PUSH1 0xFF AND ISZERO PUSH2 0x669 JUMPI PUSH1 0x40 MLOAD PUSH3 0x461BCD PUSH1 0xE5 SHL DUP2 MSTORE PUSH1 0x4 ADD PUSH2 0x62D SWAP1 PUSH2 0x3AAD JUMP JUMPDEST CALLER PUSH1 0x0 SWAP1 DUP2 MSTORE PUSH1 0xC PUSH1 0x20 MSTORE PUSH1 0x40 SWAP1 KECCAK256 SLOAD ISZERO PUSH2 0x696 JUMPI PUSH1 0x40 MLOAD PUSH3 0x461BCD PUSH1 0xE5 SHL DUP2 MSTORE PUSH1 0x4 ADD PUSH2 0x62D SWAP1 PUSH2 0x3E18 JUMP JUMPDEST PUSH1 0x0 DUP6 DUP2 MSTORE PUSH1 0xB PUSH1 0x20 SWAP1 DUP2 MSTORE PUSH1 0x40 DUP1 DUP4 KECCAK256 DUP2 MLOAD DUP1 DUP4 ADD DUP4 MSTORE CALLER DUP1 DUP3 MSTORE DUP2 DUP6 ADD DUP11 DUP2 MSTORE DUP4 SLOAD PUSH1 0x1 DUP1 DUP3 ADD DUP7 SSTORE SWAP5 DUP9 MSTORE DUP7 DUP9 KECCAK256 SWAP4 MLOAD PUSH1 0x2 SWAP1 SWAP2 MUL SWAP1 SWAP4 ADD DUP1 SLOAD PUSH1 0x1 PUSH1 0x1 PUSH1 0xA0 SHL SUB NOT AND PUSH1 0x1 PUSH1 0x1 PUSH1 0xA0 SHL SUB SWAP1 SWAP5 AND SWAP4 SWAP1 SWAP4 OR DUP4 SSTORE MLOAD SWAP2 SWAP1 SWAP3 ADD SSTORE DUP4 MSTORE PUSH1 0xC SWAP1 SWAP2 MSTORE DUP2 KECCAK256 DUP7 SWAP1 SSTORE PUSH2 0x711 DUP6 PUSH7 0x38D7EA4C68000 PUSH2 0x24BA JUMP JUMPDEST SWAP1 POP PUSH2 0x71B PUSH2 0xF32 JUMP JUMPDEST PUSH1 0x1 PUSH1 0x1 PUSH1 0xA0 SHL SUB AND PUSH4 0x23B872DD CALLER ADDRESS DUP5 PUSH1 0x40 MLOAD DUP5 PUSH4 0xFFFFFFFF AND PUSH1 0xE0 SHL DUP2 MSTORE PUSH1 0x4 ADD PUSH2 0x74A SWAP4 SWAP3 SWAP2 SWAP1 PUSH2 0x378E JUMP JUMPDEST PUSH1 0x20 PUSH1 0x40 MLOAD DUP1 DUP4 SUB DUP2 PUSH1 0x0 DUP8 DUP1 EXTCODESIZE ISZERO DUP1 ISZERO PUSH2 0x764 JUMPI PUSH1 0x0 DUP1 REVERT JUMPDEST POP GAS CALL ISZERO DUP1 ISZERO PUSH2 0x778 JUMPI RETURNDATASIZE PUSH1 0x0 DUP1 RETURNDATACOPY RETURNDATASIZE PUSH1 0x0 REVERT JUMPDEST POP POP POP POP PUSH1 0x40 MLOAD RETURNDATASIZE PUSH1 0x1F NOT PUSH1 0x1F DUP3 ADD AND DUP3 ADD DUP1 PUSH1 0x40 MSTORE POP DUP2 ADD SWAP1 PUSH2 0x79C SWAP2 SWAP1 PUSH2 0x35AF JUMP JUMPDEST POP PUSH2 0x7A5 PUSH2 0xF32 JUMP JUMPDEST PUSH1 0x4 DUP1 SLOAD PUSH1 0x40 MLOAD PUSH4 0xA9059CBB PUSH1 0xE0 SHL DUP2 MSTORE PUSH1 0x1 PUSH1 0x1 PUSH1 0xA0 SHL SUB SWAP4 DUP5 AND SWAP4 PUSH4 0xA9059CBB SWAP4 PUSH2 0x7D8 SWAP4 SWAP1 SWAP2 AND SWAP2 DUP7 SWAP2 ADD PUSH2 0x3775 JUMP JUMPDEST PUSH1 0x20 PUSH1 0x40 MLOAD DUP1 DUP4 SUB DUP2 PUSH1 0x0 DUP8 DUP1 EXTCODESIZE ISZERO DUP1 ISZERO PUSH2 0x7F2 JUMPI PUSH1 0x0 DUP1 REVERT JUMPDEST POP GAS CALL ISZERO DUP1 ISZERO PUSH2 0x806 JUMPI RETURNDATASIZE PUSH1 0x0 DUP1 RETURNDATACOPY RETURNDATASIZE PUSH1 0x0 REVERT JUMPDEST POP POP POP POP PUSH1 0x40 MLOAD RETURNDATASIZE PUSH1 0x1F NOT PUSH1 0x1F DUP3 ADD AND DUP3 ADD DUP1 PUSH1 0x40 MSTORE POP DUP2 ADD SWAP1 PUSH2 0x82A SWAP2 SWAP1 PUSH2 0x35AF JUMP JUMPDEST POP POP POP POP POP POP POP JUMP JUMPDEST DUP1 PUSH1 0x0 PUSH2 0x83E PUSH2 0x1A73 JUMP JUMPDEST PUSH1 0x1 PUSH1 0x1 PUSH1 0xA0 SHL SUB AND PUSH4 0x6352211E DUP4 PUSH1 0x40 MLOAD DUP3 PUSH4 0xFFFFFFFF AND PUSH1 0xE0 SHL DUP2 MSTORE PUSH1 0x4 ADD PUSH2 0x869 SWAP2 SWAP1 PUSH2 0x3E91 JUMP JUMPDEST PUSH1 0x20 PUSH1 0x40 MLOAD DUP1 DUP4 SUB DUP2 DUP7 DUP1 EXTCODESIZE ISZERO DUP1 ISZERO PUSH2 0x881 JUMPI PUSH1 0x0 DUP1 REVERT JUMPDEST POP GAS STATICCALL ISZERO DUP1 ISZERO PUSH2 0x895 JUMPI RETURNDATASIZE PUSH1 0x0 DUP1 RETURNDATACOPY RETURNDATASIZE PUSH1 0x0 REVERT JUMPDEST POP POP POP POP PUSH1 0x40 MLOAD RETURNDATASIZE PUSH1 0x1F NOT PUSH1 0x1F DUP3 ADD AND DUP3 ADD DUP1 PUSH1 0x40 MSTORE POP DUP2 ADD SWAP1 PUSH2 0x8B9 SWAP2 SWAP1 PUSH2 0x3526 JUMP JUMPDEST SWAP1 POP PUSH1 0x1 PUSH1 0x1 PUSH1 0xA0 SHL SUB DUP2 AND ADDRESS EQ PUSH2 0x8E3 JUMPI PUSH1 0x40 MLOAD PUSH3 0x461BCD PUSH1 0xE5 SHL DUP2 MSTORE PUSH1 0x4 ADD PUSH2 0x62D SWAP1 PUSH2 0x3D67 JUMP JUMPDEST PUSH1 0x0 DUP4 DUP2 MSTORE PUSH1 0x9 PUSH1 0x20 MSTORE PUSH1 0x40 SWAP1 KECCAK256 PUSH1 0x4 DUP2 ADD SLOAD PUSH4 0x1000000 SWAP1 DIV PUSH1 0x1 PUSH1 0x1 PUSH1 0xA0 SHL SUB AND CALLER EQ PUSH2 0x924 JUMPI PUSH1 0x40 MLOAD PUSH3 0x461BCD PUSH1 0xE5 SHL DUP2 MSTORE PUSH1 0x4 ADD PUSH2 0x62D SWAP1 PUSH2 0x3C2C JUMP JUMPDEST DUP1 SLOAD PUSH1 0x5 DUP2 LT PUSH2 0x946 JUMPI PUSH1 0x40 MLOAD PUSH3 0x461BCD PUSH1 0xE5 SHL DUP2 MSTORE PUSH1 0x4 ADD PUSH2 0x62D SWAP1 PUSH2 0x3E5C JUMP JUMPDEST PUSH1 0x0 PUSH2 0x9DE DUP4 PUSH1 0x1 ADD DUP1 SLOAD PUSH2 0x95A SWAP1 PUSH2 0x3F5A JUMP JUMPDEST DUP1 PUSH1 0x1F ADD PUSH1 0x20 DUP1 SWAP2 DIV MUL PUSH1 0x20 ADD PUSH1 0x40 MLOAD SWAP1 DUP2 ADD PUSH1 0x40 MSTORE DUP1 SWAP3 SWAP2 SWAP1 DUP2 DUP2 MSTORE PUSH1 0x20 ADD DUP3 DUP1 SLOAD PUSH2 0x986 SWAP1 PUSH2 0x3F5A JUMP JUMPDEST DUP1 ISZERO PUSH2 0x9D3 JUMPI DUP1 PUSH1 0x1F LT PUSH2 0x9A8 JUMPI PUSH2 0x100 DUP1 DUP4 SLOAD DIV MUL DUP4 MSTORE SWAP2 PUSH1 0x20 ADD SWAP2 PUSH2 0x9D3 JUMP JUMPDEST DUP3 ADD SWAP2 SWAP1 PUSH1 0x0 MSTORE PUSH1 0x20 PUSH1 0x0 KECCAK256 SWAP1 JUMPDEST DUP2 SLOAD DUP2 MSTORE SWAP1 PUSH1 0x1 ADD SWAP1 PUSH1 0x20 ADD DUP1 DUP4 GT PUSH2 0x9B6 JUMPI DUP3 SWAP1 SUB PUSH1 0x1F AND DUP3 ADD SWAP2 JUMPDEST POP POP POP POP POP DUP4 PUSH2 0x1E32 JUMP JUMPDEST SWAP1 POP DUP1 PUSH2 0x9E9 PUSH2 0xF32 JUMP JUMPDEST PUSH1 0x1 PUSH1 0x1 PUSH1 0xA0 SHL SUB AND PUSH4 0x70A08231 CALLER PUSH1 0x40 MLOAD DUP3 PUSH4 0xFFFFFFFF AND PUSH1 0xE0 SHL DUP2 MSTORE PUSH1 0x4 ADD PUSH2 0xA14 SWAP2 SWAP1 PUSH2 0x3761 JUMP JUMPDEST PUSH1 0x20 PUSH1 0x40 MLOAD DUP1 DUP4 SUB DUP2 DUP7 DUP1 EXTCODESIZE ISZERO DUP1 ISZERO PUSH2 0xA2C JUMPI PUSH1 0x0 DUP1 REVERT JUMPDEST POP GAS STATICCALL ISZERO DUP1 ISZERO PUSH2 0xA40 JUMPI RETURNDATASIZE PUSH1 0x0 DUP1 RETURNDATACOPY RETURNDATASIZE PUSH1 0x0 REVERT JUMPDEST POP POP POP POP PUSH1 0x40 MLOAD RETURNDATASIZE PUSH1 0x1F NOT PUSH1 0x1F DUP3 ADD AND DUP3 ADD DUP1 PUSH1 0x40 MSTORE POP DUP2 ADD SWAP1 PUSH2 0xA64 SWAP2 SWAP1 PUSH2 0x36F9 JUMP JUMPDEST LT ISZERO PUSH2 0xA82 JUMPI PUSH1 0x40 MLOAD PUSH3 0x461BCD PUSH1 0xE5 SHL DUP2 MSTORE PUSH1 0x4 ADD PUSH2 0x62D SWAP1 PUSH2 0x3B42 JUMP JUMPDEST PUSH2 0xA8D DUP3 PUSH1 0x1 PUSH2 0x24CD JUMP JUMPDEST DUP4 SSTORE PUSH2 0xA97 PUSH2 0xF32 JUMP JUMPDEST PUSH1 0x1 PUSH1 0x1 PUSH1 0xA0 SHL SUB AND PUSH4 0x23B872DD CALLER ADDRESS DUP5 PUSH1 0x40 MLOAD DUP5 PUSH4 0xFFFFFFFF AND PUSH1 0xE0 SHL DUP2 MSTORE PUSH1 0x4 ADD PUSH2 0xAC6 SWAP4 SWAP3 SWAP2 SWAP1 PUSH2 0x378E JUMP JUMPDEST PUSH1 0x20 PUSH1 0x40 MLOAD DUP1 DUP4 SUB DUP2 PUSH1 0x0 DUP8 DUP1 EXTCODESIZE ISZERO DUP1 ISZERO PUSH2 0xAE0 JUMPI PUSH1 0x0 DUP1 REVERT JUMPDEST POP GAS CALL ISZERO DUP1 ISZERO PUSH2 0xAF4 JUMPI RETURNDATASIZE PUSH1 0x0 DUP1 RETURNDATACOPY RETURNDATASIZE PUSH1 0x0 REVERT JUMPDEST POP POP POP POP PUSH1 0x40 MLOAD RETURNDATASIZE PUSH1 0x1F NOT PUSH1 0x1F DUP3 ADD AND DUP3 ADD DUP1 PUSH1 0x40 MSTORE POP DUP2 ADD SWAP1 PUSH2 0xB18 SWAP2 SWAP1 PUSH2 0x35AF JUMP JUMPDEST POP PUSH2 0xB21 PUSH2 0xF32 JUMP JUMPDEST PUSH1 0x1 PUSH1 0x1 PUSH1 0xA0 SHL SUB AND PUSH4 0xA9059CBB PUSH2 0xB37 PUSH2 0x1C8A JUMP JUMPDEST DUP4 PUSH1 0x40 MLOAD DUP4 PUSH4 0xFFFFFFFF AND PUSH1 0xE0 SHL DUP2 MSTORE PUSH1 0x4 ADD PUSH2 0x7D8 SWAP3 SWAP2 SWAP1 PUSH2 0x3775 JUMP JUMPDEST CALLER PUSH1 0x0 SWAP1 DUP2 MSTORE PUSH1 0x8 PUSH1 0x20 MSTORE PUSH1 0x40 DUP2 KECCAK256 SLOAD PUSH1 0x5 SLOAD CALLVALUE SWAP3 SWAP1 PUSH2 0xB76 SWAP1 DUP5 SWAP1 PUSH2 0x24D9 JUMP JUMPDEST SWAP1 POP PUSH1 0x3 DUP3 LT PUSH2 0xB98 JUMPI PUSH1 0x40 MLOAD PUSH3 0x461BCD PUSH1 0xE5 SHL DUP2 MSTORE PUSH1 0x4 ADD PUSH2 0x62D SWAP1 PUSH2 0x39A4 JUMP JUMPDEST DUP3 PUSH2 0xBB5 JUMPI PUSH1 0x40 MLOAD PUSH3 0x461BCD PUSH1 0xE5 SHL DUP2 MSTORE PUSH1 0x4 ADD PUSH2 0x62D SWAP1 PUSH2 0x3D38 JUMP JUMPDEST PUSH1 0x5 SLOAD DUP4 LT ISZERO PUSH2 0xBD7 JUMPI PUSH1 0x40 MLOAD PUSH3 0x461BCD PUSH1 0xE5 SHL DUP2 MSTORE PUSH1 0x4 ADD PUSH2 0x62D SWAP1 PUSH2 0x3875 JUMP JUMPDEST PUSH2 0xBE2 DUP3 PUSH1 0x1 PUSH2 0x24CD JUMP JUMPDEST CALLER PUSH1 0x0 SWAP1 DUP2 MSTORE PUSH1 0x8 PUSH1 0x20 MSTORE PUSH1 0x40 SWAP1 KECCAK256 SSTORE PUSH2 0xBFA PUSH2 0x24E5 JUMP JUMPDEST PUSH2 0xC02 PUSH2 0x1C8A JUMP JUMPDEST PUSH1 0x1 PUSH1 0x1 PUSH1 0xA0 SHL SUB AND PUSH2 0x8FC DUP5 SWAP1 DUP2 ISZERO MUL SWAP1 PUSH1 0x40 MLOAD PUSH1 0x0 PUSH1 0x40 MLOAD DUP1 DUP4 SUB DUP2 DUP6 DUP9 DUP9 CALL SWAP4 POP POP POP POP ISZERO DUP1 ISZERO PUSH2 0xC3A JUMPI RETURNDATASIZE PUSH1 0x0 DUP1 RETURNDATACOPY RETURNDATASIZE PUSH1 0x0 REVERT JUMPDEST POP PUSH1 0x40 MLOAD CALLER SWAP1 DUP3 ISZERO PUSH2 0x8FC MUL SWAP1 DUP4 SWAP1 PUSH1 0x0 DUP2 DUP2 DUP2 DUP6 DUP9 DUP9 CALL SWAP4 POP POP POP POP ISZERO DUP1 ISZERO PUSH2 0xC68 JUMPI RETURNDATASIZE PUSH1 0x0 DUP1 RETURNDATACOPY RETURNDATASIZE PUSH1 0x0 REVERT JUMPDEST POP POP POP POP JUMP JUMPDEST PUSH1 0x0 DUP2 PUSH1 0x0 PUSH2 0xC7B PUSH2 0x1A73 JUMP JUMPDEST PUSH1 0x1 PUSH1 0x1 PUSH1 0xA0 SHL SUB AND PUSH4 0x6352211E DUP4 PUSH1 0x40 MLOAD DUP3 PUSH4 0xFFFFFFFF AND PUSH1 0xE0 SHL DUP2 MSTORE PUSH1 0x4 ADD PUSH2 0xCA6 SWAP2 SWAP1 PUSH2 0x3E91 JUMP JUMPDEST PUSH1 0x20 PUSH1 0x40 MLOAD DUP1 DUP4 SUB DUP2 DUP7 DUP1 EXTCODESIZE ISZERO DUP1 ISZERO PUSH2 0xCBE JUMPI PUSH1 0x0 DUP1 REVERT JUMPDEST POP GAS STATICCALL ISZERO DUP1 ISZERO PUSH2 0xCD2 JUMPI RETURNDATASIZE PUSH1 0x0 DUP1 RETURNDATACOPY RETURNDATASIZE PUSH1 0x0 REVERT JUMPDEST POP POP POP POP PUSH1 0x40 MLOAD RETURNDATASIZE PUSH1 0x1F NOT PUSH1 0x1F DUP3 ADD AND DUP3 ADD DUP1 PUSH1 0x40 MSTORE POP DUP2 ADD SWAP1 PUSH2 0xCF6 SWAP2 SWAP1 PUSH2 0x3526 JUMP JUMPDEST SWAP1 POP PUSH1 0x1 PUSH1 0x1 PUSH1 0xA0 SHL SUB DUP2 AND ADDRESS EQ PUSH2 0xD20 JUMPI PUSH1 0x40 MLOAD PUSH3 0x461BCD PUSH1 0xE5 SHL DUP2 MSTORE PUSH1 0x4 ADD PUSH2 0x62D SWAP1 PUSH2 0x3D67 JUMP JUMPDEST PUSH1 0x0 PUSH1 0x9 PUSH1 0x0 DUP7 DUP2 MSTORE PUSH1 0x20 ADD SWAP1 DUP2 MSTORE PUSH1 0x20 ADD PUSH1 0x0 KECCAK256 PUSH1 0x40 MLOAD DUP1 PUSH1 0xA0 ADD PUSH1 0x40 MSTORE SWAP1 DUP2 PUSH1 0x0 DUP3 ADD SLOAD DUP2 MSTORE PUSH1 0x20 ADD PUSH1 0x1 DUP3 ADD DUP1 SLOAD PUSH2 0xD5A SWAP1 PUSH2 0x3F5A JUMP JUMPDEST DUP1 PUSH1 0x1F ADD PUSH1 0x20 DUP1 SWAP2 DIV MUL PUSH1 0x20 ADD PUSH1 0x40 MLOAD SWAP1 DUP2 ADD PUSH1 0x40 MSTORE DUP1 SWAP3 SWAP2 SWAP1 DUP2 DUP2 MSTORE PUSH1 0x20 ADD DUP3 DUP1 SLOAD PUSH2 0xD86 SWAP1 PUSH2 0x3F5A JUMP JUMPDEST DUP1 ISZERO PUSH2 0xDD3 JUMPI DUP1 PUSH1 0x1F LT PUSH2 0xDA8 JUMPI PUSH2 0x100 DUP1 DUP4 SLOAD DIV MUL DUP4 MSTORE SWAP2 PUSH1 0x20 ADD SWAP2 PUSH2 0xDD3 JUMP JUMPDEST DUP3 ADD SWAP2 SWAP1 PUSH1 0x0 MSTORE PUSH1 0x20 PUSH1 0x0 KECCAK256 SWAP1 JUMPDEST DUP2 SLOAD DUP2 MSTORE SWAP1 PUSH1 0x1 ADD SWAP1 PUSH1 0x20 ADD DUP1 DUP4 GT PUSH2 0xDB6 JUMPI DUP3 SWAP1 SUB PUSH1 0x1F AND DUP3 ADD SWAP2 JUMPDEST POP POP POP SWAP2 DUP4 MSTORE POP POP PUSH1 0x2 DUP3 ADD SLOAD PUSH1 0x20 DUP1 DUP4 ADD SWAP2 SWAP1 SWAP2 MSTORE PUSH1 0x3 DUP4 ADD SLOAD PUSH1 0x40 DUP1 DUP5 ADD SWAP2 SWAP1 SWAP2 MSTORE DUP1 MLOAD PUSH1 0xC0 DUP2 ADD DUP3 MSTORE PUSH1 0x4 DUP6 ADD SLOAD PUSH1 0xFF DUP1 DUP3 AND ISZERO ISZERO DUP4 MSTORE PUSH2 0x100 DUP3 DIV DUP2 AND ISZERO ISZERO DUP4 DUP7 ADD MSTORE PUSH3 0x10000 DUP3 DIV AND ISZERO ISZERO DUP3 DUP5 ADD MSTORE PUSH1 0x1 PUSH1 0x1 PUSH1 0xA0 SHL SUB PUSH4 0x1000000 SWAP1 SWAP2 DIV DUP2 AND PUSH1 0x60 DUP4 DUP2 ADD SWAP2 SWAP1 SWAP2 MSTORE DUP4 MLOAD DUP1 DUP6 ADD DUP6 MSTORE PUSH1 0x5 DUP9 ADD SLOAD DUP4 AND DUP2 MSTORE PUSH1 0x6 DUP9 ADD SLOAD DUP2 DUP8 ADD MSTORE PUSH1 0x80 DUP5 ADD MSTORE DUP4 MLOAD DUP1 DUP6 ADD SWAP1 SWAP5 MSTORE PUSH1 0x7 DUP8 ADD SLOAD DUP5 MSTORE PUSH1 0x8 SWAP1 SWAP7 ADD SLOAD AND SWAP3 DUP3 ADD SWAP3 SWAP1 SWAP3 MSTORE PUSH1 0xA0 DUP3 ADD MSTORE SWAP2 ADD MSTORE SWAP1 POP PUSH2 0xE8F PUSH2 0xF41 JUMP JUMPDEST PUSH2 0xF1E JUMPI PUSH1 0x0 PUSH2 0xEA1 PUSH1 0x0 PUSH1 0x1 PUSH2 0x27CA JUMP JUMPDEST SWAP1 POP PUSH1 0x0 PUSH2 0xEB9 PUSH1 0xA SLOAD PUSH2 0xEB3 PUSH2 0x2B96 JUMP JUMPDEST SWAP1 PUSH2 0x24D9 JUMP JUMPDEST SWAP1 POP PUSH1 0x0 PUSH2 0xEDE DUP3 PUSH2 0xED8 PUSH10 0x1A784379D99DB4200000 PUSH3 0x2819A0 PUSH2 0x2B9A JUMP JUMPDEST SWAP1 PUSH2 0x24BA JUMP JUMPDEST SWAP1 POP PUSH1 0x0 PUSH2 0xEED DUP10 PUSH1 0x0 PUSH2 0x27CA JUMP JUMPDEST SWAP1 POP PUSH1 0x0 PUSH2 0xEFF DUP3 PUSH2 0xED8 DUP6 DUP9 PUSH2 0x2B9A JUMP JUMPDEST PUSH1 0x60 DUP8 ADD MLOAD SWAP1 SWAP2 POP PUSH2 0xF11 SWAP1 DUP3 PUSH2 0x24CD JUMP JUMPDEST SWAP9 POP POP POP POP POP POP POP PUSH2 0xF25 JUMP JUMPDEST PUSH1 0x60 ADD MLOAD SWAP3 POP JUMPDEST POP POP SWAP2 SWAP1 POP JUMP JUMPDEST PUSH1 0x6 SLOAD DUP2 JUMP JUMPDEST PUSH1 0x2 SLOAD PUSH1 0x1 PUSH1 0x1 PUSH1 0xA0 SHL SUB AND SWAP1 JUMP JUMPDEST PUSH1 0x4 SLOAD PUSH1 0x1 PUSH1 0xB0 SHL SWAP1 DIV PUSH1 0xFF AND SWAP1 JUMP JUMPDEST PUSH1 0x4 SLOAD PUSH1 0x1 PUSH1 0x1 PUSH1 0xA0 SHL SUB AND DUP2 JUMP JUMPDEST DUP1 PUSH1 0x0 PUSH2 0xF6B PUSH2 0x1A73 JUMP JUMPDEST PUSH1 0x1 PUSH1 0x1 PUSH1 0xA0 SHL SUB AND PUSH4 0x6352211E DUP4 PUSH1 0x40 MLOAD DUP3 PUSH4 0xFFFFFFFF AND PUSH1 0xE0 SHL DUP2 MSTORE PUSH1 0x4 ADD PUSH2 0xF96 SWAP2 SWAP1 PUSH2 0x3E91 JUMP JUMPDEST PUSH1 0x20 PUSH1 0x40 MLOAD DUP1 DUP4 SUB DUP2 DUP7 DUP1 EXTCODESIZE ISZERO DUP1 ISZERO PUSH2 0xFAE JUMPI PUSH1 0x0 DUP1 REVERT JUMPDEST POP GAS STATICCALL ISZERO DUP1 ISZERO PUSH2 0xFC2 JUMPI RETURNDATASIZE PUSH1 0x0 DUP1 RETURNDATACOPY RETURNDATASIZE PUSH1 0x0 REVERT JUMPDEST POP POP POP POP PUSH1 0x40 MLOAD RETURNDATASIZE PUSH1 0x1F NOT PUSH1 0x1F DUP3 ADD AND DUP3 ADD DUP1 PUSH1 0x40 MSTORE POP DUP2 ADD SWAP1 PUSH2 0xFE6 SWAP2 SWAP1 PUSH2 0x3526 JUMP JUMPDEST SWAP1 POP PUSH1 0x1 PUSH1 0x1 PUSH1 0xA0 SHL SUB DUP2 AND ADDRESS EQ PUSH2 0x1010 JUMPI PUSH1 0x40 MLOAD PUSH3 0x461BCD PUSH1 0xE5 SHL DUP2 MSTORE PUSH1 0x4 ADD PUSH2 0x62D SWAP1 PUSH2 0x3D67 JUMP JUMPDEST PUSH1 0x0 DUP4 DUP2 MSTORE PUSH1 0x9 PUSH1 0x20 MSTORE PUSH1 0x40 DUP2 KECCAK256 SWAP1 PUSH2 0x1027 PUSH2 0x2B96 JUMP JUMPDEST SWAP1 POP PUSH1 0x0 PUSH2 0x1038 DUP3 PUSH3 0x93A80 PUSH2 0x24CD JUMP JUMPDEST PUSH1 0x4 DUP5 ADD SLOAD SWAP1 SWAP2 POP PUSH2 0x100 SWAP1 DIV PUSH1 0xFF AND ISZERO PUSH2 0x1065 JUMPI PUSH1 0x40 MLOAD PUSH3 0x461BCD PUSH1 0xE5 SHL DUP2 MSTORE PUSH1 0x4 ADD PUSH2 0x62D SWAP1 PUSH2 0x3CCA JUMP JUMPDEST PUSH1 0x4 DUP4 ADD SLOAD PUSH3 0x10000 SWAP1 DIV PUSH1 0xFF AND ISZERO PUSH2 0x1090 JUMPI PUSH1 0x40 MLOAD PUSH3 0x461BCD PUSH1 0xE5 SHL DUP2 MSTORE PUSH1 0x4 ADD PUSH2 0x62D SWAP1 PUSH2 0x3CCA JUMP JUMPDEST PUSH1 0x4 DUP4 ADD SLOAD PUSH1 0xFF AND ISZERO PUSH2 0x10F2 JUMPI PUSH1 0x8 DUP4 ADD SLOAD PUSH1 0x1 PUSH1 0x1 PUSH1 0xA0 SHL SUB AND CALLER EQ PUSH2 0x10C9 JUMPI PUSH1 0x40 MLOAD PUSH3 0x461BCD PUSH1 0xE5 SHL DUP2 MSTORE PUSH1 0x4 ADD PUSH2 0x62D SWAP1 PUSH2 0x3D9E JUMP JUMPDEST PUSH1 0x7 DUP4 ADD SLOAD DUP2 GT ISZERO PUSH2 0x10ED JUMPI PUSH1 0x40 MLOAD PUSH3 0x461BCD PUSH1 0xE5 SHL DUP2 MSTORE PUSH1 0x4 ADD PUSH2 0x62D SWAP1 PUSH2 0x38AC JUMP JUMPDEST PUSH2 0x1125 JUMP JUMPDEST PUSH1 0x4 DUP4 ADD SLOAD PUSH4 0x1000000 SWAP1 DIV PUSH1 0x1 PUSH1 0x1 PUSH1 0xA0 SHL SUB AND CALLER EQ PUSH2 0x1125 JUMPI PUSH1 0x40 MLOAD PUSH3 0x461BCD PUSH1 0xE5 SHL DUP2 MSTORE PUSH1 0x4 ADD PUSH2 0x62D SWAP1 PUSH2 0x3DE1 JUMP JUMPDEST PUSH1 0x4 DUP4 ADD DUP1 SLOAD PUSH2 0xFF00 NOT AND PUSH2 0x100 OR SWAP1 SSTORE PUSH1 0x5 DUP4 ADD DUP1 SLOAD PUSH1 0x1 PUSH1 0x1 PUSH1 0xA0 SHL SUB NOT AND CALLER OR SWAP1 SSTORE PUSH1 0x6 SWAP1 SWAP3 ADD SWAP2 SWAP1 SWAP2 SSTORE POP POP POP POP JUMP JUMPDEST DUP1 PUSH1 0x0 PUSH2 0x1164 PUSH2 0x1A73 JUMP JUMPDEST PUSH1 0x1 PUSH1 0x1 PUSH1 0xA0 SHL SUB AND PUSH4 0x6352211E DUP4 PUSH1 0x40 MLOAD DUP3 PUSH4 0xFFFFFFFF AND PUSH1 0xE0 SHL DUP2 MSTORE PUSH1 0x4 ADD PUSH2 0x118F SWAP2 SWAP1 PUSH2 0x3E91 JUMP JUMPDEST PUSH1 0x20 PUSH1 0x40 MLOAD DUP1 DUP4 SUB DUP2 DUP7 DUP1 EXTCODESIZE ISZERO DUP1 ISZERO PUSH2 0x11A7 JUMPI PUSH1 0x0 DUP1 REVERT JUMPDEST POP GAS STATICCALL ISZERO DUP1 ISZERO PUSH2 0x11BB JUMPI RETURNDATASIZE PUSH1 0x0 DUP1 RETURNDATACOPY RETURNDATASIZE PUSH1 0x0 REVERT JUMPDEST POP POP POP POP PUSH1 0x40 MLOAD RETURNDATASIZE PUSH1 0x1F NOT PUSH1 0x1F DUP3 ADD AND DUP3 ADD DUP1 PUSH1 0x40 MSTORE POP DUP2 ADD SWAP1 PUSH2 0x11DF SWAP2 SWAP1 PUSH2 0x3526 JUMP JUMPDEST SWAP1 POP PUSH1 0x1 PUSH1 0x1 PUSH1 0xA0 SHL SUB DUP2 AND ADDRESS EQ PUSH2 0x1209 JUMPI PUSH1 0x40 MLOAD PUSH3 0x461BCD PUSH1 0xE5 SHL DUP2 MSTORE PUSH1 0x4 ADD PUSH2 0x62D SWAP1 PUSH2 0x3D67 JUMP JUMPDEST CALLER PUSH1 0x0 SWAP1 DUP2 MSTORE PUSH1 0xC PUSH1 0x20 MSTORE PUSH1 0x40 SWAP1 KECCAK256 SLOAD PUSH2 0x1235 JUMPI PUSH1 0x40 MLOAD PUSH3 0x461BCD PUSH1 0xE5 SHL DUP2 MSTORE PUSH1 0x4 ADD PUSH2 0x62D SWAP1 PUSH2 0x3C93 JUMP JUMPDEST CALLER PUSH1 0x0 SWAP1 DUP2 MSTORE PUSH1 0xC PUSH1 0x20 SWAP1 DUP2 MSTORE PUSH1 0x40 DUP1 DUP4 KECCAK256 DUP4 SWAP1 SSTORE DUP6 DUP4 MSTORE PUSH1 0xB SWAP1 SWAP2 MSTORE DUP2 KECCAK256 SWAP1 JUMPDEST DUP2 SLOAD DUP2 LT ISZERO PUSH2 0x15E7 JUMPI CALLER PUSH1 0x1 PUSH1 0x1 PUSH1 0xA0 SHL SUB AND DUP3 DUP3 DUP2 SLOAD DUP2 LT PUSH2 0x1289 JUMPI PUSH4 0x4E487B71 PUSH1 0xE0 SHL PUSH1 0x0 MSTORE PUSH1 0x32 PUSH1 0x4 MSTORE PUSH1 0x24 PUSH1 0x0 REVERT JUMPDEST PUSH1 0x0 SWAP2 DUP3 MSTORE PUSH1 0x20 SWAP1 SWAP2 KECCAK256 PUSH1 0x2 SWAP1 SWAP2 MUL ADD SLOAD PUSH1 0x1 PUSH1 0x1 PUSH1 0xA0 SHL SUB AND EQ ISZERO PUSH2 0x15D5 JUMPI DUP2 DUP2 DUP2 SLOAD DUP2 LT PUSH2 0x12C9 JUMPI PUSH4 0x4E487B71 PUSH1 0xE0 SHL PUSH1 0x0 MSTORE PUSH1 0x32 PUSH1 0x4 MSTORE PUSH1 0x24 PUSH1 0x0 REVERT JUMPDEST PUSH1 0x0 SWAP2 DUP3 MSTORE PUSH1 0x20 DUP3 KECCAK256 PUSH1 0x2 SWAP1 SWAP2 MUL ADD DUP1 SLOAD PUSH1 0x1 PUSH1 0x1 PUSH1 0xA0 SHL SUB NOT AND DUP2 SSTORE PUSH1 0x1 SWAP1 DUP2 ADD SWAP2 SWAP1 SWAP2 SSTORE DUP3 SLOAD EQ DUP1 PUSH2 0x1309 JUMPI POP DUP2 SLOAD DUP2 SWAP1 PUSH2 0x1307 SWAP1 PUSH1 0x1 PUSH2 0x24D9 JUMP JUMPDEST EQ JUMPDEST ISZERO PUSH2 0x135A JUMPI DUP2 DUP1 SLOAD DUP1 PUSH2 0x132C JUMPI PUSH4 0x4E487B71 PUSH1 0xE0 SHL PUSH1 0x0 MSTORE PUSH1 0x31 PUSH1 0x4 MSTORE PUSH1 0x24 PUSH1 0x0 REVERT JUMPDEST PUSH1 0x0 DUP3 DUP2 MSTORE PUSH1 0x20 DUP2 KECCAK256 PUSH1 0x2 PUSH1 0x0 NOT SWAP1 SWAP4 ADD SWAP3 DUP4 MUL ADD DUP1 SLOAD PUSH1 0x1 PUSH1 0x1 PUSH1 0xA0 SHL SUB NOT AND DUP2 SSTORE PUSH1 0x1 ADD SSTORE SWAP1 SSTORE PUSH2 0x1468 JUMP JUMPDEST DUP2 SLOAD PUSH1 0x0 SWAP1 DUP4 SWAP1 PUSH2 0x136C SWAP1 PUSH1 0x1 PUSH2 0x24D9 JUMP JUMPDEST DUP2 SLOAD DUP2 LT PUSH2 0x138A JUMPI PUSH4 0x4E487B71 PUSH1 0xE0 SHL PUSH1 0x0 MSTORE PUSH1 0x32 PUSH1 0x4 MSTORE PUSH1 0x24 PUSH1 0x0 REVERT JUMPDEST PUSH1 0x0 SWAP2 DUP3 MSTORE PUSH1 0x20 SWAP2 DUP3 SWAP1 KECCAK256 PUSH1 0x40 DUP1 MLOAD DUP1 DUP3 ADD SWAP1 SWAP2 MSTORE PUSH1 0x2 SWAP1 SWAP3 MUL ADD DUP1 SLOAD PUSH1 0x1 PUSH1 0x1 PUSH1 0xA0 SHL SUB AND DUP3 MSTORE PUSH1 0x1 ADD SLOAD SWAP2 DUP2 ADD SWAP2 SWAP1 SWAP2 MSTORE DUP4 SLOAD SWAP1 SWAP2 POP DUP2 SWAP1 DUP5 SWAP1 DUP5 SWAP1 DUP2 LT PUSH2 0x13E4 JUMPI PUSH4 0x4E487B71 PUSH1 0xE0 SHL PUSH1 0x0 MSTORE PUSH1 0x32 PUSH1 0x4 MSTORE PUSH1 0x24 PUSH1 0x0 REVERT JUMPDEST PUSH1 0x0 SWAP2 DUP3 MSTORE PUSH1 0x20 SWAP2 DUP3 SWAP1 KECCAK256 DUP4 MLOAD PUSH1 0x2 SWAP3 SWAP1 SWAP3 MUL ADD DUP1 SLOAD PUSH1 0x1 PUSH1 0x1 PUSH1 0xA0 SHL SUB NOT AND PUSH1 0x1 PUSH1 0x1 PUSH1 0xA0 SHL SUB SWAP1 SWAP3 AND SWAP2 SWAP1 SWAP2 OR DUP2 SSTORE SWAP2 ADD MLOAD PUSH1 0x1 SWAP1 SWAP2 ADD SSTORE DUP3 SLOAD DUP4 SWAP1 DUP1 PUSH2 0x143D JUMPI PUSH4 0x4E487B71 PUSH1 0xE0 SHL PUSH1 0x0 MSTORE PUSH1 0x31 PUSH1 0x4 MSTORE PUSH1 0x24 PUSH1 0x0 REVERT JUMPDEST PUSH1 0x0 DUP3 DUP2 MSTORE PUSH1 0x20 DUP2 KECCAK256 PUSH1 0x2 PUSH1 0x0 NOT SWAP1 SWAP4 ADD SWAP3 DUP4 MUL ADD DUP1 SLOAD PUSH1 0x1 PUSH1 0x1 PUSH1 0xA0 SHL SUB NOT AND DUP2 SSTORE PUSH1 0x1 ADD SSTORE SWAP1 SSTORE POP JUMPDEST PUSH1 0x0 PUSH2 0x14B5 PUSH7 0x38D7EA4C68000 DUP5 DUP5 DUP2 SLOAD DUP2 LT PUSH2 0x1495 JUMPI PUSH4 0x4E487B71 PUSH1 0xE0 SHL PUSH1 0x0 MSTORE PUSH1 0x32 PUSH1 0x4 MSTORE PUSH1 0x24 PUSH1 0x0 REVERT JUMPDEST SWAP1 PUSH1 0x0 MSTORE PUSH1 0x20 PUSH1 0x0 KECCAK256 SWAP1 PUSH1 0x2 MUL ADD PUSH1 0x1 ADD SLOAD PUSH2 0x24BA SWAP1 SWAP2 SWAP1 PUSH4 0xFFFFFFFF AND JUMP JUMPDEST SWAP1 POP PUSH2 0x14BF PUSH2 0xF32 JUMP JUMPDEST PUSH1 0x4 DUP1 SLOAD PUSH1 0x40 MLOAD PUSH4 0x23B872DD PUSH1 0xE0 SHL DUP2 MSTORE PUSH1 0x1 PUSH1 0x1 PUSH1 0xA0 SHL SUB SWAP4 DUP5 AND SWAP4 PUSH4 0x23B872DD SWAP4 PUSH2 0x14F4 SWAP4 SWAP1 SWAP2 AND SWAP2 ADDRESS SWAP2 DUP8 SWAP2 ADD PUSH2 0x378E JUMP JUMPDEST PUSH1 0x20 PUSH1 0x40 MLOAD DUP1 DUP4 SUB DUP2 PUSH1 0x0 DUP8 DUP1 EXTCODESIZE ISZERO DUP1 ISZERO PUSH2 0x150E JUMPI PUSH1 0x0 DUP1 REVERT JUMPDEST POP GAS CALL ISZERO DUP1 ISZERO PUSH2 0x1522 JUMPI RETURNDATASIZE PUSH1 0x0 DUP1 RETURNDATACOPY RETURNDATASIZE PUSH1 0x0 REVERT JUMPDEST POP POP POP POP PUSH1 0x40 MLOAD RETURNDATASIZE PUSH1 0x1F NOT PUSH1 0x1F DUP3 ADD AND DUP3 ADD DUP1 PUSH1 0x40 MSTORE POP DUP2 ADD SWAP1 PUSH2 0x1546 SWAP2 SWAP1 PUSH2 0x35AF JUMP JUMPDEST POP PUSH2 0x154F PUSH2 0xF32 JUMP JUMPDEST PUSH1 0x1 PUSH1 0x1 PUSH1 0xA0 SHL SUB AND PUSH4 0xA9059CBB CALLER DUP4 PUSH1 0x40 MLOAD DUP4 PUSH4 0xFFFFFFFF AND PUSH1 0xE0 SHL DUP2 MSTORE PUSH1 0x4 ADD PUSH2 0x157C SWAP3 SWAP2 SWAP1 PUSH2 0x3775 JUMP JUMPDEST PUSH1 0x20 PUSH1 0x40 MLOAD DUP1 DUP4 SUB DUP2 PUSH1 0x0 DUP8 DUP1 EXTCODESIZE ISZERO DUP1 ISZERO PUSH2 0x1596 JUMPI PUSH1 0x0 DUP1 REVERT JUMPDEST POP GAS CALL ISZERO DUP1 ISZERO PUSH2 0x15AA JUMPI RETURNDATASIZE PUSH1 0x0 DUP1 RETURNDATACOPY RETURNDATASIZE PUSH1 0x0 REVERT JUMPDEST POP POP POP POP PUSH1 0x40 MLOAD RETURNDATASIZE PUSH1 0x1F NOT PUSH1 0x1F DUP3 ADD AND DUP3 ADD DUP1 PUSH1 0x40 MSTORE POP DUP2 ADD SWAP1 PUSH2 0x15CE SWAP2 SWAP1 PUSH2 0x35AF JUMP JUMPDEST POP POP PUSH2 0x15E7 JUMP JUMPDEST DUP1 PUSH2 0x15DF DUP2 PUSH2 0x3F95 JUMP JUMPDEST SWAP2 POP POP PUSH2 0x1256 JUMP JUMPDEST POP POP POP POP POP JUMP JUMPDEST PUSH3 0x2819A0 DUP2 JUMP JUMPDEST PUSH1 0x5 SLOAD DUP2 JUMP JUMPDEST PUSH2 0x1603 PUSH2 0x1A73 JUMP JUMPDEST PUSH1 0x1 PUSH1 0x1 PUSH1 0xA0 SHL SUB AND PUSH4 0x42966C68 DUP3 PUSH1 0x40 MLOAD DUP3 PUSH4 0xFFFFFFFF AND PUSH1 0xE0 SHL DUP2 MSTORE PUSH1 0x4 ADD PUSH2 0x162E SWAP2 SWAP1 PUSH2 0x3E91 JUMP JUMPDEST PUSH1 0x0 PUSH1 0x40 MLOAD DUP1 DUP4 SUB DUP2 PUSH1 0x0 DUP8 DUP1 EXTCODESIZE ISZERO DUP1 ISZERO PUSH2 0x1648 JUMPI PUSH1 0x0 DUP1 REVERT JUMPDEST POP GAS CALL ISZERO DUP1 ISZERO PUSH2 0x15E7 JUMPI RETURNDATASIZE PUSH1 0x0 DUP1 RETURNDATACOPY RETURNDATASIZE PUSH1 0x0 REVERT JUMPDEST PUSH1 0x1 SLOAD PUSH1 0x1 PUSH1 0x1 PUSH1 0xA0 SHL SUB AND SWAP1 JUMP JUMPDEST DUP1 PUSH1 0x0 PUSH2 0x1676 PUSH2 0x1A73 JUMP JUMPDEST PUSH1 0x1 PUSH1 0x1 PUSH1 0xA0 SHL SUB AND PUSH4 0x6352211E DUP4 PUSH1 0x40 MLOAD DUP3 PUSH4 0xFFFFFFFF AND PUSH1 0xE0 SHL DUP2 MSTORE PUSH1 0x4 ADD PUSH2 0x16A1 SWAP2 SWAP1 PUSH2 0x3E91 JUMP JUMPDEST PUSH1 0x20 PUSH1 0x40 MLOAD DUP1 DUP4 SUB DUP2 DUP7 DUP1 EXTCODESIZE ISZERO DUP1 ISZERO PUSH2 0x16B9 JUMPI PUSH1 0x0 DUP1 REVERT JUMPDEST POP GAS STATICCALL ISZERO DUP1 ISZERO PUSH2 0x16CD JUMPI RETURNDATASIZE PUSH1 0x0 DUP1 RETURNDATACOPY RETURNDATASIZE PUSH1 0x0 REVERT JUMPDEST POP POP POP POP PUSH1 0x40 MLOAD RETURNDATASIZE PUSH1 0x1F NOT PUSH1 0x1F DUP3 ADD AND DUP3 ADD DUP1 PUSH1 0x40 MSTORE POP DUP2 ADD SWAP1 PUSH2 0x16F1 SWAP2 SWAP1 PUSH2 0x3526 JUMP JUMPDEST SWAP1 POP PUSH1 0x1 PUSH1 0x1 PUSH1 0xA0 SHL SUB DUP2 AND ADDRESS EQ PUSH2 0x171B JUMPI PUSH1 0x40 MLOAD PUSH3 0x461BCD PUSH1 0xE5 SHL DUP2 MSTORE PUSH1 0x4 ADD PUSH2 0x62D SWAP1 PUSH2 0x3D67 JUMP JUMPDEST PUSH1 0x0 DUP4 DUP2 MSTORE PUSH1 0x9 PUSH1 0x20 MSTORE PUSH1 0x40 SWAP1 KECCAK256 PUSH1 0x4 DUP2 ADD SLOAD PUSH1 0xFF AND ISZERO PUSH2 0x174E JUMPI PUSH1 0x40 MLOAD PUSH3 0x461BCD PUSH1 0xE5 SHL DUP2 MSTORE PUSH1 0x4 ADD PUSH2 0x62D SWAP1 PUSH2 0x3A3F JUMP JUMPDEST PUSH1 0x4 DUP2 ADD SLOAD PUSH2 0x100 SWAP1 DIV PUSH1 0xFF AND ISZERO PUSH2 0x1778 JUMPI PUSH1 0x40 MLOAD PUSH3 0x461BCD PUSH1 0xE5 SHL DUP2 MSTORE PUSH1 0x4 ADD PUSH2 0x62D SWAP1 PUSH2 0x3B79 JUMP JUMPDEST PUSH1 0x4 DUP2 ADD SLOAD PUSH3 0x10000 SWAP1 DIV PUSH1 0xFF AND ISZERO PUSH2 0x17A3 JUMPI PUSH1 0x40 MLOAD PUSH3 0x461BCD PUSH1 0xE5 SHL DUP2 MSTORE PUSH1 0x4 ADD PUSH2 0x62D SWAP1 PUSH2 0x3D01 JUMP JUMPDEST PUSH2 0x17AB PUSH2 0x2BA6 JUMP JUMPDEST PUSH1 0x3 DUP2 ADD DUP1 SLOAD PUSH1 0x4 DUP4 ADD DUP1 SLOAD PUSH4 0x1000000 PUSH1 0x1 PUSH1 0xB8 SHL SUB NOT AND SWAP1 SSTORE PUSH1 0x0 SWAP1 SWAP2 SSTORE PUSH2 0x17D3 PUSH2 0x2B96 JUMP JUMPDEST PUSH1 0xA SSTORE PUSH2 0x17DE PUSH2 0xF32 JUMP JUMPDEST PUSH1 0x1 PUSH1 0x1 PUSH1 0xA0 SHL SUB AND PUSH4 0xA9059CBB CALLER DUP4 PUSH1 0x40 MLOAD DUP4 PUSH4 0xFFFFFFFF AND PUSH1 0xE0 SHL DUP2 MSTORE PUSH1 0x4 ADD PUSH2 0x180B SWAP3 SWAP2 SWAP1 PUSH2 0x3775 JUMP JUMPDEST PUSH1 0x20 PUSH1 0x40 MLOAD DUP1 DUP4 SUB DUP2 PUSH1 0x0 DUP8 DUP1 EXTCODESIZE ISZERO DUP1 ISZERO PUSH2 0x1825 JUMPI PUSH1 0x0 DUP1 REVERT JUMPDEST POP GAS CALL ISZERO DUP1 ISZERO PUSH2 0x1839 JUMPI RETURNDATASIZE PUSH1 0x0 DUP1 RETURNDATACOPY RETURNDATASIZE PUSH1 0x0 REVERT JUMPDEST POP POP POP POP PUSH1 0x40 MLOAD RETURNDATASIZE PUSH1 0x1F NOT PUSH1 0x1F DUP3 ADD AND DUP3 ADD DUP1 PUSH1 0x40 MSTORE POP DUP2 ADD SWAP1 PUSH2 0x185D SWAP2 SWAP1 PUSH2 0x35AF JUMP JUMPDEST POP PUSH2 0x1866 PUSH2 0x1A73 JUMP JUMPDEST PUSH1 0x1 PUSH1 0x1 PUSH1 0xA0 SHL SUB AND PUSH4 0x23B872DD ADDRESS CALLER DUP9 PUSH1 0x40 MLOAD DUP5 PUSH4 0xFFFFFFFF AND PUSH1 0xE0 SHL DUP2 MSTORE PUSH1 0x4 ADD PUSH2 0x1895 SWAP4 SWAP3 SWAP2 SWAP1 PUSH2 0x378E JUMP JUMPDEST PUSH1 0x0 PUSH1 0x40 MLOAD DUP1 DUP4 SUB DUP2 PUSH1 0x0 DUP8 DUP1 EXTCODESIZE ISZERO DUP1 ISZERO PUSH2 0x18AF JUMPI PUSH1 0x0 DUP1 REVERT JUMPDEST POP GAS CALL ISZERO DUP1 ISZERO PUSH2 0x18C3 JUMPI RETURNDATASIZE PUSH1 0x0 DUP1 RETURNDATACOPY RETURNDATASIZE PUSH1 0x0 REVERT JUMPDEST POP POP POP POP POP POP POP POP POP JUMP JUMPDEST PUSH1 0x4 SLOAD PUSH1 0x1 PUSH1 0xA8 SHL SWAP1 DIV PUSH1 0xFF AND SWAP1 JUMP JUMPDEST DUP1 PUSH1 0x0 PUSH2 0x18E9 PUSH2 0x1A73 JUMP JUMPDEST PUSH1 0x1 PUSH1 0x1 PUSH1 0xA0 SHL SUB AND PUSH4 0x6352211E DUP4 PUSH1 0x40 MLOAD DUP3 PUSH4 0xFFFFFFFF AND PUSH1 0xE0 SHL DUP2 MSTORE PUSH1 0x4 ADD PUSH2 0x1914 SWAP2 SWAP1 PUSH2 0x3E91 JUMP JUMPDEST PUSH1 0x20 PUSH1 0x40 MLOAD DUP1 DUP4 SUB DUP2 DUP7 DUP1 EXTCODESIZE ISZERO DUP1 ISZERO PUSH2 0x192C JUMPI PUSH1 0x0 DUP1 REVERT JUMPDEST POP GAS STATICCALL ISZERO DUP1 ISZERO PUSH2 0x1940 JUMPI RETURNDATASIZE PUSH1 0x0 DUP1 RETURNDATACOPY RETURNDATASIZE PUSH1 0x0 REVERT JUMPDEST POP POP POP POP PUSH1 0x40 MLOAD RETURNDATASIZE PUSH1 0x1F NOT PUSH1 0x1F DUP3 ADD AND DUP3 ADD DUP1 PUSH1 0x40 MSTORE POP DUP2 ADD SWAP1 PUSH2 0x1964 SWAP2 SWAP1 PUSH2 0x3526 JUMP JUMPDEST SWAP1 POP PUSH1 0x1 PUSH1 0x1 PUSH1 0xA0 SHL SUB DUP2 AND ADDRESS EQ PUSH2 0x198E JUMPI PUSH1 0x40 MLOAD PUSH3 0x461BCD PUSH1 0xE5 SHL DUP2 MSTORE PUSH1 0x4 ADD PUSH2 0x62D SWAP1 PUSH2 0x3D67 JUMP JUMPDEST PUSH1 0x0 DUP4 DUP2 MSTORE PUSH1 0x9 PUSH1 0x20 MSTORE PUSH1 0x40 SWAP1 KECCAK256 PUSH2 0x19A4 PUSH2 0x2BA6 JUMP JUMPDEST PUSH1 0x3 DUP2 ADD DUP1 SLOAD PUSH1 0x0 SWAP1 SWAP2 SSTORE PUSH1 0x4 DUP3 ADD SLOAD PUSH3 0x10000 SWAP1 DIV PUSH1 0xFF AND PUSH2 0x19D9 JUMPI PUSH1 0x40 MLOAD PUSH3 0x461BCD PUSH1 0xE5 SHL DUP2 MSTORE PUSH1 0x4 ADD PUSH2 0x62D SWAP1 PUSH2 0x38FF JUMP JUMPDEST PUSH2 0x19E1 PUSH2 0x2B96 JUMP JUMPDEST PUSH1 0xA SSTORE PUSH2 0x19EC PUSH2 0xF32 JUMP JUMPDEST PUSH1 0x1 PUSH1 0x1 PUSH1 0xA0 SHL SUB AND PUSH4 0xA9059CBB CALLER DUP4 PUSH1 0x40 MLOAD DUP4 PUSH4 0xFFFFFFFF AND PUSH1 0xE0 SHL DUP2 MSTORE PUSH1 0x4 ADD PUSH2 0x1A19 SWAP3 SWAP2 SWAP1 PUSH2 0x3775 JUMP JUMPDEST PUSH1 0x20 PUSH1 0x40 MLOAD DUP1 DUP4 SUB DUP2 PUSH1 0x0 DUP8 DUP1 EXTCODESIZE ISZERO DUP1 ISZERO PUSH2 0x1A33 JUMPI PUSH1 0x0 DUP1 REVERT JUMPDEST POP GAS CALL ISZERO DUP1 ISZERO PUSH2 0x1A47 JUMPI RETURNDATASIZE PUSH1 0x0 DUP1 RETURNDATACOPY RETURNDATASIZE PUSH1 0x0 REVERT JUMPDEST POP POP POP POP PUSH1 0x40 MLOAD RETURNDATASIZE PUSH1 0x1F NOT PUSH1 0x1F DUP3 ADD AND DUP3 ADD DUP1 PUSH1 0x40 MSTORE POP DUP2 ADD SWAP1 PUSH2 0x1A6B SWAP2 SWAP1 PUSH2 0x35AF JUMP JUMPDEST POP POP POP POP POP POP JUMP JUMPDEST PUSH1 0x0 SLOAD PUSH1 0x1 PUSH1 0x1 PUSH1 0xA0 SHL SUB AND SWAP1 JUMP JUMPDEST PUSH1 0x6 SLOAD DUP2 SWAP1 DUP2 LT ISZERO PUSH2 0x1AA6 JUMPI PUSH1 0x40 MLOAD PUSH3 0x461BCD PUSH1 0xE5 SHL DUP2 MSTORE PUSH1 0x4 ADD PUSH2 0x62D SWAP1 PUSH2 0x37BD JUMP JUMPDEST PUSH2 0x1AAE PUSH2 0xF32 JUMP JUMPDEST PUSH1 0x1 PUSH1 0x1 PUSH1 0xA0 SHL SUB AND PUSH4 0x23B872DD CALLER ADDRESS DUP5 PUSH1 0x40 MLOAD DUP5 PUSH4 0xFFFFFFFF AND PUSH1 0xE0 SHL DUP2 MSTORE PUSH1 0x4 ADD PUSH2 0x1ADD SWAP4 SWAP3 SWAP2 SWAP1 PUSH2 0x378E JUMP JUMPDEST PUSH1 0x20 PUSH1 0x40 MLOAD DUP1 DUP4 SUB DUP2 PUSH1 0x0 DUP8 DUP1 EXTCODESIZE ISZERO DUP1 ISZERO PUSH2 0x1AF7 JUMPI PUSH1 0x0 DUP1 REVERT JUMPDEST POP GAS CALL ISZERO DUP1 ISZERO PUSH2 0x1B0B JUMPI RETURNDATASIZE PUSH1 0x0 DUP1 RETURNDATACOPY RETURNDATASIZE PUSH1 0x0 REVERT JUMPDEST POP POP POP POP PUSH1 0x40 MLOAD RETURNDATASIZE PUSH1 0x1F NOT PUSH1 0x1F DUP3 ADD AND DUP3 ADD DUP1 PUSH1 0x40 MSTORE POP DUP2 ADD SWAP1 PUSH2 0x1B2F SWAP2 SWAP1 PUSH2 0x35AF JUMP JUMPDEST POP PUSH1 0x6 SLOAD DUP2 GT ISZERO PUSH2 0x1BE4 JUMPI PUSH1 0x0 PUSH2 0x1B51 PUSH1 0x6 SLOAD DUP4 PUSH2 0x24D9 SWAP1 SWAP2 SWAP1 PUSH4 0xFFFFFFFF AND JUMP JUMPDEST SWAP1 POP PUSH2 0x1B5B PUSH2 0xF32 JUMP JUMPDEST PUSH1 0x1 PUSH1 0x1 PUSH1 0xA0 SHL SUB AND PUSH4 0xA9059CBB PUSH2 0x1B71 PUSH2 0x1C8A JUMP JUMPDEST DUP4 PUSH1 0x40 MLOAD DUP4 PUSH4 0xFFFFFFFF AND PUSH1 0xE0 SHL DUP2 MSTORE PUSH1 0x4 ADD PUSH2 0x1B8F SWAP3 SWAP2 SWAP1 PUSH2 0x3775 JUMP JUMPDEST PUSH1 0x20 PUSH1 0x40 MLOAD DUP1 DUP4 SUB DUP2 PUSH1 0x0 DUP8 DUP1 EXTCODESIZE ISZERO DUP1 ISZERO PUSH2 0x1BA9 JUMPI PUSH1 0x0 DUP1 REVERT JUMPDEST POP GAS CALL ISZERO DUP1 ISZERO PUSH2 0x1BBD JUMPI RETURNDATASIZE PUSH1 0x0 DUP1 RETURNDATACOPY RETURNDATASIZE PUSH1 0x0 REVERT JUMPDEST POP POP POP POP PUSH1 0x40 MLOAD RETURNDATASIZE PUSH1 0x1F NOT PUSH1 0x1F DUP3 ADD AND DUP3 ADD DUP1 PUSH1 0x40 MSTORE POP DUP2 ADD SWAP1 PUSH2 0x1BE1 SWAP2 SWAP1 PUSH2 0x35AF JUMP JUMPDEST POP POP JUMPDEST CALLER PUSH1 0x0 SWAP1 DUP2 MSTORE PUSH1 0x7 PUSH1 0x20 MSTORE PUSH1 0x40 SWAP1 KECCAK256 PUSH2 0x1C00 TIMESTAMP PUSH3 0x93A80 PUSH2 0x24CD JUMP JUMPDEST DUP2 SLOAD PUSH1 0x1 DUP2 ADD DUP4 SSTORE PUSH1 0x0 SWAP3 DUP4 MSTORE PUSH1 0x20 SWAP1 SWAP3 KECCAK256 SWAP1 SWAP2 ADD SSTORE POP POP JUMP JUMPDEST CALLER PUSH1 0x0 SWAP1 DUP2 MSTORE PUSH1 0x7 PUSH1 0x20 MSTORE PUSH1 0x40 DUP2 KECCAK256 DUP1 SLOAD DUP4 SWAP1 DUP2 LT PUSH2 0x1C49 JUMPI PUSH4 0x4E487B71 PUSH1 0xE0 SHL PUSH1 0x0 MSTORE PUSH1 0x32 PUSH1 0x4 MSTORE PUSH1 0x24 PUSH1 0x0 REVERT JUMPDEST SWAP1 PUSH1 0x0 MSTORE PUSH1 0x20 PUSH1 0x0 KECCAK256 ADD SLOAD SWAP1 POP TIMESTAMP DUP2 GT PUSH2 0x1C75 JUMPI PUSH1 0x40 MLOAD PUSH3 0x461BCD PUSH1 0xE5 SHL DUP2 MSTORE PUSH1 0x4 ADD PUSH2 0x62D SWAP1 PUSH2 0x3A08 JUMP JUMPDEST PUSH2 0x1C7E DUP3 PUSH2 0x2CD6 JUMP JUMPDEST PUSH2 0x1C86 PUSH2 0x24E5 JUMP JUMPDEST POP POP JUMP JUMPDEST PUSH1 0x3 SLOAD PUSH1 0x1 PUSH1 0x1 PUSH1 0xA0 SHL SUB AND SWAP1 JUMP JUMPDEST PUSH1 0x3 SLOAD PUSH1 0x1 PUSH1 0x1 PUSH1 0xA0 SHL SUB AND CALLER EQ PUSH2 0x1CC3 JUMPI PUSH1 0x40 MLOAD PUSH3 0x461BCD PUSH1 0xE5 SHL DUP2 MSTORE PUSH1 0x4 ADD PUSH2 0x62D SWAP1 PUSH2 0x396D JUMP JUMPDEST PUSH1 0x4 DUP1 SLOAD PUSH1 0xFF PUSH1 0xA8 SHL NOT DUP2 AND PUSH1 0x1 PUSH1 0xA8 SHL SWAP2 DUP3 SWAP1 DIV PUSH1 0xFF AND ISZERO SWAP1 SWAP2 MUL OR SWAP1 SSTORE JUMP JUMPDEST PUSH1 0x0 PUSH2 0x1CEE PUSH2 0x1A73 JUMP JUMPDEST PUSH1 0x1 PUSH1 0x1 PUSH1 0xA0 SHL SUB AND PUSH4 0x6352211E DUP4 PUSH1 0x40 MLOAD DUP3 PUSH4 0xFFFFFFFF AND PUSH1 0xE0 SHL DUP2 MSTORE PUSH1 0x4 ADD PUSH2 0x1D19 SWAP2 SWAP1 PUSH2 0x3E91 JUMP JUMPDEST PUSH1 0x20 PUSH1 0x40 MLOAD DUP1 DUP4 SUB DUP2 DUP7 DUP1 EXTCODESIZE ISZERO DUP1 ISZERO PUSH2 0x1D31 JUMPI PUSH1 0x0 DUP1 REVERT JUMPDEST POP GAS STATICCALL ISZERO DUP1 ISZERO PUSH2 0x1D45 JUMPI RETURNDATASIZE PUSH1 0x0 DUP1 RETURNDATACOPY RETURNDATASIZE PUSH1 0x0 REVERT JUMPDEST POP POP POP POP PUSH1 0x40 MLOAD RETURNDATASIZE PUSH1 0x1F NOT PUSH1 0x1F DUP3 ADD AND DUP3 ADD DUP1 PUSH1 0x40 MSTORE POP DUP2 ADD SWAP1 PUSH2 0x1D69 SWAP2 SWAP1 PUSH2 0x3526 JUMP JUMPDEST PUSH1 0x0 DUP4 DUP2 MSTORE PUSH1 0x9 PUSH1 0x20 MSTORE PUSH1 0x40 SWAP1 KECCAK256 SWAP1 SWAP2 POP PUSH1 0x1 PUSH1 0x1 PUSH1 0xA0 SHL SUB DUP3 AND CALLER EQ PUSH2 0x1DA2 JUMPI PUSH1 0x40 MLOAD PUSH3 0x461BCD PUSH1 0xE5 SHL DUP2 MSTORE PUSH1 0x4 ADD PUSH2 0x62D SWAP1 PUSH2 0x3936 JUMP JUMPDEST PUSH1 0x4 DUP2 ADD DUP1 SLOAD PUSH4 0x1000000 PUSH1 0x1 PUSH1 0xB8 SHL SUB NOT AND CALLER PUSH4 0x1000000 MUL OR SWAP1 SSTORE PUSH2 0x1DC7 PUSH2 0x1A73 JUMP JUMPDEST PUSH1 0x1 PUSH1 0x1 PUSH1 0xA0 SHL SUB AND PUSH4 0x23B872DD CALLER ADDRESS DUP7 PUSH1 0x40 MLOAD DUP5 PUSH4 0xFFFFFFFF AND PUSH1 0xE0 SHL DUP2 MSTORE PUSH1 0x4 ADD PUSH2 0x1DF6 SWAP4 SWAP3 SWAP2 SWAP1 PUSH2 0x378E JUMP JUMPDEST PUSH1 0x0 PUSH1 0x40 MLOAD DUP1 DUP4 SUB DUP2 PUSH1 0x0 DUP8 DUP1 EXTCODESIZE ISZERO DUP1 ISZERO PUSH2 0x1E10 JUMPI PUSH1 0x0 DUP1 REVERT JUMPDEST POP GAS CALL ISZERO DUP1 ISZERO PUSH2 0x82A JUMPI RETURNDATASIZE PUSH1 0x0 DUP1 RETURNDATACOPY RETURNDATASIZE PUSH1 0x0 REVERT JUMPDEST PUSH10 0x1A784379D99DB4200000 DUP2 JUMP JUMPDEST PUSH1 0x0 DUP1 PUSH2 0x1E3E DUP5 PUSH2 0x2DFE JUMP JUMPDEST SWAP1 POP PUSH1 0x0 PUSH2 0x1E4B DUP5 PUSH2 0x2F06 JUMP JUMPDEST SWAP1 POP PUSH1 0xA PUSH2 0x1E59 DUP3 DUP5 PUSH2 0x3F24 JUMP JUMPDEST PUSH2 0x1E63 SWAP2 SWAP1 PUSH2 0x3F04 JUMP JUMPDEST PUSH2 0x1E75 SWAP1 PUSH8 0xDE0B6B3A7640000 PUSH2 0x3F24 JUMP JUMPDEST SWAP3 POP POP POP JUMPDEST SWAP3 SWAP2 POP POP JUMP JUMPDEST CALLER PUSH1 0x0 SWAP1 DUP2 MSTORE PUSH1 0x8 PUSH1 0x20 MSTORE PUSH1 0x40 SWAP1 KECCAK256 SLOAD SWAP1 JUMP JUMPDEST PUSH1 0xA SLOAD DUP2 JUMP JUMPDEST DUP1 PUSH1 0x0 PUSH2 0x1EA4 PUSH2 0x1A73 JUMP JUMPDEST PUSH1 0x1 PUSH1 0x1 PUSH1 0xA0 SHL SUB AND PUSH4 0x6352211E DUP4 PUSH1 0x40 MLOAD DUP3 PUSH4 0xFFFFFFFF AND PUSH1 0xE0 SHL DUP2 MSTORE PUSH1 0x4 ADD PUSH2 0x1ECF SWAP2 SWAP1 PUSH2 0x3E91 JUMP JUMPDEST PUSH1 0x20 PUSH1 0x40 MLOAD DUP1 DUP4 SUB DUP2 DUP7 DUP1 EXTCODESIZE ISZERO DUP1 ISZERO PUSH2 0x1EE7 JUMPI PUSH1 0x0 DUP1 REVERT JUMPDEST POP GAS STATICCALL ISZERO DUP1 ISZERO PUSH2 0x1EFB JUMPI RETURNDATASIZE PUSH1 0x0 DUP1 RETURNDATACOPY RETURNDATASIZE PUSH1 0x0 REVERT JUMPDEST POP POP POP POP PUSH1 0x40 MLOAD RETURNDATASIZE PUSH1 0x1F NOT PUSH1 0x1F DUP3 ADD AND DUP3 ADD DUP1 PUSH1 0x40 MSTORE POP DUP2 ADD SWAP1 PUSH2 0x1F1F SWAP2 SWAP1 PUSH2 0x3526 JUMP JUMPDEST SWAP1 POP PUSH1 0x1 PUSH1 0x1 PUSH1 0xA0 SHL SUB DUP2 AND ADDRESS EQ PUSH2 0x1F49 JUMPI PUSH1 0x40 MLOAD PUSH3 0x461BCD PUSH1 0xE5 SHL DUP2 MSTORE PUSH1 0x4 ADD PUSH2 0x62D SWAP1 PUSH2 0x3D67 JUMP JUMPDEST PUSH1 0x0 DUP4 DUP2 MSTORE PUSH1 0x9 PUSH1 0x20 MSTORE PUSH1 0x40 DUP2 KECCAK256 SWAP1 PUSH2 0x1F60 PUSH2 0x2B96 JUMP JUMPDEST PUSH1 0x4 DUP4 ADD SLOAD SWAP1 SWAP2 POP PUSH2 0x100 SWAP1 DIV PUSH1 0xFF AND PUSH2 0x1F8C JUMPI PUSH1 0x40 MLOAD PUSH3 0x461BCD PUSH1 0xE5 SHL DUP2 MSTORE PUSH1 0x4 ADD PUSH2 0x62D SWAP1 PUSH2 0x3CCA JUMP JUMPDEST PUSH1 0x6 DUP3 ADD SLOAD DUP2 LT ISZERO PUSH2 0x1FB0 JUMPI PUSH1 0x40 MLOAD PUSH3 0x461BCD PUSH1 0xE5 SHL DUP2 MSTORE PUSH1 0x4 ADD PUSH2 0x62D SWAP1 PUSH2 0x3807 JUMP JUMPDEST PUSH1 0x5 DUP3 ADD SLOAD PUSH1 0x4 DUP4 ADD SLOAD PUSH1 0x1 PUSH1 0x1 PUSH1 0xA0 SHL SUB SWAP2 DUP3 AND SWAP2 CALLER PUSH4 0x1000000 SWAP1 SWAP3 DIV AND EQ DUP1 PUSH2 0x1FE4 JUMPI POP CALLER PUSH1 0x1 PUSH1 0x1 PUSH1 0xA0 SHL SUB DUP3 AND EQ JUMPDEST PUSH2 0x2000 JUMPI PUSH1 0x40 MLOAD PUSH3 0x461BCD PUSH1 0xE5 SHL DUP2 MSTORE PUSH1 0x4 ADD PUSH2 0x62D SWAP1 PUSH2 0x3BB0 JUMP JUMPDEST PUSH1 0x7 DUP4 ADD SLOAD PUSH1 0x0 SWAP1 DUP4 GT ISZERO PUSH2 0x204C JUMPI POP PUSH1 0x4 DUP4 ADD DUP1 SLOAD PUSH1 0xFF NOT AND SWAP1 DUP2 SWAP1 SSTORE PUSH1 0x0 PUSH1 0x7 DUP6 ADD SSTORE PUSH1 0x8 DUP5 ADD DUP1 SLOAD PUSH1 0x1 PUSH1 0x1 PUSH1 0xA0 SHL SUB NOT AND SWAP1 SSTORE PUSH4 0x1000000 SWAP1 DIV PUSH1 0x1 PUSH1 0x1 PUSH1 0xA0 SHL SUB AND PUSH2 0x204F JUMP JUMPDEST POP DUP1 JUMPDEST POP POP POP PUSH1 0x4 DUP2 ADD DUP1 SLOAD PUSH2 0xFF00 NOT AND SWAP1 SSTORE PUSH1 0x5 DUP2 ADD DUP1 SLOAD PUSH1 0x1 PUSH1 0x1 PUSH1 0xA0 SHL SUB NOT AND SWAP1 SSTORE PUSH1 0x0 PUSH1 0x6 SWAP1 SWAP2 ADD SSTORE POP POP POP JUMP JUMPDEST PUSH1 0x3 SLOAD PUSH1 0x1 PUSH1 0x1 PUSH1 0xA0 SHL SUB AND CALLER EQ PUSH2 0x20A8 JUMPI PUSH1 0x40 MLOAD PUSH3 0x461BCD PUSH1 0xE5 SHL DUP2 MSTORE PUSH1 0x4 ADD PUSH2 0x62D SWAP1 PUSH2 0x396D JUMP JUMPDEST PUSH2 0x20BA DUP3 PUSH8 0xDE0B6B3A7640000 PUSH2 0x24BA JUMP JUMPDEST PUSH1 0x5 SSTORE PUSH2 0x20CF DUP2 PUSH8 0xDE0B6B3A7640000 PUSH2 0x24BA JUMP JUMPDEST PUSH1 0x6 SSTORE POP POP PUSH1 0x0 DUP1 SLOAD PUSH1 0x1 PUSH1 0x1 PUSH1 0xA0 SHL SUB SWAP6 DUP7 AND PUSH1 0x1 PUSH1 0x1 PUSH1 0xA0 SHL SUB NOT SWAP2 DUP3 AND OR SWAP1 SWAP2 SSTORE PUSH1 0x1 DUP1 SLOAD SWAP5 DUP7 AND SWAP5 DUP3 AND SWAP5 SWAP1 SWAP5 OR SWAP1 SWAP4 SSTORE PUSH1 0x2 DUP1 SLOAD SWAP3 DUP6 AND SWAP3 DUP5 AND SWAP3 SWAP1 SWAP3 OR SWAP1 SWAP2 SSTORE PUSH1 0x4 DUP1 SLOAD SWAP2 SWAP1 SWAP4 AND SWAP2 AND OR SWAP1 SSTORE JUMP JUMPDEST DUP1 PUSH1 0x0 PUSH2 0x212F PUSH2 0x1A73 JUMP JUMPDEST PUSH1 0x1 PUSH1 0x1 PUSH1 0xA0 SHL SUB AND PUSH4 0x6352211E DUP4 PUSH1 0x40 MLOAD DUP3 PUSH4 0xFFFFFFFF AND PUSH1 0xE0 SHL DUP2 MSTORE PUSH1 0x4 ADD PUSH2 0x215A SWAP2 SWAP1 PUSH2 0x3E91 JUMP JUMPDEST PUSH1 0x20 PUSH1 0x40 MLOAD DUP1 DUP4 SUB DUP2 DUP7 DUP1 EXTCODESIZE ISZERO DUP1 ISZERO PUSH2 0x2172 JUMPI PUSH1 0x0 DUP1 REVERT JUMPDEST POP GAS STATICCALL ISZERO DUP1 ISZERO PUSH2 0x2186 JUMPI RETURNDATASIZE PUSH1 0x0 DUP1 RETURNDATACOPY RETURNDATASIZE PUSH1 0x0 REVERT JUMPDEST POP POP POP POP PUSH1 0x40 MLOAD RETURNDATASIZE PUSH1 0x1F NOT PUSH1 0x1F DUP3 ADD AND DUP3 ADD DUP1 PUSH1 0x40 MSTORE POP DUP2 ADD SWAP1 PUSH2 0x21AA SWAP2 SWAP1 PUSH2 0x3526 JUMP JUMPDEST SWAP1 POP PUSH1 0x1 PUSH1 0x1 PUSH1 0xA0 SHL SUB DUP2 AND ADDRESS EQ PUSH2 0x21D4 JUMPI PUSH1 0x40 MLOAD PUSH3 0x461BCD PUSH1 0xE5 SHL DUP2 MSTORE PUSH1 0x4 ADD PUSH2 0x62D SWAP1 PUSH2 0x3D67 JUMP JUMPDEST PUSH1 0x0 DUP4 DUP2 MSTORE PUSH1 0x9 PUSH1 0x20 MSTORE PUSH1 0x40 SWAP1 KECCAK256 PUSH1 0x4 DUP2 ADD SLOAD PUSH1 0xFF AND ISZERO PUSH2 0x2207 JUMPI PUSH1 0x40 MLOAD PUSH3 0x461BCD PUSH1 0xE5 SHL DUP2 MSTORE PUSH1 0x4 ADD PUSH2 0x62D SWAP1 PUSH2 0x3A76 JUMP JUMPDEST PUSH1 0x4 DUP2 ADD SLOAD PUSH2 0x100 SWAP1 DIV PUSH1 0xFF AND ISZERO PUSH2 0x2231 JUMPI PUSH1 0x40 MLOAD PUSH3 0x461BCD PUSH1 0xE5 SHL DUP2 MSTORE PUSH1 0x4 ADD PUSH2 0x62D SWAP1 PUSH2 0x3BF5 JUMP JUMPDEST PUSH2 0x2239 PUSH2 0x2BA6 JUMP JUMPDEST PUSH1 0x4 ADD DUP1 SLOAD PUSH3 0xFF0000 NOT AND PUSH3 0x10000 OR SWAP1 SSTORE POP POP POP JUMP JUMPDEST PUSH1 0x4 SLOAD PUSH1 0x1 PUSH1 0xA0 SHL SWAP1 DIV PUSH1 0xFF AND ISZERO PUSH2 0x227A JUMPI PUSH1 0x40 MLOAD PUSH3 0x461BCD PUSH1 0xE5 SHL DUP2 MSTORE PUSH1 0x4 ADD PUSH2 0x62D SWAP1 PUSH2 0x39D9 JUMP JUMPDEST PUSH1 0x4 DUP1 SLOAD PUSH1 0x3 DUP1 SLOAD PUSH1 0x1 PUSH1 0x1 PUSH1 0xA0 SHL SUB NOT AND CALLER OR SWAP1 SSTORE PUSH1 0xFF PUSH1 0xA0 SHL NOT PUSH1 0xFF PUSH1 0xB0 SHL NOT PUSH1 0xFF PUSH1 0xA8 SHL NOT SWAP1 SWAP3 AND PUSH1 0x1 PUSH1 0xA8 SHL OR SWAP2 SWAP1 SWAP2 AND PUSH1 0x1 PUSH1 0xB0 SHL OR AND PUSH1 0x1 PUSH1 0xA0 SHL OR SWAP1 SSTORE JUMP JUMPDEST DUP2 PUSH1 0x0 PUSH2 0x22CB PUSH2 0x1A73 JUMP JUMPDEST PUSH1 0x1 PUSH1 0x1 PUSH1 0xA0 SHL SUB AND PUSH4 0x6352211E DUP4 PUSH1 0x40 MLOAD DUP3 PUSH4 0xFFFFFFFF AND PUSH1 0xE0 SHL DUP2 MSTORE PUSH1 0x4 ADD PUSH2 0x22F6 SWAP2 SWAP1 PUSH2 0x3E91 JUMP JUMPDEST PUSH1 0x20 PUSH1 0x40 MLOAD DUP1 DUP4 SUB DUP2 DUP7 DUP1 EXTCODESIZE ISZERO DUP1 ISZERO PUSH2 0x230E JUMPI PUSH1 0x0 DUP1 REVERT JUMPDEST POP GAS STATICCALL ISZERO DUP1 ISZERO PUSH2 0x2322 JUMPI RETURNDATASIZE PUSH1 0x0 DUP1 RETURNDATACOPY RETURNDATASIZE PUSH1 0x0 REVERT JUMPDEST POP POP POP POP PUSH1 0x40 MLOAD RETURNDATASIZE PUSH1 0x1F NOT PUSH1 0x1F DUP3 ADD AND DUP3 ADD DUP1 PUSH1 0x40 MSTORE POP DUP2 ADD SWAP1 PUSH2 0x2346 SWAP2 SWAP1 PUSH2 0x3526 JUMP JUMPDEST SWAP1 POP PUSH1 0x1 PUSH1 0x1 PUSH1 0xA0 SHL SUB DUP2 AND ADDRESS EQ PUSH2 0x2370 JUMPI PUSH1 0x40 MLOAD PUSH3 0x461BCD PUSH1 0xE5 SHL DUP2 MSTORE PUSH1 0x4 ADD PUSH2 0x62D SWAP1 PUSH2 0x3D67 JUMP JUMPDEST PUSH1 0x0 DUP5 DUP2 MSTORE PUSH1 0x9 PUSH1 0x20 MSTORE PUSH1 0x40 DUP2 KECCAK256 SWAP1 PUSH2 0x2387 PUSH2 0x2B96 JUMP JUMPDEST PUSH1 0x4 DUP4 ADD SLOAD SWAP1 SWAP2 POP PUSH3 0x10000 SWAP1 DIV PUSH1 0xFF AND ISZERO PUSH2 0x23B5 JUMPI PUSH1 0x40 MLOAD PUSH3 0x461BCD PUSH1 0xE5 SHL DUP2 MSTORE PUSH1 0x4 ADD PUSH2 0x62D SWAP1 PUSH2 0x3C5C JUMP JUMPDEST PUSH1 0x4 DUP3 ADD SLOAD PUSH4 0x1000000 SWAP1 DIV PUSH1 0x1 PUSH1 0x1 PUSH1 0xA0 SHL SUB AND CALLER EQ PUSH2 0x23E8 JUMPI PUSH1 0x40 MLOAD PUSH3 0x461BCD PUSH1 0xE5 SHL DUP2 MSTORE PUSH1 0x4 ADD PUSH2 0x62D SWAP1 PUSH2 0x383E JUMP JUMPDEST PUSH1 0x0 DUP1 PUSH2 0x23F5 DUP9 DUP9 PUSH2 0x2F53 JUMP JUMPDEST SWAP2 POP SWAP2 POP DUP2 PUSH2 0x2416 JUMPI PUSH1 0x40 MLOAD PUSH3 0x461BCD PUSH1 0xE5 SHL DUP2 MSTORE PUSH1 0x4 ADD PUSH2 0x62D SWAP1 PUSH2 0x3AF1 JUMP JUMPDEST PUSH1 0x20 DUP2 ADD MLOAD PUSH2 0x2424 DUP10 PUSH2 0x30A8 JUMP JUMPDEST PUSH1 0x4 DUP6 ADD DUP1 SLOAD PUSH1 0xFF NOT AND PUSH1 0x1 OR SWAP1 SSTORE PUSH2 0x243D DUP5 DUP3 PUSH2 0x24CD JUMP JUMPDEST PUSH1 0x7 DUP7 ADD SSTORE POP MLOAD PUSH1 0x8 SWAP1 SWAP4 ADD DUP1 SLOAD PUSH1 0x1 PUSH1 0x1 PUSH1 0xA0 SHL SUB NOT AND PUSH1 0x1 PUSH1 0x1 PUSH1 0xA0 SHL SUB SWAP1 SWAP5 AND SWAP4 SWAP1 SWAP4 OR SWAP1 SWAP3 SSTORE POP POP POP POP POP POP JUMP JUMPDEST PUSH1 0x3 SLOAD PUSH1 0x1 PUSH1 0x1 PUSH1 0xA0 SHL SUB AND CALLER EQ PUSH2 0x2499 JUMPI PUSH1 0x40 MLOAD PUSH3 0x461BCD PUSH1 0xE5 SHL DUP2 MSTORE PUSH1 0x4 ADD PUSH2 0x62D SWAP1 PUSH2 0x396D JUMP JUMPDEST PUSH1 0x4 DUP1 SLOAD PUSH1 0xFF PUSH1 0xB0 SHL NOT DUP2 AND PUSH1 0x1 PUSH1 0xB0 SHL SWAP2 DUP3 SWAP1 DIV PUSH1 0xFF AND ISZERO SWAP1 SWAP2 MUL OR SWAP1 SSTORE JUMP JUMPDEST PUSH1 0x0 PUSH2 0x24C6 DUP3 DUP5 PUSH2 0x3F24 JUMP JUMPDEST SWAP4 SWAP3 POP POP POP JUMP JUMPDEST PUSH1 0x0 PUSH2 0x24C6 DUP3 DUP5 PUSH2 0x3EEC JUMP JUMPDEST PUSH1 0x0 PUSH2 0x24C6 DUP3 DUP5 PUSH2 0x3F43 JUMP JUMPDEST PUSH2 0x24ED PUSH2 0x1A73 JUMP JUMPDEST PUSH1 0x1 PUSH1 0x1 PUSH1 0xA0 SHL SUB AND PUSH4 0x6A627842 CALLER PUSH1 0x40 MLOAD DUP3 PUSH4 0xFFFFFFFF AND PUSH1 0xE0 SHL DUP2 MSTORE PUSH1 0x4 ADD PUSH2 0x2518 SWAP2 SWAP1 PUSH2 0x3761 JUMP JUMPDEST PUSH1 0x0 PUSH1 0x40 MLOAD DUP1 DUP4 SUB DUP2 PUSH1 0x0 DUP8 DUP1 EXTCODESIZE ISZERO DUP1 ISZERO PUSH2 0x2532 JUMPI PUSH1 0x0 DUP1 REVERT JUMPDEST POP GAS CALL ISZERO DUP1 ISZERO PUSH2 0x2546 JUMPI RETURNDATASIZE PUSH1 0x0 DUP1 RETURNDATACOPY RETURNDATASIZE PUSH1 0x0 REVERT JUMPDEST POP POP POP POP PUSH1 0x0 PUSH2 0x2554 PUSH2 0x1A73 JUMP JUMPDEST PUSH1 0x1 PUSH1 0x1 PUSH1 0xA0 SHL SUB AND PUSH4 0x295D3EE8 PUSH1 0x40 MLOAD DUP2 PUSH4 0xFFFFFFFF AND PUSH1 0xE0 SHL DUP2 MSTORE PUSH1 0x4 ADD PUSH1 0x20 PUSH1 0x40 MLOAD DUP1 DUP4 SUB DUP2 DUP7 DUP1 EXTCODESIZE ISZERO DUP1 ISZERO PUSH2 0x258C JUMPI PUSH1 0x0 DUP1 REVERT JUMPDEST POP GAS STATICCALL ISZERO DUP1 ISZERO PUSH2 0x25A0 JUMPI RETURNDATASIZE PUSH1 0x0 DUP1 RETURNDATACOPY RETURNDATASIZE PUSH1 0x0 REVERT JUMPDEST POP POP POP POP PUSH1 0x40 MLOAD RETURNDATASIZE PUSH1 0x1F NOT PUSH1 0x1F DUP3 ADD AND DUP3 ADD DUP1 PUSH1 0x40 MSTORE POP DUP2 ADD SWAP1 PUSH2 0x25C4 SWAP2 SWAP1 PUSH2 0x36F9 JUMP JUMPDEST SWAP1 POP PUSH1 0x0 PUSH2 0x25D0 PUSH2 0x165C JUMP JUMPDEST PUSH1 0x1 PUSH1 0x1 PUSH1 0xA0 SHL SUB AND PUSH4 0x6A3F9171 DUP4 PUSH1 0x40 MLOAD DUP3 PUSH4 0xFFFFFFFF AND PUSH1 0xE0 SHL DUP2 MSTORE PUSH1 0x4 ADD PUSH2 0x25FB SWAP2 SWAP1 PUSH2 0x3E91 JUMP JUMPDEST PUSH1 0x0 PUSH1 0x40 MLOAD DUP1 DUP4 SUB DUP2 DUP7 DUP1 EXTCODESIZE ISZERO DUP1 ISZERO PUSH2 0x2613 JUMPI PUSH1 0x0 DUP1 REVERT JUMPDEST POP GAS STATICCALL ISZERO DUP1 ISZERO PUSH2 0x2627 JUMPI RETURNDATASIZE PUSH1 0x0 DUP1 RETURNDATACOPY RETURNDATASIZE PUSH1 0x0 REVERT JUMPDEST POP POP POP POP PUSH1 0x40 MLOAD RETURNDATASIZE PUSH1 0x0 DUP3 RETURNDATACOPY PUSH1 0x1F RETURNDATASIZE SWAP1 DUP2 ADD PUSH1 0x1F NOT AND DUP3 ADD PUSH1 0x40 MSTORE PUSH2 0x264F SWAP2 SWAP1 DUP2 ADD SWAP1 PUSH2 0x35CF JUMP JUMPDEST PUSH1 0x40 DUP1 MLOAD PUSH1 0xA0 DUP1 DUP3 ADD DUP4 MSTORE PUSH1 0x1 DUP1 DUP4 MSTORE PUSH1 0x20 DUP1 DUP5 ADD DUP7 DUP2 MSTORE TIMESTAMP DUP6 DUP8 ADD MSTORE PUSH1 0x0 PUSH1 0x60 DUP1 DUP8 ADD DUP3 SWAP1 MSTORE DUP8 MLOAD PUSH1 0xC0 DUP2 ADD DUP10 MSTORE DUP3 DUP2 MSTORE DUP1 DUP6 ADD DUP4 SWAP1 MSTORE DUP1 DUP10 ADD DUP4 SWAP1 MSTORE SWAP1 DUP2 ADD DUP3 SWAP1 MSTORE DUP8 MLOAD DUP1 DUP10 ADD DUP10 MSTORE DUP3 DUP2 MSTORE DUP1 DUP6 ADD DUP4 SWAP1 MSTORE PUSH1 0x80 DUP3 DUP2 ADD SWAP2 SWAP1 SWAP2 MSTORE DUP9 MLOAD DUP1 DUP11 ADD DUP11 MSTORE DUP4 DUP2 MSTORE DUP1 DUP7 ADD DUP5 SWAP1 MSTORE SWAP7 DUP3 ADD SWAP7 SWAP1 SWAP7 MSTORE SWAP5 DUP7 ADD SWAP5 SWAP1 SWAP5 MSTORE DUP9 DUP5 MSTORE PUSH1 0x9 DUP3 MSTORE SWAP5 SWAP1 SWAP3 KECCAK256 DUP4 MLOAD DUP2 SSTORE SWAP4 MLOAD DUP1 MLOAD SWAP6 SWAP7 POP SWAP3 SWAP5 PUSH2 0x26F4 SWAP4 SWAP2 DUP6 ADD SWAP3 SWAP2 SWAP1 SWAP2 ADD SWAP1 PUSH2 0x3455 JUMP JUMPDEST POP PUSH1 0x40 DUP3 DUP2 ADD MLOAD PUSH1 0x2 DUP4 ADD SSTORE PUSH1 0x60 DUP1 DUP5 ADD MLOAD PUSH1 0x3 DUP5 ADD SSTORE PUSH1 0x80 SWAP4 DUP5 ADD MLOAD DUP1 MLOAD PUSH1 0x4 DUP6 ADD DUP1 SLOAD PUSH1 0x20 DUP1 DUP6 ADD MLOAD SWAP7 DUP6 ADD MLOAD SWAP6 DUP6 ADD MLOAD PUSH1 0xFF NOT SWAP1 SWAP3 AND SWAP4 ISZERO ISZERO SWAP4 SWAP1 SWAP4 OR PUSH2 0xFF00 NOT AND PUSH2 0x100 SWAP7 ISZERO ISZERO SWAP7 SWAP1 SWAP7 MUL SWAP6 SWAP1 SWAP6 OR PUSH3 0xFF0000 NOT AND PUSH3 0x10000 SWAP5 ISZERO ISZERO SWAP5 SWAP1 SWAP5 MUL SWAP4 SWAP1 SWAP4 OR PUSH4 0x1000000 PUSH1 0x1 PUSH1 0xB8 SHL SUB NOT AND PUSH4 0x1000000 PUSH1 0x1 PUSH1 0x1 PUSH1 0xA0 SHL SUB SWAP6 DUP7 AND MUL OR SWAP1 SWAP3 SSTORE SWAP4 DUP5 ADD MLOAD DUP1 MLOAD PUSH1 0x5 DUP6 ADD DUP1 SLOAD PUSH1 0x1 PUSH1 0x1 PUSH1 0xA0 SHL SUB NOT SWAP1 DUP2 AND SWAP3 DUP7 AND SWAP3 SWAP1 SWAP3 OR SWAP1 SSTORE SWAP1 DUP3 ADD MLOAD PUSH1 0x6 DUP6 ADD SSTORE PUSH1 0xA0 SWAP1 SWAP5 ADD MLOAD DUP1 MLOAD PUSH1 0x7 DUP6 ADD SSTORE ADD MLOAD PUSH1 0x8 SWAP1 SWAP3 ADD DUP1 SLOAD SWAP1 SWAP4 AND SWAP2 AND OR SWAP1 SSTORE POP POP JUMP JUMPDEST PUSH1 0x0 DUP2 ISZERO PUSH2 0x2A13 JUMPI PUSH1 0x0 PUSH2 0x27DC PUSH2 0x1A73 JUMP JUMPDEST PUSH1 0x1 PUSH1 0x1 PUSH1 0xA0 SHL SUB AND PUSH4 0x295D3EE8 PUSH1 0x40 MLOAD DUP2 PUSH4 0xFFFFFFFF AND PUSH1 0xE0 SHL DUP2 MSTORE PUSH1 0x4 ADD PUSH1 0x20 PUSH1 0x40 MLOAD DUP1 DUP4 SUB DUP2 DUP7 DUP1 EXTCODESIZE ISZERO DUP1 ISZERO PUSH2 0x2814 JUMPI PUSH1 0x0 DUP1 REVERT JUMPDEST POP GAS STATICCALL ISZERO DUP1 ISZERO PUSH2 0x2828 JUMPI RETURNDATASIZE PUSH1 0x0 DUP1 RETURNDATACOPY RETURNDATASIZE PUSH1 0x0 REVERT JUMPDEST POP POP POP POP PUSH1 0x40 MLOAD RETURNDATASIZE PUSH1 0x1F NOT PUSH1 0x1F DUP3 ADD AND DUP3 ADD DUP1 PUSH1 0x40 MSTORE POP DUP2 ADD SWAP1 PUSH2 0x284C SWAP2 SWAP1 PUSH2 0x36F9 JUMP JUMPDEST SWAP1 POP PUSH1 0x0 PUSH1 0x1 JUMPDEST DUP3 DUP2 GT PUSH2 0x2A09 JUMPI PUSH1 0x0 PUSH1 0x9 PUSH1 0x0 DUP4 DUP2 MSTORE PUSH1 0x20 ADD SWAP1 DUP2 MSTORE PUSH1 0x20 ADD PUSH1 0x0 KECCAK256 PUSH1 0x40 MLOAD DUP1 PUSH1 0xA0 ADD PUSH1 0x40 MSTORE SWAP1 DUP2 PUSH1 0x0 DUP3 ADD SLOAD DUP2 MSTORE PUSH1 0x20 ADD PUSH1 0x1 DUP3 ADD DUP1 SLOAD PUSH2 0x2894 SWAP1 PUSH2 0x3F5A JUMP JUMPDEST DUP1 PUSH1 0x1F ADD PUSH1 0x20 DUP1 SWAP2 DIV MUL PUSH1 0x20 ADD PUSH1 0x40 MLOAD SWAP1 DUP2 ADD PUSH1 0x40 MSTORE DUP1 SWAP3 SWAP2 SWAP1 DUP2 DUP2 MSTORE PUSH1 0x20 ADD DUP3 DUP1 SLOAD PUSH2 0x28C0 SWAP1 PUSH2 0x3F5A JUMP JUMPDEST DUP1 ISZERO PUSH2 0x290D JUMPI DUP1 PUSH1 0x1F LT PUSH2 0x28E2 JUMPI PUSH2 0x100 DUP1 DUP4 SLOAD DIV MUL DUP4 MSTORE SWAP2 PUSH1 0x20 ADD SWAP2 PUSH2 0x290D JUMP JUMPDEST DUP3 ADD SWAP2 SWAP1 PUSH1 0x0 MSTORE PUSH1 0x20 PUSH1 0x0 KECCAK256 SWAP1 JUMPDEST DUP2 SLOAD DUP2 MSTORE SWAP1 PUSH1 0x1 ADD SWAP1 PUSH1 0x20 ADD DUP1 DUP4 GT PUSH2 0x28F0 JUMPI DUP3 SWAP1 SUB PUSH1 0x1F AND DUP3 ADD SWAP2 JUMPDEST POP POP POP SWAP2 DUP4 MSTORE POP POP PUSH1 0x2 DUP3 ADD SLOAD PUSH1 0x20 DUP1 DUP4 ADD SWAP2 SWAP1 SWAP2 MSTORE PUSH1 0x3 DUP4 ADD SLOAD PUSH1 0x40 DUP1 DUP5 ADD SWAP2 SWAP1 SWAP2 MSTORE DUP1 MLOAD PUSH1 0xC0 DUP2 ADD DUP3 MSTORE PUSH1 0x4 DUP6 ADD SLOAD PUSH1 0xFF DUP1 DUP3 AND ISZERO ISZERO DUP4 MSTORE PUSH2 0x100 DUP3 DIV DUP2 AND ISZERO ISZERO DUP4 DUP7 ADD MSTORE PUSH3 0x10000 DUP3 DIV AND ISZERO ISZERO DUP3 DUP5 ADD MSTORE PUSH1 0x1 PUSH1 0x1 PUSH1 0xA0 SHL SUB PUSH4 0x1000000 SWAP1 SWAP2 DIV DUP2 AND PUSH1 0x60 DUP4 DUP2 ADD SWAP2 SWAP1 SWAP2 MSTORE DUP4 MLOAD DUP1 DUP6 ADD DUP6 MSTORE PUSH1 0x5 DUP9 ADD SLOAD DUP4 AND DUP2 MSTORE PUSH1 0x6 DUP9 ADD SLOAD DUP2 DUP8 ADD MSTORE PUSH1 0x80 DUP1 DUP6 ADD SWAP2 SWAP1 SWAP2 MSTORE DUP5 MLOAD DUP1 DUP7 ADD DUP7 MSTORE PUSH1 0x7 DUP10 ADD SLOAD DUP2 MSTORE PUSH1 0x8 SWAP1 SWAP9 ADD SLOAD SWAP1 SWAP3 AND SWAP5 DUP8 ADD SWAP5 SWAP1 SWAP5 MSTORE PUSH1 0xA0 DUP3 ADD SWAP6 SWAP1 SWAP6 MSTORE SWAP2 SWAP1 SWAP3 ADD MSTORE SWAP1 DUP3 ADD MLOAD ADD MLOAD SWAP1 SWAP2 POP ISZERO PUSH2 0x29F6 JUMPI PUSH2 0x29F3 PUSH2 0x29EC DUP3 PUSH1 0x20 ADD MLOAD DUP4 PUSH1 0x0 ADD MLOAD PUSH2 0x32D9 JUMP JUMPDEST DUP5 SWAP1 PUSH2 0x24CD JUMP JUMPDEST SWAP3 POP JUMPDEST POP DUP1 PUSH2 0x2A01 DUP2 PUSH2 0x3F95 JUMP JUMPDEST SWAP2 POP POP PUSH2 0x2853 JUMP JUMPDEST POP SWAP2 POP PUSH2 0x1E7A SWAP1 POP JUMP JUMPDEST PUSH1 0x0 PUSH1 0x9 PUSH1 0x0 DUP6 DUP2 MSTORE PUSH1 0x20 ADD SWAP1 DUP2 MSTORE PUSH1 0x20 ADD PUSH1 0x0 KECCAK256 PUSH1 0x40 MLOAD DUP1 PUSH1 0xA0 ADD PUSH1 0x40 MSTORE SWAP1 DUP2 PUSH1 0x0 DUP3 ADD SLOAD DUP2 MSTORE PUSH1 0x20 ADD PUSH1 0x1 DUP3 ADD DUP1 SLOAD PUSH2 0x2A4D SWAP1 PUSH2 0x3F5A JUMP JUMPDEST DUP1 PUSH1 0x1F ADD PUSH1 0x20 DUP1 SWAP2 DIV MUL PUSH1 0x20 ADD PUSH1 0x40 MLOAD SWAP1 DUP2 ADD PUSH1 0x40 MSTORE DUP1 SWAP3 SWAP2 SWAP1 DUP2 DUP2 MSTORE PUSH1 0x20 ADD DUP3 DUP1 SLOAD PUSH2 0x2A79 SWAP1 PUSH2 0x3F5A JUMP JUMPDEST DUP1 ISZERO PUSH2 0x2AC6 JUMPI DUP1 PUSH1 0x1F LT PUSH2 0x2A9B JUMPI PUSH2 0x100 DUP1 DUP4 SLOAD DIV MUL DUP4 MSTORE SWAP2 PUSH1 0x20 ADD SWAP2 PUSH2 0x2AC6 JUMP JUMPDEST DUP3 ADD SWAP2 SWAP1 PUSH1 0x0 MSTORE PUSH1 0x20 PUSH1 0x0 KECCAK256 SWAP1 JUMPDEST DUP2 SLOAD DUP2 MSTORE SWAP1 PUSH1 0x1 ADD SWAP1 PUSH1 0x20 ADD DUP1 DUP4 GT PUSH2 0x2AA9 JUMPI DUP3 SWAP1 SUB PUSH1 0x1F AND DUP3 ADD SWAP2 JUMPDEST POP POP POP SWAP2 DUP4 MSTORE POP POP PUSH1 0x2 DUP3 ADD SLOAD PUSH1 0x20 DUP1 DUP4 ADD SWAP2 SWAP1 SWAP2 MSTORE PUSH1 0x3 DUP4 ADD SLOAD PUSH1 0x40 DUP1 DUP5 ADD SWAP2 SWAP1 SWAP2 MSTORE DUP1 MLOAD PUSH1 0xC0 DUP2 ADD DUP3 MSTORE PUSH1 0x4 DUP6 ADD SLOAD PUSH1 0xFF DUP1 DUP3 AND ISZERO ISZERO DUP4 MSTORE PUSH2 0x100 DUP3 DIV DUP2 AND ISZERO ISZERO DUP4 DUP7 ADD MSTORE PUSH3 0x10000 DUP3 DIV AND ISZERO ISZERO DUP3 DUP5 ADD MSTORE PUSH1 0x1 PUSH1 0x1 PUSH1 0xA0 SHL SUB PUSH4 0x1000000 SWAP1 SWAP2 DIV DUP2 AND PUSH1 0x60 DUP4 DUP2 ADD SWAP2 SWAP1 SWAP2 MSTORE DUP4 MLOAD DUP1 DUP6 ADD DUP6 MSTORE PUSH1 0x5 DUP9 ADD SLOAD DUP4 AND DUP2 MSTORE PUSH1 0x6 DUP9 ADD SLOAD DUP2 DUP8 ADD MSTORE PUSH1 0x80 DUP5 ADD MSTORE DUP4 MLOAD DUP1 DUP6 ADD SWAP1 SWAP5 MSTORE PUSH1 0x7 DUP8 ADD SLOAD DUP5 MSTORE PUSH1 0x8 SWAP1 SWAP7 ADD SLOAD AND DUP3 DUP5 ADD MSTORE PUSH1 0xA0 DUP2 ADD SWAP2 SWAP1 SWAP2 MSTORE SWAP3 SWAP1 SWAP2 ADD SWAP2 SWAP1 SWAP2 MSTORE DUP2 ADD MLOAD DUP2 MLOAD SWAP2 SWAP3 POP PUSH2 0x2B8E SWAP2 PUSH2 0x32D9 JUMP JUMPDEST SWAP2 POP POP PUSH2 0x1E7A JUMP JUMPDEST TIMESTAMP SWAP1 JUMP JUMPDEST PUSH1 0x0 PUSH2 0x24C6 DUP3 DUP5 PUSH2 0x3F04 JUMP JUMPDEST PUSH2 0x2BAE PUSH2 0xF41 JUMP JUMPDEST PUSH2 0x2CD4 JUMPI PUSH1 0x0 PUSH2 0x2BC0 PUSH1 0x0 PUSH1 0x1 PUSH2 0x27CA JUMP JUMPDEST SWAP1 POP PUSH1 0x0 PUSH2 0x2BCC PUSH2 0x1A73 JUMP JUMPDEST PUSH1 0x1 PUSH1 0x1 PUSH1 0xA0 SHL SUB AND PUSH4 0x295D3EE8 PUSH1 0x40 MLOAD DUP2 PUSH4 0xFFFFFFFF AND PUSH1 0xE0 SHL DUP2 MSTORE PUSH1 0x4 ADD PUSH1 0x20 PUSH1 0x40 MLOAD DUP1 DUP4 SUB DUP2 DUP7 DUP1 EXTCODESIZE ISZERO DUP1 ISZERO PUSH2 0x2C04 JUMPI PUSH1 0x0 DUP1 REVERT JUMPDEST POP GAS STATICCALL ISZERO DUP1 ISZERO PUSH2 0x2C18 JUMPI RETURNDATASIZE PUSH1 0x0 DUP1 RETURNDATACOPY RETURNDATASIZE PUSH1 0x0 REVERT JUMPDEST POP POP POP POP PUSH1 0x40 MLOAD RETURNDATASIZE PUSH1 0x1F NOT PUSH1 0x1F DUP3 ADD AND DUP3 ADD DUP1 PUSH1 0x40 MSTORE POP DUP2 ADD SWAP1 PUSH2 0x2C3C SWAP2 SWAP1 PUSH2 0x36F9 JUMP JUMPDEST SWAP1 POP PUSH1 0x0 PUSH2 0x2C4E PUSH1 0xA SLOAD PUSH2 0xEB3 PUSH2 0x2B96 JUMP JUMPDEST SWAP1 POP PUSH1 0x0 PUSH2 0x2C6D DUP3 PUSH2 0xED8 PUSH10 0x1A784379D99DB4200000 PUSH3 0x2819A0 PUSH2 0x2B9A JUMP JUMPDEST SWAP1 POP PUSH1 0x1 JUMPDEST DUP4 DUP2 GT PUSH2 0x15E7 JUMPI PUSH1 0x0 DUP2 DUP2 MSTORE PUSH1 0x9 PUSH1 0x20 MSTORE PUSH1 0x40 DUP2 KECCAK256 SWAP1 PUSH2 0x2C92 DUP4 DUP3 PUSH2 0x27CA JUMP JUMPDEST SWAP1 POP PUSH1 0x0 PUSH2 0x2CA4 DUP3 PUSH2 0xED8 DUP8 DUP12 PUSH2 0x2B9A JUMP JUMPDEST PUSH1 0x3 DUP5 ADD SLOAD SWAP1 SWAP2 POP PUSH2 0x2CB6 SWAP1 DUP3 PUSH2 0x24CD JUMP JUMPDEST DUP4 PUSH1 0x3 ADD DUP2 SWAP1 SSTORE POP POP POP POP DUP1 DUP1 PUSH2 0x2CCC SWAP1 PUSH2 0x3F95 JUMP JUMPDEST SWAP2 POP POP PUSH2 0x2C72 JUMP JUMPDEST JUMP JUMPDEST CALLER PUSH1 0x0 SWAP1 DUP2 MSTORE PUSH1 0x7 PUSH1 0x20 MSTORE PUSH1 0x40 DUP2 KECCAK256 PUSH2 0x2CEE SWAP2 PUSH2 0x34D9 JUMP JUMPDEST CALLER PUSH1 0x0 SWAP1 DUP2 MSTORE PUSH1 0x7 PUSH1 0x20 MSTORE PUSH1 0x40 SWAP1 KECCAK256 DUP1 SLOAD PUSH1 0x1 EQ DUP1 PUSH2 0x2D1A JUMPI POP DUP1 SLOAD DUP3 SWAP1 PUSH2 0x2D18 SWAP1 PUSH1 0x1 SWAP1 PUSH2 0x3F43 JUMP JUMPDEST EQ JUMPDEST ISZERO PUSH2 0x2D58 JUMPI DUP1 DUP1 SLOAD DUP1 PUSH2 0x2D3D JUMPI PUSH4 0x4E487B71 PUSH1 0xE0 SHL PUSH1 0x0 MSTORE PUSH1 0x31 PUSH1 0x4 MSTORE PUSH1 0x24 PUSH1 0x0 REVERT JUMPDEST PUSH1 0x1 SWAP1 SUB DUP2 DUP2 SWAP1 PUSH1 0x0 MSTORE PUSH1 0x20 PUSH1 0x0 KECCAK256 ADD PUSH1 0x0 SWAP1 SSTORE SWAP1 SSTORE PUSH2 0x1C86 JUMP JUMPDEST DUP1 SLOAD PUSH1 0x0 SWAP1 DUP3 SWAP1 PUSH2 0x2D6B SWAP1 PUSH1 0x1 SWAP1 PUSH2 0x3F43 JUMP JUMPDEST DUP2 SLOAD DUP2 LT PUSH2 0x2D89 JUMPI PUSH4 0x4E487B71 PUSH1 0xE0 SHL PUSH1 0x0 MSTORE PUSH1 0x32 PUSH1 0x4 MSTORE PUSH1 0x24 PUSH1 0x0 REVERT JUMPDEST SWAP1 PUSH1 0x0 MSTORE PUSH1 0x20 PUSH1 0x0 KECCAK256 ADD SLOAD SWAP1 POP DUP1 DUP3 DUP5 DUP2 SLOAD DUP2 LT PUSH2 0x2DB7 JUMPI PUSH4 0x4E487B71 PUSH1 0xE0 SHL PUSH1 0x0 MSTORE PUSH1 0x32 PUSH1 0x4 MSTORE PUSH1 0x24 PUSH1 0x0 REVERT JUMPDEST SWAP1 PUSH1 0x0 MSTORE PUSH1 0x20 PUSH1 0x0 KECCAK256 ADD DUP2 SWAP1 SSTORE POP DUP2 DUP1 SLOAD DUP1 PUSH2 0x2DE3 JUMPI PUSH4 0x4E487B71 PUSH1 0xE0 SHL PUSH1 0x0 MSTORE PUSH1 0x31 PUSH1 0x4 MSTORE PUSH1 0x24 PUSH1 0x0 REVERT JUMPDEST PUSH1 0x1 SWAP1 SUB DUP2 DUP2 SWAP1 PUSH1 0x0 MSTORE PUSH1 0x20 PUSH1 0x0 KECCAK256 ADD PUSH1 0x0 SWAP1 SSTORE SWAP1 SSTORE POP POP POP JUMP JUMPDEST DUP1 MLOAD PUSH1 0x20 DUP3 ADD KECCAK256 PUSH1 0x0 SWAP1 PUSH32 0x8C57226533EC41D2857120DF9ACE6DFF88130D9B32385E09C9828F75027730F3 DUP2 EQ PUSH2 0x2EF7 JUMPI PUSH32 0x181EBE3A8FA130246D49BFD123AC54849B05BDCD02C6B1322C78DE2A3988A310 DUP2 EQ PUSH2 0x2EEE JUMPI PUSH32 0x6764D804D57285AE9D4C42CC380377D3D0EE9B90FF9EECCAA32D3B2E3E8D7F17 DUP2 EQ PUSH2 0x2EE5 JUMPI PUSH32 0xB2C1AAAF9F516585466C9876E2EAF06EE68751AAD537B2A6FA22F473D03B58EB DUP2 EQ PUSH2 0x2EDA JUMPI PUSH32 0xB5333297A8BD10E190CB97FB1EE0F49587C8B2E015370E943C69FD680DABC6BD DUP2 EQ PUSH2 0x2ED2 JUMPI PUSH1 0x0 PUSH2 0x2ED5 JUMP JUMPDEST PUSH1 0xC8 JUMPDEST PUSH2 0x2EDD JUMP JUMPDEST PUSH1 0xE1 JUMPDEST PUSH1 0xFF AND PUSH2 0x2EE9 JUMP JUMPDEST PUSH2 0x12C JUMPDEST PUSH2 0x2EF2 JUMP JUMPDEST PUSH2 0x1C2 JUMPDEST PUSH2 0x2EFB JUMP JUMPDEST PUSH2 0x2A3 JUMPDEST PUSH2 0xFFFF AND SWAP4 SWAP3 POP POP POP JUMP JUMPDEST PUSH1 0x0 DUP2 PUSH1 0x1 EQ PUSH2 0x2F47 JUMPI DUP2 PUSH1 0x2 EQ PUSH2 0x2F3F JUMPI DUP2 PUSH1 0x3 EQ PUSH2 0x2F37 JUMPI DUP2 PUSH1 0x4 EQ PUSH2 0x2F2F JUMPI PUSH1 0x0 PUSH2 0x2F32 JUMP JUMPDEST PUSH1 0x50 JUMPDEST PUSH2 0x2F3A JUMP JUMPDEST PUSH1 0x2A JUMPDEST PUSH2 0x2F42 JUMP JUMPDEST PUSH1 0x16 JUMPDEST PUSH2 0x2F4A JUMP JUMPDEST PUSH1 0xF JUMPDEST PUSH1 0xFF AND SWAP3 SWAP2 POP POP JUMP JUMPDEST PUSH1 0x0 PUSH2 0x2F5D PUSH2 0x34FA JUMP JUMPDEST PUSH1 0x0 DUP5 DUP2 MSTORE PUSH1 0xB PUSH1 0x20 SWAP1 DUP2 MSTORE PUSH1 0x40 DUP1 DUP4 KECCAK256 DUP1 SLOAD DUP3 MLOAD DUP2 DUP6 MUL DUP2 ADD DUP6 ADD SWAP1 SWAP4 MSTORE DUP1 DUP4 MSTORE SWAP2 SWAP3 SWAP1 SWAP2 SWAP1 DUP5 SWAP1 DUP5 ADD JUMPDEST DUP3 DUP3 LT ISZERO PUSH2 0x2FD1 JUMPI PUSH1 0x0 DUP5 DUP2 MSTORE PUSH1 0x20 SWAP1 DUP2 SWAP1 KECCAK256 PUSH1 0x40 DUP1 MLOAD DUP1 DUP3 ADD SWAP1 SWAP2 MSTORE PUSH1 0x2 DUP6 MUL SWAP1 SWAP2 ADD DUP1 SLOAD PUSH1 0x1 PUSH1 0x1 PUSH1 0xA0 SHL SUB AND DUP3 MSTORE PUSH1 0x1 SWAP1 DUP2 ADD SLOAD DUP3 DUP5 ADD MSTORE SWAP1 DUP4 MSTORE SWAP1 SWAP3 ADD SWAP2 ADD PUSH2 0x2F89 JUMP JUMPDEST POP POP POP POP SWAP1 POP PUSH1 0x0 JUMPDEST DUP2 MLOAD DUP2 LT ISZERO PUSH2 0x306F JUMPI DUP5 PUSH1 0x1 PUSH1 0x1 PUSH1 0xA0 SHL SUB AND DUP3 DUP3 DUP2 MLOAD DUP2 LT PUSH2 0x300D JUMPI PUSH4 0x4E487B71 PUSH1 0xE0 SHL PUSH1 0x0 MSTORE PUSH1 0x32 PUSH1 0x4 MSTORE PUSH1 0x24 PUSH1 0x0 REVERT JUMPDEST PUSH1 0x20 MUL PUSH1 0x20 ADD ADD MLOAD PUSH1 0x0 ADD MLOAD PUSH1 0x1 PUSH1 0x1 PUSH1 0xA0 SHL SUB AND EQ ISZERO PUSH2 0x305D JUMPI PUSH1 0x1 DUP3 DUP3 DUP2 MLOAD DUP2 LT PUSH2 0x304A JUMPI PUSH4 0x4E487B71 PUSH1 0xE0 SHL PUSH1 0x0 MSTORE PUSH1 0x32 PUSH1 0x4 MSTORE PUSH1 0x24 PUSH1 0x0 REVERT JUMPDEST PUSH1 0x20 MUL PUSH1 0x20 ADD ADD MLOAD SWAP4 POP SWAP4 POP POP POP PUSH2 0x30A1 JUMP JUMPDEST DUP1 PUSH2 0x3067 DUP2 PUSH2 0x3F95 JUMP JUMPDEST SWAP2 POP POP PUSH2 0x2FDA JUMP JUMPDEST POP PUSH1 0x0 DUP2 PUSH1 0x0 DUP2 MLOAD DUP2 LT PUSH2 0x3093 JUMPI PUSH4 0x4E487B71 PUSH1 0xE0 SHL PUSH1 0x0 MSTORE PUSH1 0x32 PUSH1 0x4 MSTORE PUSH1 0x24 PUSH1 0x0 REVERT JUMPDEST PUSH1 0x20 MUL PUSH1 0x20 ADD ADD MLOAD SWAP3 POP SWAP3 POP POP JUMPDEST SWAP3 POP SWAP3 SWAP1 POP JUMP JUMPDEST PUSH1 0x0 DUP2 DUP2 MSTORE PUSH1 0xB PUSH1 0x20 SWAP1 DUP2 MSTORE PUSH1 0x40 DUP1 DUP4 KECCAK256 DUP1 SLOAD DUP3 MLOAD DUP2 DUP6 MUL DUP2 ADD DUP6 ADD SWAP1 SWAP4 MSTORE DUP1 DUP4 MSTORE SWAP2 SWAP3 SWAP1 SWAP2 SWAP1 DUP5 SWAP1 DUP5 ADD JUMPDEST DUP3 DUP3 LT ISZERO PUSH2 0x311C JUMPI PUSH1 0x0 DUP5 DUP2 MSTORE PUSH1 0x20 SWAP1 DUP2 SWAP1 KECCAK256 PUSH1 0x40 DUP1 MLOAD DUP1 DUP3 ADD SWAP1 SWAP2 MSTORE PUSH1 0x2 DUP6 MUL SWAP1 SWAP2 ADD DUP1 SLOAD PUSH1 0x1 PUSH1 0x1 PUSH1 0xA0 SHL SUB AND DUP3 MSTORE PUSH1 0x1 SWAP1 DUP2 ADD SLOAD DUP3 DUP5 ADD MSTORE SWAP1 DUP4 MSTORE SWAP1 SWAP3 ADD SWAP2 ADD PUSH2 0x30D4 JUMP JUMPDEST POP POP POP POP SWAP1 POP PUSH1 0x0 JUMPDEST DUP2 MLOAD DUP2 LT ISZERO PUSH2 0x32D4 JUMPI PUSH1 0x0 PUSH2 0x3175 PUSH7 0x38D7EA4C68000 DUP5 DUP5 DUP2 MLOAD DUP2 LT PUSH2 0x315B JUMPI PUSH4 0x4E487B71 PUSH1 0xE0 SHL PUSH1 0x0 MSTORE PUSH1 0x32 PUSH1 0x4 MSTORE PUSH1 0x24 PUSH1 0x0 REVERT JUMPDEST PUSH1 0x20 MUL PUSH1 0x20 ADD ADD MLOAD PUSH1 0x20 ADD MLOAD PUSH2 0x24BA SWAP1 SWAP2 SWAP1 PUSH4 0xFFFFFFFF AND JUMP JUMPDEST SWAP1 POP PUSH1 0x0 DUP4 DUP4 DUP2 MLOAD DUP2 LT PUSH2 0x3199 JUMPI PUSH4 0x4E487B71 PUSH1 0xE0 SHL PUSH1 0x0 MSTORE PUSH1 0x32 PUSH1 0x4 MSTORE PUSH1 0x24 PUSH1 0x0 REVERT JUMPDEST PUSH1 0x20 MUL PUSH1 0x20 ADD ADD MLOAD PUSH1 0x0 ADD MLOAD SWAP1 POP PUSH2 0x31AF PUSH2 0xF32 JUMP JUMPDEST PUSH1 0x4 DUP1 SLOAD PUSH1 0x40 MLOAD PUSH4 0x23B872DD PUSH1 0xE0 SHL DUP2 MSTORE PUSH1 0x1 PUSH1 0x1 PUSH1 0xA0 SHL SUB SWAP4 DUP5 AND SWAP4 PUSH4 0x23B872DD SWAP4 PUSH2 0x31E4 SWAP4 SWAP1 SWAP2 AND SWAP2 ADDRESS SWAP2 DUP9 SWAP2 ADD PUSH2 0x378E JUMP JUMPDEST PUSH1 0x20 PUSH1 0x40 MLOAD DUP1 DUP4 SUB DUP2 PUSH1 0x0 DUP8 DUP1 EXTCODESIZE ISZERO DUP1 ISZERO PUSH2 0x31FE JUMPI PUSH1 0x0 DUP1 REVERT JUMPDEST POP GAS CALL ISZERO DUP1 ISZERO PUSH2 0x3212 JUMPI RETURNDATASIZE PUSH1 0x0 DUP1 RETURNDATACOPY RETURNDATASIZE PUSH1 0x0 REVERT JUMPDEST POP POP POP POP PUSH1 0x40 MLOAD RETURNDATASIZE PUSH1 0x1F NOT PUSH1 0x1F DUP3 ADD AND DUP3 ADD DUP1 PUSH1 0x40 MSTORE POP DUP2 ADD SWAP1 PUSH2 0x3236 SWAP2 SWAP1 PUSH2 0x35AF JUMP JUMPDEST POP PUSH2 0x323F PUSH2 0xF32 JUMP JUMPDEST PUSH1 0x1 PUSH1 0x1 PUSH1 0xA0 SHL SUB AND PUSH4 0xA9059CBB DUP3 DUP5 PUSH1 0x40 MLOAD DUP4 PUSH4 0xFFFFFFFF AND PUSH1 0xE0 SHL DUP2 MSTORE PUSH1 0x4 ADD PUSH2 0x326C SWAP3 SWAP2 SWAP1 PUSH2 0x3775 JUMP JUMPDEST PUSH1 0x20 PUSH1 0x40 MLOAD DUP1 DUP4 SUB DUP2 PUSH1 0x0 DUP8 DUP1 EXTCODESIZE ISZERO DUP1 ISZERO PUSH2 0x3286 JUMPI PUSH1 0x0 DUP1 REVERT JUMPDEST POP GAS CALL ISZERO DUP1 ISZERO PUSH2 0x329A JUMPI RETURNDATASIZE PUSH1 0x0 DUP1 RETURNDATACOPY RETURNDATASIZE PUSH1 0x0 REVERT JUMPDEST POP POP POP POP PUSH1 0x40 MLOAD RETURNDATASIZE PUSH1 0x1F NOT PUSH1 0x1F DUP3 ADD AND DUP3 ADD DUP1 PUSH1 0x40 MSTORE POP DUP2 ADD SWAP1 PUSH2 0x32BE SWAP2 SWAP1 PUSH2 0x35AF JUMP JUMPDEST POP POP POP DUP1 DUP1 PUSH2 0x32CC SWAP1 PUSH2 0x3F95 JUMP JUMPDEST SWAP2 POP POP PUSH2 0x3125 JUMP JUMPDEST POP POP POP JUMP JUMPDEST DUP2 MLOAD PUSH1 0x20 DUP4 ADD KECCAK256 PUSH1 0x0 SWAP1 DUP2 PUSH32 0x8C57226533EC41D2857120DF9ACE6DFF88130D9B32385E09C9828F75027730F3 DUP3 EQ PUSH2 0x33D2 JUMPI PUSH32 0x181EBE3A8FA130246D49BFD123AC54849B05BDCD02C6B1322C78DE2A3988A310 DUP3 EQ PUSH2 0x33C9 JUMPI PUSH32 0x6764D804D57285AE9D4C42CC380377D3D0EE9B90FF9EECCAA32D3B2E3E8D7F17 DUP3 EQ PUSH2 0x33BE JUMPI PUSH32 0xB2C1AAAF9F516585466C9876E2EAF06EE68751AAD537B2A6FA22F473D03B58EB DUP3 EQ PUSH2 0x33B6 JUMPI PUSH32 0xB5333297A8BD10E190CB97FB1EE0F49587C8B2E015370E943C69FD680DABC6BD DUP3 EQ PUSH2 0x33AE JUMPI PUSH1 0x0 PUSH2 0x33B1 JUMP JUMPDEST PUSH1 0x64 JUMPDEST PUSH2 0x33B9 JUMP JUMPDEST PUSH1 0x96 JUMPDEST PUSH2 0x33C1 JUMP JUMPDEST PUSH1 0xC8 JUMPDEST PUSH1 0xFF AND PUSH2 0x33CD JUMP JUMPDEST PUSH2 0x12C JUMPDEST PUSH2 0x33D6 JUMP JUMPDEST PUSH2 0x1C2 JUMPDEST PUSH2 0xFFFF AND SWAP1 POP PUSH1 0x0 DUP5 PUSH1 0x1 EQ PUSH2 0x342D JUMPI DUP5 PUSH1 0x2 EQ PUSH2 0x3425 JUMPI DUP5 PUSH1 0x3 EQ PUSH2 0x341D JUMPI DUP5 PUSH1 0x4 EQ PUSH2 0x3415 JUMPI DUP5 PUSH1 0x5 EQ PUSH2 0x340D JUMPI PUSH1 0x0 PUSH2 0x3410 JUMP JUMPDEST PUSH1 0x46 JUMPDEST PUSH2 0x3418 JUMP JUMPDEST PUSH1 0x28 JUMPDEST PUSH2 0x3420 JUMP JUMPDEST PUSH1 0x19 JUMPDEST PUSH2 0x3428 JUMP JUMPDEST PUSH1 0xF JUMPDEST PUSH2 0x3430 JUMP JUMPDEST PUSH1 0xA JUMPDEST PUSH1 0xFF AND SWAP1 POP PUSH1 0xA PUSH2 0x3441 DUP3 DUP5 PUSH2 0x3F24 JUMP JUMPDEST PUSH2 0x344B SWAP2 SWAP1 PUSH2 0x3F04 JUMP JUMPDEST SWAP7 SWAP6 POP POP POP POP POP POP JUMP JUMPDEST DUP3 DUP1 SLOAD PUSH2 0x3461 SWAP1 PUSH2 0x3F5A JUMP JUMPDEST SWAP1 PUSH1 0x0 MSTORE PUSH1 0x20 PUSH1 0x0 KECCAK256 SWAP1 PUSH1 0x1F ADD PUSH1 0x20 SWAP1 DIV DUP2 ADD SWAP3 DUP3 PUSH2 0x3483 JUMPI PUSH1 0x0 DUP6 SSTORE PUSH2 0x34C9 JUMP JUMPDEST DUP3 PUSH1 0x1F LT PUSH2 0x349C JUMPI DUP1 MLOAD PUSH1 0xFF NOT AND DUP4 DUP1 ADD OR DUP6 SSTORE PUSH2 0x34C9 JUMP JUMPDEST DUP3 DUP1 ADD PUSH1 0x1 ADD DUP6 SSTORE DUP3 ISZERO PUSH2 0x34C9 JUMPI SWAP2 DUP3 ADD JUMPDEST DUP3 DUP2 GT ISZERO PUSH2 0x34C9 JUMPI DUP3 MLOAD DUP3 SSTORE SWAP2 PUSH1 0x20 ADD SWAP2 SWAP1 PUSH1 0x1 ADD SWAP1 PUSH2 0x34AE JUMP JUMPDEST POP PUSH2 0x34D5 SWAP3 SWAP2 POP PUSH2 0x3511 JUMP JUMPDEST POP SWAP1 JUMP JUMPDEST POP DUP1 SLOAD PUSH1 0x0 DUP3 SSTORE SWAP1 PUSH1 0x0 MSTORE PUSH1 0x20 PUSH1 0x0 KECCAK256 SWAP1 DUP2 ADD SWAP1 PUSH2 0x34F7 SWAP2 SWAP1 PUSH2 0x3511 JUMP JUMPDEST POP JUMP JUMPDEST PUSH1 0x40 DUP1 MLOAD DUP1 DUP3 ADD SWAP1 SWAP2 MSTORE PUSH1 0x0 DUP1 DUP3 MSTORE PUSH1 0x20 DUP3 ADD MSTORE SWAP1 JUMP JUMPDEST JUMPDEST DUP1 DUP3 GT ISZERO PUSH2 0x34D5 JUMPI PUSH1 0x0 DUP2 SSTORE PUSH1 0x1 ADD PUSH2 0x3512 JUMP JUMPDEST PUSH1 0x0 PUSH1 0x20 DUP3 DUP5 SUB SLT ISZERO PUSH2 0x3537 JUMPI DUP1 DUP2 REVERT JUMPDEST DUP2 MLOAD PUSH2 0x24C6 DUP2 PUSH2 0x3FDC JUMP JUMPDEST PUSH1 0x0 DUP1 PUSH1 0x0 DUP1 PUSH1 0x0 DUP1 PUSH1 0xC0 DUP8 DUP10 SUB SLT ISZERO PUSH2 0x355A JUMPI DUP2 DUP3 REVERT JUMPDEST DUP7 CALLDATALOAD PUSH2 0x3565 DUP2 PUSH2 0x3FDC JUMP JUMPDEST SWAP6 POP PUSH1 0x20 DUP8 ADD CALLDATALOAD PUSH2 0x3575 DUP2 PUSH2 0x3FDC JUMP JUMPDEST SWAP5 POP PUSH1 0x40 DUP8 ADD CALLDATALOAD PUSH2 0x3585 DUP2 PUSH2 0x3FDC JUMP JUMPDEST SWAP4 POP PUSH1 0x60 DUP8 ADD CALLDATALOAD PUSH2 0x3595 DUP2 PUSH2 0x3FDC JUMP JUMPDEST SWAP6 SWAP9 SWAP5 SWAP8 POP SWAP3 SWAP6 PUSH1 0x80 DUP2 ADD CALLDATALOAD SWAP5 PUSH1 0xA0 SWAP1 SWAP2 ADD CALLDATALOAD SWAP4 POP SWAP2 POP POP JUMP JUMPDEST PUSH1 0x0 PUSH1 0x20 DUP3 DUP5 SUB SLT ISZERO PUSH2 0x35C0 JUMPI DUP1 DUP2 REVERT JUMPDEST DUP2 MLOAD DUP1 ISZERO ISZERO DUP2 EQ PUSH2 0x24C6 JUMPI DUP2 DUP3 REVERT JUMPDEST PUSH1 0x0 PUSH1 0x20 DUP1 DUP4 DUP6 SUB SLT ISZERO PUSH2 0x35E1 JUMPI DUP2 DUP3 REVERT JUMPDEST DUP3 MLOAD PUSH8 0xFFFFFFFFFFFFFFFF DUP2 GT ISZERO PUSH2 0x35F7 JUMPI DUP3 DUP4 REVERT JUMPDEST DUP4 ADD PUSH1 0x1F DUP2 ADD DUP6 SGT PUSH2 0x3607 JUMPI DUP3 DUP4 REVERT JUMPDEST DUP1 MLOAD PUSH2 0x361A PUSH2 0x3615 DUP3 PUSH2 0x3EC4 JUMP JUMPDEST PUSH2 0x3E9A JUMP JUMPDEST DUP2 DUP2 MSTORE DUP7 DUP5 DUP4 DUP6 ADD ADD GT ISZERO PUSH2 0x362D JUMPI DUP5 DUP6 REVERT JUMPDEST DUP5 JUMPDEST DUP3 DUP2 LT ISZERO PUSH2 0x364A JUMPI DUP4 DUP2 ADD DUP6 ADD MLOAD DUP3 DUP3 ADD DUP7 ADD MSTORE DUP5 ADD PUSH2 0x362F JUMP JUMPDEST DUP3 DUP2 GT ISZERO PUSH2 0x365A JUMPI DUP6 DUP6 DUP5 DUP5 ADD ADD MSTORE JUMPDEST POP SWAP7 SWAP6 POP POP POP POP POP POP JUMP JUMPDEST PUSH1 0x0 DUP1 PUSH1 0x40 DUP4 DUP6 SUB SLT ISZERO PUSH2 0x3677 JUMPI DUP2 DUP3 REVERT JUMPDEST DUP3 CALLDATALOAD PUSH8 0xFFFFFFFFFFFFFFFF DUP2 GT ISZERO PUSH2 0x368D JUMPI DUP3 DUP4 REVERT JUMPDEST DUP4 ADD PUSH1 0x1F DUP2 ADD DUP6 SGT PUSH2 0x369D JUMPI DUP3 DUP4 REVERT JUMPDEST DUP1 CALLDATALOAD PUSH2 0x36AB PUSH2 0x3615 DUP3 PUSH2 0x3EC4 JUMP JUMPDEST DUP2 DUP2 MSTORE DUP7 PUSH1 0x20 DUP4 DUP6 ADD ADD GT ISZERO PUSH2 0x36BF JUMPI DUP5 DUP6 REVERT JUMPDEST DUP2 PUSH1 0x20 DUP5 ADD PUSH1 0x20 DUP4 ADD CALLDATACOPY SWAP1 DUP2 ADD PUSH1 0x20 SWAP1 DUP2 ADD SWAP5 SWAP1 SWAP5 MSTORE SWAP6 SWAP4 SWAP1 SWAP3 ADD CALLDATALOAD SWAP4 POP POP POP JUMP JUMPDEST PUSH1 0x0 PUSH1 0x20 DUP3 DUP5 SUB SLT ISZERO PUSH2 0x36F2 JUMPI DUP1 DUP2 REVERT JUMPDEST POP CALLDATALOAD SWAP2 SWAP1 POP JUMP JUMPDEST PUSH1 0x0 PUSH1 0x20 DUP3 DUP5 SUB SLT ISZERO PUSH2 0x370A JUMPI DUP1 DUP2 REVERT JUMPDEST POP MLOAD SWAP2 SWAP1 POP JUMP JUMPDEST PUSH1 0x0 DUP1 PUSH1 0x40 DUP4 DUP6 SUB SLT ISZERO PUSH2 0x3723 JUMPI DUP2 DUP3 REVERT JUMPDEST DUP3 CALLDATALOAD SWAP2 POP PUSH1 0x20 DUP4 ADD CALLDATALOAD PUSH2 0x3735 DUP2 PUSH2 0x3FDC JUMP JUMPDEST DUP1 SWAP2 POP POP SWAP3 POP SWAP3 SWAP1 POP JUMP JUMPDEST PUSH1 0x0 DUP1 PUSH1 0x40 DUP4 DUP6 SUB SLT ISZERO PUSH2 0x3752 JUMPI DUP2 DUP3 REVERT JUMPDEST POP POP DUP1 CALLDATALOAD SWAP3 PUSH1 0x20 SWAP1 SWAP2 ADD CALLDATALOAD SWAP2 POP JUMP JUMPDEST PUSH1 0x1 PUSH1 0x1 PUSH1 0xA0 SHL SUB SWAP2 SWAP1 SWAP2 AND DUP2 MSTORE PUSH1 0x20 ADD SWAP1 JUMP JUMPDEST PUSH1 0x1 PUSH1 0x1 PUSH1 0xA0 SHL SUB SWAP3 SWAP1 SWAP3 AND DUP3 MSTORE PUSH1 0x20 DUP3 ADD MSTORE PUSH1 0x40 ADD SWAP1 JUMP JUMPDEST PUSH1 0x1 PUSH1 0x1 PUSH1 0xA0 SHL SUB SWAP4 DUP5 AND DUP2 MSTORE SWAP2 SWAP1 SWAP3 AND PUSH1 0x20 DUP3 ADD MSTORE PUSH1 0x40 DUP2 ADD SWAP2 SWAP1 SWAP2 MSTORE PUSH1 0x60 ADD SWAP1 JUMP JUMPDEST SWAP1 ISZERO ISZERO DUP2 MSTORE PUSH1 0x20 ADD SWAP1 JUMP JUMPDEST PUSH1 0x20 DUP1 DUP3 MSTORE PUSH1 0x2A SWAP1 DUP3 ADD MSTORE PUSH32 0x4572726F72203A20546F6B656E56616C7565206C6F776572207468616E205072 PUSH1 0x40 DUP3 ADD MSTORE PUSH10 0x34B1B2A7B32A37B5B2B7 PUSH1 0xB1 SHL PUSH1 0x60 DUP3 ADD MSTORE PUSH1 0x80 ADD SWAP1 JUMP JUMPDEST PUSH1 0x20 DUP1 DUP3 MSTORE PUSH1 0x1B SWAP1 DUP3 ADD MSTORE PUSH32 0x4572726F72203A204E6F742054726176656C20456E642054696D650000000000 PUSH1 0x40 DUP3 ADD MSTORE PUSH1 0x60 ADD SWAP1 JUMP JUMPDEST PUSH1 0x20 DUP1 DUP3 MSTORE PUSH1 0x18 SWAP1 DUP3 ADD MSTORE PUSH32 0x4572726F72203A204E6F7420546F6B656E204F776E6572210000000000000000 PUSH1 0x40 DUP3 ADD MSTORE PUSH1 0x60 ADD SWAP1 JUMP JUMPDEST PUSH1 0x20 DUP1 DUP3 MSTORE PUSH1 0x17 SWAP1 DUP3 ADD MSTORE PUSH32 0x4572726F72203A204E6F7420456E6F756768204B6C6179000000000000000000 PUSH1 0x40 DUP3 ADD MSTORE PUSH1 0x60 ADD SWAP1 JUMP JUMPDEST PUSH1 0x20 DUP1 DUP3 MSTORE PUSH1 0x33 SWAP1 DUP3 ADD MSTORE PUSH32 0x4572726F72203A204E6F7420456E6F7567682054696D6520466F722054726176 PUSH1 0x40 DUP3 ADD MSTORE PUSH19 0x656C20262620426F72726F77456E6454696D65 PUSH1 0x68 SHL PUSH1 0x60 DUP3 ADD MSTORE PUSH1 0x80 ADD SWAP1 JUMP JUMPDEST PUSH1 0x20 DUP1 DUP3 MSTORE PUSH1 0x1B SWAP1 DUP3 ADD MSTORE PUSH32 0x4572726F72203A20546F6B656E206973204E6F74204D696E696E670000000000 PUSH1 0x40 DUP3 ADD MSTORE PUSH1 0x60 ADD SWAP1 JUMP JUMPDEST PUSH1 0x20 DUP1 DUP3 MSTORE PUSH1 0x17 SWAP1 DUP3 ADD MSTORE PUSH32 0x4572726F72203A204E6F7420546F6B656E204F776E6572000000000000000000 PUSH1 0x40 DUP3 ADD MSTORE PUSH1 0x60 ADD SWAP1 JUMP JUMPDEST PUSH1 0x20 DUP1 DUP3 MSTORE PUSH1 0x1A SWAP1 DUP3 ADD MSTORE PUSH32 0x4865726F436F7265204572726F72203A206F6E6C794F776E6572000000000000 PUSH1 0x40 DUP3 ADD MSTORE PUSH1 0x60 ADD SWAP1 JUMP JUMPDEST PUSH1 0x20 DUP1 DUP3 MSTORE DUP2 DUP2 ADD MSTORE PUSH32 0x4572726F72203A206F6E6C794275792033204865726F2046726F6D204B6C6179 PUSH1 0x40 DUP3 ADD MSTORE PUSH1 0x60 ADD SWAP1 JUMP JUMPDEST PUSH1 0x20 DUP1 DUP3 MSTORE PUSH1 0x15 SWAP1 DUP3 ADD MSTORE PUSH21 0x616C726561647920496E697469616C697A65642121 PUSH1 0x58 SHL PUSH1 0x40 DUP3 ADD MSTORE PUSH1 0x60 ADD SWAP1 JUMP JUMPDEST PUSH1 0x20 DUP1 DUP3 MSTORE PUSH1 0x19 SWAP1 DUP3 ADD MSTORE PUSH32 0x4572726F72203A2054696D654C6F636B204475726174696F6E00000000000000 PUSH1 0x40 DUP3 ADD MSTORE PUSH1 0x60 ADD SWAP1 JUMP JUMPDEST PUSH1 0x20 DUP1 DUP3 MSTORE PUSH1 0x1B SWAP1 DUP3 ADD MSTORE PUSH32 0x4572726F72203A20546F6B656E20697320426F72726F77656421210000000000 PUSH1 0x40 DUP3 ADD MSTORE PUSH1 0x60 ADD SWAP1 JUMP JUMPDEST PUSH1 0x20 DUP1 DUP3 MSTORE PUSH1 0x1A SWAP1 DUP3 ADD MSTORE PUSH32 0x4572726F72203A20546F6B656E20697320426F72726F77656421000000000000 PUSH1 0x40 DUP3 ADD MSTORE PUSH1 0x60 ADD SWAP1 JUMP JUMPDEST PUSH1 0x20 DUP1 DUP3 MSTORE PUSH1 0x24 SWAP1 DUP3 ADD MSTORE PUSH32 0x4572726F72203A204865726F2069732042726F7777656420616E6F74686F7220 PUSH1 0x40 DUP3 ADD MSTORE PUSH4 0x2AB9B2B9 PUSH1 0xE1 SHL PUSH1 0x60 DUP3 ADD MSTORE PUSH1 0x80 ADD SWAP1 JUMP JUMPDEST PUSH1 0x20 DUP1 DUP3 MSTORE PUSH1 0x31 SWAP1 DUP3 ADD MSTORE PUSH32 0x4572726F72203A205265717565737455736572206973204E6F74204578697374 PUSH1 0x40 DUP3 ADD MSTORE PUSH17 0x656420496E205265717565737444617461 PUSH1 0x78 SHL PUSH1 0x60 DUP3 ADD MSTORE PUSH1 0x80 ADD SWAP1 JUMP JUMPDEST PUSH1 0x20 DUP1 DUP3 MSTORE PUSH1 0x18 SWAP1 DUP3 ADD MSTORE PUSH32 0x4572726F72203A204E6F742045786F75676820546F6B656E0000000000000000 PUSH1 0x40 DUP3 ADD MSTORE PUSH1 0x60 ADD SWAP1 JUMP JUMPDEST PUSH1 0x20 DUP1 DUP3 MSTORE PUSH1 0x1B SWAP1 DUP3 ADD MSTORE PUSH32 0x4572726F72203A20546F6B656E2069732054726176656C656421210000000000 PUSH1 0x40 DUP3 ADD MSTORE PUSH1 0x60 ADD SWAP1 JUMP JUMPDEST PUSH1 0x20 DUP1 DUP3 MSTORE PUSH1 0x25 SWAP1 DUP3 ADD MSTORE PUSH32 0x4572726F72203A204E6F742054726176656C4F776E6572206F72207374616B65 PUSH1 0x40 DUP3 ADD MSTORE PUSH5 0x27BBB732B9 PUSH1 0xD9 SHL PUSH1 0x60 DUP3 ADD MSTORE PUSH1 0x80 ADD SWAP1 JUMP JUMPDEST PUSH1 0x20 DUP1 DUP3 MSTORE PUSH1 0x1A SWAP1 DUP3 ADD MSTORE PUSH32 0x4572726F72203A20546F6B656E2069732054726176656C656421000000000000 PUSH1 0x40 DUP3 ADD MSTORE PUSH1 0x60 ADD SWAP1 JUMP JUMPDEST PUSH1 0x20 DUP1 DUP3 MSTORE PUSH1 0x16 SWAP1 DUP3 ADD MSTORE PUSH22 0x22B93937B9101D102737BA102A37B5B2B727BBB732B9 PUSH1 0x51 SHL PUSH1 0x40 DUP3 ADD MSTORE PUSH1 0x60 ADD SWAP1 JUMP JUMPDEST PUSH1 0x20 DUP1 DUP3 MSTORE PUSH1 0x18 SWAP1 DUP3 ADD MSTORE PUSH32 0x4572726F72203A20546F6B656E206973204D696E696E67210000000000000000 PUSH1 0x40 DUP3 ADD MSTORE PUSH1 0x60 ADD SWAP1 JUMP JUMPDEST PUSH1 0x20 DUP1 DUP3 MSTORE PUSH1 0x1C SWAP1 DUP3 ADD MSTORE PUSH32 0x4572726F72203A204E6F74204578697374656420526571756573742100000000 PUSH1 0x40 DUP3 ADD MSTORE PUSH1 0x60 ADD SWAP1 JUMP JUMPDEST PUSH1 0x20 DUP1 DUP3 MSTORE PUSH1 0x19 SWAP1 DUP3 ADD MSTORE PUSH32 0x4572726F72203A206865726F2069732054726176656C65642100000000000000 PUSH1 0x40 DUP3 ADD MSTORE PUSH1 0x60 ADD SWAP1 JUMP JUMPDEST PUSH1 0x20 DUP1 DUP3 MSTORE PUSH1 0x19 SWAP1 DUP3 ADD MSTORE PUSH32 0x4572726F72203A20546F6B656E206973204D696E696E67212100000000000000 PUSH1 0x40 DUP3 ADD MSTORE PUSH1 0x60 ADD SWAP1 JUMP JUMPDEST PUSH1 0x20 DUP1 DUP3 MSTORE PUSH1 0x15 SWAP1 DUP3 ADD MSTORE PUSH21 0x4572726F72203A2076616C7565206973205A65726F PUSH1 0x58 SHL PUSH1 0x40 DUP3 ADD MSTORE PUSH1 0x60 ADD SWAP1 JUMP JUMPDEST PUSH1 0x20 DUP1 DUP3 MSTORE PUSH1 0x1C SWAP1 DUP3 ADD MSTORE PUSH32 0x4572726F72203A204865726F206973204E6F74205374616B6564212100000000 PUSH1 0x40 DUP3 ADD MSTORE PUSH1 0x60 ADD SWAP1 JUMP JUMPDEST PUSH1 0x20 DUP1 DUP3 MSTORE PUSH1 0x23 SWAP1 DUP3 ADD MSTORE PUSH32 0x4572726F72203A206D73672E73656E646572206973204E6F7420426F72726F77 PUSH1 0x40 DUP3 ADD MSTORE PUSH3 0x657273 PUSH1 0xE8 SHL PUSH1 0x60 DUP3 ADD MSTORE PUSH1 0x80 ADD SWAP1 JUMP JUMPDEST PUSH1 0x20 DUP1 DUP3 MSTORE PUSH1 0x1F SWAP1 DUP3 ADD MSTORE PUSH32 0x4572726F72203A206D73672E73656E646572206973204E6F74204F776E657200 PUSH1 0x40 DUP3 ADD MSTORE PUSH1 0x60 ADD SWAP1 JUMP JUMPDEST PUSH1 0x20 DUP1 DUP3 MSTORE PUSH1 0x24 SWAP1 DUP3 ADD MSTORE PUSH32 0x4572726F72203A20616C7265616479205265717565737420416E6F7468657220 PUSH1 0x40 DUP3 ADD MSTORE PUSH4 0x4865726F PUSH1 0xE0 SHL PUSH1 0x60 DUP3 ADD MSTORE PUSH1 0x80 ADD SWAP1 JUMP JUMPDEST PUSH1 0x20 DUP1 DUP3 MSTORE DUP2 DUP2 ADD MSTORE PUSH32 0x4572726F72203A20546F6B656E206973204D61784C6576656C20537461747573 PUSH1 0x40 DUP3 ADD MSTORE PUSH1 0x60 ADD SWAP1 JUMP JUMPDEST SWAP1 DUP2 MSTORE PUSH1 0x20 ADD SWAP1 JUMP JUMPDEST PUSH1 0x40 MLOAD DUP2 DUP2 ADD PUSH8 0xFFFFFFFFFFFFFFFF DUP2 GT DUP3 DUP3 LT OR ISZERO PUSH2 0x3EBC JUMPI PUSH2 0x3EBC PUSH2 0x3FC6 JUMP JUMPDEST PUSH1 0x40 MSTORE SWAP2 SWAP1 POP JUMP JUMPDEST PUSH1 0x0 PUSH8 0xFFFFFFFFFFFFFFFF DUP3 GT ISZERO PUSH2 0x3EDE JUMPI PUSH2 0x3EDE PUSH2 0x3FC6 JUMP JUMPDEST POP PUSH1 0x1F ADD PUSH1 0x1F NOT AND PUSH1 0x20 ADD SWAP1 JUMP JUMPDEST PUSH1 0x0 DUP3 NOT DUP3 GT ISZERO PUSH2 0x3EFF JUMPI PUSH2 0x3EFF PUSH2 0x3FB0 JUMP JUMPDEST POP ADD SWAP1 JUMP JUMPDEST PUSH1 0x0 DUP3 PUSH2 0x3F1F JUMPI PUSH4 0x4E487B71 PUSH1 0xE0 SHL DUP2 MSTORE PUSH1 0x12 PUSH1 0x4 MSTORE PUSH1 0x24 DUP2 REVERT JUMPDEST POP DIV SWAP1 JUMP JUMPDEST PUSH1 0x0 DUP2 PUSH1 0x0 NOT DIV DUP4 GT DUP3 ISZERO ISZERO AND ISZERO PUSH2 0x3F3E JUMPI PUSH2 0x3F3E PUSH2 0x3FB0 JUMP JUMPDEST POP MUL SWAP1 JUMP JUMPDEST PUSH1 0x0 DUP3 DUP3 LT ISZERO PUSH2 0x3F55 JUMPI PUSH2 0x3F55 PUSH2 0x3FB0 JUMP JUMPDEST POP SUB SWAP1 JUMP JUMPDEST PUSH1 0x2 DUP2 DIV PUSH1 0x1 DUP3 AND DUP1 PUSH2 0x3F6E JUMPI PUSH1 0x7F DUP3 AND SWAP2 POP JUMPDEST PUSH1 0x20 DUP3 LT DUP2 EQ ISZERO PUSH2 0x3F8F JUMPI PUSH4 0x4E487B71 PUSH1 0xE0 SHL PUSH1 0x0 MSTORE PUSH1 0x22 PUSH1 0x4 MSTORE PUSH1 0x24 PUSH1 0x0 REVERT JUMPDEST POP SWAP2 SWAP1 POP JUMP JUMPDEST PUSH1 0x0 PUSH1 0x0 NOT DUP3 EQ ISZERO PUSH2 0x3FA9 JUMPI PUSH2 0x3FA9 PUSH2 0x3FB0 JUMP JUMPDEST POP PUSH1 0x1 ADD SWAP1 JUMP JUMPDEST PUSH4 0x4E487B71 PUSH1 0xE0 SHL PUSH1 0x0 MSTORE PUSH1 0x11 PUSH1 0x4 MSTORE PUSH1 0x24 PUSH1 0x0 REVERT JUMPDEST PUSH4 0x4E487B71 PUSH1 0xE0 SHL PUSH1 0x0 MSTORE PUSH1 0x41 PUSH1 0x4 MSTORE PUSH1 0x24 PUSH1 0x0 REVERT JUMPDEST PUSH1 0x1 PUSH1 0x1 PUSH1 0xA0 SHL SUB DUP2 AND DUP2 EQ PUSH2 0x34F7 JUMPI PUSH1 0x0 DUP1 REVERT INVALID LOG2 PUSH5 0x6970667358 0x22 SLT KECCAK256 0xB3 0xAA 0xC7 0xB4 MSTORE8 SWAP4 0xD1 0x5E BALANCE SHR 0x5C 0xE5 STATICCALL PUSH28 0x91A25C66201538586100FA84CA65CD07D8EF64736F6C634300080000 CALLER "
		},
		"gasEstimates": {
			"creation": {
				"codeDepositCost": "3284600",
				"executionCost": "3651",
				"totalCost": "3288251"
			},
			"external": {
				"MINING_DURATION()": "318",
				"MINING_REWARD()": "339",
				"approveBorrow(uint256,address)": "infinite",
				"burn(uint256)": "infinite",
				"calculateTokenAmount(string,uint256)": "infinite",
				"cancelRequest(uint256)": "infinite",
				"changeMiningPaused()": "21989",
				"changePaused()": "21924",
				"claimMiningAmount(uint256)": "infinite",
				"depositAddress()": "1182",
				"getDiagram()": "1137",
				"getHeroNFT()": "1138",
				"getMiningPaused()": "1147",
				"getMintBuyAmount()": "1163",
				"getOwner()": "1115",
				"getPaused()": "1168",
				"getRewardToTravel(uint256)": "infinite",
				"getToken()": "1138",
				"init()": "42815",
				"initialize(address,address,address,address,uint256,uint256)": "infinite",
				"lastClaimTime()": "1117",
				"levelUp(uint256)": "infinite",
				"mining(uint256)": "infinite",
				"mintBuy()": "infinite",
				"mintByToken(uint256)": "infinite",
				"mintTimeLock(uint256)": "infinite",
				"priceOfKlay()": "1140",
				"priceOfToken()": "1074",
				"requestBorrow(uint256,uint256)": "infinite",
				"stake(uint256)": "infinite",
				"travel(uint256)": "infinite",
				"unStake(uint256)": "infinite",
				"viewCanClaimAmount(uint256)": "infinite"
			},
			"internal": {
				"_checkUserInBorrowData(uint256,address)": "infinite",
				"_currentTime()": "14",
				"_distributeReward()": "infinite",
				"_getHeroPower(uint256,bool)": "infinite",
				"_mintHero()": "infinite",
				"_returnBorrowRequestToken(uint256)": "infinite"
			}
		},
		"methodIdentifiers": {
			"MINING_DURATION()": "32590c5c",
			"MINING_REWARD()": "a8469ce9",
			"approveBorrow(uint256,address)": "eb600465",
			"burn(uint256)": "42966c68",
			"calculateTokenAmount(string,uint256)": "aa93c0ee",
			"cancelRequest(uint256)": "3015394c",
			"changeMiningPaused()": "ee72b8cc",
			"changePaused()": "9eb4eae5",
			"claimMiningAmount(uint256)": "727da60a",
			"depositAddress()": "28f833b7",
			"getDiagram()": "48f49779",
			"getHeroNFT()": "7cac00ee",
			"getMiningPaused()": "28919df6",
			"getMintBuyAmount()": "ad74a212",
			"getOwner()": "893d20e8",
			"getPaused()": "6805b84b",
			"getRewardToTravel(uint256)": "cd7308d6",
			"getToken()": "21df0da7",
			"init()": "e1c7392a",
			"initialize(address,address,address,address,uint256,uint256)": "d7c41c79",
			"lastClaimTime()": "c21bae0c",
			"levelUp(uint256)": "0ce90ec2",
			"mining(uint256)": "d7dd41f2",
			"mintBuy()": "173489eb",
			"mintByToken(uint256)": "80d953dd",
			"mintTimeLock(uint256)": "83a1d7e5",
			"priceOfKlay()": "3a1a8080",
			"priceOfToken()": "1b9cbdfb",
			"requestBorrow(uint256,uint256)": "0ae2fe5c",
			"stake(uint256)": "a694fc3a",
			"travel(uint256)": "2a47a945",
			"unStake(uint256)": "5d3eea91",
			"viewCanClaimAmount(uint256)": "17a13522"
		}
	},
	"abi": [
		{
			"inputs": [],
			"name": "MINING_DURATION",
			"outputs": [
				{
					"internalType": "uint256",
					"name": "",
					"type": "uint256"
				}
			],
			"stateMutability": "view",
			"type": "function"
		},
		{
			"inputs": [],
			"name": "MINING_REWARD",
			"outputs": [
				{
					"internalType": "uint256",
					"name": "",
					"type": "uint256"
				}
			],
			"stateMutability": "view",
			"type": "function"
		},
		{
			"inputs": [
				{
					"internalType": "uint256",
					"name": "_tokenId",
					"type": "uint256"
				},
				{
					"internalType": "address",
					"name": "_apprrovedUser",
					"type": "address"
				}
			],
			"name": "approveBorrow",
			"outputs": [],
			"stateMutability": "nonpayable",
			"type": "function"
		},
		{
			"inputs": [
				{
					"internalType": "uint256",
					"name": "_tokenId",
					"type": "uint256"
				}
			],
			"name": "burn",
			"outputs": [],
			"stateMutability": "nonpayable",
			"type": "function"
		},
		{
			"inputs": [
				{
					"internalType": "string",
					"name": "grade",
					"type": "string"
				},
				{
					"internalType": "uint256",
					"name": "level",
					"type": "uint256"
				}
			],
			"name": "calculateTokenAmount",
			"outputs": [
				{
					"internalType": "uint256",
					"name": "",
					"type": "uint256"
				}
			],
			"stateMutability": "pure",
			"type": "function"
		},
		{
			"inputs": [
				{
					"internalType": "uint256",
					"name": "_tokenId",
					"type": "uint256"
				}
			],
			"name": "cancelRequest",
			"outputs": [],
			"stateMutability": "nonpayable",
			"type": "function"
		},
		{
			"inputs": [],
			"name": "changeMiningPaused",
			"outputs": [],
			"stateMutability": "nonpayable",
			"type": "function"
		},
		{
			"inputs": [],
			"name": "changePaused",
			"outputs": [],
			"stateMutability": "nonpayable",
			"type": "function"
		},
		{
			"inputs": [
				{
					"internalType": "uint256",
					"name": "_tokenId",
					"type": "uint256"
				}
			],
			"name": "claimMiningAmount",
			"outputs": [],
			"stateMutability": "nonpayable",
			"type": "function"
		},
		{
			"inputs": [],
			"name": "depositAddress",
			"outputs": [
				{
					"internalType": "address",
					"name": "",
					"type": "address"
				}
			],
			"stateMutability": "view",
			"type": "function"
		},
		{
			"inputs": [],
			"name": "getDiagram",
			"outputs": [
				{
					"internalType": "contract IMakeGrade",
					"name": "",
					"type": "address"
				}
			],
			"stateMutability": "view",
			"type": "function"
		},
		{
			"inputs": [],
			"name": "getHeroNFT",
			"outputs": [
				{
					"internalType": "contract IHeroNFT",
					"name": "",
					"type": "address"
				}
			],
			"stateMutability": "view",
			"type": "function"
		},
		{
			"inputs": [],
			"name": "getMiningPaused",
			"outputs": [
				{
					"internalType": "bool",
					"name": "",
					"type": "bool"
				}
			],
			"stateMutability": "view",
			"type": "function"
		},
		{
			"inputs": [],
			"name": "getMintBuyAmount",
			"outputs": [
				{
					"internalType": "uint256",
					"name": "",
					"type": "uint256"
				}
			],
			"stateMutability": "view",
			"type": "function"
		},
		{
			"inputs": [],
			"name": "getOwner",
			"outputs": [
				{
					"internalType": "address payable",
					"name": "",
					"type": "address"
				}
			],
			"stateMutability": "view",
			"type": "function"
		},
		{
			"inputs": [],
			"name": "getPaused",
			"outputs": [
				{
					"internalType": "bool",
					"name": "",
					"type": "bool"
				}
			],
			"stateMutability": "view",
			"type": "function"
		},
		{
			"inputs": [
				{
					"internalType": "uint256",
					"name": "_tokenId",
					"type": "uint256"
				}
			],
			"name": "getRewardToTravel",
			"outputs": [],
			"stateMutability": "nonpayable",
			"type": "function"
		},
		{
			"inputs": [],
			"name": "getToken",
			"outputs": [
				{
					"internalType": "contract IKIP7",
					"name": "",
					"type": "address"
				}
			],
			"stateMutability": "view",
			"type": "function"
		},
		{
			"inputs": [],
			"name": "init",
			"outputs": [],
			"stateMutability": "nonpayable",
			"type": "function"
		},
		{
			"inputs": [
				{
					"internalType": "address",
					"name": "_heroNFT",
					"type": "address"
				},
				{
					"internalType": "address",
					"name": "_gradeDiagram",
					"type": "address"
				},
				{
					"internalType": "address",
					"name": "_token",
					"type": "address"
				},
				{
					"internalType": "address",
					"name": "_depositAddress",
					"type": "address"
				},
				{
					"internalType": "uint256",
					"name": "_klay",
					"type": "uint256"
				},
				{
					"internalType": "uint256",
					"name": "_tokenPrice",
					"type": "uint256"
				}
			],
			"name": "initialize",
			"outputs": [],
			"stateMutability": "nonpayable",
			"type": "function"
		},
		{
			"inputs": [],
			"name": "lastClaimTime",
			"outputs": [
				{
					"internalType": "uint256",
					"name": "",
					"type": "uint256"
				}
			],
			"stateMutability": "view",
			"type": "function"
		},
		{
			"inputs": [
				{
					"internalType": "uint256",
					"name": "_tokenId",
					"type": "uint256"
				}
			],
			"name": "levelUp",
			"outputs": [],
			"stateMutability": "nonpayable",
			"type": "function"
		},
		{
			"inputs": [
				{
					"internalType": "uint256",
					"name": "_tokenId",
					"type": "uint256"
				}
			],
			"name": "mining",
			"outputs": [],
			"stateMutability": "nonpayable",
			"type": "function"
		},
		{
			"inputs": [],
			"name": "mintBuy",
			"outputs": [],
			"stateMutability": "payable",
			"type": "function"
		},
		{
			"inputs": [
				{
					"internalType": "uint256",
					"name": "_tokenAmount",
					"type": "uint256"
				}
			],
			"name": "mintByToken",
			"outputs": [],
			"stateMutability": "nonpayable",
			"type": "function"
		},
		{
			"inputs": [
				{
					"internalType": "uint256",
					"name": "_index",
					"type": "uint256"
				}
			],
			"name": "mintTimeLock",
			"outputs": [],
			"stateMutability": "nonpayable",
			"type": "function"
		},
		{
			"inputs": [],
			"name": "priceOfKlay",
			"outputs": [
				{
					"internalType": "uint256",
					"name": "",
					"type": "uint256"
				}
			],
			"stateMutability": "view",
			"type": "function"
		},
		{
			"inputs": [],
			"name": "priceOfToken",
			"outputs": [
				{
					"internalType": "uint256",
					"name": "",
					"type": "uint256"
				}
			],
			"stateMutability": "view",
			"type": "function"
		},
		{
			"inputs": [
				{
					"internalType": "uint256",
					"name": "_tokenId",
					"type": "uint256"
				},
				{
					"internalType": "uint256",
					"name": "_duartion",
					"type": "uint256"
				}
			],
			"name": "requestBorrow",
			"outputs": [],
			"stateMutability": "nonpayable",
			"type": "function"
		},
		{
			"inputs": [
				{
					"internalType": "uint256",
					"name": "_tokenId",
					"type": "uint256"
				}
			],
			"name": "stake",
			"outputs": [],
			"stateMutability": "nonpayable",
			"type": "function"
		},
		{
			"inputs": [
				{
					"internalType": "uint256",
					"name": "_tokenId",
					"type": "uint256"
				}
			],
			"name": "travel",
			"outputs": [],
			"stateMutability": "nonpayable",
			"type": "function"
		},
		{
			"inputs": [
				{
					"internalType": "uint256",
					"name": "_tokenId",
					"type": "uint256"
				}
			],
			"name": "unStake",
			"outputs": [],
			"stateMutability": "nonpayable",
			"type": "function"
		},
		{
			"inputs": [
				{
					"internalType": "uint256",
					"name": "_tokenId",
					"type": "uint256"
				}
			],
			"name": "viewCanClaimAmount",
			"outputs": [
				{
					"internalType": "uint256",
					"name": "",
					"type": "uint256"
				}
			],
			"stateMutability": "view",
			"type": "function"
		}
	]
}