{
	"Hero/utils/LevelDiagram.sol": {
		"LevelDiagram": {
			"abi": [
				{
					"inputs": [
						{
							"internalType": "address",
							"name": "_item",
							"type": "address"
						}
					],
					"stateMutability": "nonpayable",
					"type": "constructor"
				},
				{
					"inputs": [
						{
							"internalType": "string",
							"name": "grade",
							"type": "string"
						},
						{
							"internalType": "uint256",
							"name": "level",
							"type": "uint256"
						}
					],
					"name": "calculateTokenAmount",
					"outputs": [
						{
							"internalType": "uint256",
							"name": "",
							"type": "uint256"
						}
					],
					"stateMutability": "pure",
					"type": "function"
				}
			],
			"devdoc": {
				"kind": "dev",
				"methods": {},
				"version": 1
			},
			"evm": {
				"assembly": "    /* \"Hero/utils/LevelDiagram.sol\":146:3561  contract LevelDiagram  {... */\n  mstore(0x40, 0x80)\n    /* \"Hero/utils/LevelDiagram.sol\":523:591  constructor(address _item) {... */\n  callvalue\n  dup1\n  iszero\n  tag_1\n  jumpi\n  0x00\n  dup1\n  revert\ntag_1:\n  pop\n  mload(0x40)\n  sub(codesize, bytecodeSize)\n  dup1\n  bytecodeSize\n  dup4\n  codecopy\n  dup2\n  dup2\n  add\n  0x40\n  mstore\n  dup2\n  add\n  swap1\n  tag_2\n  swap2\n  swap1\n  tag_3\n  jump\t// in\ntag_2:\n    /* \"Hero/utils/LevelDiagram.sol\":578:583  _item */\n  dup1\n    /* \"Hero/utils/LevelDiagram.sol\":560:564  item */\n  0x00\n  dup1\n    /* \"Hero/utils/LevelDiagram.sol\":560:584  item = IKIP37Full(_item) */\n  0x0100\n  exp\n  dup2\n  sload\n  dup2\n  0xffffffffffffffffffffffffffffffffffffffff\n  mul\n  not\n  and\n  swap1\n  dup4\n  0xffffffffffffffffffffffffffffffffffffffff\n  and\n  mul\n  or\n  swap1\n  sstore\n  pop\n    /* \"Hero/utils/LevelDiagram.sol\":523:591  constructor(address _item) {... */\n  pop\n    /* \"Hero/utils/LevelDiagram.sol\":146:3561  contract LevelDiagram  {... */\n  jump(tag_6)\n    /* \"#utility.yul\":7:150   */\ntag_8:\n    /* \"#utility.yul\":64:69   */\n  0x00\n    /* \"#utility.yul\":95:101   */\n  dup2\n    /* \"#utility.yul\":89:102   */\n  mload\n    /* \"#utility.yul\":80:102   */\n  swap1\n  pop\n    /* \"#utility.yul\":111:144   */\n  tag_10\n    /* \"#utility.yul\":138:143   */\n  dup2\n    /* \"#utility.yul\":111:144   */\n  tag_11\n  jump\t// in\ntag_10:\n    /* \"#utility.yul\":70:150   */\n  swap3\n  swap2\n  pop\n  pop\n  jump\t// out\n    /* \"#utility.yul\":156:440   */\ntag_3:\n    /* \"#utility.yul\":226:232   */\n  0x00\n    /* \"#utility.yul\":275:277   */\n  0x20\n    /* \"#utility.yul\":263:272   */\n  dup3\n    /* \"#utility.yul\":254:261   */\n  dup5\n    /* \"#utility.yul\":250:273   */\n  sub\n    /* \"#utility.yul\":246:278   */\n  slt\n    /* \"#utility.yul\":243:245   */\n  iszero\n  tag_13\n  jumpi\n    /* \"#utility.yul\":291:292   */\n  0x00\n    /* \"#utility.yul\":288:289   */\n  dup1\n    /* \"#utility.yul\":281:293   */\n  revert\n    /* \"#utility.yul\":243:245   */\ntag_13:\n    /* \"#utility.yul\":334:335   */\n  0x00\n    /* \"#utility.yul\":359:423   */\n  tag_14\n    /* \"#utility.yul\":415:422   */\n  dup5\n    /* \"#utility.yul\":406:412   */\n  dup3\n    /* \"#utility.yul\":395:404   */\n  dup6\n    /* \"#utility.yul\":391:413   */\n  add\n    /* \"#utility.yul\":359:423   */\n  tag_8\n  jump\t// in\ntag_14:\n    /* \"#utility.yul\":349:423   */\n  swap2\n  pop\n    /* \"#utility.yul\":305:433   */\n  pop\n    /* \"#utility.yul\":233:440   */\n  swap3\n  swap2\n  pop\n  pop\n  jump\t// out\n    /* \"#utility.yul\":446:542   */\ntag_15:\n    /* \"#utility.yul\":483:490   */\n  0x00\n    /* \"#utility.yul\":512:536   */\n  tag_17\n    /* \"#utility.yul\":530:535   */\n  dup3\n    /* \"#utility.yul\":512:536   */\n  tag_18\n  jump\t// in\ntag_17:\n    /* \"#utility.yul\":501:536   */\n  swap1\n  pop\n    /* \"#utility.yul\":491:542   */\n  swap2\n  swap1\n  pop\n  jump\t// out\n    /* \"#utility.yul\":548:674   */\ntag_18:\n    /* \"#utility.yul\":585:592   */\n  0x00\n    /* \"#utility.yul\":625:667   */\n  0xffffffffffffffffffffffffffffffffffffffff\n    /* \"#utility.yul\":618:623   */\n  dup3\n    /* \"#utility.yul\":614:668   */\n  and\n    /* \"#utility.yul\":603:668   */\n  swap1\n  pop\n    /* \"#utility.yul\":593:674   */\n  swap2\n  swap1\n  pop\n  jump\t// out\n    /* \"#utility.yul\":680:802   */\ntag_11:\n    /* \"#utility.yul\":753:777   */\n  tag_21\n    /* \"#utility.yul\":771:776   */\n  dup2\n    /* \"#utility.yul\":753:777   */\n  tag_15\n  jump\t// in\ntag_21:\n    /* \"#utility.yul\":746:751   */\n  dup2\n    /* \"#utility.yul\":743:778   */\n  eq\n    /* \"#utility.yul\":733:735   */\n  tag_22\n  jumpi\n    /* \"#utility.yul\":792:793   */\n  0x00\n    /* \"#utility.yul\":789:790   */\n  dup1\n    /* \"#utility.yul\":782:794   */\n  revert\n    /* \"#utility.yul\":733:735   */\ntag_22:\n    /* \"#utility.yul\":723:802   */\n  pop\n  jump\t// out\n    /* \"Hero/utils/LevelDiagram.sol\":146:3561  contract LevelDiagram  {... */\ntag_6:\n  dataSize(sub_0)\n  dup1\n  dataOffset(sub_0)\n  0x00\n  codecopy\n  0x00\n  return\nstop\n\nsub_0: assembly {\n        /* \"Hero/utils/LevelDiagram.sol\":146:3561  contract LevelDiagram  {... */\n      mstore(0x40, 0x80)\n      callvalue\n      dup1\n      iszero\n      tag_1\n      jumpi\n      0x00\n      dup1\n      revert\n    tag_1:\n      pop\n      jumpi(tag_2, lt(calldatasize, 0x04))\n      shr(0xe0, calldataload(0x00))\n      dup1\n      0xaa93c0ee\n      eq\n      tag_3\n      jumpi\n    tag_2:\n      0x00\n      dup1\n      revert\n        /* \"Hero/utils/LevelDiagram.sol\":597:915  function calculateTokenAmount(string memory grade, uint256 level)... */\n    tag_3:\n      tag_4\n      0x04\n      dup1\n      calldatasize\n      sub\n      dup2\n      add\n      swap1\n      tag_5\n      swap2\n      swap1\n      tag_6\n      jump\t// in\n    tag_5:\n      tag_7\n      jump\t// in\n    tag_4:\n      mload(0x40)\n      tag_8\n      swap2\n      swap1\n      tag_9\n      jump\t// in\n    tag_8:\n      mload(0x40)\n      dup1\n      swap2\n      sub\n      swap1\n      return\n    tag_7:\n        /* \"Hero/utils/LevelDiagram.sol\":708:715  uint256 */\n      0x00\n        /* \"Hero/utils/LevelDiagram.sol\":731:750  uint256 gradeAmount */\n      dup1\n        /* \"Hero/utils/LevelDiagram.sol\":753:785  calculateBasicGradeAmount(grade) */\n      tag_11\n        /* \"Hero/utils/LevelDiagram.sol\":779:784  grade */\n      dup5\n        /* \"Hero/utils/LevelDiagram.sol\":753:778  calculateBasicGradeAmount */\n      tag_12\n        /* \"Hero/utils/LevelDiagram.sol\":753:785  calculateBasicGradeAmount(grade) */\n      jump\t// in\n    tag_11:\n        /* \"Hero/utils/LevelDiagram.sol\":731:785  uint256 gradeAmount = calculateBasicGradeAmount(grade) */\n      swap1\n      pop\n        /* \"Hero/utils/LevelDiagram.sol\":795:814  uint256 levelAmount */\n      0x00\n        /* \"Hero/utils/LevelDiagram.sol\":817:849  calculateBasicLevelAmount(level) */\n      tag_13\n        /* \"Hero/utils/LevelDiagram.sol\":843:848  level */\n      dup5\n        /* \"Hero/utils/LevelDiagram.sol\":817:842  calculateBasicLevelAmount */\n      tag_14\n        /* \"Hero/utils/LevelDiagram.sol\":817:849  calculateBasicLevelAmount(level) */\n      jump\t// in\n    tag_13:\n        /* \"Hero/utils/LevelDiagram.sol\":795:849  uint256 levelAmount = calculateBasicLevelAmount(level) */\n      swap1\n      pop\n        /* \"Hero/utils/LevelDiagram.sol\":904:908  1e18 */\n      0x0de0b6b3a7640000\n        /* \"Hero/utils/LevelDiagram.sol\":898:900  10 */\n      0x0a\n        /* \"Hero/utils/LevelDiagram.sol\":883:894  levelAmount */\n      dup3\n        /* \"Hero/utils/LevelDiagram.sol\":869:880  gradeAmount */\n      dup5\n        /* \"Hero/utils/LevelDiagram.sol\":869:894  gradeAmount * levelAmount */\n      tag_15\n      swap2\n      swap1\n      tag_16\n      jump\t// in\n    tag_15:\n        /* \"Hero/utils/LevelDiagram.sol\":868:900  (gradeAmount * levelAmount) / 10 */\n      tag_17\n      swap2\n      swap1\n      tag_18\n      jump\t// in\n    tag_17:\n        /* \"Hero/utils/LevelDiagram.sol\":867:908  ((gradeAmount * levelAmount) / 10) * 1e18 */\n      tag_19\n      swap2\n      swap1\n      tag_16\n      jump\t// in\n    tag_19:\n        /* \"Hero/utils/LevelDiagram.sol\":860:908  return ((gradeAmount * levelAmount) / 10) * 1e18 */\n      swap3\n      pop\n      pop\n      pop\n        /* \"Hero/utils/LevelDiagram.sol\":597:915  function calculateTokenAmount(string memory grade, uint256 level)... */\n      swap3\n      swap2\n      pop\n      pop\n      jump\t// out\n        /* \"Hero/utils/LevelDiagram.sol\":1190:1694  function calculateBasicGradeAmount(string memory grade)... */\n    tag_12:\n        /* \"Hero/utils/LevelDiagram.sol\":1293:1300  uint256 */\n      0x00\n        /* \"Hero/utils/LevelDiagram.sol\":1316:1334  bytes32 gradeCheck */\n      dup1\n        /* \"Hero/utils/LevelDiagram.sol\":1353:1358  grade */\n      dup3\n        /* \"Hero/utils/LevelDiagram.sol\":1337:1360  keccak256(bytes(grade)) */\n      dup1\n      mload\n      swap1\n      0x20\n      add\n      keccak256\n        /* \"Hero/utils/LevelDiagram.sol\":1316:1360  bytes32 gradeCheck = keccak256(bytes(grade)) */\n      swap1\n      pop\n        /* \"Hero/utils/LevelDiagram.sol\":212:234  keccak256(\"Mythology\") */\n      0x8c57226533ec41d2857120df9ace6dff88130d9b32385e09c9828f75027730f3\n        /* \"Hero/utils/LevelDiagram.sol\":1392:1402  gradeCheck */\n      dup2\n        /* \"Hero/utils/LevelDiagram.sol\":1392:1415  gradeCheck == MYTHOLOGY */\n      eq\n        /* \"Hero/utils/LevelDiagram.sol\":1392:1677  gradeCheck == MYTHOLOGY ? 675 : gradeCheck == LEGENDARY... */\n      tag_21\n      jumpi\n        /* \"Hero/utils/LevelDiagram.sol\":277:299  keccak256(\"Legendary\") */\n      0x181ebe3a8fa130246d49bfd123ac54849b05bdcd02c6b1322c78de2a3988a310\n        /* \"Hero/utils/LevelDiagram.sol\":1424:1434  gradeCheck */\n      dup2\n        /* \"Hero/utils/LevelDiagram.sol\":1424:1447  gradeCheck == LEGENDARY */\n      eq\n        /* \"Hero/utils/LevelDiagram.sol\":1424:1677  gradeCheck == LEGENDARY... */\n      tag_22\n      jumpi\n        /* \"Hero/utils/LevelDiagram.sol\":337:354  keccak256(\"Epic\") */\n      0x6764d804d57285ae9d4c42cc380377d3d0ee9b90ff9eeccaa32d3b2e3e8d7f17\n        /* \"Hero/utils/LevelDiagram.sol\":1488:1498  gradeCheck */\n      dup2\n        /* \"Hero/utils/LevelDiagram.sol\":1488:1506  gradeCheck == EPIC */\n      eq\n        /* \"Hero/utils/LevelDiagram.sol\":1488:1677  gradeCheck == EPIC... */\n      tag_23\n      jumpi\n        /* \"Hero/utils/LevelDiagram.sol\":401:427  keccak256(\"Administrator\") */\n      0xb2c1aaaf9f516585466c9876e2eaf06ee68751aad537b2a6fa22f473d03b58eb\n        /* \"Hero/utils/LevelDiagram.sol\":1547:1557  gradeCheck */\n      dup2\n        /* \"Hero/utils/LevelDiagram.sol\":1547:1574  gradeCheck == ADMINISTRATOR */\n      eq\n        /* \"Hero/utils/LevelDiagram.sol\":1547:1677  gradeCheck == ADMINISTRATOR... */\n      tag_24\n      jumpi\n        /* \"Hero/utils/LevelDiagram.sol\":467:486  keccak256(\"Normal\") */\n      0xb5333297a8bd10e190cb97fb1ee0f49587c8b2e015370e943c69fd680dabc6bd\n        /* \"Hero/utils/LevelDiagram.sol\":1615:1625  gradeCheck */\n      dup2\n        /* \"Hero/utils/LevelDiagram.sol\":1615:1635  gradeCheck == NORMAL */\n      eq\n        /* \"Hero/utils/LevelDiagram.sol\":1615:1677  gradeCheck == NORMAL... */\n      tag_25\n      jumpi\n        /* \"Hero/utils/LevelDiagram.sol\":1676:1677  0 */\n      0x00\n        /* \"Hero/utils/LevelDiagram.sol\":1615:1677  gradeCheck == NORMAL... */\n      jump(tag_26)\n    tag_25:\n        /* \"Hero/utils/LevelDiagram.sol\":1654:1657  200 */\n      0xc8\n        /* \"Hero/utils/LevelDiagram.sol\":1615:1677  gradeCheck == NORMAL... */\n    tag_26:\n        /* \"Hero/utils/LevelDiagram.sol\":1547:1677  gradeCheck == ADMINISTRATOR... */\n      jump(tag_27)\n    tag_24:\n        /* \"Hero/utils/LevelDiagram.sol\":1593:1596  225 */\n      0xe1\n        /* \"Hero/utils/LevelDiagram.sol\":1547:1677  gradeCheck == ADMINISTRATOR... */\n    tag_27:\n        /* \"Hero/utils/LevelDiagram.sol\":1488:1677  gradeCheck == EPIC... */\n      0xff\n      and\n      jump(tag_28)\n    tag_23:\n        /* \"Hero/utils/LevelDiagram.sol\":1525:1528  300 */\n      0x012c\n        /* \"Hero/utils/LevelDiagram.sol\":1488:1677  gradeCheck == EPIC... */\n    tag_28:\n        /* \"Hero/utils/LevelDiagram.sol\":1424:1677  gradeCheck == LEGENDARY... */\n      jump(tag_29)\n    tag_22:\n        /* \"Hero/utils/LevelDiagram.sol\":1466:1469  450 */\n      0x01c2\n        /* \"Hero/utils/LevelDiagram.sol\":1424:1677  gradeCheck == LEGENDARY... */\n    tag_29:\n        /* \"Hero/utils/LevelDiagram.sol\":1392:1677  gradeCheck == MYTHOLOGY ? 675 : gradeCheck == LEGENDARY... */\n      jump(tag_30)\n    tag_21:\n        /* \"Hero/utils/LevelDiagram.sol\":1418:1421  675 */\n      0x02a3\n        /* \"Hero/utils/LevelDiagram.sol\":1392:1677  gradeCheck == MYTHOLOGY ? 675 : gradeCheck == LEGENDARY... */\n    tag_30:\n        /* \"Hero/utils/LevelDiagram.sol\":1371:1687  return (... */\n      0xffff\n      and\n      swap2\n      pop\n      pop\n        /* \"Hero/utils/LevelDiagram.sol\":1190:1694  function calculateBasicGradeAmount(string memory grade)... */\n      swap2\n      swap1\n      pop\n      jump\t// out\n        /* \"Hero/utils/LevelDiagram.sol\":921:1184  function calculateBasicLevelAmount(uint256 level)... */\n    tag_14:\n        /* \"Hero/utils/LevelDiagram.sol\":1018:1025  uint256 */\n      0x00\n        /* \"Hero/utils/LevelDiagram.sol\":1071:1072  1 */\n      0x01\n        /* \"Hero/utils/LevelDiagram.sol\":1062:1067  level */\n      dup3\n        /* \"Hero/utils/LevelDiagram.sol\":1062:1072  level == 1 */\n      eq\n        /* \"Hero/utils/LevelDiagram.sol\":1062:1167  level == 1 ? 15 : level == 2 ? 22 : level == 3 ? 42 : level == 4... */\n      tag_32\n      jumpi\n        /* \"Hero/utils/LevelDiagram.sol\":1089:1090  2 */\n      0x02\n        /* \"Hero/utils/LevelDiagram.sol\":1080:1085  level */\n      dup3\n        /* \"Hero/utils/LevelDiagram.sol\":1080:1090  level == 2 */\n      eq\n        /* \"Hero/utils/LevelDiagram.sol\":1080:1167  level == 2 ? 22 : level == 3 ? 42 : level == 4... */\n      tag_33\n      jumpi\n        /* \"Hero/utils/LevelDiagram.sol\":1107:1108  3 */\n      0x03\n        /* \"Hero/utils/LevelDiagram.sol\":1098:1103  level */\n      dup3\n        /* \"Hero/utils/LevelDiagram.sol\":1098:1108  level == 3 */\n      eq\n        /* \"Hero/utils/LevelDiagram.sol\":1098:1167  level == 3 ? 42 : level == 4... */\n      tag_34\n      jumpi\n        /* \"Hero/utils/LevelDiagram.sol\":1125:1126  4 */\n      0x04\n        /* \"Hero/utils/LevelDiagram.sol\":1116:1121  level */\n      dup3\n        /* \"Hero/utils/LevelDiagram.sol\":1116:1126  level == 4 */\n      eq\n        /* \"Hero/utils/LevelDiagram.sol\":1116:1167  level == 4... */\n      tag_35\n      jumpi\n        /* \"Hero/utils/LevelDiagram.sol\":1166:1167  0 */\n      0x00\n        /* \"Hero/utils/LevelDiagram.sol\":1116:1167  level == 4... */\n      jump(tag_36)\n    tag_35:\n        /* \"Hero/utils/LevelDiagram.sol\":1145:1147  80 */\n      0x50\n        /* \"Hero/utils/LevelDiagram.sol\":1116:1167  level == 4... */\n    tag_36:\n        /* \"Hero/utils/LevelDiagram.sol\":1098:1167  level == 3 ? 42 : level == 4... */\n      jump(tag_37)\n    tag_34:\n        /* \"Hero/utils/LevelDiagram.sol\":1111:1113  42 */\n      0x2a\n        /* \"Hero/utils/LevelDiagram.sol\":1098:1167  level == 3 ? 42 : level == 4... */\n    tag_37:\n        /* \"Hero/utils/LevelDiagram.sol\":1080:1167  level == 2 ? 22 : level == 3 ? 42 : level == 4... */\n      jump(tag_38)\n    tag_33:\n        /* \"Hero/utils/LevelDiagram.sol\":1093:1095  22 */\n      0x16\n        /* \"Hero/utils/LevelDiagram.sol\":1080:1167  level == 2 ? 22 : level == 3 ? 42 : level == 4... */\n    tag_38:\n        /* \"Hero/utils/LevelDiagram.sol\":1062:1167  level == 1 ? 15 : level == 2 ? 22 : level == 3 ? 42 : level == 4... */\n      jump(tag_39)\n    tag_32:\n        /* \"Hero/utils/LevelDiagram.sol\":1075:1077  15 */\n      0x0f\n        /* \"Hero/utils/LevelDiagram.sol\":1062:1167  level == 1 ? 15 : level == 2 ? 22 : level == 3 ? 42 : level == 4... */\n    tag_39:\n        /* \"Hero/utils/LevelDiagram.sol\":1041:1177  return (... */\n      0xff\n      and\n      swap1\n      pop\n        /* \"Hero/utils/LevelDiagram.sol\":921:1184  function calculateBasicLevelAmount(uint256 level)... */\n      swap2\n      swap1\n      pop\n      jump\t// out\n        /* \"#utility.yul\":7:352   */\n    tag_41:\n        /* \"#utility.yul\":85:90   */\n      0x00\n        /* \"#utility.yul\":110:176   */\n      tag_43\n        /* \"#utility.yul\":126:175   */\n      tag_44\n        /* \"#utility.yul\":168:174   */\n      dup5\n        /* \"#utility.yul\":126:175   */\n      tag_45\n      jump\t// in\n    tag_44:\n        /* \"#utility.yul\":110:176   */\n      tag_46\n      jump\t// in\n    tag_43:\n        /* \"#utility.yul\":101:176   */\n      swap1\n      pop\n        /* \"#utility.yul\":199:205   */\n      dup3\n        /* \"#utility.yul\":192:197   */\n      dup2\n        /* \"#utility.yul\":185:206   */\n      mstore\n        /* \"#utility.yul\":237:241   */\n      0x20\n        /* \"#utility.yul\":230:235   */\n      dup2\n        /* \"#utility.yul\":226:242   */\n      add\n        /* \"#utility.yul\":275:278   */\n      dup5\n        /* \"#utility.yul\":266:272   */\n      dup5\n        /* \"#utility.yul\":261:264   */\n      dup5\n        /* \"#utility.yul\":257:273   */\n      add\n        /* \"#utility.yul\":254:279   */\n      gt\n        /* \"#utility.yul\":251:253   */\n      iszero\n      tag_47\n      jumpi\n        /* \"#utility.yul\":292:293   */\n      0x00\n        /* \"#utility.yul\":289:290   */\n      dup1\n        /* \"#utility.yul\":282:294   */\n      revert\n        /* \"#utility.yul\":251:253   */\n    tag_47:\n        /* \"#utility.yul\":305:346   */\n      tag_48\n        /* \"#utility.yul\":339:345   */\n      dup5\n        /* \"#utility.yul\":334:337   */\n      dup3\n        /* \"#utility.yul\":329:332   */\n      dup6\n        /* \"#utility.yul\":305:346   */\n      tag_49\n      jump\t// in\n    tag_48:\n        /* \"#utility.yul\":91:352   */\n      pop\n      swap4\n      swap3\n      pop\n      pop\n      pop\n      jump\t// out\n        /* \"#utility.yul\":372:645   */\n    tag_50:\n        /* \"#utility.yul\":428:433   */\n      0x00\n        /* \"#utility.yul\":477:480   */\n      dup3\n        /* \"#utility.yul\":470:474   */\n      0x1f\n        /* \"#utility.yul\":462:468   */\n      dup4\n        /* \"#utility.yul\":458:475   */\n      add\n        /* \"#utility.yul\":454:481   */\n      slt\n        /* \"#utility.yul\":444:446   */\n      tag_52\n      jumpi\n        /* \"#utility.yul\":495:496   */\n      0x00\n        /* \"#utility.yul\":492:493   */\n      dup1\n        /* \"#utility.yul\":485:497   */\n      revert\n        /* \"#utility.yul\":444:446   */\n    tag_52:\n        /* \"#utility.yul\":535:541   */\n      dup2\n        /* \"#utility.yul\":522:542   */\n      calldataload\n        /* \"#utility.yul\":560:639   */\n      tag_53\n        /* \"#utility.yul\":635:638   */\n      dup5\n        /* \"#utility.yul\":627:633   */\n      dup3\n        /* \"#utility.yul\":620:624   */\n      0x20\n        /* \"#utility.yul\":612:618   */\n      dup7\n        /* \"#utility.yul\":608:625   */\n      add\n        /* \"#utility.yul\":560:639   */\n      tag_41\n      jump\t// in\n    tag_53:\n        /* \"#utility.yul\":551:639   */\n      swap2\n      pop\n        /* \"#utility.yul\":434:645   */\n      pop\n      swap3\n      swap2\n      pop\n      pop\n      jump\t// out\n        /* \"#utility.yul\":651:790   */\n    tag_54:\n        /* \"#utility.yul\":697:702   */\n      0x00\n        /* \"#utility.yul\":735:741   */\n      dup2\n        /* \"#utility.yul\":722:742   */\n      calldataload\n        /* \"#utility.yul\":713:742   */\n      swap1\n      pop\n        /* \"#utility.yul\":751:784   */\n      tag_56\n        /* \"#utility.yul\":778:783   */\n      dup2\n        /* \"#utility.yul\":751:784   */\n      tag_57\n      jump\t// in\n    tag_56:\n        /* \"#utility.yul\":703:790   */\n      swap3\n      swap2\n      pop\n      pop\n      jump\t// out\n        /* \"#utility.yul\":796:1316   */\n    tag_6:\n        /* \"#utility.yul\":874:880   */\n      0x00\n        /* \"#utility.yul\":882:888   */\n      dup1\n        /* \"#utility.yul\":931:933   */\n      0x40\n        /* \"#utility.yul\":919:928   */\n      dup4\n        /* \"#utility.yul\":910:917   */\n      dup6\n        /* \"#utility.yul\":906:929   */\n      sub\n        /* \"#utility.yul\":902:934   */\n      slt\n        /* \"#utility.yul\":899:901   */\n      iszero\n      tag_59\n      jumpi\n        /* \"#utility.yul\":947:948   */\n      0x00\n        /* \"#utility.yul\":944:945   */\n      dup1\n        /* \"#utility.yul\":937:949   */\n      revert\n        /* \"#utility.yul\":899:901   */\n    tag_59:\n        /* \"#utility.yul\":1018:1019   */\n      0x00\n        /* \"#utility.yul\":1007:1016   */\n      dup4\n        /* \"#utility.yul\":1003:1020   */\n      add\n        /* \"#utility.yul\":990:1021   */\n      calldataload\n        /* \"#utility.yul\":1048:1066   */\n      0xffffffffffffffff\n        /* \"#utility.yul\":1040:1046   */\n      dup2\n        /* \"#utility.yul\":1037:1067   */\n      gt\n        /* \"#utility.yul\":1034:1036   */\n      iszero\n      tag_60\n      jumpi\n        /* \"#utility.yul\":1080:1081   */\n      0x00\n        /* \"#utility.yul\":1077:1078   */\n      dup1\n        /* \"#utility.yul\":1070:1082   */\n      revert\n        /* \"#utility.yul\":1034:1036   */\n    tag_60:\n        /* \"#utility.yul\":1108:1171   */\n      tag_61\n        /* \"#utility.yul\":1163:1170   */\n      dup6\n        /* \"#utility.yul\":1154:1160   */\n      dup3\n        /* \"#utility.yul\":1143:1152   */\n      dup7\n        /* \"#utility.yul\":1139:1161   */\n      add\n        /* \"#utility.yul\":1108:1171   */\n      tag_50\n      jump\t// in\n    tag_61:\n        /* \"#utility.yul\":1098:1171   */\n      swap3\n      pop\n        /* \"#utility.yul\":961:1181   */\n      pop\n        /* \"#utility.yul\":1220:1222   */\n      0x20\n        /* \"#utility.yul\":1246:1299   */\n      tag_62\n        /* \"#utility.yul\":1291:1298   */\n      dup6\n        /* \"#utility.yul\":1282:1288   */\n      dup3\n        /* \"#utility.yul\":1271:1280   */\n      dup7\n        /* \"#utility.yul\":1267:1289   */\n      add\n        /* \"#utility.yul\":1246:1299   */\n      tag_54\n      jump\t// in\n    tag_62:\n        /* \"#utility.yul\":1236:1299   */\n      swap2\n      pop\n        /* \"#utility.yul\":1191:1309   */\n      pop\n        /* \"#utility.yul\":889:1316   */\n      swap3\n      pop\n      swap3\n      swap1\n      pop\n      jump\t// out\n        /* \"#utility.yul\":1322:1440   */\n    tag_63:\n        /* \"#utility.yul\":1409:1433   */\n      tag_65\n        /* \"#utility.yul\":1427:1432   */\n      dup2\n        /* \"#utility.yul\":1409:1433   */\n      tag_66\n      jump\t// in\n    tag_65:\n        /* \"#utility.yul\":1404:1407   */\n      dup3\n        /* \"#utility.yul\":1397:1434   */\n      mstore\n        /* \"#utility.yul\":1387:1440   */\n      pop\n      pop\n      jump\t// out\n        /* \"#utility.yul\":1446:1668   */\n    tag_9:\n        /* \"#utility.yul\":1539:1543   */\n      0x00\n        /* \"#utility.yul\":1577:1579   */\n      0x20\n        /* \"#utility.yul\":1566:1575   */\n      dup3\n        /* \"#utility.yul\":1562:1580   */\n      add\n        /* \"#utility.yul\":1554:1580   */\n      swap1\n      pop\n        /* \"#utility.yul\":1590:1661   */\n      tag_68\n        /* \"#utility.yul\":1658:1659   */\n      0x00\n        /* \"#utility.yul\":1647:1656   */\n      dup4\n        /* \"#utility.yul\":1643:1660   */\n      add\n        /* \"#utility.yul\":1634:1640   */\n      dup5\n        /* \"#utility.yul\":1590:1661   */\n      tag_63\n      jump\t// in\n    tag_68:\n        /* \"#utility.yul\":1544:1668   */\n      swap3\n      swap2\n      pop\n      pop\n      jump\t// out\n        /* \"#utility.yul\":1674:1803   */\n    tag_46:\n        /* \"#utility.yul\":1708:1714   */\n      0x00\n        /* \"#utility.yul\":1735:1755   */\n      tag_70\n      tag_71\n      jump\t// in\n    tag_70:\n        /* \"#utility.yul\":1725:1755   */\n      swap1\n      pop\n        /* \"#utility.yul\":1764:1797   */\n      tag_72\n        /* \"#utility.yul\":1792:1796   */\n      dup3\n        /* \"#utility.yul\":1784:1790   */\n      dup3\n        /* \"#utility.yul\":1764:1797   */\n      tag_73\n      jump\t// in\n    tag_72:\n        /* \"#utility.yul\":1715:1803   */\n      swap2\n      swap1\n      pop\n      jump\t// out\n        /* \"#utility.yul\":1809:1884   */\n    tag_71:\n        /* \"#utility.yul\":1842:1848   */\n      0x00\n        /* \"#utility.yul\":1875:1877   */\n      0x40\n        /* \"#utility.yul\":1869:1878   */\n      mload\n        /* \"#utility.yul\":1859:1878   */\n      swap1\n      pop\n        /* \"#utility.yul\":1849:1884   */\n      swap1\n      jump\t// out\n        /* \"#utility.yul\":1890:2198   */\n    tag_45:\n        /* \"#utility.yul\":1952:1956   */\n      0x00\n        /* \"#utility.yul\":2042:2060   */\n      0xffffffffffffffff\n        /* \"#utility.yul\":2034:2040   */\n      dup3\n        /* \"#utility.yul\":2031:2061   */\n      gt\n        /* \"#utility.yul\":2028:2030   */\n      iszero\n      tag_76\n      jumpi\n        /* \"#utility.yul\":2064:2082   */\n      tag_77\n      tag_78\n      jump\t// in\n    tag_77:\n        /* \"#utility.yul\":2028:2030   */\n    tag_76:\n        /* \"#utility.yul\":2102:2131   */\n      tag_79\n        /* \"#utility.yul\":2124:2130   */\n      dup3\n        /* \"#utility.yul\":2102:2131   */\n      tag_80\n      jump\t// in\n    tag_79:\n        /* \"#utility.yul\":2094:2131   */\n      swap1\n      pop\n        /* \"#utility.yul\":2186:2190   */\n      0x20\n        /* \"#utility.yul\":2180:2184   */\n      dup2\n        /* \"#utility.yul\":2176:2191   */\n      add\n        /* \"#utility.yul\":2168:2191   */\n      swap1\n      pop\n        /* \"#utility.yul\":1957:2198   */\n      swap2\n      swap1\n      pop\n      jump\t// out\n        /* \"#utility.yul\":2204:2389   */\n    tag_18:\n        /* \"#utility.yul\":2244:2245   */\n      0x00\n        /* \"#utility.yul\":2261:2281   */\n      tag_82\n        /* \"#utility.yul\":2279:2280   */\n      dup3\n        /* \"#utility.yul\":2261:2281   */\n      tag_66\n      jump\t// in\n    tag_82:\n        /* \"#utility.yul\":2256:2281   */\n      swap2\n      pop\n        /* \"#utility.yul\":2295:2315   */\n      tag_83\n        /* \"#utility.yul\":2313:2314   */\n      dup4\n        /* \"#utility.yul\":2295:2315   */\n      tag_66\n      jump\t// in\n    tag_83:\n        /* \"#utility.yul\":2290:2315   */\n      swap3\n      pop\n        /* \"#utility.yul\":2334:2335   */\n      dup3\n        /* \"#utility.yul\":2324:2326   */\n      tag_84\n      jumpi\n        /* \"#utility.yul\":2339:2357   */\n      tag_85\n      tag_86\n      jump\t// in\n    tag_85:\n        /* \"#utility.yul\":2324:2326   */\n    tag_84:\n        /* \"#utility.yul\":2381:2382   */\n      dup3\n        /* \"#utility.yul\":2378:2379   */\n      dup3\n        /* \"#utility.yul\":2374:2383   */\n      div\n        /* \"#utility.yul\":2369:2383   */\n      swap1\n      pop\n        /* \"#utility.yul\":2246:2389   */\n      swap3\n      swap2\n      pop\n      pop\n      jump\t// out\n        /* \"#utility.yul\":2395:2743   */\n    tag_16:\n        /* \"#utility.yul\":2435:2442   */\n      0x00\n        /* \"#utility.yul\":2458:2478   */\n      tag_88\n        /* \"#utility.yul\":2476:2477   */\n      dup3\n        /* \"#utility.yul\":2458:2478   */\n      tag_66\n      jump\t// in\n    tag_88:\n        /* \"#utility.yul\":2453:2478   */\n      swap2\n      pop\n        /* \"#utility.yul\":2492:2512   */\n      tag_89\n        /* \"#utility.yul\":2510:2511   */\n      dup4\n        /* \"#utility.yul\":2492:2512   */\n      tag_66\n      jump\t// in\n    tag_89:\n        /* \"#utility.yul\":2487:2512   */\n      swap3\n      pop\n        /* \"#utility.yul\":2680:2681   */\n      dup2\n        /* \"#utility.yul\":2612:2678   */\n      0xffffffffffffffffffffffffffffffffffffffffffffffffffffffffffffffff\n        /* \"#utility.yul\":2608:2682   */\n      div\n        /* \"#utility.yul\":2605:2606   */\n      dup4\n        /* \"#utility.yul\":2602:2683   */\n      gt\n        /* \"#utility.yul\":2597:2598   */\n      dup3\n        /* \"#utility.yul\":2590:2599   */\n      iszero\n        /* \"#utility.yul\":2583:2600   */\n      iszero\n        /* \"#utility.yul\":2579:2684   */\n      and\n        /* \"#utility.yul\":2576:2578   */\n      iszero\n      tag_90\n      jumpi\n        /* \"#utility.yul\":2687:2705   */\n      tag_91\n      tag_92\n      jump\t// in\n    tag_91:\n        /* \"#utility.yul\":2576:2578   */\n    tag_90:\n        /* \"#utility.yul\":2735:2736   */\n      dup3\n        /* \"#utility.yul\":2732:2733   */\n      dup3\n        /* \"#utility.yul\":2728:2737   */\n      mul\n        /* \"#utility.yul\":2717:2737   */\n      swap1\n      pop\n        /* \"#utility.yul\":2443:2743   */\n      swap3\n      swap2\n      pop\n      pop\n      jump\t// out\n        /* \"#utility.yul\":2749:2826   */\n    tag_66:\n        /* \"#utility.yul\":2786:2793   */\n      0x00\n        /* \"#utility.yul\":2815:2820   */\n      dup2\n        /* \"#utility.yul\":2804:2820   */\n      swap1\n      pop\n        /* \"#utility.yul\":2794:2826   */\n      swap2\n      swap1\n      pop\n      jump\t// out\n        /* \"#utility.yul\":2832:2986   */\n    tag_49:\n        /* \"#utility.yul\":2916:2922   */\n      dup3\n        /* \"#utility.yul\":2911:2914   */\n      dup2\n        /* \"#utility.yul\":2906:2909   */\n      dup4\n        /* \"#utility.yul\":2893:2923   */\n      calldatacopy\n        /* \"#utility.yul\":2978:2979   */\n      0x00\n        /* \"#utility.yul\":2969:2975   */\n      dup4\n        /* \"#utility.yul\":2964:2967   */\n      dup4\n        /* \"#utility.yul\":2960:2976   */\n      add\n        /* \"#utility.yul\":2953:2980   */\n      mstore\n        /* \"#utility.yul\":2883:2986   */\n      pop\n      pop\n      pop\n      jump\t// out\n        /* \"#utility.yul\":2992:3273   */\n    tag_73:\n        /* \"#utility.yul\":3075:3102   */\n      tag_96\n        /* \"#utility.yul\":3097:3101   */\n      dup3\n        /* \"#utility.yul\":3075:3102   */\n      tag_80\n      jump\t// in\n    tag_96:\n        /* \"#utility.yul\":3067:3073   */\n      dup2\n        /* \"#utility.yul\":3063:3103   */\n      add\n        /* \"#utility.yul\":3205:3211   */\n      dup2\n        /* \"#utility.yul\":3193:3203   */\n      dup2\n        /* \"#utility.yul\":3190:3212   */\n      lt\n        /* \"#utility.yul\":3169:3187   */\n      0xffffffffffffffff\n        /* \"#utility.yul\":3157:3167   */\n      dup3\n        /* \"#utility.yul\":3154:3188   */\n      gt\n        /* \"#utility.yul\":3151:3213   */\n      or\n        /* \"#utility.yul\":3148:3150   */\n      iszero\n      tag_97\n      jumpi\n        /* \"#utility.yul\":3216:3234   */\n      tag_98\n      tag_78\n      jump\t// in\n    tag_98:\n        /* \"#utility.yul\":3148:3150   */\n    tag_97:\n        /* \"#utility.yul\":3256:3266   */\n      dup1\n        /* \"#utility.yul\":3252:3254   */\n      0x40\n        /* \"#utility.yul\":3245:3267   */\n      mstore\n        /* \"#utility.yul\":3035:3273   */\n      pop\n      pop\n      pop\n      jump\t// out\n        /* \"#utility.yul\":3279:3459   */\n    tag_92:\n        /* \"#utility.yul\":3327:3404   */\n      0x4e487b7100000000000000000000000000000000000000000000000000000000\n        /* \"#utility.yul\":3324:3325   */\n      0x00\n        /* \"#utility.yul\":3317:3405   */\n      mstore\n        /* \"#utility.yul\":3424:3428   */\n      0x11\n        /* \"#utility.yul\":3421:3422   */\n      0x04\n        /* \"#utility.yul\":3414:3429   */\n      mstore\n        /* \"#utility.yul\":3448:3452   */\n      0x24\n        /* \"#utility.yul\":3445:3446   */\n      0x00\n        /* \"#utility.yul\":3438:3453   */\n      revert\n        /* \"#utility.yul\":3465:3645   */\n    tag_86:\n        /* \"#utility.yul\":3513:3590   */\n      0x4e487b7100000000000000000000000000000000000000000000000000000000\n        /* \"#utility.yul\":3510:3511   */\n      0x00\n        /* \"#utility.yul\":3503:3591   */\n      mstore\n        /* \"#utility.yul\":3610:3614   */\n      0x12\n        /* \"#utility.yul\":3607:3608   */\n      0x04\n        /* \"#utility.yul\":3600:3615   */\n      mstore\n        /* \"#utility.yul\":3634:3638   */\n      0x24\n        /* \"#utility.yul\":3631:3632   */\n      0x00\n        /* \"#utility.yul\":3624:3639   */\n      revert\n        /* \"#utility.yul\":3651:3831   */\n    tag_78:\n        /* \"#utility.yul\":3699:3776   */\n      0x4e487b7100000000000000000000000000000000000000000000000000000000\n        /* \"#utility.yul\":3696:3697   */\n      0x00\n        /* \"#utility.yul\":3689:3777   */\n      mstore\n        /* \"#utility.yul\":3796:3800   */\n      0x41\n        /* \"#utility.yul\":3793:3794   */\n      0x04\n        /* \"#utility.yul\":3786:3801   */\n      mstore\n        /* \"#utility.yul\":3820:3824   */\n      0x24\n        /* \"#utility.yul\":3817:3818   */\n      0x00\n        /* \"#utility.yul\":3810:3825   */\n      revert\n        /* \"#utility.yul\":3837:3939   */\n    tag_80:\n        /* \"#utility.yul\":3878:3884   */\n      0x00\n        /* \"#utility.yul\":3929:3931   */\n      0x1f\n        /* \"#utility.yul\":3925:3932   */\n      not\n        /* \"#utility.yul\":3920:3922   */\n      0x1f\n        /* \"#utility.yul\":3913:3918   */\n      dup4\n        /* \"#utility.yul\":3909:3923   */\n      add\n        /* \"#utility.yul\":3905:3933   */\n      and\n        /* \"#utility.yul\":3895:3933   */\n      swap1\n      pop\n        /* \"#utility.yul\":3885:3939   */\n      swap2\n      swap1\n      pop\n      jump\t// out\n        /* \"#utility.yul\":3945:4067   */\n    tag_57:\n        /* \"#utility.yul\":4018:4042   */\n      tag_104\n        /* \"#utility.yul\":4036:4041   */\n      dup2\n        /* \"#utility.yul\":4018:4042   */\n      tag_66\n      jump\t// in\n    tag_104:\n        /* \"#utility.yul\":4011:4016   */\n      dup2\n        /* \"#utility.yul\":4008:4043   */\n      eq\n        /* \"#utility.yul\":3998:4000   */\n      tag_105\n      jumpi\n        /* \"#utility.yul\":4057:4058   */\n      0x00\n        /* \"#utility.yul\":4054:4055   */\n      dup1\n        /* \"#utility.yul\":4047:4059   */\n      revert\n        /* \"#utility.yul\":3998:4000   */\n    tag_105:\n        /* \"#utility.yul\":3988:4067   */\n      pop\n      jump\t// out\n\n    auxdata: 0xa264697066735822122023267e448cff7fa03889618cbc12b0cf834ba5a1d4d8916c77860eaa9474f25564736f6c63430008040033\n}\n",
				"bytecode": {
					"linkReferences": {},
					"object": "608060405234801561001057600080fd5b506040516106293803806106298339818101604052810190610032919061008d565b806000806101000a81548173ffffffffffffffffffffffffffffffffffffffff021916908373ffffffffffffffffffffffffffffffffffffffff160217905550506100ff565b600081519050610087816100e8565b92915050565b60006020828403121561009f57600080fd5b60006100ad84828501610078565b91505092915050565b60006100c1826100c8565b9050919050565b600073ffffffffffffffffffffffffffffffffffffffff82169050919050565b6100f1816100b6565b81146100fc57600080fd5b50565b61051b8061010e6000396000f3fe608060405234801561001057600080fd5b506004361061002b5760003560e01c8063aa93c0ee14610030575b600080fd5b61004a60048036038101906100459190610287565b610060565b60405161005791906102ea565b60405180910390f35b60008061006c846100b0565b90506000610079846101bc565b9050670de0b6b3a7640000600a8284610092919061038c565b61009c919061035b565b6100a6919061038c565b9250505092915050565b600080828051906020012090507f8c57226533ec41d2857120df9ace6dff88130d9b32385e09c9828f75027730f381146101ac577f181ebe3a8fa130246d49bfd123ac54849b05bdcd02c6b1322c78de2a3988a31081146101a3577f6764d804d57285ae9d4c42cc380377d3d0ee9b90ff9eeccaa32d3b2e3e8d7f17811461019a577fb2c1aaaf9f516585466c9876e2eaf06ee68751aad537b2a6fa22f473d03b58eb811461018f577fb5333297a8bd10e190cb97fb1ee0f49587c8b2e015370e943c69fd680dabc6bd811461018757600061018a565b60c85b610192565b60e15b60ff1661019e565b61012c5b6101a7565b6101c25b6101b0565b6102a35b61ffff16915050919050565b6000600182146101fd57600282146101f557600382146101ed57600482146101e55760006101e8565b60505b6101f0565b602a5b6101f8565b60165b610200565b600f5b60ff169050919050565b600061021d6102188461032a565b610305565b90508281526020810184848401111561023557600080fd5b6102408482856103f0565b509392505050565b600082601f83011261025957600080fd5b813561026984826020860161020a565b91505092915050565b600081359050610281816104ce565b92915050565b6000806040838503121561029a57600080fd5b600083013567ffffffffffffffff8111156102b457600080fd5b6102c085828601610248565b92505060206102d185828601610272565b9150509250929050565b6102e4816103e6565b82525050565b60006020820190506102ff60008301846102db565b92915050565b600061030f610320565b905061031b82826103ff565b919050565b6000604051905090565b600067ffffffffffffffff8211156103455761034461048e565b5b61034e826104bd565b9050602081019050919050565b6000610366826103e6565b9150610371836103e6565b9250826103815761038061045f565b5b828204905092915050565b6000610397826103e6565b91506103a2836103e6565b9250817fffffffffffffffffffffffffffffffffffffffffffffffffffffffffffffffff04831182151516156103db576103da610430565b5b828202905092915050565b6000819050919050565b82818337600083830152505050565b610408826104bd565b810181811067ffffffffffffffff821117156104275761042661048e565b5b80604052505050565b7f4e487b7100000000000000000000000000000000000000000000000000000000600052601160045260246000fd5b7f4e487b7100000000000000000000000000000000000000000000000000000000600052601260045260246000fd5b7f4e487b7100000000000000000000000000000000000000000000000000000000600052604160045260246000fd5b6000601f19601f8301169050919050565b6104d7816103e6565b81146104e257600080fd5b5056fea264697066735822122023267e448cff7fa03889618cbc12b0cf834ba5a1d4d8916c77860eaa9474f25564736f6c63430008040033",
					"opcodes": "PUSH1 0x80 PUSH1 0x40 MSTORE CALLVALUE DUP1 ISZERO PUSH2 0x10 JUMPI PUSH1 0x0 DUP1 REVERT JUMPDEST POP PUSH1 0x40 MLOAD PUSH2 0x629 CODESIZE SUB DUP1 PUSH2 0x629 DUP4 CODECOPY DUP2 DUP2 ADD PUSH1 0x40 MSTORE DUP2 ADD SWAP1 PUSH2 0x32 SWAP2 SWAP1 PUSH2 0x8D JUMP JUMPDEST DUP1 PUSH1 0x0 DUP1 PUSH2 0x100 EXP DUP2 SLOAD DUP2 PUSH20 0xFFFFFFFFFFFFFFFFFFFFFFFFFFFFFFFFFFFFFFFF MUL NOT AND SWAP1 DUP4 PUSH20 0xFFFFFFFFFFFFFFFFFFFFFFFFFFFFFFFFFFFFFFFF AND MUL OR SWAP1 SSTORE POP POP PUSH2 0xFF JUMP JUMPDEST PUSH1 0x0 DUP2 MLOAD SWAP1 POP PUSH2 0x87 DUP2 PUSH2 0xE8 JUMP JUMPDEST SWAP3 SWAP2 POP POP JUMP JUMPDEST PUSH1 0x0 PUSH1 0x20 DUP3 DUP5 SUB SLT ISZERO PUSH2 0x9F JUMPI PUSH1 0x0 DUP1 REVERT JUMPDEST PUSH1 0x0 PUSH2 0xAD DUP5 DUP3 DUP6 ADD PUSH2 0x78 JUMP JUMPDEST SWAP2 POP POP SWAP3 SWAP2 POP POP JUMP JUMPDEST PUSH1 0x0 PUSH2 0xC1 DUP3 PUSH2 0xC8 JUMP JUMPDEST SWAP1 POP SWAP2 SWAP1 POP JUMP JUMPDEST PUSH1 0x0 PUSH20 0xFFFFFFFFFFFFFFFFFFFFFFFFFFFFFFFFFFFFFFFF DUP3 AND SWAP1 POP SWAP2 SWAP1 POP JUMP JUMPDEST PUSH2 0xF1 DUP2 PUSH2 0xB6 JUMP JUMPDEST DUP2 EQ PUSH2 0xFC JUMPI PUSH1 0x0 DUP1 REVERT JUMPDEST POP JUMP JUMPDEST PUSH2 0x51B DUP1 PUSH2 0x10E PUSH1 0x0 CODECOPY PUSH1 0x0 RETURN INVALID PUSH1 0x80 PUSH1 0x40 MSTORE CALLVALUE DUP1 ISZERO PUSH2 0x10 JUMPI PUSH1 0x0 DUP1 REVERT JUMPDEST POP PUSH1 0x4 CALLDATASIZE LT PUSH2 0x2B JUMPI PUSH1 0x0 CALLDATALOAD PUSH1 0xE0 SHR DUP1 PUSH4 0xAA93C0EE EQ PUSH2 0x30 JUMPI JUMPDEST PUSH1 0x0 DUP1 REVERT JUMPDEST PUSH2 0x4A PUSH1 0x4 DUP1 CALLDATASIZE SUB DUP2 ADD SWAP1 PUSH2 0x45 SWAP2 SWAP1 PUSH2 0x287 JUMP JUMPDEST PUSH2 0x60 JUMP JUMPDEST PUSH1 0x40 MLOAD PUSH2 0x57 SWAP2 SWAP1 PUSH2 0x2EA JUMP JUMPDEST PUSH1 0x40 MLOAD DUP1 SWAP2 SUB SWAP1 RETURN JUMPDEST PUSH1 0x0 DUP1 PUSH2 0x6C DUP5 PUSH2 0xB0 JUMP JUMPDEST SWAP1 POP PUSH1 0x0 PUSH2 0x79 DUP5 PUSH2 0x1BC JUMP JUMPDEST SWAP1 POP PUSH8 0xDE0B6B3A7640000 PUSH1 0xA DUP3 DUP5 PUSH2 0x92 SWAP2 SWAP1 PUSH2 0x38C JUMP JUMPDEST PUSH2 0x9C SWAP2 SWAP1 PUSH2 0x35B JUMP JUMPDEST PUSH2 0xA6 SWAP2 SWAP1 PUSH2 0x38C JUMP JUMPDEST SWAP3 POP POP POP SWAP3 SWAP2 POP POP JUMP JUMPDEST PUSH1 0x0 DUP1 DUP3 DUP1 MLOAD SWAP1 PUSH1 0x20 ADD KECCAK256 SWAP1 POP PUSH32 0x8C57226533EC41D2857120DF9ACE6DFF88130D9B32385E09C9828F75027730F3 DUP2 EQ PUSH2 0x1AC JUMPI PUSH32 0x181EBE3A8FA130246D49BFD123AC54849B05BDCD02C6B1322C78DE2A3988A310 DUP2 EQ PUSH2 0x1A3 JUMPI PUSH32 0x6764D804D57285AE9D4C42CC380377D3D0EE9B90FF9EECCAA32D3B2E3E8D7F17 DUP2 EQ PUSH2 0x19A JUMPI PUSH32 0xB2C1AAAF9F516585466C9876E2EAF06EE68751AAD537B2A6FA22F473D03B58EB DUP2 EQ PUSH2 0x18F JUMPI PUSH32 0xB5333297A8BD10E190CB97FB1EE0F49587C8B2E015370E943C69FD680DABC6BD DUP2 EQ PUSH2 0x187 JUMPI PUSH1 0x0 PUSH2 0x18A JUMP JUMPDEST PUSH1 0xC8 JUMPDEST PUSH2 0x192 JUMP JUMPDEST PUSH1 0xE1 JUMPDEST PUSH1 0xFF AND PUSH2 0x19E JUMP JUMPDEST PUSH2 0x12C JUMPDEST PUSH2 0x1A7 JUMP JUMPDEST PUSH2 0x1C2 JUMPDEST PUSH2 0x1B0 JUMP JUMPDEST PUSH2 0x2A3 JUMPDEST PUSH2 0xFFFF AND SWAP2 POP POP SWAP2 SWAP1 POP JUMP JUMPDEST PUSH1 0x0 PUSH1 0x1 DUP3 EQ PUSH2 0x1FD JUMPI PUSH1 0x2 DUP3 EQ PUSH2 0x1F5 JUMPI PUSH1 0x3 DUP3 EQ PUSH2 0x1ED JUMPI PUSH1 0x4 DUP3 EQ PUSH2 0x1E5 JUMPI PUSH1 0x0 PUSH2 0x1E8 JUMP JUMPDEST PUSH1 0x50 JUMPDEST PUSH2 0x1F0 JUMP JUMPDEST PUSH1 0x2A JUMPDEST PUSH2 0x1F8 JUMP JUMPDEST PUSH1 0x16 JUMPDEST PUSH2 0x200 JUMP JUMPDEST PUSH1 0xF JUMPDEST PUSH1 0xFF AND SWAP1 POP SWAP2 SWAP1 POP JUMP JUMPDEST PUSH1 0x0 PUSH2 0x21D PUSH2 0x218 DUP5 PUSH2 0x32A JUMP JUMPDEST PUSH2 0x305 JUMP JUMPDEST SWAP1 POP DUP3 DUP2 MSTORE PUSH1 0x20 DUP2 ADD DUP5 DUP5 DUP5 ADD GT ISZERO PUSH2 0x235 JUMPI PUSH1 0x0 DUP1 REVERT JUMPDEST PUSH2 0x240 DUP5 DUP3 DUP6 PUSH2 0x3F0 JUMP JUMPDEST POP SWAP4 SWAP3 POP POP POP JUMP JUMPDEST PUSH1 0x0 DUP3 PUSH1 0x1F DUP4 ADD SLT PUSH2 0x259 JUMPI PUSH1 0x0 DUP1 REVERT JUMPDEST DUP2 CALLDATALOAD PUSH2 0x269 DUP5 DUP3 PUSH1 0x20 DUP7 ADD PUSH2 0x20A JUMP JUMPDEST SWAP2 POP POP SWAP3 SWAP2 POP POP JUMP JUMPDEST PUSH1 0x0 DUP2 CALLDATALOAD SWAP1 POP PUSH2 0x281 DUP2 PUSH2 0x4CE JUMP JUMPDEST SWAP3 SWAP2 POP POP JUMP JUMPDEST PUSH1 0x0 DUP1 PUSH1 0x40 DUP4 DUP6 SUB SLT ISZERO PUSH2 0x29A JUMPI PUSH1 0x0 DUP1 REVERT JUMPDEST PUSH1 0x0 DUP4 ADD CALLDATALOAD PUSH8 0xFFFFFFFFFFFFFFFF DUP2 GT ISZERO PUSH2 0x2B4 JUMPI PUSH1 0x0 DUP1 REVERT JUMPDEST PUSH2 0x2C0 DUP6 DUP3 DUP7 ADD PUSH2 0x248 JUMP JUMPDEST SWAP3 POP POP PUSH1 0x20 PUSH2 0x2D1 DUP6 DUP3 DUP7 ADD PUSH2 0x272 JUMP JUMPDEST SWAP2 POP POP SWAP3 POP SWAP3 SWAP1 POP JUMP JUMPDEST PUSH2 0x2E4 DUP2 PUSH2 0x3E6 JUMP JUMPDEST DUP3 MSTORE POP POP JUMP JUMPDEST PUSH1 0x0 PUSH1 0x20 DUP3 ADD SWAP1 POP PUSH2 0x2FF PUSH1 0x0 DUP4 ADD DUP5 PUSH2 0x2DB JUMP JUMPDEST SWAP3 SWAP2 POP POP JUMP JUMPDEST PUSH1 0x0 PUSH2 0x30F PUSH2 0x320 JUMP JUMPDEST SWAP1 POP PUSH2 0x31B DUP3 DUP3 PUSH2 0x3FF JUMP JUMPDEST SWAP2 SWAP1 POP JUMP JUMPDEST PUSH1 0x0 PUSH1 0x40 MLOAD SWAP1 POP SWAP1 JUMP JUMPDEST PUSH1 0x0 PUSH8 0xFFFFFFFFFFFFFFFF DUP3 GT ISZERO PUSH2 0x345 JUMPI PUSH2 0x344 PUSH2 0x48E JUMP JUMPDEST JUMPDEST PUSH2 0x34E DUP3 PUSH2 0x4BD JUMP JUMPDEST SWAP1 POP PUSH1 0x20 DUP2 ADD SWAP1 POP SWAP2 SWAP1 POP JUMP JUMPDEST PUSH1 0x0 PUSH2 0x366 DUP3 PUSH2 0x3E6 JUMP JUMPDEST SWAP2 POP PUSH2 0x371 DUP4 PUSH2 0x3E6 JUMP JUMPDEST SWAP3 POP DUP3 PUSH2 0x381 JUMPI PUSH2 0x380 PUSH2 0x45F JUMP JUMPDEST JUMPDEST DUP3 DUP3 DIV SWAP1 POP SWAP3 SWAP2 POP POP JUMP JUMPDEST PUSH1 0x0 PUSH2 0x397 DUP3 PUSH2 0x3E6 JUMP JUMPDEST SWAP2 POP PUSH2 0x3A2 DUP4 PUSH2 0x3E6 JUMP JUMPDEST SWAP3 POP DUP2 PUSH32 0xFFFFFFFFFFFFFFFFFFFFFFFFFFFFFFFFFFFFFFFFFFFFFFFFFFFFFFFFFFFFFFFF DIV DUP4 GT DUP3 ISZERO ISZERO AND ISZERO PUSH2 0x3DB JUMPI PUSH2 0x3DA PUSH2 0x430 JUMP JUMPDEST JUMPDEST DUP3 DUP3 MUL SWAP1 POP SWAP3 SWAP2 POP POP JUMP JUMPDEST PUSH1 0x0 DUP2 SWAP1 POP SWAP2 SWAP1 POP JUMP JUMPDEST DUP3 DUP2 DUP4 CALLDATACOPY PUSH1 0x0 DUP4 DUP4 ADD MSTORE POP POP POP JUMP JUMPDEST PUSH2 0x408 DUP3 PUSH2 0x4BD JUMP JUMPDEST DUP2 ADD DUP2 DUP2 LT PUSH8 0xFFFFFFFFFFFFFFFF DUP3 GT OR ISZERO PUSH2 0x427 JUMPI PUSH2 0x426 PUSH2 0x48E JUMP JUMPDEST JUMPDEST DUP1 PUSH1 0x40 MSTORE POP POP POP JUMP JUMPDEST PUSH32 0x4E487B7100000000000000000000000000000000000000000000000000000000 PUSH1 0x0 MSTORE PUSH1 0x11 PUSH1 0x4 MSTORE PUSH1 0x24 PUSH1 0x0 REVERT JUMPDEST PUSH32 0x4E487B7100000000000000000000000000000000000000000000000000000000 PUSH1 0x0 MSTORE PUSH1 0x12 PUSH1 0x4 MSTORE PUSH1 0x24 PUSH1 0x0 REVERT JUMPDEST PUSH32 0x4E487B7100000000000000000000000000000000000000000000000000000000 PUSH1 0x0 MSTORE PUSH1 0x41 PUSH1 0x4 MSTORE PUSH1 0x24 PUSH1 0x0 REVERT JUMPDEST PUSH1 0x0 PUSH1 0x1F NOT PUSH1 0x1F DUP4 ADD AND SWAP1 POP SWAP2 SWAP1 POP JUMP JUMPDEST PUSH2 0x4D7 DUP2 PUSH2 0x3E6 JUMP JUMPDEST DUP2 EQ PUSH2 0x4E2 JUMPI PUSH1 0x0 DUP1 REVERT JUMPDEST POP JUMP INVALID LOG2 PUSH5 0x6970667358 0x22 SLT KECCAK256 0x23 0x26 PUSH31 0x448CFF7FA03889618CBC12B0CF834BA5A1D4D8916C77860EAA9474F2556473 PUSH16 0x6C634300080400330000000000000000 "
				},
				"gasEstimates": {
					"creation": {
						"codeDepositCost": "261400",
						"executionCost": "infinite",
						"totalCost": "infinite"
					},
					"external": {
						"calculateTokenAmount(string,uint256)": "infinite"
					},
					"internal": {
						"calculateBasicGradeAmount(string memory)": "infinite",
						"calculateBasicLevelAmount(uint256)": "170",
						"calculateItemIndex(uint256)": "infinite",
						"calculatePower(string memory,uint256)": "infinite",
						"makeRandomNumberForItem(uint256)": "infinite"
					}
				},
				"methodIdentifiers": {
					"calculateTokenAmount(string,uint256)": "aa93c0ee"
				}
			},
			"storageLayout": {
				"storage": [
					{
						"astId": 80,
						"contract": "Hero/utils/LevelDiagram.sol:LevelDiagram",
						"label": "item",
						"offset": 0,
						"slot": "0",
						"type": "t_contract(IKIP37Full)548"
					}
				],
				"types": {
					"t_contract(IKIP37Full)548": {
						"encoding": "inplace",
						"label": "contract IKIP37Full",
						"numberOfBytes": "20"
					}
				}
			},
			"userdoc": {
				"kind": "user",
				"methods": {},
				"version": 1
			}
		}
	}
}