{
	"Hero/utils/LevelDiagram.sol": {
		"LevelDiagram": {
			"abi": [
				{
					"inputs": [
						{
							"internalType": "string",
							"name": "grade",
							"type": "string"
						},
						{
							"internalType": "uint256",
							"name": "level",
							"type": "uint256"
						}
					],
					"name": "calculateTokenAmount",
					"outputs": [
						{
							"internalType": "uint256",
							"name": "",
							"type": "uint256"
						}
					],
					"stateMutability": "pure",
					"type": "function"
				},
				{
					"inputs": [],
					"name": "changeMiningPaused",
					"outputs": [],
					"stateMutability": "nonpayable",
					"type": "function"
				},
				{
					"inputs": [],
					"name": "changePaused",
					"outputs": [],
					"stateMutability": "nonpayable",
					"type": "function"
				},
				{
					"inputs": [],
					"name": "getHeroNFT",
					"outputs": [
						{
							"internalType": "contract IHeroNFT",
							"name": "",
							"type": "address"
						}
					],
					"stateMutability": "view",
					"type": "function"
				},
				{
					"inputs": [],
					"name": "getItem",
					"outputs": [
						{
							"internalType": "contract IKIP37Full",
							"name": "",
							"type": "address"
						}
					],
					"stateMutability": "view",
					"type": "function"
				},
				{
					"inputs": [],
					"name": "getMiningPaused",
					"outputs": [
						{
							"internalType": "bool",
							"name": "",
							"type": "bool"
						}
					],
					"stateMutability": "view",
					"type": "function"
				},
				{
					"inputs": [],
					"name": "getOwner",
					"outputs": [
						{
							"internalType": "address payable",
							"name": "",
							"type": "address"
						}
					],
					"stateMutability": "view",
					"type": "function"
				},
				{
					"inputs": [],
					"name": "getPaused",
					"outputs": [
						{
							"internalType": "bool",
							"name": "",
							"type": "bool"
						}
					],
					"stateMutability": "view",
					"type": "function"
				},
				{
					"inputs": [],
					"name": "getToken",
					"outputs": [
						{
							"internalType": "contract IKIP7",
							"name": "",
							"type": "address"
						}
					],
					"stateMutability": "view",
					"type": "function"
				},
				{
					"inputs": [
						{
							"internalType": "address",
							"name": "_heroNFT",
							"type": "address"
						},
						{
							"internalType": "address",
							"name": "_token",
							"type": "address"
						},
						{
							"internalType": "address",
							"name": "_item",
							"type": "address"
						},
						{
							"internalType": "address",
							"name": "_depositAddress",
							"type": "address"
						},
						{
							"internalType": "address",
							"name": "_miningAddress",
							"type": "address"
						},
						{
							"internalType": "uint256",
							"name": "_klay",
							"type": "uint256"
						},
						{
							"internalType": "uint256",
							"name": "_tokenPrice",
							"type": "uint256"
						}
					],
					"name": "initialize",
					"outputs": [],
					"stateMutability": "nonpayable",
					"type": "function"
				},
				{
					"inputs": [],
					"name": "priceOfKlay",
					"outputs": [
						{
							"internalType": "uint256",
							"name": "",
							"type": "uint256"
						}
					],
					"stateMutability": "view",
					"type": "function"
				},
				{
					"inputs": [],
					"name": "priceOfToken",
					"outputs": [
						{
							"internalType": "uint256",
							"name": "",
							"type": "uint256"
						}
					],
					"stateMutability": "view",
					"type": "function"
				}
			],
			"devdoc": {
				"kind": "dev",
				"methods": {},
				"version": 1
			},
			"evm": {
				"assembly": "    /* \"Hero/utils/LevelDiagram.sol\":88:3421  contract LevelDiagram is HeroController {... */\n  mstore(0x40, 0x80)\n  callvalue\n  dup1\n  iszero\n  tag_1\n  jumpi\n  0x00\n  dup1\n  revert\ntag_1:\n  pop\n    /* \"Hero/utils/HeroController.sol\":863:867  true */\n  0x01\n    /* \"Hero/utils/HeroController.sol\":854:860  paused */\n  0x05\n  0x14\n    /* \"Hero/utils/HeroController.sol\":854:867  paused = true */\n  0x0100\n  exp\n  dup2\n  sload\n  dup2\n  0xff\n  mul\n  not\n  and\n  swap1\n  dup4\n  iszero\n  iszero\n  mul\n  or\n  swap1\n  sstore\n  pop\n    /* \"Hero/utils/HeroController.sol\":892:896  true */\n  0x01\n    /* \"Hero/utils/HeroController.sol\":877:889  miningPaused */\n  0x05\n  0x15\n    /* \"Hero/utils/HeroController.sol\":877:896  miningPaused = true */\n  0x0100\n  exp\n  dup2\n  sload\n  dup2\n  0xff\n  mul\n  not\n  and\n  swap1\n  dup4\n  iszero\n  iszero\n  mul\n  or\n  swap1\n  sstore\n  pop\n    /* \"Hero/utils/HeroController.sol\":926:936  msg.sender */\n  caller\n    /* \"Hero/utils/HeroController.sol\":906:915  coreOwner */\n  0x03\n  0x00\n    /* \"Hero/utils/HeroController.sol\":906:937  coreOwner = payable(msg.sender) */\n  0x0100\n  exp\n  dup2\n  sload\n  dup2\n  0xffffffffffffffffffffffffffffffffffffffff\n  mul\n  not\n  and\n  swap1\n  dup4\n  0xffffffffffffffffffffffffffffffffffffffff\n  and\n  mul\n  or\n  swap1\n  sstore\n  pop\n    /* \"Hero/utils/LevelDiagram.sol\":88:3421  contract LevelDiagram is HeroController {... */\n  dataSize(sub_0)\n  dup1\n  dataOffset(sub_0)\n  0x00\n  codecopy\n  0x00\n  return\nstop\n\nsub_0: assembly {\n        /* \"Hero/utils/LevelDiagram.sol\":88:3421  contract LevelDiagram is HeroController {... */\n      mstore(0x40, 0x80)\n      callvalue\n      dup1\n      iszero\n      tag_1\n      jumpi\n      0x00\n      dup1\n      revert\n    tag_1:\n      pop\n      jumpi(tag_2, lt(calldatasize, 0x04))\n      shr(0xe0, calldataload(0x00))\n      dup1\n      0x893d20e8\n      gt\n      tag_15\n      jumpi\n      dup1\n      0x893d20e8\n      eq\n      tag_9\n      jumpi\n      dup1\n      0x9eb4eae5\n      eq\n      tag_10\n      jumpi\n      dup1\n      0xaa93c0ee\n      eq\n      tag_11\n      jumpi\n      dup1\n      0xb33f9527\n      eq\n      tag_12\n      jumpi\n      dup1\n      0xc412eaba\n      eq\n      tag_13\n      jumpi\n      dup1\n      0xee72b8cc\n      eq\n      tag_14\n      jumpi\n      jump(tag_2)\n    tag_15:\n      dup1\n      0x1b9cbdfb\n      eq\n      tag_3\n      jumpi\n      dup1\n      0x21df0da7\n      eq\n      tag_4\n      jumpi\n      dup1\n      0x28919df6\n      eq\n      tag_5\n      jumpi\n      dup1\n      0x3a1a8080\n      eq\n      tag_6\n      jumpi\n      dup1\n      0x6805b84b\n      eq\n      tag_7\n      jumpi\n      dup1\n      0x7cac00ee\n      eq\n      tag_8\n      jumpi\n    tag_2:\n      0x00\n      dup1\n      revert\n        /* \"Hero/utils/HeroController.sol\":546:573  uint256 public priceOfToken */\n    tag_3:\n      tag_16\n      tag_17\n      jump\t// in\n    tag_16:\n      mload(0x40)\n      tag_18\n      swap2\n      swap1\n      tag_19\n      jump\t// in\n    tag_18:\n      mload(0x40)\n      dup1\n      swap2\n      sub\n      swap1\n      return\n        /* \"Hero/utils/HeroController.sol\":2055:2132  function getToken() public view returns (IKIP7) {... */\n    tag_4:\n      tag_20\n      tag_21\n      jump\t// in\n    tag_20:\n      mload(0x40)\n      tag_22\n      swap2\n      swap1\n      tag_23\n      jump\t// in\n    tag_22:\n      mload(0x40)\n      dup1\n      swap2\n      sub\n      swap1\n      return\n        /* \"Hero/utils/HeroController.sol\":1873:1963  function getMiningPaused() public view returns (bool) {... */\n    tag_5:\n      tag_24\n      tag_25\n      jump\t// in\n    tag_24:\n      mload(0x40)\n      tag_26\n      swap2\n      swap1\n      tag_27\n      jump\t// in\n    tag_26:\n      mload(0x40)\n      dup1\n      swap2\n      sub\n      swap1\n      return\n        /* \"Hero/utils/HeroController.sol\":514:540  uint256 public priceOfKlay */\n    tag_6:\n      tag_28\n      tag_29\n      jump\t// in\n    tag_28:\n      mload(0x40)\n      tag_30\n      swap2\n      swap1\n      tag_19\n      jump\t// in\n    tag_30:\n      mload(0x40)\n      dup1\n      swap2\n      sub\n      swap1\n      return\n        /* \"Hero/utils/HeroController.sol\":1789:1867  function getPaused() public view returns (bool) {... */\n    tag_7:\n      tag_31\n      tag_32\n      jump\t// in\n    tag_31:\n      mload(0x40)\n      tag_33\n      swap2\n      swap1\n      tag_27\n      jump\t// in\n    tag_33:\n      mload(0x40)\n      dup1\n      swap2\n      sub\n      swap1\n      return\n        /* \"Hero/utils/HeroController.sol\":2138:2222  function getHeroNFT() public view returns (IHeroNFT) {... */\n    tag_8:\n      tag_34\n      tag_35\n      jump\t// in\n    tag_34:\n      mload(0x40)\n      tag_36\n      swap2\n      swap1\n      tag_37\n      jump\t// in\n    tag_36:\n      mload(0x40)\n      dup1\n      swap2\n      sub\n      swap1\n      return\n        /* \"Hero/utils/HeroController.sol\":1692:1783  function getOwner() public view returns (address payable) {... */\n    tag_9:\n      tag_38\n      tag_39\n      jump\t// in\n    tag_38:\n      mload(0x40)\n      tag_40\n      swap2\n      swap1\n      tag_41\n      jump\t// in\n    tag_40:\n      mload(0x40)\n      dup1\n      swap2\n      sub\n      swap1\n      return\n        /* \"Hero/utils/HeroController.sol\":1478:1554  function changePaused() external onlyOwner {... */\n    tag_10:\n      tag_42\n      tag_43\n      jump\t// in\n    tag_42:\n      stop\n        /* \"Hero/utils/LevelDiagram.sol\":452:770  function calculateTokenAmount(string memory grade, uint256 level)... */\n    tag_11:\n      tag_44\n      0x04\n      dup1\n      calldatasize\n      sub\n      dup2\n      add\n      swap1\n      tag_45\n      swap2\n      swap1\n      tag_46\n      jump\t// in\n    tag_45:\n      tag_47\n      jump\t// in\n    tag_44:\n      mload(0x40)\n      tag_48\n      swap2\n      swap1\n      tag_19\n      jump\t// in\n    tag_48:\n      mload(0x40)\n      dup1\n      swap2\n      sub\n      swap1\n      return\n        /* \"Hero/utils/HeroController.sol\":950:1472  function initialize(... */\n    tag_12:\n      tag_49\n      0x04\n      dup1\n      calldatasize\n      sub\n      dup2\n      add\n      swap1\n      tag_50\n      swap2\n      swap1\n      tag_51\n      jump\t// in\n    tag_50:\n      tag_52\n      jump\t// in\n    tag_49:\n      stop\n        /* \"Hero/utils/HeroController.sol\":1969:2049  function getItem() public view returns (IKIP37Full) {... */\n    tag_13:\n      tag_53\n      tag_54\n      jump\t// in\n    tag_53:\n      mload(0x40)\n      tag_55\n      swap2\n      swap1\n      tag_56\n      jump\t// in\n    tag_55:\n      mload(0x40)\n      dup1\n      swap2\n      sub\n      swap1\n      return\n        /* \"Hero/utils/HeroController.sol\":1560:1654  function changeMiningPaused() external onlyOwner {... */\n    tag_14:\n      tag_57\n      tag_58\n      jump\t// in\n    tag_57:\n      stop\n        /* \"Hero/utils/HeroController.sol\":546:573  uint256 public priceOfToken */\n    tag_17:\n      sload(0x07)\n      dup2\n      jump\t// out\n        /* \"Hero/utils/HeroController.sol\":2055:2132  function getToken() public view returns (IKIP7) {... */\n    tag_21:\n        /* \"Hero/utils/HeroController.sol\":2096:2101  IKIP7 */\n      0x00\n        /* \"Hero/utils/HeroController.sol\":2120:2125  token */\n      0x01\n      0x00\n      swap1\n      sload\n      swap1\n      0x0100\n      exp\n      swap1\n      div\n      0xffffffffffffffffffffffffffffffffffffffff\n      and\n        /* \"Hero/utils/HeroController.sol\":2113:2125  return token */\n      swap1\n      pop\n        /* \"Hero/utils/HeroController.sol\":2055:2132  function getToken() public view returns (IKIP7) {... */\n      swap1\n      jump\t// out\n        /* \"Hero/utils/HeroController.sol\":1873:1963  function getMiningPaused() public view returns (bool) {... */\n    tag_25:\n        /* \"Hero/utils/HeroController.sol\":1921:1925  bool */\n      0x00\n        /* \"Hero/utils/HeroController.sol\":1944:1956  miningPaused */\n      0x05\n      0x15\n      swap1\n      sload\n      swap1\n      0x0100\n      exp\n      swap1\n      div\n      0xff\n      and\n        /* \"Hero/utils/HeroController.sol\":1937:1956  return miningPaused */\n      swap1\n      pop\n        /* \"Hero/utils/HeroController.sol\":1873:1963  function getMiningPaused() public view returns (bool) {... */\n      swap1\n      jump\t// out\n        /* \"Hero/utils/HeroController.sol\":514:540  uint256 public priceOfKlay */\n    tag_29:\n      sload(0x06)\n      dup2\n      jump\t// out\n        /* \"Hero/utils/HeroController.sol\":1789:1867  function getPaused() public view returns (bool) {... */\n    tag_32:\n        /* \"Hero/utils/HeroController.sol\":1831:1835  bool */\n      0x00\n        /* \"Hero/utils/HeroController.sol\":1854:1860  paused */\n      0x05\n      0x14\n      swap1\n      sload\n      swap1\n      0x0100\n      exp\n      swap1\n      div\n      0xff\n      and\n        /* \"Hero/utils/HeroController.sol\":1847:1860  return paused */\n      swap1\n      pop\n        /* \"Hero/utils/HeroController.sol\":1789:1867  function getPaused() public view returns (bool) {... */\n      swap1\n      jump\t// out\n        /* \"Hero/utils/HeroController.sol\":2138:2222  function getHeroNFT() public view returns (IHeroNFT) {... */\n    tag_35:\n        /* \"Hero/utils/HeroController.sol\":2181:2189  IHeroNFT */\n      0x00\n        /* \"Hero/utils/HeroController.sol\":2208:2215  heroNFT */\n      dup1\n      0x00\n      swap1\n      sload\n      swap1\n      0x0100\n      exp\n      swap1\n      div\n      0xffffffffffffffffffffffffffffffffffffffff\n      and\n        /* \"Hero/utils/HeroController.sol\":2201:2215  return heroNFT */\n      swap1\n      pop\n        /* \"Hero/utils/HeroController.sol\":2138:2222  function getHeroNFT() public view returns (IHeroNFT) {... */\n      swap1\n      jump\t// out\n        /* \"Hero/utils/HeroController.sol\":1692:1783  function getOwner() public view returns (address payable) {... */\n    tag_39:\n        /* \"Hero/utils/HeroController.sol\":1733:1748  address payable */\n      0x00\n        /* \"Hero/utils/HeroController.sol\":1767:1776  coreOwner */\n      0x03\n      0x00\n      swap1\n      sload\n      swap1\n      0x0100\n      exp\n      swap1\n      div\n      0xffffffffffffffffffffffffffffffffffffffff\n      and\n        /* \"Hero/utils/HeroController.sol\":1760:1776  return coreOwner */\n      swap1\n      pop\n        /* \"Hero/utils/HeroController.sol\":1692:1783  function getOwner() public view returns (address payable) {... */\n      swap1\n      jump\t// out\n        /* \"Hero/utils/HeroController.sol\":1478:1554  function changePaused() external onlyOwner {... */\n    tag_43:\n        /* \"Hero/utils/HeroController.sol\":766:775  coreOwner */\n      0x03\n      0x00\n      swap1\n      sload\n      swap1\n      0x0100\n      exp\n      swap1\n      div\n      0xffffffffffffffffffffffffffffffffffffffff\n      and\n        /* \"Hero/utils/HeroController.sol\":752:775  msg.sender == coreOwner */\n      0xffffffffffffffffffffffffffffffffffffffff\n      and\n        /* \"Hero/utils/HeroController.sol\":752:762  msg.sender */\n      caller\n        /* \"Hero/utils/HeroController.sol\":752:775  msg.sender == coreOwner */\n      0xffffffffffffffffffffffffffffffffffffffff\n      and\n      eq\n        /* \"Hero/utils/HeroController.sol\":744:806  require(msg.sender == coreOwner, \"HeroCore Error : onlyOwner\") */\n      tag_65\n      jumpi\n      mload(0x40)\n      0x08c379a000000000000000000000000000000000000000000000000000000000\n      dup2\n      mstore\n      0x04\n      add\n      tag_66\n      swap1\n      tag_67\n      jump\t// in\n    tag_66:\n      mload(0x40)\n      dup1\n      swap2\n      sub\n      swap1\n      revert\n    tag_65:\n        /* \"Hero/utils/HeroController.sol\":1541:1547  paused */\n      0x05\n      0x14\n      swap1\n      sload\n      swap1\n      0x0100\n      exp\n      swap1\n      div\n      0xff\n      and\n        /* \"Hero/utils/HeroController.sol\":1540:1547  !paused */\n      iszero\n        /* \"Hero/utils/HeroController.sol\":1531:1537  paused */\n      0x05\n      0x14\n        /* \"Hero/utils/HeroController.sol\":1531:1547  paused = !paused */\n      0x0100\n      exp\n      dup2\n      sload\n      dup2\n      0xff\n      mul\n      not\n      and\n      swap1\n      dup4\n      iszero\n      iszero\n      mul\n      or\n      swap1\n      sstore\n      pop\n        /* \"Hero/utils/HeroController.sol\":1478:1554  function changePaused() external onlyOwner {... */\n      jump\t// out\n        /* \"Hero/utils/LevelDiagram.sol\":452:770  function calculateTokenAmount(string memory grade, uint256 level)... */\n    tag_47:\n        /* \"Hero/utils/LevelDiagram.sol\":563:570  uint256 */\n      0x00\n        /* \"Hero/utils/LevelDiagram.sol\":586:605  uint256 gradeAmount */\n      dup1\n        /* \"Hero/utils/LevelDiagram.sol\":608:640  calculateBasicGradeAmount(grade) */\n      tag_70\n        /* \"Hero/utils/LevelDiagram.sol\":634:639  grade */\n      dup5\n        /* \"Hero/utils/LevelDiagram.sol\":608:633  calculateBasicGradeAmount */\n      tag_71\n        /* \"Hero/utils/LevelDiagram.sol\":608:640  calculateBasicGradeAmount(grade) */\n      jump\t// in\n    tag_70:\n        /* \"Hero/utils/LevelDiagram.sol\":586:640  uint256 gradeAmount = calculateBasicGradeAmount(grade) */\n      swap1\n      pop\n        /* \"Hero/utils/LevelDiagram.sol\":650:669  uint256 levelAmount */\n      0x00\n        /* \"Hero/utils/LevelDiagram.sol\":672:704  calculateBasicLevelAmount(level) */\n      tag_72\n        /* \"Hero/utils/LevelDiagram.sol\":698:703  level */\n      dup5\n        /* \"Hero/utils/LevelDiagram.sol\":672:697  calculateBasicLevelAmount */\n      tag_73\n        /* \"Hero/utils/LevelDiagram.sol\":672:704  calculateBasicLevelAmount(level) */\n      jump\t// in\n    tag_72:\n        /* \"Hero/utils/LevelDiagram.sol\":650:704  uint256 levelAmount = calculateBasicLevelAmount(level) */\n      swap1\n      pop\n        /* \"Hero/utils/LevelDiagram.sol\":759:763  1e18 */\n      0x0de0b6b3a7640000\n        /* \"Hero/utils/LevelDiagram.sol\":753:755  10 */\n      0x0a\n        /* \"Hero/utils/LevelDiagram.sol\":738:749  levelAmount */\n      dup3\n        /* \"Hero/utils/LevelDiagram.sol\":724:735  gradeAmount */\n      dup5\n        /* \"Hero/utils/LevelDiagram.sol\":724:749  gradeAmount * levelAmount */\n      tag_74\n      swap2\n      swap1\n      tag_75\n      jump\t// in\n    tag_74:\n        /* \"Hero/utils/LevelDiagram.sol\":723:755  (gradeAmount * levelAmount) / 10 */\n      tag_76\n      swap2\n      swap1\n      tag_77\n      jump\t// in\n    tag_76:\n        /* \"Hero/utils/LevelDiagram.sol\":722:763  ((gradeAmount * levelAmount) / 10) * 1e18 */\n      tag_78\n      swap2\n      swap1\n      tag_75\n      jump\t// in\n    tag_78:\n        /* \"Hero/utils/LevelDiagram.sol\":715:763  return ((gradeAmount * levelAmount) / 10) * 1e18 */\n      swap3\n      pop\n      pop\n      pop\n        /* \"Hero/utils/LevelDiagram.sol\":452:770  function calculateTokenAmount(string memory grade, uint256 level)... */\n      swap3\n      swap2\n      pop\n      pop\n      jump\t// out\n        /* \"Hero/utils/HeroController.sol\":950:1472  function initialize(... */\n    tag_52:\n        /* \"Hero/utils/HeroController.sol\":766:775  coreOwner */\n      0x03\n      0x00\n      swap1\n      sload\n      swap1\n      0x0100\n      exp\n      swap1\n      div\n      0xffffffffffffffffffffffffffffffffffffffff\n      and\n        /* \"Hero/utils/HeroController.sol\":752:775  msg.sender == coreOwner */\n      0xffffffffffffffffffffffffffffffffffffffff\n      and\n        /* \"Hero/utils/HeroController.sol\":752:762  msg.sender */\n      caller\n        /* \"Hero/utils/HeroController.sol\":752:775  msg.sender == coreOwner */\n      0xffffffffffffffffffffffffffffffffffffffff\n      and\n      eq\n        /* \"Hero/utils/HeroController.sol\":744:806  require(msg.sender == coreOwner, \"HeroCore Error : onlyOwner\") */\n      tag_80\n      jumpi\n      mload(0x40)\n      0x08c379a000000000000000000000000000000000000000000000000000000000\n      dup2\n      mstore\n      0x04\n      add\n      tag_81\n      swap1\n      tag_67\n      jump\t// in\n    tag_81:\n      mload(0x40)\n      dup1\n      swap2\n      sub\n      swap1\n      revert\n    tag_80:\n        /* \"Hero/utils/HeroController.sol\":1209:1228  _klay.mul(DECIMALS) */\n      tag_83\n        /* \"Hero/utils/HeroController.sol\":615:619  1e18 */\n      0x0de0b6b3a7640000\n        /* \"Hero/utils/HeroController.sol\":1209:1214  _klay */\n      dup4\n        /* \"Hero/utils/HeroController.sol\":1209:1218  _klay.mul */\n      tag_84\n      swap1\n        /* \"Hero/utils/HeroController.sol\":1209:1228  _klay.mul(DECIMALS) */\n      swap2\n      swap1\n      0xffffffff\n      and\n      jump\t// in\n    tag_83:\n        /* \"Hero/utils/HeroController.sol\":1195:1206  priceOfKlay */\n      0x06\n        /* \"Hero/utils/HeroController.sol\":1195:1228  priceOfKlay = _klay.mul(DECIMALS) */\n      dup2\n      swap1\n      sstore\n      pop\n        /* \"Hero/utils/HeroController.sol\":1253:1278  _tokenPrice.mul(DECIMALS) */\n      tag_85\n        /* \"Hero/utils/HeroController.sol\":615:619  1e18 */\n      0x0de0b6b3a7640000\n        /* \"Hero/utils/HeroController.sol\":1253:1264  _tokenPrice */\n      dup3\n        /* \"Hero/utils/HeroController.sol\":1253:1268  _tokenPrice.mul */\n      tag_84\n      swap1\n        /* \"Hero/utils/HeroController.sol\":1253:1278  _tokenPrice.mul(DECIMALS) */\n      swap2\n      swap1\n      0xffffffff\n      and\n      jump\t// in\n    tag_85:\n        /* \"Hero/utils/HeroController.sol\":1238:1250  priceOfToken */\n      0x07\n        /* \"Hero/utils/HeroController.sol\":1238:1278  priceOfToken = _tokenPrice.mul(DECIMALS) */\n      dup2\n      swap1\n      sstore\n      pop\n        /* \"Hero/utils/HeroController.sol\":1308:1316  _heroNFT */\n      dup7\n        /* \"Hero/utils/HeroController.sol\":1289:1296  heroNFT */\n      0x00\n      dup1\n        /* \"Hero/utils/HeroController.sol\":1289:1317  heroNFT = IHeroNFT(_heroNFT) */\n      0x0100\n      exp\n      dup2\n      sload\n      dup2\n      0xffffffffffffffffffffffffffffffffffffffff\n      mul\n      not\n      and\n      swap1\n      dup4\n      0xffffffffffffffffffffffffffffffffffffffff\n      and\n      mul\n      or\n      swap1\n      sstore\n      pop\n        /* \"Hero/utils/HeroController.sol\":1341:1347  _token */\n      dup6\n        /* \"Hero/utils/HeroController.sol\":1327:1332  token */\n      0x01\n      0x00\n        /* \"Hero/utils/HeroController.sol\":1327:1348  token = IKIP7(_token) */\n      0x0100\n      exp\n      dup2\n      sload\n      dup2\n      0xffffffffffffffffffffffffffffffffffffffff\n      mul\n      not\n      and\n      swap1\n      dup4\n      0xffffffffffffffffffffffffffffffffffffffff\n      and\n      mul\n      or\n      swap1\n      sstore\n      pop\n        /* \"Hero/utils/HeroController.sol\":1376:1381  _item */\n      dup5\n        /* \"Hero/utils/HeroController.sol\":1358:1362  item */\n      0x02\n      0x00\n        /* \"Hero/utils/HeroController.sol\":1358:1382  item = IKIP37Full(_item) */\n      0x0100\n      exp\n      dup2\n      sload\n      dup2\n      0xffffffffffffffffffffffffffffffffffffffff\n      mul\n      not\n      and\n      swap1\n      dup4\n      0xffffffffffffffffffffffffffffffffffffffff\n      and\n      mul\n      or\n      swap1\n      sstore\n      pop\n        /* \"Hero/utils/HeroController.sol\":1410:1425  _depositAddress */\n      dup4\n        /* \"Hero/utils/HeroController.sol\":1393:1407  depositAddress */\n      0x04\n      0x00\n        /* \"Hero/utils/HeroController.sol\":1393:1425  depositAddress = _depositAddress */\n      0x0100\n      exp\n      dup2\n      sload\n      dup2\n      0xffffffffffffffffffffffffffffffffffffffff\n      mul\n      not\n      and\n      swap1\n      dup4\n      0xffffffffffffffffffffffffffffffffffffffff\n      and\n      mul\n      or\n      swap1\n      sstore\n      pop\n        /* \"Hero/utils/HeroController.sol\":1451:1465  _miningAddress */\n      dup3\n        /* \"Hero/utils/HeroController.sol\":1435:1448  miningAddress */\n      0x05\n      0x00\n        /* \"Hero/utils/HeroController.sol\":1435:1465  miningAddress = _miningAddress */\n      0x0100\n      exp\n      dup2\n      sload\n      dup2\n      0xffffffffffffffffffffffffffffffffffffffff\n      mul\n      not\n      and\n      swap1\n      dup4\n      0xffffffffffffffffffffffffffffffffffffffff\n      and\n      mul\n      or\n      swap1\n      sstore\n      pop\n        /* \"Hero/utils/HeroController.sol\":950:1472  function initialize(... */\n      pop\n      pop\n      pop\n      pop\n      pop\n      pop\n      pop\n      jump\t// out\n        /* \"Hero/utils/HeroController.sol\":1969:2049  function getItem() public view returns (IKIP37Full) {... */\n    tag_54:\n        /* \"Hero/utils/HeroController.sol\":2009:2019  IKIP37Full */\n      0x00\n        /* \"Hero/utils/HeroController.sol\":2038:2042  item */\n      0x02\n      0x00\n      swap1\n      sload\n      swap1\n      0x0100\n      exp\n      swap1\n      div\n      0xffffffffffffffffffffffffffffffffffffffff\n      and\n        /* \"Hero/utils/HeroController.sol\":2031:2042  return item */\n      swap1\n      pop\n        /* \"Hero/utils/HeroController.sol\":1969:2049  function getItem() public view returns (IKIP37Full) {... */\n      swap1\n      jump\t// out\n        /* \"Hero/utils/HeroController.sol\":1560:1654  function changeMiningPaused() external onlyOwner {... */\n    tag_58:\n        /* \"Hero/utils/HeroController.sol\":766:775  coreOwner */\n      0x03\n      0x00\n      swap1\n      sload\n      swap1\n      0x0100\n      exp\n      swap1\n      div\n      0xffffffffffffffffffffffffffffffffffffffff\n      and\n        /* \"Hero/utils/HeroController.sol\":752:775  msg.sender == coreOwner */\n      0xffffffffffffffffffffffffffffffffffffffff\n      and\n        /* \"Hero/utils/HeroController.sol\":752:762  msg.sender */\n      caller\n        /* \"Hero/utils/HeroController.sol\":752:775  msg.sender == coreOwner */\n      0xffffffffffffffffffffffffffffffffffffffff\n      and\n      eq\n        /* \"Hero/utils/HeroController.sol\":744:806  require(msg.sender == coreOwner, \"HeroCore Error : onlyOwner\") */\n      tag_88\n      jumpi\n      mload(0x40)\n      0x08c379a000000000000000000000000000000000000000000000000000000000\n      dup2\n      mstore\n      0x04\n      add\n      tag_89\n      swap1\n      tag_67\n      jump\t// in\n    tag_89:\n      mload(0x40)\n      dup1\n      swap2\n      sub\n      swap1\n      revert\n    tag_88:\n        /* \"Hero/utils/HeroController.sol\":1635:1647  miningPaused */\n      0x05\n      0x15\n      swap1\n      sload\n      swap1\n      0x0100\n      exp\n      swap1\n      div\n      0xff\n      and\n        /* \"Hero/utils/HeroController.sol\":1634:1647  !miningPaused */\n      iszero\n        /* \"Hero/utils/HeroController.sol\":1619:1631  miningPaused */\n      0x05\n      0x15\n        /* \"Hero/utils/HeroController.sol\":1619:1647  miningPaused = !miningPaused */\n      0x0100\n      exp\n      dup2\n      sload\n      dup2\n      0xff\n      mul\n      not\n      and\n      swap1\n      dup4\n      iszero\n      iszero\n      mul\n      or\n      swap1\n      sstore\n      pop\n        /* \"Hero/utils/HeroController.sol\":1560:1654  function changeMiningPaused() external onlyOwner {... */\n      jump\t// out\n        /* \"Hero/utils/LevelDiagram.sol\":1045:1549  function calculateBasicGradeAmount(string memory grade)... */\n    tag_71:\n        /* \"Hero/utils/LevelDiagram.sol\":1148:1155  uint256 */\n      0x00\n        /* \"Hero/utils/LevelDiagram.sol\":1171:1189  bytes32 gradeCheck */\n      dup1\n        /* \"Hero/utils/LevelDiagram.sol\":1208:1213  grade */\n      dup3\n        /* \"Hero/utils/LevelDiagram.sol\":1192:1215  keccak256(bytes(grade)) */\n      dup1\n      mload\n      swap1\n      0x20\n      add\n      keccak256\n        /* \"Hero/utils/LevelDiagram.sol\":1171:1215  bytes32 gradeCheck = keccak256(bytes(grade)) */\n      swap1\n      pop\n        /* \"Hero/utils/LevelDiagram.sol\":171:193  keccak256(\"Mythology\") */\n      0x8c57226533ec41d2857120df9ace6dff88130d9b32385e09c9828f75027730f3\n        /* \"Hero/utils/LevelDiagram.sol\":1247:1257  gradeCheck */\n      dup2\n        /* \"Hero/utils/LevelDiagram.sol\":1247:1270  gradeCheck == MYTHOLOGY */\n      eq\n        /* \"Hero/utils/LevelDiagram.sol\":1247:1532  gradeCheck == MYTHOLOGY ? 675 : gradeCheck == LEGENDARY... */\n      tag_92\n      jumpi\n        /* \"Hero/utils/LevelDiagram.sol\":236:258  keccak256(\"Legendary\") */\n      0x181ebe3a8fa130246d49bfd123ac54849b05bdcd02c6b1322c78de2a3988a310\n        /* \"Hero/utils/LevelDiagram.sol\":1279:1289  gradeCheck */\n      dup2\n        /* \"Hero/utils/LevelDiagram.sol\":1279:1302  gradeCheck == LEGENDARY */\n      eq\n        /* \"Hero/utils/LevelDiagram.sol\":1279:1532  gradeCheck == LEGENDARY... */\n      tag_93\n      jumpi\n        /* \"Hero/utils/LevelDiagram.sol\":296:313  keccak256(\"Epic\") */\n      0x6764d804d57285ae9d4c42cc380377d3d0ee9b90ff9eeccaa32d3b2e3e8d7f17\n        /* \"Hero/utils/LevelDiagram.sol\":1343:1353  gradeCheck */\n      dup2\n        /* \"Hero/utils/LevelDiagram.sol\":1343:1361  gradeCheck == EPIC */\n      eq\n        /* \"Hero/utils/LevelDiagram.sol\":1343:1532  gradeCheck == EPIC... */\n      tag_94\n      jumpi\n        /* \"Hero/utils/LevelDiagram.sol\":360:386  keccak256(\"Administrator\") */\n      0xb2c1aaaf9f516585466c9876e2eaf06ee68751aad537b2a6fa22f473d03b58eb\n        /* \"Hero/utils/LevelDiagram.sol\":1402:1412  gradeCheck */\n      dup2\n        /* \"Hero/utils/LevelDiagram.sol\":1402:1429  gradeCheck == ADMINISTRATOR */\n      eq\n        /* \"Hero/utils/LevelDiagram.sol\":1402:1532  gradeCheck == ADMINISTRATOR... */\n      tag_95\n      jumpi\n        /* \"Hero/utils/LevelDiagram.sol\":426:445  keccak256(\"Normal\") */\n      0xb5333297a8bd10e190cb97fb1ee0f49587c8b2e015370e943c69fd680dabc6bd\n        /* \"Hero/utils/LevelDiagram.sol\":1470:1480  gradeCheck */\n      dup2\n        /* \"Hero/utils/LevelDiagram.sol\":1470:1490  gradeCheck == NORMAL */\n      eq\n        /* \"Hero/utils/LevelDiagram.sol\":1470:1532  gradeCheck == NORMAL... */\n      tag_96\n      jumpi\n        /* \"Hero/utils/LevelDiagram.sol\":1531:1532  0 */\n      0x00\n        /* \"Hero/utils/LevelDiagram.sol\":1470:1532  gradeCheck == NORMAL... */\n      jump(tag_97)\n    tag_96:\n        /* \"Hero/utils/LevelDiagram.sol\":1509:1512  200 */\n      0xc8\n        /* \"Hero/utils/LevelDiagram.sol\":1470:1532  gradeCheck == NORMAL... */\n    tag_97:\n        /* \"Hero/utils/LevelDiagram.sol\":1402:1532  gradeCheck == ADMINISTRATOR... */\n      jump(tag_98)\n    tag_95:\n        /* \"Hero/utils/LevelDiagram.sol\":1448:1451  225 */\n      0xe1\n        /* \"Hero/utils/LevelDiagram.sol\":1402:1532  gradeCheck == ADMINISTRATOR... */\n    tag_98:\n        /* \"Hero/utils/LevelDiagram.sol\":1343:1532  gradeCheck == EPIC... */\n      0xff\n      and\n      jump(tag_99)\n    tag_94:\n        /* \"Hero/utils/LevelDiagram.sol\":1380:1383  300 */\n      0x012c\n        /* \"Hero/utils/LevelDiagram.sol\":1343:1532  gradeCheck == EPIC... */\n    tag_99:\n        /* \"Hero/utils/LevelDiagram.sol\":1279:1532  gradeCheck == LEGENDARY... */\n      jump(tag_100)\n    tag_93:\n        /* \"Hero/utils/LevelDiagram.sol\":1321:1324  450 */\n      0x01c2\n        /* \"Hero/utils/LevelDiagram.sol\":1279:1532  gradeCheck == LEGENDARY... */\n    tag_100:\n        /* \"Hero/utils/LevelDiagram.sol\":1247:1532  gradeCheck == MYTHOLOGY ? 675 : gradeCheck == LEGENDARY... */\n      jump(tag_101)\n    tag_92:\n        /* \"Hero/utils/LevelDiagram.sol\":1273:1276  675 */\n      0x02a3\n        /* \"Hero/utils/LevelDiagram.sol\":1247:1532  gradeCheck == MYTHOLOGY ? 675 : gradeCheck == LEGENDARY... */\n    tag_101:\n        /* \"Hero/utils/LevelDiagram.sol\":1226:1542  return (... */\n      0xffff\n      and\n      swap2\n      pop\n      pop\n        /* \"Hero/utils/LevelDiagram.sol\":1045:1549  function calculateBasicGradeAmount(string memory grade)... */\n      swap2\n      swap1\n      pop\n      jump\t// out\n        /* \"Hero/utils/LevelDiagram.sol\":776:1039  function calculateBasicLevelAmount(uint256 level)... */\n    tag_73:\n        /* \"Hero/utils/LevelDiagram.sol\":873:880  uint256 */\n      0x00\n        /* \"Hero/utils/LevelDiagram.sol\":926:927  1 */\n      0x01\n        /* \"Hero/utils/LevelDiagram.sol\":917:922  level */\n      dup3\n        /* \"Hero/utils/LevelDiagram.sol\":917:927  level == 1 */\n      eq\n        /* \"Hero/utils/LevelDiagram.sol\":917:1022  level == 1 ? 15 : level == 2 ? 22 : level == 3 ? 42 : level == 4... */\n      tag_103\n      jumpi\n        /* \"Hero/utils/LevelDiagram.sol\":944:945  2 */\n      0x02\n        /* \"Hero/utils/LevelDiagram.sol\":935:940  level */\n      dup3\n        /* \"Hero/utils/LevelDiagram.sol\":935:945  level == 2 */\n      eq\n        /* \"Hero/utils/LevelDiagram.sol\":935:1022  level == 2 ? 22 : level == 3 ? 42 : level == 4... */\n      tag_104\n      jumpi\n        /* \"Hero/utils/LevelDiagram.sol\":962:963  3 */\n      0x03\n        /* \"Hero/utils/LevelDiagram.sol\":953:958  level */\n      dup3\n        /* \"Hero/utils/LevelDiagram.sol\":953:963  level == 3 */\n      eq\n        /* \"Hero/utils/LevelDiagram.sol\":953:1022  level == 3 ? 42 : level == 4... */\n      tag_105\n      jumpi\n        /* \"Hero/utils/LevelDiagram.sol\":980:981  4 */\n      0x04\n        /* \"Hero/utils/LevelDiagram.sol\":971:976  level */\n      dup3\n        /* \"Hero/utils/LevelDiagram.sol\":971:981  level == 4 */\n      eq\n        /* \"Hero/utils/LevelDiagram.sol\":971:1022  level == 4... */\n      tag_106\n      jumpi\n        /* \"Hero/utils/LevelDiagram.sol\":1021:1022  0 */\n      0x00\n        /* \"Hero/utils/LevelDiagram.sol\":971:1022  level == 4... */\n      jump(tag_107)\n    tag_106:\n        /* \"Hero/utils/LevelDiagram.sol\":1000:1002  80 */\n      0x50\n        /* \"Hero/utils/LevelDiagram.sol\":971:1022  level == 4... */\n    tag_107:\n        /* \"Hero/utils/LevelDiagram.sol\":953:1022  level == 3 ? 42 : level == 4... */\n      jump(tag_108)\n    tag_105:\n        /* \"Hero/utils/LevelDiagram.sol\":966:968  42 */\n      0x2a\n        /* \"Hero/utils/LevelDiagram.sol\":953:1022  level == 3 ? 42 : level == 4... */\n    tag_108:\n        /* \"Hero/utils/LevelDiagram.sol\":935:1022  level == 2 ? 22 : level == 3 ? 42 : level == 4... */\n      jump(tag_109)\n    tag_104:\n        /* \"Hero/utils/LevelDiagram.sol\":948:950  22 */\n      0x16\n        /* \"Hero/utils/LevelDiagram.sol\":935:1022  level == 2 ? 22 : level == 3 ? 42 : level == 4... */\n    tag_109:\n        /* \"Hero/utils/LevelDiagram.sol\":917:1022  level == 1 ? 15 : level == 2 ? 22 : level == 3 ? 42 : level == 4... */\n      jump(tag_110)\n    tag_103:\n        /* \"Hero/utils/LevelDiagram.sol\":930:932  15 */\n      0x0f\n        /* \"Hero/utils/LevelDiagram.sol\":917:1022  level == 1 ? 15 : level == 2 ? 22 : level == 3 ? 42 : level == 4... */\n    tag_110:\n        /* \"Hero/utils/LevelDiagram.sol\":896:1032  return (... */\n      0xff\n      and\n      swap1\n      pop\n        /* \"Hero/utils/LevelDiagram.sol\":776:1039  function calculateBasicLevelAmount(uint256 level)... */\n      swap2\n      swap1\n      pop\n      jump\t// out\n        /* \"utils/SafeMath.sol\":283:379  function mul(uint256 a, uint256 b) internal pure returns (uint256) {... */\n    tag_84:\n        /* \"utils/SafeMath.sol\":341:348  uint256 */\n      0x00\n        /* \"utils/SafeMath.sol\":371:372  b */\n      dup2\n        /* \"utils/SafeMath.sol\":367:368  a */\n      dup4\n        /* \"utils/SafeMath.sol\":367:372  a * b */\n      tag_112\n      swap2\n      swap1\n      tag_75\n      jump\t// in\n    tag_112:\n        /* \"utils/SafeMath.sol\":360:372  return a * b */\n      swap1\n      pop\n        /* \"utils/SafeMath.sol\":283:379  function mul(uint256 a, uint256 b) internal pure returns (uint256) {... */\n      swap3\n      swap2\n      pop\n      pop\n      jump\t// out\n        /* \"#utility.yul\":7:352   */\n    tag_114:\n        /* \"#utility.yul\":85:90   */\n      0x00\n        /* \"#utility.yul\":110:176   */\n      tag_116\n        /* \"#utility.yul\":126:175   */\n      tag_117\n        /* \"#utility.yul\":168:174   */\n      dup5\n        /* \"#utility.yul\":126:175   */\n      tag_118\n      jump\t// in\n    tag_117:\n        /* \"#utility.yul\":110:176   */\n      tag_119\n      jump\t// in\n    tag_116:\n        /* \"#utility.yul\":101:176   */\n      swap1\n      pop\n        /* \"#utility.yul\":199:205   */\n      dup3\n        /* \"#utility.yul\":192:197   */\n      dup2\n        /* \"#utility.yul\":185:206   */\n      mstore\n        /* \"#utility.yul\":237:241   */\n      0x20\n        /* \"#utility.yul\":230:235   */\n      dup2\n        /* \"#utility.yul\":226:242   */\n      add\n        /* \"#utility.yul\":275:278   */\n      dup5\n        /* \"#utility.yul\":266:272   */\n      dup5\n        /* \"#utility.yul\":261:264   */\n      dup5\n        /* \"#utility.yul\":257:273   */\n      add\n        /* \"#utility.yul\":254:279   */\n      gt\n        /* \"#utility.yul\":251:253   */\n      iszero\n      tag_120\n      jumpi\n        /* \"#utility.yul\":292:293   */\n      0x00\n        /* \"#utility.yul\":289:290   */\n      dup1\n        /* \"#utility.yul\":282:294   */\n      revert\n        /* \"#utility.yul\":251:253   */\n    tag_120:\n        /* \"#utility.yul\":305:346   */\n      tag_121\n        /* \"#utility.yul\":339:345   */\n      dup5\n        /* \"#utility.yul\":334:337   */\n      dup3\n        /* \"#utility.yul\":329:332   */\n      dup6\n        /* \"#utility.yul\":305:346   */\n      tag_122\n      jump\t// in\n    tag_121:\n        /* \"#utility.yul\":91:352   */\n      pop\n      swap4\n      swap3\n      pop\n      pop\n      pop\n      jump\t// out\n        /* \"#utility.yul\":358:497   */\n    tag_123:\n        /* \"#utility.yul\":404:409   */\n      0x00\n        /* \"#utility.yul\":442:448   */\n      dup2\n        /* \"#utility.yul\":429:449   */\n      calldataload\n        /* \"#utility.yul\":420:449   */\n      swap1\n      pop\n        /* \"#utility.yul\":458:491   */\n      tag_125\n        /* \"#utility.yul\":485:490   */\n      dup2\n        /* \"#utility.yul\":458:491   */\n      tag_126\n      jump\t// in\n    tag_125:\n        /* \"#utility.yul\":410:497   */\n      swap3\n      swap2\n      pop\n      pop\n      jump\t// out\n        /* \"#utility.yul\":517:790   */\n    tag_127:\n        /* \"#utility.yul\":573:578   */\n      0x00\n        /* \"#utility.yul\":622:625   */\n      dup3\n        /* \"#utility.yul\":615:619   */\n      0x1f\n        /* \"#utility.yul\":607:613   */\n      dup4\n        /* \"#utility.yul\":603:620   */\n      add\n        /* \"#utility.yul\":599:626   */\n      slt\n        /* \"#utility.yul\":589:591   */\n      tag_129\n      jumpi\n        /* \"#utility.yul\":640:641   */\n      0x00\n        /* \"#utility.yul\":637:638   */\n      dup1\n        /* \"#utility.yul\":630:642   */\n      revert\n        /* \"#utility.yul\":589:591   */\n    tag_129:\n        /* \"#utility.yul\":680:686   */\n      dup2\n        /* \"#utility.yul\":667:687   */\n      calldataload\n        /* \"#utility.yul\":705:784   */\n      tag_130\n        /* \"#utility.yul\":780:783   */\n      dup5\n        /* \"#utility.yul\":772:778   */\n      dup3\n        /* \"#utility.yul\":765:769   */\n      0x20\n        /* \"#utility.yul\":757:763   */\n      dup7\n        /* \"#utility.yul\":753:770   */\n      add\n        /* \"#utility.yul\":705:784   */\n      tag_114\n      jump\t// in\n    tag_130:\n        /* \"#utility.yul\":696:784   */\n      swap2\n      pop\n        /* \"#utility.yul\":579:790   */\n      pop\n      swap3\n      swap2\n      pop\n      pop\n      jump\t// out\n        /* \"#utility.yul\":796:935   */\n    tag_131:\n        /* \"#utility.yul\":842:847   */\n      0x00\n        /* \"#utility.yul\":880:886   */\n      dup2\n        /* \"#utility.yul\":867:887   */\n      calldataload\n        /* \"#utility.yul\":858:887   */\n      swap1\n      pop\n        /* \"#utility.yul\":896:929   */\n      tag_133\n        /* \"#utility.yul\":923:928   */\n      dup2\n        /* \"#utility.yul\":896:929   */\n      tag_134\n      jump\t// in\n    tag_133:\n        /* \"#utility.yul\":848:935   */\n      swap3\n      swap2\n      pop\n      pop\n      jump\t// out\n        /* \"#utility.yul\":941:2077   */\n    tag_51:\n        /* \"#utility.yul\":1054:1060   */\n      0x00\n        /* \"#utility.yul\":1062:1068   */\n      dup1\n        /* \"#utility.yul\":1070:1076   */\n      0x00\n        /* \"#utility.yul\":1078:1084   */\n      dup1\n        /* \"#utility.yul\":1086:1092   */\n      0x00\n        /* \"#utility.yul\":1094:1100   */\n      dup1\n        /* \"#utility.yul\":1102:1108   */\n      0x00\n        /* \"#utility.yul\":1151:1154   */\n      0xe0\n        /* \"#utility.yul\":1139:1148   */\n      dup9\n        /* \"#utility.yul\":1130:1137   */\n      dup11\n        /* \"#utility.yul\":1126:1149   */\n      sub\n        /* \"#utility.yul\":1122:1155   */\n      slt\n        /* \"#utility.yul\":1119:1121   */\n      iszero\n      tag_136\n      jumpi\n        /* \"#utility.yul\":1168:1169   */\n      0x00\n        /* \"#utility.yul\":1165:1166   */\n      dup1\n        /* \"#utility.yul\":1158:1170   */\n      revert\n        /* \"#utility.yul\":1119:1121   */\n    tag_136:\n        /* \"#utility.yul\":1211:1212   */\n      0x00\n        /* \"#utility.yul\":1236:1289   */\n      tag_137\n        /* \"#utility.yul\":1281:1288   */\n      dup11\n        /* \"#utility.yul\":1272:1278   */\n      dup3\n        /* \"#utility.yul\":1261:1270   */\n      dup12\n        /* \"#utility.yul\":1257:1279   */\n      add\n        /* \"#utility.yul\":1236:1289   */\n      tag_123\n      jump\t// in\n    tag_137:\n        /* \"#utility.yul\":1226:1289   */\n      swap8\n      pop\n        /* \"#utility.yul\":1182:1299   */\n      pop\n        /* \"#utility.yul\":1338:1340   */\n      0x20\n        /* \"#utility.yul\":1364:1417   */\n      tag_138\n        /* \"#utility.yul\":1409:1416   */\n      dup11\n        /* \"#utility.yul\":1400:1406   */\n      dup3\n        /* \"#utility.yul\":1389:1398   */\n      dup12\n        /* \"#utility.yul\":1385:1407   */\n      add\n        /* \"#utility.yul\":1364:1417   */\n      tag_123\n      jump\t// in\n    tag_138:\n        /* \"#utility.yul\":1354:1417   */\n      swap7\n      pop\n        /* \"#utility.yul\":1309:1427   */\n      pop\n        /* \"#utility.yul\":1466:1468   */\n      0x40\n        /* \"#utility.yul\":1492:1545   */\n      tag_139\n        /* \"#utility.yul\":1537:1544   */\n      dup11\n        /* \"#utility.yul\":1528:1534   */\n      dup3\n        /* \"#utility.yul\":1517:1526   */\n      dup12\n        /* \"#utility.yul\":1513:1535   */\n      add\n        /* \"#utility.yul\":1492:1545   */\n      tag_123\n      jump\t// in\n    tag_139:\n        /* \"#utility.yul\":1482:1545   */\n      swap6\n      pop\n        /* \"#utility.yul\":1437:1555   */\n      pop\n        /* \"#utility.yul\":1594:1596   */\n      0x60\n        /* \"#utility.yul\":1620:1673   */\n      tag_140\n        /* \"#utility.yul\":1665:1672   */\n      dup11\n        /* \"#utility.yul\":1656:1662   */\n      dup3\n        /* \"#utility.yul\":1645:1654   */\n      dup12\n        /* \"#utility.yul\":1641:1663   */\n      add\n        /* \"#utility.yul\":1620:1673   */\n      tag_123\n      jump\t// in\n    tag_140:\n        /* \"#utility.yul\":1610:1673   */\n      swap5\n      pop\n        /* \"#utility.yul\":1565:1683   */\n      pop\n        /* \"#utility.yul\":1722:1725   */\n      0x80\n        /* \"#utility.yul\":1749:1802   */\n      tag_141\n        /* \"#utility.yul\":1794:1801   */\n      dup11\n        /* \"#utility.yul\":1785:1791   */\n      dup3\n        /* \"#utility.yul\":1774:1783   */\n      dup12\n        /* \"#utility.yul\":1770:1792   */\n      add\n        /* \"#utility.yul\":1749:1802   */\n      tag_123\n      jump\t// in\n    tag_141:\n        /* \"#utility.yul\":1739:1802   */\n      swap4\n      pop\n        /* \"#utility.yul\":1693:1812   */\n      pop\n        /* \"#utility.yul\":1851:1854   */\n      0xa0\n        /* \"#utility.yul\":1878:1931   */\n      tag_142\n        /* \"#utility.yul\":1923:1930   */\n      dup11\n        /* \"#utility.yul\":1914:1920   */\n      dup3\n        /* \"#utility.yul\":1903:1912   */\n      dup12\n        /* \"#utility.yul\":1899:1921   */\n      add\n        /* \"#utility.yul\":1878:1931   */\n      tag_131\n      jump\t// in\n    tag_142:\n        /* \"#utility.yul\":1868:1931   */\n      swap3\n      pop\n        /* \"#utility.yul\":1822:1941   */\n      pop\n        /* \"#utility.yul\":1980:1983   */\n      0xc0\n        /* \"#utility.yul\":2007:2060   */\n      tag_143\n        /* \"#utility.yul\":2052:2059   */\n      dup11\n        /* \"#utility.yul\":2043:2049   */\n      dup3\n        /* \"#utility.yul\":2032:2041   */\n      dup12\n        /* \"#utility.yul\":2028:2050   */\n      add\n        /* \"#utility.yul\":2007:2060   */\n      tag_131\n      jump\t// in\n    tag_143:\n        /* \"#utility.yul\":1997:2060   */\n      swap2\n      pop\n        /* \"#utility.yul\":1951:2070   */\n      pop\n        /* \"#utility.yul\":1109:2077   */\n      swap3\n      swap6\n      swap9\n      swap2\n      swap5\n      swap8\n      pop\n      swap3\n      swap6\n      pop\n      jump\t// out\n        /* \"#utility.yul\":2083:2603   */\n    tag_46:\n        /* \"#utility.yul\":2161:2167   */\n      0x00\n        /* \"#utility.yul\":2169:2175   */\n      dup1\n        /* \"#utility.yul\":2218:2220   */\n      0x40\n        /* \"#utility.yul\":2206:2215   */\n      dup4\n        /* \"#utility.yul\":2197:2204   */\n      dup6\n        /* \"#utility.yul\":2193:2216   */\n      sub\n        /* \"#utility.yul\":2189:2221   */\n      slt\n        /* \"#utility.yul\":2186:2188   */\n      iszero\n      tag_145\n      jumpi\n        /* \"#utility.yul\":2234:2235   */\n      0x00\n        /* \"#utility.yul\":2231:2232   */\n      dup1\n        /* \"#utility.yul\":2224:2236   */\n      revert\n        /* \"#utility.yul\":2186:2188   */\n    tag_145:\n        /* \"#utility.yul\":2305:2306   */\n      0x00\n        /* \"#utility.yul\":2294:2303   */\n      dup4\n        /* \"#utility.yul\":2290:2307   */\n      add\n        /* \"#utility.yul\":2277:2308   */\n      calldataload\n        /* \"#utility.yul\":2335:2353   */\n      0xffffffffffffffff\n        /* \"#utility.yul\":2327:2333   */\n      dup2\n        /* \"#utility.yul\":2324:2354   */\n      gt\n        /* \"#utility.yul\":2321:2323   */\n      iszero\n      tag_146\n      jumpi\n        /* \"#utility.yul\":2367:2368   */\n      0x00\n        /* \"#utility.yul\":2364:2365   */\n      dup1\n        /* \"#utility.yul\":2357:2369   */\n      revert\n        /* \"#utility.yul\":2321:2323   */\n    tag_146:\n        /* \"#utility.yul\":2395:2458   */\n      tag_147\n        /* \"#utility.yul\":2450:2457   */\n      dup6\n        /* \"#utility.yul\":2441:2447   */\n      dup3\n        /* \"#utility.yul\":2430:2439   */\n      dup7\n        /* \"#utility.yul\":2426:2448   */\n      add\n        /* \"#utility.yul\":2395:2458   */\n      tag_127\n      jump\t// in\n    tag_147:\n        /* \"#utility.yul\":2385:2458   */\n      swap3\n      pop\n        /* \"#utility.yul\":2248:2468   */\n      pop\n        /* \"#utility.yul\":2507:2509   */\n      0x20\n        /* \"#utility.yul\":2533:2586   */\n      tag_148\n        /* \"#utility.yul\":2578:2585   */\n      dup6\n        /* \"#utility.yul\":2569:2575   */\n      dup3\n        /* \"#utility.yul\":2558:2567   */\n      dup7\n        /* \"#utility.yul\":2554:2576   */\n      add\n        /* \"#utility.yul\":2533:2586   */\n      tag_131\n      jump\t// in\n    tag_148:\n        /* \"#utility.yul\":2523:2586   */\n      swap2\n      pop\n        /* \"#utility.yul\":2478:2596   */\n      pop\n        /* \"#utility.yul\":2176:2603   */\n      swap3\n      pop\n      swap3\n      swap1\n      pop\n      jump\t// out\n        /* \"#utility.yul\":2609:2751   */\n    tag_149:\n        /* \"#utility.yul\":2712:2744   */\n      tag_151\n        /* \"#utility.yul\":2738:2743   */\n      dup2\n        /* \"#utility.yul\":2712:2744   */\n      tag_152\n      jump\t// in\n    tag_151:\n        /* \"#utility.yul\":2707:2710   */\n      dup3\n        /* \"#utility.yul\":2700:2745   */\n      mstore\n        /* \"#utility.yul\":2690:2751   */\n      pop\n      pop\n      jump\t// out\n        /* \"#utility.yul\":2757:2866   */\n    tag_153:\n        /* \"#utility.yul\":2838:2859   */\n      tag_155\n        /* \"#utility.yul\":2853:2858   */\n      dup2\n        /* \"#utility.yul\":2838:2859   */\n      tag_156\n      jump\t// in\n    tag_155:\n        /* \"#utility.yul\":2833:2836   */\n      dup3\n        /* \"#utility.yul\":2826:2860   */\n      mstore\n        /* \"#utility.yul\":2816:2866   */\n      pop\n      pop\n      jump\t// out\n        /* \"#utility.yul\":2872:3033   */\n    tag_157:\n        /* \"#utility.yul\":2974:3026   */\n      tag_159\n        /* \"#utility.yul\":3020:3025   */\n      dup2\n        /* \"#utility.yul\":2974:3026   */\n      tag_160\n      jump\t// in\n    tag_159:\n        /* \"#utility.yul\":2969:2972   */\n      dup3\n        /* \"#utility.yul\":2962:3027   */\n      mstore\n        /* \"#utility.yul\":2952:3033   */\n      pop\n      pop\n      jump\t// out\n        /* \"#utility.yul\":3039:3206   */\n    tag_161:\n        /* \"#utility.yul\":3144:3199   */\n      tag_163\n        /* \"#utility.yul\":3193:3198   */\n      dup2\n        /* \"#utility.yul\":3144:3199   */\n      tag_164\n      jump\t// in\n    tag_163:\n        /* \"#utility.yul\":3139:3142   */\n      dup3\n        /* \"#utility.yul\":3132:3200   */\n      mstore\n        /* \"#utility.yul\":3122:3206   */\n      pop\n      pop\n      jump\t// out\n        /* \"#utility.yul\":3212:3369   */\n    tag_165:\n        /* \"#utility.yul\":3312:3362   */\n      tag_167\n        /* \"#utility.yul\":3356:3361   */\n      dup2\n        /* \"#utility.yul\":3312:3362   */\n      tag_168\n      jump\t// in\n    tag_167:\n        /* \"#utility.yul\":3307:3310   */\n      dup3\n        /* \"#utility.yul\":3300:3363   */\n      mstore\n        /* \"#utility.yul\":3290:3369   */\n      pop\n      pop\n      jump\t// out\n        /* \"#utility.yul\":3375:3741   */\n    tag_169:\n        /* \"#utility.yul\":3517:3520   */\n      0x00\n        /* \"#utility.yul\":3538:3605   */\n      tag_171\n        /* \"#utility.yul\":3602:3604   */\n      0x1a\n        /* \"#utility.yul\":3597:3600   */\n      dup4\n        /* \"#utility.yul\":3538:3605   */\n      tag_172\n      jump\t// in\n    tag_171:\n        /* \"#utility.yul\":3531:3605   */\n      swap2\n      pop\n        /* \"#utility.yul\":3614:3707   */\n      tag_173\n        /* \"#utility.yul\":3703:3706   */\n      dup3\n        /* \"#utility.yul\":3614:3707   */\n      tag_174\n      jump\t// in\n    tag_173:\n        /* \"#utility.yul\":3732:3734   */\n      0x20\n        /* \"#utility.yul\":3727:3730   */\n      dup3\n        /* \"#utility.yul\":3723:3735   */\n      add\n        /* \"#utility.yul\":3716:3735   */\n      swap1\n      pop\n        /* \"#utility.yul\":3521:3741   */\n      swap2\n      swap1\n      pop\n      jump\t// out\n        /* \"#utility.yul\":3747:3865   */\n    tag_175:\n        /* \"#utility.yul\":3834:3858   */\n      tag_177\n        /* \"#utility.yul\":3852:3857   */\n      dup2\n        /* \"#utility.yul\":3834:3858   */\n      tag_178\n      jump\t// in\n    tag_177:\n        /* \"#utility.yul\":3829:3832   */\n      dup3\n        /* \"#utility.yul\":3822:3859   */\n      mstore\n        /* \"#utility.yul\":3812:3865   */\n      pop\n      pop\n      jump\t// out\n        /* \"#utility.yul\":3871:4125   */\n    tag_41:\n        /* \"#utility.yul\":3980:3984   */\n      0x00\n        /* \"#utility.yul\":4018:4020   */\n      0x20\n        /* \"#utility.yul\":4007:4016   */\n      dup3\n        /* \"#utility.yul\":4003:4021   */\n      add\n        /* \"#utility.yul\":3995:4021   */\n      swap1\n      pop\n        /* \"#utility.yul\":4031:4118   */\n      tag_180\n        /* \"#utility.yul\":4115:4116   */\n      0x00\n        /* \"#utility.yul\":4104:4113   */\n      dup4\n        /* \"#utility.yul\":4100:4117   */\n      add\n        /* \"#utility.yul\":4091:4097   */\n      dup5\n        /* \"#utility.yul\":4031:4118   */\n      tag_149\n      jump\t// in\n    tag_180:\n        /* \"#utility.yul\":3985:4125   */\n      swap3\n      swap2\n      pop\n      pop\n      jump\t// out\n        /* \"#utility.yul\":4131:4341   */\n    tag_27:\n        /* \"#utility.yul\":4218:4222   */\n      0x00\n        /* \"#utility.yul\":4256:4258   */\n      0x20\n        /* \"#utility.yul\":4245:4254   */\n      dup3\n        /* \"#utility.yul\":4241:4259   */\n      add\n        /* \"#utility.yul\":4233:4259   */\n      swap1\n      pop\n        /* \"#utility.yul\":4269:4334   */\n      tag_182\n        /* \"#utility.yul\":4331:4332   */\n      0x00\n        /* \"#utility.yul\":4320:4329   */\n      dup4\n        /* \"#utility.yul\":4316:4333   */\n      add\n        /* \"#utility.yul\":4307:4313   */\n      dup5\n        /* \"#utility.yul\":4269:4334   */\n      tag_153\n      jump\t// in\n    tag_182:\n        /* \"#utility.yul\":4223:4341   */\n      swap3\n      swap2\n      pop\n      pop\n      jump\t// out\n        /* \"#utility.yul\":4347:4599   */\n    tag_37:\n        /* \"#utility.yul\":4455:4459   */\n      0x00\n        /* \"#utility.yul\":4493:4495   */\n      0x20\n        /* \"#utility.yul\":4482:4491   */\n      dup3\n        /* \"#utility.yul\":4478:4496   */\n      add\n        /* \"#utility.yul\":4470:4496   */\n      swap1\n      pop\n        /* \"#utility.yul\":4506:4592   */\n      tag_184\n        /* \"#utility.yul\":4589:4590   */\n      0x00\n        /* \"#utility.yul\":4578:4587   */\n      dup4\n        /* \"#utility.yul\":4574:4591   */\n      add\n        /* \"#utility.yul\":4565:4571   */\n      dup5\n        /* \"#utility.yul\":4506:4592   */\n      tag_157\n      jump\t// in\n    tag_184:\n        /* \"#utility.yul\":4460:4599   */\n      swap3\n      swap2\n      pop\n      pop\n      jump\t// out\n        /* \"#utility.yul\":4605:4863   */\n    tag_56:\n        /* \"#utility.yul\":4716:4720   */\n      0x00\n        /* \"#utility.yul\":4754:4756   */\n      0x20\n        /* \"#utility.yul\":4743:4752   */\n      dup3\n        /* \"#utility.yul\":4739:4757   */\n      add\n        /* \"#utility.yul\":4731:4757   */\n      swap1\n      pop\n        /* \"#utility.yul\":4767:4856   */\n      tag_186\n        /* \"#utility.yul\":4853:4854   */\n      0x00\n        /* \"#utility.yul\":4842:4851   */\n      dup4\n        /* \"#utility.yul\":4838:4855   */\n      add\n        /* \"#utility.yul\":4829:4835   */\n      dup5\n        /* \"#utility.yul\":4767:4856   */\n      tag_161\n      jump\t// in\n    tag_186:\n        /* \"#utility.yul\":4721:4863   */\n      swap3\n      swap2\n      pop\n      pop\n      jump\t// out\n        /* \"#utility.yul\":4869:5117   */\n    tag_23:\n        /* \"#utility.yul\":4975:4979   */\n      0x00\n        /* \"#utility.yul\":5013:5015   */\n      0x20\n        /* \"#utility.yul\":5002:5011   */\n      dup3\n        /* \"#utility.yul\":4998:5016   */\n      add\n        /* \"#utility.yul\":4990:5016   */\n      swap1\n      pop\n        /* \"#utility.yul\":5026:5110   */\n      tag_188\n        /* \"#utility.yul\":5107:5108   */\n      0x00\n        /* \"#utility.yul\":5096:5105   */\n      dup4\n        /* \"#utility.yul\":5092:5109   */\n      add\n        /* \"#utility.yul\":5083:5089   */\n      dup5\n        /* \"#utility.yul\":5026:5110   */\n      tag_165\n      jump\t// in\n    tag_188:\n        /* \"#utility.yul\":4980:5117   */\n      swap3\n      swap2\n      pop\n      pop\n      jump\t// out\n        /* \"#utility.yul\":5123:5542   */\n    tag_67:\n        /* \"#utility.yul\":5289:5293   */\n      0x00\n        /* \"#utility.yul\":5327:5329   */\n      0x20\n        /* \"#utility.yul\":5316:5325   */\n      dup3\n        /* \"#utility.yul\":5312:5330   */\n      add\n        /* \"#utility.yul\":5304:5330   */\n      swap1\n      pop\n        /* \"#utility.yul\":5376:5385   */\n      dup2\n        /* \"#utility.yul\":5370:5374   */\n      dup2\n        /* \"#utility.yul\":5366:5386   */\n      sub\n        /* \"#utility.yul\":5362:5363   */\n      0x00\n        /* \"#utility.yul\":5351:5360   */\n      dup4\n        /* \"#utility.yul\":5347:5364   */\n      add\n        /* \"#utility.yul\":5340:5387   */\n      mstore\n        /* \"#utility.yul\":5404:5535   */\n      tag_190\n        /* \"#utility.yul\":5530:5534   */\n      dup2\n        /* \"#utility.yul\":5404:5535   */\n      tag_169\n      jump\t// in\n    tag_190:\n        /* \"#utility.yul\":5396:5535   */\n      swap1\n      pop\n        /* \"#utility.yul\":5294:5542   */\n      swap2\n      swap1\n      pop\n      jump\t// out\n        /* \"#utility.yul\":5548:5770   */\n    tag_19:\n        /* \"#utility.yul\":5641:5645   */\n      0x00\n        /* \"#utility.yul\":5679:5681   */\n      0x20\n        /* \"#utility.yul\":5668:5677   */\n      dup3\n        /* \"#utility.yul\":5664:5682   */\n      add\n        /* \"#utility.yul\":5656:5682   */\n      swap1\n      pop\n        /* \"#utility.yul\":5692:5763   */\n      tag_192\n        /* \"#utility.yul\":5760:5761   */\n      0x00\n        /* \"#utility.yul\":5749:5758   */\n      dup4\n        /* \"#utility.yul\":5745:5762   */\n      add\n        /* \"#utility.yul\":5736:5742   */\n      dup5\n        /* \"#utility.yul\":5692:5763   */\n      tag_175\n      jump\t// in\n    tag_192:\n        /* \"#utility.yul\":5646:5770   */\n      swap3\n      swap2\n      pop\n      pop\n      jump\t// out\n        /* \"#utility.yul\":5776:5905   */\n    tag_119:\n        /* \"#utility.yul\":5810:5816   */\n      0x00\n        /* \"#utility.yul\":5837:5857   */\n      tag_194\n      tag_195\n      jump\t// in\n    tag_194:\n        /* \"#utility.yul\":5827:5857   */\n      swap1\n      pop\n        /* \"#utility.yul\":5866:5899   */\n      tag_196\n        /* \"#utility.yul\":5894:5898   */\n      dup3\n        /* \"#utility.yul\":5886:5892   */\n      dup3\n        /* \"#utility.yul\":5866:5899   */\n      tag_197\n      jump\t// in\n    tag_196:\n        /* \"#utility.yul\":5817:5905   */\n      swap2\n      swap1\n      pop\n      jump\t// out\n        /* \"#utility.yul\":5911:5986   */\n    tag_195:\n        /* \"#utility.yul\":5944:5950   */\n      0x00\n        /* \"#utility.yul\":5977:5979   */\n      0x40\n        /* \"#utility.yul\":5971:5980   */\n      mload\n        /* \"#utility.yul\":5961:5980   */\n      swap1\n      pop\n        /* \"#utility.yul\":5951:5986   */\n      swap1\n      jump\t// out\n        /* \"#utility.yul\":5992:6300   */\n    tag_118:\n        /* \"#utility.yul\":6054:6058   */\n      0x00\n        /* \"#utility.yul\":6144:6162   */\n      0xffffffffffffffff\n        /* \"#utility.yul\":6136:6142   */\n      dup3\n        /* \"#utility.yul\":6133:6163   */\n      gt\n        /* \"#utility.yul\":6130:6132   */\n      iszero\n      tag_200\n      jumpi\n        /* \"#utility.yul\":6166:6184   */\n      tag_201\n      tag_202\n      jump\t// in\n    tag_201:\n        /* \"#utility.yul\":6130:6132   */\n    tag_200:\n        /* \"#utility.yul\":6204:6233   */\n      tag_203\n        /* \"#utility.yul\":6226:6232   */\n      dup3\n        /* \"#utility.yul\":6204:6233   */\n      tag_204\n      jump\t// in\n    tag_203:\n        /* \"#utility.yul\":6196:6233   */\n      swap1\n      pop\n        /* \"#utility.yul\":6288:6292   */\n      0x20\n        /* \"#utility.yul\":6282:6286   */\n      dup2\n        /* \"#utility.yul\":6278:6293   */\n      add\n        /* \"#utility.yul\":6270:6293   */\n      swap1\n      pop\n        /* \"#utility.yul\":6059:6300   */\n      swap2\n      swap1\n      pop\n      jump\t// out\n        /* \"#utility.yul\":6306:6475   */\n    tag_172:\n        /* \"#utility.yul\":6390:6401   */\n      0x00\n        /* \"#utility.yul\":6424:6430   */\n      dup3\n        /* \"#utility.yul\":6419:6422   */\n      dup3\n        /* \"#utility.yul\":6412:6431   */\n      mstore\n        /* \"#utility.yul\":6464:6468   */\n      0x20\n        /* \"#utility.yul\":6459:6462   */\n      dup3\n        /* \"#utility.yul\":6455:6469   */\n      add\n        /* \"#utility.yul\":6440:6469   */\n      swap1\n      pop\n        /* \"#utility.yul\":6402:6475   */\n      swap3\n      swap2\n      pop\n      pop\n      jump\t// out\n        /* \"#utility.yul\":6481:6666   */\n    tag_77:\n        /* \"#utility.yul\":6521:6522   */\n      0x00\n        /* \"#utility.yul\":6538:6558   */\n      tag_207\n        /* \"#utility.yul\":6556:6557   */\n      dup3\n        /* \"#utility.yul\":6538:6558   */\n      tag_178\n      jump\t// in\n    tag_207:\n        /* \"#utility.yul\":6533:6558   */\n      swap2\n      pop\n        /* \"#utility.yul\":6572:6592   */\n      tag_208\n        /* \"#utility.yul\":6590:6591   */\n      dup4\n        /* \"#utility.yul\":6572:6592   */\n      tag_178\n      jump\t// in\n    tag_208:\n        /* \"#utility.yul\":6567:6592   */\n      swap3\n      pop\n        /* \"#utility.yul\":6611:6612   */\n      dup3\n        /* \"#utility.yul\":6601:6603   */\n      tag_209\n      jumpi\n        /* \"#utility.yul\":6616:6634   */\n      tag_210\n      tag_211\n      jump\t// in\n    tag_210:\n        /* \"#utility.yul\":6601:6603   */\n    tag_209:\n        /* \"#utility.yul\":6658:6659   */\n      dup3\n        /* \"#utility.yul\":6655:6656   */\n      dup3\n        /* \"#utility.yul\":6651:6660   */\n      div\n        /* \"#utility.yul\":6646:6660   */\n      swap1\n      pop\n        /* \"#utility.yul\":6523:6666   */\n      swap3\n      swap2\n      pop\n      pop\n      jump\t// out\n        /* \"#utility.yul\":6672:7020   */\n    tag_75:\n        /* \"#utility.yul\":6712:6719   */\n      0x00\n        /* \"#utility.yul\":6735:6755   */\n      tag_213\n        /* \"#utility.yul\":6753:6754   */\n      dup3\n        /* \"#utility.yul\":6735:6755   */\n      tag_178\n      jump\t// in\n    tag_213:\n        /* \"#utility.yul\":6730:6755   */\n      swap2\n      pop\n        /* \"#utility.yul\":6769:6789   */\n      tag_214\n        /* \"#utility.yul\":6787:6788   */\n      dup4\n        /* \"#utility.yul\":6769:6789   */\n      tag_178\n      jump\t// in\n    tag_214:\n        /* \"#utility.yul\":6764:6789   */\n      swap3\n      pop\n        /* \"#utility.yul\":6957:6958   */\n      dup2\n        /* \"#utility.yul\":6889:6955   */\n      0xffffffffffffffffffffffffffffffffffffffffffffffffffffffffffffffff\n        /* \"#utility.yul\":6885:6959   */\n      div\n        /* \"#utility.yul\":6882:6883   */\n      dup4\n        /* \"#utility.yul\":6879:6960   */\n      gt\n        /* \"#utility.yul\":6874:6875   */\n      dup3\n        /* \"#utility.yul\":6867:6876   */\n      iszero\n        /* \"#utility.yul\":6860:6877   */\n      iszero\n        /* \"#utility.yul\":6856:6961   */\n      and\n        /* \"#utility.yul\":6853:6855   */\n      iszero\n      tag_215\n      jumpi\n        /* \"#utility.yul\":6964:6982   */\n      tag_216\n      tag_217\n      jump\t// in\n    tag_216:\n        /* \"#utility.yul\":6853:6855   */\n    tag_215:\n        /* \"#utility.yul\":7012:7013   */\n      dup3\n        /* \"#utility.yul\":7009:7010   */\n      dup3\n        /* \"#utility.yul\":7005:7014   */\n      mul\n        /* \"#utility.yul\":6994:7014   */\n      swap1\n      pop\n        /* \"#utility.yul\":6720:7020   */\n      swap3\n      swap2\n      pop\n      pop\n      jump\t// out\n        /* \"#utility.yul\":7026:7122   */\n    tag_218:\n        /* \"#utility.yul\":7063:7070   */\n      0x00\n        /* \"#utility.yul\":7092:7116   */\n      tag_220\n        /* \"#utility.yul\":7110:7115   */\n      dup3\n        /* \"#utility.yul\":7092:7116   */\n      tag_221\n      jump\t// in\n    tag_220:\n        /* \"#utility.yul\":7081:7116   */\n      swap1\n      pop\n        /* \"#utility.yul\":7071:7122   */\n      swap2\n      swap1\n      pop\n      jump\t// out\n        /* \"#utility.yul\":7128:7232   */\n    tag_152:\n        /* \"#utility.yul\":7173:7180   */\n      0x00\n        /* \"#utility.yul\":7202:7226   */\n      tag_223\n        /* \"#utility.yul\":7220:7225   */\n      dup3\n        /* \"#utility.yul\":7202:7226   */\n      tag_221\n      jump\t// in\n    tag_223:\n        /* \"#utility.yul\":7191:7226   */\n      swap1\n      pop\n        /* \"#utility.yul\":7181:7232   */\n      swap2\n      swap1\n      pop\n      jump\t// out\n        /* \"#utility.yul\":7238:7328   */\n    tag_156:\n        /* \"#utility.yul\":7272:7279   */\n      0x00\n        /* \"#utility.yul\":7315:7320   */\n      dup2\n        /* \"#utility.yul\":7308:7321   */\n      iszero\n        /* \"#utility.yul\":7301:7322   */\n      iszero\n        /* \"#utility.yul\":7290:7322   */\n      swap1\n      pop\n        /* \"#utility.yul\":7280:7328   */\n      swap2\n      swap1\n      pop\n      jump\t// out\n        /* \"#utility.yul\":7334:7460   */\n    tag_221:\n        /* \"#utility.yul\":7371:7378   */\n      0x00\n        /* \"#utility.yul\":7411:7453   */\n      0xffffffffffffffffffffffffffffffffffffffff\n        /* \"#utility.yul\":7404:7409   */\n      dup3\n        /* \"#utility.yul\":7400:7454   */\n      and\n        /* \"#utility.yul\":7389:7454   */\n      swap1\n      pop\n        /* \"#utility.yul\":7379:7460   */\n      swap2\n      swap1\n      pop\n      jump\t// out\n        /* \"#utility.yul\":7466:7543   */\n    tag_178:\n        /* \"#utility.yul\":7503:7510   */\n      0x00\n        /* \"#utility.yul\":7532:7537   */\n      dup2\n        /* \"#utility.yul\":7521:7537   */\n      swap1\n      pop\n        /* \"#utility.yul\":7511:7543   */\n      swap2\n      swap1\n      pop\n      jump\t// out\n        /* \"#utility.yul\":7549:7705   */\n    tag_160:\n        /* \"#utility.yul\":7614:7623   */\n      0x00\n        /* \"#utility.yul\":7647:7699   */\n      tag_228\n        /* \"#utility.yul\":7693:7698   */\n      dup3\n        /* \"#utility.yul\":7647:7699   */\n      tag_229\n      jump\t// in\n    tag_228:\n        /* \"#utility.yul\":7634:7699   */\n      swap1\n      pop\n        /* \"#utility.yul\":7624:7705   */\n      swap2\n      swap1\n      pop\n      jump\t// out\n        /* \"#utility.yul\":7711:7839   */\n    tag_229:\n        /* \"#utility.yul\":7776:7785   */\n      0x00\n        /* \"#utility.yul\":7809:7833   */\n      tag_231\n        /* \"#utility.yul\":7827:7832   */\n      dup3\n        /* \"#utility.yul\":7809:7833   */\n      tag_221\n      jump\t// in\n    tag_231:\n        /* \"#utility.yul\":7796:7833   */\n      swap1\n      pop\n        /* \"#utility.yul\":7786:7839   */\n      swap2\n      swap1\n      pop\n      jump\t// out\n        /* \"#utility.yul\":7845:8007   */\n    tag_164:\n        /* \"#utility.yul\":7913:7922   */\n      0x00\n        /* \"#utility.yul\":7946:8001   */\n      tag_233\n        /* \"#utility.yul\":7995:8000   */\n      dup3\n        /* \"#utility.yul\":7946:8001   */\n      tag_234\n      jump\t// in\n    tag_233:\n        /* \"#utility.yul\":7933:8001   */\n      swap1\n      pop\n        /* \"#utility.yul\":7923:8007   */\n      swap2\n      swap1\n      pop\n      jump\t// out\n        /* \"#utility.yul\":8013:8144   */\n    tag_234:\n        /* \"#utility.yul\":8081:8090   */\n      0x00\n        /* \"#utility.yul\":8114:8138   */\n      tag_236\n        /* \"#utility.yul\":8132:8137   */\n      dup3\n        /* \"#utility.yul\":8114:8138   */\n      tag_221\n      jump\t// in\n    tag_236:\n        /* \"#utility.yul\":8101:8138   */\n      swap1\n      pop\n        /* \"#utility.yul\":8091:8144   */\n      swap2\n      swap1\n      pop\n      jump\t// out\n        /* \"#utility.yul\":8150:8302   */\n    tag_168:\n        /* \"#utility.yul\":8213:8222   */\n      0x00\n        /* \"#utility.yul\":8246:8296   */\n      tag_238\n        /* \"#utility.yul\":8290:8295   */\n      dup3\n        /* \"#utility.yul\":8246:8296   */\n      tag_239\n      jump\t// in\n    tag_238:\n        /* \"#utility.yul\":8233:8296   */\n      swap1\n      pop\n        /* \"#utility.yul\":8223:8302   */\n      swap2\n      swap1\n      pop\n      jump\t// out\n        /* \"#utility.yul\":8308:8434   */\n    tag_239:\n        /* \"#utility.yul\":8371:8380   */\n      0x00\n        /* \"#utility.yul\":8404:8428   */\n      tag_241\n        /* \"#utility.yul\":8422:8427   */\n      dup3\n        /* \"#utility.yul\":8404:8428   */\n      tag_221\n      jump\t// in\n    tag_241:\n        /* \"#utility.yul\":8391:8428   */\n      swap1\n      pop\n        /* \"#utility.yul\":8381:8434   */\n      swap2\n      swap1\n      pop\n      jump\t// out\n        /* \"#utility.yul\":8440:8594   */\n    tag_122:\n        /* \"#utility.yul\":8524:8530   */\n      dup3\n        /* \"#utility.yul\":8519:8522   */\n      dup2\n        /* \"#utility.yul\":8514:8517   */\n      dup4\n        /* \"#utility.yul\":8501:8531   */\n      calldatacopy\n        /* \"#utility.yul\":8586:8587   */\n      0x00\n        /* \"#utility.yul\":8577:8583   */\n      dup4\n        /* \"#utility.yul\":8572:8575   */\n      dup4\n        /* \"#utility.yul\":8568:8584   */\n      add\n        /* \"#utility.yul\":8561:8588   */\n      mstore\n        /* \"#utility.yul\":8491:8594   */\n      pop\n      pop\n      pop\n      jump\t// out\n        /* \"#utility.yul\":8600:8881   */\n    tag_197:\n        /* \"#utility.yul\":8683:8710   */\n      tag_244\n        /* \"#utility.yul\":8705:8709   */\n      dup3\n        /* \"#utility.yul\":8683:8710   */\n      tag_204\n      jump\t// in\n    tag_244:\n        /* \"#utility.yul\":8675:8681   */\n      dup2\n        /* \"#utility.yul\":8671:8711   */\n      add\n        /* \"#utility.yul\":8813:8819   */\n      dup2\n        /* \"#utility.yul\":8801:8811   */\n      dup2\n        /* \"#utility.yul\":8798:8820   */\n      lt\n        /* \"#utility.yul\":8777:8795   */\n      0xffffffffffffffff\n        /* \"#utility.yul\":8765:8775   */\n      dup3\n        /* \"#utility.yul\":8762:8796   */\n      gt\n        /* \"#utility.yul\":8759:8821   */\n      or\n        /* \"#utility.yul\":8756:8758   */\n      iszero\n      tag_245\n      jumpi\n        /* \"#utility.yul\":8824:8842   */\n      tag_246\n      tag_202\n      jump\t// in\n    tag_246:\n        /* \"#utility.yul\":8756:8758   */\n    tag_245:\n        /* \"#utility.yul\":8864:8874   */\n      dup1\n        /* \"#utility.yul\":8860:8862   */\n      0x40\n        /* \"#utility.yul\":8853:8875   */\n      mstore\n        /* \"#utility.yul\":8643:8881   */\n      pop\n      pop\n      pop\n      jump\t// out\n        /* \"#utility.yul\":8887:9067   */\n    tag_217:\n        /* \"#utility.yul\":8935:9012   */\n      0x4e487b7100000000000000000000000000000000000000000000000000000000\n        /* \"#utility.yul\":8932:8933   */\n      0x00\n        /* \"#utility.yul\":8925:9013   */\n      mstore\n        /* \"#utility.yul\":9032:9036   */\n      0x11\n        /* \"#utility.yul\":9029:9030   */\n      0x04\n        /* \"#utility.yul\":9022:9037   */\n      mstore\n        /* \"#utility.yul\":9056:9060   */\n      0x24\n        /* \"#utility.yul\":9053:9054   */\n      0x00\n        /* \"#utility.yul\":9046:9061   */\n      revert\n        /* \"#utility.yul\":9073:9253   */\n    tag_211:\n        /* \"#utility.yul\":9121:9198   */\n      0x4e487b7100000000000000000000000000000000000000000000000000000000\n        /* \"#utility.yul\":9118:9119   */\n      0x00\n        /* \"#utility.yul\":9111:9199   */\n      mstore\n        /* \"#utility.yul\":9218:9222   */\n      0x12\n        /* \"#utility.yul\":9215:9216   */\n      0x04\n        /* \"#utility.yul\":9208:9223   */\n      mstore\n        /* \"#utility.yul\":9242:9246   */\n      0x24\n        /* \"#utility.yul\":9239:9240   */\n      0x00\n        /* \"#utility.yul\":9232:9247   */\n      revert\n        /* \"#utility.yul\":9259:9439   */\n    tag_202:\n        /* \"#utility.yul\":9307:9384   */\n      0x4e487b7100000000000000000000000000000000000000000000000000000000\n        /* \"#utility.yul\":9304:9305   */\n      0x00\n        /* \"#utility.yul\":9297:9385   */\n      mstore\n        /* \"#utility.yul\":9404:9408   */\n      0x41\n        /* \"#utility.yul\":9401:9402   */\n      0x04\n        /* \"#utility.yul\":9394:9409   */\n      mstore\n        /* \"#utility.yul\":9428:9432   */\n      0x24\n        /* \"#utility.yul\":9425:9426   */\n      0x00\n        /* \"#utility.yul\":9418:9433   */\n      revert\n        /* \"#utility.yul\":9445:9547   */\n    tag_204:\n        /* \"#utility.yul\":9486:9492   */\n      0x00\n        /* \"#utility.yul\":9537:9539   */\n      0x1f\n        /* \"#utility.yul\":9533:9540   */\n      not\n        /* \"#utility.yul\":9528:9530   */\n      0x1f\n        /* \"#utility.yul\":9521:9526   */\n      dup4\n        /* \"#utility.yul\":9517:9531   */\n      add\n        /* \"#utility.yul\":9513:9541   */\n      and\n        /* \"#utility.yul\":9503:9541   */\n      swap1\n      pop\n        /* \"#utility.yul\":9493:9547   */\n      swap2\n      swap1\n      pop\n      jump\t// out\n        /* \"#utility.yul\":9553:9729   */\n    tag_174:\n        /* \"#utility.yul\":9693:9721   */\n      0x4865726f436f7265204572726f72203a206f6e6c794f776e6572000000000000\n        /* \"#utility.yul\":9689:9690   */\n      0x00\n        /* \"#utility.yul\":9681:9687   */\n      dup3\n        /* \"#utility.yul\":9677:9691   */\n      add\n        /* \"#utility.yul\":9670:9722   */\n      mstore\n        /* \"#utility.yul\":9659:9729   */\n      pop\n      jump\t// out\n        /* \"#utility.yul\":9735:9857   */\n    tag_126:\n        /* \"#utility.yul\":9808:9832   */\n      tag_253\n        /* \"#utility.yul\":9826:9831   */\n      dup2\n        /* \"#utility.yul\":9808:9832   */\n      tag_218\n      jump\t// in\n    tag_253:\n        /* \"#utility.yul\":9801:9806   */\n      dup2\n        /* \"#utility.yul\":9798:9833   */\n      eq\n        /* \"#utility.yul\":9788:9790   */\n      tag_254\n      jumpi\n        /* \"#utility.yul\":9847:9848   */\n      0x00\n        /* \"#utility.yul\":9844:9845   */\n      dup1\n        /* \"#utility.yul\":9837:9849   */\n      revert\n        /* \"#utility.yul\":9788:9790   */\n    tag_254:\n        /* \"#utility.yul\":9778:9857   */\n      pop\n      jump\t// out\n        /* \"#utility.yul\":9863:9985   */\n    tag_134:\n        /* \"#utility.yul\":9936:9960   */\n      tag_256\n        /* \"#utility.yul\":9954:9959   */\n      dup2\n        /* \"#utility.yul\":9936:9960   */\n      tag_178\n      jump\t// in\n    tag_256:\n        /* \"#utility.yul\":9929:9934   */\n      dup2\n        /* \"#utility.yul\":9926:9961   */\n      eq\n        /* \"#utility.yul\":9916:9918   */\n      tag_257\n      jumpi\n        /* \"#utility.yul\":9975:9976   */\n      0x00\n        /* \"#utility.yul\":9972:9973   */\n      dup1\n        /* \"#utility.yul\":9965:9977   */\n      revert\n        /* \"#utility.yul\":9916:9918   */\n    tag_257:\n        /* \"#utility.yul\":9906:9985   */\n      pop\n      jump\t// out\n\n    auxdata: 0xa2646970667358221220a25005444332efcc6533a7c99f90d67216fd290dd3d6f98376626d091f3ce05e64736f6c63430008040033\n}\n",
				"bytecode": {
					"linkReferences": {},
					"object": "608060405234801561001057600080fd5b506001600560146101000a81548160ff0219169083151502179055506001600560156101000a81548160ff02191690831515021790555033600360006101000a81548173ffffffffffffffffffffffffffffffffffffffff021916908373ffffffffffffffffffffffffffffffffffffffff160217905550610e27806100976000396000f3fe608060405234801561001057600080fd5b50600436106100b45760003560e01c8063893d20e811610071578063893d20e81461016d5780639eb4eae51461018b578063aa93c0ee14610195578063b33f9527146101c5578063c412eaba146101e1578063ee72b8cc146101ff576100b4565b80631b9cbdfb146100b957806321df0da7146100d757806328919df6146100f55780633a1a8080146101135780636805b84b146101315780637cac00ee1461014f575b600080fd5b6100c1610209565b6040516100ce9190610ae9565b60405180910390f35b6100df61020f565b6040516100ec9190610aae565b60405180910390f35b6100fd610239565b60405161010a9190610a5d565b60405180910390f35b61011b610250565b6040516101289190610ae9565b60405180910390f35b610139610256565b6040516101469190610a5d565b60405180910390f35b61015761026d565b6040516101649190610a78565b60405180910390f35b610175610296565b6040516101829190610a42565b60405180910390f35b6101936102c0565b005b6101af60048036038101906101aa9190610971565b61037c565b6040516101bc9190610ae9565b60405180910390f35b6101df60048036038101906101da91906108d3565b6103cc565b005b6101e96105eb565b6040516101f69190610a93565b60405180910390f35b610207610615565b005b60075481565b6000600160009054906101000a900473ffffffffffffffffffffffffffffffffffffffff16905090565b6000600560159054906101000a900460ff16905090565b60065481565b6000600560149054906101000a900460ff16905090565b60008060009054906101000a900473ffffffffffffffffffffffffffffffffffffffff16905090565b6000600360009054906101000a900473ffffffffffffffffffffffffffffffffffffffff16905090565b600360009054906101000a900473ffffffffffffffffffffffffffffffffffffffff1673ffffffffffffffffffffffffffffffffffffffff163373ffffffffffffffffffffffffffffffffffffffff1614610350576040517f08c379a000000000000000000000000000000000000000000000000000000000815260040161034790610ac9565b60405180910390fd5b600560149054906101000a900460ff1615600560146101000a81548160ff021916908315150217905550565b600080610388846106d1565b90506000610395846107dd565b9050670de0b6b3a7640000600a82846103ae9190610b9c565b6103b89190610b6b565b6103c29190610b9c565b9250505092915050565b600360009054906101000a900473ffffffffffffffffffffffffffffffffffffffff1673ffffffffffffffffffffffffffffffffffffffff163373ffffffffffffffffffffffffffffffffffffffff161461045c576040517f08c379a000000000000000000000000000000000000000000000000000000000815260040161045390610ac9565b60405180910390fd5b610477670de0b6b3a76400008361082b90919063ffffffff16565b600681905550610498670de0b6b3a76400008261082b90919063ffffffff16565b600781905550866000806101000a81548173ffffffffffffffffffffffffffffffffffffffff021916908373ffffffffffffffffffffffffffffffffffffffff16021790555085600160006101000a81548173ffffffffffffffffffffffffffffffffffffffff021916908373ffffffffffffffffffffffffffffffffffffffff16021790555084600260006101000a81548173ffffffffffffffffffffffffffffffffffffffff021916908373ffffffffffffffffffffffffffffffffffffffff16021790555083600460006101000a81548173ffffffffffffffffffffffffffffffffffffffff021916908373ffffffffffffffffffffffffffffffffffffffff16021790555082600560006101000a81548173ffffffffffffffffffffffffffffffffffffffff021916908373ffffffffffffffffffffffffffffffffffffffff16021790555050505050505050565b6000600260009054906101000a900473ffffffffffffffffffffffffffffffffffffffff16905090565b600360009054906101000a900473ffffffffffffffffffffffffffffffffffffffff1673ffffffffffffffffffffffffffffffffffffffff163373ffffffffffffffffffffffffffffffffffffffff16146106a5576040517f08c379a000000000000000000000000000000000000000000000000000000000815260040161069c90610ac9565b60405180910390fd5b600560159054906101000a900460ff1615600560156101000a81548160ff021916908315150217905550565b600080828051906020012090507f8c57226533ec41d2857120df9ace6dff88130d9b32385e09c9828f75027730f381146107cd577f181ebe3a8fa130246d49bfd123ac54849b05bdcd02c6b1322c78de2a3988a31081146107c4577f6764d804d57285ae9d4c42cc380377d3d0ee9b90ff9eeccaa32d3b2e3e8d7f1781146107bb577fb2c1aaaf9f516585466c9876e2eaf06ee68751aad537b2a6fa22f473d03b58eb81146107b0577fb5333297a8bd10e190cb97fb1ee0f49587c8b2e015370e943c69fd680dabc6bd81146107a85760006107ab565b60c85b6107b3565b60e15b60ff166107bf565b61012c5b6107c8565b6101c25b6107d1565b6102a35b61ffff16915050919050565b60006001821461081e5760028214610816576003821461080e5760048214610806576000610809565b60505b610811565b602a5b610819565b60165b610821565b600f5b60ff169050919050565b600081836108399190610b9c565b905092915050565b600061085461084f84610b29565b610b04565b90508281526020810184848401111561086c57600080fd5b610877848285610cbc565b509392505050565b60008135905061088e81610dc3565b92915050565b600082601f8301126108a557600080fd5b81356108b5848260208601610841565b91505092915050565b6000813590506108cd81610dda565b92915050565b600080600080600080600060e0888a0312156108ee57600080fd5b60006108fc8a828b0161087f565b975050602061090d8a828b0161087f565b965050604061091e8a828b0161087f565b955050606061092f8a828b0161087f565b94505060806109408a828b0161087f565b93505060a06109518a828b016108be565b92505060c06109628a828b016108be565b91505092959891949750929550565b6000806040838503121561098457600080fd5b600083013567ffffffffffffffff81111561099e57600080fd5b6109aa85828601610894565b92505060206109bb858286016108be565b9150509250929050565b6109ce81610c08565b82525050565b6109dd81610c1a565b82525050565b6109ec81610c50565b82525050565b6109fb81610c74565b82525050565b610a0a81610c98565b82525050565b6000610a1d601a83610b5a565b9150610a2882610d9a565b602082019050919050565b610a3c81610c46565b82525050565b6000602082019050610a5760008301846109c5565b92915050565b6000602082019050610a7260008301846109d4565b92915050565b6000602082019050610a8d60008301846109e3565b92915050565b6000602082019050610aa860008301846109f2565b92915050565b6000602082019050610ac36000830184610a01565b92915050565b60006020820190508181036000830152610ae281610a10565b9050919050565b6000602082019050610afe6000830184610a33565b92915050565b6000610b0e610b1f565b9050610b1a8282610ccb565b919050565b6000604051905090565b600067ffffffffffffffff821115610b4457610b43610d5a565b5b610b4d82610d89565b9050602081019050919050565b600082825260208201905092915050565b6000610b7682610c46565b9150610b8183610c46565b925082610b9157610b90610d2b565b5b828204905092915050565b6000610ba782610c46565b9150610bb283610c46565b9250817fffffffffffffffffffffffffffffffffffffffffffffffffffffffffffffffff0483118215151615610beb57610bea610cfc565b5b828202905092915050565b6000610c0182610c26565b9050919050565b6000610c1382610c26565b9050919050565b60008115159050919050565b600073ffffffffffffffffffffffffffffffffffffffff82169050919050565b6000819050919050565b6000610c5b82610c62565b9050919050565b6000610c6d82610c26565b9050919050565b6000610c7f82610c86565b9050919050565b6000610c9182610c26565b9050919050565b6000610ca382610caa565b9050919050565b6000610cb582610c26565b9050919050565b82818337600083830152505050565b610cd482610d89565b810181811067ffffffffffffffff82111715610cf357610cf2610d5a565b5b80604052505050565b7f4e487b7100000000000000000000000000000000000000000000000000000000600052601160045260246000fd5b7f4e487b7100000000000000000000000000000000000000000000000000000000600052601260045260246000fd5b7f4e487b7100000000000000000000000000000000000000000000000000000000600052604160045260246000fd5b6000601f19601f8301169050919050565b7f4865726f436f7265204572726f72203a206f6e6c794f776e6572000000000000600082015250565b610dcc81610bf6565b8114610dd757600080fd5b50565b610de381610c46565b8114610dee57600080fd5b5056fea2646970667358221220a25005444332efcc6533a7c99f90d67216fd290dd3d6f98376626d091f3ce05e64736f6c63430008040033",
					"opcodes": "PUSH1 0x80 PUSH1 0x40 MSTORE CALLVALUE DUP1 ISZERO PUSH2 0x10 JUMPI PUSH1 0x0 DUP1 REVERT JUMPDEST POP PUSH1 0x1 PUSH1 0x5 PUSH1 0x14 PUSH2 0x100 EXP DUP2 SLOAD DUP2 PUSH1 0xFF MUL NOT AND SWAP1 DUP4 ISZERO ISZERO MUL OR SWAP1 SSTORE POP PUSH1 0x1 PUSH1 0x5 PUSH1 0x15 PUSH2 0x100 EXP DUP2 SLOAD DUP2 PUSH1 0xFF MUL NOT AND SWAP1 DUP4 ISZERO ISZERO MUL OR SWAP1 SSTORE POP CALLER PUSH1 0x3 PUSH1 0x0 PUSH2 0x100 EXP DUP2 SLOAD DUP2 PUSH20 0xFFFFFFFFFFFFFFFFFFFFFFFFFFFFFFFFFFFFFFFF MUL NOT AND SWAP1 DUP4 PUSH20 0xFFFFFFFFFFFFFFFFFFFFFFFFFFFFFFFFFFFFFFFF AND MUL OR SWAP1 SSTORE POP PUSH2 0xE27 DUP1 PUSH2 0x97 PUSH1 0x0 CODECOPY PUSH1 0x0 RETURN INVALID PUSH1 0x80 PUSH1 0x40 MSTORE CALLVALUE DUP1 ISZERO PUSH2 0x10 JUMPI PUSH1 0x0 DUP1 REVERT JUMPDEST POP PUSH1 0x4 CALLDATASIZE LT PUSH2 0xB4 JUMPI PUSH1 0x0 CALLDATALOAD PUSH1 0xE0 SHR DUP1 PUSH4 0x893D20E8 GT PUSH2 0x71 JUMPI DUP1 PUSH4 0x893D20E8 EQ PUSH2 0x16D JUMPI DUP1 PUSH4 0x9EB4EAE5 EQ PUSH2 0x18B JUMPI DUP1 PUSH4 0xAA93C0EE EQ PUSH2 0x195 JUMPI DUP1 PUSH4 0xB33F9527 EQ PUSH2 0x1C5 JUMPI DUP1 PUSH4 0xC412EABA EQ PUSH2 0x1E1 JUMPI DUP1 PUSH4 0xEE72B8CC EQ PUSH2 0x1FF JUMPI PUSH2 0xB4 JUMP JUMPDEST DUP1 PUSH4 0x1B9CBDFB EQ PUSH2 0xB9 JUMPI DUP1 PUSH4 0x21DF0DA7 EQ PUSH2 0xD7 JUMPI DUP1 PUSH4 0x28919DF6 EQ PUSH2 0xF5 JUMPI DUP1 PUSH4 0x3A1A8080 EQ PUSH2 0x113 JUMPI DUP1 PUSH4 0x6805B84B EQ PUSH2 0x131 JUMPI DUP1 PUSH4 0x7CAC00EE EQ PUSH2 0x14F JUMPI JUMPDEST PUSH1 0x0 DUP1 REVERT JUMPDEST PUSH2 0xC1 PUSH2 0x209 JUMP JUMPDEST PUSH1 0x40 MLOAD PUSH2 0xCE SWAP2 SWAP1 PUSH2 0xAE9 JUMP JUMPDEST PUSH1 0x40 MLOAD DUP1 SWAP2 SUB SWAP1 RETURN JUMPDEST PUSH2 0xDF PUSH2 0x20F JUMP JUMPDEST PUSH1 0x40 MLOAD PUSH2 0xEC SWAP2 SWAP1 PUSH2 0xAAE JUMP JUMPDEST PUSH1 0x40 MLOAD DUP1 SWAP2 SUB SWAP1 RETURN JUMPDEST PUSH2 0xFD PUSH2 0x239 JUMP JUMPDEST PUSH1 0x40 MLOAD PUSH2 0x10A SWAP2 SWAP1 PUSH2 0xA5D JUMP JUMPDEST PUSH1 0x40 MLOAD DUP1 SWAP2 SUB SWAP1 RETURN JUMPDEST PUSH2 0x11B PUSH2 0x250 JUMP JUMPDEST PUSH1 0x40 MLOAD PUSH2 0x128 SWAP2 SWAP1 PUSH2 0xAE9 JUMP JUMPDEST PUSH1 0x40 MLOAD DUP1 SWAP2 SUB SWAP1 RETURN JUMPDEST PUSH2 0x139 PUSH2 0x256 JUMP JUMPDEST PUSH1 0x40 MLOAD PUSH2 0x146 SWAP2 SWAP1 PUSH2 0xA5D JUMP JUMPDEST PUSH1 0x40 MLOAD DUP1 SWAP2 SUB SWAP1 RETURN JUMPDEST PUSH2 0x157 PUSH2 0x26D JUMP JUMPDEST PUSH1 0x40 MLOAD PUSH2 0x164 SWAP2 SWAP1 PUSH2 0xA78 JUMP JUMPDEST PUSH1 0x40 MLOAD DUP1 SWAP2 SUB SWAP1 RETURN JUMPDEST PUSH2 0x175 PUSH2 0x296 JUMP JUMPDEST PUSH1 0x40 MLOAD PUSH2 0x182 SWAP2 SWAP1 PUSH2 0xA42 JUMP JUMPDEST PUSH1 0x40 MLOAD DUP1 SWAP2 SUB SWAP1 RETURN JUMPDEST PUSH2 0x193 PUSH2 0x2C0 JUMP JUMPDEST STOP JUMPDEST PUSH2 0x1AF PUSH1 0x4 DUP1 CALLDATASIZE SUB DUP2 ADD SWAP1 PUSH2 0x1AA SWAP2 SWAP1 PUSH2 0x971 JUMP JUMPDEST PUSH2 0x37C JUMP JUMPDEST PUSH1 0x40 MLOAD PUSH2 0x1BC SWAP2 SWAP1 PUSH2 0xAE9 JUMP JUMPDEST PUSH1 0x40 MLOAD DUP1 SWAP2 SUB SWAP1 RETURN JUMPDEST PUSH2 0x1DF PUSH1 0x4 DUP1 CALLDATASIZE SUB DUP2 ADD SWAP1 PUSH2 0x1DA SWAP2 SWAP1 PUSH2 0x8D3 JUMP JUMPDEST PUSH2 0x3CC JUMP JUMPDEST STOP JUMPDEST PUSH2 0x1E9 PUSH2 0x5EB JUMP JUMPDEST PUSH1 0x40 MLOAD PUSH2 0x1F6 SWAP2 SWAP1 PUSH2 0xA93 JUMP JUMPDEST PUSH1 0x40 MLOAD DUP1 SWAP2 SUB SWAP1 RETURN JUMPDEST PUSH2 0x207 PUSH2 0x615 JUMP JUMPDEST STOP JUMPDEST PUSH1 0x7 SLOAD DUP2 JUMP JUMPDEST PUSH1 0x0 PUSH1 0x1 PUSH1 0x0 SWAP1 SLOAD SWAP1 PUSH2 0x100 EXP SWAP1 DIV PUSH20 0xFFFFFFFFFFFFFFFFFFFFFFFFFFFFFFFFFFFFFFFF AND SWAP1 POP SWAP1 JUMP JUMPDEST PUSH1 0x0 PUSH1 0x5 PUSH1 0x15 SWAP1 SLOAD SWAP1 PUSH2 0x100 EXP SWAP1 DIV PUSH1 0xFF AND SWAP1 POP SWAP1 JUMP JUMPDEST PUSH1 0x6 SLOAD DUP2 JUMP JUMPDEST PUSH1 0x0 PUSH1 0x5 PUSH1 0x14 SWAP1 SLOAD SWAP1 PUSH2 0x100 EXP SWAP1 DIV PUSH1 0xFF AND SWAP1 POP SWAP1 JUMP JUMPDEST PUSH1 0x0 DUP1 PUSH1 0x0 SWAP1 SLOAD SWAP1 PUSH2 0x100 EXP SWAP1 DIV PUSH20 0xFFFFFFFFFFFFFFFFFFFFFFFFFFFFFFFFFFFFFFFF AND SWAP1 POP SWAP1 JUMP JUMPDEST PUSH1 0x0 PUSH1 0x3 PUSH1 0x0 SWAP1 SLOAD SWAP1 PUSH2 0x100 EXP SWAP1 DIV PUSH20 0xFFFFFFFFFFFFFFFFFFFFFFFFFFFFFFFFFFFFFFFF AND SWAP1 POP SWAP1 JUMP JUMPDEST PUSH1 0x3 PUSH1 0x0 SWAP1 SLOAD SWAP1 PUSH2 0x100 EXP SWAP1 DIV PUSH20 0xFFFFFFFFFFFFFFFFFFFFFFFFFFFFFFFFFFFFFFFF AND PUSH20 0xFFFFFFFFFFFFFFFFFFFFFFFFFFFFFFFFFFFFFFFF AND CALLER PUSH20 0xFFFFFFFFFFFFFFFFFFFFFFFFFFFFFFFFFFFFFFFF AND EQ PUSH2 0x350 JUMPI PUSH1 0x40 MLOAD PUSH32 0x8C379A000000000000000000000000000000000000000000000000000000000 DUP2 MSTORE PUSH1 0x4 ADD PUSH2 0x347 SWAP1 PUSH2 0xAC9 JUMP JUMPDEST PUSH1 0x40 MLOAD DUP1 SWAP2 SUB SWAP1 REVERT JUMPDEST PUSH1 0x5 PUSH1 0x14 SWAP1 SLOAD SWAP1 PUSH2 0x100 EXP SWAP1 DIV PUSH1 0xFF AND ISZERO PUSH1 0x5 PUSH1 0x14 PUSH2 0x100 EXP DUP2 SLOAD DUP2 PUSH1 0xFF MUL NOT AND SWAP1 DUP4 ISZERO ISZERO MUL OR SWAP1 SSTORE POP JUMP JUMPDEST PUSH1 0x0 DUP1 PUSH2 0x388 DUP5 PUSH2 0x6D1 JUMP JUMPDEST SWAP1 POP PUSH1 0x0 PUSH2 0x395 DUP5 PUSH2 0x7DD JUMP JUMPDEST SWAP1 POP PUSH8 0xDE0B6B3A7640000 PUSH1 0xA DUP3 DUP5 PUSH2 0x3AE SWAP2 SWAP1 PUSH2 0xB9C JUMP JUMPDEST PUSH2 0x3B8 SWAP2 SWAP1 PUSH2 0xB6B JUMP JUMPDEST PUSH2 0x3C2 SWAP2 SWAP1 PUSH2 0xB9C JUMP JUMPDEST SWAP3 POP POP POP SWAP3 SWAP2 POP POP JUMP JUMPDEST PUSH1 0x3 PUSH1 0x0 SWAP1 SLOAD SWAP1 PUSH2 0x100 EXP SWAP1 DIV PUSH20 0xFFFFFFFFFFFFFFFFFFFFFFFFFFFFFFFFFFFFFFFF AND PUSH20 0xFFFFFFFFFFFFFFFFFFFFFFFFFFFFFFFFFFFFFFFF AND CALLER PUSH20 0xFFFFFFFFFFFFFFFFFFFFFFFFFFFFFFFFFFFFFFFF AND EQ PUSH2 0x45C JUMPI PUSH1 0x40 MLOAD PUSH32 0x8C379A000000000000000000000000000000000000000000000000000000000 DUP2 MSTORE PUSH1 0x4 ADD PUSH2 0x453 SWAP1 PUSH2 0xAC9 JUMP JUMPDEST PUSH1 0x40 MLOAD DUP1 SWAP2 SUB SWAP1 REVERT JUMPDEST PUSH2 0x477 PUSH8 0xDE0B6B3A7640000 DUP4 PUSH2 0x82B SWAP1 SWAP2 SWAP1 PUSH4 0xFFFFFFFF AND JUMP JUMPDEST PUSH1 0x6 DUP2 SWAP1 SSTORE POP PUSH2 0x498 PUSH8 0xDE0B6B3A7640000 DUP3 PUSH2 0x82B SWAP1 SWAP2 SWAP1 PUSH4 0xFFFFFFFF AND JUMP JUMPDEST PUSH1 0x7 DUP2 SWAP1 SSTORE POP DUP7 PUSH1 0x0 DUP1 PUSH2 0x100 EXP DUP2 SLOAD DUP2 PUSH20 0xFFFFFFFFFFFFFFFFFFFFFFFFFFFFFFFFFFFFFFFF MUL NOT AND SWAP1 DUP4 PUSH20 0xFFFFFFFFFFFFFFFFFFFFFFFFFFFFFFFFFFFFFFFF AND MUL OR SWAP1 SSTORE POP DUP6 PUSH1 0x1 PUSH1 0x0 PUSH2 0x100 EXP DUP2 SLOAD DUP2 PUSH20 0xFFFFFFFFFFFFFFFFFFFFFFFFFFFFFFFFFFFFFFFF MUL NOT AND SWAP1 DUP4 PUSH20 0xFFFFFFFFFFFFFFFFFFFFFFFFFFFFFFFFFFFFFFFF AND MUL OR SWAP1 SSTORE POP DUP5 PUSH1 0x2 PUSH1 0x0 PUSH2 0x100 EXP DUP2 SLOAD DUP2 PUSH20 0xFFFFFFFFFFFFFFFFFFFFFFFFFFFFFFFFFFFFFFFF MUL NOT AND SWAP1 DUP4 PUSH20 0xFFFFFFFFFFFFFFFFFFFFFFFFFFFFFFFFFFFFFFFF AND MUL OR SWAP1 SSTORE POP DUP4 PUSH1 0x4 PUSH1 0x0 PUSH2 0x100 EXP DUP2 SLOAD DUP2 PUSH20 0xFFFFFFFFFFFFFFFFFFFFFFFFFFFFFFFFFFFFFFFF MUL NOT AND SWAP1 DUP4 PUSH20 0xFFFFFFFFFFFFFFFFFFFFFFFFFFFFFFFFFFFFFFFF AND MUL OR SWAP1 SSTORE POP DUP3 PUSH1 0x5 PUSH1 0x0 PUSH2 0x100 EXP DUP2 SLOAD DUP2 PUSH20 0xFFFFFFFFFFFFFFFFFFFFFFFFFFFFFFFFFFFFFFFF MUL NOT AND SWAP1 DUP4 PUSH20 0xFFFFFFFFFFFFFFFFFFFFFFFFFFFFFFFFFFFFFFFF AND MUL OR SWAP1 SSTORE POP POP POP POP POP POP POP POP JUMP JUMPDEST PUSH1 0x0 PUSH1 0x2 PUSH1 0x0 SWAP1 SLOAD SWAP1 PUSH2 0x100 EXP SWAP1 DIV PUSH20 0xFFFFFFFFFFFFFFFFFFFFFFFFFFFFFFFFFFFFFFFF AND SWAP1 POP SWAP1 JUMP JUMPDEST PUSH1 0x3 PUSH1 0x0 SWAP1 SLOAD SWAP1 PUSH2 0x100 EXP SWAP1 DIV PUSH20 0xFFFFFFFFFFFFFFFFFFFFFFFFFFFFFFFFFFFFFFFF AND PUSH20 0xFFFFFFFFFFFFFFFFFFFFFFFFFFFFFFFFFFFFFFFF AND CALLER PUSH20 0xFFFFFFFFFFFFFFFFFFFFFFFFFFFFFFFFFFFFFFFF AND EQ PUSH2 0x6A5 JUMPI PUSH1 0x40 MLOAD PUSH32 0x8C379A000000000000000000000000000000000000000000000000000000000 DUP2 MSTORE PUSH1 0x4 ADD PUSH2 0x69C SWAP1 PUSH2 0xAC9 JUMP JUMPDEST PUSH1 0x40 MLOAD DUP1 SWAP2 SUB SWAP1 REVERT JUMPDEST PUSH1 0x5 PUSH1 0x15 SWAP1 SLOAD SWAP1 PUSH2 0x100 EXP SWAP1 DIV PUSH1 0xFF AND ISZERO PUSH1 0x5 PUSH1 0x15 PUSH2 0x100 EXP DUP2 SLOAD DUP2 PUSH1 0xFF MUL NOT AND SWAP1 DUP4 ISZERO ISZERO MUL OR SWAP1 SSTORE POP JUMP JUMPDEST PUSH1 0x0 DUP1 DUP3 DUP1 MLOAD SWAP1 PUSH1 0x20 ADD KECCAK256 SWAP1 POP PUSH32 0x8C57226533EC41D2857120DF9ACE6DFF88130D9B32385E09C9828F75027730F3 DUP2 EQ PUSH2 0x7CD JUMPI PUSH32 0x181EBE3A8FA130246D49BFD123AC54849B05BDCD02C6B1322C78DE2A3988A310 DUP2 EQ PUSH2 0x7C4 JUMPI PUSH32 0x6764D804D57285AE9D4C42CC380377D3D0EE9B90FF9EECCAA32D3B2E3E8D7F17 DUP2 EQ PUSH2 0x7BB JUMPI PUSH32 0xB2C1AAAF9F516585466C9876E2EAF06EE68751AAD537B2A6FA22F473D03B58EB DUP2 EQ PUSH2 0x7B0 JUMPI PUSH32 0xB5333297A8BD10E190CB97FB1EE0F49587C8B2E015370E943C69FD680DABC6BD DUP2 EQ PUSH2 0x7A8 JUMPI PUSH1 0x0 PUSH2 0x7AB JUMP JUMPDEST PUSH1 0xC8 JUMPDEST PUSH2 0x7B3 JUMP JUMPDEST PUSH1 0xE1 JUMPDEST PUSH1 0xFF AND PUSH2 0x7BF JUMP JUMPDEST PUSH2 0x12C JUMPDEST PUSH2 0x7C8 JUMP JUMPDEST PUSH2 0x1C2 JUMPDEST PUSH2 0x7D1 JUMP JUMPDEST PUSH2 0x2A3 JUMPDEST PUSH2 0xFFFF AND SWAP2 POP POP SWAP2 SWAP1 POP JUMP JUMPDEST PUSH1 0x0 PUSH1 0x1 DUP3 EQ PUSH2 0x81E JUMPI PUSH1 0x2 DUP3 EQ PUSH2 0x816 JUMPI PUSH1 0x3 DUP3 EQ PUSH2 0x80E JUMPI PUSH1 0x4 DUP3 EQ PUSH2 0x806 JUMPI PUSH1 0x0 PUSH2 0x809 JUMP JUMPDEST PUSH1 0x50 JUMPDEST PUSH2 0x811 JUMP JUMPDEST PUSH1 0x2A JUMPDEST PUSH2 0x819 JUMP JUMPDEST PUSH1 0x16 JUMPDEST PUSH2 0x821 JUMP JUMPDEST PUSH1 0xF JUMPDEST PUSH1 0xFF AND SWAP1 POP SWAP2 SWAP1 POP JUMP JUMPDEST PUSH1 0x0 DUP2 DUP4 PUSH2 0x839 SWAP2 SWAP1 PUSH2 0xB9C JUMP JUMPDEST SWAP1 POP SWAP3 SWAP2 POP POP JUMP JUMPDEST PUSH1 0x0 PUSH2 0x854 PUSH2 0x84F DUP5 PUSH2 0xB29 JUMP JUMPDEST PUSH2 0xB04 JUMP JUMPDEST SWAP1 POP DUP3 DUP2 MSTORE PUSH1 0x20 DUP2 ADD DUP5 DUP5 DUP5 ADD GT ISZERO PUSH2 0x86C JUMPI PUSH1 0x0 DUP1 REVERT JUMPDEST PUSH2 0x877 DUP5 DUP3 DUP6 PUSH2 0xCBC JUMP JUMPDEST POP SWAP4 SWAP3 POP POP POP JUMP JUMPDEST PUSH1 0x0 DUP2 CALLDATALOAD SWAP1 POP PUSH2 0x88E DUP2 PUSH2 0xDC3 JUMP JUMPDEST SWAP3 SWAP2 POP POP JUMP JUMPDEST PUSH1 0x0 DUP3 PUSH1 0x1F DUP4 ADD SLT PUSH2 0x8A5 JUMPI PUSH1 0x0 DUP1 REVERT JUMPDEST DUP2 CALLDATALOAD PUSH2 0x8B5 DUP5 DUP3 PUSH1 0x20 DUP7 ADD PUSH2 0x841 JUMP JUMPDEST SWAP2 POP POP SWAP3 SWAP2 POP POP JUMP JUMPDEST PUSH1 0x0 DUP2 CALLDATALOAD SWAP1 POP PUSH2 0x8CD DUP2 PUSH2 0xDDA JUMP JUMPDEST SWAP3 SWAP2 POP POP JUMP JUMPDEST PUSH1 0x0 DUP1 PUSH1 0x0 DUP1 PUSH1 0x0 DUP1 PUSH1 0x0 PUSH1 0xE0 DUP9 DUP11 SUB SLT ISZERO PUSH2 0x8EE JUMPI PUSH1 0x0 DUP1 REVERT JUMPDEST PUSH1 0x0 PUSH2 0x8FC DUP11 DUP3 DUP12 ADD PUSH2 0x87F JUMP JUMPDEST SWAP8 POP POP PUSH1 0x20 PUSH2 0x90D DUP11 DUP3 DUP12 ADD PUSH2 0x87F JUMP JUMPDEST SWAP7 POP POP PUSH1 0x40 PUSH2 0x91E DUP11 DUP3 DUP12 ADD PUSH2 0x87F JUMP JUMPDEST SWAP6 POP POP PUSH1 0x60 PUSH2 0x92F DUP11 DUP3 DUP12 ADD PUSH2 0x87F JUMP JUMPDEST SWAP5 POP POP PUSH1 0x80 PUSH2 0x940 DUP11 DUP3 DUP12 ADD PUSH2 0x87F JUMP JUMPDEST SWAP4 POP POP PUSH1 0xA0 PUSH2 0x951 DUP11 DUP3 DUP12 ADD PUSH2 0x8BE JUMP JUMPDEST SWAP3 POP POP PUSH1 0xC0 PUSH2 0x962 DUP11 DUP3 DUP12 ADD PUSH2 0x8BE JUMP JUMPDEST SWAP2 POP POP SWAP3 SWAP6 SWAP9 SWAP2 SWAP5 SWAP8 POP SWAP3 SWAP6 POP JUMP JUMPDEST PUSH1 0x0 DUP1 PUSH1 0x40 DUP4 DUP6 SUB SLT ISZERO PUSH2 0x984 JUMPI PUSH1 0x0 DUP1 REVERT JUMPDEST PUSH1 0x0 DUP4 ADD CALLDATALOAD PUSH8 0xFFFFFFFFFFFFFFFF DUP2 GT ISZERO PUSH2 0x99E JUMPI PUSH1 0x0 DUP1 REVERT JUMPDEST PUSH2 0x9AA DUP6 DUP3 DUP7 ADD PUSH2 0x894 JUMP JUMPDEST SWAP3 POP POP PUSH1 0x20 PUSH2 0x9BB DUP6 DUP3 DUP7 ADD PUSH2 0x8BE JUMP JUMPDEST SWAP2 POP POP SWAP3 POP SWAP3 SWAP1 POP JUMP JUMPDEST PUSH2 0x9CE DUP2 PUSH2 0xC08 JUMP JUMPDEST DUP3 MSTORE POP POP JUMP JUMPDEST PUSH2 0x9DD DUP2 PUSH2 0xC1A JUMP JUMPDEST DUP3 MSTORE POP POP JUMP JUMPDEST PUSH2 0x9EC DUP2 PUSH2 0xC50 JUMP JUMPDEST DUP3 MSTORE POP POP JUMP JUMPDEST PUSH2 0x9FB DUP2 PUSH2 0xC74 JUMP JUMPDEST DUP3 MSTORE POP POP JUMP JUMPDEST PUSH2 0xA0A DUP2 PUSH2 0xC98 JUMP JUMPDEST DUP3 MSTORE POP POP JUMP JUMPDEST PUSH1 0x0 PUSH2 0xA1D PUSH1 0x1A DUP4 PUSH2 0xB5A JUMP JUMPDEST SWAP2 POP PUSH2 0xA28 DUP3 PUSH2 0xD9A JUMP JUMPDEST PUSH1 0x20 DUP3 ADD SWAP1 POP SWAP2 SWAP1 POP JUMP JUMPDEST PUSH2 0xA3C DUP2 PUSH2 0xC46 JUMP JUMPDEST DUP3 MSTORE POP POP JUMP JUMPDEST PUSH1 0x0 PUSH1 0x20 DUP3 ADD SWAP1 POP PUSH2 0xA57 PUSH1 0x0 DUP4 ADD DUP5 PUSH2 0x9C5 JUMP JUMPDEST SWAP3 SWAP2 POP POP JUMP JUMPDEST PUSH1 0x0 PUSH1 0x20 DUP3 ADD SWAP1 POP PUSH2 0xA72 PUSH1 0x0 DUP4 ADD DUP5 PUSH2 0x9D4 JUMP JUMPDEST SWAP3 SWAP2 POP POP JUMP JUMPDEST PUSH1 0x0 PUSH1 0x20 DUP3 ADD SWAP1 POP PUSH2 0xA8D PUSH1 0x0 DUP4 ADD DUP5 PUSH2 0x9E3 JUMP JUMPDEST SWAP3 SWAP2 POP POP JUMP JUMPDEST PUSH1 0x0 PUSH1 0x20 DUP3 ADD SWAP1 POP PUSH2 0xAA8 PUSH1 0x0 DUP4 ADD DUP5 PUSH2 0x9F2 JUMP JUMPDEST SWAP3 SWAP2 POP POP JUMP JUMPDEST PUSH1 0x0 PUSH1 0x20 DUP3 ADD SWAP1 POP PUSH2 0xAC3 PUSH1 0x0 DUP4 ADD DUP5 PUSH2 0xA01 JUMP JUMPDEST SWAP3 SWAP2 POP POP JUMP JUMPDEST PUSH1 0x0 PUSH1 0x20 DUP3 ADD SWAP1 POP DUP2 DUP2 SUB PUSH1 0x0 DUP4 ADD MSTORE PUSH2 0xAE2 DUP2 PUSH2 0xA10 JUMP JUMPDEST SWAP1 POP SWAP2 SWAP1 POP JUMP JUMPDEST PUSH1 0x0 PUSH1 0x20 DUP3 ADD SWAP1 POP PUSH2 0xAFE PUSH1 0x0 DUP4 ADD DUP5 PUSH2 0xA33 JUMP JUMPDEST SWAP3 SWAP2 POP POP JUMP JUMPDEST PUSH1 0x0 PUSH2 0xB0E PUSH2 0xB1F JUMP JUMPDEST SWAP1 POP PUSH2 0xB1A DUP3 DUP3 PUSH2 0xCCB JUMP JUMPDEST SWAP2 SWAP1 POP JUMP JUMPDEST PUSH1 0x0 PUSH1 0x40 MLOAD SWAP1 POP SWAP1 JUMP JUMPDEST PUSH1 0x0 PUSH8 0xFFFFFFFFFFFFFFFF DUP3 GT ISZERO PUSH2 0xB44 JUMPI PUSH2 0xB43 PUSH2 0xD5A JUMP JUMPDEST JUMPDEST PUSH2 0xB4D DUP3 PUSH2 0xD89 JUMP JUMPDEST SWAP1 POP PUSH1 0x20 DUP2 ADD SWAP1 POP SWAP2 SWAP1 POP JUMP JUMPDEST PUSH1 0x0 DUP3 DUP3 MSTORE PUSH1 0x20 DUP3 ADD SWAP1 POP SWAP3 SWAP2 POP POP JUMP JUMPDEST PUSH1 0x0 PUSH2 0xB76 DUP3 PUSH2 0xC46 JUMP JUMPDEST SWAP2 POP PUSH2 0xB81 DUP4 PUSH2 0xC46 JUMP JUMPDEST SWAP3 POP DUP3 PUSH2 0xB91 JUMPI PUSH2 0xB90 PUSH2 0xD2B JUMP JUMPDEST JUMPDEST DUP3 DUP3 DIV SWAP1 POP SWAP3 SWAP2 POP POP JUMP JUMPDEST PUSH1 0x0 PUSH2 0xBA7 DUP3 PUSH2 0xC46 JUMP JUMPDEST SWAP2 POP PUSH2 0xBB2 DUP4 PUSH2 0xC46 JUMP JUMPDEST SWAP3 POP DUP2 PUSH32 0xFFFFFFFFFFFFFFFFFFFFFFFFFFFFFFFFFFFFFFFFFFFFFFFFFFFFFFFFFFFFFFFF DIV DUP4 GT DUP3 ISZERO ISZERO AND ISZERO PUSH2 0xBEB JUMPI PUSH2 0xBEA PUSH2 0xCFC JUMP JUMPDEST JUMPDEST DUP3 DUP3 MUL SWAP1 POP SWAP3 SWAP2 POP POP JUMP JUMPDEST PUSH1 0x0 PUSH2 0xC01 DUP3 PUSH2 0xC26 JUMP JUMPDEST SWAP1 POP SWAP2 SWAP1 POP JUMP JUMPDEST PUSH1 0x0 PUSH2 0xC13 DUP3 PUSH2 0xC26 JUMP JUMPDEST SWAP1 POP SWAP2 SWAP1 POP JUMP JUMPDEST PUSH1 0x0 DUP2 ISZERO ISZERO SWAP1 POP SWAP2 SWAP1 POP JUMP JUMPDEST PUSH1 0x0 PUSH20 0xFFFFFFFFFFFFFFFFFFFFFFFFFFFFFFFFFFFFFFFF DUP3 AND SWAP1 POP SWAP2 SWAP1 POP JUMP JUMPDEST PUSH1 0x0 DUP2 SWAP1 POP SWAP2 SWAP1 POP JUMP JUMPDEST PUSH1 0x0 PUSH2 0xC5B DUP3 PUSH2 0xC62 JUMP JUMPDEST SWAP1 POP SWAP2 SWAP1 POP JUMP JUMPDEST PUSH1 0x0 PUSH2 0xC6D DUP3 PUSH2 0xC26 JUMP JUMPDEST SWAP1 POP SWAP2 SWAP1 POP JUMP JUMPDEST PUSH1 0x0 PUSH2 0xC7F DUP3 PUSH2 0xC86 JUMP JUMPDEST SWAP1 POP SWAP2 SWAP1 POP JUMP JUMPDEST PUSH1 0x0 PUSH2 0xC91 DUP3 PUSH2 0xC26 JUMP JUMPDEST SWAP1 POP SWAP2 SWAP1 POP JUMP JUMPDEST PUSH1 0x0 PUSH2 0xCA3 DUP3 PUSH2 0xCAA JUMP JUMPDEST SWAP1 POP SWAP2 SWAP1 POP JUMP JUMPDEST PUSH1 0x0 PUSH2 0xCB5 DUP3 PUSH2 0xC26 JUMP JUMPDEST SWAP1 POP SWAP2 SWAP1 POP JUMP JUMPDEST DUP3 DUP2 DUP4 CALLDATACOPY PUSH1 0x0 DUP4 DUP4 ADD MSTORE POP POP POP JUMP JUMPDEST PUSH2 0xCD4 DUP3 PUSH2 0xD89 JUMP JUMPDEST DUP2 ADD DUP2 DUP2 LT PUSH8 0xFFFFFFFFFFFFFFFF DUP3 GT OR ISZERO PUSH2 0xCF3 JUMPI PUSH2 0xCF2 PUSH2 0xD5A JUMP JUMPDEST JUMPDEST DUP1 PUSH1 0x40 MSTORE POP POP POP JUMP JUMPDEST PUSH32 0x4E487B7100000000000000000000000000000000000000000000000000000000 PUSH1 0x0 MSTORE PUSH1 0x11 PUSH1 0x4 MSTORE PUSH1 0x24 PUSH1 0x0 REVERT JUMPDEST PUSH32 0x4E487B7100000000000000000000000000000000000000000000000000000000 PUSH1 0x0 MSTORE PUSH1 0x12 PUSH1 0x4 MSTORE PUSH1 0x24 PUSH1 0x0 REVERT JUMPDEST PUSH32 0x4E487B7100000000000000000000000000000000000000000000000000000000 PUSH1 0x0 MSTORE PUSH1 0x41 PUSH1 0x4 MSTORE PUSH1 0x24 PUSH1 0x0 REVERT JUMPDEST PUSH1 0x0 PUSH1 0x1F NOT PUSH1 0x1F DUP4 ADD AND SWAP1 POP SWAP2 SWAP1 POP JUMP JUMPDEST PUSH32 0x4865726F436F7265204572726F72203A206F6E6C794F776E6572000000000000 PUSH1 0x0 DUP3 ADD MSTORE POP JUMP JUMPDEST PUSH2 0xDCC DUP2 PUSH2 0xBF6 JUMP JUMPDEST DUP2 EQ PUSH2 0xDD7 JUMPI PUSH1 0x0 DUP1 REVERT JUMPDEST POP JUMP JUMPDEST PUSH2 0xDE3 DUP2 PUSH2 0xC46 JUMP JUMPDEST DUP2 EQ PUSH2 0xDEE JUMPI PUSH1 0x0 DUP1 REVERT JUMPDEST POP JUMP INVALID LOG2 PUSH5 0x6970667358 0x22 SLT KECCAK256 LOG2 POP SDIV DIFFICULTY NUMBER ORIGIN 0xEF 0xCC PUSH6 0x33A7C99F90D6 PUSH19 0x16FD290DD3D6F98376626D091F3CE05E64736F PUSH13 0x63430008040033000000000000 "
				},
				"gasEstimates": {
					"creation": {
						"codeDepositCost": "724600",
						"executionCost": "63460",
						"totalCost": "788060"
					},
					"external": {
						"calculateTokenAmount(string,uint256)": "infinite",
						"changeMiningPaused()": "22930",
						"changePaused()": "22842",
						"getHeroNFT()": "1376",
						"getItem()": "1353",
						"getMiningPaused()": "1274",
						"getOwner()": "1222",
						"getPaused()": "1318",
						"getToken()": "1288",
						"initialize(address,address,address,address,address,uint256,uint256)": "infinite",
						"priceOfKlay()": "1196",
						"priceOfToken()": "1130"
					},
					"internal": {
						"calculateBasicGradeAmount(string memory)": "infinite",
						"calculateBasicLevelAmount(uint256)": "170",
						"calculateItemIndex(uint256)": "infinite",
						"calculatePower(string memory,uint256)": "infinite",
						"makeRandomNumberForItem(uint256)": "infinite"
					}
				},
				"methodIdentifiers": {
					"calculateTokenAmount(string,uint256)": "aa93c0ee",
					"changeMiningPaused()": "ee72b8cc",
					"changePaused()": "9eb4eae5",
					"getHeroNFT()": "7cac00ee",
					"getItem()": "c412eaba",
					"getMiningPaused()": "28919df6",
					"getOwner()": "893d20e8",
					"getPaused()": "6805b84b",
					"getToken()": "21df0da7",
					"initialize(address,address,address,address,address,uint256,uint256)": "b33f9527",
					"priceOfKlay()": "3a1a8080",
					"priceOfToken()": "1b9cbdfb"
				}
			},
			"storageLayout": {
				"storage": [
					{
						"astId": 41,
						"contract": "Hero/utils/LevelDiagram.sol:LevelDiagram",
						"label": "heroNFT",
						"offset": 0,
						"slot": "0",
						"type": "t_contract(IHeroNFT)30"
					},
					{
						"astId": 44,
						"contract": "Hero/utils/LevelDiagram.sol:LevelDiagram",
						"label": "token",
						"offset": 0,
						"slot": "1",
						"type": "t_contract(IKIP7)983"
					},
					{
						"astId": 47,
						"contract": "Hero/utils/LevelDiagram.sol:LevelDiagram",
						"label": "item",
						"offset": 0,
						"slot": "2",
						"type": "t_contract(IKIP37Full)852"
					},
					{
						"astId": 49,
						"contract": "Hero/utils/LevelDiagram.sol:LevelDiagram",
						"label": "coreOwner",
						"offset": 0,
						"slot": "3",
						"type": "t_address_payable"
					},
					{
						"astId": 51,
						"contract": "Hero/utils/LevelDiagram.sol:LevelDiagram",
						"label": "depositAddress",
						"offset": 0,
						"slot": "4",
						"type": "t_address"
					},
					{
						"astId": 53,
						"contract": "Hero/utils/LevelDiagram.sol:LevelDiagram",
						"label": "miningAddress",
						"offset": 0,
						"slot": "5",
						"type": "t_address"
					},
					{
						"astId": 55,
						"contract": "Hero/utils/LevelDiagram.sol:LevelDiagram",
						"label": "paused",
						"offset": 20,
						"slot": "5",
						"type": "t_bool"
					},
					{
						"astId": 57,
						"contract": "Hero/utils/LevelDiagram.sol:LevelDiagram",
						"label": "miningPaused",
						"offset": 21,
						"slot": "5",
						"type": "t_bool"
					},
					{
						"astId": 59,
						"contract": "Hero/utils/LevelDiagram.sol:LevelDiagram",
						"label": "priceOfKlay",
						"offset": 0,
						"slot": "6",
						"type": "t_uint256"
					},
					{
						"astId": 61,
						"contract": "Hero/utils/LevelDiagram.sol:LevelDiagram",
						"label": "priceOfToken",
						"offset": 0,
						"slot": "7",
						"type": "t_uint256"
					}
				],
				"types": {
					"t_address": {
						"encoding": "inplace",
						"label": "address",
						"numberOfBytes": "20"
					},
					"t_address_payable": {
						"encoding": "inplace",
						"label": "address payable",
						"numberOfBytes": "20"
					},
					"t_bool": {
						"encoding": "inplace",
						"label": "bool",
						"numberOfBytes": "1"
					},
					"t_contract(IHeroNFT)30": {
						"encoding": "inplace",
						"label": "contract IHeroNFT",
						"numberOfBytes": "20"
					},
					"t_contract(IKIP37Full)852": {
						"encoding": "inplace",
						"label": "contract IKIP37Full",
						"numberOfBytes": "20"
					},
					"t_contract(IKIP7)983": {
						"encoding": "inplace",
						"label": "contract IKIP7",
						"numberOfBytes": "20"
					},
					"t_uint256": {
						"encoding": "inplace",
						"label": "uint256",
						"numberOfBytes": "32"
					}
				}
			},
			"userdoc": {
				"kind": "user",
				"methods": {},
				"version": 1
			}
		}
	}
}