{
	"Hero/utils/HeroController.sol": {
		"HeroController": {
			"abi": [
				{
					"inputs": [],
					"stateMutability": "nonpayable",
					"type": "constructor"
				},
				{
					"inputs": [],
					"name": "changeMiningPaused",
					"outputs": [],
					"stateMutability": "nonpayable",
					"type": "function"
				},
				{
					"inputs": [],
					"name": "changePaused",
					"outputs": [],
					"stateMutability": "nonpayable",
					"type": "function"
				},
				{
					"inputs": [],
					"name": "getHeroNFT",
					"outputs": [
						{
							"internalType": "contract IHeroNFT",
							"name": "",
							"type": "address"
						}
					],
					"stateMutability": "view",
					"type": "function"
				},
				{
					"inputs": [],
					"name": "getItem",
					"outputs": [
						{
							"internalType": "contract IKIP37Full",
							"name": "",
							"type": "address"
						}
					],
					"stateMutability": "view",
					"type": "function"
				},
				{
					"inputs": [],
					"name": "getMiningPaused",
					"outputs": [
						{
							"internalType": "bool",
							"name": "",
							"type": "bool"
						}
					],
					"stateMutability": "view",
					"type": "function"
				},
				{
					"inputs": [],
					"name": "getOwner",
					"outputs": [
						{
							"internalType": "address payable",
							"name": "",
							"type": "address"
						}
					],
					"stateMutability": "view",
					"type": "function"
				},
				{
					"inputs": [],
					"name": "getPaused",
					"outputs": [
						{
							"internalType": "bool",
							"name": "",
							"type": "bool"
						}
					],
					"stateMutability": "view",
					"type": "function"
				},
				{
					"inputs": [],
					"name": "getToken",
					"outputs": [
						{
							"internalType": "contract IKIP7",
							"name": "",
							"type": "address"
						}
					],
					"stateMutability": "view",
					"type": "function"
				},
				{
					"inputs": [
						{
							"internalType": "address",
							"name": "_heroNFT",
							"type": "address"
						},
						{
							"internalType": "address",
							"name": "_token",
							"type": "address"
						},
						{
							"internalType": "address",
							"name": "_item",
							"type": "address"
						},
						{
							"internalType": "address",
							"name": "_levelDiagram",
							"type": "address"
						},
						{
							"internalType": "address",
							"name": "_depositAddress",
							"type": "address"
						},
						{
							"internalType": "address",
							"name": "_miningAddress",
							"type": "address"
						},
						{
							"internalType": "uint256",
							"name": "_klay",
							"type": "uint256"
						},
						{
							"internalType": "uint256",
							"name": "_tokenPrice",
							"type": "uint256"
						}
					],
					"name": "initialize",
					"outputs": [],
					"stateMutability": "nonpayable",
					"type": "function"
				},
				{
					"inputs": [],
					"name": "priceOfKlay",
					"outputs": [
						{
							"internalType": "uint256",
							"name": "",
							"type": "uint256"
						}
					],
					"stateMutability": "view",
					"type": "function"
				},
				{
					"inputs": [],
					"name": "priceOfToken",
					"outputs": [
						{
							"internalType": "uint256",
							"name": "",
							"type": "uint256"
						}
					],
					"stateMutability": "view",
					"type": "function"
				}
			],
			"devdoc": {
				"kind": "dev",
				"methods": {},
				"version": 1
			},
			"evm": {
				"assembly": "    /* \"Hero/utils/HeroController.sol\":261:2538  contract HeroController {... */\n  mstore(0x40, 0x80)\n    /* \"Hero/utils/HeroController.sol\":911:1025  constructor() {... */\n  callvalue\n  dup1\n  iszero\n  tag_1\n  jumpi\n  0x00\n  dup1\n  revert\ntag_1:\n  pop\n    /* \"Hero/utils/HeroController.sol\":944:948  true */\n  0x01\n    /* \"Hero/utils/HeroController.sol\":935:941  paused */\n  0x06\n  0x14\n    /* \"Hero/utils/HeroController.sol\":935:948  paused = true */\n  0x0100\n  exp\n  dup2\n  sload\n  dup2\n  0xff\n  mul\n  not\n  and\n  swap1\n  dup4\n  iszero\n  iszero\n  mul\n  or\n  swap1\n  sstore\n  pop\n    /* \"Hero/utils/HeroController.sol\":973:977  true */\n  0x01\n    /* \"Hero/utils/HeroController.sol\":958:970  miningPaused */\n  0x06\n  0x15\n    /* \"Hero/utils/HeroController.sol\":958:977  miningPaused = true */\n  0x0100\n  exp\n  dup2\n  sload\n  dup2\n  0xff\n  mul\n  not\n  and\n  swap1\n  dup4\n  iszero\n  iszero\n  mul\n  or\n  swap1\n  sstore\n  pop\n    /* \"Hero/utils/HeroController.sol\":1007:1017  msg.sender */\n  caller\n    /* \"Hero/utils/HeroController.sol\":987:996  coreOwner */\n  0x04\n  0x00\n    /* \"Hero/utils/HeroController.sol\":987:1018  coreOwner = payable(msg.sender) */\n  0x0100\n  exp\n  dup2\n  sload\n  dup2\n  0xffffffffffffffffffffffffffffffffffffffff\n  mul\n  not\n  and\n  swap1\n  dup4\n  0xffffffffffffffffffffffffffffffffffffffff\n  and\n  mul\n  or\n  swap1\n  sstore\n  pop\n    /* \"Hero/utils/HeroController.sol\":261:2538  contract HeroController {... */\n  dataSize(sub_0)\n  dup1\n  dataOffset(sub_0)\n  0x00\n  codecopy\n  0x00\n  return\nstop\n\nsub_0: assembly {\n        /* \"Hero/utils/HeroController.sol\":261:2538  contract HeroController {... */\n      mstore(0x40, 0x80)\n      callvalue\n      dup1\n      iszero\n      tag_1\n      jumpi\n      0x00\n      dup1\n      revert\n    tag_1:\n      pop\n      jumpi(tag_2, lt(calldatasize, 0x04))\n      shr(0xe0, calldataload(0x00))\n      dup1\n      0x7cac00ee\n      gt\n      tag_14\n      jumpi\n      dup1\n      0x7cac00ee\n      eq\n      tag_8\n      jumpi\n      dup1\n      0x893d20e8\n      eq\n      tag_9\n      jumpi\n      dup1\n      0x9eb4eae5\n      eq\n      tag_10\n      jumpi\n      dup1\n      0xc412eaba\n      eq\n      tag_11\n      jumpi\n      dup1\n      0xc740671f\n      eq\n      tag_12\n      jumpi\n      dup1\n      0xee72b8cc\n      eq\n      tag_13\n      jumpi\n      jump(tag_2)\n    tag_14:\n      dup1\n      0x1b9cbdfb\n      eq\n      tag_3\n      jumpi\n      dup1\n      0x21df0da7\n      eq\n      tag_4\n      jumpi\n      dup1\n      0x28919df6\n      eq\n      tag_5\n      jumpi\n      dup1\n      0x3a1a8080\n      eq\n      tag_6\n      jumpi\n      dup1\n      0x6805b84b\n      eq\n      tag_7\n      jumpi\n    tag_2:\n      0x00\n      dup1\n      revert\n        /* \"Hero/utils/HeroController.sol\":627:654  uint256 public priceOfToken */\n    tag_3:\n      tag_15\n      tag_16\n      jump\t// in\n    tag_15:\n      mload(0x40)\n      tag_17\n      swap2\n      swap1\n      tag_18\n      jump\t// in\n    tag_17:\n      mload(0x40)\n      dup1\n      swap2\n      sub\n      swap1\n      return\n        /* \"Hero/utils/HeroController.sol\":2268:2345  function getToken() public view returns (IKIP7) {... */\n    tag_4:\n      tag_19\n      tag_20\n      jump\t// in\n    tag_19:\n      mload(0x40)\n      tag_21\n      swap2\n      swap1\n      tag_22\n      jump\t// in\n    tag_21:\n      mload(0x40)\n      dup1\n      swap2\n      sub\n      swap1\n      return\n        /* \"Hero/utils/HeroController.sol\":2086:2176  function getMiningPaused() public view returns (bool) {... */\n    tag_5:\n      tag_23\n      tag_24\n      jump\t// in\n    tag_23:\n      mload(0x40)\n      tag_25\n      swap2\n      swap1\n      tag_26\n      jump\t// in\n    tag_25:\n      mload(0x40)\n      dup1\n      swap2\n      sub\n      swap1\n      return\n        /* \"Hero/utils/HeroController.sol\":595:621  uint256 public priceOfKlay */\n    tag_6:\n      tag_27\n      tag_28\n      jump\t// in\n    tag_27:\n      mload(0x40)\n      tag_29\n      swap2\n      swap1\n      tag_18\n      jump\t// in\n    tag_29:\n      mload(0x40)\n      dup1\n      swap2\n      sub\n      swap1\n      return\n        /* \"Hero/utils/HeroController.sol\":2002:2080  function getPaused() public view returns (bool) {... */\n    tag_7:\n      tag_30\n      tag_31\n      jump\t// in\n    tag_30:\n      mload(0x40)\n      tag_32\n      swap2\n      swap1\n      tag_26\n      jump\t// in\n    tag_32:\n      mload(0x40)\n      dup1\n      swap2\n      sub\n      swap1\n      return\n        /* \"Hero/utils/HeroController.sol\":2351:2435  function getHeroNFT() public view returns (IHeroNFT) {... */\n    tag_8:\n      tag_33\n      tag_34\n      jump\t// in\n    tag_33:\n      mload(0x40)\n      tag_35\n      swap2\n      swap1\n      tag_36\n      jump\t// in\n    tag_35:\n      mload(0x40)\n      dup1\n      swap2\n      sub\n      swap1\n      return\n        /* \"Hero/utils/HeroController.sol\":1905:1996  function getOwner() public view returns (address payable) {... */\n    tag_9:\n      tag_37\n      tag_38\n      jump\t// in\n    tag_37:\n      mload(0x40)\n      tag_39\n      swap2\n      swap1\n      tag_40\n      jump\t// in\n    tag_39:\n      mload(0x40)\n      dup1\n      swap2\n      sub\n      swap1\n      return\n        /* \"Hero/utils/HeroController.sol\":1691:1767  function changePaused() external onlyOwner {... */\n    tag_10:\n      tag_41\n      tag_42\n      jump\t// in\n    tag_41:\n      stop\n        /* \"Hero/utils/HeroController.sol\":2182:2262  function getItem() public view returns (IKIP37Full) {... */\n    tag_11:\n      tag_43\n      tag_44\n      jump\t// in\n    tag_43:\n      mload(0x40)\n      tag_45\n      swap2\n      swap1\n      tag_46\n      jump\t// in\n    tag_45:\n      mload(0x40)\n      dup1\n      swap2\n      sub\n      swap1\n      return\n        /* \"Hero/utils/HeroController.sol\":1079:1685  function initialize(... */\n    tag_12:\n      tag_47\n      0x04\n      dup1\n      calldatasize\n      sub\n      dup2\n      add\n      swap1\n      tag_48\n      swap2\n      swap1\n      tag_49\n      jump\t// in\n    tag_48:\n      tag_50\n      jump\t// in\n    tag_47:\n      stop\n        /* \"Hero/utils/HeroController.sol\":1773:1867  function changeMiningPaused() external onlyOwner {... */\n    tag_13:\n      tag_51\n      tag_52\n      jump\t// in\n    tag_51:\n      stop\n        /* \"Hero/utils/HeroController.sol\":627:654  uint256 public priceOfToken */\n    tag_16:\n      sload(0x08)\n      dup2\n      jump\t// out\n        /* \"Hero/utils/HeroController.sol\":2268:2345  function getToken() public view returns (IKIP7) {... */\n    tag_20:\n        /* \"Hero/utils/HeroController.sol\":2309:2314  IKIP7 */\n      0x00\n        /* \"Hero/utils/HeroController.sol\":2333:2338  token */\n      0x01\n      0x00\n      swap1\n      sload\n      swap1\n      0x0100\n      exp\n      swap1\n      div\n      0xffffffffffffffffffffffffffffffffffffffff\n      and\n        /* \"Hero/utils/HeroController.sol\":2326:2338  return token */\n      swap1\n      pop\n        /* \"Hero/utils/HeroController.sol\":2268:2345  function getToken() public view returns (IKIP7) {... */\n      swap1\n      jump\t// out\n        /* \"Hero/utils/HeroController.sol\":2086:2176  function getMiningPaused() public view returns (bool) {... */\n    tag_24:\n        /* \"Hero/utils/HeroController.sol\":2134:2138  bool */\n      0x00\n        /* \"Hero/utils/HeroController.sol\":2157:2169  miningPaused */\n      0x06\n      0x15\n      swap1\n      sload\n      swap1\n      0x0100\n      exp\n      swap1\n      div\n      0xff\n      and\n        /* \"Hero/utils/HeroController.sol\":2150:2169  return miningPaused */\n      swap1\n      pop\n        /* \"Hero/utils/HeroController.sol\":2086:2176  function getMiningPaused() public view returns (bool) {... */\n      swap1\n      jump\t// out\n        /* \"Hero/utils/HeroController.sol\":595:621  uint256 public priceOfKlay */\n    tag_28:\n      sload(0x07)\n      dup2\n      jump\t// out\n        /* \"Hero/utils/HeroController.sol\":2002:2080  function getPaused() public view returns (bool) {... */\n    tag_31:\n        /* \"Hero/utils/HeroController.sol\":2044:2048  bool */\n      0x00\n        /* \"Hero/utils/HeroController.sol\":2067:2073  paused */\n      0x06\n      0x14\n      swap1\n      sload\n      swap1\n      0x0100\n      exp\n      swap1\n      div\n      0xff\n      and\n        /* \"Hero/utils/HeroController.sol\":2060:2073  return paused */\n      swap1\n      pop\n        /* \"Hero/utils/HeroController.sol\":2002:2080  function getPaused() public view returns (bool) {... */\n      swap1\n      jump\t// out\n        /* \"Hero/utils/HeroController.sol\":2351:2435  function getHeroNFT() public view returns (IHeroNFT) {... */\n    tag_34:\n        /* \"Hero/utils/HeroController.sol\":2394:2402  IHeroNFT */\n      0x00\n        /* \"Hero/utils/HeroController.sol\":2421:2428  heroNFT */\n      dup1\n      0x00\n      swap1\n      sload\n      swap1\n      0x0100\n      exp\n      swap1\n      div\n      0xffffffffffffffffffffffffffffffffffffffff\n      and\n        /* \"Hero/utils/HeroController.sol\":2414:2428  return heroNFT */\n      swap1\n      pop\n        /* \"Hero/utils/HeroController.sol\":2351:2435  function getHeroNFT() public view returns (IHeroNFT) {... */\n      swap1\n      jump\t// out\n        /* \"Hero/utils/HeroController.sol\":1905:1996  function getOwner() public view returns (address payable) {... */\n    tag_38:\n        /* \"Hero/utils/HeroController.sol\":1946:1961  address payable */\n      0x00\n        /* \"Hero/utils/HeroController.sol\":1980:1989  coreOwner */\n      0x04\n      0x00\n      swap1\n      sload\n      swap1\n      0x0100\n      exp\n      swap1\n      div\n      0xffffffffffffffffffffffffffffffffffffffff\n      and\n        /* \"Hero/utils/HeroController.sol\":1973:1989  return coreOwner */\n      swap1\n      pop\n        /* \"Hero/utils/HeroController.sol\":1905:1996  function getOwner() public view returns (address payable) {... */\n      swap1\n      jump\t// out\n        /* \"Hero/utils/HeroController.sol\":1691:1767  function changePaused() external onlyOwner {... */\n    tag_42:\n        /* \"Hero/utils/HeroController.sol\":847:856  coreOwner */\n      0x04\n      0x00\n      swap1\n      sload\n      swap1\n      0x0100\n      exp\n      swap1\n      div\n      0xffffffffffffffffffffffffffffffffffffffff\n      and\n        /* \"Hero/utils/HeroController.sol\":833:856  msg.sender == coreOwner */\n      0xffffffffffffffffffffffffffffffffffffffff\n      and\n        /* \"Hero/utils/HeroController.sol\":833:843  msg.sender */\n      caller\n        /* \"Hero/utils/HeroController.sol\":833:856  msg.sender == coreOwner */\n      0xffffffffffffffffffffffffffffffffffffffff\n      and\n      eq\n        /* \"Hero/utils/HeroController.sol\":825:887  require(msg.sender == coreOwner, \"HeroCore Error : onlyOwner\") */\n      tag_59\n      jumpi\n      mload(0x40)\n      0x08c379a000000000000000000000000000000000000000000000000000000000\n      dup2\n      mstore\n      0x04\n      add\n      tag_60\n      swap1\n      tag_61\n      jump\t// in\n    tag_60:\n      mload(0x40)\n      dup1\n      swap2\n      sub\n      swap1\n      revert\n    tag_59:\n        /* \"Hero/utils/HeroController.sol\":1754:1760  paused */\n      0x06\n      0x14\n      swap1\n      sload\n      swap1\n      0x0100\n      exp\n      swap1\n      div\n      0xff\n      and\n        /* \"Hero/utils/HeroController.sol\":1753:1760  !paused */\n      iszero\n        /* \"Hero/utils/HeroController.sol\":1744:1750  paused */\n      0x06\n      0x14\n        /* \"Hero/utils/HeroController.sol\":1744:1760  paused = !paused */\n      0x0100\n      exp\n      dup2\n      sload\n      dup2\n      0xff\n      mul\n      not\n      and\n      swap1\n      dup4\n      iszero\n      iszero\n      mul\n      or\n      swap1\n      sstore\n      pop\n        /* \"Hero/utils/HeroController.sol\":1691:1767  function changePaused() external onlyOwner {... */\n      jump\t// out\n        /* \"Hero/utils/HeroController.sol\":2182:2262  function getItem() public view returns (IKIP37Full) {... */\n    tag_44:\n        /* \"Hero/utils/HeroController.sol\":2222:2232  IKIP37Full */\n      0x00\n        /* \"Hero/utils/HeroController.sol\":2251:2255  item */\n      0x02\n      0x00\n      swap1\n      sload\n      swap1\n      0x0100\n      exp\n      swap1\n      div\n      0xffffffffffffffffffffffffffffffffffffffff\n      and\n        /* \"Hero/utils/HeroController.sol\":2244:2255  return item */\n      swap1\n      pop\n        /* \"Hero/utils/HeroController.sol\":2182:2262  function getItem() public view returns (IKIP37Full) {... */\n      swap1\n      jump\t// out\n        /* \"Hero/utils/HeroController.sol\":1079:1685  function initialize(... */\n    tag_50:\n        /* \"Hero/utils/HeroController.sol\":847:856  coreOwner */\n      0x04\n      0x00\n      swap1\n      sload\n      swap1\n      0x0100\n      exp\n      swap1\n      div\n      0xffffffffffffffffffffffffffffffffffffffff\n      and\n        /* \"Hero/utils/HeroController.sol\":833:856  msg.sender == coreOwner */\n      0xffffffffffffffffffffffffffffffffffffffff\n      and\n        /* \"Hero/utils/HeroController.sol\":833:843  msg.sender */\n      caller\n        /* \"Hero/utils/HeroController.sol\":833:856  msg.sender == coreOwner */\n      0xffffffffffffffffffffffffffffffffffffffff\n      and\n      eq\n        /* \"Hero/utils/HeroController.sol\":825:887  require(msg.sender == coreOwner, \"HeroCore Error : onlyOwner\") */\n      tag_65\n      jumpi\n      mload(0x40)\n      0x08c379a000000000000000000000000000000000000000000000000000000000\n      dup2\n      mstore\n      0x04\n      add\n      tag_66\n      swap1\n      tag_61\n      jump\t// in\n    tag_66:\n      mload(0x40)\n      dup1\n      swap2\n      sub\n      swap1\n      revert\n    tag_65:\n        /* \"Hero/utils/HeroController.sol\":1369:1388  _klay.mul(DECIMALS) */\n      tag_68\n        /* \"Hero/utils/HeroController.sol\":696:700  1e18 */\n      0x0de0b6b3a7640000\n        /* \"Hero/utils/HeroController.sol\":1369:1374  _klay */\n      dup4\n        /* \"Hero/utils/HeroController.sol\":1369:1378  _klay.mul */\n      tag_69\n      swap1\n        /* \"Hero/utils/HeroController.sol\":1369:1388  _klay.mul(DECIMALS) */\n      swap2\n      swap1\n      0xffffffff\n      and\n      jump\t// in\n    tag_68:\n        /* \"Hero/utils/HeroController.sol\":1355:1366  priceOfKlay */\n      0x07\n        /* \"Hero/utils/HeroController.sol\":1355:1388  priceOfKlay = _klay.mul(DECIMALS) */\n      dup2\n      swap1\n      sstore\n      pop\n        /* \"Hero/utils/HeroController.sol\":1413:1438  _tokenPrice.mul(DECIMALS) */\n      tag_70\n        /* \"Hero/utils/HeroController.sol\":696:700  1e18 */\n      0x0de0b6b3a7640000\n        /* \"Hero/utils/HeroController.sol\":1413:1424  _tokenPrice */\n      dup3\n        /* \"Hero/utils/HeroController.sol\":1413:1428  _tokenPrice.mul */\n      tag_69\n      swap1\n        /* \"Hero/utils/HeroController.sol\":1413:1438  _tokenPrice.mul(DECIMALS) */\n      swap2\n      swap1\n      0xffffffff\n      and\n      jump\t// in\n    tag_70:\n        /* \"Hero/utils/HeroController.sol\":1398:1410  priceOfToken */\n      0x08\n        /* \"Hero/utils/HeroController.sol\":1398:1438  priceOfToken = _tokenPrice.mul(DECIMALS) */\n      dup2\n      swap1\n      sstore\n      pop\n        /* \"Hero/utils/HeroController.sol\":1468:1476  _heroNFT */\n      dup8\n        /* \"Hero/utils/HeroController.sol\":1449:1456  heroNFT */\n      0x00\n      dup1\n        /* \"Hero/utils/HeroController.sol\":1449:1477  heroNFT = IHeroNFT(_heroNFT) */\n      0x0100\n      exp\n      dup2\n      sload\n      dup2\n      0xffffffffffffffffffffffffffffffffffffffff\n      mul\n      not\n      and\n      swap1\n      dup4\n      0xffffffffffffffffffffffffffffffffffffffff\n      and\n      mul\n      or\n      swap1\n      sstore\n      pop\n        /* \"Hero/utils/HeroController.sol\":1501:1507  _token */\n      dup7\n        /* \"Hero/utils/HeroController.sol\":1487:1492  token */\n      0x01\n      0x00\n        /* \"Hero/utils/HeroController.sol\":1487:1508  token = IKIP7(_token) */\n      0x0100\n      exp\n      dup2\n      sload\n      dup2\n      0xffffffffffffffffffffffffffffffffffffffff\n      mul\n      not\n      and\n      swap1\n      dup4\n      0xffffffffffffffffffffffffffffffffffffffff\n      and\n      mul\n      or\n      swap1\n      sstore\n      pop\n        /* \"Hero/utils/HeroController.sol\":1536:1541  _item */\n      dup6\n        /* \"Hero/utils/HeroController.sol\":1518:1522  item */\n      0x02\n      0x00\n        /* \"Hero/utils/HeroController.sol\":1518:1542  item = IKIP37Full(_item) */\n      0x0100\n      exp\n      dup2\n      sload\n      dup2\n      0xffffffffffffffffffffffffffffffffffffffff\n      mul\n      not\n      and\n      swap1\n      dup4\n      0xffffffffffffffffffffffffffffffffffffffff\n      and\n      mul\n      or\n      swap1\n      sstore\n      pop\n        /* \"Hero/utils/HeroController.sol\":1581:1594  _levelDiagram */\n      dup5\n        /* \"Hero/utils/HeroController.sol\":1552:1564  levelDiagram */\n      0x03\n      0x00\n        /* \"Hero/utils/HeroController.sol\":1552:1595  levelDiagram = ILevelDiagram(_levelDiagram) */\n      0x0100\n      exp\n      dup2\n      sload\n      dup2\n      0xffffffffffffffffffffffffffffffffffffffff\n      mul\n      not\n      and\n      swap1\n      dup4\n      0xffffffffffffffffffffffffffffffffffffffff\n      and\n      mul\n      or\n      swap1\n      sstore\n      pop\n        /* \"Hero/utils/HeroController.sol\":1623:1638  _depositAddress */\n      dup4\n        /* \"Hero/utils/HeroController.sol\":1606:1620  depositAddress */\n      0x05\n      0x00\n        /* \"Hero/utils/HeroController.sol\":1606:1638  depositAddress = _depositAddress */\n      0x0100\n      exp\n      dup2\n      sload\n      dup2\n      0xffffffffffffffffffffffffffffffffffffffff\n      mul\n      not\n      and\n      swap1\n      dup4\n      0xffffffffffffffffffffffffffffffffffffffff\n      and\n      mul\n      or\n      swap1\n      sstore\n      pop\n        /* \"Hero/utils/HeroController.sol\":1664:1678  _miningAddress */\n      dup3\n        /* \"Hero/utils/HeroController.sol\":1648:1661  miningAddress */\n      0x06\n      0x00\n        /* \"Hero/utils/HeroController.sol\":1648:1678  miningAddress = _miningAddress */\n      0x0100\n      exp\n      dup2\n      sload\n      dup2\n      0xffffffffffffffffffffffffffffffffffffffff\n      mul\n      not\n      and\n      swap1\n      dup4\n      0xffffffffffffffffffffffffffffffffffffffff\n      and\n      mul\n      or\n      swap1\n      sstore\n      pop\n        /* \"Hero/utils/HeroController.sol\":1079:1685  function initialize(... */\n      pop\n      pop\n      pop\n      pop\n      pop\n      pop\n      pop\n      pop\n      jump\t// out\n        /* \"Hero/utils/HeroController.sol\":1773:1867  function changeMiningPaused() external onlyOwner {... */\n    tag_52:\n        /* \"Hero/utils/HeroController.sol\":847:856  coreOwner */\n      0x04\n      0x00\n      swap1\n      sload\n      swap1\n      0x0100\n      exp\n      swap1\n      div\n      0xffffffffffffffffffffffffffffffffffffffff\n      and\n        /* \"Hero/utils/HeroController.sol\":833:856  msg.sender == coreOwner */\n      0xffffffffffffffffffffffffffffffffffffffff\n      and\n        /* \"Hero/utils/HeroController.sol\":833:843  msg.sender */\n      caller\n        /* \"Hero/utils/HeroController.sol\":833:856  msg.sender == coreOwner */\n      0xffffffffffffffffffffffffffffffffffffffff\n      and\n      eq\n        /* \"Hero/utils/HeroController.sol\":825:887  require(msg.sender == coreOwner, \"HeroCore Error : onlyOwner\") */\n      tag_72\n      jumpi\n      mload(0x40)\n      0x08c379a000000000000000000000000000000000000000000000000000000000\n      dup2\n      mstore\n      0x04\n      add\n      tag_73\n      swap1\n      tag_61\n      jump\t// in\n    tag_73:\n      mload(0x40)\n      dup1\n      swap2\n      sub\n      swap1\n      revert\n    tag_72:\n        /* \"Hero/utils/HeroController.sol\":1848:1860  miningPaused */\n      0x06\n      0x15\n      swap1\n      sload\n      swap1\n      0x0100\n      exp\n      swap1\n      div\n      0xff\n      and\n        /* \"Hero/utils/HeroController.sol\":1847:1860  !miningPaused */\n      iszero\n        /* \"Hero/utils/HeroController.sol\":1832:1844  miningPaused */\n      0x06\n      0x15\n        /* \"Hero/utils/HeroController.sol\":1832:1860  miningPaused = !miningPaused */\n      0x0100\n      exp\n      dup2\n      sload\n      dup2\n      0xff\n      mul\n      not\n      and\n      swap1\n      dup4\n      iszero\n      iszero\n      mul\n      or\n      swap1\n      sstore\n      pop\n        /* \"Hero/utils/HeroController.sol\":1773:1867  function changeMiningPaused() external onlyOwner {... */\n      jump\t// out\n        /* \"utils/SafeMath.sol\":283:379  function mul(uint256 a, uint256 b) internal pure returns (uint256) {... */\n    tag_69:\n        /* \"utils/SafeMath.sol\":341:348  uint256 */\n      0x00\n        /* \"utils/SafeMath.sol\":371:372  b */\n      dup2\n        /* \"utils/SafeMath.sol\":367:368  a */\n      dup4\n        /* \"utils/SafeMath.sol\":367:372  a * b */\n      tag_76\n      swap2\n      swap1\n      tag_77\n      jump\t// in\n    tag_76:\n        /* \"utils/SafeMath.sol\":360:372  return a * b */\n      swap1\n      pop\n        /* \"utils/SafeMath.sol\":283:379  function mul(uint256 a, uint256 b) internal pure returns (uint256) {... */\n      swap3\n      swap2\n      pop\n      pop\n      jump\t// out\n        /* \"#utility.yul\":7:146   */\n    tag_79:\n        /* \"#utility.yul\":53:58   */\n      0x00\n        /* \"#utility.yul\":91:97   */\n      dup2\n        /* \"#utility.yul\":78:98   */\n      calldataload\n        /* \"#utility.yul\":69:98   */\n      swap1\n      pop\n        /* \"#utility.yul\":107:140   */\n      tag_81\n        /* \"#utility.yul\":134:139   */\n      dup2\n        /* \"#utility.yul\":107:140   */\n      tag_82\n      jump\t// in\n    tag_81:\n        /* \"#utility.yul\":59:146   */\n      swap3\n      swap2\n      pop\n      pop\n      jump\t// out\n        /* \"#utility.yul\":152:291   */\n    tag_83:\n        /* \"#utility.yul\":198:203   */\n      0x00\n        /* \"#utility.yul\":236:242   */\n      dup2\n        /* \"#utility.yul\":223:243   */\n      calldataload\n        /* \"#utility.yul\":214:243   */\n      swap1\n      pop\n        /* \"#utility.yul\":252:285   */\n      tag_85\n        /* \"#utility.yul\":279:284   */\n      dup2\n        /* \"#utility.yul\":252:285   */\n      tag_86\n      jump\t// in\n    tag_85:\n        /* \"#utility.yul\":204:291   */\n      swap3\n      swap2\n      pop\n      pop\n      jump\t// out\n        /* \"#utility.yul\":297:1579   */\n    tag_49:\n        /* \"#utility.yul\":419:425   */\n      0x00\n        /* \"#utility.yul\":427:433   */\n      dup1\n        /* \"#utility.yul\":435:441   */\n      0x00\n        /* \"#utility.yul\":443:449   */\n      dup1\n        /* \"#utility.yul\":451:457   */\n      0x00\n        /* \"#utility.yul\":459:465   */\n      dup1\n        /* \"#utility.yul\":467:473   */\n      0x00\n        /* \"#utility.yul\":475:481   */\n      dup1\n        /* \"#utility.yul\":524:527   */\n      0x0100\n        /* \"#utility.yul\":512:521   */\n      dup10\n        /* \"#utility.yul\":503:510   */\n      dup12\n        /* \"#utility.yul\":499:522   */\n      sub\n        /* \"#utility.yul\":495:528   */\n      slt\n        /* \"#utility.yul\":492:494   */\n      iszero\n      tag_88\n      jumpi\n        /* \"#utility.yul\":541:542   */\n      0x00\n        /* \"#utility.yul\":538:539   */\n      dup1\n        /* \"#utility.yul\":531:543   */\n      revert\n        /* \"#utility.yul\":492:494   */\n    tag_88:\n        /* \"#utility.yul\":584:585   */\n      0x00\n        /* \"#utility.yul\":609:662   */\n      tag_89\n        /* \"#utility.yul\":654:661   */\n      dup12\n        /* \"#utility.yul\":645:651   */\n      dup3\n        /* \"#utility.yul\":634:643   */\n      dup13\n        /* \"#utility.yul\":630:652   */\n      add\n        /* \"#utility.yul\":609:662   */\n      tag_79\n      jump\t// in\n    tag_89:\n        /* \"#utility.yul\":599:662   */\n      swap9\n      pop\n        /* \"#utility.yul\":555:672   */\n      pop\n        /* \"#utility.yul\":711:713   */\n      0x20\n        /* \"#utility.yul\":737:790   */\n      tag_90\n        /* \"#utility.yul\":782:789   */\n      dup12\n        /* \"#utility.yul\":773:779   */\n      dup3\n        /* \"#utility.yul\":762:771   */\n      dup13\n        /* \"#utility.yul\":758:780   */\n      add\n        /* \"#utility.yul\":737:790   */\n      tag_79\n      jump\t// in\n    tag_90:\n        /* \"#utility.yul\":727:790   */\n      swap8\n      pop\n        /* \"#utility.yul\":682:800   */\n      pop\n        /* \"#utility.yul\":839:841   */\n      0x40\n        /* \"#utility.yul\":865:918   */\n      tag_91\n        /* \"#utility.yul\":910:917   */\n      dup12\n        /* \"#utility.yul\":901:907   */\n      dup3\n        /* \"#utility.yul\":890:899   */\n      dup13\n        /* \"#utility.yul\":886:908   */\n      add\n        /* \"#utility.yul\":865:918   */\n      tag_79\n      jump\t// in\n    tag_91:\n        /* \"#utility.yul\":855:918   */\n      swap7\n      pop\n        /* \"#utility.yul\":810:928   */\n      pop\n        /* \"#utility.yul\":967:969   */\n      0x60\n        /* \"#utility.yul\":993:1046   */\n      tag_92\n        /* \"#utility.yul\":1038:1045   */\n      dup12\n        /* \"#utility.yul\":1029:1035   */\n      dup3\n        /* \"#utility.yul\":1018:1027   */\n      dup13\n        /* \"#utility.yul\":1014:1036   */\n      add\n        /* \"#utility.yul\":993:1046   */\n      tag_79\n      jump\t// in\n    tag_92:\n        /* \"#utility.yul\":983:1046   */\n      swap6\n      pop\n        /* \"#utility.yul\":938:1056   */\n      pop\n        /* \"#utility.yul\":1095:1098   */\n      0x80\n        /* \"#utility.yul\":1122:1175   */\n      tag_93\n        /* \"#utility.yul\":1167:1174   */\n      dup12\n        /* \"#utility.yul\":1158:1164   */\n      dup3\n        /* \"#utility.yul\":1147:1156   */\n      dup13\n        /* \"#utility.yul\":1143:1165   */\n      add\n        /* \"#utility.yul\":1122:1175   */\n      tag_79\n      jump\t// in\n    tag_93:\n        /* \"#utility.yul\":1112:1175   */\n      swap5\n      pop\n        /* \"#utility.yul\":1066:1185   */\n      pop\n        /* \"#utility.yul\":1224:1227   */\n      0xa0\n        /* \"#utility.yul\":1251:1304   */\n      tag_94\n        /* \"#utility.yul\":1296:1303   */\n      dup12\n        /* \"#utility.yul\":1287:1293   */\n      dup3\n        /* \"#utility.yul\":1276:1285   */\n      dup13\n        /* \"#utility.yul\":1272:1294   */\n      add\n        /* \"#utility.yul\":1251:1304   */\n      tag_79\n      jump\t// in\n    tag_94:\n        /* \"#utility.yul\":1241:1304   */\n      swap4\n      pop\n        /* \"#utility.yul\":1195:1314   */\n      pop\n        /* \"#utility.yul\":1353:1356   */\n      0xc0\n        /* \"#utility.yul\":1380:1433   */\n      tag_95\n        /* \"#utility.yul\":1425:1432   */\n      dup12\n        /* \"#utility.yul\":1416:1422   */\n      dup3\n        /* \"#utility.yul\":1405:1414   */\n      dup13\n        /* \"#utility.yul\":1401:1423   */\n      add\n        /* \"#utility.yul\":1380:1433   */\n      tag_83\n      jump\t// in\n    tag_95:\n        /* \"#utility.yul\":1370:1433   */\n      swap3\n      pop\n        /* \"#utility.yul\":1324:1443   */\n      pop\n        /* \"#utility.yul\":1482:1485   */\n      0xe0\n        /* \"#utility.yul\":1509:1562   */\n      tag_96\n        /* \"#utility.yul\":1554:1561   */\n      dup12\n        /* \"#utility.yul\":1545:1551   */\n      dup3\n        /* \"#utility.yul\":1534:1543   */\n      dup13\n        /* \"#utility.yul\":1530:1552   */\n      add\n        /* \"#utility.yul\":1509:1562   */\n      tag_83\n      jump\t// in\n    tag_96:\n        /* \"#utility.yul\":1499:1562   */\n      swap2\n      pop\n        /* \"#utility.yul\":1453:1572   */\n      pop\n        /* \"#utility.yul\":482:1579   */\n      swap3\n      swap6\n      swap9\n      pop\n      swap3\n      swap6\n      swap9\n      swap1\n      swap4\n      swap7\n      pop\n      jump\t// out\n        /* \"#utility.yul\":1585:1727   */\n    tag_97:\n        /* \"#utility.yul\":1688:1720   */\n      tag_99\n        /* \"#utility.yul\":1714:1719   */\n      dup2\n        /* \"#utility.yul\":1688:1720   */\n      tag_100\n      jump\t// in\n    tag_99:\n        /* \"#utility.yul\":1683:1686   */\n      dup3\n        /* \"#utility.yul\":1676:1721   */\n      mstore\n        /* \"#utility.yul\":1666:1727   */\n      pop\n      pop\n      jump\t// out\n        /* \"#utility.yul\":1733:1842   */\n    tag_101:\n        /* \"#utility.yul\":1814:1835   */\n      tag_103\n        /* \"#utility.yul\":1829:1834   */\n      dup2\n        /* \"#utility.yul\":1814:1835   */\n      tag_104\n      jump\t// in\n    tag_103:\n        /* \"#utility.yul\":1809:1812   */\n      dup3\n        /* \"#utility.yul\":1802:1836   */\n      mstore\n        /* \"#utility.yul\":1792:1842   */\n      pop\n      pop\n      jump\t// out\n        /* \"#utility.yul\":1848:2009   */\n    tag_105:\n        /* \"#utility.yul\":1950:2002   */\n      tag_107\n        /* \"#utility.yul\":1996:2001   */\n      dup2\n        /* \"#utility.yul\":1950:2002   */\n      tag_108\n      jump\t// in\n    tag_107:\n        /* \"#utility.yul\":1945:1948   */\n      dup3\n        /* \"#utility.yul\":1938:2003   */\n      mstore\n        /* \"#utility.yul\":1928:2009   */\n      pop\n      pop\n      jump\t// out\n        /* \"#utility.yul\":2015:2182   */\n    tag_109:\n        /* \"#utility.yul\":2120:2175   */\n      tag_111\n        /* \"#utility.yul\":2169:2174   */\n      dup2\n        /* \"#utility.yul\":2120:2175   */\n      tag_112\n      jump\t// in\n    tag_111:\n        /* \"#utility.yul\":2115:2118   */\n      dup3\n        /* \"#utility.yul\":2108:2176   */\n      mstore\n        /* \"#utility.yul\":2098:2182   */\n      pop\n      pop\n      jump\t// out\n        /* \"#utility.yul\":2188:2345   */\n    tag_113:\n        /* \"#utility.yul\":2288:2338   */\n      tag_115\n        /* \"#utility.yul\":2332:2337   */\n      dup2\n        /* \"#utility.yul\":2288:2338   */\n      tag_116\n      jump\t// in\n    tag_115:\n        /* \"#utility.yul\":2283:2286   */\n      dup3\n        /* \"#utility.yul\":2276:2339   */\n      mstore\n        /* \"#utility.yul\":2266:2345   */\n      pop\n      pop\n      jump\t// out\n        /* \"#utility.yul\":2351:2717   */\n    tag_117:\n        /* \"#utility.yul\":2493:2496   */\n      0x00\n        /* \"#utility.yul\":2514:2581   */\n      tag_119\n        /* \"#utility.yul\":2578:2580   */\n      0x1a\n        /* \"#utility.yul\":2573:2576   */\n      dup4\n        /* \"#utility.yul\":2514:2581   */\n      tag_120\n      jump\t// in\n    tag_119:\n        /* \"#utility.yul\":2507:2581   */\n      swap2\n      pop\n        /* \"#utility.yul\":2590:2683   */\n      tag_121\n        /* \"#utility.yul\":2679:2682   */\n      dup3\n        /* \"#utility.yul\":2590:2683   */\n      tag_122\n      jump\t// in\n    tag_121:\n        /* \"#utility.yul\":2708:2710   */\n      0x20\n        /* \"#utility.yul\":2703:2706   */\n      dup3\n        /* \"#utility.yul\":2699:2711   */\n      add\n        /* \"#utility.yul\":2692:2711   */\n      swap1\n      pop\n        /* \"#utility.yul\":2497:2717   */\n      swap2\n      swap1\n      pop\n      jump\t// out\n        /* \"#utility.yul\":2723:2841   */\n    tag_123:\n        /* \"#utility.yul\":2810:2834   */\n      tag_125\n        /* \"#utility.yul\":2828:2833   */\n      dup2\n        /* \"#utility.yul\":2810:2834   */\n      tag_126\n      jump\t// in\n    tag_125:\n        /* \"#utility.yul\":2805:2808   */\n      dup3\n        /* \"#utility.yul\":2798:2835   */\n      mstore\n        /* \"#utility.yul\":2788:2841   */\n      pop\n      pop\n      jump\t// out\n        /* \"#utility.yul\":2847:3101   */\n    tag_40:\n        /* \"#utility.yul\":2956:2960   */\n      0x00\n        /* \"#utility.yul\":2994:2996   */\n      0x20\n        /* \"#utility.yul\":2983:2992   */\n      dup3\n        /* \"#utility.yul\":2979:2997   */\n      add\n        /* \"#utility.yul\":2971:2997   */\n      swap1\n      pop\n        /* \"#utility.yul\":3007:3094   */\n      tag_128\n        /* \"#utility.yul\":3091:3092   */\n      0x00\n        /* \"#utility.yul\":3080:3089   */\n      dup4\n        /* \"#utility.yul\":3076:3093   */\n      add\n        /* \"#utility.yul\":3067:3073   */\n      dup5\n        /* \"#utility.yul\":3007:3094   */\n      tag_97\n      jump\t// in\n    tag_128:\n        /* \"#utility.yul\":2961:3101   */\n      swap3\n      swap2\n      pop\n      pop\n      jump\t// out\n        /* \"#utility.yul\":3107:3317   */\n    tag_26:\n        /* \"#utility.yul\":3194:3198   */\n      0x00\n        /* \"#utility.yul\":3232:3234   */\n      0x20\n        /* \"#utility.yul\":3221:3230   */\n      dup3\n        /* \"#utility.yul\":3217:3235   */\n      add\n        /* \"#utility.yul\":3209:3235   */\n      swap1\n      pop\n        /* \"#utility.yul\":3245:3310   */\n      tag_130\n        /* \"#utility.yul\":3307:3308   */\n      0x00\n        /* \"#utility.yul\":3296:3305   */\n      dup4\n        /* \"#utility.yul\":3292:3309   */\n      add\n        /* \"#utility.yul\":3283:3289   */\n      dup5\n        /* \"#utility.yul\":3245:3310   */\n      tag_101\n      jump\t// in\n    tag_130:\n        /* \"#utility.yul\":3199:3317   */\n      swap3\n      swap2\n      pop\n      pop\n      jump\t// out\n        /* \"#utility.yul\":3323:3575   */\n    tag_36:\n        /* \"#utility.yul\":3431:3435   */\n      0x00\n        /* \"#utility.yul\":3469:3471   */\n      0x20\n        /* \"#utility.yul\":3458:3467   */\n      dup3\n        /* \"#utility.yul\":3454:3472   */\n      add\n        /* \"#utility.yul\":3446:3472   */\n      swap1\n      pop\n        /* \"#utility.yul\":3482:3568   */\n      tag_132\n        /* \"#utility.yul\":3565:3566   */\n      0x00\n        /* \"#utility.yul\":3554:3563   */\n      dup4\n        /* \"#utility.yul\":3550:3567   */\n      add\n        /* \"#utility.yul\":3541:3547   */\n      dup5\n        /* \"#utility.yul\":3482:3568   */\n      tag_105\n      jump\t// in\n    tag_132:\n        /* \"#utility.yul\":3436:3575   */\n      swap3\n      swap2\n      pop\n      pop\n      jump\t// out\n        /* \"#utility.yul\":3581:3839   */\n    tag_46:\n        /* \"#utility.yul\":3692:3696   */\n      0x00\n        /* \"#utility.yul\":3730:3732   */\n      0x20\n        /* \"#utility.yul\":3719:3728   */\n      dup3\n        /* \"#utility.yul\":3715:3733   */\n      add\n        /* \"#utility.yul\":3707:3733   */\n      swap1\n      pop\n        /* \"#utility.yul\":3743:3832   */\n      tag_134\n        /* \"#utility.yul\":3829:3830   */\n      0x00\n        /* \"#utility.yul\":3818:3827   */\n      dup4\n        /* \"#utility.yul\":3814:3831   */\n      add\n        /* \"#utility.yul\":3805:3811   */\n      dup5\n        /* \"#utility.yul\":3743:3832   */\n      tag_109\n      jump\t// in\n    tag_134:\n        /* \"#utility.yul\":3697:3839   */\n      swap3\n      swap2\n      pop\n      pop\n      jump\t// out\n        /* \"#utility.yul\":3845:4093   */\n    tag_22:\n        /* \"#utility.yul\":3951:3955   */\n      0x00\n        /* \"#utility.yul\":3989:3991   */\n      0x20\n        /* \"#utility.yul\":3978:3987   */\n      dup3\n        /* \"#utility.yul\":3974:3992   */\n      add\n        /* \"#utility.yul\":3966:3992   */\n      swap1\n      pop\n        /* \"#utility.yul\":4002:4086   */\n      tag_136\n        /* \"#utility.yul\":4083:4084   */\n      0x00\n        /* \"#utility.yul\":4072:4081   */\n      dup4\n        /* \"#utility.yul\":4068:4085   */\n      add\n        /* \"#utility.yul\":4059:4065   */\n      dup5\n        /* \"#utility.yul\":4002:4086   */\n      tag_113\n      jump\t// in\n    tag_136:\n        /* \"#utility.yul\":3956:4093   */\n      swap3\n      swap2\n      pop\n      pop\n      jump\t// out\n        /* \"#utility.yul\":4099:4518   */\n    tag_61:\n        /* \"#utility.yul\":4265:4269   */\n      0x00\n        /* \"#utility.yul\":4303:4305   */\n      0x20\n        /* \"#utility.yul\":4292:4301   */\n      dup3\n        /* \"#utility.yul\":4288:4306   */\n      add\n        /* \"#utility.yul\":4280:4306   */\n      swap1\n      pop\n        /* \"#utility.yul\":4352:4361   */\n      dup2\n        /* \"#utility.yul\":4346:4350   */\n      dup2\n        /* \"#utility.yul\":4342:4362   */\n      sub\n        /* \"#utility.yul\":4338:4339   */\n      0x00\n        /* \"#utility.yul\":4327:4336   */\n      dup4\n        /* \"#utility.yul\":4323:4340   */\n      add\n        /* \"#utility.yul\":4316:4363   */\n      mstore\n        /* \"#utility.yul\":4380:4511   */\n      tag_138\n        /* \"#utility.yul\":4506:4510   */\n      dup2\n        /* \"#utility.yul\":4380:4511   */\n      tag_117\n      jump\t// in\n    tag_138:\n        /* \"#utility.yul\":4372:4511   */\n      swap1\n      pop\n        /* \"#utility.yul\":4270:4518   */\n      swap2\n      swap1\n      pop\n      jump\t// out\n        /* \"#utility.yul\":4524:4746   */\n    tag_18:\n        /* \"#utility.yul\":4617:4621   */\n      0x00\n        /* \"#utility.yul\":4655:4657   */\n      0x20\n        /* \"#utility.yul\":4644:4653   */\n      dup3\n        /* \"#utility.yul\":4640:4658   */\n      add\n        /* \"#utility.yul\":4632:4658   */\n      swap1\n      pop\n        /* \"#utility.yul\":4668:4739   */\n      tag_140\n        /* \"#utility.yul\":4736:4737   */\n      0x00\n        /* \"#utility.yul\":4725:4734   */\n      dup4\n        /* \"#utility.yul\":4721:4738   */\n      add\n        /* \"#utility.yul\":4712:4718   */\n      dup5\n        /* \"#utility.yul\":4668:4739   */\n      tag_123\n      jump\t// in\n    tag_140:\n        /* \"#utility.yul\":4622:4746   */\n      swap3\n      swap2\n      pop\n      pop\n      jump\t// out\n        /* \"#utility.yul\":4752:4921   */\n    tag_120:\n        /* \"#utility.yul\":4836:4847   */\n      0x00\n        /* \"#utility.yul\":4870:4876   */\n      dup3\n        /* \"#utility.yul\":4865:4868   */\n      dup3\n        /* \"#utility.yul\":4858:4877   */\n      mstore\n        /* \"#utility.yul\":4910:4914   */\n      0x20\n        /* \"#utility.yul\":4905:4908   */\n      dup3\n        /* \"#utility.yul\":4901:4915   */\n      add\n        /* \"#utility.yul\":4886:4915   */\n      swap1\n      pop\n        /* \"#utility.yul\":4848:4921   */\n      swap3\n      swap2\n      pop\n      pop\n      jump\t// out\n        /* \"#utility.yul\":4927:5275   */\n    tag_77:\n        /* \"#utility.yul\":4967:4974   */\n      0x00\n        /* \"#utility.yul\":4990:5010   */\n      tag_143\n        /* \"#utility.yul\":5008:5009   */\n      dup3\n        /* \"#utility.yul\":4990:5010   */\n      tag_126\n      jump\t// in\n    tag_143:\n        /* \"#utility.yul\":4985:5010   */\n      swap2\n      pop\n        /* \"#utility.yul\":5024:5044   */\n      tag_144\n        /* \"#utility.yul\":5042:5043   */\n      dup4\n        /* \"#utility.yul\":5024:5044   */\n      tag_126\n      jump\t// in\n    tag_144:\n        /* \"#utility.yul\":5019:5044   */\n      swap3\n      pop\n        /* \"#utility.yul\":5212:5213   */\n      dup2\n        /* \"#utility.yul\":5144:5210   */\n      0xffffffffffffffffffffffffffffffffffffffffffffffffffffffffffffffff\n        /* \"#utility.yul\":5140:5214   */\n      div\n        /* \"#utility.yul\":5137:5138   */\n      dup4\n        /* \"#utility.yul\":5134:5215   */\n      gt\n        /* \"#utility.yul\":5129:5130   */\n      dup3\n        /* \"#utility.yul\":5122:5131   */\n      iszero\n        /* \"#utility.yul\":5115:5132   */\n      iszero\n        /* \"#utility.yul\":5111:5216   */\n      and\n        /* \"#utility.yul\":5108:5110   */\n      iszero\n      tag_145\n      jumpi\n        /* \"#utility.yul\":5219:5237   */\n      tag_146\n      tag_147\n      jump\t// in\n    tag_146:\n        /* \"#utility.yul\":5108:5110   */\n    tag_145:\n        /* \"#utility.yul\":5267:5268   */\n      dup3\n        /* \"#utility.yul\":5264:5265   */\n      dup3\n        /* \"#utility.yul\":5260:5269   */\n      mul\n        /* \"#utility.yul\":5249:5269   */\n      swap1\n      pop\n        /* \"#utility.yul\":4975:5275   */\n      swap3\n      swap2\n      pop\n      pop\n      jump\t// out\n        /* \"#utility.yul\":5281:5377   */\n    tag_148:\n        /* \"#utility.yul\":5318:5325   */\n      0x00\n        /* \"#utility.yul\":5347:5371   */\n      tag_150\n        /* \"#utility.yul\":5365:5370   */\n      dup3\n        /* \"#utility.yul\":5347:5371   */\n      tag_151\n      jump\t// in\n    tag_150:\n        /* \"#utility.yul\":5336:5371   */\n      swap1\n      pop\n        /* \"#utility.yul\":5326:5377   */\n      swap2\n      swap1\n      pop\n      jump\t// out\n        /* \"#utility.yul\":5383:5487   */\n    tag_100:\n        /* \"#utility.yul\":5428:5435   */\n      0x00\n        /* \"#utility.yul\":5457:5481   */\n      tag_153\n        /* \"#utility.yul\":5475:5480   */\n      dup3\n        /* \"#utility.yul\":5457:5481   */\n      tag_151\n      jump\t// in\n    tag_153:\n        /* \"#utility.yul\":5446:5481   */\n      swap1\n      pop\n        /* \"#utility.yul\":5436:5487   */\n      swap2\n      swap1\n      pop\n      jump\t// out\n        /* \"#utility.yul\":5493:5583   */\n    tag_104:\n        /* \"#utility.yul\":5527:5534   */\n      0x00\n        /* \"#utility.yul\":5570:5575   */\n      dup2\n        /* \"#utility.yul\":5563:5576   */\n      iszero\n        /* \"#utility.yul\":5556:5577   */\n      iszero\n        /* \"#utility.yul\":5545:5577   */\n      swap1\n      pop\n        /* \"#utility.yul\":5535:5583   */\n      swap2\n      swap1\n      pop\n      jump\t// out\n        /* \"#utility.yul\":5589:5715   */\n    tag_151:\n        /* \"#utility.yul\":5626:5633   */\n      0x00\n        /* \"#utility.yul\":5666:5708   */\n      0xffffffffffffffffffffffffffffffffffffffff\n        /* \"#utility.yul\":5659:5664   */\n      dup3\n        /* \"#utility.yul\":5655:5709   */\n      and\n        /* \"#utility.yul\":5644:5709   */\n      swap1\n      pop\n        /* \"#utility.yul\":5634:5715   */\n      swap2\n      swap1\n      pop\n      jump\t// out\n        /* \"#utility.yul\":5721:5798   */\n    tag_126:\n        /* \"#utility.yul\":5758:5765   */\n      0x00\n        /* \"#utility.yul\":5787:5792   */\n      dup2\n        /* \"#utility.yul\":5776:5792   */\n      swap1\n      pop\n        /* \"#utility.yul\":5766:5798   */\n      swap2\n      swap1\n      pop\n      jump\t// out\n        /* \"#utility.yul\":5804:5960   */\n    tag_108:\n        /* \"#utility.yul\":5869:5878   */\n      0x00\n        /* \"#utility.yul\":5902:5954   */\n      tag_158\n        /* \"#utility.yul\":5948:5953   */\n      dup3\n        /* \"#utility.yul\":5902:5954   */\n      tag_159\n      jump\t// in\n    tag_158:\n        /* \"#utility.yul\":5889:5954   */\n      swap1\n      pop\n        /* \"#utility.yul\":5879:5960   */\n      swap2\n      swap1\n      pop\n      jump\t// out\n        /* \"#utility.yul\":5966:6094   */\n    tag_159:\n        /* \"#utility.yul\":6031:6040   */\n      0x00\n        /* \"#utility.yul\":6064:6088   */\n      tag_161\n        /* \"#utility.yul\":6082:6087   */\n      dup3\n        /* \"#utility.yul\":6064:6088   */\n      tag_151\n      jump\t// in\n    tag_161:\n        /* \"#utility.yul\":6051:6088   */\n      swap1\n      pop\n        /* \"#utility.yul\":6041:6094   */\n      swap2\n      swap1\n      pop\n      jump\t// out\n        /* \"#utility.yul\":6100:6262   */\n    tag_112:\n        /* \"#utility.yul\":6168:6177   */\n      0x00\n        /* \"#utility.yul\":6201:6256   */\n      tag_163\n        /* \"#utility.yul\":6250:6255   */\n      dup3\n        /* \"#utility.yul\":6201:6256   */\n      tag_164\n      jump\t// in\n    tag_163:\n        /* \"#utility.yul\":6188:6256   */\n      swap1\n      pop\n        /* \"#utility.yul\":6178:6262   */\n      swap2\n      swap1\n      pop\n      jump\t// out\n        /* \"#utility.yul\":6268:6399   */\n    tag_164:\n        /* \"#utility.yul\":6336:6345   */\n      0x00\n        /* \"#utility.yul\":6369:6393   */\n      tag_166\n        /* \"#utility.yul\":6387:6392   */\n      dup3\n        /* \"#utility.yul\":6369:6393   */\n      tag_151\n      jump\t// in\n    tag_166:\n        /* \"#utility.yul\":6356:6393   */\n      swap1\n      pop\n        /* \"#utility.yul\":6346:6399   */\n      swap2\n      swap1\n      pop\n      jump\t// out\n        /* \"#utility.yul\":6405:6557   */\n    tag_116:\n        /* \"#utility.yul\":6468:6477   */\n      0x00\n        /* \"#utility.yul\":6501:6551   */\n      tag_168\n        /* \"#utility.yul\":6545:6550   */\n      dup3\n        /* \"#utility.yul\":6501:6551   */\n      tag_169\n      jump\t// in\n    tag_168:\n        /* \"#utility.yul\":6488:6551   */\n      swap1\n      pop\n        /* \"#utility.yul\":6478:6557   */\n      swap2\n      swap1\n      pop\n      jump\t// out\n        /* \"#utility.yul\":6563:6689   */\n    tag_169:\n        /* \"#utility.yul\":6626:6635   */\n      0x00\n        /* \"#utility.yul\":6659:6683   */\n      tag_171\n        /* \"#utility.yul\":6677:6682   */\n      dup3\n        /* \"#utility.yul\":6659:6683   */\n      tag_151\n      jump\t// in\n    tag_171:\n        /* \"#utility.yul\":6646:6683   */\n      swap1\n      pop\n        /* \"#utility.yul\":6636:6689   */\n      swap2\n      swap1\n      pop\n      jump\t// out\n        /* \"#utility.yul\":6695:6875   */\n    tag_147:\n        /* \"#utility.yul\":6743:6820   */\n      0x4e487b7100000000000000000000000000000000000000000000000000000000\n        /* \"#utility.yul\":6740:6741   */\n      0x00\n        /* \"#utility.yul\":6733:6821   */\n      mstore\n        /* \"#utility.yul\":6840:6844   */\n      0x11\n        /* \"#utility.yul\":6837:6838   */\n      0x04\n        /* \"#utility.yul\":6830:6845   */\n      mstore\n        /* \"#utility.yul\":6864:6868   */\n      0x24\n        /* \"#utility.yul\":6861:6862   */\n      0x00\n        /* \"#utility.yul\":6854:6869   */\n      revert\n        /* \"#utility.yul\":6881:7057   */\n    tag_122:\n        /* \"#utility.yul\":7021:7049   */\n      0x4865726f436f7265204572726f72203a206f6e6c794f776e6572000000000000\n        /* \"#utility.yul\":7017:7018   */\n      0x00\n        /* \"#utility.yul\":7009:7015   */\n      dup3\n        /* \"#utility.yul\":7005:7019   */\n      add\n        /* \"#utility.yul\":6998:7050   */\n      mstore\n        /* \"#utility.yul\":6987:7057   */\n      pop\n      jump\t// out\n        /* \"#utility.yul\":7063:7185   */\n    tag_82:\n        /* \"#utility.yul\":7136:7160   */\n      tag_175\n        /* \"#utility.yul\":7154:7159   */\n      dup2\n        /* \"#utility.yul\":7136:7160   */\n      tag_148\n      jump\t// in\n    tag_175:\n        /* \"#utility.yul\":7129:7134   */\n      dup2\n        /* \"#utility.yul\":7126:7161   */\n      eq\n        /* \"#utility.yul\":7116:7118   */\n      tag_176\n      jumpi\n        /* \"#utility.yul\":7175:7176   */\n      0x00\n        /* \"#utility.yul\":7172:7173   */\n      dup1\n        /* \"#utility.yul\":7165:7177   */\n      revert\n        /* \"#utility.yul\":7116:7118   */\n    tag_176:\n        /* \"#utility.yul\":7106:7185   */\n      pop\n      jump\t// out\n        /* \"#utility.yul\":7191:7313   */\n    tag_86:\n        /* \"#utility.yul\":7264:7288   */\n      tag_178\n        /* \"#utility.yul\":7282:7287   */\n      dup2\n        /* \"#utility.yul\":7264:7288   */\n      tag_126\n      jump\t// in\n    tag_178:\n        /* \"#utility.yul\":7257:7262   */\n      dup2\n        /* \"#utility.yul\":7254:7289   */\n      eq\n        /* \"#utility.yul\":7244:7246   */\n      tag_179\n      jumpi\n        /* \"#utility.yul\":7303:7304   */\n      0x00\n        /* \"#utility.yul\":7300:7301   */\n      dup1\n        /* \"#utility.yul\":7293:7305   */\n      revert\n        /* \"#utility.yul\":7244:7246   */\n    tag_179:\n        /* \"#utility.yul\":7234:7313   */\n      pop\n      jump\t// out\n\n    auxdata: 0xa26469706673582212209ea7c4a7860d9a011e074aa191884327da75e62679b1cfa91c138a0de37f8fb464736f6c63430008040033\n}\n",
				"bytecode": {
					"linkReferences": {},
					"object": "608060405234801561001057600080fd5b506001600660146101000a81548160ff0219169083151502179055506001600660156101000a81548160ff02191690831515021790555033600460006101000a81548173ffffffffffffffffffffffffffffffffffffffff021916908373ffffffffffffffffffffffffffffffffffffffff160217905550610aa6806100976000396000f3fe608060405234801561001057600080fd5b50600436106100a95760003560e01c80637cac00ee116100715780637cac00ee14610144578063893d20e8146101625780639eb4eae514610180578063c412eaba1461018a578063c740671f146101a8578063ee72b8cc146101c4576100a9565b80631b9cbdfb146100ae57806321df0da7146100cc57806328919df6146100ea5780633a1a8080146101085780636805b84b14610126575b600080fd5b6100b66101ce565b6040516100c3919061089e565b60405180910390f35b6100d46101d4565b6040516100e19190610863565b60405180910390f35b6100f26101fe565b6040516100ff9190610812565b60405180910390f35b610110610215565b60405161011d919061089e565b60405180910390f35b61012e61021b565b60405161013b9190610812565b60405180910390f35b61014c610232565b604051610159919061082d565b60405180910390f35b61016a61025b565b60405161017791906107f7565b60405180910390f35b610188610285565b005b610192610341565b60405161019f9190610848565b60405180910390f35b6101c260048036038101906101bd91906106c8565b61036b565b005b6101cc6105cc565b005b60085481565b6000600160009054906101000a900473ffffffffffffffffffffffffffffffffffffffff16905090565b6000600660159054906101000a900460ff16905090565b60075481565b6000600660149054906101000a900460ff16905090565b60008060009054906101000a900473ffffffffffffffffffffffffffffffffffffffff16905090565b6000600460009054906101000a900473ffffffffffffffffffffffffffffffffffffffff16905090565b600460009054906101000a900473ffffffffffffffffffffffffffffffffffffffff1673ffffffffffffffffffffffffffffffffffffffff163373ffffffffffffffffffffffffffffffffffffffff1614610315576040517f08c379a000000000000000000000000000000000000000000000000000000000815260040161030c9061087e565b60405180910390fd5b600660149054906101000a900460ff1615600660146101000a81548160ff021916908315150217905550565b6000600260009054906101000a900473ffffffffffffffffffffffffffffffffffffffff16905090565b600460009054906101000a900473ffffffffffffffffffffffffffffffffffffffff1673ffffffffffffffffffffffffffffffffffffffff163373ffffffffffffffffffffffffffffffffffffffff16146103fb576040517f08c379a00000000000000000000000000000000000000000000000000000000081526004016103f29061087e565b60405180910390fd5b610416670de0b6b3a76400008361068890919063ffffffff16565b600781905550610437670de0b6b3a76400008261068890919063ffffffff16565b600881905550876000806101000a81548173ffffffffffffffffffffffffffffffffffffffff021916908373ffffffffffffffffffffffffffffffffffffffff16021790555086600160006101000a81548173ffffffffffffffffffffffffffffffffffffffff021916908373ffffffffffffffffffffffffffffffffffffffff16021790555085600260006101000a81548173ffffffffffffffffffffffffffffffffffffffff021916908373ffffffffffffffffffffffffffffffffffffffff16021790555084600360006101000a81548173ffffffffffffffffffffffffffffffffffffffff021916908373ffffffffffffffffffffffffffffffffffffffff16021790555083600560006101000a81548173ffffffffffffffffffffffffffffffffffffffff021916908373ffffffffffffffffffffffffffffffffffffffff16021790555082600660006101000a81548173ffffffffffffffffffffffffffffffffffffffff021916908373ffffffffffffffffffffffffffffffffffffffff1602179055505050505050505050565b600460009054906101000a900473ffffffffffffffffffffffffffffffffffffffff1673ffffffffffffffffffffffffffffffffffffffff163373ffffffffffffffffffffffffffffffffffffffff161461065c576040517f08c379a00000000000000000000000000000000000000000000000000000000081526004016106539061087e565b60405180910390fd5b600660159054906101000a900460ff1615600660156101000a81548160ff021916908315150217905550565b6000818361069691906108ca565b905092915050565b6000813590506106ad81610a42565b92915050565b6000813590506106c281610a59565b92915050565b600080600080600080600080610100898b0312156106e557600080fd5b60006106f38b828c0161069e565b98505060206107048b828c0161069e565b97505060406107158b828c0161069e565b96505060606107268b828c0161069e565b95505060806107378b828c0161069e565b94505060a06107488b828c0161069e565b93505060c06107598b828c016106b3565b92505060e061076a8b828c016106b3565b9150509295985092959890939650565b61078381610936565b82525050565b61079281610948565b82525050565b6107a18161097e565b82525050565b6107b0816109a2565b82525050565b6107bf816109c6565b82525050565b60006107d2601a836108b9565b91506107dd82610a19565b602082019050919050565b6107f181610974565b82525050565b600060208201905061080c600083018461077a565b92915050565b60006020820190506108276000830184610789565b92915050565b60006020820190506108426000830184610798565b92915050565b600060208201905061085d60008301846107a7565b92915050565b600060208201905061087860008301846107b6565b92915050565b60006020820190508181036000830152610897816107c5565b9050919050565b60006020820190506108b360008301846107e8565b92915050565b600082825260208201905092915050565b60006108d582610974565b91506108e083610974565b9250817fffffffffffffffffffffffffffffffffffffffffffffffffffffffffffffffff0483118215151615610919576109186109ea565b5b828202905092915050565b600061092f82610954565b9050919050565b600061094182610954565b9050919050565b60008115159050919050565b600073ffffffffffffffffffffffffffffffffffffffff82169050919050565b6000819050919050565b600061098982610990565b9050919050565b600061099b82610954565b9050919050565b60006109ad826109b4565b9050919050565b60006109bf82610954565b9050919050565b60006109d1826109d8565b9050919050565b60006109e382610954565b9050919050565b7f4e487b7100000000000000000000000000000000000000000000000000000000600052601160045260246000fd5b7f4865726f436f7265204572726f72203a206f6e6c794f776e6572000000000000600082015250565b610a4b81610924565b8114610a5657600080fd5b50565b610a6281610974565b8114610a6d57600080fd5b5056fea26469706673582212209ea7c4a7860d9a011e074aa191884327da75e62679b1cfa91c138a0de37f8fb464736f6c63430008040033",
					"opcodes": "PUSH1 0x80 PUSH1 0x40 MSTORE CALLVALUE DUP1 ISZERO PUSH2 0x10 JUMPI PUSH1 0x0 DUP1 REVERT JUMPDEST POP PUSH1 0x1 PUSH1 0x6 PUSH1 0x14 PUSH2 0x100 EXP DUP2 SLOAD DUP2 PUSH1 0xFF MUL NOT AND SWAP1 DUP4 ISZERO ISZERO MUL OR SWAP1 SSTORE POP PUSH1 0x1 PUSH1 0x6 PUSH1 0x15 PUSH2 0x100 EXP DUP2 SLOAD DUP2 PUSH1 0xFF MUL NOT AND SWAP1 DUP4 ISZERO ISZERO MUL OR SWAP1 SSTORE POP CALLER PUSH1 0x4 PUSH1 0x0 PUSH2 0x100 EXP DUP2 SLOAD DUP2 PUSH20 0xFFFFFFFFFFFFFFFFFFFFFFFFFFFFFFFFFFFFFFFF MUL NOT AND SWAP1 DUP4 PUSH20 0xFFFFFFFFFFFFFFFFFFFFFFFFFFFFFFFFFFFFFFFF AND MUL OR SWAP1 SSTORE POP PUSH2 0xAA6 DUP1 PUSH2 0x97 PUSH1 0x0 CODECOPY PUSH1 0x0 RETURN INVALID PUSH1 0x80 PUSH1 0x40 MSTORE CALLVALUE DUP1 ISZERO PUSH2 0x10 JUMPI PUSH1 0x0 DUP1 REVERT JUMPDEST POP PUSH1 0x4 CALLDATASIZE LT PUSH2 0xA9 JUMPI PUSH1 0x0 CALLDATALOAD PUSH1 0xE0 SHR DUP1 PUSH4 0x7CAC00EE GT PUSH2 0x71 JUMPI DUP1 PUSH4 0x7CAC00EE EQ PUSH2 0x144 JUMPI DUP1 PUSH4 0x893D20E8 EQ PUSH2 0x162 JUMPI DUP1 PUSH4 0x9EB4EAE5 EQ PUSH2 0x180 JUMPI DUP1 PUSH4 0xC412EABA EQ PUSH2 0x18A JUMPI DUP1 PUSH4 0xC740671F EQ PUSH2 0x1A8 JUMPI DUP1 PUSH4 0xEE72B8CC EQ PUSH2 0x1C4 JUMPI PUSH2 0xA9 JUMP JUMPDEST DUP1 PUSH4 0x1B9CBDFB EQ PUSH2 0xAE JUMPI DUP1 PUSH4 0x21DF0DA7 EQ PUSH2 0xCC JUMPI DUP1 PUSH4 0x28919DF6 EQ PUSH2 0xEA JUMPI DUP1 PUSH4 0x3A1A8080 EQ PUSH2 0x108 JUMPI DUP1 PUSH4 0x6805B84B EQ PUSH2 0x126 JUMPI JUMPDEST PUSH1 0x0 DUP1 REVERT JUMPDEST PUSH2 0xB6 PUSH2 0x1CE JUMP JUMPDEST PUSH1 0x40 MLOAD PUSH2 0xC3 SWAP2 SWAP1 PUSH2 0x89E JUMP JUMPDEST PUSH1 0x40 MLOAD DUP1 SWAP2 SUB SWAP1 RETURN JUMPDEST PUSH2 0xD4 PUSH2 0x1D4 JUMP JUMPDEST PUSH1 0x40 MLOAD PUSH2 0xE1 SWAP2 SWAP1 PUSH2 0x863 JUMP JUMPDEST PUSH1 0x40 MLOAD DUP1 SWAP2 SUB SWAP1 RETURN JUMPDEST PUSH2 0xF2 PUSH2 0x1FE JUMP JUMPDEST PUSH1 0x40 MLOAD PUSH2 0xFF SWAP2 SWAP1 PUSH2 0x812 JUMP JUMPDEST PUSH1 0x40 MLOAD DUP1 SWAP2 SUB SWAP1 RETURN JUMPDEST PUSH2 0x110 PUSH2 0x215 JUMP JUMPDEST PUSH1 0x40 MLOAD PUSH2 0x11D SWAP2 SWAP1 PUSH2 0x89E JUMP JUMPDEST PUSH1 0x40 MLOAD DUP1 SWAP2 SUB SWAP1 RETURN JUMPDEST PUSH2 0x12E PUSH2 0x21B JUMP JUMPDEST PUSH1 0x40 MLOAD PUSH2 0x13B SWAP2 SWAP1 PUSH2 0x812 JUMP JUMPDEST PUSH1 0x40 MLOAD DUP1 SWAP2 SUB SWAP1 RETURN JUMPDEST PUSH2 0x14C PUSH2 0x232 JUMP JUMPDEST PUSH1 0x40 MLOAD PUSH2 0x159 SWAP2 SWAP1 PUSH2 0x82D JUMP JUMPDEST PUSH1 0x40 MLOAD DUP1 SWAP2 SUB SWAP1 RETURN JUMPDEST PUSH2 0x16A PUSH2 0x25B JUMP JUMPDEST PUSH1 0x40 MLOAD PUSH2 0x177 SWAP2 SWAP1 PUSH2 0x7F7 JUMP JUMPDEST PUSH1 0x40 MLOAD DUP1 SWAP2 SUB SWAP1 RETURN JUMPDEST PUSH2 0x188 PUSH2 0x285 JUMP JUMPDEST STOP JUMPDEST PUSH2 0x192 PUSH2 0x341 JUMP JUMPDEST PUSH1 0x40 MLOAD PUSH2 0x19F SWAP2 SWAP1 PUSH2 0x848 JUMP JUMPDEST PUSH1 0x40 MLOAD DUP1 SWAP2 SUB SWAP1 RETURN JUMPDEST PUSH2 0x1C2 PUSH1 0x4 DUP1 CALLDATASIZE SUB DUP2 ADD SWAP1 PUSH2 0x1BD SWAP2 SWAP1 PUSH2 0x6C8 JUMP JUMPDEST PUSH2 0x36B JUMP JUMPDEST STOP JUMPDEST PUSH2 0x1CC PUSH2 0x5CC JUMP JUMPDEST STOP JUMPDEST PUSH1 0x8 SLOAD DUP2 JUMP JUMPDEST PUSH1 0x0 PUSH1 0x1 PUSH1 0x0 SWAP1 SLOAD SWAP1 PUSH2 0x100 EXP SWAP1 DIV PUSH20 0xFFFFFFFFFFFFFFFFFFFFFFFFFFFFFFFFFFFFFFFF AND SWAP1 POP SWAP1 JUMP JUMPDEST PUSH1 0x0 PUSH1 0x6 PUSH1 0x15 SWAP1 SLOAD SWAP1 PUSH2 0x100 EXP SWAP1 DIV PUSH1 0xFF AND SWAP1 POP SWAP1 JUMP JUMPDEST PUSH1 0x7 SLOAD DUP2 JUMP JUMPDEST PUSH1 0x0 PUSH1 0x6 PUSH1 0x14 SWAP1 SLOAD SWAP1 PUSH2 0x100 EXP SWAP1 DIV PUSH1 0xFF AND SWAP1 POP SWAP1 JUMP JUMPDEST PUSH1 0x0 DUP1 PUSH1 0x0 SWAP1 SLOAD SWAP1 PUSH2 0x100 EXP SWAP1 DIV PUSH20 0xFFFFFFFFFFFFFFFFFFFFFFFFFFFFFFFFFFFFFFFF AND SWAP1 POP SWAP1 JUMP JUMPDEST PUSH1 0x0 PUSH1 0x4 PUSH1 0x0 SWAP1 SLOAD SWAP1 PUSH2 0x100 EXP SWAP1 DIV PUSH20 0xFFFFFFFFFFFFFFFFFFFFFFFFFFFFFFFFFFFFFFFF AND SWAP1 POP SWAP1 JUMP JUMPDEST PUSH1 0x4 PUSH1 0x0 SWAP1 SLOAD SWAP1 PUSH2 0x100 EXP SWAP1 DIV PUSH20 0xFFFFFFFFFFFFFFFFFFFFFFFFFFFFFFFFFFFFFFFF AND PUSH20 0xFFFFFFFFFFFFFFFFFFFFFFFFFFFFFFFFFFFFFFFF AND CALLER PUSH20 0xFFFFFFFFFFFFFFFFFFFFFFFFFFFFFFFFFFFFFFFF AND EQ PUSH2 0x315 JUMPI PUSH1 0x40 MLOAD PUSH32 0x8C379A000000000000000000000000000000000000000000000000000000000 DUP2 MSTORE PUSH1 0x4 ADD PUSH2 0x30C SWAP1 PUSH2 0x87E JUMP JUMPDEST PUSH1 0x40 MLOAD DUP1 SWAP2 SUB SWAP1 REVERT JUMPDEST PUSH1 0x6 PUSH1 0x14 SWAP1 SLOAD SWAP1 PUSH2 0x100 EXP SWAP1 DIV PUSH1 0xFF AND ISZERO PUSH1 0x6 PUSH1 0x14 PUSH2 0x100 EXP DUP2 SLOAD DUP2 PUSH1 0xFF MUL NOT AND SWAP1 DUP4 ISZERO ISZERO MUL OR SWAP1 SSTORE POP JUMP JUMPDEST PUSH1 0x0 PUSH1 0x2 PUSH1 0x0 SWAP1 SLOAD SWAP1 PUSH2 0x100 EXP SWAP1 DIV PUSH20 0xFFFFFFFFFFFFFFFFFFFFFFFFFFFFFFFFFFFFFFFF AND SWAP1 POP SWAP1 JUMP JUMPDEST PUSH1 0x4 PUSH1 0x0 SWAP1 SLOAD SWAP1 PUSH2 0x100 EXP SWAP1 DIV PUSH20 0xFFFFFFFFFFFFFFFFFFFFFFFFFFFFFFFFFFFFFFFF AND PUSH20 0xFFFFFFFFFFFFFFFFFFFFFFFFFFFFFFFFFFFFFFFF AND CALLER PUSH20 0xFFFFFFFFFFFFFFFFFFFFFFFFFFFFFFFFFFFFFFFF AND EQ PUSH2 0x3FB JUMPI PUSH1 0x40 MLOAD PUSH32 0x8C379A000000000000000000000000000000000000000000000000000000000 DUP2 MSTORE PUSH1 0x4 ADD PUSH2 0x3F2 SWAP1 PUSH2 0x87E JUMP JUMPDEST PUSH1 0x40 MLOAD DUP1 SWAP2 SUB SWAP1 REVERT JUMPDEST PUSH2 0x416 PUSH8 0xDE0B6B3A7640000 DUP4 PUSH2 0x688 SWAP1 SWAP2 SWAP1 PUSH4 0xFFFFFFFF AND JUMP JUMPDEST PUSH1 0x7 DUP2 SWAP1 SSTORE POP PUSH2 0x437 PUSH8 0xDE0B6B3A7640000 DUP3 PUSH2 0x688 SWAP1 SWAP2 SWAP1 PUSH4 0xFFFFFFFF AND JUMP JUMPDEST PUSH1 0x8 DUP2 SWAP1 SSTORE POP DUP8 PUSH1 0x0 DUP1 PUSH2 0x100 EXP DUP2 SLOAD DUP2 PUSH20 0xFFFFFFFFFFFFFFFFFFFFFFFFFFFFFFFFFFFFFFFF MUL NOT AND SWAP1 DUP4 PUSH20 0xFFFFFFFFFFFFFFFFFFFFFFFFFFFFFFFFFFFFFFFF AND MUL OR SWAP1 SSTORE POP DUP7 PUSH1 0x1 PUSH1 0x0 PUSH2 0x100 EXP DUP2 SLOAD DUP2 PUSH20 0xFFFFFFFFFFFFFFFFFFFFFFFFFFFFFFFFFFFFFFFF MUL NOT AND SWAP1 DUP4 PUSH20 0xFFFFFFFFFFFFFFFFFFFFFFFFFFFFFFFFFFFFFFFF AND MUL OR SWAP1 SSTORE POP DUP6 PUSH1 0x2 PUSH1 0x0 PUSH2 0x100 EXP DUP2 SLOAD DUP2 PUSH20 0xFFFFFFFFFFFFFFFFFFFFFFFFFFFFFFFFFFFFFFFF MUL NOT AND SWAP1 DUP4 PUSH20 0xFFFFFFFFFFFFFFFFFFFFFFFFFFFFFFFFFFFFFFFF AND MUL OR SWAP1 SSTORE POP DUP5 PUSH1 0x3 PUSH1 0x0 PUSH2 0x100 EXP DUP2 SLOAD DUP2 PUSH20 0xFFFFFFFFFFFFFFFFFFFFFFFFFFFFFFFFFFFFFFFF MUL NOT AND SWAP1 DUP4 PUSH20 0xFFFFFFFFFFFFFFFFFFFFFFFFFFFFFFFFFFFFFFFF AND MUL OR SWAP1 SSTORE POP DUP4 PUSH1 0x5 PUSH1 0x0 PUSH2 0x100 EXP DUP2 SLOAD DUP2 PUSH20 0xFFFFFFFFFFFFFFFFFFFFFFFFFFFFFFFFFFFFFFFF MUL NOT AND SWAP1 DUP4 PUSH20 0xFFFFFFFFFFFFFFFFFFFFFFFFFFFFFFFFFFFFFFFF AND MUL OR SWAP1 SSTORE POP DUP3 PUSH1 0x6 PUSH1 0x0 PUSH2 0x100 EXP DUP2 SLOAD DUP2 PUSH20 0xFFFFFFFFFFFFFFFFFFFFFFFFFFFFFFFFFFFFFFFF MUL NOT AND SWAP1 DUP4 PUSH20 0xFFFFFFFFFFFFFFFFFFFFFFFFFFFFFFFFFFFFFFFF AND MUL OR SWAP1 SSTORE POP POP POP POP POP POP POP POP POP JUMP JUMPDEST PUSH1 0x4 PUSH1 0x0 SWAP1 SLOAD SWAP1 PUSH2 0x100 EXP SWAP1 DIV PUSH20 0xFFFFFFFFFFFFFFFFFFFFFFFFFFFFFFFFFFFFFFFF AND PUSH20 0xFFFFFFFFFFFFFFFFFFFFFFFFFFFFFFFFFFFFFFFF AND CALLER PUSH20 0xFFFFFFFFFFFFFFFFFFFFFFFFFFFFFFFFFFFFFFFF AND EQ PUSH2 0x65C JUMPI PUSH1 0x40 MLOAD PUSH32 0x8C379A000000000000000000000000000000000000000000000000000000000 DUP2 MSTORE PUSH1 0x4 ADD PUSH2 0x653 SWAP1 PUSH2 0x87E JUMP JUMPDEST PUSH1 0x40 MLOAD DUP1 SWAP2 SUB SWAP1 REVERT JUMPDEST PUSH1 0x6 PUSH1 0x15 SWAP1 SLOAD SWAP1 PUSH2 0x100 EXP SWAP1 DIV PUSH1 0xFF AND ISZERO PUSH1 0x6 PUSH1 0x15 PUSH2 0x100 EXP DUP2 SLOAD DUP2 PUSH1 0xFF MUL NOT AND SWAP1 DUP4 ISZERO ISZERO MUL OR SWAP1 SSTORE POP JUMP JUMPDEST PUSH1 0x0 DUP2 DUP4 PUSH2 0x696 SWAP2 SWAP1 PUSH2 0x8CA JUMP JUMPDEST SWAP1 POP SWAP3 SWAP2 POP POP JUMP JUMPDEST PUSH1 0x0 DUP2 CALLDATALOAD SWAP1 POP PUSH2 0x6AD DUP2 PUSH2 0xA42 JUMP JUMPDEST SWAP3 SWAP2 POP POP JUMP JUMPDEST PUSH1 0x0 DUP2 CALLDATALOAD SWAP1 POP PUSH2 0x6C2 DUP2 PUSH2 0xA59 JUMP JUMPDEST SWAP3 SWAP2 POP POP JUMP JUMPDEST PUSH1 0x0 DUP1 PUSH1 0x0 DUP1 PUSH1 0x0 DUP1 PUSH1 0x0 DUP1 PUSH2 0x100 DUP10 DUP12 SUB SLT ISZERO PUSH2 0x6E5 JUMPI PUSH1 0x0 DUP1 REVERT JUMPDEST PUSH1 0x0 PUSH2 0x6F3 DUP12 DUP3 DUP13 ADD PUSH2 0x69E JUMP JUMPDEST SWAP9 POP POP PUSH1 0x20 PUSH2 0x704 DUP12 DUP3 DUP13 ADD PUSH2 0x69E JUMP JUMPDEST SWAP8 POP POP PUSH1 0x40 PUSH2 0x715 DUP12 DUP3 DUP13 ADD PUSH2 0x69E JUMP JUMPDEST SWAP7 POP POP PUSH1 0x60 PUSH2 0x726 DUP12 DUP3 DUP13 ADD PUSH2 0x69E JUMP JUMPDEST SWAP6 POP POP PUSH1 0x80 PUSH2 0x737 DUP12 DUP3 DUP13 ADD PUSH2 0x69E JUMP JUMPDEST SWAP5 POP POP PUSH1 0xA0 PUSH2 0x748 DUP12 DUP3 DUP13 ADD PUSH2 0x69E JUMP JUMPDEST SWAP4 POP POP PUSH1 0xC0 PUSH2 0x759 DUP12 DUP3 DUP13 ADD PUSH2 0x6B3 JUMP JUMPDEST SWAP3 POP POP PUSH1 0xE0 PUSH2 0x76A DUP12 DUP3 DUP13 ADD PUSH2 0x6B3 JUMP JUMPDEST SWAP2 POP POP SWAP3 SWAP6 SWAP9 POP SWAP3 SWAP6 SWAP9 SWAP1 SWAP4 SWAP7 POP JUMP JUMPDEST PUSH2 0x783 DUP2 PUSH2 0x936 JUMP JUMPDEST DUP3 MSTORE POP POP JUMP JUMPDEST PUSH2 0x792 DUP2 PUSH2 0x948 JUMP JUMPDEST DUP3 MSTORE POP POP JUMP JUMPDEST PUSH2 0x7A1 DUP2 PUSH2 0x97E JUMP JUMPDEST DUP3 MSTORE POP POP JUMP JUMPDEST PUSH2 0x7B0 DUP2 PUSH2 0x9A2 JUMP JUMPDEST DUP3 MSTORE POP POP JUMP JUMPDEST PUSH2 0x7BF DUP2 PUSH2 0x9C6 JUMP JUMPDEST DUP3 MSTORE POP POP JUMP JUMPDEST PUSH1 0x0 PUSH2 0x7D2 PUSH1 0x1A DUP4 PUSH2 0x8B9 JUMP JUMPDEST SWAP2 POP PUSH2 0x7DD DUP3 PUSH2 0xA19 JUMP JUMPDEST PUSH1 0x20 DUP3 ADD SWAP1 POP SWAP2 SWAP1 POP JUMP JUMPDEST PUSH2 0x7F1 DUP2 PUSH2 0x974 JUMP JUMPDEST DUP3 MSTORE POP POP JUMP JUMPDEST PUSH1 0x0 PUSH1 0x20 DUP3 ADD SWAP1 POP PUSH2 0x80C PUSH1 0x0 DUP4 ADD DUP5 PUSH2 0x77A JUMP JUMPDEST SWAP3 SWAP2 POP POP JUMP JUMPDEST PUSH1 0x0 PUSH1 0x20 DUP3 ADD SWAP1 POP PUSH2 0x827 PUSH1 0x0 DUP4 ADD DUP5 PUSH2 0x789 JUMP JUMPDEST SWAP3 SWAP2 POP POP JUMP JUMPDEST PUSH1 0x0 PUSH1 0x20 DUP3 ADD SWAP1 POP PUSH2 0x842 PUSH1 0x0 DUP4 ADD DUP5 PUSH2 0x798 JUMP JUMPDEST SWAP3 SWAP2 POP POP JUMP JUMPDEST PUSH1 0x0 PUSH1 0x20 DUP3 ADD SWAP1 POP PUSH2 0x85D PUSH1 0x0 DUP4 ADD DUP5 PUSH2 0x7A7 JUMP JUMPDEST SWAP3 SWAP2 POP POP JUMP JUMPDEST PUSH1 0x0 PUSH1 0x20 DUP3 ADD SWAP1 POP PUSH2 0x878 PUSH1 0x0 DUP4 ADD DUP5 PUSH2 0x7B6 JUMP JUMPDEST SWAP3 SWAP2 POP POP JUMP JUMPDEST PUSH1 0x0 PUSH1 0x20 DUP3 ADD SWAP1 POP DUP2 DUP2 SUB PUSH1 0x0 DUP4 ADD MSTORE PUSH2 0x897 DUP2 PUSH2 0x7C5 JUMP JUMPDEST SWAP1 POP SWAP2 SWAP1 POP JUMP JUMPDEST PUSH1 0x0 PUSH1 0x20 DUP3 ADD SWAP1 POP PUSH2 0x8B3 PUSH1 0x0 DUP4 ADD DUP5 PUSH2 0x7E8 JUMP JUMPDEST SWAP3 SWAP2 POP POP JUMP JUMPDEST PUSH1 0x0 DUP3 DUP3 MSTORE PUSH1 0x20 DUP3 ADD SWAP1 POP SWAP3 SWAP2 POP POP JUMP JUMPDEST PUSH1 0x0 PUSH2 0x8D5 DUP3 PUSH2 0x974 JUMP JUMPDEST SWAP2 POP PUSH2 0x8E0 DUP4 PUSH2 0x974 JUMP JUMPDEST SWAP3 POP DUP2 PUSH32 0xFFFFFFFFFFFFFFFFFFFFFFFFFFFFFFFFFFFFFFFFFFFFFFFFFFFFFFFFFFFFFFFF DIV DUP4 GT DUP3 ISZERO ISZERO AND ISZERO PUSH2 0x919 JUMPI PUSH2 0x918 PUSH2 0x9EA JUMP JUMPDEST JUMPDEST DUP3 DUP3 MUL SWAP1 POP SWAP3 SWAP2 POP POP JUMP JUMPDEST PUSH1 0x0 PUSH2 0x92F DUP3 PUSH2 0x954 JUMP JUMPDEST SWAP1 POP SWAP2 SWAP1 POP JUMP JUMPDEST PUSH1 0x0 PUSH2 0x941 DUP3 PUSH2 0x954 JUMP JUMPDEST SWAP1 POP SWAP2 SWAP1 POP JUMP JUMPDEST PUSH1 0x0 DUP2 ISZERO ISZERO SWAP1 POP SWAP2 SWAP1 POP JUMP JUMPDEST PUSH1 0x0 PUSH20 0xFFFFFFFFFFFFFFFFFFFFFFFFFFFFFFFFFFFFFFFF DUP3 AND SWAP1 POP SWAP2 SWAP1 POP JUMP JUMPDEST PUSH1 0x0 DUP2 SWAP1 POP SWAP2 SWAP1 POP JUMP JUMPDEST PUSH1 0x0 PUSH2 0x989 DUP3 PUSH2 0x990 JUMP JUMPDEST SWAP1 POP SWAP2 SWAP1 POP JUMP JUMPDEST PUSH1 0x0 PUSH2 0x99B DUP3 PUSH2 0x954 JUMP JUMPDEST SWAP1 POP SWAP2 SWAP1 POP JUMP JUMPDEST PUSH1 0x0 PUSH2 0x9AD DUP3 PUSH2 0x9B4 JUMP JUMPDEST SWAP1 POP SWAP2 SWAP1 POP JUMP JUMPDEST PUSH1 0x0 PUSH2 0x9BF DUP3 PUSH2 0x954 JUMP JUMPDEST SWAP1 POP SWAP2 SWAP1 POP JUMP JUMPDEST PUSH1 0x0 PUSH2 0x9D1 DUP3 PUSH2 0x9D8 JUMP JUMPDEST SWAP1 POP SWAP2 SWAP1 POP JUMP JUMPDEST PUSH1 0x0 PUSH2 0x9E3 DUP3 PUSH2 0x954 JUMP JUMPDEST SWAP1 POP SWAP2 SWAP1 POP JUMP JUMPDEST PUSH32 0x4E487B7100000000000000000000000000000000000000000000000000000000 PUSH1 0x0 MSTORE PUSH1 0x11 PUSH1 0x4 MSTORE PUSH1 0x24 PUSH1 0x0 REVERT JUMPDEST PUSH32 0x4865726F436F7265204572726F72203A206F6E6C794F776E6572000000000000 PUSH1 0x0 DUP3 ADD MSTORE POP JUMP JUMPDEST PUSH2 0xA4B DUP2 PUSH2 0x924 JUMP JUMPDEST DUP2 EQ PUSH2 0xA56 JUMPI PUSH1 0x0 DUP1 REVERT JUMPDEST POP JUMP JUMPDEST PUSH2 0xA62 DUP2 PUSH2 0x974 JUMP JUMPDEST DUP2 EQ PUSH2 0xA6D JUMPI PUSH1 0x0 DUP1 REVERT JUMPDEST POP JUMP INVALID LOG2 PUSH5 0x6970667358 0x22 SLT KECCAK256 SWAP15 0xA7 0xC4 0xA7 DUP7 0xD SWAP11 ADD 0x1E SMOD 0x4A LOG1 SWAP2 DUP9 NUMBER 0x27 0xDA PUSH22 0xE62679B1CFA91C138A0DE37F8FB464736F6C63430008 DIV STOP CALLER "
				},
				"gasEstimates": {
					"creation": {
						"codeDepositCost": "545200",
						"executionCost": "63281",
						"totalCost": "608481"
					},
					"external": {
						"changeMiningPaused()": "22930",
						"changePaused()": "22864",
						"getHeroNFT()": "1265",
						"getItem()": "1331",
						"getMiningPaused()": "1274",
						"getOwner()": "1244",
						"getPaused()": "1318",
						"getToken()": "1288",
						"initialize(address,address,address,address,address,address,uint256,uint256)": "infinite",
						"priceOfKlay()": "1196",
						"priceOfToken()": "1130"
					},
					"internal": {
						"_currentTime()": "infinite"
					}
				},
				"methodIdentifiers": {
					"changeMiningPaused()": "ee72b8cc",
					"changePaused()": "9eb4eae5",
					"getHeroNFT()": "7cac00ee",
					"getItem()": "c412eaba",
					"getMiningPaused()": "28919df6",
					"getOwner()": "893d20e8",
					"getPaused()": "6805b84b",
					"getToken()": "21df0da7",
					"initialize(address,address,address,address,address,address,uint256,uint256)": "c740671f",
					"priceOfKlay()": "3a1a8080",
					"priceOfToken()": "1b9cbdfb"
				}
			},
			"storageLayout": {
				"storage": [
					{
						"astId": 91,
						"contract": "Hero/utils/HeroController.sol:HeroController",
						"label": "heroNFT",
						"offset": 0,
						"slot": "0",
						"type": "t_contract(IHeroNFT)30"
					},
					{
						"astId": 94,
						"contract": "Hero/utils/HeroController.sol:HeroController",
						"label": "token",
						"offset": 0,
						"slot": "1",
						"type": "t_contract(IKIP7)711"
					},
					{
						"astId": 97,
						"contract": "Hero/utils/HeroController.sol:HeroController",
						"label": "item",
						"offset": 0,
						"slot": "2",
						"type": "t_contract(IKIP37Full)580"
					},
					{
						"astId": 100,
						"contract": "Hero/utils/HeroController.sol:HeroController",
						"label": "levelDiagram",
						"offset": 0,
						"slot": "3",
						"type": "t_contract(ILevelDiagram)79"
					},
					{
						"astId": 102,
						"contract": "Hero/utils/HeroController.sol:HeroController",
						"label": "coreOwner",
						"offset": 0,
						"slot": "4",
						"type": "t_address_payable"
					},
					{
						"astId": 104,
						"contract": "Hero/utils/HeroController.sol:HeroController",
						"label": "depositAddress",
						"offset": 0,
						"slot": "5",
						"type": "t_address"
					},
					{
						"astId": 106,
						"contract": "Hero/utils/HeroController.sol:HeroController",
						"label": "miningAddress",
						"offset": 0,
						"slot": "6",
						"type": "t_address"
					},
					{
						"astId": 108,
						"contract": "Hero/utils/HeroController.sol:HeroController",
						"label": "paused",
						"offset": 20,
						"slot": "6",
						"type": "t_bool"
					},
					{
						"astId": 110,
						"contract": "Hero/utils/HeroController.sol:HeroController",
						"label": "miningPaused",
						"offset": 21,
						"slot": "6",
						"type": "t_bool"
					},
					{
						"astId": 112,
						"contract": "Hero/utils/HeroController.sol:HeroController",
						"label": "priceOfKlay",
						"offset": 0,
						"slot": "7",
						"type": "t_uint256"
					},
					{
						"astId": 114,
						"contract": "Hero/utils/HeroController.sol:HeroController",
						"label": "priceOfToken",
						"offset": 0,
						"slot": "8",
						"type": "t_uint256"
					}
				],
				"types": {
					"t_address": {
						"encoding": "inplace",
						"label": "address",
						"numberOfBytes": "20"
					},
					"t_address_payable": {
						"encoding": "inplace",
						"label": "address payable",
						"numberOfBytes": "20"
					},
					"t_bool": {
						"encoding": "inplace",
						"label": "bool",
						"numberOfBytes": "1"
					},
					"t_contract(IHeroNFT)30": {
						"encoding": "inplace",
						"label": "contract IHeroNFT",
						"numberOfBytes": "20"
					},
					"t_contract(IKIP37Full)580": {
						"encoding": "inplace",
						"label": "contract IKIP37Full",
						"numberOfBytes": "20"
					},
					"t_contract(IKIP7)711": {
						"encoding": "inplace",
						"label": "contract IKIP7",
						"numberOfBytes": "20"
					},
					"t_contract(ILevelDiagram)79": {
						"encoding": "inplace",
						"label": "contract ILevelDiagram",
						"numberOfBytes": "20"
					},
					"t_uint256": {
						"encoding": "inplace",
						"label": "uint256",
						"numberOfBytes": "32"
					}
				}
			},
			"userdoc": {
				"kind": "user",
				"methods": {},
				"version": 1
			}
		}
	}
}