{
	"Hero/utils/HeroController.sol": {
		"HeroController": {
			"abi": [
				{
					"inputs": [],
					"stateMutability": "nonpayable",
					"type": "constructor"
				},
				{
					"inputs": [],
					"name": "changeMiningPaused",
					"outputs": [],
					"stateMutability": "nonpayable",
					"type": "function"
				},
				{
					"inputs": [],
					"name": "changePaused",
					"outputs": [],
					"stateMutability": "nonpayable",
					"type": "function"
				},
				{
					"inputs": [],
					"name": "getHeroNFT",
					"outputs": [
						{
							"internalType": "contract IHeroNFT",
							"name": "",
							"type": "address"
						}
					],
					"stateMutability": "view",
					"type": "function"
				},
				{
					"inputs": [],
					"name": "getItem",
					"outputs": [
						{
							"internalType": "contract IKIP37Full",
							"name": "",
							"type": "address"
						}
					],
					"stateMutability": "view",
					"type": "function"
				},
				{
					"inputs": [],
					"name": "getMiningPaused",
					"outputs": [
						{
							"internalType": "bool",
							"name": "",
							"type": "bool"
						}
					],
					"stateMutability": "view",
					"type": "function"
				},
				{
					"inputs": [],
					"name": "getOwner",
					"outputs": [
						{
							"internalType": "address payable",
							"name": "",
							"type": "address"
						}
					],
					"stateMutability": "view",
					"type": "function"
				},
				{
					"inputs": [],
					"name": "getPaused",
					"outputs": [
						{
							"internalType": "bool",
							"name": "",
							"type": "bool"
						}
					],
					"stateMutability": "view",
					"type": "function"
				},
				{
					"inputs": [],
					"name": "getToken",
					"outputs": [
						{
							"internalType": "contract IKIP7",
							"name": "",
							"type": "address"
						}
					],
					"stateMutability": "view",
					"type": "function"
				},
				{
					"inputs": [
						{
							"internalType": "address",
							"name": "_heroNFT",
							"type": "address"
						},
						{
							"internalType": "address",
							"name": "_token",
							"type": "address"
						},
						{
							"internalType": "address",
							"name": "_item",
							"type": "address"
						},
						{
							"internalType": "address",
							"name": "_depositAddress",
							"type": "address"
						},
						{
							"internalType": "address",
							"name": "_miningAddress",
							"type": "address"
						},
						{
							"internalType": "uint256",
							"name": "_klay",
							"type": "uint256"
						},
						{
							"internalType": "uint256",
							"name": "_tokenPrice",
							"type": "uint256"
						}
					],
					"name": "initialize",
					"outputs": [],
					"stateMutability": "nonpayable",
					"type": "function"
				},
				{
					"inputs": [],
					"name": "priceOfKlay",
					"outputs": [
						{
							"internalType": "uint256",
							"name": "",
							"type": "uint256"
						}
					],
					"stateMutability": "view",
					"type": "function"
				},
				{
					"inputs": [],
					"name": "priceOfToken",
					"outputs": [
						{
							"internalType": "uint256",
							"name": "",
							"type": "uint256"
						}
					],
					"stateMutability": "view",
					"type": "function"
				}
			],
			"devdoc": {
				"kind": "dev",
				"methods": {},
				"version": 1
			},
			"evm": {
				"assembly": "    /* \"Hero/utils/HeroController.sol\":261:2366  contract HeroController {... */\n  mstore(0x40, 0x80)\n    /* \"Hero/utils/HeroController.sol\":871:985  constructor() {... */\n  callvalue\n  dup1\n  iszero\n  tag_1\n  jumpi\n  0x00\n  dup1\n  revert\ntag_1:\n  pop\n    /* \"Hero/utils/HeroController.sol\":904:908  true */\n  0x01\n    /* \"Hero/utils/HeroController.sol\":895:901  paused */\n  0x05\n  0x14\n    /* \"Hero/utils/HeroController.sol\":895:908  paused = true */\n  0x0100\n  exp\n  dup2\n  sload\n  dup2\n  0xff\n  mul\n  not\n  and\n  swap1\n  dup4\n  iszero\n  iszero\n  mul\n  or\n  swap1\n  sstore\n  pop\n    /* \"Hero/utils/HeroController.sol\":933:937  true */\n  0x01\n    /* \"Hero/utils/HeroController.sol\":918:930  miningPaused */\n  0x05\n  0x15\n    /* \"Hero/utils/HeroController.sol\":918:937  miningPaused = true */\n  0x0100\n  exp\n  dup2\n  sload\n  dup2\n  0xff\n  mul\n  not\n  and\n  swap1\n  dup4\n  iszero\n  iszero\n  mul\n  or\n  swap1\n  sstore\n  pop\n    /* \"Hero/utils/HeroController.sol\":967:977  msg.sender */\n  caller\n    /* \"Hero/utils/HeroController.sol\":947:956  coreOwner */\n  0x03\n  0x00\n    /* \"Hero/utils/HeroController.sol\":947:978  coreOwner = payable(msg.sender) */\n  0x0100\n  exp\n  dup2\n  sload\n  dup2\n  0xffffffffffffffffffffffffffffffffffffffff\n  mul\n  not\n  and\n  swap1\n  dup4\n  0xffffffffffffffffffffffffffffffffffffffff\n  and\n  mul\n  or\n  swap1\n  sstore\n  pop\n    /* \"Hero/utils/HeroController.sol\":261:2366  contract HeroController {... */\n  dataSize(sub_0)\n  dup1\n  dataOffset(sub_0)\n  0x00\n  codecopy\n  0x00\n  return\nstop\n\nsub_0: assembly {\n        /* \"Hero/utils/HeroController.sol\":261:2366  contract HeroController {... */\n      mstore(0x40, 0x80)\n      callvalue\n      dup1\n      iszero\n      tag_1\n      jumpi\n      0x00\n      dup1\n      revert\n    tag_1:\n      pop\n      jumpi(tag_2, lt(calldatasize, 0x04))\n      shr(0xe0, calldataload(0x00))\n      dup1\n      0x7cac00ee\n      gt\n      tag_14\n      jumpi\n      dup1\n      0x7cac00ee\n      eq\n      tag_8\n      jumpi\n      dup1\n      0x893d20e8\n      eq\n      tag_9\n      jumpi\n      dup1\n      0x9eb4eae5\n      eq\n      tag_10\n      jumpi\n      dup1\n      0xb33f9527\n      eq\n      tag_11\n      jumpi\n      dup1\n      0xc412eaba\n      eq\n      tag_12\n      jumpi\n      dup1\n      0xee72b8cc\n      eq\n      tag_13\n      jumpi\n      jump(tag_2)\n    tag_14:\n      dup1\n      0x1b9cbdfb\n      eq\n      tag_3\n      jumpi\n      dup1\n      0x21df0da7\n      eq\n      tag_4\n      jumpi\n      dup1\n      0x28919df6\n      eq\n      tag_5\n      jumpi\n      dup1\n      0x3a1a8080\n      eq\n      tag_6\n      jumpi\n      dup1\n      0x6805b84b\n      eq\n      tag_7\n      jumpi\n    tag_2:\n      0x00\n      dup1\n      revert\n        /* \"Hero/utils/HeroController.sol\":587:614  uint256 public priceOfToken */\n    tag_3:\n      tag_15\n      tag_16\n      jump\t// in\n    tag_15:\n      mload(0x40)\n      tag_17\n      swap2\n      swap1\n      tag_18\n      jump\t// in\n    tag_17:\n      mload(0x40)\n      dup1\n      swap2\n      sub\n      swap1\n      return\n        /* \"Hero/utils/HeroController.sol\":2096:2173  function getToken() public view returns (IKIP7) {... */\n    tag_4:\n      tag_19\n      tag_20\n      jump\t// in\n    tag_19:\n      mload(0x40)\n      tag_21\n      swap2\n      swap1\n      tag_22\n      jump\t// in\n    tag_21:\n      mload(0x40)\n      dup1\n      swap2\n      sub\n      swap1\n      return\n        /* \"Hero/utils/HeroController.sol\":1914:2004  function getMiningPaused() public view returns (bool) {... */\n    tag_5:\n      tag_23\n      tag_24\n      jump\t// in\n    tag_23:\n      mload(0x40)\n      tag_25\n      swap2\n      swap1\n      tag_26\n      jump\t// in\n    tag_25:\n      mload(0x40)\n      dup1\n      swap2\n      sub\n      swap1\n      return\n        /* \"Hero/utils/HeroController.sol\":555:581  uint256 public priceOfKlay */\n    tag_6:\n      tag_27\n      tag_28\n      jump\t// in\n    tag_27:\n      mload(0x40)\n      tag_29\n      swap2\n      swap1\n      tag_18\n      jump\t// in\n    tag_29:\n      mload(0x40)\n      dup1\n      swap2\n      sub\n      swap1\n      return\n        /* \"Hero/utils/HeroController.sol\":1830:1908  function getPaused() public view returns (bool) {... */\n    tag_7:\n      tag_30\n      tag_31\n      jump\t// in\n    tag_30:\n      mload(0x40)\n      tag_32\n      swap2\n      swap1\n      tag_26\n      jump\t// in\n    tag_32:\n      mload(0x40)\n      dup1\n      swap2\n      sub\n      swap1\n      return\n        /* \"Hero/utils/HeroController.sol\":2179:2263  function getHeroNFT() public view returns (IHeroNFT) {... */\n    tag_8:\n      tag_33\n      tag_34\n      jump\t// in\n    tag_33:\n      mload(0x40)\n      tag_35\n      swap2\n      swap1\n      tag_36\n      jump\t// in\n    tag_35:\n      mload(0x40)\n      dup1\n      swap2\n      sub\n      swap1\n      return\n        /* \"Hero/utils/HeroController.sol\":1733:1824  function getOwner() public view returns (address payable) {... */\n    tag_9:\n      tag_37\n      tag_38\n      jump\t// in\n    tag_37:\n      mload(0x40)\n      tag_39\n      swap2\n      swap1\n      tag_40\n      jump\t// in\n    tag_39:\n      mload(0x40)\n      dup1\n      swap2\n      sub\n      swap1\n      return\n        /* \"Hero/utils/HeroController.sol\":1519:1595  function changePaused() external onlyOwner {... */\n    tag_10:\n      tag_41\n      tag_42\n      jump\t// in\n    tag_41:\n      stop\n        /* \"Hero/utils/HeroController.sol\":991:1513  function initialize(... */\n    tag_11:\n      tag_43\n      0x04\n      dup1\n      calldatasize\n      sub\n      dup2\n      add\n      swap1\n      tag_44\n      swap2\n      swap1\n      tag_45\n      jump\t// in\n    tag_44:\n      tag_46\n      jump\t// in\n    tag_43:\n      stop\n        /* \"Hero/utils/HeroController.sol\":2010:2090  function getItem() public view returns (IKIP37Full) {... */\n    tag_12:\n      tag_47\n      tag_48\n      jump\t// in\n    tag_47:\n      mload(0x40)\n      tag_49\n      swap2\n      swap1\n      tag_50\n      jump\t// in\n    tag_49:\n      mload(0x40)\n      dup1\n      swap2\n      sub\n      swap1\n      return\n        /* \"Hero/utils/HeroController.sol\":1601:1695  function changeMiningPaused() external onlyOwner {... */\n    tag_13:\n      tag_51\n      tag_52\n      jump\t// in\n    tag_51:\n      stop\n        /* \"Hero/utils/HeroController.sol\":587:614  uint256 public priceOfToken */\n    tag_16:\n      sload(0x07)\n      dup2\n      jump\t// out\n        /* \"Hero/utils/HeroController.sol\":2096:2173  function getToken() public view returns (IKIP7) {... */\n    tag_20:\n        /* \"Hero/utils/HeroController.sol\":2137:2142  IKIP7 */\n      0x00\n        /* \"Hero/utils/HeroController.sol\":2161:2166  token */\n      0x01\n      0x00\n      swap1\n      sload\n      swap1\n      0x0100\n      exp\n      swap1\n      div\n      0xffffffffffffffffffffffffffffffffffffffff\n      and\n        /* \"Hero/utils/HeroController.sol\":2154:2166  return token */\n      swap1\n      pop\n        /* \"Hero/utils/HeroController.sol\":2096:2173  function getToken() public view returns (IKIP7) {... */\n      swap1\n      jump\t// out\n        /* \"Hero/utils/HeroController.sol\":1914:2004  function getMiningPaused() public view returns (bool) {... */\n    tag_24:\n        /* \"Hero/utils/HeroController.sol\":1962:1966  bool */\n      0x00\n        /* \"Hero/utils/HeroController.sol\":1985:1997  miningPaused */\n      0x05\n      0x15\n      swap1\n      sload\n      swap1\n      0x0100\n      exp\n      swap1\n      div\n      0xff\n      and\n        /* \"Hero/utils/HeroController.sol\":1978:1997  return miningPaused */\n      swap1\n      pop\n        /* \"Hero/utils/HeroController.sol\":1914:2004  function getMiningPaused() public view returns (bool) {... */\n      swap1\n      jump\t// out\n        /* \"Hero/utils/HeroController.sol\":555:581  uint256 public priceOfKlay */\n    tag_28:\n      sload(0x06)\n      dup2\n      jump\t// out\n        /* \"Hero/utils/HeroController.sol\":1830:1908  function getPaused() public view returns (bool) {... */\n    tag_31:\n        /* \"Hero/utils/HeroController.sol\":1872:1876  bool */\n      0x00\n        /* \"Hero/utils/HeroController.sol\":1895:1901  paused */\n      0x05\n      0x14\n      swap1\n      sload\n      swap1\n      0x0100\n      exp\n      swap1\n      div\n      0xff\n      and\n        /* \"Hero/utils/HeroController.sol\":1888:1901  return paused */\n      swap1\n      pop\n        /* \"Hero/utils/HeroController.sol\":1830:1908  function getPaused() public view returns (bool) {... */\n      swap1\n      jump\t// out\n        /* \"Hero/utils/HeroController.sol\":2179:2263  function getHeroNFT() public view returns (IHeroNFT) {... */\n    tag_34:\n        /* \"Hero/utils/HeroController.sol\":2222:2230  IHeroNFT */\n      0x00\n        /* \"Hero/utils/HeroController.sol\":2249:2256  heroNFT */\n      dup1\n      0x00\n      swap1\n      sload\n      swap1\n      0x0100\n      exp\n      swap1\n      div\n      0xffffffffffffffffffffffffffffffffffffffff\n      and\n        /* \"Hero/utils/HeroController.sol\":2242:2256  return heroNFT */\n      swap1\n      pop\n        /* \"Hero/utils/HeroController.sol\":2179:2263  function getHeroNFT() public view returns (IHeroNFT) {... */\n      swap1\n      jump\t// out\n        /* \"Hero/utils/HeroController.sol\":1733:1824  function getOwner() public view returns (address payable) {... */\n    tag_38:\n        /* \"Hero/utils/HeroController.sol\":1774:1789  address payable */\n      0x00\n        /* \"Hero/utils/HeroController.sol\":1808:1817  coreOwner */\n      0x03\n      0x00\n      swap1\n      sload\n      swap1\n      0x0100\n      exp\n      swap1\n      div\n      0xffffffffffffffffffffffffffffffffffffffff\n      and\n        /* \"Hero/utils/HeroController.sol\":1801:1817  return coreOwner */\n      swap1\n      pop\n        /* \"Hero/utils/HeroController.sol\":1733:1824  function getOwner() public view returns (address payable) {... */\n      swap1\n      jump\t// out\n        /* \"Hero/utils/HeroController.sol\":1519:1595  function changePaused() external onlyOwner {... */\n    tag_42:\n        /* \"Hero/utils/HeroController.sol\":807:816  coreOwner */\n      0x03\n      0x00\n      swap1\n      sload\n      swap1\n      0x0100\n      exp\n      swap1\n      div\n      0xffffffffffffffffffffffffffffffffffffffff\n      and\n        /* \"Hero/utils/HeroController.sol\":793:816  msg.sender == coreOwner */\n      0xffffffffffffffffffffffffffffffffffffffff\n      and\n        /* \"Hero/utils/HeroController.sol\":793:803  msg.sender */\n      caller\n        /* \"Hero/utils/HeroController.sol\":793:816  msg.sender == coreOwner */\n      0xffffffffffffffffffffffffffffffffffffffff\n      and\n      eq\n        /* \"Hero/utils/HeroController.sol\":785:847  require(msg.sender == coreOwner, \"HeroCore Error : onlyOwner\") */\n      tag_59\n      jumpi\n      mload(0x40)\n      0x08c379a000000000000000000000000000000000000000000000000000000000\n      dup2\n      mstore\n      0x04\n      add\n      tag_60\n      swap1\n      tag_61\n      jump\t// in\n    tag_60:\n      mload(0x40)\n      dup1\n      swap2\n      sub\n      swap1\n      revert\n    tag_59:\n        /* \"Hero/utils/HeroController.sol\":1582:1588  paused */\n      0x05\n      0x14\n      swap1\n      sload\n      swap1\n      0x0100\n      exp\n      swap1\n      div\n      0xff\n      and\n        /* \"Hero/utils/HeroController.sol\":1581:1588  !paused */\n      iszero\n        /* \"Hero/utils/HeroController.sol\":1572:1578  paused */\n      0x05\n      0x14\n        /* \"Hero/utils/HeroController.sol\":1572:1588  paused = !paused */\n      0x0100\n      exp\n      dup2\n      sload\n      dup2\n      0xff\n      mul\n      not\n      and\n      swap1\n      dup4\n      iszero\n      iszero\n      mul\n      or\n      swap1\n      sstore\n      pop\n        /* \"Hero/utils/HeroController.sol\":1519:1595  function changePaused() external onlyOwner {... */\n      jump\t// out\n        /* \"Hero/utils/HeroController.sol\":991:1513  function initialize(... */\n    tag_46:\n        /* \"Hero/utils/HeroController.sol\":807:816  coreOwner */\n      0x03\n      0x00\n      swap1\n      sload\n      swap1\n      0x0100\n      exp\n      swap1\n      div\n      0xffffffffffffffffffffffffffffffffffffffff\n      and\n        /* \"Hero/utils/HeroController.sol\":793:816  msg.sender == coreOwner */\n      0xffffffffffffffffffffffffffffffffffffffff\n      and\n        /* \"Hero/utils/HeroController.sol\":793:803  msg.sender */\n      caller\n        /* \"Hero/utils/HeroController.sol\":793:816  msg.sender == coreOwner */\n      0xffffffffffffffffffffffffffffffffffffffff\n      and\n      eq\n        /* \"Hero/utils/HeroController.sol\":785:847  require(msg.sender == coreOwner, \"HeroCore Error : onlyOwner\") */\n      tag_64\n      jumpi\n      mload(0x40)\n      0x08c379a000000000000000000000000000000000000000000000000000000000\n      dup2\n      mstore\n      0x04\n      add\n      tag_65\n      swap1\n      tag_61\n      jump\t// in\n    tag_65:\n      mload(0x40)\n      dup1\n      swap2\n      sub\n      swap1\n      revert\n    tag_64:\n        /* \"Hero/utils/HeroController.sol\":1250:1269  _klay.mul(DECIMALS) */\n      tag_67\n        /* \"Hero/utils/HeroController.sol\":656:660  1e18 */\n      0x0de0b6b3a7640000\n        /* \"Hero/utils/HeroController.sol\":1250:1255  _klay */\n      dup4\n        /* \"Hero/utils/HeroController.sol\":1250:1259  _klay.mul */\n      tag_68\n      swap1\n        /* \"Hero/utils/HeroController.sol\":1250:1269  _klay.mul(DECIMALS) */\n      swap2\n      swap1\n      0xffffffff\n      and\n      jump\t// in\n    tag_67:\n        /* \"Hero/utils/HeroController.sol\":1236:1247  priceOfKlay */\n      0x06\n        /* \"Hero/utils/HeroController.sol\":1236:1269  priceOfKlay = _klay.mul(DECIMALS) */\n      dup2\n      swap1\n      sstore\n      pop\n        /* \"Hero/utils/HeroController.sol\":1294:1319  _tokenPrice.mul(DECIMALS) */\n      tag_69\n        /* \"Hero/utils/HeroController.sol\":656:660  1e18 */\n      0x0de0b6b3a7640000\n        /* \"Hero/utils/HeroController.sol\":1294:1305  _tokenPrice */\n      dup3\n        /* \"Hero/utils/HeroController.sol\":1294:1309  _tokenPrice.mul */\n      tag_68\n      swap1\n        /* \"Hero/utils/HeroController.sol\":1294:1319  _tokenPrice.mul(DECIMALS) */\n      swap2\n      swap1\n      0xffffffff\n      and\n      jump\t// in\n    tag_69:\n        /* \"Hero/utils/HeroController.sol\":1279:1291  priceOfToken */\n      0x07\n        /* \"Hero/utils/HeroController.sol\":1279:1319  priceOfToken = _tokenPrice.mul(DECIMALS) */\n      dup2\n      swap1\n      sstore\n      pop\n        /* \"Hero/utils/HeroController.sol\":1349:1357  _heroNFT */\n      dup7\n        /* \"Hero/utils/HeroController.sol\":1330:1337  heroNFT */\n      0x00\n      dup1\n        /* \"Hero/utils/HeroController.sol\":1330:1358  heroNFT = IHeroNFT(_heroNFT) */\n      0x0100\n      exp\n      dup2\n      sload\n      dup2\n      0xffffffffffffffffffffffffffffffffffffffff\n      mul\n      not\n      and\n      swap1\n      dup4\n      0xffffffffffffffffffffffffffffffffffffffff\n      and\n      mul\n      or\n      swap1\n      sstore\n      pop\n        /* \"Hero/utils/HeroController.sol\":1382:1388  _token */\n      dup6\n        /* \"Hero/utils/HeroController.sol\":1368:1373  token */\n      0x01\n      0x00\n        /* \"Hero/utils/HeroController.sol\":1368:1389  token = IKIP7(_token) */\n      0x0100\n      exp\n      dup2\n      sload\n      dup2\n      0xffffffffffffffffffffffffffffffffffffffff\n      mul\n      not\n      and\n      swap1\n      dup4\n      0xffffffffffffffffffffffffffffffffffffffff\n      and\n      mul\n      or\n      swap1\n      sstore\n      pop\n        /* \"Hero/utils/HeroController.sol\":1417:1422  _item */\n      dup5\n        /* \"Hero/utils/HeroController.sol\":1399:1403  item */\n      0x02\n      0x00\n        /* \"Hero/utils/HeroController.sol\":1399:1423  item = IKIP37Full(_item) */\n      0x0100\n      exp\n      dup2\n      sload\n      dup2\n      0xffffffffffffffffffffffffffffffffffffffff\n      mul\n      not\n      and\n      swap1\n      dup4\n      0xffffffffffffffffffffffffffffffffffffffff\n      and\n      mul\n      or\n      swap1\n      sstore\n      pop\n        /* \"Hero/utils/HeroController.sol\":1451:1466  _depositAddress */\n      dup4\n        /* \"Hero/utils/HeroController.sol\":1434:1448  depositAddress */\n      0x04\n      0x00\n        /* \"Hero/utils/HeroController.sol\":1434:1466  depositAddress = _depositAddress */\n      0x0100\n      exp\n      dup2\n      sload\n      dup2\n      0xffffffffffffffffffffffffffffffffffffffff\n      mul\n      not\n      and\n      swap1\n      dup4\n      0xffffffffffffffffffffffffffffffffffffffff\n      and\n      mul\n      or\n      swap1\n      sstore\n      pop\n        /* \"Hero/utils/HeroController.sol\":1492:1506  _miningAddress */\n      dup3\n        /* \"Hero/utils/HeroController.sol\":1476:1489  miningAddress */\n      0x05\n      0x00\n        /* \"Hero/utils/HeroController.sol\":1476:1506  miningAddress = _miningAddress */\n      0x0100\n      exp\n      dup2\n      sload\n      dup2\n      0xffffffffffffffffffffffffffffffffffffffff\n      mul\n      not\n      and\n      swap1\n      dup4\n      0xffffffffffffffffffffffffffffffffffffffff\n      and\n      mul\n      or\n      swap1\n      sstore\n      pop\n        /* \"Hero/utils/HeroController.sol\":991:1513  function initialize(... */\n      pop\n      pop\n      pop\n      pop\n      pop\n      pop\n      pop\n      jump\t// out\n        /* \"Hero/utils/HeroController.sol\":2010:2090  function getItem() public view returns (IKIP37Full) {... */\n    tag_48:\n        /* \"Hero/utils/HeroController.sol\":2050:2060  IKIP37Full */\n      0x00\n        /* \"Hero/utils/HeroController.sol\":2079:2083  item */\n      0x02\n      0x00\n      swap1\n      sload\n      swap1\n      0x0100\n      exp\n      swap1\n      div\n      0xffffffffffffffffffffffffffffffffffffffff\n      and\n        /* \"Hero/utils/HeroController.sol\":2072:2083  return item */\n      swap1\n      pop\n        /* \"Hero/utils/HeroController.sol\":2010:2090  function getItem() public view returns (IKIP37Full) {... */\n      swap1\n      jump\t// out\n        /* \"Hero/utils/HeroController.sol\":1601:1695  function changeMiningPaused() external onlyOwner {... */\n    tag_52:\n        /* \"Hero/utils/HeroController.sol\":807:816  coreOwner */\n      0x03\n      0x00\n      swap1\n      sload\n      swap1\n      0x0100\n      exp\n      swap1\n      div\n      0xffffffffffffffffffffffffffffffffffffffff\n      and\n        /* \"Hero/utils/HeroController.sol\":793:816  msg.sender == coreOwner */\n      0xffffffffffffffffffffffffffffffffffffffff\n      and\n        /* \"Hero/utils/HeroController.sol\":793:803  msg.sender */\n      caller\n        /* \"Hero/utils/HeroController.sol\":793:816  msg.sender == coreOwner */\n      0xffffffffffffffffffffffffffffffffffffffff\n      and\n      eq\n        /* \"Hero/utils/HeroController.sol\":785:847  require(msg.sender == coreOwner, \"HeroCore Error : onlyOwner\") */\n      tag_72\n      jumpi\n      mload(0x40)\n      0x08c379a000000000000000000000000000000000000000000000000000000000\n      dup2\n      mstore\n      0x04\n      add\n      tag_73\n      swap1\n      tag_61\n      jump\t// in\n    tag_73:\n      mload(0x40)\n      dup1\n      swap2\n      sub\n      swap1\n      revert\n    tag_72:\n        /* \"Hero/utils/HeroController.sol\":1676:1688  miningPaused */\n      0x05\n      0x15\n      swap1\n      sload\n      swap1\n      0x0100\n      exp\n      swap1\n      div\n      0xff\n      and\n        /* \"Hero/utils/HeroController.sol\":1675:1688  !miningPaused */\n      iszero\n        /* \"Hero/utils/HeroController.sol\":1660:1672  miningPaused */\n      0x05\n      0x15\n        /* \"Hero/utils/HeroController.sol\":1660:1688  miningPaused = !miningPaused */\n      0x0100\n      exp\n      dup2\n      sload\n      dup2\n      0xff\n      mul\n      not\n      and\n      swap1\n      dup4\n      iszero\n      iszero\n      mul\n      or\n      swap1\n      sstore\n      pop\n        /* \"Hero/utils/HeroController.sol\":1601:1695  function changeMiningPaused() external onlyOwner {... */\n      jump\t// out\n        /* \"utils/SafeMath.sol\":283:379  function mul(uint256 a, uint256 b) internal pure returns (uint256) {... */\n    tag_68:\n        /* \"utils/SafeMath.sol\":341:348  uint256 */\n      0x00\n        /* \"utils/SafeMath.sol\":371:372  b */\n      dup2\n        /* \"utils/SafeMath.sol\":367:368  a */\n      dup4\n        /* \"utils/SafeMath.sol\":367:372  a * b */\n      tag_76\n      swap2\n      swap1\n      tag_77\n      jump\t// in\n    tag_76:\n        /* \"utils/SafeMath.sol\":360:372  return a * b */\n      swap1\n      pop\n        /* \"utils/SafeMath.sol\":283:379  function mul(uint256 a, uint256 b) internal pure returns (uint256) {... */\n      swap3\n      swap2\n      pop\n      pop\n      jump\t// out\n        /* \"#utility.yul\":7:146   */\n    tag_79:\n        /* \"#utility.yul\":53:58   */\n      0x00\n        /* \"#utility.yul\":91:97   */\n      dup2\n        /* \"#utility.yul\":78:98   */\n      calldataload\n        /* \"#utility.yul\":69:98   */\n      swap1\n      pop\n        /* \"#utility.yul\":107:140   */\n      tag_81\n        /* \"#utility.yul\":134:139   */\n      dup2\n        /* \"#utility.yul\":107:140   */\n      tag_82\n      jump\t// in\n    tag_81:\n        /* \"#utility.yul\":59:146   */\n      swap3\n      swap2\n      pop\n      pop\n      jump\t// out\n        /* \"#utility.yul\":152:291   */\n    tag_83:\n        /* \"#utility.yul\":198:203   */\n      0x00\n        /* \"#utility.yul\":236:242   */\n      dup2\n        /* \"#utility.yul\":223:243   */\n      calldataload\n        /* \"#utility.yul\":214:243   */\n      swap1\n      pop\n        /* \"#utility.yul\":252:285   */\n      tag_85\n        /* \"#utility.yul\":279:284   */\n      dup2\n        /* \"#utility.yul\":252:285   */\n      tag_86\n      jump\t// in\n    tag_85:\n        /* \"#utility.yul\":204:291   */\n      swap3\n      swap2\n      pop\n      pop\n      jump\t// out\n        /* \"#utility.yul\":297:1433   */\n    tag_45:\n        /* \"#utility.yul\":410:416   */\n      0x00\n        /* \"#utility.yul\":418:424   */\n      dup1\n        /* \"#utility.yul\":426:432   */\n      0x00\n        /* \"#utility.yul\":434:440   */\n      dup1\n        /* \"#utility.yul\":442:448   */\n      0x00\n        /* \"#utility.yul\":450:456   */\n      dup1\n        /* \"#utility.yul\":458:464   */\n      0x00\n        /* \"#utility.yul\":507:510   */\n      0xe0\n        /* \"#utility.yul\":495:504   */\n      dup9\n        /* \"#utility.yul\":486:493   */\n      dup11\n        /* \"#utility.yul\":482:505   */\n      sub\n        /* \"#utility.yul\":478:511   */\n      slt\n        /* \"#utility.yul\":475:477   */\n      iszero\n      tag_88\n      jumpi\n        /* \"#utility.yul\":524:525   */\n      0x00\n        /* \"#utility.yul\":521:522   */\n      dup1\n        /* \"#utility.yul\":514:526   */\n      revert\n        /* \"#utility.yul\":475:477   */\n    tag_88:\n        /* \"#utility.yul\":567:568   */\n      0x00\n        /* \"#utility.yul\":592:645   */\n      tag_89\n        /* \"#utility.yul\":637:644   */\n      dup11\n        /* \"#utility.yul\":628:634   */\n      dup3\n        /* \"#utility.yul\":617:626   */\n      dup12\n        /* \"#utility.yul\":613:635   */\n      add\n        /* \"#utility.yul\":592:645   */\n      tag_79\n      jump\t// in\n    tag_89:\n        /* \"#utility.yul\":582:645   */\n      swap8\n      pop\n        /* \"#utility.yul\":538:655   */\n      pop\n        /* \"#utility.yul\":694:696   */\n      0x20\n        /* \"#utility.yul\":720:773   */\n      tag_90\n        /* \"#utility.yul\":765:772   */\n      dup11\n        /* \"#utility.yul\":756:762   */\n      dup3\n        /* \"#utility.yul\":745:754   */\n      dup12\n        /* \"#utility.yul\":741:763   */\n      add\n        /* \"#utility.yul\":720:773   */\n      tag_79\n      jump\t// in\n    tag_90:\n        /* \"#utility.yul\":710:773   */\n      swap7\n      pop\n        /* \"#utility.yul\":665:783   */\n      pop\n        /* \"#utility.yul\":822:824   */\n      0x40\n        /* \"#utility.yul\":848:901   */\n      tag_91\n        /* \"#utility.yul\":893:900   */\n      dup11\n        /* \"#utility.yul\":884:890   */\n      dup3\n        /* \"#utility.yul\":873:882   */\n      dup12\n        /* \"#utility.yul\":869:891   */\n      add\n        /* \"#utility.yul\":848:901   */\n      tag_79\n      jump\t// in\n    tag_91:\n        /* \"#utility.yul\":838:901   */\n      swap6\n      pop\n        /* \"#utility.yul\":793:911   */\n      pop\n        /* \"#utility.yul\":950:952   */\n      0x60\n        /* \"#utility.yul\":976:1029   */\n      tag_92\n        /* \"#utility.yul\":1021:1028   */\n      dup11\n        /* \"#utility.yul\":1012:1018   */\n      dup3\n        /* \"#utility.yul\":1001:1010   */\n      dup12\n        /* \"#utility.yul\":997:1019   */\n      add\n        /* \"#utility.yul\":976:1029   */\n      tag_79\n      jump\t// in\n    tag_92:\n        /* \"#utility.yul\":966:1029   */\n      swap5\n      pop\n        /* \"#utility.yul\":921:1039   */\n      pop\n        /* \"#utility.yul\":1078:1081   */\n      0x80\n        /* \"#utility.yul\":1105:1158   */\n      tag_93\n        /* \"#utility.yul\":1150:1157   */\n      dup11\n        /* \"#utility.yul\":1141:1147   */\n      dup3\n        /* \"#utility.yul\":1130:1139   */\n      dup12\n        /* \"#utility.yul\":1126:1148   */\n      add\n        /* \"#utility.yul\":1105:1158   */\n      tag_79\n      jump\t// in\n    tag_93:\n        /* \"#utility.yul\":1095:1158   */\n      swap4\n      pop\n        /* \"#utility.yul\":1049:1168   */\n      pop\n        /* \"#utility.yul\":1207:1210   */\n      0xa0\n        /* \"#utility.yul\":1234:1287   */\n      tag_94\n        /* \"#utility.yul\":1279:1286   */\n      dup11\n        /* \"#utility.yul\":1270:1276   */\n      dup3\n        /* \"#utility.yul\":1259:1268   */\n      dup12\n        /* \"#utility.yul\":1255:1277   */\n      add\n        /* \"#utility.yul\":1234:1287   */\n      tag_83\n      jump\t// in\n    tag_94:\n        /* \"#utility.yul\":1224:1287   */\n      swap3\n      pop\n        /* \"#utility.yul\":1178:1297   */\n      pop\n        /* \"#utility.yul\":1336:1339   */\n      0xc0\n        /* \"#utility.yul\":1363:1416   */\n      tag_95\n        /* \"#utility.yul\":1408:1415   */\n      dup11\n        /* \"#utility.yul\":1399:1405   */\n      dup3\n        /* \"#utility.yul\":1388:1397   */\n      dup12\n        /* \"#utility.yul\":1384:1406   */\n      add\n        /* \"#utility.yul\":1363:1416   */\n      tag_83\n      jump\t// in\n    tag_95:\n        /* \"#utility.yul\":1353:1416   */\n      swap2\n      pop\n        /* \"#utility.yul\":1307:1426   */\n      pop\n        /* \"#utility.yul\":465:1433   */\n      swap3\n      swap6\n      swap9\n      swap2\n      swap5\n      swap8\n      pop\n      swap3\n      swap6\n      pop\n      jump\t// out\n        /* \"#utility.yul\":1439:1581   */\n    tag_96:\n        /* \"#utility.yul\":1542:1574   */\n      tag_98\n        /* \"#utility.yul\":1568:1573   */\n      dup2\n        /* \"#utility.yul\":1542:1574   */\n      tag_99\n      jump\t// in\n    tag_98:\n        /* \"#utility.yul\":1537:1540   */\n      dup3\n        /* \"#utility.yul\":1530:1575   */\n      mstore\n        /* \"#utility.yul\":1520:1581   */\n      pop\n      pop\n      jump\t// out\n        /* \"#utility.yul\":1587:1696   */\n    tag_100:\n        /* \"#utility.yul\":1668:1689   */\n      tag_102\n        /* \"#utility.yul\":1683:1688   */\n      dup2\n        /* \"#utility.yul\":1668:1689   */\n      tag_103\n      jump\t// in\n    tag_102:\n        /* \"#utility.yul\":1663:1666   */\n      dup3\n        /* \"#utility.yul\":1656:1690   */\n      mstore\n        /* \"#utility.yul\":1646:1696   */\n      pop\n      pop\n      jump\t// out\n        /* \"#utility.yul\":1702:1863   */\n    tag_104:\n        /* \"#utility.yul\":1804:1856   */\n      tag_106\n        /* \"#utility.yul\":1850:1855   */\n      dup2\n        /* \"#utility.yul\":1804:1856   */\n      tag_107\n      jump\t// in\n    tag_106:\n        /* \"#utility.yul\":1799:1802   */\n      dup3\n        /* \"#utility.yul\":1792:1857   */\n      mstore\n        /* \"#utility.yul\":1782:1863   */\n      pop\n      pop\n      jump\t// out\n        /* \"#utility.yul\":1869:2036   */\n    tag_108:\n        /* \"#utility.yul\":1974:2029   */\n      tag_110\n        /* \"#utility.yul\":2023:2028   */\n      dup2\n        /* \"#utility.yul\":1974:2029   */\n      tag_111\n      jump\t// in\n    tag_110:\n        /* \"#utility.yul\":1969:1972   */\n      dup3\n        /* \"#utility.yul\":1962:2030   */\n      mstore\n        /* \"#utility.yul\":1952:2036   */\n      pop\n      pop\n      jump\t// out\n        /* \"#utility.yul\":2042:2199   */\n    tag_112:\n        /* \"#utility.yul\":2142:2192   */\n      tag_114\n        /* \"#utility.yul\":2186:2191   */\n      dup2\n        /* \"#utility.yul\":2142:2192   */\n      tag_115\n      jump\t// in\n    tag_114:\n        /* \"#utility.yul\":2137:2140   */\n      dup3\n        /* \"#utility.yul\":2130:2193   */\n      mstore\n        /* \"#utility.yul\":2120:2199   */\n      pop\n      pop\n      jump\t// out\n        /* \"#utility.yul\":2205:2571   */\n    tag_116:\n        /* \"#utility.yul\":2347:2350   */\n      0x00\n        /* \"#utility.yul\":2368:2435   */\n      tag_118\n        /* \"#utility.yul\":2432:2434   */\n      0x1a\n        /* \"#utility.yul\":2427:2430   */\n      dup4\n        /* \"#utility.yul\":2368:2435   */\n      tag_119\n      jump\t// in\n    tag_118:\n        /* \"#utility.yul\":2361:2435   */\n      swap2\n      pop\n        /* \"#utility.yul\":2444:2537   */\n      tag_120\n        /* \"#utility.yul\":2533:2536   */\n      dup3\n        /* \"#utility.yul\":2444:2537   */\n      tag_121\n      jump\t// in\n    tag_120:\n        /* \"#utility.yul\":2562:2564   */\n      0x20\n        /* \"#utility.yul\":2557:2560   */\n      dup3\n        /* \"#utility.yul\":2553:2565   */\n      add\n        /* \"#utility.yul\":2546:2565   */\n      swap1\n      pop\n        /* \"#utility.yul\":2351:2571   */\n      swap2\n      swap1\n      pop\n      jump\t// out\n        /* \"#utility.yul\":2577:2695   */\n    tag_122:\n        /* \"#utility.yul\":2664:2688   */\n      tag_124\n        /* \"#utility.yul\":2682:2687   */\n      dup2\n        /* \"#utility.yul\":2664:2688   */\n      tag_125\n      jump\t// in\n    tag_124:\n        /* \"#utility.yul\":2659:2662   */\n      dup3\n        /* \"#utility.yul\":2652:2689   */\n      mstore\n        /* \"#utility.yul\":2642:2695   */\n      pop\n      pop\n      jump\t// out\n        /* \"#utility.yul\":2701:2955   */\n    tag_40:\n        /* \"#utility.yul\":2810:2814   */\n      0x00\n        /* \"#utility.yul\":2848:2850   */\n      0x20\n        /* \"#utility.yul\":2837:2846   */\n      dup3\n        /* \"#utility.yul\":2833:2851   */\n      add\n        /* \"#utility.yul\":2825:2851   */\n      swap1\n      pop\n        /* \"#utility.yul\":2861:2948   */\n      tag_127\n        /* \"#utility.yul\":2945:2946   */\n      0x00\n        /* \"#utility.yul\":2934:2943   */\n      dup4\n        /* \"#utility.yul\":2930:2947   */\n      add\n        /* \"#utility.yul\":2921:2927   */\n      dup5\n        /* \"#utility.yul\":2861:2948   */\n      tag_96\n      jump\t// in\n    tag_127:\n        /* \"#utility.yul\":2815:2955   */\n      swap3\n      swap2\n      pop\n      pop\n      jump\t// out\n        /* \"#utility.yul\":2961:3171   */\n    tag_26:\n        /* \"#utility.yul\":3048:3052   */\n      0x00\n        /* \"#utility.yul\":3086:3088   */\n      0x20\n        /* \"#utility.yul\":3075:3084   */\n      dup3\n        /* \"#utility.yul\":3071:3089   */\n      add\n        /* \"#utility.yul\":3063:3089   */\n      swap1\n      pop\n        /* \"#utility.yul\":3099:3164   */\n      tag_129\n        /* \"#utility.yul\":3161:3162   */\n      0x00\n        /* \"#utility.yul\":3150:3159   */\n      dup4\n        /* \"#utility.yul\":3146:3163   */\n      add\n        /* \"#utility.yul\":3137:3143   */\n      dup5\n        /* \"#utility.yul\":3099:3164   */\n      tag_100\n      jump\t// in\n    tag_129:\n        /* \"#utility.yul\":3053:3171   */\n      swap3\n      swap2\n      pop\n      pop\n      jump\t// out\n        /* \"#utility.yul\":3177:3429   */\n    tag_36:\n        /* \"#utility.yul\":3285:3289   */\n      0x00\n        /* \"#utility.yul\":3323:3325   */\n      0x20\n        /* \"#utility.yul\":3312:3321   */\n      dup3\n        /* \"#utility.yul\":3308:3326   */\n      add\n        /* \"#utility.yul\":3300:3326   */\n      swap1\n      pop\n        /* \"#utility.yul\":3336:3422   */\n      tag_131\n        /* \"#utility.yul\":3419:3420   */\n      0x00\n        /* \"#utility.yul\":3408:3417   */\n      dup4\n        /* \"#utility.yul\":3404:3421   */\n      add\n        /* \"#utility.yul\":3395:3401   */\n      dup5\n        /* \"#utility.yul\":3336:3422   */\n      tag_104\n      jump\t// in\n    tag_131:\n        /* \"#utility.yul\":3290:3429   */\n      swap3\n      swap2\n      pop\n      pop\n      jump\t// out\n        /* \"#utility.yul\":3435:3693   */\n    tag_50:\n        /* \"#utility.yul\":3546:3550   */\n      0x00\n        /* \"#utility.yul\":3584:3586   */\n      0x20\n        /* \"#utility.yul\":3573:3582   */\n      dup3\n        /* \"#utility.yul\":3569:3587   */\n      add\n        /* \"#utility.yul\":3561:3587   */\n      swap1\n      pop\n        /* \"#utility.yul\":3597:3686   */\n      tag_133\n        /* \"#utility.yul\":3683:3684   */\n      0x00\n        /* \"#utility.yul\":3672:3681   */\n      dup4\n        /* \"#utility.yul\":3668:3685   */\n      add\n        /* \"#utility.yul\":3659:3665   */\n      dup5\n        /* \"#utility.yul\":3597:3686   */\n      tag_108\n      jump\t// in\n    tag_133:\n        /* \"#utility.yul\":3551:3693   */\n      swap3\n      swap2\n      pop\n      pop\n      jump\t// out\n        /* \"#utility.yul\":3699:3947   */\n    tag_22:\n        /* \"#utility.yul\":3805:3809   */\n      0x00\n        /* \"#utility.yul\":3843:3845   */\n      0x20\n        /* \"#utility.yul\":3832:3841   */\n      dup3\n        /* \"#utility.yul\":3828:3846   */\n      add\n        /* \"#utility.yul\":3820:3846   */\n      swap1\n      pop\n        /* \"#utility.yul\":3856:3940   */\n      tag_135\n        /* \"#utility.yul\":3937:3938   */\n      0x00\n        /* \"#utility.yul\":3926:3935   */\n      dup4\n        /* \"#utility.yul\":3922:3939   */\n      add\n        /* \"#utility.yul\":3913:3919   */\n      dup5\n        /* \"#utility.yul\":3856:3940   */\n      tag_112\n      jump\t// in\n    tag_135:\n        /* \"#utility.yul\":3810:3947   */\n      swap3\n      swap2\n      pop\n      pop\n      jump\t// out\n        /* \"#utility.yul\":3953:4372   */\n    tag_61:\n        /* \"#utility.yul\":4119:4123   */\n      0x00\n        /* \"#utility.yul\":4157:4159   */\n      0x20\n        /* \"#utility.yul\":4146:4155   */\n      dup3\n        /* \"#utility.yul\":4142:4160   */\n      add\n        /* \"#utility.yul\":4134:4160   */\n      swap1\n      pop\n        /* \"#utility.yul\":4206:4215   */\n      dup2\n        /* \"#utility.yul\":4200:4204   */\n      dup2\n        /* \"#utility.yul\":4196:4216   */\n      sub\n        /* \"#utility.yul\":4192:4193   */\n      0x00\n        /* \"#utility.yul\":4181:4190   */\n      dup4\n        /* \"#utility.yul\":4177:4194   */\n      add\n        /* \"#utility.yul\":4170:4217   */\n      mstore\n        /* \"#utility.yul\":4234:4365   */\n      tag_137\n        /* \"#utility.yul\":4360:4364   */\n      dup2\n        /* \"#utility.yul\":4234:4365   */\n      tag_116\n      jump\t// in\n    tag_137:\n        /* \"#utility.yul\":4226:4365   */\n      swap1\n      pop\n        /* \"#utility.yul\":4124:4372   */\n      swap2\n      swap1\n      pop\n      jump\t// out\n        /* \"#utility.yul\":4378:4600   */\n    tag_18:\n        /* \"#utility.yul\":4471:4475   */\n      0x00\n        /* \"#utility.yul\":4509:4511   */\n      0x20\n        /* \"#utility.yul\":4498:4507   */\n      dup3\n        /* \"#utility.yul\":4494:4512   */\n      add\n        /* \"#utility.yul\":4486:4512   */\n      swap1\n      pop\n        /* \"#utility.yul\":4522:4593   */\n      tag_139\n        /* \"#utility.yul\":4590:4591   */\n      0x00\n        /* \"#utility.yul\":4579:4588   */\n      dup4\n        /* \"#utility.yul\":4575:4592   */\n      add\n        /* \"#utility.yul\":4566:4572   */\n      dup5\n        /* \"#utility.yul\":4522:4593   */\n      tag_122\n      jump\t// in\n    tag_139:\n        /* \"#utility.yul\":4476:4600   */\n      swap3\n      swap2\n      pop\n      pop\n      jump\t// out\n        /* \"#utility.yul\":4606:4775   */\n    tag_119:\n        /* \"#utility.yul\":4690:4701   */\n      0x00\n        /* \"#utility.yul\":4724:4730   */\n      dup3\n        /* \"#utility.yul\":4719:4722   */\n      dup3\n        /* \"#utility.yul\":4712:4731   */\n      mstore\n        /* \"#utility.yul\":4764:4768   */\n      0x20\n        /* \"#utility.yul\":4759:4762   */\n      dup3\n        /* \"#utility.yul\":4755:4769   */\n      add\n        /* \"#utility.yul\":4740:4769   */\n      swap1\n      pop\n        /* \"#utility.yul\":4702:4775   */\n      swap3\n      swap2\n      pop\n      pop\n      jump\t// out\n        /* \"#utility.yul\":4781:5129   */\n    tag_77:\n        /* \"#utility.yul\":4821:4828   */\n      0x00\n        /* \"#utility.yul\":4844:4864   */\n      tag_142\n        /* \"#utility.yul\":4862:4863   */\n      dup3\n        /* \"#utility.yul\":4844:4864   */\n      tag_125\n      jump\t// in\n    tag_142:\n        /* \"#utility.yul\":4839:4864   */\n      swap2\n      pop\n        /* \"#utility.yul\":4878:4898   */\n      tag_143\n        /* \"#utility.yul\":4896:4897   */\n      dup4\n        /* \"#utility.yul\":4878:4898   */\n      tag_125\n      jump\t// in\n    tag_143:\n        /* \"#utility.yul\":4873:4898   */\n      swap3\n      pop\n        /* \"#utility.yul\":5066:5067   */\n      dup2\n        /* \"#utility.yul\":4998:5064   */\n      0xffffffffffffffffffffffffffffffffffffffffffffffffffffffffffffffff\n        /* \"#utility.yul\":4994:5068   */\n      div\n        /* \"#utility.yul\":4991:4992   */\n      dup4\n        /* \"#utility.yul\":4988:5069   */\n      gt\n        /* \"#utility.yul\":4983:4984   */\n      dup3\n        /* \"#utility.yul\":4976:4985   */\n      iszero\n        /* \"#utility.yul\":4969:4986   */\n      iszero\n        /* \"#utility.yul\":4965:5070   */\n      and\n        /* \"#utility.yul\":4962:4964   */\n      iszero\n      tag_144\n      jumpi\n        /* \"#utility.yul\":5073:5091   */\n      tag_145\n      tag_146\n      jump\t// in\n    tag_145:\n        /* \"#utility.yul\":4962:4964   */\n    tag_144:\n        /* \"#utility.yul\":5121:5122   */\n      dup3\n        /* \"#utility.yul\":5118:5119   */\n      dup3\n        /* \"#utility.yul\":5114:5123   */\n      mul\n        /* \"#utility.yul\":5103:5123   */\n      swap1\n      pop\n        /* \"#utility.yul\":4829:5129   */\n      swap3\n      swap2\n      pop\n      pop\n      jump\t// out\n        /* \"#utility.yul\":5135:5231   */\n    tag_147:\n        /* \"#utility.yul\":5172:5179   */\n      0x00\n        /* \"#utility.yul\":5201:5225   */\n      tag_149\n        /* \"#utility.yul\":5219:5224   */\n      dup3\n        /* \"#utility.yul\":5201:5225   */\n      tag_150\n      jump\t// in\n    tag_149:\n        /* \"#utility.yul\":5190:5225   */\n      swap1\n      pop\n        /* \"#utility.yul\":5180:5231   */\n      swap2\n      swap1\n      pop\n      jump\t// out\n        /* \"#utility.yul\":5237:5341   */\n    tag_99:\n        /* \"#utility.yul\":5282:5289   */\n      0x00\n        /* \"#utility.yul\":5311:5335   */\n      tag_152\n        /* \"#utility.yul\":5329:5334   */\n      dup3\n        /* \"#utility.yul\":5311:5335   */\n      tag_150\n      jump\t// in\n    tag_152:\n        /* \"#utility.yul\":5300:5335   */\n      swap1\n      pop\n        /* \"#utility.yul\":5290:5341   */\n      swap2\n      swap1\n      pop\n      jump\t// out\n        /* \"#utility.yul\":5347:5437   */\n    tag_103:\n        /* \"#utility.yul\":5381:5388   */\n      0x00\n        /* \"#utility.yul\":5424:5429   */\n      dup2\n        /* \"#utility.yul\":5417:5430   */\n      iszero\n        /* \"#utility.yul\":5410:5431   */\n      iszero\n        /* \"#utility.yul\":5399:5431   */\n      swap1\n      pop\n        /* \"#utility.yul\":5389:5437   */\n      swap2\n      swap1\n      pop\n      jump\t// out\n        /* \"#utility.yul\":5443:5569   */\n    tag_150:\n        /* \"#utility.yul\":5480:5487   */\n      0x00\n        /* \"#utility.yul\":5520:5562   */\n      0xffffffffffffffffffffffffffffffffffffffff\n        /* \"#utility.yul\":5513:5518   */\n      dup3\n        /* \"#utility.yul\":5509:5563   */\n      and\n        /* \"#utility.yul\":5498:5563   */\n      swap1\n      pop\n        /* \"#utility.yul\":5488:5569   */\n      swap2\n      swap1\n      pop\n      jump\t// out\n        /* \"#utility.yul\":5575:5652   */\n    tag_125:\n        /* \"#utility.yul\":5612:5619   */\n      0x00\n        /* \"#utility.yul\":5641:5646   */\n      dup2\n        /* \"#utility.yul\":5630:5646   */\n      swap1\n      pop\n        /* \"#utility.yul\":5620:5652   */\n      swap2\n      swap1\n      pop\n      jump\t// out\n        /* \"#utility.yul\":5658:5814   */\n    tag_107:\n        /* \"#utility.yul\":5723:5732   */\n      0x00\n        /* \"#utility.yul\":5756:5808   */\n      tag_157\n        /* \"#utility.yul\":5802:5807   */\n      dup3\n        /* \"#utility.yul\":5756:5808   */\n      tag_158\n      jump\t// in\n    tag_157:\n        /* \"#utility.yul\":5743:5808   */\n      swap1\n      pop\n        /* \"#utility.yul\":5733:5814   */\n      swap2\n      swap1\n      pop\n      jump\t// out\n        /* \"#utility.yul\":5820:5948   */\n    tag_158:\n        /* \"#utility.yul\":5885:5894   */\n      0x00\n        /* \"#utility.yul\":5918:5942   */\n      tag_160\n        /* \"#utility.yul\":5936:5941   */\n      dup3\n        /* \"#utility.yul\":5918:5942   */\n      tag_150\n      jump\t// in\n    tag_160:\n        /* \"#utility.yul\":5905:5942   */\n      swap1\n      pop\n        /* \"#utility.yul\":5895:5948   */\n      swap2\n      swap1\n      pop\n      jump\t// out\n        /* \"#utility.yul\":5954:6116   */\n    tag_111:\n        /* \"#utility.yul\":6022:6031   */\n      0x00\n        /* \"#utility.yul\":6055:6110   */\n      tag_162\n        /* \"#utility.yul\":6104:6109   */\n      dup3\n        /* \"#utility.yul\":6055:6110   */\n      tag_163\n      jump\t// in\n    tag_162:\n        /* \"#utility.yul\":6042:6110   */\n      swap1\n      pop\n        /* \"#utility.yul\":6032:6116   */\n      swap2\n      swap1\n      pop\n      jump\t// out\n        /* \"#utility.yul\":6122:6253   */\n    tag_163:\n        /* \"#utility.yul\":6190:6199   */\n      0x00\n        /* \"#utility.yul\":6223:6247   */\n      tag_165\n        /* \"#utility.yul\":6241:6246   */\n      dup3\n        /* \"#utility.yul\":6223:6247   */\n      tag_150\n      jump\t// in\n    tag_165:\n        /* \"#utility.yul\":6210:6247   */\n      swap1\n      pop\n        /* \"#utility.yul\":6200:6253   */\n      swap2\n      swap1\n      pop\n      jump\t// out\n        /* \"#utility.yul\":6259:6411   */\n    tag_115:\n        /* \"#utility.yul\":6322:6331   */\n      0x00\n        /* \"#utility.yul\":6355:6405   */\n      tag_167\n        /* \"#utility.yul\":6399:6404   */\n      dup3\n        /* \"#utility.yul\":6355:6405   */\n      tag_168\n      jump\t// in\n    tag_167:\n        /* \"#utility.yul\":6342:6405   */\n      swap1\n      pop\n        /* \"#utility.yul\":6332:6411   */\n      swap2\n      swap1\n      pop\n      jump\t// out\n        /* \"#utility.yul\":6417:6543   */\n    tag_168:\n        /* \"#utility.yul\":6480:6489   */\n      0x00\n        /* \"#utility.yul\":6513:6537   */\n      tag_170\n        /* \"#utility.yul\":6531:6536   */\n      dup3\n        /* \"#utility.yul\":6513:6537   */\n      tag_150\n      jump\t// in\n    tag_170:\n        /* \"#utility.yul\":6500:6537   */\n      swap1\n      pop\n        /* \"#utility.yul\":6490:6543   */\n      swap2\n      swap1\n      pop\n      jump\t// out\n        /* \"#utility.yul\":6549:6729   */\n    tag_146:\n        /* \"#utility.yul\":6597:6674   */\n      0x4e487b7100000000000000000000000000000000000000000000000000000000\n        /* \"#utility.yul\":6594:6595   */\n      0x00\n        /* \"#utility.yul\":6587:6675   */\n      mstore\n        /* \"#utility.yul\":6694:6698   */\n      0x11\n        /* \"#utility.yul\":6691:6692   */\n      0x04\n        /* \"#utility.yul\":6684:6699   */\n      mstore\n        /* \"#utility.yul\":6718:6722   */\n      0x24\n        /* \"#utility.yul\":6715:6716   */\n      0x00\n        /* \"#utility.yul\":6708:6723   */\n      revert\n        /* \"#utility.yul\":6735:6911   */\n    tag_121:\n        /* \"#utility.yul\":6875:6903   */\n      0x4865726f436f7265204572726f72203a206f6e6c794f776e6572000000000000\n        /* \"#utility.yul\":6871:6872   */\n      0x00\n        /* \"#utility.yul\":6863:6869   */\n      dup3\n        /* \"#utility.yul\":6859:6873   */\n      add\n        /* \"#utility.yul\":6852:6904   */\n      mstore\n        /* \"#utility.yul\":6841:6911   */\n      pop\n      jump\t// out\n        /* \"#utility.yul\":6917:7039   */\n    tag_82:\n        /* \"#utility.yul\":6990:7014   */\n      tag_174\n        /* \"#utility.yul\":7008:7013   */\n      dup2\n        /* \"#utility.yul\":6990:7014   */\n      tag_147\n      jump\t// in\n    tag_174:\n        /* \"#utility.yul\":6983:6988   */\n      dup2\n        /* \"#utility.yul\":6980:7015   */\n      eq\n        /* \"#utility.yul\":6970:6972   */\n      tag_175\n      jumpi\n        /* \"#utility.yul\":7029:7030   */\n      0x00\n        /* \"#utility.yul\":7026:7027   */\n      dup1\n        /* \"#utility.yul\":7019:7031   */\n      revert\n        /* \"#utility.yul\":6970:6972   */\n    tag_175:\n        /* \"#utility.yul\":6960:7039   */\n      pop\n      jump\t// out\n        /* \"#utility.yul\":7045:7167   */\n    tag_86:\n        /* \"#utility.yul\":7118:7142   */\n      tag_177\n        /* \"#utility.yul\":7136:7141   */\n      dup2\n        /* \"#utility.yul\":7118:7142   */\n      tag_125\n      jump\t// in\n    tag_177:\n        /* \"#utility.yul\":7111:7116   */\n      dup2\n        /* \"#utility.yul\":7108:7143   */\n      eq\n        /* \"#utility.yul\":7098:7100   */\n      tag_178\n      jumpi\n        /* \"#utility.yul\":7157:7158   */\n      0x00\n        /* \"#utility.yul\":7154:7155   */\n      dup1\n        /* \"#utility.yul\":7147:7159   */\n      revert\n        /* \"#utility.yul\":7098:7100   */\n    tag_178:\n        /* \"#utility.yul\":7088:7167   */\n      pop\n      jump\t// out\n\n    auxdata: 0xa2646970667358221220454303bcb2d48164bcb001caed49bf1ee5400cb4bd838529a9667bdd1821723f64736f6c63430008040033\n}\n",
				"bytecode": {
					"linkReferences": {},
					"object": "608060405234801561001057600080fd5b506001600560146101000a81548160ff0219169083151502179055506001600560156101000a81548160ff02191690831515021790555033600360006101000a81548173ffffffffffffffffffffffffffffffffffffffff021916908373ffffffffffffffffffffffffffffffffffffffff160217905550610a50806100976000396000f3fe608060405234801561001057600080fd5b50600436106100a95760003560e01c80637cac00ee116100715780637cac00ee14610144578063893d20e8146101625780639eb4eae514610180578063b33f95271461018a578063c412eaba146101a6578063ee72b8cc146101c4576100a9565b80631b9cbdfb146100ae57806321df0da7146100cc57806328919df6146100ea5780633a1a8080146101085780636805b84b14610126575b600080fd5b6100b66101ce565b6040516100c39190610848565b60405180910390f35b6100d46101d4565b6040516100e1919061080d565b60405180910390f35b6100f26101fe565b6040516100ff91906107bc565b60405180910390f35b610110610215565b60405161011d9190610848565b60405180910390f35b61012e61021b565b60405161013b91906107bc565b60405180910390f35b61014c610232565b60405161015991906107d7565b60405180910390f35b61016a61025b565b60405161017791906107a1565b60405180910390f35b610188610285565b005b6101a4600480360381019061019f9190610686565b610341565b005b6101ae610560565b6040516101bb91906107f2565b60405180910390f35b6101cc61058a565b005b60075481565b6000600160009054906101000a900473ffffffffffffffffffffffffffffffffffffffff16905090565b6000600560159054906101000a900460ff16905090565b60065481565b6000600560149054906101000a900460ff16905090565b60008060009054906101000a900473ffffffffffffffffffffffffffffffffffffffff16905090565b6000600360009054906101000a900473ffffffffffffffffffffffffffffffffffffffff16905090565b600360009054906101000a900473ffffffffffffffffffffffffffffffffffffffff1673ffffffffffffffffffffffffffffffffffffffff163373ffffffffffffffffffffffffffffffffffffffff1614610315576040517f08c379a000000000000000000000000000000000000000000000000000000000815260040161030c90610828565b60405180910390fd5b600560149054906101000a900460ff1615600560146101000a81548160ff021916908315150217905550565b600360009054906101000a900473ffffffffffffffffffffffffffffffffffffffff1673ffffffffffffffffffffffffffffffffffffffff163373ffffffffffffffffffffffffffffffffffffffff16146103d1576040517f08c379a00000000000000000000000000000000000000000000000000000000081526004016103c890610828565b60405180910390fd5b6103ec670de0b6b3a76400008361064690919063ffffffff16565b60068190555061040d670de0b6b3a76400008261064690919063ffffffff16565b600781905550866000806101000a81548173ffffffffffffffffffffffffffffffffffffffff021916908373ffffffffffffffffffffffffffffffffffffffff16021790555085600160006101000a81548173ffffffffffffffffffffffffffffffffffffffff021916908373ffffffffffffffffffffffffffffffffffffffff16021790555084600260006101000a81548173ffffffffffffffffffffffffffffffffffffffff021916908373ffffffffffffffffffffffffffffffffffffffff16021790555083600460006101000a81548173ffffffffffffffffffffffffffffffffffffffff021916908373ffffffffffffffffffffffffffffffffffffffff16021790555082600560006101000a81548173ffffffffffffffffffffffffffffffffffffffff021916908373ffffffffffffffffffffffffffffffffffffffff16021790555050505050505050565b6000600260009054906101000a900473ffffffffffffffffffffffffffffffffffffffff16905090565b600360009054906101000a900473ffffffffffffffffffffffffffffffffffffffff1673ffffffffffffffffffffffffffffffffffffffff163373ffffffffffffffffffffffffffffffffffffffff161461061a576040517f08c379a000000000000000000000000000000000000000000000000000000000815260040161061190610828565b60405180910390fd5b600560159054906101000a900460ff1615600560156101000a81548160ff021916908315150217905550565b600081836106549190610874565b905092915050565b60008135905061066b816109ec565b92915050565b60008135905061068081610a03565b92915050565b600080600080600080600060e0888a0312156106a157600080fd5b60006106af8a828b0161065c565b97505060206106c08a828b0161065c565b96505060406106d18a828b0161065c565b95505060606106e28a828b0161065c565b94505060806106f38a828b0161065c565b93505060a06107048a828b01610671565b92505060c06107158a828b01610671565b91505092959891949750929550565b61072d816108e0565b82525050565b61073c816108f2565b82525050565b61074b81610928565b82525050565b61075a8161094c565b82525050565b61076981610970565b82525050565b600061077c601a83610863565b9150610787826109c3565b602082019050919050565b61079b8161091e565b82525050565b60006020820190506107b66000830184610724565b92915050565b60006020820190506107d16000830184610733565b92915050565b60006020820190506107ec6000830184610742565b92915050565b60006020820190506108076000830184610751565b92915050565b60006020820190506108226000830184610760565b92915050565b600060208201905081810360008301526108418161076f565b9050919050565b600060208201905061085d6000830184610792565b92915050565b600082825260208201905092915050565b600061087f8261091e565b915061088a8361091e565b9250817fffffffffffffffffffffffffffffffffffffffffffffffffffffffffffffffff04831182151516156108c3576108c2610994565b5b828202905092915050565b60006108d9826108fe565b9050919050565b60006108eb826108fe565b9050919050565b60008115159050919050565b600073ffffffffffffffffffffffffffffffffffffffff82169050919050565b6000819050919050565b60006109338261093a565b9050919050565b6000610945826108fe565b9050919050565b60006109578261095e565b9050919050565b6000610969826108fe565b9050919050565b600061097b82610982565b9050919050565b600061098d826108fe565b9050919050565b7f4e487b7100000000000000000000000000000000000000000000000000000000600052601160045260246000fd5b7f4865726f436f7265204572726f72203a206f6e6c794f776e6572000000000000600082015250565b6109f5816108ce565b8114610a0057600080fd5b50565b610a0c8161091e565b8114610a1757600080fd5b5056fea2646970667358221220454303bcb2d48164bcb001caed49bf1ee5400cb4bd838529a9667bdd1821723f64736f6c63430008040033",
					"opcodes": "PUSH1 0x80 PUSH1 0x40 MSTORE CALLVALUE DUP1 ISZERO PUSH2 0x10 JUMPI PUSH1 0x0 DUP1 REVERT JUMPDEST POP PUSH1 0x1 PUSH1 0x5 PUSH1 0x14 PUSH2 0x100 EXP DUP2 SLOAD DUP2 PUSH1 0xFF MUL NOT AND SWAP1 DUP4 ISZERO ISZERO MUL OR SWAP1 SSTORE POP PUSH1 0x1 PUSH1 0x5 PUSH1 0x15 PUSH2 0x100 EXP DUP2 SLOAD DUP2 PUSH1 0xFF MUL NOT AND SWAP1 DUP4 ISZERO ISZERO MUL OR SWAP1 SSTORE POP CALLER PUSH1 0x3 PUSH1 0x0 PUSH2 0x100 EXP DUP2 SLOAD DUP2 PUSH20 0xFFFFFFFFFFFFFFFFFFFFFFFFFFFFFFFFFFFFFFFF MUL NOT AND SWAP1 DUP4 PUSH20 0xFFFFFFFFFFFFFFFFFFFFFFFFFFFFFFFFFFFFFFFF AND MUL OR SWAP1 SSTORE POP PUSH2 0xA50 DUP1 PUSH2 0x97 PUSH1 0x0 CODECOPY PUSH1 0x0 RETURN INVALID PUSH1 0x80 PUSH1 0x40 MSTORE CALLVALUE DUP1 ISZERO PUSH2 0x10 JUMPI PUSH1 0x0 DUP1 REVERT JUMPDEST POP PUSH1 0x4 CALLDATASIZE LT PUSH2 0xA9 JUMPI PUSH1 0x0 CALLDATALOAD PUSH1 0xE0 SHR DUP1 PUSH4 0x7CAC00EE GT PUSH2 0x71 JUMPI DUP1 PUSH4 0x7CAC00EE EQ PUSH2 0x144 JUMPI DUP1 PUSH4 0x893D20E8 EQ PUSH2 0x162 JUMPI DUP1 PUSH4 0x9EB4EAE5 EQ PUSH2 0x180 JUMPI DUP1 PUSH4 0xB33F9527 EQ PUSH2 0x18A JUMPI DUP1 PUSH4 0xC412EABA EQ PUSH2 0x1A6 JUMPI DUP1 PUSH4 0xEE72B8CC EQ PUSH2 0x1C4 JUMPI PUSH2 0xA9 JUMP JUMPDEST DUP1 PUSH4 0x1B9CBDFB EQ PUSH2 0xAE JUMPI DUP1 PUSH4 0x21DF0DA7 EQ PUSH2 0xCC JUMPI DUP1 PUSH4 0x28919DF6 EQ PUSH2 0xEA JUMPI DUP1 PUSH4 0x3A1A8080 EQ PUSH2 0x108 JUMPI DUP1 PUSH4 0x6805B84B EQ PUSH2 0x126 JUMPI JUMPDEST PUSH1 0x0 DUP1 REVERT JUMPDEST PUSH2 0xB6 PUSH2 0x1CE JUMP JUMPDEST PUSH1 0x40 MLOAD PUSH2 0xC3 SWAP2 SWAP1 PUSH2 0x848 JUMP JUMPDEST PUSH1 0x40 MLOAD DUP1 SWAP2 SUB SWAP1 RETURN JUMPDEST PUSH2 0xD4 PUSH2 0x1D4 JUMP JUMPDEST PUSH1 0x40 MLOAD PUSH2 0xE1 SWAP2 SWAP1 PUSH2 0x80D JUMP JUMPDEST PUSH1 0x40 MLOAD DUP1 SWAP2 SUB SWAP1 RETURN JUMPDEST PUSH2 0xF2 PUSH2 0x1FE JUMP JUMPDEST PUSH1 0x40 MLOAD PUSH2 0xFF SWAP2 SWAP1 PUSH2 0x7BC JUMP JUMPDEST PUSH1 0x40 MLOAD DUP1 SWAP2 SUB SWAP1 RETURN JUMPDEST PUSH2 0x110 PUSH2 0x215 JUMP JUMPDEST PUSH1 0x40 MLOAD PUSH2 0x11D SWAP2 SWAP1 PUSH2 0x848 JUMP JUMPDEST PUSH1 0x40 MLOAD DUP1 SWAP2 SUB SWAP1 RETURN JUMPDEST PUSH2 0x12E PUSH2 0x21B JUMP JUMPDEST PUSH1 0x40 MLOAD PUSH2 0x13B SWAP2 SWAP1 PUSH2 0x7BC JUMP JUMPDEST PUSH1 0x40 MLOAD DUP1 SWAP2 SUB SWAP1 RETURN JUMPDEST PUSH2 0x14C PUSH2 0x232 JUMP JUMPDEST PUSH1 0x40 MLOAD PUSH2 0x159 SWAP2 SWAP1 PUSH2 0x7D7 JUMP JUMPDEST PUSH1 0x40 MLOAD DUP1 SWAP2 SUB SWAP1 RETURN JUMPDEST PUSH2 0x16A PUSH2 0x25B JUMP JUMPDEST PUSH1 0x40 MLOAD PUSH2 0x177 SWAP2 SWAP1 PUSH2 0x7A1 JUMP JUMPDEST PUSH1 0x40 MLOAD DUP1 SWAP2 SUB SWAP1 RETURN JUMPDEST PUSH2 0x188 PUSH2 0x285 JUMP JUMPDEST STOP JUMPDEST PUSH2 0x1A4 PUSH1 0x4 DUP1 CALLDATASIZE SUB DUP2 ADD SWAP1 PUSH2 0x19F SWAP2 SWAP1 PUSH2 0x686 JUMP JUMPDEST PUSH2 0x341 JUMP JUMPDEST STOP JUMPDEST PUSH2 0x1AE PUSH2 0x560 JUMP JUMPDEST PUSH1 0x40 MLOAD PUSH2 0x1BB SWAP2 SWAP1 PUSH2 0x7F2 JUMP JUMPDEST PUSH1 0x40 MLOAD DUP1 SWAP2 SUB SWAP1 RETURN JUMPDEST PUSH2 0x1CC PUSH2 0x58A JUMP JUMPDEST STOP JUMPDEST PUSH1 0x7 SLOAD DUP2 JUMP JUMPDEST PUSH1 0x0 PUSH1 0x1 PUSH1 0x0 SWAP1 SLOAD SWAP1 PUSH2 0x100 EXP SWAP1 DIV PUSH20 0xFFFFFFFFFFFFFFFFFFFFFFFFFFFFFFFFFFFFFFFF AND SWAP1 POP SWAP1 JUMP JUMPDEST PUSH1 0x0 PUSH1 0x5 PUSH1 0x15 SWAP1 SLOAD SWAP1 PUSH2 0x100 EXP SWAP1 DIV PUSH1 0xFF AND SWAP1 POP SWAP1 JUMP JUMPDEST PUSH1 0x6 SLOAD DUP2 JUMP JUMPDEST PUSH1 0x0 PUSH1 0x5 PUSH1 0x14 SWAP1 SLOAD SWAP1 PUSH2 0x100 EXP SWAP1 DIV PUSH1 0xFF AND SWAP1 POP SWAP1 JUMP JUMPDEST PUSH1 0x0 DUP1 PUSH1 0x0 SWAP1 SLOAD SWAP1 PUSH2 0x100 EXP SWAP1 DIV PUSH20 0xFFFFFFFFFFFFFFFFFFFFFFFFFFFFFFFFFFFFFFFF AND SWAP1 POP SWAP1 JUMP JUMPDEST PUSH1 0x0 PUSH1 0x3 PUSH1 0x0 SWAP1 SLOAD SWAP1 PUSH2 0x100 EXP SWAP1 DIV PUSH20 0xFFFFFFFFFFFFFFFFFFFFFFFFFFFFFFFFFFFFFFFF AND SWAP1 POP SWAP1 JUMP JUMPDEST PUSH1 0x3 PUSH1 0x0 SWAP1 SLOAD SWAP1 PUSH2 0x100 EXP SWAP1 DIV PUSH20 0xFFFFFFFFFFFFFFFFFFFFFFFFFFFFFFFFFFFFFFFF AND PUSH20 0xFFFFFFFFFFFFFFFFFFFFFFFFFFFFFFFFFFFFFFFF AND CALLER PUSH20 0xFFFFFFFFFFFFFFFFFFFFFFFFFFFFFFFFFFFFFFFF AND EQ PUSH2 0x315 JUMPI PUSH1 0x40 MLOAD PUSH32 0x8C379A000000000000000000000000000000000000000000000000000000000 DUP2 MSTORE PUSH1 0x4 ADD PUSH2 0x30C SWAP1 PUSH2 0x828 JUMP JUMPDEST PUSH1 0x40 MLOAD DUP1 SWAP2 SUB SWAP1 REVERT JUMPDEST PUSH1 0x5 PUSH1 0x14 SWAP1 SLOAD SWAP1 PUSH2 0x100 EXP SWAP1 DIV PUSH1 0xFF AND ISZERO PUSH1 0x5 PUSH1 0x14 PUSH2 0x100 EXP DUP2 SLOAD DUP2 PUSH1 0xFF MUL NOT AND SWAP1 DUP4 ISZERO ISZERO MUL OR SWAP1 SSTORE POP JUMP JUMPDEST PUSH1 0x3 PUSH1 0x0 SWAP1 SLOAD SWAP1 PUSH2 0x100 EXP SWAP1 DIV PUSH20 0xFFFFFFFFFFFFFFFFFFFFFFFFFFFFFFFFFFFFFFFF AND PUSH20 0xFFFFFFFFFFFFFFFFFFFFFFFFFFFFFFFFFFFFFFFF AND CALLER PUSH20 0xFFFFFFFFFFFFFFFFFFFFFFFFFFFFFFFFFFFFFFFF AND EQ PUSH2 0x3D1 JUMPI PUSH1 0x40 MLOAD PUSH32 0x8C379A000000000000000000000000000000000000000000000000000000000 DUP2 MSTORE PUSH1 0x4 ADD PUSH2 0x3C8 SWAP1 PUSH2 0x828 JUMP JUMPDEST PUSH1 0x40 MLOAD DUP1 SWAP2 SUB SWAP1 REVERT JUMPDEST PUSH2 0x3EC PUSH8 0xDE0B6B3A7640000 DUP4 PUSH2 0x646 SWAP1 SWAP2 SWAP1 PUSH4 0xFFFFFFFF AND JUMP JUMPDEST PUSH1 0x6 DUP2 SWAP1 SSTORE POP PUSH2 0x40D PUSH8 0xDE0B6B3A7640000 DUP3 PUSH2 0x646 SWAP1 SWAP2 SWAP1 PUSH4 0xFFFFFFFF AND JUMP JUMPDEST PUSH1 0x7 DUP2 SWAP1 SSTORE POP DUP7 PUSH1 0x0 DUP1 PUSH2 0x100 EXP DUP2 SLOAD DUP2 PUSH20 0xFFFFFFFFFFFFFFFFFFFFFFFFFFFFFFFFFFFFFFFF MUL NOT AND SWAP1 DUP4 PUSH20 0xFFFFFFFFFFFFFFFFFFFFFFFFFFFFFFFFFFFFFFFF AND MUL OR SWAP1 SSTORE POP DUP6 PUSH1 0x1 PUSH1 0x0 PUSH2 0x100 EXP DUP2 SLOAD DUP2 PUSH20 0xFFFFFFFFFFFFFFFFFFFFFFFFFFFFFFFFFFFFFFFF MUL NOT AND SWAP1 DUP4 PUSH20 0xFFFFFFFFFFFFFFFFFFFFFFFFFFFFFFFFFFFFFFFF AND MUL OR SWAP1 SSTORE POP DUP5 PUSH1 0x2 PUSH1 0x0 PUSH2 0x100 EXP DUP2 SLOAD DUP2 PUSH20 0xFFFFFFFFFFFFFFFFFFFFFFFFFFFFFFFFFFFFFFFF MUL NOT AND SWAP1 DUP4 PUSH20 0xFFFFFFFFFFFFFFFFFFFFFFFFFFFFFFFFFFFFFFFF AND MUL OR SWAP1 SSTORE POP DUP4 PUSH1 0x4 PUSH1 0x0 PUSH2 0x100 EXP DUP2 SLOAD DUP2 PUSH20 0xFFFFFFFFFFFFFFFFFFFFFFFFFFFFFFFFFFFFFFFF MUL NOT AND SWAP1 DUP4 PUSH20 0xFFFFFFFFFFFFFFFFFFFFFFFFFFFFFFFFFFFFFFFF AND MUL OR SWAP1 SSTORE POP DUP3 PUSH1 0x5 PUSH1 0x0 PUSH2 0x100 EXP DUP2 SLOAD DUP2 PUSH20 0xFFFFFFFFFFFFFFFFFFFFFFFFFFFFFFFFFFFFFFFF MUL NOT AND SWAP1 DUP4 PUSH20 0xFFFFFFFFFFFFFFFFFFFFFFFFFFFFFFFFFFFFFFFF AND MUL OR SWAP1 SSTORE POP POP POP POP POP POP POP POP JUMP JUMPDEST PUSH1 0x0 PUSH1 0x2 PUSH1 0x0 SWAP1 SLOAD SWAP1 PUSH2 0x100 EXP SWAP1 DIV PUSH20 0xFFFFFFFFFFFFFFFFFFFFFFFFFFFFFFFFFFFFFFFF AND SWAP1 POP SWAP1 JUMP JUMPDEST PUSH1 0x3 PUSH1 0x0 SWAP1 SLOAD SWAP1 PUSH2 0x100 EXP SWAP1 DIV PUSH20 0xFFFFFFFFFFFFFFFFFFFFFFFFFFFFFFFFFFFFFFFF AND PUSH20 0xFFFFFFFFFFFFFFFFFFFFFFFFFFFFFFFFFFFFFFFF AND CALLER PUSH20 0xFFFFFFFFFFFFFFFFFFFFFFFFFFFFFFFFFFFFFFFF AND EQ PUSH2 0x61A JUMPI PUSH1 0x40 MLOAD PUSH32 0x8C379A000000000000000000000000000000000000000000000000000000000 DUP2 MSTORE PUSH1 0x4 ADD PUSH2 0x611 SWAP1 PUSH2 0x828 JUMP JUMPDEST PUSH1 0x40 MLOAD DUP1 SWAP2 SUB SWAP1 REVERT JUMPDEST PUSH1 0x5 PUSH1 0x15 SWAP1 SLOAD SWAP1 PUSH2 0x100 EXP SWAP1 DIV PUSH1 0xFF AND ISZERO PUSH1 0x5 PUSH1 0x15 PUSH2 0x100 EXP DUP2 SLOAD DUP2 PUSH1 0xFF MUL NOT AND SWAP1 DUP4 ISZERO ISZERO MUL OR SWAP1 SSTORE POP JUMP JUMPDEST PUSH1 0x0 DUP2 DUP4 PUSH2 0x654 SWAP2 SWAP1 PUSH2 0x874 JUMP JUMPDEST SWAP1 POP SWAP3 SWAP2 POP POP JUMP JUMPDEST PUSH1 0x0 DUP2 CALLDATALOAD SWAP1 POP PUSH2 0x66B DUP2 PUSH2 0x9EC JUMP JUMPDEST SWAP3 SWAP2 POP POP JUMP JUMPDEST PUSH1 0x0 DUP2 CALLDATALOAD SWAP1 POP PUSH2 0x680 DUP2 PUSH2 0xA03 JUMP JUMPDEST SWAP3 SWAP2 POP POP JUMP JUMPDEST PUSH1 0x0 DUP1 PUSH1 0x0 DUP1 PUSH1 0x0 DUP1 PUSH1 0x0 PUSH1 0xE0 DUP9 DUP11 SUB SLT ISZERO PUSH2 0x6A1 JUMPI PUSH1 0x0 DUP1 REVERT JUMPDEST PUSH1 0x0 PUSH2 0x6AF DUP11 DUP3 DUP12 ADD PUSH2 0x65C JUMP JUMPDEST SWAP8 POP POP PUSH1 0x20 PUSH2 0x6C0 DUP11 DUP3 DUP12 ADD PUSH2 0x65C JUMP JUMPDEST SWAP7 POP POP PUSH1 0x40 PUSH2 0x6D1 DUP11 DUP3 DUP12 ADD PUSH2 0x65C JUMP JUMPDEST SWAP6 POP POP PUSH1 0x60 PUSH2 0x6E2 DUP11 DUP3 DUP12 ADD PUSH2 0x65C JUMP JUMPDEST SWAP5 POP POP PUSH1 0x80 PUSH2 0x6F3 DUP11 DUP3 DUP12 ADD PUSH2 0x65C JUMP JUMPDEST SWAP4 POP POP PUSH1 0xA0 PUSH2 0x704 DUP11 DUP3 DUP12 ADD PUSH2 0x671 JUMP JUMPDEST SWAP3 POP POP PUSH1 0xC0 PUSH2 0x715 DUP11 DUP3 DUP12 ADD PUSH2 0x671 JUMP JUMPDEST SWAP2 POP POP SWAP3 SWAP6 SWAP9 SWAP2 SWAP5 SWAP8 POP SWAP3 SWAP6 POP JUMP JUMPDEST PUSH2 0x72D DUP2 PUSH2 0x8E0 JUMP JUMPDEST DUP3 MSTORE POP POP JUMP JUMPDEST PUSH2 0x73C DUP2 PUSH2 0x8F2 JUMP JUMPDEST DUP3 MSTORE POP POP JUMP JUMPDEST PUSH2 0x74B DUP2 PUSH2 0x928 JUMP JUMPDEST DUP3 MSTORE POP POP JUMP JUMPDEST PUSH2 0x75A DUP2 PUSH2 0x94C JUMP JUMPDEST DUP3 MSTORE POP POP JUMP JUMPDEST PUSH2 0x769 DUP2 PUSH2 0x970 JUMP JUMPDEST DUP3 MSTORE POP POP JUMP JUMPDEST PUSH1 0x0 PUSH2 0x77C PUSH1 0x1A DUP4 PUSH2 0x863 JUMP JUMPDEST SWAP2 POP PUSH2 0x787 DUP3 PUSH2 0x9C3 JUMP JUMPDEST PUSH1 0x20 DUP3 ADD SWAP1 POP SWAP2 SWAP1 POP JUMP JUMPDEST PUSH2 0x79B DUP2 PUSH2 0x91E JUMP JUMPDEST DUP3 MSTORE POP POP JUMP JUMPDEST PUSH1 0x0 PUSH1 0x20 DUP3 ADD SWAP1 POP PUSH2 0x7B6 PUSH1 0x0 DUP4 ADD DUP5 PUSH2 0x724 JUMP JUMPDEST SWAP3 SWAP2 POP POP JUMP JUMPDEST PUSH1 0x0 PUSH1 0x20 DUP3 ADD SWAP1 POP PUSH2 0x7D1 PUSH1 0x0 DUP4 ADD DUP5 PUSH2 0x733 JUMP JUMPDEST SWAP3 SWAP2 POP POP JUMP JUMPDEST PUSH1 0x0 PUSH1 0x20 DUP3 ADD SWAP1 POP PUSH2 0x7EC PUSH1 0x0 DUP4 ADD DUP5 PUSH2 0x742 JUMP JUMPDEST SWAP3 SWAP2 POP POP JUMP JUMPDEST PUSH1 0x0 PUSH1 0x20 DUP3 ADD SWAP1 POP PUSH2 0x807 PUSH1 0x0 DUP4 ADD DUP5 PUSH2 0x751 JUMP JUMPDEST SWAP3 SWAP2 POP POP JUMP JUMPDEST PUSH1 0x0 PUSH1 0x20 DUP3 ADD SWAP1 POP PUSH2 0x822 PUSH1 0x0 DUP4 ADD DUP5 PUSH2 0x760 JUMP JUMPDEST SWAP3 SWAP2 POP POP JUMP JUMPDEST PUSH1 0x0 PUSH1 0x20 DUP3 ADD SWAP1 POP DUP2 DUP2 SUB PUSH1 0x0 DUP4 ADD MSTORE PUSH2 0x841 DUP2 PUSH2 0x76F JUMP JUMPDEST SWAP1 POP SWAP2 SWAP1 POP JUMP JUMPDEST PUSH1 0x0 PUSH1 0x20 DUP3 ADD SWAP1 POP PUSH2 0x85D PUSH1 0x0 DUP4 ADD DUP5 PUSH2 0x792 JUMP JUMPDEST SWAP3 SWAP2 POP POP JUMP JUMPDEST PUSH1 0x0 DUP3 DUP3 MSTORE PUSH1 0x20 DUP3 ADD SWAP1 POP SWAP3 SWAP2 POP POP JUMP JUMPDEST PUSH1 0x0 PUSH2 0x87F DUP3 PUSH2 0x91E JUMP JUMPDEST SWAP2 POP PUSH2 0x88A DUP4 PUSH2 0x91E JUMP JUMPDEST SWAP3 POP DUP2 PUSH32 0xFFFFFFFFFFFFFFFFFFFFFFFFFFFFFFFFFFFFFFFFFFFFFFFFFFFFFFFFFFFFFFFF DIV DUP4 GT DUP3 ISZERO ISZERO AND ISZERO PUSH2 0x8C3 JUMPI PUSH2 0x8C2 PUSH2 0x994 JUMP JUMPDEST JUMPDEST DUP3 DUP3 MUL SWAP1 POP SWAP3 SWAP2 POP POP JUMP JUMPDEST PUSH1 0x0 PUSH2 0x8D9 DUP3 PUSH2 0x8FE JUMP JUMPDEST SWAP1 POP SWAP2 SWAP1 POP JUMP JUMPDEST PUSH1 0x0 PUSH2 0x8EB DUP3 PUSH2 0x8FE JUMP JUMPDEST SWAP1 POP SWAP2 SWAP1 POP JUMP JUMPDEST PUSH1 0x0 DUP2 ISZERO ISZERO SWAP1 POP SWAP2 SWAP1 POP JUMP JUMPDEST PUSH1 0x0 PUSH20 0xFFFFFFFFFFFFFFFFFFFFFFFFFFFFFFFFFFFFFFFF DUP3 AND SWAP1 POP SWAP2 SWAP1 POP JUMP JUMPDEST PUSH1 0x0 DUP2 SWAP1 POP SWAP2 SWAP1 POP JUMP JUMPDEST PUSH1 0x0 PUSH2 0x933 DUP3 PUSH2 0x93A JUMP JUMPDEST SWAP1 POP SWAP2 SWAP1 POP JUMP JUMPDEST PUSH1 0x0 PUSH2 0x945 DUP3 PUSH2 0x8FE JUMP JUMPDEST SWAP1 POP SWAP2 SWAP1 POP JUMP JUMPDEST PUSH1 0x0 PUSH2 0x957 DUP3 PUSH2 0x95E JUMP JUMPDEST SWAP1 POP SWAP2 SWAP1 POP JUMP JUMPDEST PUSH1 0x0 PUSH2 0x969 DUP3 PUSH2 0x8FE JUMP JUMPDEST SWAP1 POP SWAP2 SWAP1 POP JUMP JUMPDEST PUSH1 0x0 PUSH2 0x97B DUP3 PUSH2 0x982 JUMP JUMPDEST SWAP1 POP SWAP2 SWAP1 POP JUMP JUMPDEST PUSH1 0x0 PUSH2 0x98D DUP3 PUSH2 0x8FE JUMP JUMPDEST SWAP1 POP SWAP2 SWAP1 POP JUMP JUMPDEST PUSH32 0x4E487B7100000000000000000000000000000000000000000000000000000000 PUSH1 0x0 MSTORE PUSH1 0x11 PUSH1 0x4 MSTORE PUSH1 0x24 PUSH1 0x0 REVERT JUMPDEST PUSH32 0x4865726F436F7265204572726F72203A206F6E6C794F776E6572000000000000 PUSH1 0x0 DUP3 ADD MSTORE POP JUMP JUMPDEST PUSH2 0x9F5 DUP2 PUSH2 0x8CE JUMP JUMPDEST DUP2 EQ PUSH2 0xA00 JUMPI PUSH1 0x0 DUP1 REVERT JUMPDEST POP JUMP JUMPDEST PUSH2 0xA0C DUP2 PUSH2 0x91E JUMP JUMPDEST DUP2 EQ PUSH2 0xA17 JUMPI PUSH1 0x0 DUP1 REVERT JUMPDEST POP JUMP INVALID LOG2 PUSH5 0x6970667358 0x22 SLT KECCAK256 GASLIMIT NUMBER SUB 0xBC 0xB2 0xD4 DUP2 PUSH5 0xBCB001CAED 0x49 0xBF 0x1E 0xE5 BLOCKHASH 0xC 0xB4 0xBD DUP4 DUP6 0x29 0xA9 PUSH7 0x7BDD1821723F64 PUSH20 0x6F6C634300080400330000000000000000000000 "
				},
				"gasEstimates": {
					"creation": {
						"codeDepositCost": "528000",
						"executionCost": "63262",
						"totalCost": "591262"
					},
					"external": {
						"changeMiningPaused()": "22930",
						"changePaused()": "22864",
						"getHeroNFT()": "1265",
						"getItem()": "1353",
						"getMiningPaused()": "1274",
						"getOwner()": "1244",
						"getPaused()": "1318",
						"getToken()": "1288",
						"initialize(address,address,address,address,address,uint256,uint256)": "infinite",
						"priceOfKlay()": "1196",
						"priceOfToken()": "1130"
					},
					"internal": {
						"_currentTime()": "infinite"
					}
				},
				"methodIdentifiers": {
					"changeMiningPaused()": "ee72b8cc",
					"changePaused()": "9eb4eae5",
					"getHeroNFT()": "7cac00ee",
					"getItem()": "c412eaba",
					"getMiningPaused()": "28919df6",
					"getOwner()": "893d20e8",
					"getPaused()": "6805b84b",
					"getToken()": "21df0da7",
					"initialize(address,address,address,address,address,uint256,uint256)": "b33f9527",
					"priceOfKlay()": "3a1a8080",
					"priceOfToken()": "1b9cbdfb"
				}
			},
			"storageLayout": {
				"storage": [
					{
						"astId": 91,
						"contract": "Hero/utils/HeroController.sol:HeroController",
						"label": "heroNFT",
						"offset": 0,
						"slot": "0",
						"type": "t_contract(IHeroNFT)30"
					},
					{
						"astId": 94,
						"contract": "Hero/utils/HeroController.sol:HeroController",
						"label": "token",
						"offset": 0,
						"slot": "1",
						"type": "t_contract(IKIP7)700"
					},
					{
						"astId": 97,
						"contract": "Hero/utils/HeroController.sol:HeroController",
						"label": "item",
						"offset": 0,
						"slot": "2",
						"type": "t_contract(IKIP37Full)569"
					},
					{
						"astId": 99,
						"contract": "Hero/utils/HeroController.sol:HeroController",
						"label": "coreOwner",
						"offset": 0,
						"slot": "3",
						"type": "t_address_payable"
					},
					{
						"astId": 101,
						"contract": "Hero/utils/HeroController.sol:HeroController",
						"label": "depositAddress",
						"offset": 0,
						"slot": "4",
						"type": "t_address"
					},
					{
						"astId": 103,
						"contract": "Hero/utils/HeroController.sol:HeroController",
						"label": "miningAddress",
						"offset": 0,
						"slot": "5",
						"type": "t_address"
					},
					{
						"astId": 105,
						"contract": "Hero/utils/HeroController.sol:HeroController",
						"label": "paused",
						"offset": 20,
						"slot": "5",
						"type": "t_bool"
					},
					{
						"astId": 107,
						"contract": "Hero/utils/HeroController.sol:HeroController",
						"label": "miningPaused",
						"offset": 21,
						"slot": "5",
						"type": "t_bool"
					},
					{
						"astId": 109,
						"contract": "Hero/utils/HeroController.sol:HeroController",
						"label": "priceOfKlay",
						"offset": 0,
						"slot": "6",
						"type": "t_uint256"
					},
					{
						"astId": 111,
						"contract": "Hero/utils/HeroController.sol:HeroController",
						"label": "priceOfToken",
						"offset": 0,
						"slot": "7",
						"type": "t_uint256"
					}
				],
				"types": {
					"t_address": {
						"encoding": "inplace",
						"label": "address",
						"numberOfBytes": "20"
					},
					"t_address_payable": {
						"encoding": "inplace",
						"label": "address payable",
						"numberOfBytes": "20"
					},
					"t_bool": {
						"encoding": "inplace",
						"label": "bool",
						"numberOfBytes": "1"
					},
					"t_contract(IHeroNFT)30": {
						"encoding": "inplace",
						"label": "contract IHeroNFT",
						"numberOfBytes": "20"
					},
					"t_contract(IKIP37Full)569": {
						"encoding": "inplace",
						"label": "contract IKIP37Full",
						"numberOfBytes": "20"
					},
					"t_contract(IKIP7)700": {
						"encoding": "inplace",
						"label": "contract IKIP7",
						"numberOfBytes": "20"
					},
					"t_uint256": {
						"encoding": "inplace",
						"label": "uint256",
						"numberOfBytes": "32"
					}
				}
			},
			"userdoc": {
				"kind": "user",
				"methods": {},
				"version": 1
			}
		}
	}
}