{
	"Hero/utils/LevelDiagram.sol": {
		"LevelDiagram": {
			"abi": [
				{
					"inputs": [
						{
							"internalType": "address",
							"name": "_item",
							"type": "address"
						}
					],
					"stateMutability": "nonpayable",
					"type": "constructor"
				},
				{
					"inputs": [
						{
							"internalType": "uint256",
							"name": "_power",
							"type": "uint256"
						}
					],
					"name": "calculateItemIndex",
					"outputs": [
						{
							"internalType": "uint256",
							"name": "",
							"type": "uint256"
						}
					],
					"stateMutability": "view",
					"type": "function"
				},
				{
					"inputs": [
						{
							"internalType": "string",
							"name": "grade",
							"type": "string"
						},
						{
							"internalType": "uint256",
							"name": "level",
							"type": "uint256"
						}
					],
					"name": "calculateTokenAmount",
					"outputs": [
						{
							"internalType": "uint256",
							"name": "",
							"type": "uint256"
						}
					],
					"stateMutability": "pure",
					"type": "function"
				}
			],
			"devdoc": {
				"kind": "dev",
				"methods": {},
				"version": 1
			},
			"evm": {
				"assembly": "    /* \"Hero/utils/LevelDiagram.sol\":146:3680  contract LevelDiagram is ILevelDiagram  {... */\n  mstore(0x40, 0x80)\n    /* \"Hero/utils/LevelDiagram.sol\":540:608  constructor(address _item) {... */\n  callvalue\n  dup1\n  iszero\n  tag_1\n  jumpi\n  0x00\n  dup1\n  revert\ntag_1:\n  pop\n  mload(0x40)\n  sub(codesize, bytecodeSize)\n  dup1\n  bytecodeSize\n  dup4\n  codecopy\n  dup2\n  dup2\n  add\n  0x40\n  mstore\n  dup2\n  add\n  swap1\n  tag_2\n  swap2\n  swap1\n  tag_3\n  jump\t// in\ntag_2:\n    /* \"Hero/utils/LevelDiagram.sol\":595:600  _item */\n  dup1\n    /* \"Hero/utils/LevelDiagram.sol\":577:581  item */\n  0x00\n  dup1\n    /* \"Hero/utils/LevelDiagram.sol\":577:601  item = IKIP37Full(_item) */\n  0x0100\n  exp\n  dup2\n  sload\n  dup2\n  0xffffffffffffffffffffffffffffffffffffffff\n  mul\n  not\n  and\n  swap1\n  dup4\n  0xffffffffffffffffffffffffffffffffffffffff\n  and\n  mul\n  or\n  swap1\n  sstore\n  pop\n    /* \"Hero/utils/LevelDiagram.sol\":540:608  constructor(address _item) {... */\n  pop\n    /* \"Hero/utils/LevelDiagram.sol\":146:3680  contract LevelDiagram is ILevelDiagram  {... */\n  jump(tag_6)\n    /* \"#utility.yul\":7:150   */\ntag_8:\n    /* \"#utility.yul\":64:69   */\n  0x00\n    /* \"#utility.yul\":95:101   */\n  dup2\n    /* \"#utility.yul\":89:102   */\n  mload\n    /* \"#utility.yul\":80:102   */\n  swap1\n  pop\n    /* \"#utility.yul\":111:144   */\n  tag_10\n    /* \"#utility.yul\":138:143   */\n  dup2\n    /* \"#utility.yul\":111:144   */\n  tag_11\n  jump\t// in\ntag_10:\n    /* \"#utility.yul\":70:150   */\n  swap3\n  swap2\n  pop\n  pop\n  jump\t// out\n    /* \"#utility.yul\":156:440   */\ntag_3:\n    /* \"#utility.yul\":226:232   */\n  0x00\n    /* \"#utility.yul\":275:277   */\n  0x20\n    /* \"#utility.yul\":263:272   */\n  dup3\n    /* \"#utility.yul\":254:261   */\n  dup5\n    /* \"#utility.yul\":250:273   */\n  sub\n    /* \"#utility.yul\":246:278   */\n  slt\n    /* \"#utility.yul\":243:245   */\n  iszero\n  tag_13\n  jumpi\n    /* \"#utility.yul\":291:292   */\n  0x00\n    /* \"#utility.yul\":288:289   */\n  dup1\n    /* \"#utility.yul\":281:293   */\n  revert\n    /* \"#utility.yul\":243:245   */\ntag_13:\n    /* \"#utility.yul\":334:335   */\n  0x00\n    /* \"#utility.yul\":359:423   */\n  tag_14\n    /* \"#utility.yul\":415:422   */\n  dup5\n    /* \"#utility.yul\":406:412   */\n  dup3\n    /* \"#utility.yul\":395:404   */\n  dup6\n    /* \"#utility.yul\":391:413   */\n  add\n    /* \"#utility.yul\":359:423   */\n  tag_8\n  jump\t// in\ntag_14:\n    /* \"#utility.yul\":349:423   */\n  swap2\n  pop\n    /* \"#utility.yul\":305:433   */\n  pop\n    /* \"#utility.yul\":233:440   */\n  swap3\n  swap2\n  pop\n  pop\n  jump\t// out\n    /* \"#utility.yul\":446:542   */\ntag_15:\n    /* \"#utility.yul\":483:490   */\n  0x00\n    /* \"#utility.yul\":512:536   */\n  tag_17\n    /* \"#utility.yul\":530:535   */\n  dup3\n    /* \"#utility.yul\":512:536   */\n  tag_18\n  jump\t// in\ntag_17:\n    /* \"#utility.yul\":501:536   */\n  swap1\n  pop\n    /* \"#utility.yul\":491:542   */\n  swap2\n  swap1\n  pop\n  jump\t// out\n    /* \"#utility.yul\":548:674   */\ntag_18:\n    /* \"#utility.yul\":585:592   */\n  0x00\n    /* \"#utility.yul\":625:667   */\n  0xffffffffffffffffffffffffffffffffffffffff\n    /* \"#utility.yul\":618:623   */\n  dup3\n    /* \"#utility.yul\":614:668   */\n  and\n    /* \"#utility.yul\":603:668   */\n  swap1\n  pop\n    /* \"#utility.yul\":593:674   */\n  swap2\n  swap1\n  pop\n  jump\t// out\n    /* \"#utility.yul\":680:802   */\ntag_11:\n    /* \"#utility.yul\":753:777   */\n  tag_21\n    /* \"#utility.yul\":771:776   */\n  dup2\n    /* \"#utility.yul\":753:777   */\n  tag_15\n  jump\t// in\ntag_21:\n    /* \"#utility.yul\":746:751   */\n  dup2\n    /* \"#utility.yul\":743:778   */\n  eq\n    /* \"#utility.yul\":733:735   */\n  tag_22\n  jumpi\n    /* \"#utility.yul\":792:793   */\n  0x00\n    /* \"#utility.yul\":789:790   */\n  dup1\n    /* \"#utility.yul\":782:794   */\n  revert\n    /* \"#utility.yul\":733:735   */\ntag_22:\n    /* \"#utility.yul\":723:802   */\n  pop\n  jump\t// out\n    /* \"Hero/utils/LevelDiagram.sol\":146:3680  contract LevelDiagram is ILevelDiagram  {... */\ntag_6:\n  dataSize(sub_0)\n  dup1\n  dataOffset(sub_0)\n  0x00\n  codecopy\n  0x00\n  return\nstop\n\nsub_0: assembly {\n        /* \"Hero/utils/LevelDiagram.sol\":146:3680  contract LevelDiagram is ILevelDiagram  {... */\n      mstore(0x40, 0x80)\n      callvalue\n      dup1\n      iszero\n      tag_1\n      jumpi\n      0x00\n      dup1\n      revert\n    tag_1:\n      pop\n      jumpi(tag_2, lt(calldatasize, 0x04))\n      shr(0xe0, calldataload(0x00))\n      dup1\n      0xaa93c0ee\n      eq\n      tag_3\n      jumpi\n      dup1\n      0xb79d5db4\n      eq\n      tag_4\n      jumpi\n    tag_2:\n      0x00\n      dup1\n      revert\n        /* \"Hero/utils/LevelDiagram.sol\":614:949  function calculateTokenAmount(string memory grade, uint256 level)... */\n    tag_3:\n      tag_5\n      0x04\n      dup1\n      calldatasize\n      sub\n      dup2\n      add\n      swap1\n      tag_6\n      swap2\n      swap1\n      tag_7\n      jump\t// in\n    tag_6:\n      tag_8\n      jump\t// in\n    tag_5:\n      mload(0x40)\n      tag_9\n      swap2\n      swap1\n      tag_10\n      jump\t// in\n    tag_9:\n      mload(0x40)\n      dup1\n      swap2\n      sub\n      swap1\n      return\n        /* \"Hero/utils/LevelDiagram.sol\":1768:2175  function calculateItemIndex(uint256 _power)... */\n    tag_4:\n      tag_11\n      0x04\n      dup1\n      calldatasize\n      sub\n      dup2\n      add\n      swap1\n      tag_12\n      swap2\n      swap1\n      tag_13\n      jump\t// in\n    tag_12:\n      tag_14\n      jump\t// in\n    tag_11:\n      mload(0x40)\n      tag_15\n      swap2\n      swap1\n      tag_10\n      jump\t// in\n    tag_15:\n      mload(0x40)\n      dup1\n      swap2\n      sub\n      swap1\n      return\n        /* \"Hero/utils/LevelDiagram.sol\":614:949  function calculateTokenAmount(string memory grade, uint256 level)... */\n    tag_8:\n        /* \"Hero/utils/LevelDiagram.sol\":742:749  uint256 */\n      0x00\n        /* \"Hero/utils/LevelDiagram.sol\":765:784  uint256 gradeAmount */\n      dup1\n        /* \"Hero/utils/LevelDiagram.sol\":787:819  calculateBasicGradeAmount(grade) */\n      tag_17\n        /* \"Hero/utils/LevelDiagram.sol\":813:818  grade */\n      dup5\n        /* \"Hero/utils/LevelDiagram.sol\":787:812  calculateBasicGradeAmount */\n      tag_18\n        /* \"Hero/utils/LevelDiagram.sol\":787:819  calculateBasicGradeAmount(grade) */\n      jump\t// in\n    tag_17:\n        /* \"Hero/utils/LevelDiagram.sol\":765:819  uint256 gradeAmount = calculateBasicGradeAmount(grade) */\n      swap1\n      pop\n        /* \"Hero/utils/LevelDiagram.sol\":829:848  uint256 levelAmount */\n      0x00\n        /* \"Hero/utils/LevelDiagram.sol\":851:883  calculateBasicLevelAmount(level) */\n      tag_19\n        /* \"Hero/utils/LevelDiagram.sol\":877:882  level */\n      dup5\n        /* \"Hero/utils/LevelDiagram.sol\":851:876  calculateBasicLevelAmount */\n      tag_20\n        /* \"Hero/utils/LevelDiagram.sol\":851:883  calculateBasicLevelAmount(level) */\n      jump\t// in\n    tag_19:\n        /* \"Hero/utils/LevelDiagram.sol\":829:883  uint256 levelAmount = calculateBasicLevelAmount(level) */\n      swap1\n      pop\n        /* \"Hero/utils/LevelDiagram.sol\":938:942  1e18 */\n      0x0de0b6b3a7640000\n        /* \"Hero/utils/LevelDiagram.sol\":932:934  10 */\n      0x0a\n        /* \"Hero/utils/LevelDiagram.sol\":917:928  levelAmount */\n      dup3\n        /* \"Hero/utils/LevelDiagram.sol\":903:914  gradeAmount */\n      dup5\n        /* \"Hero/utils/LevelDiagram.sol\":903:928  gradeAmount * levelAmount */\n      tag_21\n      swap2\n      swap1\n      tag_22\n      jump\t// in\n    tag_21:\n        /* \"Hero/utils/LevelDiagram.sol\":902:934  (gradeAmount * levelAmount) / 10 */\n      tag_23\n      swap2\n      swap1\n      tag_24\n      jump\t// in\n    tag_23:\n        /* \"Hero/utils/LevelDiagram.sol\":901:942  ((gradeAmount * levelAmount) / 10) * 1e18 */\n      tag_25\n      swap2\n      swap1\n      tag_22\n      jump\t// in\n    tag_25:\n        /* \"Hero/utils/LevelDiagram.sol\":894:942  return ((gradeAmount * levelAmount) / 10) * 1e18 */\n      swap3\n      pop\n      pop\n      pop\n        /* \"Hero/utils/LevelDiagram.sol\":614:949  function calculateTokenAmount(string memory grade, uint256 level)... */\n      swap3\n      swap2\n      pop\n      pop\n      jump\t// out\n        /* \"Hero/utils/LevelDiagram.sol\":1768:2175  function calculateItemIndex(uint256 _power)... */\n    tag_14:\n        /* \"Hero/utils/LevelDiagram.sol\":1876:1883  uint256 */\n      0x00\n        /* \"Hero/utils/LevelDiagram.sol\":1904:1913  uint256 i */\n      dup1\n        /* \"Hero/utils/LevelDiagram.sol\":1916:1917  1 */\n      0x01\n        /* \"Hero/utils/LevelDiagram.sol\":1904:1917  uint256 i = 1 */\n      swap1\n      pop\n        /* \"Hero/utils/LevelDiagram.sol\":1899:2150  for (uint256 i = 1; i <= 5; i++) {... */\n    tag_27:\n        /* \"Hero/utils/LevelDiagram.sol\":1924:1925  5 */\n      0x05\n        /* \"Hero/utils/LevelDiagram.sol\":1919:1920  i */\n      dup2\n        /* \"Hero/utils/LevelDiagram.sol\":1919:1925  i <= 5 */\n      gt\n        /* \"Hero/utils/LevelDiagram.sol\":1899:2150  for (uint256 i = 1; i <= 5; i++) {... */\n      tag_28\n      jumpi\n        /* \"Hero/utils/LevelDiagram.sol\":1946:1966  uint256 randomNumber */\n      0x00\n        /* \"Hero/utils/LevelDiagram.sol\":1969:1995  makeRandomNumberForItem(i) */\n      tag_30\n        /* \"Hero/utils/LevelDiagram.sol\":1993:1994  i */\n      dup3\n        /* \"Hero/utils/LevelDiagram.sol\":1969:1992  makeRandomNumberForItem */\n      tag_31\n        /* \"Hero/utils/LevelDiagram.sol\":1969:1995  makeRandomNumberForItem(i) */\n      jump\t// in\n    tag_30:\n        /* \"Hero/utils/LevelDiagram.sol\":1946:1995  uint256 randomNumber = makeRandomNumberForItem(i) */\n      swap1\n      pop\n        /* \"Hero/utils/LevelDiagram.sol\":2024:2036  randomNumber */\n      dup1\n        /* \"Hero/utils/LevelDiagram.sol\":2014:2020  _power */\n      dup5\n        /* \"Hero/utils/LevelDiagram.sol\":2014:2036  _power >= randomNumber */\n      lt\n        /* \"Hero/utils/LevelDiagram.sol\":2010:2140  if (_power >= randomNumber) {... */\n      tag_32\n      jumpi\n        /* \"Hero/utils/LevelDiagram.sol\":2066:2078  randomNumber */\n      dup1\n        /* \"Hero/utils/LevelDiagram.sol\":2056:2078  _power -= randomNumber */\n      dup5\n      tag_33\n      swap2\n      swap1\n      tag_34\n      jump\t// in\n    tag_33:\n      swap4\n      pop\n        /* \"Hero/utils/LevelDiagram.sol\":2010:2140  if (_power >= randomNumber) {... */\n      jump(tag_35)\n    tag_32:\n        /* \"Hero/utils/LevelDiagram.sol\":2124:2125  i */\n      dup2\n        /* \"Hero/utils/LevelDiagram.sol\":2117:2125  return i */\n      swap3\n      pop\n      pop\n      pop\n      jump(tag_26)\n        /* \"Hero/utils/LevelDiagram.sol\":2010:2140  if (_power >= randomNumber) {... */\n    tag_35:\n        /* \"Hero/utils/LevelDiagram.sol\":1899:2150  for (uint256 i = 1; i <= 5; i++) {... */\n      pop\n        /* \"Hero/utils/LevelDiagram.sol\":1927:1930  i++ */\n      dup1\n      dup1\n      tag_36\n      swap1\n      tag_37\n      jump\t// in\n    tag_36:\n      swap2\n      pop\n      pop\n        /* \"Hero/utils/LevelDiagram.sol\":1899:2150  for (uint256 i = 1; i <= 5; i++) {... */\n      jump(tag_27)\n    tag_28:\n      pop\n        /* \"Hero/utils/LevelDiagram.sol\":2167:2168  0 */\n      0x00\n        /* \"Hero/utils/LevelDiagram.sol\":2160:2168  return 0 */\n      swap1\n      pop\n        /* \"Hero/utils/LevelDiagram.sol\":1768:2175  function calculateItemIndex(uint256 _power)... */\n    tag_26:\n      swap2\n      swap1\n      pop\n      jump\t// out\n        /* \"Hero/utils/LevelDiagram.sol\":1241:1762  function calculateBasicGradeAmount(string memory grade)... */\n    tag_18:\n        /* \"Hero/utils/LevelDiagram.sol\":1361:1368  uint256 */\n      0x00\n        /* \"Hero/utils/LevelDiagram.sol\":1384:1402  bytes32 gradeCheck */\n      dup1\n        /* \"Hero/utils/LevelDiagram.sol\":1421:1426  grade */\n      dup3\n        /* \"Hero/utils/LevelDiagram.sol\":1405:1428  keccak256(bytes(grade)) */\n      dup1\n      mload\n      swap1\n      0x20\n      add\n      keccak256\n        /* \"Hero/utils/LevelDiagram.sol\":1384:1428  bytes32 gradeCheck = keccak256(bytes(grade)) */\n      swap1\n      pop\n        /* \"Hero/utils/LevelDiagram.sol\":229:251  keccak256(\"Mythology\") */\n      0x8c57226533ec41d2857120df9ace6dff88130d9b32385e09c9828f75027730f3\n        /* \"Hero/utils/LevelDiagram.sol\":1460:1470  gradeCheck */\n      dup2\n        /* \"Hero/utils/LevelDiagram.sol\":1460:1483  gradeCheck == MYTHOLOGY */\n      eq\n        /* \"Hero/utils/LevelDiagram.sol\":1460:1745  gradeCheck == MYTHOLOGY ? 675 : gradeCheck == LEGENDARY... */\n      tag_39\n      jumpi\n        /* \"Hero/utils/LevelDiagram.sol\":294:316  keccak256(\"Legendary\") */\n      0x181ebe3a8fa130246d49bfd123ac54849b05bdcd02c6b1322c78de2a3988a310\n        /* \"Hero/utils/LevelDiagram.sol\":1492:1502  gradeCheck */\n      dup2\n        /* \"Hero/utils/LevelDiagram.sol\":1492:1515  gradeCheck == LEGENDARY */\n      eq\n        /* \"Hero/utils/LevelDiagram.sol\":1492:1745  gradeCheck == LEGENDARY... */\n      tag_40\n      jumpi\n        /* \"Hero/utils/LevelDiagram.sol\":354:371  keccak256(\"Epic\") */\n      0x6764d804d57285ae9d4c42cc380377d3d0ee9b90ff9eeccaa32d3b2e3e8d7f17\n        /* \"Hero/utils/LevelDiagram.sol\":1556:1566  gradeCheck */\n      dup2\n        /* \"Hero/utils/LevelDiagram.sol\":1556:1574  gradeCheck == EPIC */\n      eq\n        /* \"Hero/utils/LevelDiagram.sol\":1556:1745  gradeCheck == EPIC... */\n      tag_41\n      jumpi\n        /* \"Hero/utils/LevelDiagram.sol\":418:444  keccak256(\"Administrator\") */\n      0xb2c1aaaf9f516585466c9876e2eaf06ee68751aad537b2a6fa22f473d03b58eb\n        /* \"Hero/utils/LevelDiagram.sol\":1615:1625  gradeCheck */\n      dup2\n        /* \"Hero/utils/LevelDiagram.sol\":1615:1642  gradeCheck == ADMINISTRATOR */\n      eq\n        /* \"Hero/utils/LevelDiagram.sol\":1615:1745  gradeCheck == ADMINISTRATOR... */\n      tag_42\n      jumpi\n        /* \"Hero/utils/LevelDiagram.sol\":484:503  keccak256(\"Normal\") */\n      0xb5333297a8bd10e190cb97fb1ee0f49587c8b2e015370e943c69fd680dabc6bd\n        /* \"Hero/utils/LevelDiagram.sol\":1683:1693  gradeCheck */\n      dup2\n        /* \"Hero/utils/LevelDiagram.sol\":1683:1703  gradeCheck == NORMAL */\n      eq\n        /* \"Hero/utils/LevelDiagram.sol\":1683:1745  gradeCheck == NORMAL... */\n      tag_43\n      jumpi\n        /* \"Hero/utils/LevelDiagram.sol\":1744:1745  0 */\n      0x00\n        /* \"Hero/utils/LevelDiagram.sol\":1683:1745  gradeCheck == NORMAL... */\n      jump(tag_44)\n    tag_43:\n        /* \"Hero/utils/LevelDiagram.sol\":1722:1725  200 */\n      0xc8\n        /* \"Hero/utils/LevelDiagram.sol\":1683:1745  gradeCheck == NORMAL... */\n    tag_44:\n        /* \"Hero/utils/LevelDiagram.sol\":1615:1745  gradeCheck == ADMINISTRATOR... */\n      jump(tag_45)\n    tag_42:\n        /* \"Hero/utils/LevelDiagram.sol\":1661:1664  225 */\n      0xe1\n        /* \"Hero/utils/LevelDiagram.sol\":1615:1745  gradeCheck == ADMINISTRATOR... */\n    tag_45:\n        /* \"Hero/utils/LevelDiagram.sol\":1556:1745  gradeCheck == EPIC... */\n      0xff\n      and\n      jump(tag_46)\n    tag_41:\n        /* \"Hero/utils/LevelDiagram.sol\":1593:1596  300 */\n      0x012c\n        /* \"Hero/utils/LevelDiagram.sol\":1556:1745  gradeCheck == EPIC... */\n    tag_46:\n        /* \"Hero/utils/LevelDiagram.sol\":1492:1745  gradeCheck == LEGENDARY... */\n      jump(tag_47)\n    tag_40:\n        /* \"Hero/utils/LevelDiagram.sol\":1534:1537  450 */\n      0x01c2\n        /* \"Hero/utils/LevelDiagram.sol\":1492:1745  gradeCheck == LEGENDARY... */\n    tag_47:\n        /* \"Hero/utils/LevelDiagram.sol\":1460:1745  gradeCheck == MYTHOLOGY ? 675 : gradeCheck == LEGENDARY... */\n      jump(tag_48)\n    tag_39:\n        /* \"Hero/utils/LevelDiagram.sol\":1486:1489  675 */\n      0x02a3\n        /* \"Hero/utils/LevelDiagram.sol\":1460:1745  gradeCheck == MYTHOLOGY ? 675 : gradeCheck == LEGENDARY... */\n    tag_48:\n        /* \"Hero/utils/LevelDiagram.sol\":1439:1755  return (... */\n      0xffff\n      and\n      swap2\n      pop\n      pop\n        /* \"Hero/utils/LevelDiagram.sol\":1241:1762  function calculateBasicGradeAmount(string memory grade)... */\n      swap2\n      swap1\n      pop\n      jump\t// out\n        /* \"Hero/utils/LevelDiagram.sol\":955:1235  function calculateBasicLevelAmount(uint256 level)... */\n    tag_20:\n        /* \"Hero/utils/LevelDiagram.sol\":1069:1076  uint256 */\n      0x00\n        /* \"Hero/utils/LevelDiagram.sol\":1122:1123  1 */\n      0x01\n        /* \"Hero/utils/LevelDiagram.sol\":1113:1118  level */\n      dup3\n        /* \"Hero/utils/LevelDiagram.sol\":1113:1123  level == 1 */\n      eq\n        /* \"Hero/utils/LevelDiagram.sol\":1113:1218  level == 1 ? 15 : level == 2 ? 22 : level == 3 ? 42 : level == 4... */\n      tag_50\n      jumpi\n        /* \"Hero/utils/LevelDiagram.sol\":1140:1141  2 */\n      0x02\n        /* \"Hero/utils/LevelDiagram.sol\":1131:1136  level */\n      dup3\n        /* \"Hero/utils/LevelDiagram.sol\":1131:1141  level == 2 */\n      eq\n        /* \"Hero/utils/LevelDiagram.sol\":1131:1218  level == 2 ? 22 : level == 3 ? 42 : level == 4... */\n      tag_51\n      jumpi\n        /* \"Hero/utils/LevelDiagram.sol\":1158:1159  3 */\n      0x03\n        /* \"Hero/utils/LevelDiagram.sol\":1149:1154  level */\n      dup3\n        /* \"Hero/utils/LevelDiagram.sol\":1149:1159  level == 3 */\n      eq\n        /* \"Hero/utils/LevelDiagram.sol\":1149:1218  level == 3 ? 42 : level == 4... */\n      tag_52\n      jumpi\n        /* \"Hero/utils/LevelDiagram.sol\":1176:1177  4 */\n      0x04\n        /* \"Hero/utils/LevelDiagram.sol\":1167:1172  level */\n      dup3\n        /* \"Hero/utils/LevelDiagram.sol\":1167:1177  level == 4 */\n      eq\n        /* \"Hero/utils/LevelDiagram.sol\":1167:1218  level == 4... */\n      tag_53\n      jumpi\n        /* \"Hero/utils/LevelDiagram.sol\":1217:1218  0 */\n      0x00\n        /* \"Hero/utils/LevelDiagram.sol\":1167:1218  level == 4... */\n      jump(tag_54)\n    tag_53:\n        /* \"Hero/utils/LevelDiagram.sol\":1196:1198  80 */\n      0x50\n        /* \"Hero/utils/LevelDiagram.sol\":1167:1218  level == 4... */\n    tag_54:\n        /* \"Hero/utils/LevelDiagram.sol\":1149:1218  level == 3 ? 42 : level == 4... */\n      jump(tag_55)\n    tag_52:\n        /* \"Hero/utils/LevelDiagram.sol\":1162:1164  42 */\n      0x2a\n        /* \"Hero/utils/LevelDiagram.sol\":1149:1218  level == 3 ? 42 : level == 4... */\n    tag_55:\n        /* \"Hero/utils/LevelDiagram.sol\":1131:1218  level == 2 ? 22 : level == 3 ? 42 : level == 4... */\n      jump(tag_56)\n    tag_51:\n        /* \"Hero/utils/LevelDiagram.sol\":1144:1146  22 */\n      0x16\n        /* \"Hero/utils/LevelDiagram.sol\":1131:1218  level == 2 ? 22 : level == 3 ? 42 : level == 4... */\n    tag_56:\n        /* \"Hero/utils/LevelDiagram.sol\":1113:1218  level == 1 ? 15 : level == 2 ? 22 : level == 3 ? 42 : level == 4... */\n      jump(tag_57)\n    tag_50:\n        /* \"Hero/utils/LevelDiagram.sol\":1126:1128  15 */\n      0x0f\n        /* \"Hero/utils/LevelDiagram.sol\":1113:1218  level == 1 ? 15 : level == 2 ? 22 : level == 3 ? 42 : level == 4... */\n    tag_57:\n        /* \"Hero/utils/LevelDiagram.sol\":1092:1228  return (... */\n      0xff\n      and\n      swap1\n      pop\n        /* \"Hero/utils/LevelDiagram.sol\":955:1235  function calculateBasicLevelAmount(uint256 level)... */\n      swap2\n      swap1\n      pop\n      jump\t// out\n        /* \"Hero/utils/LevelDiagram.sol\":3258:3678  function makeRandomNumberForItem(uint256 _tokenIndex)... */\n    tag_31:\n        /* \"Hero/utils/LevelDiagram.sol\":3376:3383  uint256 */\n      0x00\n        /* \"Hero/utils/LevelDiagram.sol\":3667:3671  1000 */\n      0x03e8\n        /* \"Hero/utils/LevelDiagram.sol\":3516:3531  block.timestamp */\n      timestamp\n        /* \"Hero/utils/LevelDiagram.sol\":3557:3573  block.difficulty */\n      difficulty\n        /* \"Hero/utils/LevelDiagram.sol\":3599:3610  _tokenIndex */\n      dup5\n        /* \"Hero/utils/LevelDiagram.sol\":3474:3632  abi.encodePacked(... */\n      add(0x20, mload(0x40))\n      tag_59\n      swap4\n      swap3\n      swap2\n      swap1\n      tag_60\n      jump\t// in\n    tag_59:\n      mload(0x40)\n      0x20\n      dup2\n      dup4\n      sub\n      sub\n      dup2\n      mstore\n      swap1\n      0x40\n      mstore\n        /* \"Hero/utils/LevelDiagram.sol\":3443:3650  keccak256(... */\n      dup1\n      mload\n      swap1\n      0x20\n      add\n      keccak256\n        /* \"Hero/utils/LevelDiagram.sol\":3418:3664  uint256(... */\n      0x00\n      shr\n        /* \"Hero/utils/LevelDiagram.sol\":3418:3671  uint256(... */\n      tag_61\n      swap2\n      swap1\n      tag_62\n      jump\t// in\n    tag_61:\n        /* \"Hero/utils/LevelDiagram.sol\":3399:3671  return... */\n      swap1\n      pop\n        /* \"Hero/utils/LevelDiagram.sol\":3258:3678  function makeRandomNumberForItem(uint256 _tokenIndex)... */\n      swap2\n      swap1\n      pop\n      jump\t// out\n        /* \"#utility.yul\":7:352   */\n    tag_64:\n        /* \"#utility.yul\":85:90   */\n      0x00\n        /* \"#utility.yul\":110:176   */\n      tag_66\n        /* \"#utility.yul\":126:175   */\n      tag_67\n        /* \"#utility.yul\":168:174   */\n      dup5\n        /* \"#utility.yul\":126:175   */\n      tag_68\n      jump\t// in\n    tag_67:\n        /* \"#utility.yul\":110:176   */\n      tag_69\n      jump\t// in\n    tag_66:\n        /* \"#utility.yul\":101:176   */\n      swap1\n      pop\n        /* \"#utility.yul\":199:205   */\n      dup3\n        /* \"#utility.yul\":192:197   */\n      dup2\n        /* \"#utility.yul\":185:206   */\n      mstore\n        /* \"#utility.yul\":237:241   */\n      0x20\n        /* \"#utility.yul\":230:235   */\n      dup2\n        /* \"#utility.yul\":226:242   */\n      add\n        /* \"#utility.yul\":275:278   */\n      dup5\n        /* \"#utility.yul\":266:272   */\n      dup5\n        /* \"#utility.yul\":261:264   */\n      dup5\n        /* \"#utility.yul\":257:273   */\n      add\n        /* \"#utility.yul\":254:279   */\n      gt\n        /* \"#utility.yul\":251:253   */\n      iszero\n      tag_70\n      jumpi\n        /* \"#utility.yul\":292:293   */\n      0x00\n        /* \"#utility.yul\":289:290   */\n      dup1\n        /* \"#utility.yul\":282:294   */\n      revert\n        /* \"#utility.yul\":251:253   */\n    tag_70:\n        /* \"#utility.yul\":305:346   */\n      tag_71\n        /* \"#utility.yul\":339:345   */\n      dup5\n        /* \"#utility.yul\":334:337   */\n      dup3\n        /* \"#utility.yul\":329:332   */\n      dup6\n        /* \"#utility.yul\":305:346   */\n      tag_72\n      jump\t// in\n    tag_71:\n        /* \"#utility.yul\":91:352   */\n      pop\n      swap4\n      swap3\n      pop\n      pop\n      pop\n      jump\t// out\n        /* \"#utility.yul\":372:645   */\n    tag_73:\n        /* \"#utility.yul\":428:433   */\n      0x00\n        /* \"#utility.yul\":477:480   */\n      dup3\n        /* \"#utility.yul\":470:474   */\n      0x1f\n        /* \"#utility.yul\":462:468   */\n      dup4\n        /* \"#utility.yul\":458:475   */\n      add\n        /* \"#utility.yul\":454:481   */\n      slt\n        /* \"#utility.yul\":444:446   */\n      tag_75\n      jumpi\n        /* \"#utility.yul\":495:496   */\n      0x00\n        /* \"#utility.yul\":492:493   */\n      dup1\n        /* \"#utility.yul\":485:497   */\n      revert\n        /* \"#utility.yul\":444:446   */\n    tag_75:\n        /* \"#utility.yul\":535:541   */\n      dup2\n        /* \"#utility.yul\":522:542   */\n      calldataload\n        /* \"#utility.yul\":560:639   */\n      tag_76\n        /* \"#utility.yul\":635:638   */\n      dup5\n        /* \"#utility.yul\":627:633   */\n      dup3\n        /* \"#utility.yul\":620:624   */\n      0x20\n        /* \"#utility.yul\":612:618   */\n      dup7\n        /* \"#utility.yul\":608:625   */\n      add\n        /* \"#utility.yul\":560:639   */\n      tag_64\n      jump\t// in\n    tag_76:\n        /* \"#utility.yul\":551:639   */\n      swap2\n      pop\n        /* \"#utility.yul\":434:645   */\n      pop\n      swap3\n      swap2\n      pop\n      pop\n      jump\t// out\n        /* \"#utility.yul\":651:790   */\n    tag_77:\n        /* \"#utility.yul\":697:702   */\n      0x00\n        /* \"#utility.yul\":735:741   */\n      dup2\n        /* \"#utility.yul\":722:742   */\n      calldataload\n        /* \"#utility.yul\":713:742   */\n      swap1\n      pop\n        /* \"#utility.yul\":751:784   */\n      tag_79\n        /* \"#utility.yul\":778:783   */\n      dup2\n        /* \"#utility.yul\":751:784   */\n      tag_80\n      jump\t// in\n    tag_79:\n        /* \"#utility.yul\":703:790   */\n      swap3\n      swap2\n      pop\n      pop\n      jump\t// out\n        /* \"#utility.yul\":796:1316   */\n    tag_7:\n        /* \"#utility.yul\":874:880   */\n      0x00\n        /* \"#utility.yul\":882:888   */\n      dup1\n        /* \"#utility.yul\":931:933   */\n      0x40\n        /* \"#utility.yul\":919:928   */\n      dup4\n        /* \"#utility.yul\":910:917   */\n      dup6\n        /* \"#utility.yul\":906:929   */\n      sub\n        /* \"#utility.yul\":902:934   */\n      slt\n        /* \"#utility.yul\":899:901   */\n      iszero\n      tag_82\n      jumpi\n        /* \"#utility.yul\":947:948   */\n      0x00\n        /* \"#utility.yul\":944:945   */\n      dup1\n        /* \"#utility.yul\":937:949   */\n      revert\n        /* \"#utility.yul\":899:901   */\n    tag_82:\n        /* \"#utility.yul\":1018:1019   */\n      0x00\n        /* \"#utility.yul\":1007:1016   */\n      dup4\n        /* \"#utility.yul\":1003:1020   */\n      add\n        /* \"#utility.yul\":990:1021   */\n      calldataload\n        /* \"#utility.yul\":1048:1066   */\n      0xffffffffffffffff\n        /* \"#utility.yul\":1040:1046   */\n      dup2\n        /* \"#utility.yul\":1037:1067   */\n      gt\n        /* \"#utility.yul\":1034:1036   */\n      iszero\n      tag_83\n      jumpi\n        /* \"#utility.yul\":1080:1081   */\n      0x00\n        /* \"#utility.yul\":1077:1078   */\n      dup1\n        /* \"#utility.yul\":1070:1082   */\n      revert\n        /* \"#utility.yul\":1034:1036   */\n    tag_83:\n        /* \"#utility.yul\":1108:1171   */\n      tag_84\n        /* \"#utility.yul\":1163:1170   */\n      dup6\n        /* \"#utility.yul\":1154:1160   */\n      dup3\n        /* \"#utility.yul\":1143:1152   */\n      dup7\n        /* \"#utility.yul\":1139:1161   */\n      add\n        /* \"#utility.yul\":1108:1171   */\n      tag_73\n      jump\t// in\n    tag_84:\n        /* \"#utility.yul\":1098:1171   */\n      swap3\n      pop\n        /* \"#utility.yul\":961:1181   */\n      pop\n        /* \"#utility.yul\":1220:1222   */\n      0x20\n        /* \"#utility.yul\":1246:1299   */\n      tag_85\n        /* \"#utility.yul\":1291:1298   */\n      dup6\n        /* \"#utility.yul\":1282:1288   */\n      dup3\n        /* \"#utility.yul\":1271:1280   */\n      dup7\n        /* \"#utility.yul\":1267:1289   */\n      add\n        /* \"#utility.yul\":1246:1299   */\n      tag_77\n      jump\t// in\n    tag_85:\n        /* \"#utility.yul\":1236:1299   */\n      swap2\n      pop\n        /* \"#utility.yul\":1191:1309   */\n      pop\n        /* \"#utility.yul\":889:1316   */\n      swap3\n      pop\n      swap3\n      swap1\n      pop\n      jump\t// out\n        /* \"#utility.yul\":1322:1584   */\n    tag_13:\n        /* \"#utility.yul\":1381:1387   */\n      0x00\n        /* \"#utility.yul\":1430:1432   */\n      0x20\n        /* \"#utility.yul\":1418:1427   */\n      dup3\n        /* \"#utility.yul\":1409:1416   */\n      dup5\n        /* \"#utility.yul\":1405:1428   */\n      sub\n        /* \"#utility.yul\":1401:1433   */\n      slt\n        /* \"#utility.yul\":1398:1400   */\n      iszero\n      tag_87\n      jumpi\n        /* \"#utility.yul\":1446:1447   */\n      0x00\n        /* \"#utility.yul\":1443:1444   */\n      dup1\n        /* \"#utility.yul\":1436:1448   */\n      revert\n        /* \"#utility.yul\":1398:1400   */\n    tag_87:\n        /* \"#utility.yul\":1489:1490   */\n      0x00\n        /* \"#utility.yul\":1514:1567   */\n      tag_88\n        /* \"#utility.yul\":1559:1566   */\n      dup5\n        /* \"#utility.yul\":1550:1556   */\n      dup3\n        /* \"#utility.yul\":1539:1548   */\n      dup6\n        /* \"#utility.yul\":1535:1557   */\n      add\n        /* \"#utility.yul\":1514:1567   */\n      tag_77\n      jump\t// in\n    tag_88:\n        /* \"#utility.yul\":1504:1567   */\n      swap2\n      pop\n        /* \"#utility.yul\":1460:1577   */\n      pop\n        /* \"#utility.yul\":1388:1584   */\n      swap3\n      swap2\n      pop\n      pop\n      jump\t// out\n        /* \"#utility.yul\":1590:1708   */\n    tag_89:\n        /* \"#utility.yul\":1677:1701   */\n      tag_91\n        /* \"#utility.yul\":1695:1700   */\n      dup2\n        /* \"#utility.yul\":1677:1701   */\n      tag_92\n      jump\t// in\n    tag_91:\n        /* \"#utility.yul\":1672:1675   */\n      dup3\n        /* \"#utility.yul\":1665:1702   */\n      mstore\n        /* \"#utility.yul\":1655:1708   */\n      pop\n      pop\n      jump\t// out\n        /* \"#utility.yul\":1714:1871   */\n    tag_93:\n        /* \"#utility.yul\":1819:1864   */\n      tag_95\n        /* \"#utility.yul\":1839:1863   */\n      tag_96\n        /* \"#utility.yul\":1857:1862   */\n      dup3\n        /* \"#utility.yul\":1839:1863   */\n      tag_92\n      jump\t// in\n    tag_96:\n        /* \"#utility.yul\":1819:1864   */\n      tag_97\n      jump\t// in\n    tag_95:\n        /* \"#utility.yul\":1814:1817   */\n      dup3\n        /* \"#utility.yul\":1807:1865   */\n      mstore\n        /* \"#utility.yul\":1797:1871   */\n      pop\n      pop\n      jump\t// out\n        /* \"#utility.yul\":1877:2415   */\n    tag_60:\n        /* \"#utility.yul\":2045:2048   */\n      0x00\n        /* \"#utility.yul\":2060:2135   */\n      tag_99\n        /* \"#utility.yul\":2131:2134   */\n      dup3\n        /* \"#utility.yul\":2122:2128   */\n      dup7\n        /* \"#utility.yul\":2060:2135   */\n      tag_93\n      jump\t// in\n    tag_99:\n        /* \"#utility.yul\":2160:2162   */\n      0x20\n        /* \"#utility.yul\":2155:2158   */\n      dup3\n        /* \"#utility.yul\":2151:2163   */\n      add\n        /* \"#utility.yul\":2144:2163   */\n      swap2\n      pop\n        /* \"#utility.yul\":2173:2248   */\n      tag_100\n        /* \"#utility.yul\":2244:2247   */\n      dup3\n        /* \"#utility.yul\":2235:2241   */\n      dup6\n        /* \"#utility.yul\":2173:2248   */\n      tag_93\n      jump\t// in\n    tag_100:\n        /* \"#utility.yul\":2273:2275   */\n      0x20\n        /* \"#utility.yul\":2268:2271   */\n      dup3\n        /* \"#utility.yul\":2264:2276   */\n      add\n        /* \"#utility.yul\":2257:2276   */\n      swap2\n      pop\n        /* \"#utility.yul\":2286:2361   */\n      tag_101\n        /* \"#utility.yul\":2357:2360   */\n      dup3\n        /* \"#utility.yul\":2348:2354   */\n      dup5\n        /* \"#utility.yul\":2286:2361   */\n      tag_93\n      jump\t// in\n    tag_101:\n        /* \"#utility.yul\":2386:2388   */\n      0x20\n        /* \"#utility.yul\":2381:2384   */\n      dup3\n        /* \"#utility.yul\":2377:2389   */\n      add\n        /* \"#utility.yul\":2370:2389   */\n      swap2\n      pop\n        /* \"#utility.yul\":2406:2409   */\n      dup2\n        /* \"#utility.yul\":2399:2409   */\n      swap1\n      pop\n        /* \"#utility.yul\":2049:2415   */\n      swap5\n      swap4\n      pop\n      pop\n      pop\n      pop\n      jump\t// out\n        /* \"#utility.yul\":2421:2643   */\n    tag_10:\n        /* \"#utility.yul\":2514:2518   */\n      0x00\n        /* \"#utility.yul\":2552:2554   */\n      0x20\n        /* \"#utility.yul\":2541:2550   */\n      dup3\n        /* \"#utility.yul\":2537:2555   */\n      add\n        /* \"#utility.yul\":2529:2555   */\n      swap1\n      pop\n        /* \"#utility.yul\":2565:2636   */\n      tag_103\n        /* \"#utility.yul\":2633:2634   */\n      0x00\n        /* \"#utility.yul\":2622:2631   */\n      dup4\n        /* \"#utility.yul\":2618:2635   */\n      add\n        /* \"#utility.yul\":2609:2615   */\n      dup5\n        /* \"#utility.yul\":2565:2636   */\n      tag_89\n      jump\t// in\n    tag_103:\n        /* \"#utility.yul\":2519:2643   */\n      swap3\n      swap2\n      pop\n      pop\n      jump\t// out\n        /* \"#utility.yul\":2649:2778   */\n    tag_69:\n        /* \"#utility.yul\":2683:2689   */\n      0x00\n        /* \"#utility.yul\":2710:2730   */\n      tag_105\n      tag_106\n      jump\t// in\n    tag_105:\n        /* \"#utility.yul\":2700:2730   */\n      swap1\n      pop\n        /* \"#utility.yul\":2739:2772   */\n      tag_107\n        /* \"#utility.yul\":2767:2771   */\n      dup3\n        /* \"#utility.yul\":2759:2765   */\n      dup3\n        /* \"#utility.yul\":2739:2772   */\n      tag_108\n      jump\t// in\n    tag_107:\n        /* \"#utility.yul\":2690:2778   */\n      swap2\n      swap1\n      pop\n      jump\t// out\n        /* \"#utility.yul\":2784:2859   */\n    tag_106:\n        /* \"#utility.yul\":2817:2823   */\n      0x00\n        /* \"#utility.yul\":2850:2852   */\n      0x40\n        /* \"#utility.yul\":2844:2853   */\n      mload\n        /* \"#utility.yul\":2834:2853   */\n      swap1\n      pop\n        /* \"#utility.yul\":2824:2859   */\n      swap1\n      jump\t// out\n        /* \"#utility.yul\":2865:3173   */\n    tag_68:\n        /* \"#utility.yul\":2927:2931   */\n      0x00\n        /* \"#utility.yul\":3017:3035   */\n      0xffffffffffffffff\n        /* \"#utility.yul\":3009:3015   */\n      dup3\n        /* \"#utility.yul\":3006:3036   */\n      gt\n        /* \"#utility.yul\":3003:3005   */\n      iszero\n      tag_111\n      jumpi\n        /* \"#utility.yul\":3039:3057   */\n      tag_112\n      tag_113\n      jump\t// in\n    tag_112:\n        /* \"#utility.yul\":3003:3005   */\n    tag_111:\n        /* \"#utility.yul\":3077:3106   */\n      tag_114\n        /* \"#utility.yul\":3099:3105   */\n      dup3\n        /* \"#utility.yul\":3077:3106   */\n      tag_115\n      jump\t// in\n    tag_114:\n        /* \"#utility.yul\":3069:3106   */\n      swap1\n      pop\n        /* \"#utility.yul\":3161:3165   */\n      0x20\n        /* \"#utility.yul\":3155:3159   */\n      dup2\n        /* \"#utility.yul\":3151:3166   */\n      add\n        /* \"#utility.yul\":3143:3166   */\n      swap1\n      pop\n        /* \"#utility.yul\":2932:3173   */\n      swap2\n      swap1\n      pop\n      jump\t// out\n        /* \"#utility.yul\":3179:3364   */\n    tag_24:\n        /* \"#utility.yul\":3219:3220   */\n      0x00\n        /* \"#utility.yul\":3236:3256   */\n      tag_117\n        /* \"#utility.yul\":3254:3255   */\n      dup3\n        /* \"#utility.yul\":3236:3256   */\n      tag_92\n      jump\t// in\n    tag_117:\n        /* \"#utility.yul\":3231:3256   */\n      swap2\n      pop\n        /* \"#utility.yul\":3270:3290   */\n      tag_118\n        /* \"#utility.yul\":3288:3289   */\n      dup4\n        /* \"#utility.yul\":3270:3290   */\n      tag_92\n      jump\t// in\n    tag_118:\n        /* \"#utility.yul\":3265:3290   */\n      swap3\n      pop\n        /* \"#utility.yul\":3309:3310   */\n      dup3\n        /* \"#utility.yul\":3299:3301   */\n      tag_119\n      jumpi\n        /* \"#utility.yul\":3314:3332   */\n      tag_120\n      tag_121\n      jump\t// in\n    tag_120:\n        /* \"#utility.yul\":3299:3301   */\n    tag_119:\n        /* \"#utility.yul\":3356:3357   */\n      dup3\n        /* \"#utility.yul\":3353:3354   */\n      dup3\n        /* \"#utility.yul\":3349:3358   */\n      div\n        /* \"#utility.yul\":3344:3358   */\n      swap1\n      pop\n        /* \"#utility.yul\":3221:3364   */\n      swap3\n      swap2\n      pop\n      pop\n      jump\t// out\n        /* \"#utility.yul\":3370:3718   */\n    tag_22:\n        /* \"#utility.yul\":3410:3417   */\n      0x00\n        /* \"#utility.yul\":3433:3453   */\n      tag_123\n        /* \"#utility.yul\":3451:3452   */\n      dup3\n        /* \"#utility.yul\":3433:3453   */\n      tag_92\n      jump\t// in\n    tag_123:\n        /* \"#utility.yul\":3428:3453   */\n      swap2\n      pop\n        /* \"#utility.yul\":3467:3487   */\n      tag_124\n        /* \"#utility.yul\":3485:3486   */\n      dup4\n        /* \"#utility.yul\":3467:3487   */\n      tag_92\n      jump\t// in\n    tag_124:\n        /* \"#utility.yul\":3462:3487   */\n      swap3\n      pop\n        /* \"#utility.yul\":3655:3656   */\n      dup2\n        /* \"#utility.yul\":3587:3653   */\n      0xffffffffffffffffffffffffffffffffffffffffffffffffffffffffffffffff\n        /* \"#utility.yul\":3583:3657   */\n      div\n        /* \"#utility.yul\":3580:3581   */\n      dup4\n        /* \"#utility.yul\":3577:3658   */\n      gt\n        /* \"#utility.yul\":3572:3573   */\n      dup3\n        /* \"#utility.yul\":3565:3574   */\n      iszero\n        /* \"#utility.yul\":3558:3575   */\n      iszero\n        /* \"#utility.yul\":3554:3659   */\n      and\n        /* \"#utility.yul\":3551:3553   */\n      iszero\n      tag_125\n      jumpi\n        /* \"#utility.yul\":3662:3680   */\n      tag_126\n      tag_127\n      jump\t// in\n    tag_126:\n        /* \"#utility.yul\":3551:3553   */\n    tag_125:\n        /* \"#utility.yul\":3710:3711   */\n      dup3\n        /* \"#utility.yul\":3707:3708   */\n      dup3\n        /* \"#utility.yul\":3703:3712   */\n      mul\n        /* \"#utility.yul\":3692:3712   */\n      swap1\n      pop\n        /* \"#utility.yul\":3418:3718   */\n      swap3\n      swap2\n      pop\n      pop\n      jump\t// out\n        /* \"#utility.yul\":3724:3915   */\n    tag_34:\n        /* \"#utility.yul\":3764:3768   */\n      0x00\n        /* \"#utility.yul\":3784:3804   */\n      tag_129\n        /* \"#utility.yul\":3802:3803   */\n      dup3\n        /* \"#utility.yul\":3784:3804   */\n      tag_92\n      jump\t// in\n    tag_129:\n        /* \"#utility.yul\":3779:3804   */\n      swap2\n      pop\n        /* \"#utility.yul\":3818:3838   */\n      tag_130\n        /* \"#utility.yul\":3836:3837   */\n      dup4\n        /* \"#utility.yul\":3818:3838   */\n      tag_92\n      jump\t// in\n    tag_130:\n        /* \"#utility.yul\":3813:3838   */\n      swap3\n      pop\n        /* \"#utility.yul\":3857:3858   */\n      dup3\n        /* \"#utility.yul\":3854:3855   */\n      dup3\n        /* \"#utility.yul\":3851:3859   */\n      lt\n        /* \"#utility.yul\":3848:3850   */\n      iszero\n      tag_131\n      jumpi\n        /* \"#utility.yul\":3862:3880   */\n      tag_132\n      tag_127\n      jump\t// in\n    tag_132:\n        /* \"#utility.yul\":3848:3850   */\n    tag_131:\n        /* \"#utility.yul\":3907:3908   */\n      dup3\n        /* \"#utility.yul\":3904:3905   */\n      dup3\n        /* \"#utility.yul\":3900:3909   */\n      sub\n        /* \"#utility.yul\":3892:3909   */\n      swap1\n      pop\n        /* \"#utility.yul\":3769:3915   */\n      swap3\n      swap2\n      pop\n      pop\n      jump\t// out\n        /* \"#utility.yul\":3921:3998   */\n    tag_92:\n        /* \"#utility.yul\":3958:3965   */\n      0x00\n        /* \"#utility.yul\":3987:3992   */\n      dup2\n        /* \"#utility.yul\":3976:3992   */\n      swap1\n      pop\n        /* \"#utility.yul\":3966:3998   */\n      swap2\n      swap1\n      pop\n      jump\t// out\n        /* \"#utility.yul\":4004:4158   */\n    tag_72:\n        /* \"#utility.yul\":4088:4094   */\n      dup3\n        /* \"#utility.yul\":4083:4086   */\n      dup2\n        /* \"#utility.yul\":4078:4081   */\n      dup4\n        /* \"#utility.yul\":4065:4095   */\n      calldatacopy\n        /* \"#utility.yul\":4150:4151   */\n      0x00\n        /* \"#utility.yul\":4141:4147   */\n      dup4\n        /* \"#utility.yul\":4136:4139   */\n      dup4\n        /* \"#utility.yul\":4132:4148   */\n      add\n        /* \"#utility.yul\":4125:4152   */\n      mstore\n        /* \"#utility.yul\":4055:4158   */\n      pop\n      pop\n      pop\n      jump\t// out\n        /* \"#utility.yul\":4164:4445   */\n    tag_108:\n        /* \"#utility.yul\":4247:4274   */\n      tag_136\n        /* \"#utility.yul\":4269:4273   */\n      dup3\n        /* \"#utility.yul\":4247:4274   */\n      tag_115\n      jump\t// in\n    tag_136:\n        /* \"#utility.yul\":4239:4245   */\n      dup2\n        /* \"#utility.yul\":4235:4275   */\n      add\n        /* \"#utility.yul\":4377:4383   */\n      dup2\n        /* \"#utility.yul\":4365:4375   */\n      dup2\n        /* \"#utility.yul\":4362:4384   */\n      lt\n        /* \"#utility.yul\":4341:4359   */\n      0xffffffffffffffff\n        /* \"#utility.yul\":4329:4339   */\n      dup3\n        /* \"#utility.yul\":4326:4360   */\n      gt\n        /* \"#utility.yul\":4323:4385   */\n      or\n        /* \"#utility.yul\":4320:4322   */\n      iszero\n      tag_137\n      jumpi\n        /* \"#utility.yul\":4388:4406   */\n      tag_138\n      tag_113\n      jump\t// in\n    tag_138:\n        /* \"#utility.yul\":4320:4322   */\n    tag_137:\n        /* \"#utility.yul\":4428:4438   */\n      dup1\n        /* \"#utility.yul\":4424:4426   */\n      0x40\n        /* \"#utility.yul\":4417:4439   */\n      mstore\n        /* \"#utility.yul\":4207:4445   */\n      pop\n      pop\n      pop\n      jump\t// out\n        /* \"#utility.yul\":4451:4684   */\n    tag_37:\n        /* \"#utility.yul\":4490:4493   */\n      0x00\n        /* \"#utility.yul\":4513:4537   */\n      tag_140\n        /* \"#utility.yul\":4531:4536   */\n      dup3\n        /* \"#utility.yul\":4513:4537   */\n      tag_92\n      jump\t// in\n    tag_140:\n        /* \"#utility.yul\":4504:4537   */\n      swap2\n      pop\n        /* \"#utility.yul\":4559:4625   */\n      0xffffffffffffffffffffffffffffffffffffffffffffffffffffffffffffffff\n        /* \"#utility.yul\":4552:4557   */\n      dup3\n        /* \"#utility.yul\":4549:4626   */\n      eq\n        /* \"#utility.yul\":4546:4548   */\n      iszero\n      tag_141\n      jumpi\n        /* \"#utility.yul\":4629:4647   */\n      tag_142\n      tag_127\n      jump\t// in\n    tag_142:\n        /* \"#utility.yul\":4546:4548   */\n    tag_141:\n        /* \"#utility.yul\":4676:4677   */\n      0x01\n        /* \"#utility.yul\":4669:4674   */\n      dup3\n        /* \"#utility.yul\":4665:4678   */\n      add\n        /* \"#utility.yul\":4658:4678   */\n      swap1\n      pop\n        /* \"#utility.yul\":4494:4684   */\n      swap2\n      swap1\n      pop\n      jump\t// out\n        /* \"#utility.yul\":4690:4769   */\n    tag_97:\n        /* \"#utility.yul\":4729:4736   */\n      0x00\n        /* \"#utility.yul\":4758:4763   */\n      dup2\n        /* \"#utility.yul\":4747:4763   */\n      swap1\n      pop\n        /* \"#utility.yul\":4737:4769   */\n      swap2\n      swap1\n      pop\n      jump\t// out\n        /* \"#utility.yul\":4775:4951   */\n    tag_62:\n        /* \"#utility.yul\":4807:4808   */\n      0x00\n        /* \"#utility.yul\":4824:4844   */\n      tag_145\n        /* \"#utility.yul\":4842:4843   */\n      dup3\n        /* \"#utility.yul\":4824:4844   */\n      tag_92\n      jump\t// in\n    tag_145:\n        /* \"#utility.yul\":4819:4844   */\n      swap2\n      pop\n        /* \"#utility.yul\":4858:4878   */\n      tag_146\n        /* \"#utility.yul\":4876:4877   */\n      dup4\n        /* \"#utility.yul\":4858:4878   */\n      tag_92\n      jump\t// in\n    tag_146:\n        /* \"#utility.yul\":4853:4878   */\n      swap3\n      pop\n        /* \"#utility.yul\":4897:4898   */\n      dup3\n        /* \"#utility.yul\":4887:4889   */\n      tag_147\n      jumpi\n        /* \"#utility.yul\":4902:4920   */\n      tag_148\n      tag_121\n      jump\t// in\n    tag_148:\n        /* \"#utility.yul\":4887:4889   */\n    tag_147:\n        /* \"#utility.yul\":4943:4944   */\n      dup3\n        /* \"#utility.yul\":4940:4941   */\n      dup3\n        /* \"#utility.yul\":4936:4945   */\n      mod\n        /* \"#utility.yul\":4931:4945   */\n      swap1\n      pop\n        /* \"#utility.yul\":4809:4951   */\n      swap3\n      swap2\n      pop\n      pop\n      jump\t// out\n        /* \"#utility.yul\":4957:5137   */\n    tag_127:\n        /* \"#utility.yul\":5005:5082   */\n      0x4e487b7100000000000000000000000000000000000000000000000000000000\n        /* \"#utility.yul\":5002:5003   */\n      0x00\n        /* \"#utility.yul\":4995:5083   */\n      mstore\n        /* \"#utility.yul\":5102:5106   */\n      0x11\n        /* \"#utility.yul\":5099:5100   */\n      0x04\n        /* \"#utility.yul\":5092:5107   */\n      mstore\n        /* \"#utility.yul\":5126:5130   */\n      0x24\n        /* \"#utility.yul\":5123:5124   */\n      0x00\n        /* \"#utility.yul\":5116:5131   */\n      revert\n        /* \"#utility.yul\":5143:5323   */\n    tag_121:\n        /* \"#utility.yul\":5191:5268   */\n      0x4e487b7100000000000000000000000000000000000000000000000000000000\n        /* \"#utility.yul\":5188:5189   */\n      0x00\n        /* \"#utility.yul\":5181:5269   */\n      mstore\n        /* \"#utility.yul\":5288:5292   */\n      0x12\n        /* \"#utility.yul\":5285:5286   */\n      0x04\n        /* \"#utility.yul\":5278:5293   */\n      mstore\n        /* \"#utility.yul\":5312:5316   */\n      0x24\n        /* \"#utility.yul\":5309:5310   */\n      0x00\n        /* \"#utility.yul\":5302:5317   */\n      revert\n        /* \"#utility.yul\":5329:5509   */\n    tag_113:\n        /* \"#utility.yul\":5377:5454   */\n      0x4e487b7100000000000000000000000000000000000000000000000000000000\n        /* \"#utility.yul\":5374:5375   */\n      0x00\n        /* \"#utility.yul\":5367:5455   */\n      mstore\n        /* \"#utility.yul\":5474:5478   */\n      0x41\n        /* \"#utility.yul\":5471:5472   */\n      0x04\n        /* \"#utility.yul\":5464:5479   */\n      mstore\n        /* \"#utility.yul\":5498:5502   */\n      0x24\n        /* \"#utility.yul\":5495:5496   */\n      0x00\n        /* \"#utility.yul\":5488:5503   */\n      revert\n        /* \"#utility.yul\":5515:5617   */\n    tag_115:\n        /* \"#utility.yul\":5556:5562   */\n      0x00\n        /* \"#utility.yul\":5607:5609   */\n      0x1f\n        /* \"#utility.yul\":5603:5610   */\n      not\n        /* \"#utility.yul\":5598:5600   */\n      0x1f\n        /* \"#utility.yul\":5591:5596   */\n      dup4\n        /* \"#utility.yul\":5587:5601   */\n      add\n        /* \"#utility.yul\":5583:5611   */\n      and\n        /* \"#utility.yul\":5573:5611   */\n      swap1\n      pop\n        /* \"#utility.yul\":5563:5617   */\n      swap2\n      swap1\n      pop\n      jump\t// out\n        /* \"#utility.yul\":5623:5745   */\n    tag_80:\n        /* \"#utility.yul\":5696:5720   */\n      tag_154\n        /* \"#utility.yul\":5714:5719   */\n      dup2\n        /* \"#utility.yul\":5696:5720   */\n      tag_92\n      jump\t// in\n    tag_154:\n        /* \"#utility.yul\":5689:5694   */\n      dup2\n        /* \"#utility.yul\":5686:5721   */\n      eq\n        /* \"#utility.yul\":5676:5678   */\n      tag_155\n      jumpi\n        /* \"#utility.yul\":5735:5736   */\n      0x00\n        /* \"#utility.yul\":5732:5733   */\n      dup1\n        /* \"#utility.yul\":5725:5737   */\n      revert\n        /* \"#utility.yul\":5676:5678   */\n    tag_155:\n        /* \"#utility.yul\":5666:5745   */\n      pop\n      jump\t// out\n\n    auxdata: 0xa264697066735822122049256bf8c3aecc43e6eab047f799a48f2d52c70b6eb55303c01018cd5479192564736f6c63430008040033\n}\n",
				"bytecode": {
					"linkReferences": {},
					"object": "608060405234801561001057600080fd5b5060405161083d38038061083d8339818101604052810190610032919061008d565b806000806101000a81548173ffffffffffffffffffffffffffffffffffffffff021916908373ffffffffffffffffffffffffffffffffffffffff160217905550506100ff565b600081519050610087816100e8565b92915050565b60006020828403121561009f57600080fd5b60006100ad84828501610078565b91505092915050565b60006100c1826100c8565b9050919050565b600073ffffffffffffffffffffffffffffffffffffffff82169050919050565b6100f1816100b6565b81146100fc57600080fd5b50565b61072f8061010e6000396000f3fe608060405234801561001057600080fd5b50600436106100365760003560e01c8063aa93c0ee1461003b578063b79d5db41461006b575b600080fd5b61005560048036038101906100509190610366565b61009b565b6040516100629190610446565b60405180910390f35b610085600480360381019061008091906103ba565b6100eb565b6040516100929190610446565b60405180910390f35b6000806100a78461014b565b905060006100b484610257565b9050670de0b6b3a7640000600a82846100cd91906104e8565b6100d791906104b7565b6100e191906104e8565b9250505092915050565b600080600190505b60058111610140576000610106826102a5565b905080841061012257808461011b9190610542565b935061012c565b8192505050610146565b508080610138906105c0565b9150506100f3565b50600090505b919050565b600080828051906020012090507f8c57226533ec41d2857120df9ace6dff88130d9b32385e09c9828f75027730f38114610247577f181ebe3a8fa130246d49bfd123ac54849b05bdcd02c6b1322c78de2a3988a310811461023e577f6764d804d57285ae9d4c42cc380377d3d0ee9b90ff9eeccaa32d3b2e3e8d7f178114610235577fb2c1aaaf9f516585466c9876e2eaf06ee68751aad537b2a6fa22f473d03b58eb811461022a577fb5333297a8bd10e190cb97fb1ee0f49587c8b2e015370e943c69fd680dabc6bd8114610222576000610225565b60c85b61022d565b60e15b60ff16610239565b61012c5b610242565b6101c25b61024b565b6102a35b61ffff16915050919050565b600060018214610298576002821461029057600382146102885760048214610280576000610283565b60505b61028b565b602a5b610293565b60165b61029b565b600f5b60ff169050919050565b60006103e84244846040516020016102bf93929190610409565b6040516020818303038152906040528051906020012060001c6102e29190610613565b9050919050565b60006102fc6102f784610486565b610461565b90508281526020810184848401111561031457600080fd5b61031f848285610580565b509392505050565b600082601f83011261033857600080fd5b81356103488482602086016102e9565b91505092915050565b600081359050610360816106e2565b92915050565b6000806040838503121561037957600080fd5b600083013567ffffffffffffffff81111561039357600080fd5b61039f85828601610327565b92505060206103b085828601610351565b9150509250929050565b6000602082840312156103cc57600080fd5b60006103da84828501610351565b91505092915050565b6103ec81610576565b82525050565b6104036103fe82610576565b610609565b82525050565b600061041582866103f2565b60208201915061042582856103f2565b60208201915061043582846103f2565b602082019150819050949350505050565b600060208201905061045b60008301846103e3565b92915050565b600061046b61047c565b9050610477828261058f565b919050565b6000604051905090565b600067ffffffffffffffff8211156104a1576104a06106a2565b5b6104aa826106d1565b9050602081019050919050565b60006104c282610576565b91506104cd83610576565b9250826104dd576104dc610673565b5b828204905092915050565b60006104f382610576565b91506104fe83610576565b9250817fffffffffffffffffffffffffffffffffffffffffffffffffffffffffffffffff048311821515161561053757610536610644565b5b828202905092915050565b600061054d82610576565b915061055883610576565b92508282101561056b5761056a610644565b5b828203905092915050565b6000819050919050565b82818337600083830152505050565b610598826106d1565b810181811067ffffffffffffffff821117156105b7576105b66106a2565b5b80604052505050565b60006105cb82610576565b91507fffffffffffffffffffffffffffffffffffffffffffffffffffffffffffffffff8214156105fe576105fd610644565b5b600182019050919050565b6000819050919050565b600061061e82610576565b915061062983610576565b92508261063957610638610673565b5b828206905092915050565b7f4e487b7100000000000000000000000000000000000000000000000000000000600052601160045260246000fd5b7f4e487b7100000000000000000000000000000000000000000000000000000000600052601260045260246000fd5b7f4e487b7100000000000000000000000000000000000000000000000000000000600052604160045260246000fd5b6000601f19601f8301169050919050565b6106eb81610576565b81146106f657600080fd5b5056fea264697066735822122049256bf8c3aecc43e6eab047f799a48f2d52c70b6eb55303c01018cd5479192564736f6c63430008040033",
					"opcodes": "PUSH1 0x80 PUSH1 0x40 MSTORE CALLVALUE DUP1 ISZERO PUSH2 0x10 JUMPI PUSH1 0x0 DUP1 REVERT JUMPDEST POP PUSH1 0x40 MLOAD PUSH2 0x83D CODESIZE SUB DUP1 PUSH2 0x83D DUP4 CODECOPY DUP2 DUP2 ADD PUSH1 0x40 MSTORE DUP2 ADD SWAP1 PUSH2 0x32 SWAP2 SWAP1 PUSH2 0x8D JUMP JUMPDEST DUP1 PUSH1 0x0 DUP1 PUSH2 0x100 EXP DUP2 SLOAD DUP2 PUSH20 0xFFFFFFFFFFFFFFFFFFFFFFFFFFFFFFFFFFFFFFFF MUL NOT AND SWAP1 DUP4 PUSH20 0xFFFFFFFFFFFFFFFFFFFFFFFFFFFFFFFFFFFFFFFF AND MUL OR SWAP1 SSTORE POP POP PUSH2 0xFF JUMP JUMPDEST PUSH1 0x0 DUP2 MLOAD SWAP1 POP PUSH2 0x87 DUP2 PUSH2 0xE8 JUMP JUMPDEST SWAP3 SWAP2 POP POP JUMP JUMPDEST PUSH1 0x0 PUSH1 0x20 DUP3 DUP5 SUB SLT ISZERO PUSH2 0x9F JUMPI PUSH1 0x0 DUP1 REVERT JUMPDEST PUSH1 0x0 PUSH2 0xAD DUP5 DUP3 DUP6 ADD PUSH2 0x78 JUMP JUMPDEST SWAP2 POP POP SWAP3 SWAP2 POP POP JUMP JUMPDEST PUSH1 0x0 PUSH2 0xC1 DUP3 PUSH2 0xC8 JUMP JUMPDEST SWAP1 POP SWAP2 SWAP1 POP JUMP JUMPDEST PUSH1 0x0 PUSH20 0xFFFFFFFFFFFFFFFFFFFFFFFFFFFFFFFFFFFFFFFF DUP3 AND SWAP1 POP SWAP2 SWAP1 POP JUMP JUMPDEST PUSH2 0xF1 DUP2 PUSH2 0xB6 JUMP JUMPDEST DUP2 EQ PUSH2 0xFC JUMPI PUSH1 0x0 DUP1 REVERT JUMPDEST POP JUMP JUMPDEST PUSH2 0x72F DUP1 PUSH2 0x10E PUSH1 0x0 CODECOPY PUSH1 0x0 RETURN INVALID PUSH1 0x80 PUSH1 0x40 MSTORE CALLVALUE DUP1 ISZERO PUSH2 0x10 JUMPI PUSH1 0x0 DUP1 REVERT JUMPDEST POP PUSH1 0x4 CALLDATASIZE LT PUSH2 0x36 JUMPI PUSH1 0x0 CALLDATALOAD PUSH1 0xE0 SHR DUP1 PUSH4 0xAA93C0EE EQ PUSH2 0x3B JUMPI DUP1 PUSH4 0xB79D5DB4 EQ PUSH2 0x6B JUMPI JUMPDEST PUSH1 0x0 DUP1 REVERT JUMPDEST PUSH2 0x55 PUSH1 0x4 DUP1 CALLDATASIZE SUB DUP2 ADD SWAP1 PUSH2 0x50 SWAP2 SWAP1 PUSH2 0x366 JUMP JUMPDEST PUSH2 0x9B JUMP JUMPDEST PUSH1 0x40 MLOAD PUSH2 0x62 SWAP2 SWAP1 PUSH2 0x446 JUMP JUMPDEST PUSH1 0x40 MLOAD DUP1 SWAP2 SUB SWAP1 RETURN JUMPDEST PUSH2 0x85 PUSH1 0x4 DUP1 CALLDATASIZE SUB DUP2 ADD SWAP1 PUSH2 0x80 SWAP2 SWAP1 PUSH2 0x3BA JUMP JUMPDEST PUSH2 0xEB JUMP JUMPDEST PUSH1 0x40 MLOAD PUSH2 0x92 SWAP2 SWAP1 PUSH2 0x446 JUMP JUMPDEST PUSH1 0x40 MLOAD DUP1 SWAP2 SUB SWAP1 RETURN JUMPDEST PUSH1 0x0 DUP1 PUSH2 0xA7 DUP5 PUSH2 0x14B JUMP JUMPDEST SWAP1 POP PUSH1 0x0 PUSH2 0xB4 DUP5 PUSH2 0x257 JUMP JUMPDEST SWAP1 POP PUSH8 0xDE0B6B3A7640000 PUSH1 0xA DUP3 DUP5 PUSH2 0xCD SWAP2 SWAP1 PUSH2 0x4E8 JUMP JUMPDEST PUSH2 0xD7 SWAP2 SWAP1 PUSH2 0x4B7 JUMP JUMPDEST PUSH2 0xE1 SWAP2 SWAP1 PUSH2 0x4E8 JUMP JUMPDEST SWAP3 POP POP POP SWAP3 SWAP2 POP POP JUMP JUMPDEST PUSH1 0x0 DUP1 PUSH1 0x1 SWAP1 POP JUMPDEST PUSH1 0x5 DUP2 GT PUSH2 0x140 JUMPI PUSH1 0x0 PUSH2 0x106 DUP3 PUSH2 0x2A5 JUMP JUMPDEST SWAP1 POP DUP1 DUP5 LT PUSH2 0x122 JUMPI DUP1 DUP5 PUSH2 0x11B SWAP2 SWAP1 PUSH2 0x542 JUMP JUMPDEST SWAP4 POP PUSH2 0x12C JUMP JUMPDEST DUP2 SWAP3 POP POP POP PUSH2 0x146 JUMP JUMPDEST POP DUP1 DUP1 PUSH2 0x138 SWAP1 PUSH2 0x5C0 JUMP JUMPDEST SWAP2 POP POP PUSH2 0xF3 JUMP JUMPDEST POP PUSH1 0x0 SWAP1 POP JUMPDEST SWAP2 SWAP1 POP JUMP JUMPDEST PUSH1 0x0 DUP1 DUP3 DUP1 MLOAD SWAP1 PUSH1 0x20 ADD KECCAK256 SWAP1 POP PUSH32 0x8C57226533EC41D2857120DF9ACE6DFF88130D9B32385E09C9828F75027730F3 DUP2 EQ PUSH2 0x247 JUMPI PUSH32 0x181EBE3A8FA130246D49BFD123AC54849B05BDCD02C6B1322C78DE2A3988A310 DUP2 EQ PUSH2 0x23E JUMPI PUSH32 0x6764D804D57285AE9D4C42CC380377D3D0EE9B90FF9EECCAA32D3B2E3E8D7F17 DUP2 EQ PUSH2 0x235 JUMPI PUSH32 0xB2C1AAAF9F516585466C9876E2EAF06EE68751AAD537B2A6FA22F473D03B58EB DUP2 EQ PUSH2 0x22A JUMPI PUSH32 0xB5333297A8BD10E190CB97FB1EE0F49587C8B2E015370E943C69FD680DABC6BD DUP2 EQ PUSH2 0x222 JUMPI PUSH1 0x0 PUSH2 0x225 JUMP JUMPDEST PUSH1 0xC8 JUMPDEST PUSH2 0x22D JUMP JUMPDEST PUSH1 0xE1 JUMPDEST PUSH1 0xFF AND PUSH2 0x239 JUMP JUMPDEST PUSH2 0x12C JUMPDEST PUSH2 0x242 JUMP JUMPDEST PUSH2 0x1C2 JUMPDEST PUSH2 0x24B JUMP JUMPDEST PUSH2 0x2A3 JUMPDEST PUSH2 0xFFFF AND SWAP2 POP POP SWAP2 SWAP1 POP JUMP JUMPDEST PUSH1 0x0 PUSH1 0x1 DUP3 EQ PUSH2 0x298 JUMPI PUSH1 0x2 DUP3 EQ PUSH2 0x290 JUMPI PUSH1 0x3 DUP3 EQ PUSH2 0x288 JUMPI PUSH1 0x4 DUP3 EQ PUSH2 0x280 JUMPI PUSH1 0x0 PUSH2 0x283 JUMP JUMPDEST PUSH1 0x50 JUMPDEST PUSH2 0x28B JUMP JUMPDEST PUSH1 0x2A JUMPDEST PUSH2 0x293 JUMP JUMPDEST PUSH1 0x16 JUMPDEST PUSH2 0x29B JUMP JUMPDEST PUSH1 0xF JUMPDEST PUSH1 0xFF AND SWAP1 POP SWAP2 SWAP1 POP JUMP JUMPDEST PUSH1 0x0 PUSH2 0x3E8 TIMESTAMP DIFFICULTY DUP5 PUSH1 0x40 MLOAD PUSH1 0x20 ADD PUSH2 0x2BF SWAP4 SWAP3 SWAP2 SWAP1 PUSH2 0x409 JUMP JUMPDEST PUSH1 0x40 MLOAD PUSH1 0x20 DUP2 DUP4 SUB SUB DUP2 MSTORE SWAP1 PUSH1 0x40 MSTORE DUP1 MLOAD SWAP1 PUSH1 0x20 ADD KECCAK256 PUSH1 0x0 SHR PUSH2 0x2E2 SWAP2 SWAP1 PUSH2 0x613 JUMP JUMPDEST SWAP1 POP SWAP2 SWAP1 POP JUMP JUMPDEST PUSH1 0x0 PUSH2 0x2FC PUSH2 0x2F7 DUP5 PUSH2 0x486 JUMP JUMPDEST PUSH2 0x461 JUMP JUMPDEST SWAP1 POP DUP3 DUP2 MSTORE PUSH1 0x20 DUP2 ADD DUP5 DUP5 DUP5 ADD GT ISZERO PUSH2 0x314 JUMPI PUSH1 0x0 DUP1 REVERT JUMPDEST PUSH2 0x31F DUP5 DUP3 DUP6 PUSH2 0x580 JUMP JUMPDEST POP SWAP4 SWAP3 POP POP POP JUMP JUMPDEST PUSH1 0x0 DUP3 PUSH1 0x1F DUP4 ADD SLT PUSH2 0x338 JUMPI PUSH1 0x0 DUP1 REVERT JUMPDEST DUP2 CALLDATALOAD PUSH2 0x348 DUP5 DUP3 PUSH1 0x20 DUP7 ADD PUSH2 0x2E9 JUMP JUMPDEST SWAP2 POP POP SWAP3 SWAP2 POP POP JUMP JUMPDEST PUSH1 0x0 DUP2 CALLDATALOAD SWAP1 POP PUSH2 0x360 DUP2 PUSH2 0x6E2 JUMP JUMPDEST SWAP3 SWAP2 POP POP JUMP JUMPDEST PUSH1 0x0 DUP1 PUSH1 0x40 DUP4 DUP6 SUB SLT ISZERO PUSH2 0x379 JUMPI PUSH1 0x0 DUP1 REVERT JUMPDEST PUSH1 0x0 DUP4 ADD CALLDATALOAD PUSH8 0xFFFFFFFFFFFFFFFF DUP2 GT ISZERO PUSH2 0x393 JUMPI PUSH1 0x0 DUP1 REVERT JUMPDEST PUSH2 0x39F DUP6 DUP3 DUP7 ADD PUSH2 0x327 JUMP JUMPDEST SWAP3 POP POP PUSH1 0x20 PUSH2 0x3B0 DUP6 DUP3 DUP7 ADD PUSH2 0x351 JUMP JUMPDEST SWAP2 POP POP SWAP3 POP SWAP3 SWAP1 POP JUMP JUMPDEST PUSH1 0x0 PUSH1 0x20 DUP3 DUP5 SUB SLT ISZERO PUSH2 0x3CC JUMPI PUSH1 0x0 DUP1 REVERT JUMPDEST PUSH1 0x0 PUSH2 0x3DA DUP5 DUP3 DUP6 ADD PUSH2 0x351 JUMP JUMPDEST SWAP2 POP POP SWAP3 SWAP2 POP POP JUMP JUMPDEST PUSH2 0x3EC DUP2 PUSH2 0x576 JUMP JUMPDEST DUP3 MSTORE POP POP JUMP JUMPDEST PUSH2 0x403 PUSH2 0x3FE DUP3 PUSH2 0x576 JUMP JUMPDEST PUSH2 0x609 JUMP JUMPDEST DUP3 MSTORE POP POP JUMP JUMPDEST PUSH1 0x0 PUSH2 0x415 DUP3 DUP7 PUSH2 0x3F2 JUMP JUMPDEST PUSH1 0x20 DUP3 ADD SWAP2 POP PUSH2 0x425 DUP3 DUP6 PUSH2 0x3F2 JUMP JUMPDEST PUSH1 0x20 DUP3 ADD SWAP2 POP PUSH2 0x435 DUP3 DUP5 PUSH2 0x3F2 JUMP JUMPDEST PUSH1 0x20 DUP3 ADD SWAP2 POP DUP2 SWAP1 POP SWAP5 SWAP4 POP POP POP POP JUMP JUMPDEST PUSH1 0x0 PUSH1 0x20 DUP3 ADD SWAP1 POP PUSH2 0x45B PUSH1 0x0 DUP4 ADD DUP5 PUSH2 0x3E3 JUMP JUMPDEST SWAP3 SWAP2 POP POP JUMP JUMPDEST PUSH1 0x0 PUSH2 0x46B PUSH2 0x47C JUMP JUMPDEST SWAP1 POP PUSH2 0x477 DUP3 DUP3 PUSH2 0x58F JUMP JUMPDEST SWAP2 SWAP1 POP JUMP JUMPDEST PUSH1 0x0 PUSH1 0x40 MLOAD SWAP1 POP SWAP1 JUMP JUMPDEST PUSH1 0x0 PUSH8 0xFFFFFFFFFFFFFFFF DUP3 GT ISZERO PUSH2 0x4A1 JUMPI PUSH2 0x4A0 PUSH2 0x6A2 JUMP JUMPDEST JUMPDEST PUSH2 0x4AA DUP3 PUSH2 0x6D1 JUMP JUMPDEST SWAP1 POP PUSH1 0x20 DUP2 ADD SWAP1 POP SWAP2 SWAP1 POP JUMP JUMPDEST PUSH1 0x0 PUSH2 0x4C2 DUP3 PUSH2 0x576 JUMP JUMPDEST SWAP2 POP PUSH2 0x4CD DUP4 PUSH2 0x576 JUMP JUMPDEST SWAP3 POP DUP3 PUSH2 0x4DD JUMPI PUSH2 0x4DC PUSH2 0x673 JUMP JUMPDEST JUMPDEST DUP3 DUP3 DIV SWAP1 POP SWAP3 SWAP2 POP POP JUMP JUMPDEST PUSH1 0x0 PUSH2 0x4F3 DUP3 PUSH2 0x576 JUMP JUMPDEST SWAP2 POP PUSH2 0x4FE DUP4 PUSH2 0x576 JUMP JUMPDEST SWAP3 POP DUP2 PUSH32 0xFFFFFFFFFFFFFFFFFFFFFFFFFFFFFFFFFFFFFFFFFFFFFFFFFFFFFFFFFFFFFFFF DIV DUP4 GT DUP3 ISZERO ISZERO AND ISZERO PUSH2 0x537 JUMPI PUSH2 0x536 PUSH2 0x644 JUMP JUMPDEST JUMPDEST DUP3 DUP3 MUL SWAP1 POP SWAP3 SWAP2 POP POP JUMP JUMPDEST PUSH1 0x0 PUSH2 0x54D DUP3 PUSH2 0x576 JUMP JUMPDEST SWAP2 POP PUSH2 0x558 DUP4 PUSH2 0x576 JUMP JUMPDEST SWAP3 POP DUP3 DUP3 LT ISZERO PUSH2 0x56B JUMPI PUSH2 0x56A PUSH2 0x644 JUMP JUMPDEST JUMPDEST DUP3 DUP3 SUB SWAP1 POP SWAP3 SWAP2 POP POP JUMP JUMPDEST PUSH1 0x0 DUP2 SWAP1 POP SWAP2 SWAP1 POP JUMP JUMPDEST DUP3 DUP2 DUP4 CALLDATACOPY PUSH1 0x0 DUP4 DUP4 ADD MSTORE POP POP POP JUMP JUMPDEST PUSH2 0x598 DUP3 PUSH2 0x6D1 JUMP JUMPDEST DUP2 ADD DUP2 DUP2 LT PUSH8 0xFFFFFFFFFFFFFFFF DUP3 GT OR ISZERO PUSH2 0x5B7 JUMPI PUSH2 0x5B6 PUSH2 0x6A2 JUMP JUMPDEST JUMPDEST DUP1 PUSH1 0x40 MSTORE POP POP POP JUMP JUMPDEST PUSH1 0x0 PUSH2 0x5CB DUP3 PUSH2 0x576 JUMP JUMPDEST SWAP2 POP PUSH32 0xFFFFFFFFFFFFFFFFFFFFFFFFFFFFFFFFFFFFFFFFFFFFFFFFFFFFFFFFFFFFFFFF DUP3 EQ ISZERO PUSH2 0x5FE JUMPI PUSH2 0x5FD PUSH2 0x644 JUMP JUMPDEST JUMPDEST PUSH1 0x1 DUP3 ADD SWAP1 POP SWAP2 SWAP1 POP JUMP JUMPDEST PUSH1 0x0 DUP2 SWAP1 POP SWAP2 SWAP1 POP JUMP JUMPDEST PUSH1 0x0 PUSH2 0x61E DUP3 PUSH2 0x576 JUMP JUMPDEST SWAP2 POP PUSH2 0x629 DUP4 PUSH2 0x576 JUMP JUMPDEST SWAP3 POP DUP3 PUSH2 0x639 JUMPI PUSH2 0x638 PUSH2 0x673 JUMP JUMPDEST JUMPDEST DUP3 DUP3 MOD SWAP1 POP SWAP3 SWAP2 POP POP JUMP JUMPDEST PUSH32 0x4E487B7100000000000000000000000000000000000000000000000000000000 PUSH1 0x0 MSTORE PUSH1 0x11 PUSH1 0x4 MSTORE PUSH1 0x24 PUSH1 0x0 REVERT JUMPDEST PUSH32 0x4E487B7100000000000000000000000000000000000000000000000000000000 PUSH1 0x0 MSTORE PUSH1 0x12 PUSH1 0x4 MSTORE PUSH1 0x24 PUSH1 0x0 REVERT JUMPDEST PUSH32 0x4E487B7100000000000000000000000000000000000000000000000000000000 PUSH1 0x0 MSTORE PUSH1 0x41 PUSH1 0x4 MSTORE PUSH1 0x24 PUSH1 0x0 REVERT JUMPDEST PUSH1 0x0 PUSH1 0x1F NOT PUSH1 0x1F DUP4 ADD AND SWAP1 POP SWAP2 SWAP1 POP JUMP JUMPDEST PUSH2 0x6EB DUP2 PUSH2 0x576 JUMP JUMPDEST DUP2 EQ PUSH2 0x6F6 JUMPI PUSH1 0x0 DUP1 REVERT JUMPDEST POP JUMP INVALID LOG2 PUSH5 0x6970667358 0x22 SLT KECCAK256 0x49 0x25 PUSH12 0xF8C3AECC43E6EAB047F799A4 DUP16 0x2D MSTORE 0xC7 SIGNEXTEND PUSH15 0xB55303C01018CD5479192564736F6C PUSH4 0x43000804 STOP CALLER "
				},
				"gasEstimates": {
					"creation": {
						"codeDepositCost": "367800",
						"executionCost": "infinite",
						"totalCost": "infinite"
					},
					"external": {
						"calculateItemIndex(uint256)": "infinite",
						"calculateTokenAmount(string,uint256)": "infinite"
					},
					"internal": {
						"calculateBasicGradeAmount(string memory)": "infinite",
						"calculateBasicLevelAmount(uint256)": "170",
						"calculatePower(string memory,uint256)": "infinite",
						"makeRandomNumberForItem(uint256)": "infinite"
					}
				},
				"methodIdentifiers": {
					"calculateItemIndex(uint256)": "b79d5db4",
					"calculateTokenAmount(string,uint256)": "aa93c0ee"
				}
			},
			"storageLayout": {
				"storage": [
					{
						"astId": 82,
						"contract": "Hero/utils/LevelDiagram.sol:LevelDiagram",
						"label": "item",
						"offset": 0,
						"slot": "0",
						"type": "t_contract(IKIP37Full)556"
					}
				],
				"types": {
					"t_contract(IKIP37Full)556": {
						"encoding": "inplace",
						"label": "contract IKIP37Full",
						"numberOfBytes": "20"
					}
				}
			},
			"userdoc": {
				"kind": "user",
				"methods": {},
				"version": 1
			}
		}
	}
}