{
	"Hero/utils/HeroController.sol": {
		"HeroController": {
			"abi": [
				{
					"inputs": [],
					"stateMutability": "nonpayable",
					"type": "constructor"
				},
				{
					"inputs": [],
					"name": "changeMiningPaused",
					"outputs": [],
					"stateMutability": "nonpayable",
					"type": "function"
				},
				{
					"inputs": [],
					"name": "changePaused",
					"outputs": [],
					"stateMutability": "nonpayable",
					"type": "function"
				},
				{
					"inputs": [],
					"name": "getHeroNFT",
					"outputs": [
						{
							"internalType": "contract IHeroNFT",
							"name": "",
							"type": "address"
						}
					],
					"stateMutability": "view",
					"type": "function"
				},
				{
					"inputs": [],
					"name": "getItem",
					"outputs": [
						{
							"internalType": "contract IKIP37Full",
							"name": "",
							"type": "address"
						}
					],
					"stateMutability": "view",
					"type": "function"
				},
				{
					"inputs": [],
					"name": "getLevelDiagram",
					"outputs": [
						{
							"internalType": "contract ILevelDiagram",
							"name": "",
							"type": "address"
						}
					],
					"stateMutability": "view",
					"type": "function"
				},
				{
					"inputs": [],
					"name": "getMiningPaused",
					"outputs": [
						{
							"internalType": "bool",
							"name": "",
							"type": "bool"
						}
					],
					"stateMutability": "view",
					"type": "function"
				},
				{
					"inputs": [],
					"name": "getOwner",
					"outputs": [
						{
							"internalType": "address payable",
							"name": "",
							"type": "address"
						}
					],
					"stateMutability": "view",
					"type": "function"
				},
				{
					"inputs": [],
					"name": "getPaused",
					"outputs": [
						{
							"internalType": "bool",
							"name": "",
							"type": "bool"
						}
					],
					"stateMutability": "view",
					"type": "function"
				},
				{
					"inputs": [],
					"name": "getToken",
					"outputs": [
						{
							"internalType": "contract IKIP7",
							"name": "",
							"type": "address"
						}
					],
					"stateMutability": "view",
					"type": "function"
				},
				{
					"inputs": [
						{
							"internalType": "address",
							"name": "_heroNFT",
							"type": "address"
						},
						{
							"internalType": "address",
							"name": "_token",
							"type": "address"
						},
						{
							"internalType": "address",
							"name": "_item",
							"type": "address"
						},
						{
							"internalType": "address",
							"name": "_levelDiagram",
							"type": "address"
						},
						{
							"internalType": "address",
							"name": "_depositAddress",
							"type": "address"
						},
						{
							"internalType": "address",
							"name": "_miningAddress",
							"type": "address"
						},
						{
							"internalType": "uint256",
							"name": "_klay",
							"type": "uint256"
						},
						{
							"internalType": "uint256",
							"name": "_tokenPrice",
							"type": "uint256"
						}
					],
					"name": "initialize",
					"outputs": [],
					"stateMutability": "nonpayable",
					"type": "function"
				},
				{
					"inputs": [],
					"name": "priceOfKlay",
					"outputs": [
						{
							"internalType": "uint256",
							"name": "",
							"type": "uint256"
						}
					],
					"stateMutability": "view",
					"type": "function"
				},
				{
					"inputs": [],
					"name": "priceOfToken",
					"outputs": [
						{
							"internalType": "uint256",
							"name": "",
							"type": "uint256"
						}
					],
					"stateMutability": "view",
					"type": "function"
				}
			],
			"devdoc": {
				"kind": "dev",
				"methods": {},
				"version": 1
			},
			"evm": {
				"assembly": "    /* \"Hero/utils/HeroController.sol\":261:2641  contract HeroController {... */\n  mstore(0x40, 0x80)\n    /* \"Hero/utils/HeroController.sol\":911:1025  constructor() {... */\n  callvalue\n  dup1\n  iszero\n  tag_1\n  jumpi\n  0x00\n  dup1\n  revert\ntag_1:\n  pop\n    /* \"Hero/utils/HeroController.sol\":944:948  true */\n  0x01\n    /* \"Hero/utils/HeroController.sol\":935:941  paused */\n  0x06\n  0x14\n    /* \"Hero/utils/HeroController.sol\":935:948  paused = true */\n  0x0100\n  exp\n  dup2\n  sload\n  dup2\n  0xff\n  mul\n  not\n  and\n  swap1\n  dup4\n  iszero\n  iszero\n  mul\n  or\n  swap1\n  sstore\n  pop\n    /* \"Hero/utils/HeroController.sol\":973:977  true */\n  0x01\n    /* \"Hero/utils/HeroController.sol\":958:970  miningPaused */\n  0x06\n  0x15\n    /* \"Hero/utils/HeroController.sol\":958:977  miningPaused = true */\n  0x0100\n  exp\n  dup2\n  sload\n  dup2\n  0xff\n  mul\n  not\n  and\n  swap1\n  dup4\n  iszero\n  iszero\n  mul\n  or\n  swap1\n  sstore\n  pop\n    /* \"Hero/utils/HeroController.sol\":1007:1017  msg.sender */\n  caller\n    /* \"Hero/utils/HeroController.sol\":987:996  coreOwner */\n  0x04\n  0x00\n    /* \"Hero/utils/HeroController.sol\":987:1018  coreOwner = payable(msg.sender) */\n  0x0100\n  exp\n  dup2\n  sload\n  dup2\n  0xffffffffffffffffffffffffffffffffffffffff\n  mul\n  not\n  and\n  swap1\n  dup4\n  0xffffffffffffffffffffffffffffffffffffffff\n  and\n  mul\n  or\n  swap1\n  sstore\n  pop\n    /* \"Hero/utils/HeroController.sol\":261:2641  contract HeroController {... */\n  dataSize(sub_0)\n  dup1\n  dataOffset(sub_0)\n  0x00\n  codecopy\n  0x00\n  return\nstop\n\nsub_0: assembly {\n        /* \"Hero/utils/HeroController.sol\":261:2641  contract HeroController {... */\n      mstore(0x40, 0x80)\n      callvalue\n      dup1\n      iszero\n      tag_1\n      jumpi\n      0x00\n      dup1\n      revert\n    tag_1:\n      pop\n      jumpi(tag_2, lt(calldatasize, 0x04))\n      shr(0xe0, calldataload(0x00))\n      dup1\n      0x893d20e8\n      gt\n      tag_15\n      jumpi\n      dup1\n      0x893d20e8\n      eq\n      tag_9\n      jumpi\n      dup1\n      0x9eb4eae5\n      eq\n      tag_10\n      jumpi\n      dup1\n      0xc412eaba\n      eq\n      tag_11\n      jumpi\n      dup1\n      0xc740671f\n      eq\n      tag_12\n      jumpi\n      dup1\n      0xd36d0c18\n      eq\n      tag_13\n      jumpi\n      dup1\n      0xee72b8cc\n      eq\n      tag_14\n      jumpi\n      jump(tag_2)\n    tag_15:\n      dup1\n      0x1b9cbdfb\n      eq\n      tag_3\n      jumpi\n      dup1\n      0x21df0da7\n      eq\n      tag_4\n      jumpi\n      dup1\n      0x28919df6\n      eq\n      tag_5\n      jumpi\n      dup1\n      0x3a1a8080\n      eq\n      tag_6\n      jumpi\n      dup1\n      0x6805b84b\n      eq\n      tag_7\n      jumpi\n      dup1\n      0x7cac00ee\n      eq\n      tag_8\n      jumpi\n    tag_2:\n      0x00\n      dup1\n      revert\n        /* \"Hero/utils/HeroController.sol\":627:654  uint256 public priceOfToken */\n    tag_3:\n      tag_16\n      tag_17\n      jump\t// in\n    tag_16:\n      mload(0x40)\n      tag_18\n      swap2\n      swap1\n      tag_19\n      jump\t// in\n    tag_18:\n      mload(0x40)\n      dup1\n      swap2\n      sub\n      swap1\n      return\n        /* \"Hero/utils/HeroController.sol\":2371:2448  function getToken() public view returns (IKIP7) {... */\n    tag_4:\n      tag_20\n      tag_21\n      jump\t// in\n    tag_20:\n      mload(0x40)\n      tag_22\n      swap2\n      swap1\n      tag_23\n      jump\t// in\n    tag_22:\n      mload(0x40)\n      dup1\n      swap2\n      sub\n      swap1\n      return\n        /* \"Hero/utils/HeroController.sol\":2086:2176  function getMiningPaused() public view returns (bool) {... */\n    tag_5:\n      tag_24\n      tag_25\n      jump\t// in\n    tag_24:\n      mload(0x40)\n      tag_26\n      swap2\n      swap1\n      tag_27\n      jump\t// in\n    tag_26:\n      mload(0x40)\n      dup1\n      swap2\n      sub\n      swap1\n      return\n        /* \"Hero/utils/HeroController.sol\":595:621  uint256 public priceOfKlay */\n    tag_6:\n      tag_28\n      tag_29\n      jump\t// in\n    tag_28:\n      mload(0x40)\n      tag_30\n      swap2\n      swap1\n      tag_19\n      jump\t// in\n    tag_30:\n      mload(0x40)\n      dup1\n      swap2\n      sub\n      swap1\n      return\n        /* \"Hero/utils/HeroController.sol\":2002:2080  function getPaused() public view returns (bool) {... */\n    tag_7:\n      tag_31\n      tag_32\n      jump\t// in\n    tag_31:\n      mload(0x40)\n      tag_33\n      swap2\n      swap1\n      tag_27\n      jump\t// in\n    tag_33:\n      mload(0x40)\n      dup1\n      swap2\n      sub\n      swap1\n      return\n        /* \"Hero/utils/HeroController.sol\":2454:2538  function getHeroNFT() public view returns (IHeroNFT) {... */\n    tag_8:\n      tag_34\n      tag_35\n      jump\t// in\n    tag_34:\n      mload(0x40)\n      tag_36\n      swap2\n      swap1\n      tag_37\n      jump\t// in\n    tag_36:\n      mload(0x40)\n      dup1\n      swap2\n      sub\n      swap1\n      return\n        /* \"Hero/utils/HeroController.sol\":1905:1996  function getOwner() public view returns (address payable) {... */\n    tag_9:\n      tag_38\n      tag_39\n      jump\t// in\n    tag_38:\n      mload(0x40)\n      tag_40\n      swap2\n      swap1\n      tag_41\n      jump\t// in\n    tag_40:\n      mload(0x40)\n      dup1\n      swap2\n      sub\n      swap1\n      return\n        /* \"Hero/utils/HeroController.sol\":1691:1767  function changePaused() external onlyOwner {... */\n    tag_10:\n      tag_42\n      tag_43\n      jump\t// in\n    tag_42:\n      stop\n        /* \"Hero/utils/HeroController.sol\":2285:2365  function getItem() public view returns (IKIP37Full) {... */\n    tag_11:\n      tag_44\n      tag_45\n      jump\t// in\n    tag_44:\n      mload(0x40)\n      tag_46\n      swap2\n      swap1\n      tag_47\n      jump\t// in\n    tag_46:\n      mload(0x40)\n      dup1\n      swap2\n      sub\n      swap1\n      return\n        /* \"Hero/utils/HeroController.sol\":1079:1685  function initialize(... */\n    tag_12:\n      tag_48\n      0x04\n      dup1\n      calldatasize\n      sub\n      dup2\n      add\n      swap1\n      tag_49\n      swap2\n      swap1\n      tag_50\n      jump\t// in\n    tag_49:\n      tag_51\n      jump\t// in\n    tag_48:\n      stop\n        /* \"Hero/utils/HeroController.sol\":2182:2279  function getLevelDiagram() public view returns(ILevelDiagram){... */\n    tag_13:\n      tag_52\n      tag_53\n      jump\t// in\n    tag_52:\n      mload(0x40)\n      tag_54\n      swap2\n      swap1\n      tag_55\n      jump\t// in\n    tag_54:\n      mload(0x40)\n      dup1\n      swap2\n      sub\n      swap1\n      return\n        /* \"Hero/utils/HeroController.sol\":1773:1867  function changeMiningPaused() external onlyOwner {... */\n    tag_14:\n      tag_56\n      tag_57\n      jump\t// in\n    tag_56:\n      stop\n        /* \"Hero/utils/HeroController.sol\":627:654  uint256 public priceOfToken */\n    tag_17:\n      sload(0x08)\n      dup2\n      jump\t// out\n        /* \"Hero/utils/HeroController.sol\":2371:2448  function getToken() public view returns (IKIP7) {... */\n    tag_21:\n        /* \"Hero/utils/HeroController.sol\":2412:2417  IKIP7 */\n      0x00\n        /* \"Hero/utils/HeroController.sol\":2436:2441  token */\n      0x01\n      0x00\n      swap1\n      sload\n      swap1\n      0x0100\n      exp\n      swap1\n      div\n      0xffffffffffffffffffffffffffffffffffffffff\n      and\n        /* \"Hero/utils/HeroController.sol\":2429:2441  return token */\n      swap1\n      pop\n        /* \"Hero/utils/HeroController.sol\":2371:2448  function getToken() public view returns (IKIP7) {... */\n      swap1\n      jump\t// out\n        /* \"Hero/utils/HeroController.sol\":2086:2176  function getMiningPaused() public view returns (bool) {... */\n    tag_25:\n        /* \"Hero/utils/HeroController.sol\":2134:2138  bool */\n      0x00\n        /* \"Hero/utils/HeroController.sol\":2157:2169  miningPaused */\n      0x06\n      0x15\n      swap1\n      sload\n      swap1\n      0x0100\n      exp\n      swap1\n      div\n      0xff\n      and\n        /* \"Hero/utils/HeroController.sol\":2150:2169  return miningPaused */\n      swap1\n      pop\n        /* \"Hero/utils/HeroController.sol\":2086:2176  function getMiningPaused() public view returns (bool) {... */\n      swap1\n      jump\t// out\n        /* \"Hero/utils/HeroController.sol\":595:621  uint256 public priceOfKlay */\n    tag_29:\n      sload(0x07)\n      dup2\n      jump\t// out\n        /* \"Hero/utils/HeroController.sol\":2002:2080  function getPaused() public view returns (bool) {... */\n    tag_32:\n        /* \"Hero/utils/HeroController.sol\":2044:2048  bool */\n      0x00\n        /* \"Hero/utils/HeroController.sol\":2067:2073  paused */\n      0x06\n      0x14\n      swap1\n      sload\n      swap1\n      0x0100\n      exp\n      swap1\n      div\n      0xff\n      and\n        /* \"Hero/utils/HeroController.sol\":2060:2073  return paused */\n      swap1\n      pop\n        /* \"Hero/utils/HeroController.sol\":2002:2080  function getPaused() public view returns (bool) {... */\n      swap1\n      jump\t// out\n        /* \"Hero/utils/HeroController.sol\":2454:2538  function getHeroNFT() public view returns (IHeroNFT) {... */\n    tag_35:\n        /* \"Hero/utils/HeroController.sol\":2497:2505  IHeroNFT */\n      0x00\n        /* \"Hero/utils/HeroController.sol\":2524:2531  heroNFT */\n      dup1\n      0x00\n      swap1\n      sload\n      swap1\n      0x0100\n      exp\n      swap1\n      div\n      0xffffffffffffffffffffffffffffffffffffffff\n      and\n        /* \"Hero/utils/HeroController.sol\":2517:2531  return heroNFT */\n      swap1\n      pop\n        /* \"Hero/utils/HeroController.sol\":2454:2538  function getHeroNFT() public view returns (IHeroNFT) {... */\n      swap1\n      jump\t// out\n        /* \"Hero/utils/HeroController.sol\":1905:1996  function getOwner() public view returns (address payable) {... */\n    tag_39:\n        /* \"Hero/utils/HeroController.sol\":1946:1961  address payable */\n      0x00\n        /* \"Hero/utils/HeroController.sol\":1980:1989  coreOwner */\n      0x04\n      0x00\n      swap1\n      sload\n      swap1\n      0x0100\n      exp\n      swap1\n      div\n      0xffffffffffffffffffffffffffffffffffffffff\n      and\n        /* \"Hero/utils/HeroController.sol\":1973:1989  return coreOwner */\n      swap1\n      pop\n        /* \"Hero/utils/HeroController.sol\":1905:1996  function getOwner() public view returns (address payable) {... */\n      swap1\n      jump\t// out\n        /* \"Hero/utils/HeroController.sol\":1691:1767  function changePaused() external onlyOwner {... */\n    tag_43:\n        /* \"Hero/utils/HeroController.sol\":847:856  coreOwner */\n      0x04\n      0x00\n      swap1\n      sload\n      swap1\n      0x0100\n      exp\n      swap1\n      div\n      0xffffffffffffffffffffffffffffffffffffffff\n      and\n        /* \"Hero/utils/HeroController.sol\":833:856  msg.sender == coreOwner */\n      0xffffffffffffffffffffffffffffffffffffffff\n      and\n        /* \"Hero/utils/HeroController.sol\":833:843  msg.sender */\n      caller\n        /* \"Hero/utils/HeroController.sol\":833:856  msg.sender == coreOwner */\n      0xffffffffffffffffffffffffffffffffffffffff\n      and\n      eq\n        /* \"Hero/utils/HeroController.sol\":825:887  require(msg.sender == coreOwner, \"HeroCore Error : onlyOwner\") */\n      tag_64\n      jumpi\n      mload(0x40)\n      0x08c379a000000000000000000000000000000000000000000000000000000000\n      dup2\n      mstore\n      0x04\n      add\n      tag_65\n      swap1\n      tag_66\n      jump\t// in\n    tag_65:\n      mload(0x40)\n      dup1\n      swap2\n      sub\n      swap1\n      revert\n    tag_64:\n        /* \"Hero/utils/HeroController.sol\":1754:1760  paused */\n      0x06\n      0x14\n      swap1\n      sload\n      swap1\n      0x0100\n      exp\n      swap1\n      div\n      0xff\n      and\n        /* \"Hero/utils/HeroController.sol\":1753:1760  !paused */\n      iszero\n        /* \"Hero/utils/HeroController.sol\":1744:1750  paused */\n      0x06\n      0x14\n        /* \"Hero/utils/HeroController.sol\":1744:1760  paused = !paused */\n      0x0100\n      exp\n      dup2\n      sload\n      dup2\n      0xff\n      mul\n      not\n      and\n      swap1\n      dup4\n      iszero\n      iszero\n      mul\n      or\n      swap1\n      sstore\n      pop\n        /* \"Hero/utils/HeroController.sol\":1691:1767  function changePaused() external onlyOwner {... */\n      jump\t// out\n        /* \"Hero/utils/HeroController.sol\":2285:2365  function getItem() public view returns (IKIP37Full) {... */\n    tag_45:\n        /* \"Hero/utils/HeroController.sol\":2325:2335  IKIP37Full */\n      0x00\n        /* \"Hero/utils/HeroController.sol\":2354:2358  item */\n      0x02\n      0x00\n      swap1\n      sload\n      swap1\n      0x0100\n      exp\n      swap1\n      div\n      0xffffffffffffffffffffffffffffffffffffffff\n      and\n        /* \"Hero/utils/HeroController.sol\":2347:2358  return item */\n      swap1\n      pop\n        /* \"Hero/utils/HeroController.sol\":2285:2365  function getItem() public view returns (IKIP37Full) {... */\n      swap1\n      jump\t// out\n        /* \"Hero/utils/HeroController.sol\":1079:1685  function initialize(... */\n    tag_51:\n        /* \"Hero/utils/HeroController.sol\":847:856  coreOwner */\n      0x04\n      0x00\n      swap1\n      sload\n      swap1\n      0x0100\n      exp\n      swap1\n      div\n      0xffffffffffffffffffffffffffffffffffffffff\n      and\n        /* \"Hero/utils/HeroController.sol\":833:856  msg.sender == coreOwner */\n      0xffffffffffffffffffffffffffffffffffffffff\n      and\n        /* \"Hero/utils/HeroController.sol\":833:843  msg.sender */\n      caller\n        /* \"Hero/utils/HeroController.sol\":833:856  msg.sender == coreOwner */\n      0xffffffffffffffffffffffffffffffffffffffff\n      and\n      eq\n        /* \"Hero/utils/HeroController.sol\":825:887  require(msg.sender == coreOwner, \"HeroCore Error : onlyOwner\") */\n      tag_70\n      jumpi\n      mload(0x40)\n      0x08c379a000000000000000000000000000000000000000000000000000000000\n      dup2\n      mstore\n      0x04\n      add\n      tag_71\n      swap1\n      tag_66\n      jump\t// in\n    tag_71:\n      mload(0x40)\n      dup1\n      swap2\n      sub\n      swap1\n      revert\n    tag_70:\n        /* \"Hero/utils/HeroController.sol\":1369:1388  _klay.mul(DECIMALS) */\n      tag_73\n        /* \"Hero/utils/HeroController.sol\":696:700  1e18 */\n      0x0de0b6b3a7640000\n        /* \"Hero/utils/HeroController.sol\":1369:1374  _klay */\n      dup4\n        /* \"Hero/utils/HeroController.sol\":1369:1378  _klay.mul */\n      tag_74\n      swap1\n        /* \"Hero/utils/HeroController.sol\":1369:1388  _klay.mul(DECIMALS) */\n      swap2\n      swap1\n      0xffffffff\n      and\n      jump\t// in\n    tag_73:\n        /* \"Hero/utils/HeroController.sol\":1355:1366  priceOfKlay */\n      0x07\n        /* \"Hero/utils/HeroController.sol\":1355:1388  priceOfKlay = _klay.mul(DECIMALS) */\n      dup2\n      swap1\n      sstore\n      pop\n        /* \"Hero/utils/HeroController.sol\":1413:1438  _tokenPrice.mul(DECIMALS) */\n      tag_75\n        /* \"Hero/utils/HeroController.sol\":696:700  1e18 */\n      0x0de0b6b3a7640000\n        /* \"Hero/utils/HeroController.sol\":1413:1424  _tokenPrice */\n      dup3\n        /* \"Hero/utils/HeroController.sol\":1413:1428  _tokenPrice.mul */\n      tag_74\n      swap1\n        /* \"Hero/utils/HeroController.sol\":1413:1438  _tokenPrice.mul(DECIMALS) */\n      swap2\n      swap1\n      0xffffffff\n      and\n      jump\t// in\n    tag_75:\n        /* \"Hero/utils/HeroController.sol\":1398:1410  priceOfToken */\n      0x08\n        /* \"Hero/utils/HeroController.sol\":1398:1438  priceOfToken = _tokenPrice.mul(DECIMALS) */\n      dup2\n      swap1\n      sstore\n      pop\n        /* \"Hero/utils/HeroController.sol\":1468:1476  _heroNFT */\n      dup8\n        /* \"Hero/utils/HeroController.sol\":1449:1456  heroNFT */\n      0x00\n      dup1\n        /* \"Hero/utils/HeroController.sol\":1449:1477  heroNFT = IHeroNFT(_heroNFT) */\n      0x0100\n      exp\n      dup2\n      sload\n      dup2\n      0xffffffffffffffffffffffffffffffffffffffff\n      mul\n      not\n      and\n      swap1\n      dup4\n      0xffffffffffffffffffffffffffffffffffffffff\n      and\n      mul\n      or\n      swap1\n      sstore\n      pop\n        /* \"Hero/utils/HeroController.sol\":1501:1507  _token */\n      dup7\n        /* \"Hero/utils/HeroController.sol\":1487:1492  token */\n      0x01\n      0x00\n        /* \"Hero/utils/HeroController.sol\":1487:1508  token = IKIP7(_token) */\n      0x0100\n      exp\n      dup2\n      sload\n      dup2\n      0xffffffffffffffffffffffffffffffffffffffff\n      mul\n      not\n      and\n      swap1\n      dup4\n      0xffffffffffffffffffffffffffffffffffffffff\n      and\n      mul\n      or\n      swap1\n      sstore\n      pop\n        /* \"Hero/utils/HeroController.sol\":1536:1541  _item */\n      dup6\n        /* \"Hero/utils/HeroController.sol\":1518:1522  item */\n      0x02\n      0x00\n        /* \"Hero/utils/HeroController.sol\":1518:1542  item = IKIP37Full(_item) */\n      0x0100\n      exp\n      dup2\n      sload\n      dup2\n      0xffffffffffffffffffffffffffffffffffffffff\n      mul\n      not\n      and\n      swap1\n      dup4\n      0xffffffffffffffffffffffffffffffffffffffff\n      and\n      mul\n      or\n      swap1\n      sstore\n      pop\n        /* \"Hero/utils/HeroController.sol\":1581:1594  _levelDiagram */\n      dup5\n        /* \"Hero/utils/HeroController.sol\":1552:1564  levelDiagram */\n      0x03\n      0x00\n        /* \"Hero/utils/HeroController.sol\":1552:1595  levelDiagram = ILevelDiagram(_levelDiagram) */\n      0x0100\n      exp\n      dup2\n      sload\n      dup2\n      0xffffffffffffffffffffffffffffffffffffffff\n      mul\n      not\n      and\n      swap1\n      dup4\n      0xffffffffffffffffffffffffffffffffffffffff\n      and\n      mul\n      or\n      swap1\n      sstore\n      pop\n        /* \"Hero/utils/HeroController.sol\":1623:1638  _depositAddress */\n      dup4\n        /* \"Hero/utils/HeroController.sol\":1606:1620  depositAddress */\n      0x05\n      0x00\n        /* \"Hero/utils/HeroController.sol\":1606:1638  depositAddress = _depositAddress */\n      0x0100\n      exp\n      dup2\n      sload\n      dup2\n      0xffffffffffffffffffffffffffffffffffffffff\n      mul\n      not\n      and\n      swap1\n      dup4\n      0xffffffffffffffffffffffffffffffffffffffff\n      and\n      mul\n      or\n      swap1\n      sstore\n      pop\n        /* \"Hero/utils/HeroController.sol\":1664:1678  _miningAddress */\n      dup3\n        /* \"Hero/utils/HeroController.sol\":1648:1661  miningAddress */\n      0x06\n      0x00\n        /* \"Hero/utils/HeroController.sol\":1648:1678  miningAddress = _miningAddress */\n      0x0100\n      exp\n      dup2\n      sload\n      dup2\n      0xffffffffffffffffffffffffffffffffffffffff\n      mul\n      not\n      and\n      swap1\n      dup4\n      0xffffffffffffffffffffffffffffffffffffffff\n      and\n      mul\n      or\n      swap1\n      sstore\n      pop\n        /* \"Hero/utils/HeroController.sol\":1079:1685  function initialize(... */\n      pop\n      pop\n      pop\n      pop\n      pop\n      pop\n      pop\n      pop\n      jump\t// out\n        /* \"Hero/utils/HeroController.sol\":2182:2279  function getLevelDiagram() public view returns(ILevelDiagram){... */\n    tag_53:\n        /* \"Hero/utils/HeroController.sol\":2229:2242  ILevelDiagram */\n      0x00\n        /* \"Hero/utils/HeroController.sol\":2260:2272  levelDiagram */\n      0x03\n      0x00\n      swap1\n      sload\n      swap1\n      0x0100\n      exp\n      swap1\n      div\n      0xffffffffffffffffffffffffffffffffffffffff\n      and\n        /* \"Hero/utils/HeroController.sol\":2253:2272  return levelDiagram */\n      swap1\n      pop\n        /* \"Hero/utils/HeroController.sol\":2182:2279  function getLevelDiagram() public view returns(ILevelDiagram){... */\n      swap1\n      jump\t// out\n        /* \"Hero/utils/HeroController.sol\":1773:1867  function changeMiningPaused() external onlyOwner {... */\n    tag_57:\n        /* \"Hero/utils/HeroController.sol\":847:856  coreOwner */\n      0x04\n      0x00\n      swap1\n      sload\n      swap1\n      0x0100\n      exp\n      swap1\n      div\n      0xffffffffffffffffffffffffffffffffffffffff\n      and\n        /* \"Hero/utils/HeroController.sol\":833:856  msg.sender == coreOwner */\n      0xffffffffffffffffffffffffffffffffffffffff\n      and\n        /* \"Hero/utils/HeroController.sol\":833:843  msg.sender */\n      caller\n        /* \"Hero/utils/HeroController.sol\":833:856  msg.sender == coreOwner */\n      0xffffffffffffffffffffffffffffffffffffffff\n      and\n      eq\n        /* \"Hero/utils/HeroController.sol\":825:887  require(msg.sender == coreOwner, \"HeroCore Error : onlyOwner\") */\n      tag_78\n      jumpi\n      mload(0x40)\n      0x08c379a000000000000000000000000000000000000000000000000000000000\n      dup2\n      mstore\n      0x04\n      add\n      tag_79\n      swap1\n      tag_66\n      jump\t// in\n    tag_79:\n      mload(0x40)\n      dup1\n      swap2\n      sub\n      swap1\n      revert\n    tag_78:\n        /* \"Hero/utils/HeroController.sol\":1848:1860  miningPaused */\n      0x06\n      0x15\n      swap1\n      sload\n      swap1\n      0x0100\n      exp\n      swap1\n      div\n      0xff\n      and\n        /* \"Hero/utils/HeroController.sol\":1847:1860  !miningPaused */\n      iszero\n        /* \"Hero/utils/HeroController.sol\":1832:1844  miningPaused */\n      0x06\n      0x15\n        /* \"Hero/utils/HeroController.sol\":1832:1860  miningPaused = !miningPaused */\n      0x0100\n      exp\n      dup2\n      sload\n      dup2\n      0xff\n      mul\n      not\n      and\n      swap1\n      dup4\n      iszero\n      iszero\n      mul\n      or\n      swap1\n      sstore\n      pop\n        /* \"Hero/utils/HeroController.sol\":1773:1867  function changeMiningPaused() external onlyOwner {... */\n      jump\t// out\n        /* \"utils/SafeMath.sol\":283:379  function mul(uint256 a, uint256 b) internal pure returns (uint256) {... */\n    tag_74:\n        /* \"utils/SafeMath.sol\":341:348  uint256 */\n      0x00\n        /* \"utils/SafeMath.sol\":371:372  b */\n      dup2\n        /* \"utils/SafeMath.sol\":367:368  a */\n      dup4\n        /* \"utils/SafeMath.sol\":367:372  a * b */\n      tag_82\n      swap2\n      swap1\n      tag_83\n      jump\t// in\n    tag_82:\n        /* \"utils/SafeMath.sol\":360:372  return a * b */\n      swap1\n      pop\n        /* \"utils/SafeMath.sol\":283:379  function mul(uint256 a, uint256 b) internal pure returns (uint256) {... */\n      swap3\n      swap2\n      pop\n      pop\n      jump\t// out\n        /* \"#utility.yul\":7:146   */\n    tag_85:\n        /* \"#utility.yul\":53:58   */\n      0x00\n        /* \"#utility.yul\":91:97   */\n      dup2\n        /* \"#utility.yul\":78:98   */\n      calldataload\n        /* \"#utility.yul\":69:98   */\n      swap1\n      pop\n        /* \"#utility.yul\":107:140   */\n      tag_87\n        /* \"#utility.yul\":134:139   */\n      dup2\n        /* \"#utility.yul\":107:140   */\n      tag_88\n      jump\t// in\n    tag_87:\n        /* \"#utility.yul\":59:146   */\n      swap3\n      swap2\n      pop\n      pop\n      jump\t// out\n        /* \"#utility.yul\":152:291   */\n    tag_89:\n        /* \"#utility.yul\":198:203   */\n      0x00\n        /* \"#utility.yul\":236:242   */\n      dup2\n        /* \"#utility.yul\":223:243   */\n      calldataload\n        /* \"#utility.yul\":214:243   */\n      swap1\n      pop\n        /* \"#utility.yul\":252:285   */\n      tag_91\n        /* \"#utility.yul\":279:284   */\n      dup2\n        /* \"#utility.yul\":252:285   */\n      tag_92\n      jump\t// in\n    tag_91:\n        /* \"#utility.yul\":204:291   */\n      swap3\n      swap2\n      pop\n      pop\n      jump\t// out\n        /* \"#utility.yul\":297:1579   */\n    tag_50:\n        /* \"#utility.yul\":419:425   */\n      0x00\n        /* \"#utility.yul\":427:433   */\n      dup1\n        /* \"#utility.yul\":435:441   */\n      0x00\n        /* \"#utility.yul\":443:449   */\n      dup1\n        /* \"#utility.yul\":451:457   */\n      0x00\n        /* \"#utility.yul\":459:465   */\n      dup1\n        /* \"#utility.yul\":467:473   */\n      0x00\n        /* \"#utility.yul\":475:481   */\n      dup1\n        /* \"#utility.yul\":524:527   */\n      0x0100\n        /* \"#utility.yul\":512:521   */\n      dup10\n        /* \"#utility.yul\":503:510   */\n      dup12\n        /* \"#utility.yul\":499:522   */\n      sub\n        /* \"#utility.yul\":495:528   */\n      slt\n        /* \"#utility.yul\":492:494   */\n      iszero\n      tag_94\n      jumpi\n        /* \"#utility.yul\":541:542   */\n      0x00\n        /* \"#utility.yul\":538:539   */\n      dup1\n        /* \"#utility.yul\":531:543   */\n      revert\n        /* \"#utility.yul\":492:494   */\n    tag_94:\n        /* \"#utility.yul\":584:585   */\n      0x00\n        /* \"#utility.yul\":609:662   */\n      tag_95\n        /* \"#utility.yul\":654:661   */\n      dup12\n        /* \"#utility.yul\":645:651   */\n      dup3\n        /* \"#utility.yul\":634:643   */\n      dup13\n        /* \"#utility.yul\":630:652   */\n      add\n        /* \"#utility.yul\":609:662   */\n      tag_85\n      jump\t// in\n    tag_95:\n        /* \"#utility.yul\":599:662   */\n      swap9\n      pop\n        /* \"#utility.yul\":555:672   */\n      pop\n        /* \"#utility.yul\":711:713   */\n      0x20\n        /* \"#utility.yul\":737:790   */\n      tag_96\n        /* \"#utility.yul\":782:789   */\n      dup12\n        /* \"#utility.yul\":773:779   */\n      dup3\n        /* \"#utility.yul\":762:771   */\n      dup13\n        /* \"#utility.yul\":758:780   */\n      add\n        /* \"#utility.yul\":737:790   */\n      tag_85\n      jump\t// in\n    tag_96:\n        /* \"#utility.yul\":727:790   */\n      swap8\n      pop\n        /* \"#utility.yul\":682:800   */\n      pop\n        /* \"#utility.yul\":839:841   */\n      0x40\n        /* \"#utility.yul\":865:918   */\n      tag_97\n        /* \"#utility.yul\":910:917   */\n      dup12\n        /* \"#utility.yul\":901:907   */\n      dup3\n        /* \"#utility.yul\":890:899   */\n      dup13\n        /* \"#utility.yul\":886:908   */\n      add\n        /* \"#utility.yul\":865:918   */\n      tag_85\n      jump\t// in\n    tag_97:\n        /* \"#utility.yul\":855:918   */\n      swap7\n      pop\n        /* \"#utility.yul\":810:928   */\n      pop\n        /* \"#utility.yul\":967:969   */\n      0x60\n        /* \"#utility.yul\":993:1046   */\n      tag_98\n        /* \"#utility.yul\":1038:1045   */\n      dup12\n        /* \"#utility.yul\":1029:1035   */\n      dup3\n        /* \"#utility.yul\":1018:1027   */\n      dup13\n        /* \"#utility.yul\":1014:1036   */\n      add\n        /* \"#utility.yul\":993:1046   */\n      tag_85\n      jump\t// in\n    tag_98:\n        /* \"#utility.yul\":983:1046   */\n      swap6\n      pop\n        /* \"#utility.yul\":938:1056   */\n      pop\n        /* \"#utility.yul\":1095:1098   */\n      0x80\n        /* \"#utility.yul\":1122:1175   */\n      tag_99\n        /* \"#utility.yul\":1167:1174   */\n      dup12\n        /* \"#utility.yul\":1158:1164   */\n      dup3\n        /* \"#utility.yul\":1147:1156   */\n      dup13\n        /* \"#utility.yul\":1143:1165   */\n      add\n        /* \"#utility.yul\":1122:1175   */\n      tag_85\n      jump\t// in\n    tag_99:\n        /* \"#utility.yul\":1112:1175   */\n      swap5\n      pop\n        /* \"#utility.yul\":1066:1185   */\n      pop\n        /* \"#utility.yul\":1224:1227   */\n      0xa0\n        /* \"#utility.yul\":1251:1304   */\n      tag_100\n        /* \"#utility.yul\":1296:1303   */\n      dup12\n        /* \"#utility.yul\":1287:1293   */\n      dup3\n        /* \"#utility.yul\":1276:1285   */\n      dup13\n        /* \"#utility.yul\":1272:1294   */\n      add\n        /* \"#utility.yul\":1251:1304   */\n      tag_85\n      jump\t// in\n    tag_100:\n        /* \"#utility.yul\":1241:1304   */\n      swap4\n      pop\n        /* \"#utility.yul\":1195:1314   */\n      pop\n        /* \"#utility.yul\":1353:1356   */\n      0xc0\n        /* \"#utility.yul\":1380:1433   */\n      tag_101\n        /* \"#utility.yul\":1425:1432   */\n      dup12\n        /* \"#utility.yul\":1416:1422   */\n      dup3\n        /* \"#utility.yul\":1405:1414   */\n      dup13\n        /* \"#utility.yul\":1401:1423   */\n      add\n        /* \"#utility.yul\":1380:1433   */\n      tag_89\n      jump\t// in\n    tag_101:\n        /* \"#utility.yul\":1370:1433   */\n      swap3\n      pop\n        /* \"#utility.yul\":1324:1443   */\n      pop\n        /* \"#utility.yul\":1482:1485   */\n      0xe0\n        /* \"#utility.yul\":1509:1562   */\n      tag_102\n        /* \"#utility.yul\":1554:1561   */\n      dup12\n        /* \"#utility.yul\":1545:1551   */\n      dup3\n        /* \"#utility.yul\":1534:1543   */\n      dup13\n        /* \"#utility.yul\":1530:1552   */\n      add\n        /* \"#utility.yul\":1509:1562   */\n      tag_89\n      jump\t// in\n    tag_102:\n        /* \"#utility.yul\":1499:1562   */\n      swap2\n      pop\n        /* \"#utility.yul\":1453:1572   */\n      pop\n        /* \"#utility.yul\":482:1579   */\n      swap3\n      swap6\n      swap9\n      pop\n      swap3\n      swap6\n      swap9\n      swap1\n      swap4\n      swap7\n      pop\n      jump\t// out\n        /* \"#utility.yul\":1585:1727   */\n    tag_103:\n        /* \"#utility.yul\":1688:1720   */\n      tag_105\n        /* \"#utility.yul\":1714:1719   */\n      dup2\n        /* \"#utility.yul\":1688:1720   */\n      tag_106\n      jump\t// in\n    tag_105:\n        /* \"#utility.yul\":1683:1686   */\n      dup3\n        /* \"#utility.yul\":1676:1721   */\n      mstore\n        /* \"#utility.yul\":1666:1727   */\n      pop\n      pop\n      jump\t// out\n        /* \"#utility.yul\":1733:1842   */\n    tag_107:\n        /* \"#utility.yul\":1814:1835   */\n      tag_109\n        /* \"#utility.yul\":1829:1834   */\n      dup2\n        /* \"#utility.yul\":1814:1835   */\n      tag_110\n      jump\t// in\n    tag_109:\n        /* \"#utility.yul\":1809:1812   */\n      dup3\n        /* \"#utility.yul\":1802:1836   */\n      mstore\n        /* \"#utility.yul\":1792:1842   */\n      pop\n      pop\n      jump\t// out\n        /* \"#utility.yul\":1848:2009   */\n    tag_111:\n        /* \"#utility.yul\":1950:2002   */\n      tag_113\n        /* \"#utility.yul\":1996:2001   */\n      dup2\n        /* \"#utility.yul\":1950:2002   */\n      tag_114\n      jump\t// in\n    tag_113:\n        /* \"#utility.yul\":1945:1948   */\n      dup3\n        /* \"#utility.yul\":1938:2003   */\n      mstore\n        /* \"#utility.yul\":1928:2009   */\n      pop\n      pop\n      jump\t// out\n        /* \"#utility.yul\":2015:2182   */\n    tag_115:\n        /* \"#utility.yul\":2120:2175   */\n      tag_117\n        /* \"#utility.yul\":2169:2174   */\n      dup2\n        /* \"#utility.yul\":2120:2175   */\n      tag_118\n      jump\t// in\n    tag_117:\n        /* \"#utility.yul\":2115:2118   */\n      dup3\n        /* \"#utility.yul\":2108:2176   */\n      mstore\n        /* \"#utility.yul\":2098:2182   */\n      pop\n      pop\n      jump\t// out\n        /* \"#utility.yul\":2188:2345   */\n    tag_119:\n        /* \"#utility.yul\":2288:2338   */\n      tag_121\n        /* \"#utility.yul\":2332:2337   */\n      dup2\n        /* \"#utility.yul\":2288:2338   */\n      tag_122\n      jump\t// in\n    tag_121:\n        /* \"#utility.yul\":2283:2286   */\n      dup3\n        /* \"#utility.yul\":2276:2339   */\n      mstore\n        /* \"#utility.yul\":2266:2345   */\n      pop\n      pop\n      jump\t// out\n        /* \"#utility.yul\":2351:2522   */\n    tag_123:\n        /* \"#utility.yul\":2458:2515   */\n      tag_125\n        /* \"#utility.yul\":2509:2514   */\n      dup2\n        /* \"#utility.yul\":2458:2515   */\n      tag_126\n      jump\t// in\n    tag_125:\n        /* \"#utility.yul\":2453:2456   */\n      dup3\n        /* \"#utility.yul\":2446:2516   */\n      mstore\n        /* \"#utility.yul\":2436:2522   */\n      pop\n      pop\n      jump\t// out\n        /* \"#utility.yul\":2528:2894   */\n    tag_127:\n        /* \"#utility.yul\":2670:2673   */\n      0x00\n        /* \"#utility.yul\":2691:2758   */\n      tag_129\n        /* \"#utility.yul\":2755:2757   */\n      0x1a\n        /* \"#utility.yul\":2750:2753   */\n      dup4\n        /* \"#utility.yul\":2691:2758   */\n      tag_130\n      jump\t// in\n    tag_129:\n        /* \"#utility.yul\":2684:2758   */\n      swap2\n      pop\n        /* \"#utility.yul\":2767:2860   */\n      tag_131\n        /* \"#utility.yul\":2856:2859   */\n      dup3\n        /* \"#utility.yul\":2767:2860   */\n      tag_132\n      jump\t// in\n    tag_131:\n        /* \"#utility.yul\":2885:2887   */\n      0x20\n        /* \"#utility.yul\":2880:2883   */\n      dup3\n        /* \"#utility.yul\":2876:2888   */\n      add\n        /* \"#utility.yul\":2869:2888   */\n      swap1\n      pop\n        /* \"#utility.yul\":2674:2894   */\n      swap2\n      swap1\n      pop\n      jump\t// out\n        /* \"#utility.yul\":2900:3018   */\n    tag_133:\n        /* \"#utility.yul\":2987:3011   */\n      tag_135\n        /* \"#utility.yul\":3005:3010   */\n      dup2\n        /* \"#utility.yul\":2987:3011   */\n      tag_136\n      jump\t// in\n    tag_135:\n        /* \"#utility.yul\":2982:2985   */\n      dup3\n        /* \"#utility.yul\":2975:3012   */\n      mstore\n        /* \"#utility.yul\":2965:3018   */\n      pop\n      pop\n      jump\t// out\n        /* \"#utility.yul\":3024:3278   */\n    tag_41:\n        /* \"#utility.yul\":3133:3137   */\n      0x00\n        /* \"#utility.yul\":3171:3173   */\n      0x20\n        /* \"#utility.yul\":3160:3169   */\n      dup3\n        /* \"#utility.yul\":3156:3174   */\n      add\n        /* \"#utility.yul\":3148:3174   */\n      swap1\n      pop\n        /* \"#utility.yul\":3184:3271   */\n      tag_138\n        /* \"#utility.yul\":3268:3269   */\n      0x00\n        /* \"#utility.yul\":3257:3266   */\n      dup4\n        /* \"#utility.yul\":3253:3270   */\n      add\n        /* \"#utility.yul\":3244:3250   */\n      dup5\n        /* \"#utility.yul\":3184:3271   */\n      tag_103\n      jump\t// in\n    tag_138:\n        /* \"#utility.yul\":3138:3278   */\n      swap3\n      swap2\n      pop\n      pop\n      jump\t// out\n        /* \"#utility.yul\":3284:3494   */\n    tag_27:\n        /* \"#utility.yul\":3371:3375   */\n      0x00\n        /* \"#utility.yul\":3409:3411   */\n      0x20\n        /* \"#utility.yul\":3398:3407   */\n      dup3\n        /* \"#utility.yul\":3394:3412   */\n      add\n        /* \"#utility.yul\":3386:3412   */\n      swap1\n      pop\n        /* \"#utility.yul\":3422:3487   */\n      tag_140\n        /* \"#utility.yul\":3484:3485   */\n      0x00\n        /* \"#utility.yul\":3473:3482   */\n      dup4\n        /* \"#utility.yul\":3469:3486   */\n      add\n        /* \"#utility.yul\":3460:3466   */\n      dup5\n        /* \"#utility.yul\":3422:3487   */\n      tag_107\n      jump\t// in\n    tag_140:\n        /* \"#utility.yul\":3376:3494   */\n      swap3\n      swap2\n      pop\n      pop\n      jump\t// out\n        /* \"#utility.yul\":3500:3752   */\n    tag_37:\n        /* \"#utility.yul\":3608:3612   */\n      0x00\n        /* \"#utility.yul\":3646:3648   */\n      0x20\n        /* \"#utility.yul\":3635:3644   */\n      dup3\n        /* \"#utility.yul\":3631:3649   */\n      add\n        /* \"#utility.yul\":3623:3649   */\n      swap1\n      pop\n        /* \"#utility.yul\":3659:3745   */\n      tag_142\n        /* \"#utility.yul\":3742:3743   */\n      0x00\n        /* \"#utility.yul\":3731:3740   */\n      dup4\n        /* \"#utility.yul\":3727:3744   */\n      add\n        /* \"#utility.yul\":3718:3724   */\n      dup5\n        /* \"#utility.yul\":3659:3745   */\n      tag_111\n      jump\t// in\n    tag_142:\n        /* \"#utility.yul\":3613:3752   */\n      swap3\n      swap2\n      pop\n      pop\n      jump\t// out\n        /* \"#utility.yul\":3758:4016   */\n    tag_47:\n        /* \"#utility.yul\":3869:3873   */\n      0x00\n        /* \"#utility.yul\":3907:3909   */\n      0x20\n        /* \"#utility.yul\":3896:3905   */\n      dup3\n        /* \"#utility.yul\":3892:3910   */\n      add\n        /* \"#utility.yul\":3884:3910   */\n      swap1\n      pop\n        /* \"#utility.yul\":3920:4009   */\n      tag_144\n        /* \"#utility.yul\":4006:4007   */\n      0x00\n        /* \"#utility.yul\":3995:4004   */\n      dup4\n        /* \"#utility.yul\":3991:4008   */\n      add\n        /* \"#utility.yul\":3982:3988   */\n      dup5\n        /* \"#utility.yul\":3920:4009   */\n      tag_115\n      jump\t// in\n    tag_144:\n        /* \"#utility.yul\":3874:4016   */\n      swap3\n      swap2\n      pop\n      pop\n      jump\t// out\n        /* \"#utility.yul\":4022:4270   */\n    tag_23:\n        /* \"#utility.yul\":4128:4132   */\n      0x00\n        /* \"#utility.yul\":4166:4168   */\n      0x20\n        /* \"#utility.yul\":4155:4164   */\n      dup3\n        /* \"#utility.yul\":4151:4169   */\n      add\n        /* \"#utility.yul\":4143:4169   */\n      swap1\n      pop\n        /* \"#utility.yul\":4179:4263   */\n      tag_146\n        /* \"#utility.yul\":4260:4261   */\n      0x00\n        /* \"#utility.yul\":4249:4258   */\n      dup4\n        /* \"#utility.yul\":4245:4262   */\n      add\n        /* \"#utility.yul\":4236:4242   */\n      dup5\n        /* \"#utility.yul\":4179:4263   */\n      tag_119\n      jump\t// in\n    tag_146:\n        /* \"#utility.yul\":4133:4270   */\n      swap3\n      swap2\n      pop\n      pop\n      jump\t// out\n        /* \"#utility.yul\":4276:4538   */\n    tag_55:\n        /* \"#utility.yul\":4389:4393   */\n      0x00\n        /* \"#utility.yul\":4427:4429   */\n      0x20\n        /* \"#utility.yul\":4416:4425   */\n      dup3\n        /* \"#utility.yul\":4412:4430   */\n      add\n        /* \"#utility.yul\":4404:4430   */\n      swap1\n      pop\n        /* \"#utility.yul\":4440:4531   */\n      tag_148\n        /* \"#utility.yul\":4528:4529   */\n      0x00\n        /* \"#utility.yul\":4517:4526   */\n      dup4\n        /* \"#utility.yul\":4513:4530   */\n      add\n        /* \"#utility.yul\":4504:4510   */\n      dup5\n        /* \"#utility.yul\":4440:4531   */\n      tag_123\n      jump\t// in\n    tag_148:\n        /* \"#utility.yul\":4394:4538   */\n      swap3\n      swap2\n      pop\n      pop\n      jump\t// out\n        /* \"#utility.yul\":4544:4963   */\n    tag_66:\n        /* \"#utility.yul\":4710:4714   */\n      0x00\n        /* \"#utility.yul\":4748:4750   */\n      0x20\n        /* \"#utility.yul\":4737:4746   */\n      dup3\n        /* \"#utility.yul\":4733:4751   */\n      add\n        /* \"#utility.yul\":4725:4751   */\n      swap1\n      pop\n        /* \"#utility.yul\":4797:4806   */\n      dup2\n        /* \"#utility.yul\":4791:4795   */\n      dup2\n        /* \"#utility.yul\":4787:4807   */\n      sub\n        /* \"#utility.yul\":4783:4784   */\n      0x00\n        /* \"#utility.yul\":4772:4781   */\n      dup4\n        /* \"#utility.yul\":4768:4785   */\n      add\n        /* \"#utility.yul\":4761:4808   */\n      mstore\n        /* \"#utility.yul\":4825:4956   */\n      tag_150\n        /* \"#utility.yul\":4951:4955   */\n      dup2\n        /* \"#utility.yul\":4825:4956   */\n      tag_127\n      jump\t// in\n    tag_150:\n        /* \"#utility.yul\":4817:4956   */\n      swap1\n      pop\n        /* \"#utility.yul\":4715:4963   */\n      swap2\n      swap1\n      pop\n      jump\t// out\n        /* \"#utility.yul\":4969:5191   */\n    tag_19:\n        /* \"#utility.yul\":5062:5066   */\n      0x00\n        /* \"#utility.yul\":5100:5102   */\n      0x20\n        /* \"#utility.yul\":5089:5098   */\n      dup3\n        /* \"#utility.yul\":5085:5103   */\n      add\n        /* \"#utility.yul\":5077:5103   */\n      swap1\n      pop\n        /* \"#utility.yul\":5113:5184   */\n      tag_152\n        /* \"#utility.yul\":5181:5182   */\n      0x00\n        /* \"#utility.yul\":5170:5179   */\n      dup4\n        /* \"#utility.yul\":5166:5183   */\n      add\n        /* \"#utility.yul\":5157:5163   */\n      dup5\n        /* \"#utility.yul\":5113:5184   */\n      tag_133\n      jump\t// in\n    tag_152:\n        /* \"#utility.yul\":5067:5191   */\n      swap3\n      swap2\n      pop\n      pop\n      jump\t// out\n        /* \"#utility.yul\":5197:5366   */\n    tag_130:\n        /* \"#utility.yul\":5281:5292   */\n      0x00\n        /* \"#utility.yul\":5315:5321   */\n      dup3\n        /* \"#utility.yul\":5310:5313   */\n      dup3\n        /* \"#utility.yul\":5303:5322   */\n      mstore\n        /* \"#utility.yul\":5355:5359   */\n      0x20\n        /* \"#utility.yul\":5350:5353   */\n      dup3\n        /* \"#utility.yul\":5346:5360   */\n      add\n        /* \"#utility.yul\":5331:5360   */\n      swap1\n      pop\n        /* \"#utility.yul\":5293:5366   */\n      swap3\n      swap2\n      pop\n      pop\n      jump\t// out\n        /* \"#utility.yul\":5372:5720   */\n    tag_83:\n        /* \"#utility.yul\":5412:5419   */\n      0x00\n        /* \"#utility.yul\":5435:5455   */\n      tag_155\n        /* \"#utility.yul\":5453:5454   */\n      dup3\n        /* \"#utility.yul\":5435:5455   */\n      tag_136\n      jump\t// in\n    tag_155:\n        /* \"#utility.yul\":5430:5455   */\n      swap2\n      pop\n        /* \"#utility.yul\":5469:5489   */\n      tag_156\n        /* \"#utility.yul\":5487:5488   */\n      dup4\n        /* \"#utility.yul\":5469:5489   */\n      tag_136\n      jump\t// in\n    tag_156:\n        /* \"#utility.yul\":5464:5489   */\n      swap3\n      pop\n        /* \"#utility.yul\":5657:5658   */\n      dup2\n        /* \"#utility.yul\":5589:5655   */\n      0xffffffffffffffffffffffffffffffffffffffffffffffffffffffffffffffff\n        /* \"#utility.yul\":5585:5659   */\n      div\n        /* \"#utility.yul\":5582:5583   */\n      dup4\n        /* \"#utility.yul\":5579:5660   */\n      gt\n        /* \"#utility.yul\":5574:5575   */\n      dup3\n        /* \"#utility.yul\":5567:5576   */\n      iszero\n        /* \"#utility.yul\":5560:5577   */\n      iszero\n        /* \"#utility.yul\":5556:5661   */\n      and\n        /* \"#utility.yul\":5553:5555   */\n      iszero\n      tag_157\n      jumpi\n        /* \"#utility.yul\":5664:5682   */\n      tag_158\n      tag_159\n      jump\t// in\n    tag_158:\n        /* \"#utility.yul\":5553:5555   */\n    tag_157:\n        /* \"#utility.yul\":5712:5713   */\n      dup3\n        /* \"#utility.yul\":5709:5710   */\n      dup3\n        /* \"#utility.yul\":5705:5714   */\n      mul\n        /* \"#utility.yul\":5694:5714   */\n      swap1\n      pop\n        /* \"#utility.yul\":5420:5720   */\n      swap3\n      swap2\n      pop\n      pop\n      jump\t// out\n        /* \"#utility.yul\":5726:5822   */\n    tag_160:\n        /* \"#utility.yul\":5763:5770   */\n      0x00\n        /* \"#utility.yul\":5792:5816   */\n      tag_162\n        /* \"#utility.yul\":5810:5815   */\n      dup3\n        /* \"#utility.yul\":5792:5816   */\n      tag_163\n      jump\t// in\n    tag_162:\n        /* \"#utility.yul\":5781:5816   */\n      swap1\n      pop\n        /* \"#utility.yul\":5771:5822   */\n      swap2\n      swap1\n      pop\n      jump\t// out\n        /* \"#utility.yul\":5828:5932   */\n    tag_106:\n        /* \"#utility.yul\":5873:5880   */\n      0x00\n        /* \"#utility.yul\":5902:5926   */\n      tag_165\n        /* \"#utility.yul\":5920:5925   */\n      dup3\n        /* \"#utility.yul\":5902:5926   */\n      tag_163\n      jump\t// in\n    tag_165:\n        /* \"#utility.yul\":5891:5926   */\n      swap1\n      pop\n        /* \"#utility.yul\":5881:5932   */\n      swap2\n      swap1\n      pop\n      jump\t// out\n        /* \"#utility.yul\":5938:6028   */\n    tag_110:\n        /* \"#utility.yul\":5972:5979   */\n      0x00\n        /* \"#utility.yul\":6015:6020   */\n      dup2\n        /* \"#utility.yul\":6008:6021   */\n      iszero\n        /* \"#utility.yul\":6001:6022   */\n      iszero\n        /* \"#utility.yul\":5990:6022   */\n      swap1\n      pop\n        /* \"#utility.yul\":5980:6028   */\n      swap2\n      swap1\n      pop\n      jump\t// out\n        /* \"#utility.yul\":6034:6160   */\n    tag_163:\n        /* \"#utility.yul\":6071:6078   */\n      0x00\n        /* \"#utility.yul\":6111:6153   */\n      0xffffffffffffffffffffffffffffffffffffffff\n        /* \"#utility.yul\":6104:6109   */\n      dup3\n        /* \"#utility.yul\":6100:6154   */\n      and\n        /* \"#utility.yul\":6089:6154   */\n      swap1\n      pop\n        /* \"#utility.yul\":6079:6160   */\n      swap2\n      swap1\n      pop\n      jump\t// out\n        /* \"#utility.yul\":6166:6243   */\n    tag_136:\n        /* \"#utility.yul\":6203:6210   */\n      0x00\n        /* \"#utility.yul\":6232:6237   */\n      dup2\n        /* \"#utility.yul\":6221:6237   */\n      swap1\n      pop\n        /* \"#utility.yul\":6211:6243   */\n      swap2\n      swap1\n      pop\n      jump\t// out\n        /* \"#utility.yul\":6249:6405   */\n    tag_114:\n        /* \"#utility.yul\":6314:6323   */\n      0x00\n        /* \"#utility.yul\":6347:6399   */\n      tag_170\n        /* \"#utility.yul\":6393:6398   */\n      dup3\n        /* \"#utility.yul\":6347:6399   */\n      tag_171\n      jump\t// in\n    tag_170:\n        /* \"#utility.yul\":6334:6399   */\n      swap1\n      pop\n        /* \"#utility.yul\":6324:6405   */\n      swap2\n      swap1\n      pop\n      jump\t// out\n        /* \"#utility.yul\":6411:6539   */\n    tag_171:\n        /* \"#utility.yul\":6476:6485   */\n      0x00\n        /* \"#utility.yul\":6509:6533   */\n      tag_173\n        /* \"#utility.yul\":6527:6532   */\n      dup3\n        /* \"#utility.yul\":6509:6533   */\n      tag_163\n      jump\t// in\n    tag_173:\n        /* \"#utility.yul\":6496:6533   */\n      swap1\n      pop\n        /* \"#utility.yul\":6486:6539   */\n      swap2\n      swap1\n      pop\n      jump\t// out\n        /* \"#utility.yul\":6545:6707   */\n    tag_118:\n        /* \"#utility.yul\":6613:6622   */\n      0x00\n        /* \"#utility.yul\":6646:6701   */\n      tag_175\n        /* \"#utility.yul\":6695:6700   */\n      dup3\n        /* \"#utility.yul\":6646:6701   */\n      tag_176\n      jump\t// in\n    tag_175:\n        /* \"#utility.yul\":6633:6701   */\n      swap1\n      pop\n        /* \"#utility.yul\":6623:6707   */\n      swap2\n      swap1\n      pop\n      jump\t// out\n        /* \"#utility.yul\":6713:6844   */\n    tag_176:\n        /* \"#utility.yul\":6781:6790   */\n      0x00\n        /* \"#utility.yul\":6814:6838   */\n      tag_178\n        /* \"#utility.yul\":6832:6837   */\n      dup3\n        /* \"#utility.yul\":6814:6838   */\n      tag_163\n      jump\t// in\n    tag_178:\n        /* \"#utility.yul\":6801:6838   */\n      swap1\n      pop\n        /* \"#utility.yul\":6791:6844   */\n      swap2\n      swap1\n      pop\n      jump\t// out\n        /* \"#utility.yul\":6850:7002   */\n    tag_122:\n        /* \"#utility.yul\":6913:6922   */\n      0x00\n        /* \"#utility.yul\":6946:6996   */\n      tag_180\n        /* \"#utility.yul\":6990:6995   */\n      dup3\n        /* \"#utility.yul\":6946:6996   */\n      tag_181\n      jump\t// in\n    tag_180:\n        /* \"#utility.yul\":6933:6996   */\n      swap1\n      pop\n        /* \"#utility.yul\":6923:7002   */\n      swap2\n      swap1\n      pop\n      jump\t// out\n        /* \"#utility.yul\":7008:7134   */\n    tag_181:\n        /* \"#utility.yul\":7071:7080   */\n      0x00\n        /* \"#utility.yul\":7104:7128   */\n      tag_183\n        /* \"#utility.yul\":7122:7127   */\n      dup3\n        /* \"#utility.yul\":7104:7128   */\n      tag_163\n      jump\t// in\n    tag_183:\n        /* \"#utility.yul\":7091:7128   */\n      swap1\n      pop\n        /* \"#utility.yul\":7081:7134   */\n      swap2\n      swap1\n      pop\n      jump\t// out\n        /* \"#utility.yul\":7140:7306   */\n    tag_126:\n        /* \"#utility.yul\":7210:7219   */\n      0x00\n        /* \"#utility.yul\":7243:7300   */\n      tag_185\n        /* \"#utility.yul\":7294:7299   */\n      dup3\n        /* \"#utility.yul\":7243:7300   */\n      tag_186\n      jump\t// in\n    tag_185:\n        /* \"#utility.yul\":7230:7300   */\n      swap1\n      pop\n        /* \"#utility.yul\":7220:7306   */\n      swap2\n      swap1\n      pop\n      jump\t// out\n        /* \"#utility.yul\":7312:7445   */\n    tag_186:\n        /* \"#utility.yul\":7382:7391   */\n      0x00\n        /* \"#utility.yul\":7415:7439   */\n      tag_188\n        /* \"#utility.yul\":7433:7438   */\n      dup3\n        /* \"#utility.yul\":7415:7439   */\n      tag_163\n      jump\t// in\n    tag_188:\n        /* \"#utility.yul\":7402:7439   */\n      swap1\n      pop\n        /* \"#utility.yul\":7392:7445   */\n      swap2\n      swap1\n      pop\n      jump\t// out\n        /* \"#utility.yul\":7451:7631   */\n    tag_159:\n        /* \"#utility.yul\":7499:7576   */\n      0x4e487b7100000000000000000000000000000000000000000000000000000000\n        /* \"#utility.yul\":7496:7497   */\n      0x00\n        /* \"#utility.yul\":7489:7577   */\n      mstore\n        /* \"#utility.yul\":7596:7600   */\n      0x11\n        /* \"#utility.yul\":7593:7594   */\n      0x04\n        /* \"#utility.yul\":7586:7601   */\n      mstore\n        /* \"#utility.yul\":7620:7624   */\n      0x24\n        /* \"#utility.yul\":7617:7618   */\n      0x00\n        /* \"#utility.yul\":7610:7625   */\n      revert\n        /* \"#utility.yul\":7637:7813   */\n    tag_132:\n        /* \"#utility.yul\":7777:7805   */\n      0x4865726f436f7265204572726f72203a206f6e6c794f776e6572000000000000\n        /* \"#utility.yul\":7773:7774   */\n      0x00\n        /* \"#utility.yul\":7765:7771   */\n      dup3\n        /* \"#utility.yul\":7761:7775   */\n      add\n        /* \"#utility.yul\":7754:7806   */\n      mstore\n        /* \"#utility.yul\":7743:7813   */\n      pop\n      jump\t// out\n        /* \"#utility.yul\":7819:7941   */\n    tag_88:\n        /* \"#utility.yul\":7892:7916   */\n      tag_192\n        /* \"#utility.yul\":7910:7915   */\n      dup2\n        /* \"#utility.yul\":7892:7916   */\n      tag_160\n      jump\t// in\n    tag_192:\n        /* \"#utility.yul\":7885:7890   */\n      dup2\n        /* \"#utility.yul\":7882:7917   */\n      eq\n        /* \"#utility.yul\":7872:7874   */\n      tag_193\n      jumpi\n        /* \"#utility.yul\":7931:7932   */\n      0x00\n        /* \"#utility.yul\":7928:7929   */\n      dup1\n        /* \"#utility.yul\":7921:7933   */\n      revert\n        /* \"#utility.yul\":7872:7874   */\n    tag_193:\n        /* \"#utility.yul\":7862:7941   */\n      pop\n      jump\t// out\n        /* \"#utility.yul\":7947:8069   */\n    tag_92:\n        /* \"#utility.yul\":8020:8044   */\n      tag_195\n        /* \"#utility.yul\":8038:8043   */\n      dup2\n        /* \"#utility.yul\":8020:8044   */\n      tag_136\n      jump\t// in\n    tag_195:\n        /* \"#utility.yul\":8013:8018   */\n      dup2\n        /* \"#utility.yul\":8010:8045   */\n      eq\n        /* \"#utility.yul\":8000:8002   */\n      tag_196\n      jumpi\n        /* \"#utility.yul\":8059:8060   */\n      0x00\n        /* \"#utility.yul\":8056:8057   */\n      dup1\n        /* \"#utility.yul\":8049:8061   */\n      revert\n        /* \"#utility.yul\":8000:8002   */\n    tag_196:\n        /* \"#utility.yul\":7990:8069   */\n      pop\n      jump\t// out\n\n    auxdata: 0xa2646970667358221220515ca58c727cab2cb200e58d4f092bc129055d5376fe52dfa77420cab964ad4564736f6c63430008040033\n}\n",
				"bytecode": {
					"linkReferences": {},
					"object": "608060405234801561001057600080fd5b506001600660146101000a81548160ff0219169083151502179055506001600660156101000a81548160ff02191690831515021790555033600460006101000a81548173ffffffffffffffffffffffffffffffffffffffff021916908373ffffffffffffffffffffffffffffffffffffffff160217905550610b47806100976000396000f3fe608060405234801561001057600080fd5b50600436106100b45760003560e01c8063893d20e811610071578063893d20e81461016d5780639eb4eae51461018b578063c412eaba14610195578063c740671f146101b3578063d36d0c18146101cf578063ee72b8cc146101ed576100b4565b80631b9cbdfb146100b957806321df0da7146100d757806328919df6146100f55780633a1a8080146101135780636805b84b146101315780637cac00ee1461014f575b600080fd5b6100c16101f7565b6040516100ce919061091b565b60405180910390f35b6100df6101fd565b6040516100ec91906108c5565b60405180910390f35b6100fd610227565b60405161010a9190610874565b60405180910390f35b61011b61023e565b604051610128919061091b565b60405180910390f35b610139610244565b6040516101469190610874565b60405180910390f35b61015761025b565b604051610164919061088f565b60405180910390f35b610175610284565b6040516101829190610859565b60405180910390f35b6101936102ae565b005b61019d61036a565b6040516101aa91906108aa565b60405180910390f35b6101cd60048036038101906101c8919061071b565b610394565b005b6101d76105f5565b6040516101e491906108e0565b60405180910390f35b6101f561061f565b005b60085481565b6000600160009054906101000a900473ffffffffffffffffffffffffffffffffffffffff16905090565b6000600660159054906101000a900460ff16905090565b60075481565b6000600660149054906101000a900460ff16905090565b60008060009054906101000a900473ffffffffffffffffffffffffffffffffffffffff16905090565b6000600460009054906101000a900473ffffffffffffffffffffffffffffffffffffffff16905090565b600460009054906101000a900473ffffffffffffffffffffffffffffffffffffffff1673ffffffffffffffffffffffffffffffffffffffff163373ffffffffffffffffffffffffffffffffffffffff161461033e576040517f08c379a0000000000000000000000000000000000000000000000000000000008152600401610335906108fb565b60405180910390fd5b600660149054906101000a900460ff1615600660146101000a81548160ff021916908315150217905550565b6000600260009054906101000a900473ffffffffffffffffffffffffffffffffffffffff16905090565b600460009054906101000a900473ffffffffffffffffffffffffffffffffffffffff1673ffffffffffffffffffffffffffffffffffffffff163373ffffffffffffffffffffffffffffffffffffffff1614610424576040517f08c379a000000000000000000000000000000000000000000000000000000000815260040161041b906108fb565b60405180910390fd5b61043f670de0b6b3a7640000836106db90919063ffffffff16565b600781905550610460670de0b6b3a7640000826106db90919063ffffffff16565b600881905550876000806101000a81548173ffffffffffffffffffffffffffffffffffffffff021916908373ffffffffffffffffffffffffffffffffffffffff16021790555086600160006101000a81548173ffffffffffffffffffffffffffffffffffffffff021916908373ffffffffffffffffffffffffffffffffffffffff16021790555085600260006101000a81548173ffffffffffffffffffffffffffffffffffffffff021916908373ffffffffffffffffffffffffffffffffffffffff16021790555084600360006101000a81548173ffffffffffffffffffffffffffffffffffffffff021916908373ffffffffffffffffffffffffffffffffffffffff16021790555083600560006101000a81548173ffffffffffffffffffffffffffffffffffffffff021916908373ffffffffffffffffffffffffffffffffffffffff16021790555082600660006101000a81548173ffffffffffffffffffffffffffffffffffffffff021916908373ffffffffffffffffffffffffffffffffffffffff1602179055505050505050505050565b6000600360009054906101000a900473ffffffffffffffffffffffffffffffffffffffff16905090565b600460009054906101000a900473ffffffffffffffffffffffffffffffffffffffff1673ffffffffffffffffffffffffffffffffffffffff163373ffffffffffffffffffffffffffffffffffffffff16146106af576040517f08c379a00000000000000000000000000000000000000000000000000000000081526004016106a6906108fb565b60405180910390fd5b600660159054906101000a900460ff1615600660156101000a81548160ff021916908315150217905550565b600081836106e99190610947565b905092915050565b60008135905061070081610ae3565b92915050565b60008135905061071581610afa565b92915050565b600080600080600080600080610100898b03121561073857600080fd5b60006107468b828c016106f1565b98505060206107578b828c016106f1565b97505060406107688b828c016106f1565b96505060606107798b828c016106f1565b955050608061078a8b828c016106f1565b94505060a061079b8b828c016106f1565b93505060c06107ac8b828c01610706565b92505060e06107bd8b828c01610706565b9150509295985092959890939650565b6107d6816109b3565b82525050565b6107e5816109c5565b82525050565b6107f4816109fb565b82525050565b61080381610a1f565b82525050565b61081281610a43565b82525050565b61082181610a67565b82525050565b6000610834601a83610936565b915061083f82610aba565b602082019050919050565b610853816109f1565b82525050565b600060208201905061086e60008301846107cd565b92915050565b600060208201905061088960008301846107dc565b92915050565b60006020820190506108a460008301846107eb565b92915050565b60006020820190506108bf60008301846107fa565b92915050565b60006020820190506108da6000830184610809565b92915050565b60006020820190506108f56000830184610818565b92915050565b6000602082019050818103600083015261091481610827565b9050919050565b6000602082019050610930600083018461084a565b92915050565b600082825260208201905092915050565b6000610952826109f1565b915061095d836109f1565b9250817fffffffffffffffffffffffffffffffffffffffffffffffffffffffffffffffff048311821515161561099657610995610a8b565b5b828202905092915050565b60006109ac826109d1565b9050919050565b60006109be826109d1565b9050919050565b60008115159050919050565b600073ffffffffffffffffffffffffffffffffffffffff82169050919050565b6000819050919050565b6000610a0682610a0d565b9050919050565b6000610a18826109d1565b9050919050565b6000610a2a82610a31565b9050919050565b6000610a3c826109d1565b9050919050565b6000610a4e82610a55565b9050919050565b6000610a60826109d1565b9050919050565b6000610a7282610a79565b9050919050565b6000610a84826109d1565b9050919050565b7f4e487b7100000000000000000000000000000000000000000000000000000000600052601160045260246000fd5b7f4865726f436f7265204572726f72203a206f6e6c794f776e6572000000000000600082015250565b610aec816109a1565b8114610af757600080fd5b50565b610b03816109f1565b8114610b0e57600080fd5b5056fea2646970667358221220515ca58c727cab2cb200e58d4f092bc129055d5376fe52dfa77420cab964ad4564736f6c63430008040033",
					"opcodes": "PUSH1 0x80 PUSH1 0x40 MSTORE CALLVALUE DUP1 ISZERO PUSH2 0x10 JUMPI PUSH1 0x0 DUP1 REVERT JUMPDEST POP PUSH1 0x1 PUSH1 0x6 PUSH1 0x14 PUSH2 0x100 EXP DUP2 SLOAD DUP2 PUSH1 0xFF MUL NOT AND SWAP1 DUP4 ISZERO ISZERO MUL OR SWAP1 SSTORE POP PUSH1 0x1 PUSH1 0x6 PUSH1 0x15 PUSH2 0x100 EXP DUP2 SLOAD DUP2 PUSH1 0xFF MUL NOT AND SWAP1 DUP4 ISZERO ISZERO MUL OR SWAP1 SSTORE POP CALLER PUSH1 0x4 PUSH1 0x0 PUSH2 0x100 EXP DUP2 SLOAD DUP2 PUSH20 0xFFFFFFFFFFFFFFFFFFFFFFFFFFFFFFFFFFFFFFFF MUL NOT AND SWAP1 DUP4 PUSH20 0xFFFFFFFFFFFFFFFFFFFFFFFFFFFFFFFFFFFFFFFF AND MUL OR SWAP1 SSTORE POP PUSH2 0xB47 DUP1 PUSH2 0x97 PUSH1 0x0 CODECOPY PUSH1 0x0 RETURN INVALID PUSH1 0x80 PUSH1 0x40 MSTORE CALLVALUE DUP1 ISZERO PUSH2 0x10 JUMPI PUSH1 0x0 DUP1 REVERT JUMPDEST POP PUSH1 0x4 CALLDATASIZE LT PUSH2 0xB4 JUMPI PUSH1 0x0 CALLDATALOAD PUSH1 0xE0 SHR DUP1 PUSH4 0x893D20E8 GT PUSH2 0x71 JUMPI DUP1 PUSH4 0x893D20E8 EQ PUSH2 0x16D JUMPI DUP1 PUSH4 0x9EB4EAE5 EQ PUSH2 0x18B JUMPI DUP1 PUSH4 0xC412EABA EQ PUSH2 0x195 JUMPI DUP1 PUSH4 0xC740671F EQ PUSH2 0x1B3 JUMPI DUP1 PUSH4 0xD36D0C18 EQ PUSH2 0x1CF JUMPI DUP1 PUSH4 0xEE72B8CC EQ PUSH2 0x1ED JUMPI PUSH2 0xB4 JUMP JUMPDEST DUP1 PUSH4 0x1B9CBDFB EQ PUSH2 0xB9 JUMPI DUP1 PUSH4 0x21DF0DA7 EQ PUSH2 0xD7 JUMPI DUP1 PUSH4 0x28919DF6 EQ PUSH2 0xF5 JUMPI DUP1 PUSH4 0x3A1A8080 EQ PUSH2 0x113 JUMPI DUP1 PUSH4 0x6805B84B EQ PUSH2 0x131 JUMPI DUP1 PUSH4 0x7CAC00EE EQ PUSH2 0x14F JUMPI JUMPDEST PUSH1 0x0 DUP1 REVERT JUMPDEST PUSH2 0xC1 PUSH2 0x1F7 JUMP JUMPDEST PUSH1 0x40 MLOAD PUSH2 0xCE SWAP2 SWAP1 PUSH2 0x91B JUMP JUMPDEST PUSH1 0x40 MLOAD DUP1 SWAP2 SUB SWAP1 RETURN JUMPDEST PUSH2 0xDF PUSH2 0x1FD JUMP JUMPDEST PUSH1 0x40 MLOAD PUSH2 0xEC SWAP2 SWAP1 PUSH2 0x8C5 JUMP JUMPDEST PUSH1 0x40 MLOAD DUP1 SWAP2 SUB SWAP1 RETURN JUMPDEST PUSH2 0xFD PUSH2 0x227 JUMP JUMPDEST PUSH1 0x40 MLOAD PUSH2 0x10A SWAP2 SWAP1 PUSH2 0x874 JUMP JUMPDEST PUSH1 0x40 MLOAD DUP1 SWAP2 SUB SWAP1 RETURN JUMPDEST PUSH2 0x11B PUSH2 0x23E JUMP JUMPDEST PUSH1 0x40 MLOAD PUSH2 0x128 SWAP2 SWAP1 PUSH2 0x91B JUMP JUMPDEST PUSH1 0x40 MLOAD DUP1 SWAP2 SUB SWAP1 RETURN JUMPDEST PUSH2 0x139 PUSH2 0x244 JUMP JUMPDEST PUSH1 0x40 MLOAD PUSH2 0x146 SWAP2 SWAP1 PUSH2 0x874 JUMP JUMPDEST PUSH1 0x40 MLOAD DUP1 SWAP2 SUB SWAP1 RETURN JUMPDEST PUSH2 0x157 PUSH2 0x25B JUMP JUMPDEST PUSH1 0x40 MLOAD PUSH2 0x164 SWAP2 SWAP1 PUSH2 0x88F JUMP JUMPDEST PUSH1 0x40 MLOAD DUP1 SWAP2 SUB SWAP1 RETURN JUMPDEST PUSH2 0x175 PUSH2 0x284 JUMP JUMPDEST PUSH1 0x40 MLOAD PUSH2 0x182 SWAP2 SWAP1 PUSH2 0x859 JUMP JUMPDEST PUSH1 0x40 MLOAD DUP1 SWAP2 SUB SWAP1 RETURN JUMPDEST PUSH2 0x193 PUSH2 0x2AE JUMP JUMPDEST STOP JUMPDEST PUSH2 0x19D PUSH2 0x36A JUMP JUMPDEST PUSH1 0x40 MLOAD PUSH2 0x1AA SWAP2 SWAP1 PUSH2 0x8AA JUMP JUMPDEST PUSH1 0x40 MLOAD DUP1 SWAP2 SUB SWAP1 RETURN JUMPDEST PUSH2 0x1CD PUSH1 0x4 DUP1 CALLDATASIZE SUB DUP2 ADD SWAP1 PUSH2 0x1C8 SWAP2 SWAP1 PUSH2 0x71B JUMP JUMPDEST PUSH2 0x394 JUMP JUMPDEST STOP JUMPDEST PUSH2 0x1D7 PUSH2 0x5F5 JUMP JUMPDEST PUSH1 0x40 MLOAD PUSH2 0x1E4 SWAP2 SWAP1 PUSH2 0x8E0 JUMP JUMPDEST PUSH1 0x40 MLOAD DUP1 SWAP2 SUB SWAP1 RETURN JUMPDEST PUSH2 0x1F5 PUSH2 0x61F JUMP JUMPDEST STOP JUMPDEST PUSH1 0x8 SLOAD DUP2 JUMP JUMPDEST PUSH1 0x0 PUSH1 0x1 PUSH1 0x0 SWAP1 SLOAD SWAP1 PUSH2 0x100 EXP SWAP1 DIV PUSH20 0xFFFFFFFFFFFFFFFFFFFFFFFFFFFFFFFFFFFFFFFF AND SWAP1 POP SWAP1 JUMP JUMPDEST PUSH1 0x0 PUSH1 0x6 PUSH1 0x15 SWAP1 SLOAD SWAP1 PUSH2 0x100 EXP SWAP1 DIV PUSH1 0xFF AND SWAP1 POP SWAP1 JUMP JUMPDEST PUSH1 0x7 SLOAD DUP2 JUMP JUMPDEST PUSH1 0x0 PUSH1 0x6 PUSH1 0x14 SWAP1 SLOAD SWAP1 PUSH2 0x100 EXP SWAP1 DIV PUSH1 0xFF AND SWAP1 POP SWAP1 JUMP JUMPDEST PUSH1 0x0 DUP1 PUSH1 0x0 SWAP1 SLOAD SWAP1 PUSH2 0x100 EXP SWAP1 DIV PUSH20 0xFFFFFFFFFFFFFFFFFFFFFFFFFFFFFFFFFFFFFFFF AND SWAP1 POP SWAP1 JUMP JUMPDEST PUSH1 0x0 PUSH1 0x4 PUSH1 0x0 SWAP1 SLOAD SWAP1 PUSH2 0x100 EXP SWAP1 DIV PUSH20 0xFFFFFFFFFFFFFFFFFFFFFFFFFFFFFFFFFFFFFFFF AND SWAP1 POP SWAP1 JUMP JUMPDEST PUSH1 0x4 PUSH1 0x0 SWAP1 SLOAD SWAP1 PUSH2 0x100 EXP SWAP1 DIV PUSH20 0xFFFFFFFFFFFFFFFFFFFFFFFFFFFFFFFFFFFFFFFF AND PUSH20 0xFFFFFFFFFFFFFFFFFFFFFFFFFFFFFFFFFFFFFFFF AND CALLER PUSH20 0xFFFFFFFFFFFFFFFFFFFFFFFFFFFFFFFFFFFFFFFF AND EQ PUSH2 0x33E JUMPI PUSH1 0x40 MLOAD PUSH32 0x8C379A000000000000000000000000000000000000000000000000000000000 DUP2 MSTORE PUSH1 0x4 ADD PUSH2 0x335 SWAP1 PUSH2 0x8FB JUMP JUMPDEST PUSH1 0x40 MLOAD DUP1 SWAP2 SUB SWAP1 REVERT JUMPDEST PUSH1 0x6 PUSH1 0x14 SWAP1 SLOAD SWAP1 PUSH2 0x100 EXP SWAP1 DIV PUSH1 0xFF AND ISZERO PUSH1 0x6 PUSH1 0x14 PUSH2 0x100 EXP DUP2 SLOAD DUP2 PUSH1 0xFF MUL NOT AND SWAP1 DUP4 ISZERO ISZERO MUL OR SWAP1 SSTORE POP JUMP JUMPDEST PUSH1 0x0 PUSH1 0x2 PUSH1 0x0 SWAP1 SLOAD SWAP1 PUSH2 0x100 EXP SWAP1 DIV PUSH20 0xFFFFFFFFFFFFFFFFFFFFFFFFFFFFFFFFFFFFFFFF AND SWAP1 POP SWAP1 JUMP JUMPDEST PUSH1 0x4 PUSH1 0x0 SWAP1 SLOAD SWAP1 PUSH2 0x100 EXP SWAP1 DIV PUSH20 0xFFFFFFFFFFFFFFFFFFFFFFFFFFFFFFFFFFFFFFFF AND PUSH20 0xFFFFFFFFFFFFFFFFFFFFFFFFFFFFFFFFFFFFFFFF AND CALLER PUSH20 0xFFFFFFFFFFFFFFFFFFFFFFFFFFFFFFFFFFFFFFFF AND EQ PUSH2 0x424 JUMPI PUSH1 0x40 MLOAD PUSH32 0x8C379A000000000000000000000000000000000000000000000000000000000 DUP2 MSTORE PUSH1 0x4 ADD PUSH2 0x41B SWAP1 PUSH2 0x8FB JUMP JUMPDEST PUSH1 0x40 MLOAD DUP1 SWAP2 SUB SWAP1 REVERT JUMPDEST PUSH2 0x43F PUSH8 0xDE0B6B3A7640000 DUP4 PUSH2 0x6DB SWAP1 SWAP2 SWAP1 PUSH4 0xFFFFFFFF AND JUMP JUMPDEST PUSH1 0x7 DUP2 SWAP1 SSTORE POP PUSH2 0x460 PUSH8 0xDE0B6B3A7640000 DUP3 PUSH2 0x6DB SWAP1 SWAP2 SWAP1 PUSH4 0xFFFFFFFF AND JUMP JUMPDEST PUSH1 0x8 DUP2 SWAP1 SSTORE POP DUP8 PUSH1 0x0 DUP1 PUSH2 0x100 EXP DUP2 SLOAD DUP2 PUSH20 0xFFFFFFFFFFFFFFFFFFFFFFFFFFFFFFFFFFFFFFFF MUL NOT AND SWAP1 DUP4 PUSH20 0xFFFFFFFFFFFFFFFFFFFFFFFFFFFFFFFFFFFFFFFF AND MUL OR SWAP1 SSTORE POP DUP7 PUSH1 0x1 PUSH1 0x0 PUSH2 0x100 EXP DUP2 SLOAD DUP2 PUSH20 0xFFFFFFFFFFFFFFFFFFFFFFFFFFFFFFFFFFFFFFFF MUL NOT AND SWAP1 DUP4 PUSH20 0xFFFFFFFFFFFFFFFFFFFFFFFFFFFFFFFFFFFFFFFF AND MUL OR SWAP1 SSTORE POP DUP6 PUSH1 0x2 PUSH1 0x0 PUSH2 0x100 EXP DUP2 SLOAD DUP2 PUSH20 0xFFFFFFFFFFFFFFFFFFFFFFFFFFFFFFFFFFFFFFFF MUL NOT AND SWAP1 DUP4 PUSH20 0xFFFFFFFFFFFFFFFFFFFFFFFFFFFFFFFFFFFFFFFF AND MUL OR SWAP1 SSTORE POP DUP5 PUSH1 0x3 PUSH1 0x0 PUSH2 0x100 EXP DUP2 SLOAD DUP2 PUSH20 0xFFFFFFFFFFFFFFFFFFFFFFFFFFFFFFFFFFFFFFFF MUL NOT AND SWAP1 DUP4 PUSH20 0xFFFFFFFFFFFFFFFFFFFFFFFFFFFFFFFFFFFFFFFF AND MUL OR SWAP1 SSTORE POP DUP4 PUSH1 0x5 PUSH1 0x0 PUSH2 0x100 EXP DUP2 SLOAD DUP2 PUSH20 0xFFFFFFFFFFFFFFFFFFFFFFFFFFFFFFFFFFFFFFFF MUL NOT AND SWAP1 DUP4 PUSH20 0xFFFFFFFFFFFFFFFFFFFFFFFFFFFFFFFFFFFFFFFF AND MUL OR SWAP1 SSTORE POP DUP3 PUSH1 0x6 PUSH1 0x0 PUSH2 0x100 EXP DUP2 SLOAD DUP2 PUSH20 0xFFFFFFFFFFFFFFFFFFFFFFFFFFFFFFFFFFFFFFFF MUL NOT AND SWAP1 DUP4 PUSH20 0xFFFFFFFFFFFFFFFFFFFFFFFFFFFFFFFFFFFFFFFF AND MUL OR SWAP1 SSTORE POP POP POP POP POP POP POP POP POP JUMP JUMPDEST PUSH1 0x0 PUSH1 0x3 PUSH1 0x0 SWAP1 SLOAD SWAP1 PUSH2 0x100 EXP SWAP1 DIV PUSH20 0xFFFFFFFFFFFFFFFFFFFFFFFFFFFFFFFFFFFFFFFF AND SWAP1 POP SWAP1 JUMP JUMPDEST PUSH1 0x4 PUSH1 0x0 SWAP1 SLOAD SWAP1 PUSH2 0x100 EXP SWAP1 DIV PUSH20 0xFFFFFFFFFFFFFFFFFFFFFFFFFFFFFFFFFFFFFFFF AND PUSH20 0xFFFFFFFFFFFFFFFFFFFFFFFFFFFFFFFFFFFFFFFF AND CALLER PUSH20 0xFFFFFFFFFFFFFFFFFFFFFFFFFFFFFFFFFFFFFFFF AND EQ PUSH2 0x6AF JUMPI PUSH1 0x40 MLOAD PUSH32 0x8C379A000000000000000000000000000000000000000000000000000000000 DUP2 MSTORE PUSH1 0x4 ADD PUSH2 0x6A6 SWAP1 PUSH2 0x8FB JUMP JUMPDEST PUSH1 0x40 MLOAD DUP1 SWAP2 SUB SWAP1 REVERT JUMPDEST PUSH1 0x6 PUSH1 0x15 SWAP1 SLOAD SWAP1 PUSH2 0x100 EXP SWAP1 DIV PUSH1 0xFF AND ISZERO PUSH1 0x6 PUSH1 0x15 PUSH2 0x100 EXP DUP2 SLOAD DUP2 PUSH1 0xFF MUL NOT AND SWAP1 DUP4 ISZERO ISZERO MUL OR SWAP1 SSTORE POP JUMP JUMPDEST PUSH1 0x0 DUP2 DUP4 PUSH2 0x6E9 SWAP2 SWAP1 PUSH2 0x947 JUMP JUMPDEST SWAP1 POP SWAP3 SWAP2 POP POP JUMP JUMPDEST PUSH1 0x0 DUP2 CALLDATALOAD SWAP1 POP PUSH2 0x700 DUP2 PUSH2 0xAE3 JUMP JUMPDEST SWAP3 SWAP2 POP POP JUMP JUMPDEST PUSH1 0x0 DUP2 CALLDATALOAD SWAP1 POP PUSH2 0x715 DUP2 PUSH2 0xAFA JUMP JUMPDEST SWAP3 SWAP2 POP POP JUMP JUMPDEST PUSH1 0x0 DUP1 PUSH1 0x0 DUP1 PUSH1 0x0 DUP1 PUSH1 0x0 DUP1 PUSH2 0x100 DUP10 DUP12 SUB SLT ISZERO PUSH2 0x738 JUMPI PUSH1 0x0 DUP1 REVERT JUMPDEST PUSH1 0x0 PUSH2 0x746 DUP12 DUP3 DUP13 ADD PUSH2 0x6F1 JUMP JUMPDEST SWAP9 POP POP PUSH1 0x20 PUSH2 0x757 DUP12 DUP3 DUP13 ADD PUSH2 0x6F1 JUMP JUMPDEST SWAP8 POP POP PUSH1 0x40 PUSH2 0x768 DUP12 DUP3 DUP13 ADD PUSH2 0x6F1 JUMP JUMPDEST SWAP7 POP POP PUSH1 0x60 PUSH2 0x779 DUP12 DUP3 DUP13 ADD PUSH2 0x6F1 JUMP JUMPDEST SWAP6 POP POP PUSH1 0x80 PUSH2 0x78A DUP12 DUP3 DUP13 ADD PUSH2 0x6F1 JUMP JUMPDEST SWAP5 POP POP PUSH1 0xA0 PUSH2 0x79B DUP12 DUP3 DUP13 ADD PUSH2 0x6F1 JUMP JUMPDEST SWAP4 POP POP PUSH1 0xC0 PUSH2 0x7AC DUP12 DUP3 DUP13 ADD PUSH2 0x706 JUMP JUMPDEST SWAP3 POP POP PUSH1 0xE0 PUSH2 0x7BD DUP12 DUP3 DUP13 ADD PUSH2 0x706 JUMP JUMPDEST SWAP2 POP POP SWAP3 SWAP6 SWAP9 POP SWAP3 SWAP6 SWAP9 SWAP1 SWAP4 SWAP7 POP JUMP JUMPDEST PUSH2 0x7D6 DUP2 PUSH2 0x9B3 JUMP JUMPDEST DUP3 MSTORE POP POP JUMP JUMPDEST PUSH2 0x7E5 DUP2 PUSH2 0x9C5 JUMP JUMPDEST DUP3 MSTORE POP POP JUMP JUMPDEST PUSH2 0x7F4 DUP2 PUSH2 0x9FB JUMP JUMPDEST DUP3 MSTORE POP POP JUMP JUMPDEST PUSH2 0x803 DUP2 PUSH2 0xA1F JUMP JUMPDEST DUP3 MSTORE POP POP JUMP JUMPDEST PUSH2 0x812 DUP2 PUSH2 0xA43 JUMP JUMPDEST DUP3 MSTORE POP POP JUMP JUMPDEST PUSH2 0x821 DUP2 PUSH2 0xA67 JUMP JUMPDEST DUP3 MSTORE POP POP JUMP JUMPDEST PUSH1 0x0 PUSH2 0x834 PUSH1 0x1A DUP4 PUSH2 0x936 JUMP JUMPDEST SWAP2 POP PUSH2 0x83F DUP3 PUSH2 0xABA JUMP JUMPDEST PUSH1 0x20 DUP3 ADD SWAP1 POP SWAP2 SWAP1 POP JUMP JUMPDEST PUSH2 0x853 DUP2 PUSH2 0x9F1 JUMP JUMPDEST DUP3 MSTORE POP POP JUMP JUMPDEST PUSH1 0x0 PUSH1 0x20 DUP3 ADD SWAP1 POP PUSH2 0x86E PUSH1 0x0 DUP4 ADD DUP5 PUSH2 0x7CD JUMP JUMPDEST SWAP3 SWAP2 POP POP JUMP JUMPDEST PUSH1 0x0 PUSH1 0x20 DUP3 ADD SWAP1 POP PUSH2 0x889 PUSH1 0x0 DUP4 ADD DUP5 PUSH2 0x7DC JUMP JUMPDEST SWAP3 SWAP2 POP POP JUMP JUMPDEST PUSH1 0x0 PUSH1 0x20 DUP3 ADD SWAP1 POP PUSH2 0x8A4 PUSH1 0x0 DUP4 ADD DUP5 PUSH2 0x7EB JUMP JUMPDEST SWAP3 SWAP2 POP POP JUMP JUMPDEST PUSH1 0x0 PUSH1 0x20 DUP3 ADD SWAP1 POP PUSH2 0x8BF PUSH1 0x0 DUP4 ADD DUP5 PUSH2 0x7FA JUMP JUMPDEST SWAP3 SWAP2 POP POP JUMP JUMPDEST PUSH1 0x0 PUSH1 0x20 DUP3 ADD SWAP1 POP PUSH2 0x8DA PUSH1 0x0 DUP4 ADD DUP5 PUSH2 0x809 JUMP JUMPDEST SWAP3 SWAP2 POP POP JUMP JUMPDEST PUSH1 0x0 PUSH1 0x20 DUP3 ADD SWAP1 POP PUSH2 0x8F5 PUSH1 0x0 DUP4 ADD DUP5 PUSH2 0x818 JUMP JUMPDEST SWAP3 SWAP2 POP POP JUMP JUMPDEST PUSH1 0x0 PUSH1 0x20 DUP3 ADD SWAP1 POP DUP2 DUP2 SUB PUSH1 0x0 DUP4 ADD MSTORE PUSH2 0x914 DUP2 PUSH2 0x827 JUMP JUMPDEST SWAP1 POP SWAP2 SWAP1 POP JUMP JUMPDEST PUSH1 0x0 PUSH1 0x20 DUP3 ADD SWAP1 POP PUSH2 0x930 PUSH1 0x0 DUP4 ADD DUP5 PUSH2 0x84A JUMP JUMPDEST SWAP3 SWAP2 POP POP JUMP JUMPDEST PUSH1 0x0 DUP3 DUP3 MSTORE PUSH1 0x20 DUP3 ADD SWAP1 POP SWAP3 SWAP2 POP POP JUMP JUMPDEST PUSH1 0x0 PUSH2 0x952 DUP3 PUSH2 0x9F1 JUMP JUMPDEST SWAP2 POP PUSH2 0x95D DUP4 PUSH2 0x9F1 JUMP JUMPDEST SWAP3 POP DUP2 PUSH32 0xFFFFFFFFFFFFFFFFFFFFFFFFFFFFFFFFFFFFFFFFFFFFFFFFFFFFFFFFFFFFFFFF DIV DUP4 GT DUP3 ISZERO ISZERO AND ISZERO PUSH2 0x996 JUMPI PUSH2 0x995 PUSH2 0xA8B JUMP JUMPDEST JUMPDEST DUP3 DUP3 MUL SWAP1 POP SWAP3 SWAP2 POP POP JUMP JUMPDEST PUSH1 0x0 PUSH2 0x9AC DUP3 PUSH2 0x9D1 JUMP JUMPDEST SWAP1 POP SWAP2 SWAP1 POP JUMP JUMPDEST PUSH1 0x0 PUSH2 0x9BE DUP3 PUSH2 0x9D1 JUMP JUMPDEST SWAP1 POP SWAP2 SWAP1 POP JUMP JUMPDEST PUSH1 0x0 DUP2 ISZERO ISZERO SWAP1 POP SWAP2 SWAP1 POP JUMP JUMPDEST PUSH1 0x0 PUSH20 0xFFFFFFFFFFFFFFFFFFFFFFFFFFFFFFFFFFFFFFFF DUP3 AND SWAP1 POP SWAP2 SWAP1 POP JUMP JUMPDEST PUSH1 0x0 DUP2 SWAP1 POP SWAP2 SWAP1 POP JUMP JUMPDEST PUSH1 0x0 PUSH2 0xA06 DUP3 PUSH2 0xA0D JUMP JUMPDEST SWAP1 POP SWAP2 SWAP1 POP JUMP JUMPDEST PUSH1 0x0 PUSH2 0xA18 DUP3 PUSH2 0x9D1 JUMP JUMPDEST SWAP1 POP SWAP2 SWAP1 POP JUMP JUMPDEST PUSH1 0x0 PUSH2 0xA2A DUP3 PUSH2 0xA31 JUMP JUMPDEST SWAP1 POP SWAP2 SWAP1 POP JUMP JUMPDEST PUSH1 0x0 PUSH2 0xA3C DUP3 PUSH2 0x9D1 JUMP JUMPDEST SWAP1 POP SWAP2 SWAP1 POP JUMP JUMPDEST PUSH1 0x0 PUSH2 0xA4E DUP3 PUSH2 0xA55 JUMP JUMPDEST SWAP1 POP SWAP2 SWAP1 POP JUMP JUMPDEST PUSH1 0x0 PUSH2 0xA60 DUP3 PUSH2 0x9D1 JUMP JUMPDEST SWAP1 POP SWAP2 SWAP1 POP JUMP JUMPDEST PUSH1 0x0 PUSH2 0xA72 DUP3 PUSH2 0xA79 JUMP JUMPDEST SWAP1 POP SWAP2 SWAP1 POP JUMP JUMPDEST PUSH1 0x0 PUSH2 0xA84 DUP3 PUSH2 0x9D1 JUMP JUMPDEST SWAP1 POP SWAP2 SWAP1 POP JUMP JUMPDEST PUSH32 0x4E487B7100000000000000000000000000000000000000000000000000000000 PUSH1 0x0 MSTORE PUSH1 0x11 PUSH1 0x4 MSTORE PUSH1 0x24 PUSH1 0x0 REVERT JUMPDEST PUSH32 0x4865726F436F7265204572726F72203A206F6E6C794F776E6572000000000000 PUSH1 0x0 DUP3 ADD MSTORE POP JUMP JUMPDEST PUSH2 0xAEC DUP2 PUSH2 0x9A1 JUMP JUMPDEST DUP2 EQ PUSH2 0xAF7 JUMPI PUSH1 0x0 DUP1 REVERT JUMPDEST POP JUMP JUMPDEST PUSH2 0xB03 DUP2 PUSH2 0x9F1 JUMP JUMPDEST DUP2 EQ PUSH2 0xB0E JUMPI PUSH1 0x0 DUP1 REVERT JUMPDEST POP JUMP INVALID LOG2 PUSH5 0x6970667358 0x22 SLT KECCAK256 MLOAD 0x5C 0xA5 DUP13 PUSH19 0x7CAB2CB200E58D4F092BC129055D5376FE52DF 0xA7 PUSH21 0x20CAB964AD4564736F6C6343000804003300000000 "
				},
				"gasEstimates": {
					"creation": {
						"codeDepositCost": "577400",
						"executionCost": "63313",
						"totalCost": "640713"
					},
					"external": {
						"changeMiningPaused()": "22930",
						"changePaused()": "22842",
						"getHeroNFT()": "1376",
						"getItem()": "1309",
						"getLevelDiagram()": "1353",
						"getMiningPaused()": "1274",
						"getOwner()": "1222",
						"getPaused()": "1318",
						"getToken()": "1288",
						"initialize(address,address,address,address,address,address,uint256,uint256)": "infinite",
						"priceOfKlay()": "1196",
						"priceOfToken()": "1130"
					},
					"internal": {
						"_currentTime()": "infinite"
					}
				},
				"methodIdentifiers": {
					"changeMiningPaused()": "ee72b8cc",
					"changePaused()": "9eb4eae5",
					"getHeroNFT()": "7cac00ee",
					"getItem()": "c412eaba",
					"getLevelDiagram()": "d36d0c18",
					"getMiningPaused()": "28919df6",
					"getOwner()": "893d20e8",
					"getPaused()": "6805b84b",
					"getToken()": "21df0da7",
					"initialize(address,address,address,address,address,address,uint256,uint256)": "c740671f",
					"priceOfKlay()": "3a1a8080",
					"priceOfToken()": "1b9cbdfb"
				}
			},
			"storageLayout": {
				"storage": [
					{
						"astId": 91,
						"contract": "Hero/utils/HeroController.sol:HeroController",
						"label": "heroNFT",
						"offset": 0,
						"slot": "0",
						"type": "t_contract(IHeroNFT)30"
					},
					{
						"astId": 94,
						"contract": "Hero/utils/HeroController.sol:HeroController",
						"label": "token",
						"offset": 0,
						"slot": "1",
						"type": "t_contract(IKIP7)720"
					},
					{
						"astId": 97,
						"contract": "Hero/utils/HeroController.sol:HeroController",
						"label": "item",
						"offset": 0,
						"slot": "2",
						"type": "t_contract(IKIP37Full)589"
					},
					{
						"astId": 100,
						"contract": "Hero/utils/HeroController.sol:HeroController",
						"label": "levelDiagram",
						"offset": 0,
						"slot": "3",
						"type": "t_contract(ILevelDiagram)79"
					},
					{
						"astId": 102,
						"contract": "Hero/utils/HeroController.sol:HeroController",
						"label": "coreOwner",
						"offset": 0,
						"slot": "4",
						"type": "t_address_payable"
					},
					{
						"astId": 104,
						"contract": "Hero/utils/HeroController.sol:HeroController",
						"label": "depositAddress",
						"offset": 0,
						"slot": "5",
						"type": "t_address"
					},
					{
						"astId": 106,
						"contract": "Hero/utils/HeroController.sol:HeroController",
						"label": "miningAddress",
						"offset": 0,
						"slot": "6",
						"type": "t_address"
					},
					{
						"astId": 108,
						"contract": "Hero/utils/HeroController.sol:HeroController",
						"label": "paused",
						"offset": 20,
						"slot": "6",
						"type": "t_bool"
					},
					{
						"astId": 110,
						"contract": "Hero/utils/HeroController.sol:HeroController",
						"label": "miningPaused",
						"offset": 21,
						"slot": "6",
						"type": "t_bool"
					},
					{
						"astId": 112,
						"contract": "Hero/utils/HeroController.sol:HeroController",
						"label": "priceOfKlay",
						"offset": 0,
						"slot": "7",
						"type": "t_uint256"
					},
					{
						"astId": 114,
						"contract": "Hero/utils/HeroController.sol:HeroController",
						"label": "priceOfToken",
						"offset": 0,
						"slot": "8",
						"type": "t_uint256"
					}
				],
				"types": {
					"t_address": {
						"encoding": "inplace",
						"label": "address",
						"numberOfBytes": "20"
					},
					"t_address_payable": {
						"encoding": "inplace",
						"label": "address payable",
						"numberOfBytes": "20"
					},
					"t_bool": {
						"encoding": "inplace",
						"label": "bool",
						"numberOfBytes": "1"
					},
					"t_contract(IHeroNFT)30": {
						"encoding": "inplace",
						"label": "contract IHeroNFT",
						"numberOfBytes": "20"
					},
					"t_contract(IKIP37Full)589": {
						"encoding": "inplace",
						"label": "contract IKIP37Full",
						"numberOfBytes": "20"
					},
					"t_contract(IKIP7)720": {
						"encoding": "inplace",
						"label": "contract IKIP7",
						"numberOfBytes": "20"
					},
					"t_contract(ILevelDiagram)79": {
						"encoding": "inplace",
						"label": "contract ILevelDiagram",
						"numberOfBytes": "20"
					},
					"t_uint256": {
						"encoding": "inplace",
						"label": "uint256",
						"numberOfBytes": "32"
					}
				}
			},
			"userdoc": {
				"kind": "user",
				"methods": {},
				"version": 1
			}
		}
	}
}