{
	"data": {
		"bytecode": {
			"linkReferences": {},
			"object": "608060405234801561001057600080fd5b50610169806100206000396000f3fe608060405234801561001057600080fd5b50600436106100415760003560e01c80630cfe4d0e14610046578063893d20e81461005b578063a7fc7a071461007a575b600080fd5b610059610054366004610103565b61008d565b005b600054604080516001600160a01b039092168252519081900360200190f35b610059610088366004610103565b6100c5565b6000546001600160a01b031633146100a457600080fd5b6001600160a01b03166000908152600160205260409020805460ff19169055565b6000546001600160a01b031633146100dc57600080fd5b6001600160a01b03166000908152600160208190526040909120805460ff19169091179055565b60006020828403121561011557600080fd5b81356001600160a01b038116811461012c57600080fd5b939250505056fea264697066735822122061de8f752e7e1f562294e1529b4f761dbb348e4fefe5e509bdcbe3d48cda18d664736f6c634300080f0033",
			"opcodes": "PUSH1 0x80 PUSH1 0x40 MSTORE CALLVALUE DUP1 ISZERO PUSH2 0x10 JUMPI PUSH1 0x0 DUP1 REVERT JUMPDEST POP PUSH2 0x169 DUP1 PUSH2 0x20 PUSH1 0x0 CODECOPY PUSH1 0x0 RETURN INVALID PUSH1 0x80 PUSH1 0x40 MSTORE CALLVALUE DUP1 ISZERO PUSH2 0x10 JUMPI PUSH1 0x0 DUP1 REVERT JUMPDEST POP PUSH1 0x4 CALLDATASIZE LT PUSH2 0x41 JUMPI PUSH1 0x0 CALLDATALOAD PUSH1 0xE0 SHR DUP1 PUSH4 0xCFE4D0E EQ PUSH2 0x46 JUMPI DUP1 PUSH4 0x893D20E8 EQ PUSH2 0x5B JUMPI DUP1 PUSH4 0xA7FC7A07 EQ PUSH2 0x7A JUMPI JUMPDEST PUSH1 0x0 DUP1 REVERT JUMPDEST PUSH2 0x59 PUSH2 0x54 CALLDATASIZE PUSH1 0x4 PUSH2 0x103 JUMP JUMPDEST PUSH2 0x8D JUMP JUMPDEST STOP JUMPDEST PUSH1 0x0 SLOAD PUSH1 0x40 DUP1 MLOAD PUSH1 0x1 PUSH1 0x1 PUSH1 0xA0 SHL SUB SWAP1 SWAP3 AND DUP3 MSTORE MLOAD SWAP1 DUP2 SWAP1 SUB PUSH1 0x20 ADD SWAP1 RETURN JUMPDEST PUSH2 0x59 PUSH2 0x88 CALLDATASIZE PUSH1 0x4 PUSH2 0x103 JUMP JUMPDEST PUSH2 0xC5 JUMP JUMPDEST PUSH1 0x0 SLOAD PUSH1 0x1 PUSH1 0x1 PUSH1 0xA0 SHL SUB AND CALLER EQ PUSH2 0xA4 JUMPI PUSH1 0x0 DUP1 REVERT JUMPDEST PUSH1 0x1 PUSH1 0x1 PUSH1 0xA0 SHL SUB AND PUSH1 0x0 SWAP1 DUP2 MSTORE PUSH1 0x1 PUSH1 0x20 MSTORE PUSH1 0x40 SWAP1 KECCAK256 DUP1 SLOAD PUSH1 0xFF NOT AND SWAP1 SSTORE JUMP JUMPDEST PUSH1 0x0 SLOAD PUSH1 0x1 PUSH1 0x1 PUSH1 0xA0 SHL SUB AND CALLER EQ PUSH2 0xDC JUMPI PUSH1 0x0 DUP1 REVERT JUMPDEST PUSH1 0x1 PUSH1 0x1 PUSH1 0xA0 SHL SUB AND PUSH1 0x0 SWAP1 DUP2 MSTORE PUSH1 0x1 PUSH1 0x20 DUP2 SWAP1 MSTORE PUSH1 0x40 SWAP1 SWAP2 KECCAK256 DUP1 SLOAD PUSH1 0xFF NOT AND SWAP1 SWAP2 OR SWAP1 SSTORE JUMP JUMPDEST PUSH1 0x0 PUSH1 0x20 DUP3 DUP5 SUB SLT ISZERO PUSH2 0x115 JUMPI PUSH1 0x0 DUP1 REVERT JUMPDEST DUP2 CALLDATALOAD PUSH1 0x1 PUSH1 0x1 PUSH1 0xA0 SHL SUB DUP2 AND DUP2 EQ PUSH2 0x12C JUMPI PUSH1 0x0 DUP1 REVERT JUMPDEST SWAP4 SWAP3 POP POP POP JUMP INVALID LOG2 PUSH5 0x6970667358 0x22 SLT KECCAK256 PUSH2 0xDE8F PUSH22 0x2E7E1F562294E1529B4F761DBB348E4FEFE5E509BDCB 0xE3 0xD4 DUP13 0xDA XOR 0xD6 PUSH5 0x736F6C6343 STOP ADDMOD 0xF STOP CALLER "
		},
		"gasEstimates": {
			"creation": {
				"codeDepositCost": "72200",
				"executionCost": "123",
				"totalCost": "72323"
			},
			"external": {
				"addController(address)": "22049",
				"deleteController(address)": "21987",
				"getOwner()": "992"
			}
		},
		"methodIdentifiers": {
			"addController(address)": "a7fc7a07",
			"deleteController(address)": "0cfe4d0e",
			"getOwner()": "893d20e8"
		}
	},
	"abi": [
		{
			"inputs": [
				{
					"internalType": "address",
					"name": "_controller",
					"type": "address"
				}
			],
			"name": "addController",
			"outputs": [],
			"stateMutability": "nonpayable",
			"type": "function"
		},
		{
			"inputs": [
				{
					"internalType": "address",
					"name": "_controller",
					"type": "address"
				}
			],
			"name": "deleteController",
			"outputs": [],
			"stateMutability": "nonpayable",
			"type": "function"
		},
		{
			"inputs": [],
			"name": "getOwner",
			"outputs": [
				{
					"internalType": "address payable",
					"name": "",
					"type": "address"
				}
			],
			"stateMutability": "view",
			"type": "function"
		}
	]
}