{
  "contractName": "BorrowDeposit",
  "abi": [
    {
      "inputs": [
        {
          "internalType": "address",
          "name": "_gxtToken",
          "type": "address"
        },
        {
          "internalType": "address",
          "name": "_heroCore",
          "type": "address"
        }
      ],
      "stateMutability": "nonpayable",
      "type": "constructor"
    },
    {
      "inputs": [],
      "name": "getOwner",
      "outputs": [
        {
          "internalType": "address payable",
          "name": "",
          "type": "address"
        }
      ],
      "stateMutability": "view",
      "type": "function",
      "constant": true
    },
    {
      "inputs": [
        {
          "internalType": "address",
          "name": "_heroCore",
          "type": "address"
        }
      ],
      "name": "reSetApprove",
      "outputs": [],
      "stateMutability": "nonpayable",
      "type": "function"
    }
  ],
  "bytecode": "0x608060405234801561001057600080fd5b506040516102f93803806102f983398101604081905261002f916100fc565b60008054336001600160a01b031991821617909155600180549091166001600160a01b0384811691821790925560405163095ea7b360e01b81529183166004830152600019602483018190529163095ea7b390604401602060405180830381600087803b15801561009f57600080fd5b505af11580156100b3573d6000803e3d6000fd5b505050506040513d601f19601f820116820180604052508101906100d7919061012e565b50505050610155565b80516001600160a01b03811681146100f757600080fd5b919050565b6000806040838503121561010e578182fd5b610117836100e0565b9150610125602084016100e0565b90509250929050565b60006020828403121561013f578081fd5b8151801515811461014e578182fd5b9392505050565b610195806101646000396000f3fe608060405234801561001057600080fd5b50600436106100365760003560e01c8063893d20e81461003b5780639641c7af1461005a575b600080fd5b600054604080516001600160a01b039092168252519081900360200190f35b61006d610068366004610111565b61006f565b005b6000546001600160a01b0316331461008657600080fd5b60015460405163095ea7b360e01b81526001600160a01b03838116600483015260001960248301529091169063095ea7b390604401602060405180830381600087803b1580156100d557600080fd5b505af11580156100e9573d6000803e3d6000fd5b505050506040513d601f19601f8201168201806040525081019061010d919061013f565b5050565b600060208284031215610122578081fd5b81356001600160a01b0381168114610138578182fd5b9392505050565b600060208284031215610150578081fd5b81518015158114610138578182fdfea26469706673582212206fe2e5f5d85fc9e47029350de4d7e5f1cc0b8aea0cac504eb6c1b479c09a5ca464736f6c63430008040033",
  "immutableReferences": {},
  "source": "// SPDX-License-Identifier: MIT\npragma solidity 0.8.4;\n\nimport \"../interface/IKIP7/IKIP7.sol\";\nimport \"../utils/Ownable.sol\";\n\ncontract BorrowDeposit is Ownable {\n    IKIP7 private GxtToken;\n\n    constructor(address _gxtToken, address _heroCore) {\n        GxtToken = IKIP7(_gxtToken);\n\n        uint256 maxNumber = type(uint256).max;\n\n        GxtToken.approve(_heroCore, maxNumber);\n    }\n\n    function reSetApprove(address _heroCore) external onlyOwner {\n        GxtToken.approve(_heroCore, type(uint256).max);\n    }\n}\n",
  "sourcePath": "/Users/yuhojin/Desktop/NFT-lendProject/Truffle/contracts/Deposit/BorrowDeposit.sol",
  "compiler": {
    "name": "solc",
    "version": "0.8.4+commit.c7e474f2.Emscripten.clang"
  },
  "schemaVersion": "3.4.3",
  "updatedAt": "2022-08-11T12:02:27.569Z",
  "networkType": "ethereum",
  "devdoc": {
    "kind": "dev",
    "methods": {},
    "version": 1
  },
  "userdoc": {
    "kind": "user",
    "methods": {},
    "version": 1
  }
}