{
  "contractName": "Controller",
  "abi": [
    {
      "inputs": [],
      "name": "getOwner",
      "outputs": [
        {
          "internalType": "address payable",
          "name": "",
          "type": "address"
        }
      ],
      "stateMutability": "view",
      "type": "function"
    },
    {
      "inputs": [
        {
          "internalType": "address",
          "name": "_controller",
          "type": "address"
        }
      ],
      "name": "addController",
      "outputs": [],
      "stateMutability": "nonpayable",
      "type": "function"
    },
    {
      "inputs": [
        {
          "internalType": "address",
          "name": "_controller",
          "type": "address"
        }
      ],
      "name": "deleteController",
      "outputs": [],
      "stateMutability": "nonpayable",
      "type": "function"
    }
  ],
  "bytecode": "0x608060405234801561001057600080fd5b50600080546001600160a01b03191633179055610167806100326000396000f3fe608060405234801561001057600080fd5b50600436106100415760003560e01c80630cfe4d0e14610046578063893d20e81461005b578063a7fc7a071461007a575b600080fd5b610059610054366004610103565b61008d565b005b600054604080516001600160a01b039092168252519081900360200190f35b610059610088366004610103565b6100c5565b6000546001600160a01b031633146100a457600080fd5b6001600160a01b03166000908152600160205260409020805460ff19169055565b6000546001600160a01b031633146100dc57600080fd5b6001600160a01b03166000908152600160208190526040909120805460ff19169091179055565b600060208284031215610114578081fd5b81356001600160a01b038116811461012a578182fd5b939250505056fea2646970667358221220a7e44d6d6b80d5ad9b35179f2dd1a04628c73c8a57e18d49e5a8c802b56cb0c864736f6c63430008040033",
  "immutableReferences": {},
  "source": "// SPDX-License-Identifier: MIT\npragma solidity 0.8.4;\n\nimport \"../../utils/Ownable.sol\";\n\ncontract Controller is Ownable {\n    mapping(address => bool) private controllers;\n\n    modifier onlyController() {\n        require(controllers[msg.sender], \"Error : Not Controller\");\n        _;\n    }\n\n    function addController(address _controller) external onlyOwner {\n        controllers[_controller] = true;\n    }\n\n    function deleteController(address _controller) external onlyOwner {\n        controllers[_controller] = false;\n    }\n}\n",
  "sourcePath": "/Users/yuhojin/Desktop/NFT-lendProject/Truffle/contracts/GXTItem/utils/Controller.sol",
  "compiler": {
    "name": "solc",
    "version": "0.8.4+commit.c7e474f2.Emscripten.clang"
  },
  "schemaVersion": "3.4.3",
  "updatedAt": "2022-08-08T11:59:53.683Z",
  "devdoc": {
    "kind": "dev",
    "methods": {},
    "version": 1
  },
  "userdoc": {
    "kind": "user",
    "methods": {},
    "version": 1
  }
}