{
  "contractName": "GXTItem",
  "abi": [
    {
      "inputs": [],
      "stateMutability": "nonpayable",
      "type": "constructor"
    },
    {
      "anonymous": false,
      "inputs": [
        {
          "indexed": true,
          "internalType": "address",
          "name": "_owner",
          "type": "address"
        },
        {
          "indexed": true,
          "internalType": "address",
          "name": "_operator",
          "type": "address"
        },
        {
          "indexed": false,
          "internalType": "bool",
          "name": "_approved",
          "type": "bool"
        }
      ],
      "name": "ApprovalForAll",
      "type": "event"
    },
    {
      "anonymous": false,
      "inputs": [
        {
          "indexed": true,
          "internalType": "address",
          "name": "_operator",
          "type": "address"
        },
        {
          "indexed": true,
          "internalType": "address",
          "name": "_from",
          "type": "address"
        },
        {
          "indexed": true,
          "internalType": "address",
          "name": "_to",
          "type": "address"
        },
        {
          "indexed": false,
          "internalType": "uint256[]",
          "name": "_ids",
          "type": "uint256[]"
        },
        {
          "indexed": false,
          "internalType": "uint256[]",
          "name": "_values",
          "type": "uint256[]"
        }
      ],
      "name": "TransferBatch",
      "type": "event"
    },
    {
      "anonymous": false,
      "inputs": [
        {
          "indexed": true,
          "internalType": "address",
          "name": "_operator",
          "type": "address"
        },
        {
          "indexed": true,
          "internalType": "address",
          "name": "_from",
          "type": "address"
        },
        {
          "indexed": true,
          "internalType": "address",
          "name": "_to",
          "type": "address"
        },
        {
          "indexed": false,
          "internalType": "uint256",
          "name": "_id",
          "type": "uint256"
        },
        {
          "indexed": false,
          "internalType": "uint256",
          "name": "_value",
          "type": "uint256"
        }
      ],
      "name": "TransferSingle",
      "type": "event"
    },
    {
      "anonymous": false,
      "inputs": [
        {
          "indexed": false,
          "internalType": "string",
          "name": "_value",
          "type": "string"
        },
        {
          "indexed": true,
          "internalType": "uint256",
          "name": "_id",
          "type": "uint256"
        }
      ],
      "name": "URI",
      "type": "event"
    },
    {
      "inputs": [
        {
          "internalType": "address",
          "name": "_controller",
          "type": "address"
        }
      ],
      "name": "addController",
      "outputs": [],
      "stateMutability": "nonpayable",
      "type": "function"
    },
    {
      "inputs": [
        {
          "internalType": "address",
          "name": "owner",
          "type": "address"
        },
        {
          "internalType": "uint256",
          "name": "id",
          "type": "uint256"
        }
      ],
      "name": "balanceOf",
      "outputs": [
        {
          "internalType": "uint256",
          "name": "",
          "type": "uint256"
        }
      ],
      "stateMutability": "view",
      "type": "function",
      "constant": true
    },
    {
      "inputs": [
        {
          "internalType": "address[]",
          "name": "owners",
          "type": "address[]"
        },
        {
          "internalType": "uint256[]",
          "name": "ids",
          "type": "uint256[]"
        }
      ],
      "name": "balanceOfBatch",
      "outputs": [
        {
          "internalType": "uint256[]",
          "name": "",
          "type": "uint256[]"
        }
      ],
      "stateMutability": "view",
      "type": "function",
      "constant": true
    },
    {
      "inputs": [
        {
          "internalType": "address",
          "name": "_controller",
          "type": "address"
        }
      ],
      "name": "deleteController",
      "outputs": [],
      "stateMutability": "nonpayable",
      "type": "function"
    },
    {
      "inputs": [],
      "name": "getOwner",
      "outputs": [
        {
          "internalType": "address payable",
          "name": "",
          "type": "address"
        }
      ],
      "stateMutability": "view",
      "type": "function",
      "constant": true
    },
    {
      "inputs": [
        {
          "internalType": "address",
          "name": "owner",
          "type": "address"
        },
        {
          "internalType": "address",
          "name": "operator",
          "type": "address"
        }
      ],
      "name": "isApprovedForAll",
      "outputs": [
        {
          "internalType": "bool",
          "name": "",
          "type": "bool"
        }
      ],
      "stateMutability": "view",
      "type": "function",
      "constant": true
    },
    {
      "inputs": [
        {
          "internalType": "address",
          "name": "from",
          "type": "address"
        },
        {
          "internalType": "address",
          "name": "to",
          "type": "address"
        },
        {
          "internalType": "uint256[]",
          "name": "ids",
          "type": "uint256[]"
        },
        {
          "internalType": "uint256[]",
          "name": "amounts",
          "type": "uint256[]"
        },
        {
          "internalType": "bytes",
          "name": "data",
          "type": "bytes"
        }
      ],
      "name": "safeBatchTransferFrom",
      "outputs": [],
      "stateMutability": "nonpayable",
      "type": "function"
    },
    {
      "inputs": [
        {
          "internalType": "address",
          "name": "from",
          "type": "address"
        },
        {
          "internalType": "address",
          "name": "to",
          "type": "address"
        },
        {
          "internalType": "uint256",
          "name": "id",
          "type": "uint256"
        },
        {
          "internalType": "uint256",
          "name": "amount",
          "type": "uint256"
        },
        {
          "internalType": "bytes",
          "name": "data",
          "type": "bytes"
        }
      ],
      "name": "safeTransferFrom",
      "outputs": [],
      "stateMutability": "nonpayable",
      "type": "function"
    },
    {
      "inputs": [
        {
          "internalType": "address",
          "name": "operator",
          "type": "address"
        },
        {
          "internalType": "bool",
          "name": "approved",
          "type": "bool"
        }
      ],
      "name": "setApprovalForAll",
      "outputs": [],
      "stateMutability": "nonpayable",
      "type": "function"
    },
    {
      "inputs": [
        {
          "internalType": "bytes4",
          "name": "interfaceId",
          "type": "bytes4"
        }
      ],
      "name": "supportsInterface",
      "outputs": [
        {
          "internalType": "bool",
          "name": "",
          "type": "bool"
        }
      ],
      "stateMutability": "view",
      "type": "function",
      "constant": true
    },
    {
      "inputs": [
        {
          "internalType": "uint256",
          "name": "_id",
          "type": "uint256"
        }
      ],
      "name": "totalSupply",
      "outputs": [
        {
          "internalType": "uint256",
          "name": "",
          "type": "uint256"
        }
      ],
      "stateMutability": "view",
      "type": "function",
      "constant": true
    },
    {
      "inputs": [
        {
          "internalType": "uint256",
          "name": "_tokenId",
          "type": "uint256"
        }
      ],
      "name": "uri",
      "outputs": [
        {
          "internalType": "string",
          "name": "",
          "type": "string"
        }
      ],
      "stateMutability": "view",
      "type": "function",
      "constant": true
    },
    {
      "inputs": [
        {
          "internalType": "address",
          "name": "_user",
          "type": "address"
        },
        {
          "internalType": "uint256",
          "name": "_tokenId",
          "type": "uint256"
        },
        {
          "internalType": "uint256",
          "name": "_amount",
          "type": "uint256"
        }
      ],
      "name": "mint",
      "outputs": [],
      "stateMutability": "nonpayable",
      "type": "function"
    },
    {
      "inputs": [
        {
          "internalType": "address",
          "name": "_user",
          "type": "address"
        },
        {
          "internalType": "uint256",
          "name": "_tokenId",
          "type": "uint256"
        },
        {
          "internalType": "uint256",
          "name": "_amount",
          "type": "uint256"
        }
      ],
      "name": "burn",
      "outputs": [],
      "stateMutability": "nonpayable",
      "type": "function"
    }
  ],
  "bytecode": "0x60806040523480156200001157600080fd5b50600480546001600160a01b0319163317905560408051808201909152600981526866697273744974656d60b81b60208201526200005290600090620000f6565b6200008760016040518060400160405280600a8152602001697365636f6e644974656d60b01b815250620000f660201b60201c565b620000bb60026040518060400160405280600981526020016874686972644974656d60b81b815250620000f660201b60201c565b620000f060036040518060400160405280600a815260200169666f757274684974656d60b01b815250620000f660201b60201c565b620001ff565b6000828152600260209081526040909120825162000117928401906200011c565b505050565b8280546200012a90620001c2565b90600052602060002090601f0160209004810192826200014e576000855562000199565b82601f106200016957805160ff191683800117855562000199565b8280016001018555821562000199579182015b82811115620001995782518255916020019190600101906200017c565b50620001a7929150620001ab565b5090565b5b80821115620001a75760008155600101620001ac565b600181811c90821680620001d757607f821691505b60208210811415620001f957634e487b7160e01b600052602260045260246000fd5b50919050565b6118c6806200020f6000396000f3fe608060405234801561001057600080fd5b50600436106100e95760003560e01c8063893d20e81161008c578063bd85b03911610066578063bd85b039146101f3578063e985e9c514610213578063f242432a1461024f578063f5298aca1461026257600080fd5b8063893d20e8146101b2578063a22cb465146101cd578063a7fc7a07146101e057600080fd5b80630e89341c116100c85780630e89341c1461014c578063156e29f61461016c5780632eb2c2d61461017f5780634e1273f41461019257600080fd5b8062fdd58e146100ee57806301ffc9a7146101145780630cfe4d0e14610137575b600080fd5b6101016100fc3660046113fe565b610275565b6040519081526020015b60405180910390f35b61012761012236600461151a565b610309565b604051901515815260200161010b565b61014a610145366004611268565b61035b565b005b61015f61015a366004611552565b610393565b60405161010b91906116d3565b61014a61017a366004611427565b610435565b61014a61018d3660046112bb565b6104ad565b6101a56101a0366004611459565b610542565b60405161010b9190611692565b6004546040516001600160a01b03909116815260200161010b565b61014a6101db3660046113c4565b6106a0565b61014a6101ee366004611268565b6106af565b610101610201366004611552565b60009081526003602052604090205490565b610127610221366004611289565b6001600160a01b03918216600090815260016020908152604080832093909416825291909152205460ff1690565b61014a61025d366004611361565b6106ea565b61014a610270366004611427565b61076f565b60006001600160a01b0383166102e35760405162461bcd60e51b815260206004820152602860248201527f4b495033373a2061646472657373207a65726f206973206e6f7420612076616c60448201526734b21037bbb732b960c11b60648201526084015b60405180910390fd5b506000908152602081815260408083206001600160a01b03949094168352929052205490565b60006001600160e01b03198216636433ca1f60e01b148061033a57506001600160e01b031982166303a24d0760e21b145b8061035557506301ffc9a760e01b6001600160e01b03198316145b92915050565b6004546001600160a01b0316331461037257600080fd5b6001600160a01b03166000908152600560205260409020805460ff19169055565b60008181526002602052604090208054606091906103b0906117f5565b80601f01602080910402602001604051908101604052809291908181526020018280546103dc906117f5565b80156104295780601f106103fe57610100808354040283529160200191610429565b820191906000526020600020905b81548152906001019060200180831161040c57829003601f168201915b50505050509050919050565b3360009081526005602052604090205460ff1661048d5760405162461bcd60e51b815260206004820152601660248201527522b93937b9101d102737ba1021b7b73a3937b63632b960511b60448201526064016102da565b6104a8838383604051806020016040528060008152506107d2565b505050565b6001600160a01b0385163314806104c957506104c98533610221565b61052e5760405162461bcd60e51b815260206004820152603060248201527f4b495033373a207472616e736665722063616c6c6572206973206e6f74206f7760448201526f1b995c881b9bdc88185c1c1c9bdd995960821b60648201526084016102da565b61053b85858585856108ff565b5050505050565b606081518351146105a35760405162461bcd60e51b815260206004820152602560248201527f4b495033373a206f776e65727320616e6420696473206c656e677468206d69736044820152640dac2e8c6d60db1b60648201526084016102da565b6000835167ffffffffffffffff8111156105cd57634e487b7160e01b600052604160045260246000fd5b6040519080825280602002602001820160405280156105f6578160200160208202803683370190505b50905060005b84518110156106985761065d85828151811061062857634e487b7160e01b600052603260045260246000fd5b602002602001015185838151811061065057634e487b7160e01b600052603260045260246000fd5b6020026020010151610275565b82828151811061067d57634e487b7160e01b600052603260045260246000fd5b602090810291909101015261069181611830565b90506105fc565b509392505050565b6106ab338383610af6565b5050565b6004546001600160a01b031633146106c657600080fd5b6001600160a01b03166000908152600560205260409020805460ff19166001179055565b6001600160a01b03851633148061070657506107068533610221565b6107625760405162461bcd60e51b815260206004820152602760248201527f4b495033373a2063616c6c6572206973206e6f74206f776e6572206e6f7220616044820152661c1c1c9bdd995960ca1b60648201526084016102da565b61053b8585858585610bd5565b3360009081526005602052604090205460ff166107c75760405162461bcd60e51b815260206004820152601660248201527522b93937b9101d102737ba1021b7b73a3937b63632b960511b60448201526064016102da565b6104a8838383610cff565b6001600160a01b0384166108285760405162461bcd60e51b815260206004820152601f60248201527f4b495033373a206d696e7420746f20746865207a65726f20616464726573730060448201526064016102da565b33600061083485610ea4565b9050600061084185610ea4565b90506000868152602081815260408083206001600160a01b038b168452909152812080548792906108739084906117c6565b9091555050600086815260036020526040812080548792906108969084906117c6565b909155505060408051878152602081018790526001600160a01b03808a1692600092918716917fc3d58168c5ae7397731d063d5bbf3d657854427343f4c083240f7aacaa2d0f62910160405180910390a46108f683600089898989610efd565b50505050505050565b815183511461095f5760405162461bcd60e51b815260206004820152602660248201527f4b495033373a2069647320616e6420616d6f756e7473206c656e677468206d696044820152650e6dac2e8c6d60d31b60648201526084016102da565b6001600160a01b0384166109855760405162461bcd60e51b81526004016102da9061172e565b3360005b8451811015610a885760008582815181106109b457634e487b7160e01b600052603260045260246000fd5b6020026020010151905060008583815181106109e057634e487b7160e01b600052603260045260246000fd5b602090810291909101810151600084815280835260408082206001600160a01b038e168352909352919091205490915081811015610a305760405162461bcd60e51b81526004016102da906116e6565b6000838152602081815260408083206001600160a01b038e8116855292528083208585039055908b16825281208054849290610a6d9084906117c6565b9250508190555050505080610a8190611830565b9050610989565b50846001600160a01b0316866001600160a01b0316826001600160a01b03167f4a39dc06d4c0dbc64b70af90fd698a233a518aa5d07e595d983b8c0526c8f7fb8787604051610ad89291906116a5565b60405180910390a4610aee818787878787610f88565b505050505050565b816001600160a01b0316836001600160a01b03161415610b685760405162461bcd60e51b815260206004820152602760248201527f4b495033373a2073657474696e6720617070726f76616c20737461747573206660448201526637b91039b2b63360c91b60648201526084016102da565b6001600160a01b03838116600081815260016020908152604080832094871680845294825291829020805460ff191686151590811790915591519182527f17307eab39ab6107e8899845ad3d59bd9653f200f220920489ca2b5937696c31910160405180910390a3505050565b6001600160a01b038416610bfb5760405162461bcd60e51b81526004016102da9061172e565b336000610c0785610ea4565b90506000610c1485610ea4565b90506000868152602081815260408083206001600160a01b038c16845290915290205485811015610c575760405162461bcd60e51b81526004016102da906116e6565b6000878152602081815260408083206001600160a01b038d8116855292528083208985039055908a16825281208054889290610c949084906117c6565b909155505060408051888152602081018890526001600160a01b03808b16928c821692918816917fc3d58168c5ae7397731d063d5bbf3d657854427343f4c083240f7aacaa2d0f62910160405180910390a4610cf4848a8a8a8a8a610efd565b505050505050505050565b6001600160a01b038316610d5f5760405162461bcd60e51b815260206004820152602160248201527f4b495033373a206275726e2066726f6d20746865207a65726f206164647265736044820152607360f81b60648201526084016102da565b336000610d6b84610ea4565b90506000610d7884610ea4565b60408051602080820183526000918290528882528181528282206001600160a01b038b1683529052205490915084811015610e005760405162461bcd60e51b815260206004820152602260248201527f4b495033373a206275726e20616d6f756e7420657863656564732062616c616e604482015261636560f01b60648201526084016102da565b6000868152602081815260408083206001600160a01b038b16845282528083208885039055888352600390915281208054879290610e3f9084906117de565b909155505060408051878152602081018790526000916001600160a01b038a811692908816917fc3d58168c5ae7397731d063d5bbf3d657854427343f4c083240f7aacaa2d0f62910160405180910390a46040805160208101909152600090526108f6565b60408051600180825281830190925260609160009190602080830190803683370190505090508281600081518110610eec57634e487b7160e01b600052603260045260246000fd5b602090810291909101015292915050565b610f0b868686868686610f96565b610aee5760405162461bcd60e51b815260206004820152604260248201527f4b495033373a207472616e7366657220746f206e6f6e20494b4950333752656360448201527f65697665722f4945524331313535526563656976657220696d706c656d656e7460648201526132b960f11b608482015260a4016102da565b610f0b86868686868661109a565b60006001600160a01b0385163b1561108c5760405163e78b332560e01b81526001600160a01b0386169063e78b332590610fdc908a908a9089908990899060040161164d565b602060405180830381600087803b158015610ff657600080fd5b505af1925050508015611026575060408051601f3d908101601f1916820190925261102391810190611536565b60015b611072573d808015611054576040519150601f19603f3d011682016040523d82523d6000602084013e611059565b606091505b50805161106a576000915050611090565b805181602001fd5b6001600160e01b03191663e78b332560e01b149050611090565b5060015b9695505050505050565b60006001600160a01b0385163b1561108c57604051634da4f19960e11b81526001600160a01b03861690639b49e332906110e0908a908a908990899089906004016115ef565b602060405180830381600087803b1580156110fa57600080fd5b505af192505050801561112a575060408051601f3d908101601f1916820190925261112791810190611536565b60015b611158573d808015611054576040519150601f19603f3d011682016040523d82523d6000602084013e611059565b6001600160e01b031916634da4f19960e11b149050611090565b80356001600160a01b038116811461118957600080fd5b919050565b600082601f83011261119e578081fd5b813560206111b36111ae836117a2565b611771565b80838252828201915082860187848660051b89010111156111d2578586fd5b855b858110156111f0578135845292840192908401906001016111d4565b5090979650505050505050565b600082601f83011261120d578081fd5b813567ffffffffffffffff81111561122757611227611861565b61123a601f8201601f1916602001611771565b81815284602083860101111561124e578283fd5b816020850160208301379081016020019190915292915050565b600060208284031215611279578081fd5b61128282611172565b9392505050565b6000806040838503121561129b578081fd5b6112a483611172565b91506112b260208401611172565b90509250929050565b600080600080600060a086880312156112d2578081fd5b6112db86611172565b94506112e960208701611172565b9350604086013567ffffffffffffffff80821115611305578283fd5b61131189838a0161118e565b94506060880135915080821115611326578283fd5b61133289838a0161118e565b93506080880135915080821115611347578283fd5b50611354888289016111fd565b9150509295509295909350565b600080600080600060a08688031215611378578081fd5b61138186611172565b945061138f60208701611172565b93506040860135925060608601359150608086013567ffffffffffffffff8111156113b8578182fd5b611354888289016111fd565b600080604083850312156113d6578182fd5b6113df83611172565b9150602083013580151581146113f3578182fd5b809150509250929050565b60008060408385031215611410578182fd5b61141983611172565b946020939093013593505050565b60008060006060848603121561143b578283fd5b61144484611172565b95602085013595506040909401359392505050565b6000806040838503121561146b578182fd5b823567ffffffffffffffff80821115611482578384fd5b818501915085601f830112611495578384fd5b813560206114a56111ae836117a2565b8083825282820191508286018a848660051b89010111156114c4578889fd5b8896505b848710156114ed576114d981611172565b8352600196909601959183019183016114c8565b5096505086013592505080821115611503578283fd5b506115108582860161118e565b9150509250929050565b60006020828403121561152b578081fd5b813561128281611877565b600060208284031215611547578081fd5b815161128281611877565b600060208284031215611563578081fd5b5035919050565b6000815180845260208085019450808401835b838110156115995781518752958201959082019060010161157d565b509495945050505050565b60008151808452815b818110156115c9576020818501810151868301820152016115ad565b818111156115da5782602083870101525b50601f01601f19169290920160200192915050565b6001600160a01b0386811682528516602082015260a06040820181905260009061161b9083018661156a565b828103606084015261162d818661156a565b9050828103608084015261164181856115a4565b98975050505050505050565b6001600160a01b03868116825285166020820152604081018490526060810183905260a060808201819052600090611687908301846115a4565b979650505050505050565b602081526000611282602083018461156a565b6040815260006116b8604083018561156a565b82810360208401526116ca818561156a565b95945050505050565b60208152600061128260208301846115a4565b60208082526028908201527f4b495033373a20696e73756666696369656e742062616c616e636520666f72206040820152673a3930b739b332b960c11b606082015260800190565b60208082526023908201527f4b495033373a207472616e7366657220746f20746865207a65726f206164647260408201526265737360e81b606082015260800190565b604051601f8201601f1916810167ffffffffffffffff8111828210171561179a5761179a611861565b604052919050565b600067ffffffffffffffff8211156117bc576117bc611861565b5060051b60200190565b600082198211156117d9576117d961184b565b500190565b6000828210156117f0576117f061184b565b500390565b600181811c9082168061180957607f821691505b6020821081141561182a57634e487b7160e01b600052602260045260246000fd5b50919050565b60006000198214156118445761184461184b565b5060010190565b634e487b7160e01b600052601160045260246000fd5b634e487b7160e01b600052604160045260246000fd5b6001600160e01b03198116811461188d57600080fd5b5056fea264697066735822122094b084380b24a5800fc5446b4136814530f5f54d15cd6b96e0c6183caf5ba79864736f6c63430008040033",
  "immutableReferences": {},
  "source": "// SPDX-License-Identifier: MIT\npragma solidity 0.8.4;\n\nimport \"../interface/IKIP37/KIP37.sol\";\nimport \"./utils/Controller.sol\";\n\ncontract GXTItem is KIP37, Controller {\n    constructor() KIP37() {\n        _setURI(0, \"firstItem\");\n        _setURI(1, \"secondItem\");\n        _setURI(2, \"thirdItem\");\n        _setURI(3, \"fourthItem\");\n    }\n\n    function mint(\n        address _user,\n        uint256 _tokenId,\n        uint256 _amount\n    ) external onlyController {\n        _mint(_user, _tokenId, _amount, \"\");\n    }\n\n    function burn(\n        address _user,\n        uint256 _tokenId,\n        uint256 _amount\n    ) external onlyController {\n        _burn(_user, _tokenId, _amount);\n    }\n}\n",
  "sourcePath": "/Users/yuhojin/Desktop/NFT-lendProject/Truffle/contracts/GXTItem/GXTItem.sol",
  "compiler": {
    "name": "solc",
    "version": "0.8.4+commit.c7e474f2.Emscripten.clang"
  },
  "schemaVersion": "3.4.3",
  "updatedAt": "2022-08-17T13:12:46.024Z",
  "networkType": "ethereum",
  "devdoc": {
    "kind": "dev",
    "methods": {
      "balanceOf(address,uint256)": {
        "details": "See {IKIP37-balanceOf}. Requirements: - `owner` cannot be the zero address."
      },
      "balanceOfBatch(address[],uint256[])": {
        "details": "See {IKIP37-balanceOfBatch}. Requirements: - `owners` and `ids` must have the same length."
      },
      "isApprovedForAll(address,address)": {
        "details": "See {IKIP37-isApprovedForAll}."
      },
      "safeBatchTransferFrom(address,address,uint256[],uint256[],bytes)": {
        "details": "See {IKIP37-safeBatchTransferFrom}."
      },
      "safeTransferFrom(address,address,uint256,uint256,bytes)": {
        "details": "See {IKIP37-safeTransferFrom}."
      },
      "setApprovalForAll(address,bool)": {
        "details": "See {IKIP37-setApprovalForAll}."
      },
      "supportsInterface(bytes4)": {
        "details": "See {IKIP13-supportsInterface}."
      },
      "uri(uint256)": {
        "details": "See {IKIP37Metadata-uri}. This implementation returns the same URI for *all* token types. It relies on the token type ID substitution mechanism http://kips.klaytn.com/KIPs/kip-37#metadata-extension[defined in the KIP]. Clients calling this function must replace the `\\{id\\}` substring with the actual token type ID."
      }
    },
    "version": 1
  },
  "userdoc": {
    "kind": "user",
    "methods": {},
    "version": 1
  }
}