{
  "contractName": "GXTToken",
  "abi": [
    {
      "inputs": [],
      "stateMutability": "nonpayable",
      "type": "constructor"
    },
    {
      "anonymous": false,
      "inputs": [
        {
          "indexed": true,
          "internalType": "address",
          "name": "owner",
          "type": "address"
        },
        {
          "indexed": true,
          "internalType": "address",
          "name": "spender",
          "type": "address"
        },
        {
          "indexed": false,
          "internalType": "uint256",
          "name": "value",
          "type": "uint256"
        }
      ],
      "name": "Approval",
      "type": "event"
    },
    {
      "anonymous": false,
      "inputs": [
        {
          "indexed": true,
          "internalType": "address",
          "name": "from",
          "type": "address"
        },
        {
          "indexed": true,
          "internalType": "address",
          "name": "to",
          "type": "address"
        },
        {
          "indexed": false,
          "internalType": "uint256",
          "name": "value",
          "type": "uint256"
        }
      ],
      "name": "Transfer",
      "type": "event"
    },
    {
      "inputs": [
        {
          "internalType": "address",
          "name": "owner",
          "type": "address"
        },
        {
          "internalType": "address",
          "name": "spender",
          "type": "address"
        }
      ],
      "name": "allowance",
      "outputs": [
        {
          "internalType": "uint256",
          "name": "",
          "type": "uint256"
        }
      ],
      "stateMutability": "view",
      "type": "function"
    },
    {
      "inputs": [
        {
          "internalType": "address",
          "name": "spender",
          "type": "address"
        },
        {
          "internalType": "uint256",
          "name": "amount",
          "type": "uint256"
        }
      ],
      "name": "approve",
      "outputs": [
        {
          "internalType": "bool",
          "name": "",
          "type": "bool"
        }
      ],
      "stateMutability": "nonpayable",
      "type": "function"
    },
    {
      "inputs": [
        {
          "internalType": "address",
          "name": "account",
          "type": "address"
        }
      ],
      "name": "balanceOf",
      "outputs": [
        {
          "internalType": "uint256",
          "name": "",
          "type": "uint256"
        }
      ],
      "stateMutability": "view",
      "type": "function"
    },
    {
      "inputs": [],
      "name": "decimals",
      "outputs": [
        {
          "internalType": "uint8",
          "name": "",
          "type": "uint8"
        }
      ],
      "stateMutability": "view",
      "type": "function"
    },
    {
      "inputs": [
        {
          "internalType": "address",
          "name": "spender",
          "type": "address"
        },
        {
          "internalType": "uint256",
          "name": "subtractedValue",
          "type": "uint256"
        }
      ],
      "name": "decreaseAllowance",
      "outputs": [
        {
          "internalType": "bool",
          "name": "",
          "type": "bool"
        }
      ],
      "stateMutability": "nonpayable",
      "type": "function"
    },
    {
      "inputs": [],
      "name": "getOwner",
      "outputs": [
        {
          "internalType": "address payable",
          "name": "",
          "type": "address"
        }
      ],
      "stateMutability": "view",
      "type": "function"
    },
    {
      "inputs": [
        {
          "internalType": "address",
          "name": "spender",
          "type": "address"
        },
        {
          "internalType": "uint256",
          "name": "addedValue",
          "type": "uint256"
        }
      ],
      "name": "increaseAllowance",
      "outputs": [
        {
          "internalType": "bool",
          "name": "",
          "type": "bool"
        }
      ],
      "stateMutability": "nonpayable",
      "type": "function"
    },
    {
      "inputs": [],
      "name": "name",
      "outputs": [
        {
          "internalType": "string",
          "name": "",
          "type": "string"
        }
      ],
      "stateMutability": "view",
      "type": "function"
    },
    {
      "inputs": [
        {
          "internalType": "address",
          "name": "recipient",
          "type": "address"
        },
        {
          "internalType": "uint256",
          "name": "amount",
          "type": "uint256"
        }
      ],
      "name": "safeTransfer",
      "outputs": [],
      "stateMutability": "nonpayable",
      "type": "function"
    },
    {
      "inputs": [
        {
          "internalType": "address",
          "name": "recipient",
          "type": "address"
        },
        {
          "internalType": "uint256",
          "name": "amount",
          "type": "uint256"
        },
        {
          "internalType": "bytes",
          "name": "_data",
          "type": "bytes"
        }
      ],
      "name": "safeTransfer",
      "outputs": [],
      "stateMutability": "nonpayable",
      "type": "function"
    },
    {
      "inputs": [
        {
          "internalType": "address",
          "name": "sender",
          "type": "address"
        },
        {
          "internalType": "address",
          "name": "recipient",
          "type": "address"
        },
        {
          "internalType": "uint256",
          "name": "amount",
          "type": "uint256"
        }
      ],
      "name": "safeTransferFrom",
      "outputs": [],
      "stateMutability": "nonpayable",
      "type": "function"
    },
    {
      "inputs": [
        {
          "internalType": "address",
          "name": "sender",
          "type": "address"
        },
        {
          "internalType": "address",
          "name": "recipient",
          "type": "address"
        },
        {
          "internalType": "uint256",
          "name": "amount",
          "type": "uint256"
        },
        {
          "internalType": "bytes",
          "name": "_data",
          "type": "bytes"
        }
      ],
      "name": "safeTransferFrom",
      "outputs": [],
      "stateMutability": "nonpayable",
      "type": "function"
    },
    {
      "inputs": [
        {
          "internalType": "bytes4",
          "name": "interfaceId",
          "type": "bytes4"
        }
      ],
      "name": "supportsInterface",
      "outputs": [
        {
          "internalType": "bool",
          "name": "",
          "type": "bool"
        }
      ],
      "stateMutability": "view",
      "type": "function"
    },
    {
      "inputs": [],
      "name": "symbol",
      "outputs": [
        {
          "internalType": "string",
          "name": "",
          "type": "string"
        }
      ],
      "stateMutability": "view",
      "type": "function"
    },
    {
      "inputs": [],
      "name": "totalSupply",
      "outputs": [
        {
          "internalType": "uint256",
          "name": "",
          "type": "uint256"
        }
      ],
      "stateMutability": "view",
      "type": "function"
    },
    {
      "inputs": [
        {
          "internalType": "address",
          "name": "to",
          "type": "address"
        },
        {
          "internalType": "uint256",
          "name": "amount",
          "type": "uint256"
        }
      ],
      "name": "transfer",
      "outputs": [
        {
          "internalType": "bool",
          "name": "",
          "type": "bool"
        }
      ],
      "stateMutability": "nonpayable",
      "type": "function"
    },
    {
      "inputs": [
        {
          "internalType": "address",
          "name": "from",
          "type": "address"
        },
        {
          "internalType": "address",
          "name": "to",
          "type": "address"
        },
        {
          "internalType": "uint256",
          "name": "amount",
          "type": "uint256"
        }
      ],
      "name": "transferFrom",
      "outputs": [
        {
          "internalType": "bool",
          "name": "",
          "type": "bool"
        }
      ],
      "stateMutability": "nonpayable",
      "type": "function"
    },
    {
      "inputs": [
        {
          "internalType": "address",
          "name": "_to",
          "type": "address"
        },
        {
          "internalType": "uint256",
          "name": "_amount",
          "type": "uint256"
        }
      ],
      "name": "mint",
      "outputs": [],
      "stateMutability": "nonpayable",
      "type": "function"
    },
    {
      "inputs": [
        {
          "internalType": "address",
          "name": "_to",
          "type": "address"
        },
        {
          "internalType": "uint256",
          "name": "_amount",
          "type": "uint256"
        }
      ],
      "name": "burn",
      "outputs": [],
      "stateMutability": "nonpayable",
      "type": "function"
    }
  ],
  "bytecode": "0x60806040523480156200001157600080fd5b5060408051808201825260038082526211d61560ea1b602080840191825284518086019095528285526208ea8b60eb1b9085015282519293926200005792919062000088565b5080516200006d90600490602084019062000088565b5050600580546001600160a01b03191633179055506200016b565b82805462000096906200012e565b90600052602060002090601f016020900481019282620000ba576000855562000105565b82601f10620000d557805160ff191683800117855562000105565b8280016001018555821562000105579182015b8281111562000105578251825591602001919060010190620000e8565b506200011392915062000117565b5090565b5b8082111562000113576000815560010162000118565b600181811c908216806200014357607f821691505b602082108114156200016557634e487b7160e01b600052602260045260246000fd5b50919050565b6110f3806200017b6000396000f3fe608060405234801561001057600080fd5b50600436106101215760003560e01c806342842e0e116100ad578063a457c2d711610071578063a457c2d714610257578063a9059cbb1461026a578063b88d4fde1461027d578063dd62ed3e14610290578063eb795549146102a357600080fd5b806342842e0e146101e557806370a08231146101f8578063893d20e81461022157806395d89b411461023c5780639dc29fac1461024457600080fd5b806323b872dd116100f457806323b872dd14610188578063313ce5671461019b57806339509351146101aa57806340c10f19146101bd578063423f6cef146101d257600080fd5b806301ffc9a71461012657806306fdde031461014e578063095ea7b31461016357806318160ddd14610176575b600080fd5b610139610134366004610f3b565b6102b6565b60405190151581526020015b60405180910390f35b610156610308565b6040516101459190610ffb565b610139610171366004610ebd565b61039a565b6002545b604051908152602001610145565b610139610196366004610e1c565b6103b2565b60405160128152602001610145565b6101396101b8366004610ebd565b6103d6565b6101d06101cb366004610ebd565b6103f8565b005b6101d06101e0366004610ebd565b61041d565b6101d06101f3366004610e1c565b610442565b61017a610206366004610dc9565b6001600160a01b031660009081526020819052604090205490565b6005546040516001600160a01b039091168152602001610145565b61015661046f565b6101d0610252366004610ebd565b61047e565b610139610265366004610ebd565b61049f565b610139610278366004610ebd565b61051d565b6101d061028b366004610e57565b61052b565b61017a61029e366004610dea565b61054a565b6101d06102b1366004610ee6565b610575565b60006001600160e01b03198216636578737160e01b14806102e757506001600160e01b0319821663a219a02560e01b145b8061030257506301ffc9a760e01b6001600160e01b03198316145b92915050565b6060600380546103179061103d565b80601f01602080910402602001604051908101604052809291908181526020018280546103439061103d565b80156103905780601f1061036557610100808354040283529160200191610390565b820191906000526020600020905b81548152906001019060200180831161037357829003601f168201915b5050505050905090565b6000336103a8818585610582565b5060019392505050565b6000336103c08582856106a5565b6103cb858585610719565b506001949350505050565b6000336103a88185856103e9838361054a565b6103f3919061100e565b610582565b6005546001600160a01b0316331461040f57600080fd5b61041982826108e3565b5050565b600033905061043d81848460405180602001604052806000815250610a1c565b505050565b3361044e8482846106a5565b61046984848460405180602001604052806000815250610a1c565b50505050565b6060600480546103179061103d565b6005546001600160a01b0316331461049557600080fd5b6104198282610a97565b600033816104ad828661054a565b9050838110156105105760405162461bcd60e51b8152602060048201526024808201527f4b4950373a2064656372656173656420616c6c6f77616e63652062656c6f77206044820152637a65726f60e01b60648201526084015b60405180910390fd5b6103cb8286868403610582565b6000336103a8818585610719565b336105378582856106a5565b61054385858585610a1c565b5050505050565b6001600160a01b03918216600090815260016020908152604080832093909416825291909152205490565b3361046981858585610a1c565b6001600160a01b0383166105e45760405162461bcd60e51b815260206004820152602360248201527f4b4950373a20617070726f76652066726f6d20746865207a65726f206164647260448201526265737360e81b6064820152608401610507565b6001600160a01b0382166106445760405162461bcd60e51b815260206004820152602160248201527f4b4950373a20617070726f766520746f20746865207a65726f206164647265736044820152607360f81b6064820152608401610507565b6001600160a01b0383811660008181526001602090815260408083209487168084529482529182902085905590518481527f8c5be1e5ebec7d5bd14f71427d1e84f3dd0314c0f7b2291e5b200ac8c7c3b925910160405180910390a3505050565b60006106b1848461054a565b90506000198114610469578181101561070c5760405162461bcd60e51b815260206004820152601c60248201527f4b4950373a20696e73756666696369656e7420616c6c6f77616e6365000000006044820152606401610507565b6104698484848403610582565b6001600160a01b03831661077b5760405162461bcd60e51b8152602060048201526024808201527f4b4950373a207472616e736665722066726f6d20746865207a65726f206164646044820152637265737360e01b6064820152608401610507565b6001600160a01b0382166107dc5760405162461bcd60e51b815260206004820152602260248201527f4b4950373a207472616e7366657220746f20746865207a65726f206164647265604482015261737360f01b6064820152608401610507565b6001600160a01b038316600090815260208190526040902054818110156108535760405162461bcd60e51b815260206004820152602560248201527f4b4950373a207472616e7366657220616d6f756e7420657863656564732062616044820152646c616e636560d81b6064820152608401610507565b6001600160a01b0380851660009081526020819052604080822085850390559185168152908120805484929061088a90849061100e565b92505081905550826001600160a01b0316846001600160a01b03167fddf252ad1be2c89b69c2b068fc378daa952ba7f163c4a11628f55a4df523b3ef846040516108d691815260200190565b60405180910390a3610469565b6001600160a01b0382166109395760405162461bcd60e51b815260206004820152601e60248201527f4b4950373a206d696e7420746f20746865207a65726f206164647265737300006044820152606401610507565b69d3c21bcecceda100000081600254610952919061100e565b11156109935760405162461bcd60e51b815260206004820152601060248201526f26b0bc1029bab838363c9022b93937b960811b6044820152606401610507565b80600260008282546109a5919061100e565b90915550506001600160a01b038216600090815260208190526040812080548392906109d290849061100e565b90915550506040518181526001600160a01b038316906000907fddf252ad1be2c89b69c2b068fc378daa952ba7f163c4a11628f55a4df523b3ef9060200160405180910390a35050565b610a27848484610719565b610a3384848484610bda565b6104695760405162461bcd60e51b815260206004820152602f60248201527f4b4950373a207472616e7366657220746f206e6f6e20494b495037526563656960448201526e3b32b91034b6b83632b6b2b73a32b960891b6064820152608401610507565b6001600160a01b038216610aed5760405162461bcd60e51b815260206004820181905260248201527f4b4950373a206275726e2066726f6d20746865207a65726f20616464726573736044820152606401610507565b6001600160a01b03821660009081526020819052604090205481811015610b605760405162461bcd60e51b815260206004820152602160248201527f4b4950373a206275726e20616d6f756e7420657863656564732062616c616e636044820152606560f81b6064820152608401610507565b6001600160a01b0383166000908152602081905260408120838303905560028054849290610b8f908490611026565b90915550506040518281526000906001600160a01b038516907fddf252ad1be2c89b69c2b068fc378daa952ba7f163c4a11628f55a4df523b3ef9060200160405180910390a3505050565b60006001600160a01b0384163b156103cb57604051634e8c461160e11b81526001600160a01b03851690639d188c2290610c1e903390899088908890600401610fbe565b602060405180830381600087803b158015610c3857600080fd5b505af1925050508015610c68575060408051601f3d908101601f19168201909252610c6591810190610f57565b60015b610d09573d808015610c96576040519150601f19603f3d011682016040523d82523d6000602084013e610c9b565b606091505b508051610d015760405162461bcd60e51b815260206004820152602e60248201527f4b4950373a207472616e7366657220746f206e6f6e204b49503752656365697660448201526d32b91034b6b83632b6b2b73a32b960911b6064820152608401610507565b805181602001fd5b6001600160e01b031916634e8c461160e11b149050949350505050565b80356001600160a01b0381168114610d3d57600080fd5b919050565b600082601f830112610d52578081fd5b813567ffffffffffffffff80821115610d6d57610d6d61108e565b604051601f8301601f19908116603f01168101908282118183101715610d9557610d9561108e565b81604052838152866020858801011115610dad578485fd5b8360208701602083013792830160200193909352509392505050565b600060208284031215610dda578081fd5b610de382610d26565b9392505050565b60008060408385031215610dfc578081fd5b610e0583610d26565b9150610e1360208401610d26565b90509250929050565b600080600060608486031215610e30578081fd5b610e3984610d26565b9250610e4760208501610d26565b9150604084013590509250925092565b60008060008060808587031215610e6c578081fd5b610e7585610d26565b9350610e8360208601610d26565b925060408501359150606085013567ffffffffffffffff811115610ea5578182fd5b610eb187828801610d42565b91505092959194509250565b60008060408385031215610ecf578182fd5b610ed883610d26565b946020939093013593505050565b600080600060608486031215610efa578283fd5b610f0384610d26565b925060208401359150604084013567ffffffffffffffff811115610f25578182fd5b610f3186828701610d42565b9150509250925092565b600060208284031215610f4c578081fd5b8135610de3816110a4565b600060208284031215610f68578081fd5b8151610de3816110a4565b60008151808452815b81811015610f9857602081850181015186830182015201610f7c565b81811115610fa95782602083870101525b50601f01601f19169290920160200192915050565b6001600160a01b0385811682528416602082015260408101839052608060608201819052600090610ff190830184610f73565b9695505050505050565b602081526000610de36020830184610f73565b6000821982111561102157611021611078565b500190565b60008282101561103857611038611078565b500390565b600181811c9082168061105157607f821691505b6020821081141561107257634e487b7160e01b600052602260045260246000fd5b50919050565b634e487b7160e01b600052601160045260246000fd5b634e487b7160e01b600052604160045260246000fd5b6001600160e01b0319811681146110ba57600080fd5b5056fea264697066735822122011ab6398a26d972ebb9c034e5a65e880409de35f8809c7e186722c913cd31cec64736f6c63430008040033",
  "immutableReferences": {},
  "source": "// SPDX-License-Identifier: MIT\npragma solidity 0.8.4;\n\nimport \"../interface/IKIP7/KIP7Token.sol\";\nimport \"../utils/Ownable.sol\";\n\ncontract GXTToken is KIP7Token, Ownable {\n    constructor() KIP7Token(\"GXT\", \"GTX\") {}\n\n    function mint(address _to, uint256 _amount) external onlyOwner {\n        _mint(_to, _amount);\n    }\n\n    function burn(address _to, uint256 _amount) external onlyOwner {\n        _burn(_to, _amount);\n    }\n}\n",
  "sourcePath": "/Users/yuhojin/Desktop/NFT-lendProject/Truffle/contracts/GXT/GXTToken.sol",
  "compiler": {
    "name": "solc",
    "version": "0.8.4+commit.c7e474f2.Emscripten.clang"
  },
  "schemaVersion": "3.4.3",
  "updatedAt": "2022-08-12T13:53:55.777Z",
  "devdoc": {
    "kind": "dev",
    "methods": {
      "allowance(address,address)": {
        "details": "See {IKIP7-allowance}."
      },
      "approve(address,uint256)": {
        "details": "See {IKIP7-approve}. NOTE: If `amount` is the maximum `uint256`, the allowance is not updated on `transferFrom`. This is semantically equivalent to an infinite approval. Requirements: - `spender` cannot be the zero address."
      },
      "balanceOf(address)": {
        "details": "See {IKIP7-balanceOf}."
      },
      "decimals()": {
        "details": "Returns the number of decimals used to get its user representation. For example, if `decimals` equals `2`, a balance of `505` tokens should be displayed to a user as `5.05` (`505 / 10 ** 2`). Tokens usually opt for a value of 18, imitating the relationship between Ether and Wei. This is the value {KIP7} uses, unless this function is overridden; NOTE: This information is only used for _display_ purposes: it in no way affects any of the arithmetic of the contract, including {IKIP7-balanceOf} and {IKIP7-transfer}."
      },
      "decreaseAllowance(address,uint256)": {
        "details": "Atomically decreases the allowance granted to `spender` by the caller. This is an alternative to {approve} that can be used as a mitigation for problems described in {IKIP7-approve}. Emits an {Approval} event indicating the updated allowance. Requirements: - `spender` cannot be the zero address. - `spender` must have allowance for the caller of at least `subtractedValue`."
      },
      "increaseAllowance(address,uint256)": {
        "details": "Atomically increases the allowance granted to `spender` by the caller. This is an alternative to {approve} that can be used as a mitigation for problems described in {IKIP7-approve}. Emits an {Approval} event indicating the updated allowance. Requirements: - `spender` cannot be the zero address."
      },
      "name()": {
        "details": "Returns the name of the token."
      },
      "safeTransfer(address,uint256)": {
        "details": "See {IKIP7-safeTransfer}. Emits a {Transfer} event Requirements: - `recipient` cannot be the zero address. - the caller must have a balance of at least `amount`. - if `recipient` is a smart contract, it must implement {IKIP7Receiver}"
      },
      "safeTransfer(address,uint256,bytes)": {
        "details": "Same as {xref-KIP7-safeTransfer-address-uint256-}[`safeTransfer`], with an additional `_data` parameter which is forwarded in {IKIP7Receiver-onKIP7Received} to contract recipients. Emits a {Transfer} event"
      },
      "safeTransferFrom(address,address,uint256)": {
        "details": "See {IKIP7-safeTransferFrom}. Emits a {Transfer} event Emits an {Approval} event indicating the updated allowance. This is not required by the KIP. See the note at the beginning of {KIP7}. NOTE: Does not update the allowance if the current allowance is the maximum `uint256`. Requirements: - `sender` and `recipient` cannot be the zero address. - `sender` must have a balance of at least `amount`. - the caller must have allowance for ``sender``'s tokens of at least `amount`. - if `recipient` is a smart contract, it must implement {IKIP7Receiver}"
      },
      "safeTransferFrom(address,address,uint256,bytes)": {
        "details": "Same as {xref-KIP7-safeTransferFrom-address-uint256-}[`safeTransferFrom`], with an additional `_data` parameter which is forwarded in {IKIP7Receiver-onKIP7Received} to contract recipients. Emits a {Transfer} event Emits an {Approval} event indicating the updated allowance."
      },
      "supportsInterface(bytes4)": {
        "details": "See {IKIP13-supportsInterface}."
      },
      "symbol()": {
        "details": "Returns the symbol of the token, usually a shorter version of the name."
      },
      "totalSupply()": {
        "details": "See {IKIP7-totalSupply}."
      },
      "transfer(address,uint256)": {
        "details": "See {IKIP7-transfer}. Requirements: - `to` cannot be the zero address. - the caller must have a balance of at least `amount`."
      },
      "transferFrom(address,address,uint256)": {
        "details": "See {IKIP7-transferFrom}. Emits an {Approval} event indicating the updated allowance. This is not required by the EIP. See the note at the beginning of {KIP7}. NOTE: Does not update the allowance if the current allowance is the maximum `uint256`. Requirements: - `from` and `to` cannot be the zero address. - `from` must have a balance of at least `amount`. - the caller must have allowance for ``from``'s tokens of at least `amount`."
      }
    },
    "version": 1
  },
  "userdoc": {
    "kind": "user",
    "methods": {},
    "version": 1
  }
}