{
  "contractName": "GXTToken",
  "abi": [
    {
      "inputs": [],
      "stateMutability": "nonpayable",
      "type": "constructor"
    },
    {
      "anonymous": false,
      "inputs": [
        {
          "indexed": true,
          "internalType": "address",
          "name": "owner",
          "type": "address"
        },
        {
          "indexed": true,
          "internalType": "address",
          "name": "spender",
          "type": "address"
        },
        {
          "indexed": false,
          "internalType": "uint256",
          "name": "value",
          "type": "uint256"
        }
      ],
      "name": "Approval",
      "type": "event"
    },
    {
      "anonymous": false,
      "inputs": [
        {
          "indexed": true,
          "internalType": "address",
          "name": "from",
          "type": "address"
        },
        {
          "indexed": true,
          "internalType": "address",
          "name": "to",
          "type": "address"
        },
        {
          "indexed": false,
          "internalType": "uint256",
          "name": "value",
          "type": "uint256"
        }
      ],
      "name": "Transfer",
      "type": "event"
    },
    {
      "inputs": [
        {
          "internalType": "address",
          "name": "owner",
          "type": "address"
        },
        {
          "internalType": "address",
          "name": "spender",
          "type": "address"
        }
      ],
      "name": "allowance",
      "outputs": [
        {
          "internalType": "uint256",
          "name": "",
          "type": "uint256"
        }
      ],
      "stateMutability": "view",
      "type": "function"
    },
    {
      "inputs": [
        {
          "internalType": "address",
          "name": "spender",
          "type": "address"
        },
        {
          "internalType": "uint256",
          "name": "amount",
          "type": "uint256"
        }
      ],
      "name": "approve",
      "outputs": [
        {
          "internalType": "bool",
          "name": "",
          "type": "bool"
        }
      ],
      "stateMutability": "nonpayable",
      "type": "function"
    },
    {
      "inputs": [
        {
          "internalType": "address",
          "name": "account",
          "type": "address"
        }
      ],
      "name": "balanceOf",
      "outputs": [
        {
          "internalType": "uint256",
          "name": "",
          "type": "uint256"
        }
      ],
      "stateMutability": "view",
      "type": "function"
    },
    {
      "inputs": [],
      "name": "decimals",
      "outputs": [
        {
          "internalType": "uint8",
          "name": "",
          "type": "uint8"
        }
      ],
      "stateMutability": "view",
      "type": "function"
    },
    {
      "inputs": [
        {
          "internalType": "address",
          "name": "spender",
          "type": "address"
        },
        {
          "internalType": "uint256",
          "name": "subtractedValue",
          "type": "uint256"
        }
      ],
      "name": "decreaseAllowance",
      "outputs": [
        {
          "internalType": "bool",
          "name": "",
          "type": "bool"
        }
      ],
      "stateMutability": "nonpayable",
      "type": "function"
    },
    {
      "inputs": [],
      "name": "getOwner",
      "outputs": [
        {
          "internalType": "address payable",
          "name": "",
          "type": "address"
        }
      ],
      "stateMutability": "view",
      "type": "function"
    },
    {
      "inputs": [
        {
          "internalType": "address",
          "name": "spender",
          "type": "address"
        },
        {
          "internalType": "uint256",
          "name": "addedValue",
          "type": "uint256"
        }
      ],
      "name": "increaseAllowance",
      "outputs": [
        {
          "internalType": "bool",
          "name": "",
          "type": "bool"
        }
      ],
      "stateMutability": "nonpayable",
      "type": "function"
    },
    {
      "inputs": [],
      "name": "name",
      "outputs": [
        {
          "internalType": "string",
          "name": "",
          "type": "string"
        }
      ],
      "stateMutability": "view",
      "type": "function"
    },
    {
      "inputs": [
        {
          "internalType": "address",
          "name": "recipient",
          "type": "address"
        },
        {
          "internalType": "uint256",
          "name": "amount",
          "type": "uint256"
        }
      ],
      "name": "safeTransfer",
      "outputs": [],
      "stateMutability": "nonpayable",
      "type": "function"
    },
    {
      "inputs": [
        {
          "internalType": "address",
          "name": "recipient",
          "type": "address"
        },
        {
          "internalType": "uint256",
          "name": "amount",
          "type": "uint256"
        },
        {
          "internalType": "bytes",
          "name": "_data",
          "type": "bytes"
        }
      ],
      "name": "safeTransfer",
      "outputs": [],
      "stateMutability": "nonpayable",
      "type": "function"
    },
    {
      "inputs": [
        {
          "internalType": "address",
          "name": "sender",
          "type": "address"
        },
        {
          "internalType": "address",
          "name": "recipient",
          "type": "address"
        },
        {
          "internalType": "uint256",
          "name": "amount",
          "type": "uint256"
        }
      ],
      "name": "safeTransferFrom",
      "outputs": [],
      "stateMutability": "nonpayable",
      "type": "function"
    },
    {
      "inputs": [
        {
          "internalType": "address",
          "name": "sender",
          "type": "address"
        },
        {
          "internalType": "address",
          "name": "recipient",
          "type": "address"
        },
        {
          "internalType": "uint256",
          "name": "amount",
          "type": "uint256"
        },
        {
          "internalType": "bytes",
          "name": "_data",
          "type": "bytes"
        }
      ],
      "name": "safeTransferFrom",
      "outputs": [],
      "stateMutability": "nonpayable",
      "type": "function"
    },
    {
      "inputs": [
        {
          "internalType": "bytes4",
          "name": "interfaceId",
          "type": "bytes4"
        }
      ],
      "name": "supportsInterface",
      "outputs": [
        {
          "internalType": "bool",
          "name": "",
          "type": "bool"
        }
      ],
      "stateMutability": "view",
      "type": "function"
    },
    {
      "inputs": [],
      "name": "symbol",
      "outputs": [
        {
          "internalType": "string",
          "name": "",
          "type": "string"
        }
      ],
      "stateMutability": "view",
      "type": "function"
    },
    {
      "inputs": [],
      "name": "totalSupply",
      "outputs": [
        {
          "internalType": "uint256",
          "name": "",
          "type": "uint256"
        }
      ],
      "stateMutability": "view",
      "type": "function"
    },
    {
      "inputs": [
        {
          "internalType": "address",
          "name": "to",
          "type": "address"
        },
        {
          "internalType": "uint256",
          "name": "amount",
          "type": "uint256"
        }
      ],
      "name": "transfer",
      "outputs": [
        {
          "internalType": "bool",
          "name": "",
          "type": "bool"
        }
      ],
      "stateMutability": "nonpayable",
      "type": "function"
    },
    {
      "inputs": [
        {
          "internalType": "address",
          "name": "from",
          "type": "address"
        },
        {
          "internalType": "address",
          "name": "to",
          "type": "address"
        },
        {
          "internalType": "uint256",
          "name": "amount",
          "type": "uint256"
        }
      ],
      "name": "transferFrom",
      "outputs": [
        {
          "internalType": "bool",
          "name": "",
          "type": "bool"
        }
      ],
      "stateMutability": "nonpayable",
      "type": "function"
    },
    {
      "inputs": [
        {
          "internalType": "address",
          "name": "_to",
          "type": "address"
        },
        {
          "internalType": "uint256",
          "name": "_amount",
          "type": "uint256"
        }
      ],
      "name": "mint",
      "outputs": [],
      "stateMutability": "nonpayable",
      "type": "function"
    },
    {
      "inputs": [
        {
          "internalType": "address",
          "name": "_to",
          "type": "address"
        },
        {
          "internalType": "uint256",
          "name": "_amount",
          "type": "uint256"
        }
      ],
      "name": "burn",
      "outputs": [],
      "stateMutability": "nonpayable",
      "type": "function"
    }
  ],
  "bytecode": "0x60806040523480156200001157600080fd5b5060408051808201825260038082526211d61560ea1b602080840191825284518086019095528285526208ea8b60eb1b9085015282519293926200005792919062000076565b5080516200006d90600490602084019062000076565b50505062000159565b82805462000084906200011c565b90600052602060002090601f016020900481019282620000a85760008555620000f3565b82601f10620000c357805160ff1916838001178555620000f3565b82800160010185558215620000f3579182015b82811115620000f3578251825591602001919060010190620000d6565b506200010192915062000105565b5090565b5b8082111562000101576000815560010162000106565b6002810460018216806200013157607f821691505b602082108114156200015357634e487b7160e01b600052602260045260246000fd5b50919050565b61129480620001696000396000f3fe608060405234801561001057600080fd5b50600436106101215760003560e01c806342842e0e116100ad578063a457c2d711610071578063a457c2d714610245578063a9059cbb14610258578063b88d4fde1461026b578063dd62ed3e1461027e578063eb7955491461029157610121565b806342842e0e146101ef57806370a0823114610202578063893d20e81461021557806395d89b411461022a5780639dc29fac1461023257610121565b806323b872dd116100f457806323b872dd1461018c578063313ce5671461019f57806339509351146101b457806340c10f19146101c7578063423f6cef146101dc57610121565b806301ffc9a71461012657806306fdde031461014f578063095ea7b31461016457806318160ddd14610177575b600080fd5b610139610134366004610d68565b6102a4565b6040516101469190610e3c565b60405180910390f35b6101576102ec565b6040516101469190610e47565b610139610172366004610cea565b61037e565b61017f6103a0565b6040516101469190611198565b61013961019a366004610c49565b6103a6565b6101a76103d4565b60405161014691906111a1565b6101396101c2366004610cea565b6103d9565b6101da6101d5366004610cea565b610405565b005b6101da6101ea366004610cea565b61042a565b6101da6101fd366004610c49565b610456565b61017f610210366004610bf6565b61048e565b61021d6104a9565b6040516101469190610deb565b6101576104b8565b6101da610240366004610cea565b6104c7565b610139610253366004610cea565b6104e8565b610139610266366004610cea565b610539565b6101da610279366004610c84565b610551565b61017f61028c366004610c17565b61057b565b6101da61029f366004610d13565b6105a6565b60006001600160e01b03198216636578737160e01b14806102d557506001600160e01b0319821663a219a02560e01b145b806102e457506102e4826105be565b90505b919050565b6060600380546102fb906111de565b80601f0160208091040260200160405190810160405280929190818152602001828054610327906111de565b80156103745780601f1061034957610100808354040283529160200191610374565b820191906000526020600020905b81548152906001019060200180831161035757829003601f168201915b5050505050905090565b6000806103896105d7565b90506103968185856105db565b5060019392505050565b60025490565b6000806103b16105d7565b90506103be85828561068f565b6103c98585856106d3565b506001949350505050565b601290565b6000806103e46105d7565b90506103968185856103f6858961057b565b61040091906111af565b6105db565b6005546001600160a01b0316331461041c57600080fd5b61042682826107f7565b5050565b60006104346105d7565b9050610451818484604051806020016040528060008152506108f6565b505050565b60006104606105d7565b905061046d84828461068f565b610488848484604051806020016040528060008152506108f6565b50505050565b6001600160a01b031660009081526020819052604090205490565b6005546001600160a01b031690565b6060600480546102fb906111de565b6005546001600160a01b031633146104de57600080fd5b6104268282610929565b6000806104f36105d7565b90506000610501828661057b565b90508381101561052c5760405162461bcd60e51b815260040161052390611039565b60405180910390fd5b6103c982868684036105db565b6000806105446105d7565b90506103968185856106d3565b600061055b6105d7565b905061056885828561068f565b610574858585856108f6565b5050505050565b6001600160a01b03918216600090815260016020908152604080832093909416825291909152205490565b60006105b06105d7565b9050610488818585856108f6565b6001600160e01b031981166301ffc9a760e01b14919050565b3390565b6001600160a01b0383166106015760405162461bcd60e51b815260040161052390611155565b6001600160a01b0382166106275760405162461bcd60e51b815260040161052390610e91565b6001600160a01b0380841660008181526001602090815260408083209487168084529490915290819020849055517f8c5be1e5ebec7d5bd14f71427d1e84f3dd0314c0f7b2291e5b200ac8c7c3b92590610682908590611198565b60405180910390a3505050565b600061069b848461057b565b9050600019811461048857818110156106c65760405162461bcd60e51b815260040161052390610e5a565b61048884848484036105db565b6001600160a01b0383166106f95760405162461bcd60e51b81526004016105239061107d565b6001600160a01b03821661071f5760405162461bcd60e51b815260040161052390610ff7565b61072a838383610451565b6001600160a01b038316600090815260208190526040902054818110156107635760405162461bcd60e51b815260040161052390611110565b6001600160a01b0380851660009081526020819052604080822085850390559185168152908120805484929061079a9084906111af565b92505081905550826001600160a01b0316846001600160a01b03167fddf252ad1be2c89b69c2b068fc378daa952ba7f163c4a11628f55a4df523b3ef846040516107e49190611198565b60405180910390a3610488848484610451565b6001600160a01b03821661081d5760405162461bcd60e51b815260040161052390610f61565b69d3c21bcecceda10000008160025461083691906111af565b11156108545760405162461bcd60e51b815260040161052390610f98565b61086060008383610451565b806002600082825461087291906111af565b90915550506001600160a01b0382166000908152602081905260408120805483929061089f9084906111af565b90915550506040516001600160a01b038316906000907fddf252ad1be2c89b69c2b068fc378daa952ba7f163c4a11628f55a4df523b3ef906108e2908590611198565b60405180910390a361042660008383610451565b6109018484846106d3565b61090d84848484610a1a565b6104885760405162461bcd60e51b8152600401610523906110c1565b6001600160a01b03821661094f5760405162461bcd60e51b815260040161052390610fc2565b61095b82600083610451565b6001600160a01b038216600090815260208190526040902054818110156109945760405162461bcd60e51b815260040161052390610f20565b6001600160a01b03831660009081526020819052604081208383039055600280548492906109c39084906111c7565b90915550506040516000906001600160a01b038516907fddf252ad1be2c89b69c2b068fc378daa952ba7f163c4a11628f55a4df523b3ef90610a06908690611198565b60405180910390a361045183600084610451565b6000610a2e846001600160a01b0316610b2d565b156103c957836001600160a01b0316639d188c22610a4a6105d7565b8786866040518563ffffffff1660e01b8152600401610a6c9493929190610dff565b602060405180830381600087803b158015610a8657600080fd5b505af1925050508015610ab6575060408051601f3d908101601f19168201909252610ab391810190610d84565b60015b610b10573d808015610ae4576040519150601f19603f3d011682016040523d82523d6000602084013e610ae9565b606091505b508051610b085760405162461bcd60e51b815260040161052390610ed2565b805181602001fd5b6001600160e01b031916634e8c461160e11b149050949350505050565b600080826001600160a01b0316803b806020016040519081016040528181526000908060200190933c511192915050565b80356001600160a01b03811681146102e757600080fd5b600082601f830112610b85578081fd5b813567ffffffffffffffff80821115610ba057610ba061122f565b604051601f8301601f191681016020018281118282101715610bc457610bc461122f565b604052828152848301602001861015610bdb578384fd5b82602086016020830137918201602001929092529392505050565b600060208284031215610c07578081fd5b610c1082610b5e565b9392505050565b60008060408385031215610c29578081fd5b610c3283610b5e565b9150610c4060208401610b5e565b90509250929050565b600080600060608486031215610c5d578081fd5b610c6684610b5e565b9250610c7460208501610b5e565b9150604084013590509250925092565b60008060008060808587031215610c99578081fd5b610ca285610b5e565b9350610cb060208601610b5e565b925060408501359150606085013567ffffffffffffffff811115610cd2578182fd5b610cde87828801610b75565b91505092959194509250565b60008060408385031215610cfc578182fd5b610d0583610b5e565b946020939093013593505050565b600080600060608486031215610d27578283fd5b610d3084610b5e565b925060208401359150604084013567ffffffffffffffff811115610d52578182fd5b610d5e86828701610b75565b9150509250925092565b600060208284031215610d79578081fd5b8135610c1081611245565b600060208284031215610d95578081fd5b8151610c1081611245565b60008151808452815b81811015610dc557602081850181015186830182015201610da9565b81811115610dd65782602083870101525b50601f01601f19169290920160200192915050565b6001600160a01b0391909116815260200190565b6001600160a01b0385811682528416602082015260408101839052608060608201819052600090610e3290830184610da0565b9695505050505050565b901515815260200190565b600060208252610c106020830184610da0565b6020808252601c908201527f4b4950373a20696e73756666696369656e7420616c6c6f77616e636500000000604082015260600190565b60208082526021908201527f4b4950373a20617070726f766520746f20746865207a65726f206164647265736040820152607360f81b606082015260800190565b6020808252602e908201527f4b4950373a207472616e7366657220746f206e6f6e204b49503752656365697660408201526d32b91034b6b83632b6b2b73a32b960911b606082015260800190565b60208082526021908201527f4b4950373a206275726e20616d6f756e7420657863656564732062616c616e636040820152606560f81b606082015260800190565b6020808252601e908201527f4b4950373a206d696e7420746f20746865207a65726f20616464726573730000604082015260600190565b60208082526010908201526f26b0bc1029bab838363c9022b93937b960811b604082015260600190565b6020808252818101527f4b4950373a206275726e2066726f6d20746865207a65726f2061646472657373604082015260600190565b60208082526022908201527f4b4950373a207472616e7366657220746f20746865207a65726f206164647265604082015261737360f01b606082015260800190565b60208082526024908201527f4b4950373a2064656372656173656420616c6c6f77616e63652062656c6f77206040820152637a65726f60e01b606082015260800190565b60208082526024908201527f4b4950373a207472616e736665722066726f6d20746865207a65726f206164646040820152637265737360e01b606082015260800190565b6020808252602f908201527f4b4950373a207472616e7366657220746f206e6f6e20494b495037526563656960408201526e3b32b91034b6b83632b6b2b73a32b960891b606082015260800190565b60208082526025908201527f4b4950373a207472616e7366657220616d6f756e7420657863656564732062616040820152646c616e636560d81b606082015260800190565b60208082526023908201527f4b4950373a20617070726f76652066726f6d20746865207a65726f206164647260408201526265737360e81b606082015260800190565b90815260200190565b60ff91909116815260200190565b600082198211156111c2576111c2611219565b500190565b6000828210156111d9576111d9611219565b500390565b6002810460018216806111f257607f821691505b6020821081141561121357634e487b7160e01b600052602260045260246000fd5b50919050565b634e487b7160e01b600052601160045260246000fd5b634e487b7160e01b600052604160045260246000fd5b6001600160e01b03198116811461125b57600080fd5b5056fea2646970667358221220ab480f45fb05ca833642e3b3e51069924674b35b8dea0ce42b72ecd967d7656f64736f6c63430008000033",
  "immutableReferences": {},
  "source": "// SPDX-License-Identifier: MIT\npragma solidity ^0.8.0;\n\nimport \"../interface/IKIP7/KIP7Token.sol\";\nimport \"../utils/Ownable.sol\";\n\ncontract GXTToken is KIP7Token, Ownable {\n    constructor() KIP7Token(\"GXT\", \"GTX\") {}\n\n    function mint(address _to, uint256 _amount) external onlyOwner {\n        _mint(_to, _amount);\n    }\n\n    function burn(address _to, uint256 _amount) external onlyOwner {\n        _burn(_to, _amount);\n    }\n}\n",
  "sourcePath": "/Users/yuhojin/Desktop/NFT-lendProject/truffle/contracts/GXT/GXTToken.sol",
  "compiler": {
    "name": "solc",
    "version": "0.8.0+commit.c7dfd78e.Emscripten.clang"
  },
  "schemaVersion": "3.1.0",
  "updatedAt": "2022-07-28T11:32:02.173Z",
  "devdoc": {
    "kind": "dev",
    "methods": {
      "allowance(address,address)": {
        "details": "See {IKIP7-allowance}."
      },
      "approve(address,uint256)": {
        "details": "See {IKIP7-approve}. NOTE: If `amount` is the maximum `uint256`, the allowance is not updated on `transferFrom`. This is semantically equivalent to an infinite approval. Requirements: - `spender` cannot be the zero address."
      },
      "balanceOf(address)": {
        "details": "See {IKIP7-balanceOf}."
      },
      "decimals()": {
        "details": "Returns the number of decimals used to get its user representation. For example, if `decimals` equals `2`, a balance of `505` tokens should be displayed to a user as `5.05` (`505 / 10 ** 2`). Tokens usually opt for a value of 18, imitating the relationship between Ether and Wei. This is the value {KIP7} uses, unless this function is overridden; NOTE: This information is only used for _display_ purposes: it in no way affects any of the arithmetic of the contract, including {IKIP7-balanceOf} and {IKIP7-transfer}."
      },
      "decreaseAllowance(address,uint256)": {
        "details": "Atomically decreases the allowance granted to `spender` by the caller. This is an alternative to {approve} that can be used as a mitigation for problems described in {IKIP7-approve}. Emits an {Approval} event indicating the updated allowance. Requirements: - `spender` cannot be the zero address. - `spender` must have allowance for the caller of at least `subtractedValue`."
      },
      "increaseAllowance(address,uint256)": {
        "details": "Atomically increases the allowance granted to `spender` by the caller. This is an alternative to {approve} that can be used as a mitigation for problems described in {IKIP7-approve}. Emits an {Approval} event indicating the updated allowance. Requirements: - `spender` cannot be the zero address."
      },
      "name()": {
        "details": "Returns the name of the token."
      },
      "safeTransfer(address,uint256)": {
        "details": "See {IKIP7-safeTransfer}. Emits a {Transfer} event Requirements: - `recipient` cannot be the zero address. - the caller must have a balance of at least `amount`. - if `recipient` is a smart contract, it must implement {IKIP7Receiver}"
      },
      "safeTransfer(address,uint256,bytes)": {
        "details": "Same as {xref-KIP7-safeTransfer-address-uint256-}[`safeTransfer`], with an additional `_data` parameter which is forwarded in {IKIP7Receiver-onKIP7Received} to contract recipients. Emits a {Transfer} event"
      },
      "safeTransferFrom(address,address,uint256)": {
        "details": "See {IKIP7-safeTransferFrom}. Emits a {Transfer} event Emits an {Approval} event indicating the updated allowance. This is not required by the KIP. See the note at the beginning of {KIP7}. NOTE: Does not update the allowance if the current allowance is the maximum `uint256`. Requirements: - `sender` and `recipient` cannot be the zero address. - `sender` must have a balance of at least `amount`. - the caller must have allowance for ``sender``'s tokens of at least `amount`. - if `recipient` is a smart contract, it must implement {IKIP7Receiver}"
      },
      "safeTransferFrom(address,address,uint256,bytes)": {
        "details": "Same as {xref-KIP7-safeTransferFrom-address-uint256-}[`safeTransferFrom`], with an additional `_data` parameter which is forwarded in {IKIP7Receiver-onKIP7Received} to contract recipients. Emits a {Transfer} event Emits an {Approval} event indicating the updated allowance."
      },
      "supportsInterface(bytes4)": {
        "details": "See {IKIP13-supportsInterface}."
      },
      "symbol()": {
        "details": "Returns the symbol of the token, usually a shorter version of the name."
      },
      "totalSupply()": {
        "details": "See {IKIP7-totalSupply}."
      },
      "transfer(address,uint256)": {
        "details": "See {IKIP7-transfer}. Requirements: - `to` cannot be the zero address. - the caller must have a balance of at least `amount`."
      },
      "transferFrom(address,address,uint256)": {
        "details": "See {IKIP7-transferFrom}. Emits an {Approval} event indicating the updated allowance. This is not required by the EIP. See the note at the beginning of {KIP7}. NOTE: Does not update the allowance if the current allowance is the maximum `uint256`. Requirements: - `from` and `to` cannot be the zero address. - `from` must have a balance of at least `amount`. - the caller must have allowance for ``from``'s tokens of at least `amount`."
      }
    },
    "version": 1
  },
  "userdoc": {
    "kind": "user",
    "methods": {},
    "version": 1
  }
}