{
  "contractName": "HeroCore",
  "abi": [
    {
      "inputs": [],
      "name": "MINING_DURATION",
      "outputs": [
        {
          "internalType": "uint256",
          "name": "",
          "type": "uint256"
        }
      ],
      "stateMutability": "view",
      "type": "function"
    },
    {
      "inputs": [],
      "name": "MINING_REWARD",
      "outputs": [
        {
          "internalType": "uint256",
          "name": "",
          "type": "uint256"
        }
      ],
      "stateMutability": "view",
      "type": "function"
    },
    {
      "inputs": [
        {
          "internalType": "string",
          "name": "grade",
          "type": "string"
        },
        {
          "internalType": "uint256",
          "name": "level",
          "type": "uint256"
        }
      ],
      "name": "calculateTokenAmount",
      "outputs": [
        {
          "internalType": "uint256",
          "name": "",
          "type": "uint256"
        }
      ],
      "stateMutability": "pure",
      "type": "function"
    },
    {
      "inputs": [],
      "name": "changeMiningPaused",
      "outputs": [],
      "stateMutability": "nonpayable",
      "type": "function"
    },
    {
      "inputs": [],
      "name": "changePaused",
      "outputs": [],
      "stateMutability": "nonpayable",
      "type": "function"
    },
    {
      "inputs": [],
      "name": "depositAddress",
      "outputs": [
        {
          "internalType": "address",
          "name": "",
          "type": "address"
        }
      ],
      "stateMutability": "view",
      "type": "function"
    },
    {
      "inputs": [],
      "name": "getHeroNFT",
      "outputs": [
        {
          "internalType": "contract IHeroNFT",
          "name": "",
          "type": "address"
        }
      ],
      "stateMutability": "view",
      "type": "function"
    },
    {
      "inputs": [],
      "name": "getItem",
      "outputs": [
        {
          "internalType": "contract IKIP37Full",
          "name": "",
          "type": "address"
        }
      ],
      "stateMutability": "view",
      "type": "function"
    },
    {
      "inputs": [],
      "name": "getMiningPaused",
      "outputs": [
        {
          "internalType": "bool",
          "name": "",
          "type": "bool"
        }
      ],
      "stateMutability": "view",
      "type": "function"
    },
    {
      "inputs": [],
      "name": "getOwner",
      "outputs": [
        {
          "internalType": "address payable",
          "name": "",
          "type": "address"
        }
      ],
      "stateMutability": "view",
      "type": "function"
    },
    {
      "inputs": [],
      "name": "getPaused",
      "outputs": [
        {
          "internalType": "bool",
          "name": "",
          "type": "bool"
        }
      ],
      "stateMutability": "view",
      "type": "function"
    },
    {
      "inputs": [],
      "name": "getToken",
      "outputs": [
        {
          "internalType": "contract IKIP7",
          "name": "",
          "type": "address"
        }
      ],
      "stateMutability": "view",
      "type": "function"
    },
    {
      "inputs": [
        {
          "internalType": "address",
          "name": "_heroNFT",
          "type": "address"
        },
        {
          "internalType": "address",
          "name": "_token",
          "type": "address"
        },
        {
          "internalType": "address",
          "name": "_item",
          "type": "address"
        },
        {
          "internalType": "address",
          "name": "_depositAddress",
          "type": "address"
        },
        {
          "internalType": "uint256",
          "name": "_klay",
          "type": "uint256"
        },
        {
          "internalType": "uint256",
          "name": "_tokenPrice",
          "type": "uint256"
        }
      ],
      "name": "initialize",
      "outputs": [],
      "stateMutability": "nonpayable",
      "type": "function"
    },
    {
      "inputs": [],
      "name": "lastClaimTime",
      "outputs": [
        {
          "internalType": "uint256",
          "name": "",
          "type": "uint256"
        }
      ],
      "stateMutability": "view",
      "type": "function"
    },
    {
      "inputs": [],
      "name": "priceOfKlay",
      "outputs": [
        {
          "internalType": "uint256",
          "name": "",
          "type": "uint256"
        }
      ],
      "stateMutability": "view",
      "type": "function"
    },
    {
      "inputs": [],
      "name": "priceOfToken",
      "outputs": [
        {
          "internalType": "uint256",
          "name": "",
          "type": "uint256"
        }
      ],
      "stateMutability": "view",
      "type": "function"
    },
    {
      "inputs": [],
      "name": "mintBuy",
      "outputs": [],
      "stateMutability": "payable",
      "type": "function"
    },
    {
      "inputs": [
        {
          "internalType": "uint256",
          "name": "_tokenAmount",
          "type": "uint256"
        }
      ],
      "name": "mintByToken",
      "outputs": [],
      "stateMutability": "nonpayable",
      "type": "function"
    },
    {
      "inputs": [
        {
          "internalType": "uint256",
          "name": "_index",
          "type": "uint256"
        }
      ],
      "name": "mintTimeLock",
      "outputs": [],
      "stateMutability": "nonpayable",
      "type": "function"
    },
    {
      "inputs": [
        {
          "internalType": "uint256",
          "name": "_tokenId",
          "type": "uint256"
        }
      ],
      "name": "travel",
      "outputs": [],
      "stateMutability": "nonpayable",
      "type": "function"
    },
    {
      "inputs": [
        {
          "internalType": "uint256",
          "name": "_tokenId",
          "type": "uint256"
        }
      ],
      "name": "getRewardToTravel",
      "outputs": [],
      "stateMutability": "nonpayable",
      "type": "function"
    },
    {
      "inputs": [
        {
          "internalType": "uint256",
          "name": "_tokenId",
          "type": "uint256"
        },
        {
          "internalType": "uint256",
          "name": "_duartion",
          "type": "uint256"
        }
      ],
      "name": "requestBorrow",
      "outputs": [],
      "stateMutability": "nonpayable",
      "type": "function"
    },
    {
      "inputs": [
        {
          "internalType": "uint256",
          "name": "_tokenId",
          "type": "uint256"
        }
      ],
      "name": "cancelRequest",
      "outputs": [],
      "stateMutability": "nonpayable",
      "type": "function"
    },
    {
      "inputs": [
        {
          "internalType": "uint256",
          "name": "_tokenId",
          "type": "uint256"
        },
        {
          "internalType": "address",
          "name": "_apprrovedUser",
          "type": "address"
        }
      ],
      "name": "approveBorrow",
      "outputs": [],
      "stateMutability": "nonpayable",
      "type": "function"
    },
    {
      "inputs": [
        {
          "internalType": "uint256",
          "name": "_tokenId",
          "type": "uint256"
        }
      ],
      "name": "returnHero",
      "outputs": [],
      "stateMutability": "nonpayable",
      "type": "function"
    },
    {
      "inputs": [
        {
          "internalType": "uint256",
          "name": "_tokenId",
          "type": "uint256"
        }
      ],
      "name": "mining",
      "outputs": [],
      "stateMutability": "nonpayable",
      "type": "function"
    },
    {
      "inputs": [
        {
          "internalType": "uint256",
          "name": "_tokenId",
          "type": "uint256"
        }
      ],
      "name": "claimMiningAmount",
      "outputs": [],
      "stateMutability": "nonpayable",
      "type": "function"
    },
    {
      "inputs": [
        {
          "internalType": "uint256",
          "name": "_tokenId",
          "type": "uint256"
        }
      ],
      "name": "viewCanClaimAmount",
      "outputs": [
        {
          "internalType": "uint256",
          "name": "",
          "type": "uint256"
        }
      ],
      "stateMutability": "view",
      "type": "function"
    },
    {
      "inputs": [
        {
          "internalType": "uint256",
          "name": "_tokenId",
          "type": "uint256"
        }
      ],
      "name": "levelUp",
      "outputs": [],
      "stateMutability": "nonpayable",
      "type": "function"
    },
    {
      "inputs": [
        {
          "internalType": "uint256",
          "name": "_tokenId",
          "type": "uint256"
        }
      ],
      "name": "stake",
      "outputs": [],
      "stateMutability": "nonpayable",
      "type": "function"
    },
    {
      "inputs": [
        {
          "internalType": "uint256",
          "name": "_tokenId",
          "type": "uint256"
        }
      ],
      "name": "unStake",
      "outputs": [],
      "stateMutability": "nonpayable",
      "type": "function"
    },
    {
      "inputs": [
        {
          "internalType": "uint256",
          "name": "_tokenId",
          "type": "uint256"
        }
      ],
      "name": "burn",
      "outputs": [],
      "stateMutability": "nonpayable",
      "type": "function"
    },
    {
      "inputs": [
        {
          "internalType": "uint256",
          "name": "_heroTokenId",
          "type": "uint256"
        }
      ],
      "name": "getHeroStatus",
      "outputs": [
        {
          "components": [
            {
              "internalType": "uint256",
              "name": "tokenId",
              "type": "uint256"
            },
            {
              "internalType": "uint256",
              "name": "level",
              "type": "uint256"
            },
            {
              "internalType": "string",
              "name": "grade",
              "type": "string"
            },
            {
              "internalType": "uint256",
              "name": "birthTime",
              "type": "uint256"
            },
            {
              "internalType": "uint256",
              "name": "reward",
              "type": "uint256"
            },
            {
              "components": [
                {
                  "internalType": "bool",
                  "name": "borrowed",
                  "type": "bool"
                },
                {
                  "internalType": "bool",
                  "name": "traveled",
                  "type": "bool"
                },
                {
                  "internalType": "bool",
                  "name": "mining",
                  "type": "bool"
                },
                {
                  "internalType": "address",
                  "name": "owner",
                  "type": "address"
                },
                {
                  "components": [
                    {
                      "internalType": "address",
                      "name": "travelOwner",
                      "type": "address"
                    },
                    {
                      "internalType": "uint256",
                      "name": "travelTime",
                      "type": "uint256"
                    }
                  ],
                  "internalType": "struct IHeroCore.traveledStruct",
                  "name": "travelData",
                  "type": "tuple"
                },
                {
                  "components": [
                    {
                      "internalType": "uint256",
                      "name": "borrowEndTime",
                      "type": "uint256"
                    },
                    {
                      "internalType": "address",
                      "name": "borrowers",
                      "type": "address"
                    }
                  ],
                  "internalType": "struct IHeroCore.borrowStruct",
                  "name": "borrowData",
                  "type": "tuple"
                }
              ],
              "internalType": "struct IHeroCore.chcekStatus",
              "name": "status",
              "type": "tuple"
            }
          ],
          "internalType": "struct IHeroCore.HERO",
          "name": "",
          "type": "tuple"
        }
      ],
      "stateMutability": "view",
      "type": "function"
    },
    {
      "inputs": [
        {
          "internalType": "address",
          "name": "_user",
          "type": "address"
        }
      ],
      "name": "getMyTotalHeroStatus",
      "outputs": [
        {
          "components": [
            {
              "internalType": "uint256",
              "name": "tokenId",
              "type": "uint256"
            },
            {
              "internalType": "uint256",
              "name": "level",
              "type": "uint256"
            },
            {
              "internalType": "string",
              "name": "grade",
              "type": "string"
            },
            {
              "internalType": "uint256",
              "name": "birthTime",
              "type": "uint256"
            },
            {
              "internalType": "uint256",
              "name": "reward",
              "type": "uint256"
            },
            {
              "components": [
                {
                  "internalType": "bool",
                  "name": "borrowed",
                  "type": "bool"
                },
                {
                  "internalType": "bool",
                  "name": "traveled",
                  "type": "bool"
                },
                {
                  "internalType": "bool",
                  "name": "mining",
                  "type": "bool"
                },
                {
                  "internalType": "address",
                  "name": "owner",
                  "type": "address"
                },
                {
                  "components": [
                    {
                      "internalType": "address",
                      "name": "travelOwner",
                      "type": "address"
                    },
                    {
                      "internalType": "uint256",
                      "name": "travelTime",
                      "type": "uint256"
                    }
                  ],
                  "internalType": "struct IHeroCore.traveledStruct",
                  "name": "travelData",
                  "type": "tuple"
                },
                {
                  "components": [
                    {
                      "internalType": "uint256",
                      "name": "borrowEndTime",
                      "type": "uint256"
                    },
                    {
                      "internalType": "address",
                      "name": "borrowers",
                      "type": "address"
                    }
                  ],
                  "internalType": "struct IHeroCore.borrowStruct",
                  "name": "borrowData",
                  "type": "tuple"
                }
              ],
              "internalType": "struct IHeroCore.chcekStatus",
              "name": "status",
              "type": "tuple"
            }
          ],
          "internalType": "struct IHeroCore.HERO[]",
          "name": "",
          "type": "tuple[]"
        }
      ],
      "stateMutability": "view",
      "type": "function"
    }
  ],
  "bytecode": "0x60806040523480156200001157600080fd5b506005805460ff60a81b1960ff60a01b19909116600160a01b1716600160a81b178155600480546001600160a01b0319163317905560088054600181810183557ff3f7a9fe364faab93b216da50a3214154f22a0a2b415b23a84c8169e8b636ee39182018190558254808201845582019390935581548084018355600e9082015581548084018355601e9082015581548084019092556032910155600980549182018155600081905260408051808201909152818152684d7974686f6c6f677960b81b602091909101908152620000fa92600080516020620051d6833981519152019162000247565b5060098054600181018255600082905260408051808201909152828152684c6567656e6461727960b81b60209091019081526200014b92600080516020620051d68339815191529092019162000247565b5060098054600181018255600091909152604080518082019091526004808252634570696360e01b60209092019182526200019992600080516020620051d683398151915201919062000247565b506009805460018101825560009190915260408051808201909152600d8082526c20b236b4b734b9ba3930ba37b960991b6020909201918252620001f092600080516020620051d683398151915201919062000247565b506009805460018101825560009190915260408051808201909152600680825265139bdc9b585b60d21b60209092019182526200024092600080516020620051d683398151915201919062000247565b506200032a565b8280546200025590620002ed565b90600052602060002090601f016020900481019282620002795760008555620002c4565b82601f106200029457805160ff1916838001178555620002c4565b82800160010185558215620002c4579182015b82811115620002c4578251825591602001919060010190620002a7565b50620002d2929150620002d6565b5090565b5b80821115620002d25760008155600101620002d7565b6002810460018216806200030257607f821691505b602082108114156200032457634e487b7160e01b600052602260045260246000fd5b50919050565b614e9c806200033a6000396000f3fe6080604052600436106101f95760003560e01c80637cac00ee1161010d578063aa93c0ee116100a0578063cde15d9e1161006f578063cde15d9e14610536578063d7c41c7914610563578063d7dd41f214610583578063eb600465146105a3578063ee72b8cc146105c3576101f9565b8063aa93c0ee146104cc578063c21bae0c146104ec578063c412eaba14610501578063cd7308d614610516576101f9565b80639eb4eae5116100dc5780639eb4eae514610455578063a422ba3a1461046a578063a694fc3a14610497578063a8469ce9146104b7576101f9565b80637cac00ee146103eb57806380d953dd1461040057806383a1d7e514610420578063893d20e814610440576101f9565b80632a47a9451161019057806342966c681161015f57806342966c68146103565780635d3eea91146103765780636805b84b146103965780636f7c8c06146103ab578063727da60a146103cb576101f9565b80632a47a945146102ec5780633015394c1461030c57806332590c5c1461032c5780633a1a808014610341576101f9565b80631b9cbdfb116101cc5780631b9cbdfb1461027e57806321df0da71461029357806328919df6146102b557806328f833b7146102d7576101f9565b80630ae2fe5c146101fe5780630ce90ec214610220578063173489eb1461024057806317a1352214610248575b600080fd5b34801561020a57600080fd5b5061021e610219366004614432565b6105d8565b005b34801561022c57600080fd5b5061021e61023b3660046143d3565b61088e565b61021e610bb6565b34801561025457600080fd5b506102686102633660046143d3565b610c85565b6040516102759190614d3a565b60405180910390f35b34801561028a57600080fd5b50610268610f4d565b34801561029f57600080fd5b506102a8610f53565b604051610275919061456c565b3480156102c157600080fd5b506102ca610f62565b604051610275919061463e565b3480156102e357600080fd5b506102a8610f72565b3480156102f857600080fd5b5061021e6103073660046143d3565b610f81565b34801561031857600080fd5b5061021e6103273660046143d3565b61117a565b34801561033857600080fd5b5061026861160f565b34801561034d57600080fd5b50610268611616565b34801561036257600080fd5b5061021e6103713660046143d3565b61161c565b34801561038257600080fd5b5061021e6103913660046143d3565b61167d565b3480156103a257600080fd5b506102ca6118e0565b3480156103b757600080fd5b5061021e6103c63660046143d3565b6118f0565b3480156103d757600080fd5b5061021e6103e63660046143d3565b611a7d565b3480156103f757600080fd5b506102a8611c12565b34801561040c57600080fd5b5061021e61041b3660046143d3565b611c21565b34801561042c57600080fd5b5061021e61043b3660046143d3565b611db9565b34801561044c57600080fd5b506102a8611e29565b34801561046157600080fd5b5061021e611e38565b34801561047657600080fd5b5061048a6104853660046143d3565b611e83565b6040516102759190614d27565b3480156104a357600080fd5b5061021e6104b23660046143d3565b612000565b3480156104c357600080fd5b50610268612140565b3480156104d857600080fd5b506102686104e736600461432c565b61214e565b3480156104f857600080fd5b5061026861219c565b34801561050d57600080fd5b506102a86121a2565b34801561052257600080fd5b5061021e6105313660046143d3565b6121b1565b34801561054257600080fd5b50610556610551366004614267565b612491565b60405161027591906145de565b34801561056f57600080fd5b5061021e61057e36600461429f565b612813565b34801561058f57600080fd5b5061021e61059e3660046143d3565b6128b9565b3480156105af57600080fd5b5061021e6105be366004614403565b6129e5565b3480156105cf57600080fd5b5061021e612cb3565b8160006105e3611c12565b6001600160a01b0316636352211e836040518263ffffffff1660e01b815260040161060e9190614d3a565b60206040518083038186803b15801561062657600080fd5b505afa15801561063a573d6000803e3d6000fd5b505050506040513d601f19601f8201168201806040525081019061065e9190614283565b90506001600160a01b03811630146106915760405162461bcd60e51b815260040161068890614bfd565b60405180910390fd5b6000848152600b60205260409020600581015460ff16156106c45760405162461bcd60e51b81526004016106889061490c565b336000908152600e6020526040902054156106f15760405162461bcd60e51b815260040161068890614cae565b6000858152600d6020908152604080832081518083018352338082528185018a81528354600180820186559488528688209351600290910290930180546001600160a01b0319166001600160a01b039094169390931783555191909201558352600e909152812086905561076c8566038d7ea4c68000612cfe565b9050610776610f53565b6001600160a01b03166323b872dd3330846040518463ffffffff1660e01b81526004016107a593929190614599565b602060405180830381600087803b1580156107bf57600080fd5b505af11580156107d3573d6000803e3d6000fd5b505050506040513d601f19601f820116820180604052508101906107f7919061430c565b50610800610f53565b60055460405163a9059cbb60e01b81526001600160a01b039283169263a9059cbb92610833929116908590600401614580565b602060405180830381600087803b15801561084d57600080fd5b505af1158015610861573d6000803e3d6000fd5b505050506040513d601f19601f82011682018060405250810190610885919061430c565b50505050505050565b806000610899611c12565b6001600160a01b0316636352211e836040518263ffffffff1660e01b81526004016108c49190614d3a565b60206040518083038186803b1580156108dc57600080fd5b505afa1580156108f0573d6000803e3d6000fd5b505050506040513d601f19601f820116820180604052508101906109149190614283565b90506001600160a01b038116301461093e5760405162461bcd60e51b815260040161068890614bfd565b6000838152600b602052604090206005810154630100000090046001600160a01b0316331461097f5760405162461bcd60e51b815260040161068890614a8b565b6001810154600581106109a45760405162461bcd60e51b815260040161068890614cf2565b6000610a3c8360020180546109b890614da5565b80601f01602080910402602001604051908101604052809291908181526020018280546109e490614da5565b8015610a315780601f10610a0657610100808354040283529160200191610a31565b820191906000526020600020905b815481529060010190602001808311610a1457829003601f168201915b50505050508361214e565b905080610a47610f53565b6001600160a01b03166370a08231336040518263ffffffff1660e01b8152600401610a72919061456c565b60206040518083038186803b158015610a8a57600080fd5b505afa158015610a9e573d6000803e3d6000fd5b505050506040513d601f19601f82011682018060405250810190610ac291906143eb565b1015610ae05760405162461bcd60e51b8152600401610688906149a1565b610aeb826001612d11565b6001840155610af8610f53565b6001600160a01b03166323b872dd3330846040518463ffffffff1660e01b8152600401610b2793929190614599565b602060405180830381600087803b158015610b4157600080fd5b505af1158015610b55573d6000803e3d6000fd5b505050506040513d601f19601f82011682018060405250810190610b79919061430c565b50610b82610f53565b6001600160a01b031663a9059cbb610b98611e29565b836040518363ffffffff1660e01b8152600401610833929190614580565b6006543490600090610bc9908390612d1d565b905081610be85760405162461bcd60e51b815260040161068890614bce565b600654821015610c0a5760405162461bcd60e51b815260040161068890614738565b610c12612d29565b610c1a611e29565b6001600160a01b03166108fc839081150290604051600060405180830381858888f19350505050158015610c52573d6000803e3d6000fd5b50604051339082156108fc029083906000818181858888f19350505050158015610c80573d6000803e3d6000fd5b505050565b6000816000610c92611c12565b6001600160a01b0316636352211e836040518263ffffffff1660e01b8152600401610cbd9190614d3a565b60206040518083038186803b158015610cd557600080fd5b505afa158015610ce9573d6000803e3d6000fd5b505050506040513d601f19601f82011682018060405250810190610d0d9190614283565b90506001600160a01b0381163014610d375760405162461bcd60e51b815260040161068890614bfd565b6000600b60008681526020019081526020016000206040518060c00160405290816000820154815260200160018201548152602001600282018054610d7b90614da5565b80601f0160208091040260200160405190810160405280929190818152602001828054610da790614da5565b8015610df45780601f10610dc957610100808354040283529160200191610df4565b820191906000526020600020905b815481529060010190602001808311610dd757829003601f168201915b505050918352505060038201546020808301919091526004830154604080840191909152805160c081018252600585015460ff8082161515835261010082048116151583860152620100008204161515828401526001600160a01b0363010000009091048116606083810191909152835180850185526006880154831681526007880154818701526080840152835180850190945260088701548452600990960154169282019290925260a08201529101529050610eb0610f62565b610f3f576000610ec260006001613193565b90506000610eda600c54610ed4613573565b90612d1d565b90506000610eff82610ef9691a784379d99db4200000622819a0613577565b90612cfe565b90506000610f0e896000613193565b90506000610f2082610ef98588613577565b6080870151909150610f329082612d11565b9850505050505050610f46565b6080015192505b5050919050565b60075481565b6002546001600160a01b031690565b600554600160a81b900460ff1690565b6005546001600160a01b031681565b806000610f8c611c12565b6001600160a01b0316636352211e836040518263ffffffff1660e01b8152600401610fb79190614d3a565b60206040518083038186803b158015610fcf57600080fd5b505afa158015610fe3573d6000803e3d6000fd5b505050506040513d601f19601f820116820180604052508101906110079190614283565b90506001600160a01b03811630146110315760405162461bcd60e51b815260040161068890614bfd565b6000838152600b6020526040812090611048613573565b905060006110598262093a80612d11565b6005840154909150610100900460ff16156110865760405162461bcd60e51b815260040161068890614b60565b600583015462010000900460ff16156110b15760405162461bcd60e51b815260040161068890614b60565b600583015460ff16156111135760088301548111156110e25760405162461bcd60e51b81526004016106889061476f565b60098301546001600160a01b0316331461110e5760405162461bcd60e51b815260040161068890614c34565b611146565b6005830154630100000090046001600160a01b031633146111465760405162461bcd60e51b815260040161068890614c77565b60058301805461ff0019166101001790556006830180546001600160a01b0319163317905560079092019190915550505050565b806000611185611c12565b6001600160a01b0316636352211e836040518263ffffffff1660e01b81526004016111b09190614d3a565b60206040518083038186803b1580156111c857600080fd5b505afa1580156111dc573d6000803e3d6000fd5b505050506040513d601f19601f820116820180604052508101906112009190614283565b90506001600160a01b038116301461122a5760405162461bcd60e51b815260040161068890614bfd565b336000908152600e60205260409020546112565760405162461bcd60e51b815260040161068890614af2565b336000908152600e60209081526040808320839055858352600d9091528120905b815481101561160857336001600160a01b03168282815481106112aa57634e487b7160e01b600052603260045260246000fd5b60009182526020909120600290910201546001600160a01b031614156115f6578181815481106112ea57634e487b7160e01b600052603260045260246000fd5b60009182526020822060029091020180546001600160a01b03191681556001908101919091558254148061132a575081548190611328906001612d1d565b145b1561137b578180548061134d57634e487b7160e01b600052603160045260246000fd5b60008281526020812060026000199093019283020180546001600160a01b0319168155600101559055611489565b8154600090839061138d906001612d1d565b815481106113ab57634e487b7160e01b600052603260045260246000fd5b60009182526020918290206040805180820190915260029092020180546001600160a01b0316825260010154918101919091528354909150819084908490811061140557634e487b7160e01b600052603260045260246000fd5b600091825260209182902083516002929092020180546001600160a01b0319166001600160a01b03909216919091178155910151600190910155825483908061145e57634e487b7160e01b600052603160045260246000fd5b60008281526020812060026000199093019283020180546001600160a01b0319168155600101559055505b60006114d666038d7ea4c680008484815481106114b657634e487b7160e01b600052603260045260246000fd5b906000526020600020906002020160010154612cfe90919063ffffffff16565b90506114e0610f53565b6005546040516323b872dd60e01b81526001600160a01b03928316926323b872dd926115159291169030908690600401614599565b602060405180830381600087803b15801561152f57600080fd5b505af1158015611543573d6000803e3d6000fd5b505050506040513d601f19601f82011682018060405250810190611567919061430c565b50611570610f53565b6001600160a01b031663a9059cbb33836040518363ffffffff1660e01b815260040161159d929190614580565b602060405180830381600087803b1580156115b757600080fd5b505af11580156115cb573d6000803e3d6000fd5b505050506040513d601f19601f820116820180604052508101906115ef919061430c565b5050611608565b8061160081614de0565b915050611277565b5050505050565b622819a081565b60065481565b611624611c12565b6001600160a01b03166342966c68826040518263ffffffff1660e01b815260040161164f9190614d3a565b600060405180830381600087803b15801561166957600080fd5b505af1158015611608573d6000803e3d6000fd5b806000611688611c12565b6001600160a01b0316636352211e836040518263ffffffff1660e01b81526004016116b39190614d3a565b60206040518083038186803b1580156116cb57600080fd5b505afa1580156116df573d6000803e3d6000fd5b505050506040513d601f19601f820116820180604052508101906117039190614283565b90506001600160a01b038116301461172d5760405162461bcd60e51b815260040161068890614bfd565b6000838152600b60205260409020600581015460ff16156117605760405162461bcd60e51b81526004016106889061489e565b6005810154610100900460ff161561178a5760405162461bcd60e51b8152600401610688906149d8565b600581015462010000900460ff16156117b55760405162461bcd60e51b815260040161068890614b97565b6117bd613583565b6004810180546005830180546301000000600160b81b031916905560009091556117e5613573565b600c556117f0610f53565b6001600160a01b031663a9059cbb33836040518363ffffffff1660e01b815260040161181d929190614580565b602060405180830381600087803b15801561183757600080fd5b505af115801561184b573d6000803e3d6000fd5b505050506040513d601f19601f8201168201806040525081019061186f919061430c565b50611878611c12565b6001600160a01b03166323b872dd3033886040518463ffffffff1660e01b81526004016118a793929190614599565b600060405180830381600087803b1580156118c157600080fd5b505af11580156118d5573d6000803e3d6000fd5b505050505050505050565b600554600160a01b900460ff1690565b8060006118fb611c12565b6001600160a01b0316636352211e836040518263ffffffff1660e01b81526004016119269190614d3a565b60206040518083038186803b15801561193e57600080fd5b505afa158015611952573d6000803e3d6000fd5b505050506040513d601f19601f820116820180604052508101906119769190614283565b90506001600160a01b03811630146119a05760405162461bcd60e51b815260040161068890614bfd565b6000838152600b60205260408120906119b7613573565b600583015490915062010000900460ff16156119e55760405162461bcd60e51b815260040161068890614abb565b60098201546001600160a01b0316331480611a1357506005820154630100000090046001600160a01b031633145b611a2f5760405162461bcd60e51b815260040161068890614b29565b6008820154811015611a535760405162461bcd60e51b815260040161068890614693565b5060058101805460ff191690556000600882015560090180546001600160a01b0319169055505050565b806000611a88611c12565b6001600160a01b0316636352211e836040518263ffffffff1660e01b8152600401611ab39190614d3a565b60206040518083038186803b158015611acb57600080fd5b505afa158015611adf573d6000803e3d6000fd5b505050506040513d601f19601f82011682018060405250810190611b039190614283565b90506001600160a01b0381163014611b2d5760405162461bcd60e51b815260040161068890614bfd565b6000838152600b60205260409020611b43613583565b6004810180546000909155600582015462010000900460ff16611b785760405162461bcd60e51b8152600401610688906147c2565b611b80613573565b600c55611b8b610f53565b6001600160a01b031663a9059cbb33836040518363ffffffff1660e01b8152600401611bb8929190614580565b602060405180830381600087803b158015611bd257600080fd5b505af1158015611be6573d6000803e3d6000fd5b505050506040513d601f19601f82011682018060405250810190611c0a919061430c565b505050505050565b6001546001600160a01b031690565b6007548190811015611c455760405162461bcd60e51b815260040161068890614649565b611c4d610f53565b6001600160a01b03166323b872dd3330846040518463ffffffff1660e01b8152600401611c7c93929190614599565b602060405180830381600087803b158015611c9657600080fd5b505af1158015611caa573d6000803e3d6000fd5b505050506040513d601f19601f82011682018060405250810190611cce919061430c565b50600754811115611d83576000611cf060075483612d1d90919063ffffffff16565b9050611cfa610f53565b6001600160a01b031663a9059cbb611d10611e29565b836040518363ffffffff1660e01b8152600401611d2e929190614580565b602060405180830381600087803b158015611d4857600080fd5b505af1158015611d5c573d6000803e3d6000fd5b505050506040513d601f19601f82011682018060405250810190611d80919061430c565b50505b336000908152602081905260409020611d9f4262093a80612d11565b815460018101835560009283526020909220909101555050565b336000908152602081905260408120805483908110611de857634e487b7160e01b600052603260045260246000fd5b90600052602060002001549050428111611e145760405162461bcd60e51b815260040161068890614867565b611e1d826136b3565b611e25612d29565b5050565b6004546001600160a01b031690565b6004546001600160a01b03163314611e625760405162461bcd60e51b815260040161068890614830565b6005805460ff60a01b198116600160a01b9182900460ff1615909102179055565b611e8b61411e565b600b60008381526020019081526020016000206040518060c00160405290816000820154815260200160018201548152602001600282018054611ecd90614da5565b80601f0160208091040260200160405190810160405280929190818152602001828054611ef990614da5565b8015611f465780601f10611f1b57610100808354040283529160200191611f46565b820191906000526020600020905b815481529060010190602001808311611f2957829003601f168201915b505050918352505060038201546020808301919091526004830154604080840191909152805160c081018252600585015460ff8082161515835261010082048116151583860152620100008204161515828401526001600160a01b0363010000009091048116606083810191909152835180850185526006880154831681526007880154818701526080840152835180850190945260088701548452600990960154169282019290925260a082015291015290505b919050565b600061200a611c12565b6001600160a01b0316636352211e836040518263ffffffff1660e01b81526004016120359190614d3a565b60206040518083038186803b15801561204d57600080fd5b505afa158015612061573d6000803e3d6000fd5b505050506040513d601f19601f820116820180604052508101906120859190614283565b6000838152600b602052604090209091506001600160a01b03821633146120be5760405162461bcd60e51b8152600401610688906147f9565b6005810180546301000000600160b81b031916336301000000021790556120e3611c12565b6001600160a01b03166323b872dd3330866040518463ffffffff1660e01b815260040161211293929190614599565b600060405180830381600087803b15801561212c57600080fd5b505af1158015610885573d6000803e3d6000fd5b691a784379d99db420000081565b60008061215a846137db565b90506000612167846138e3565b9050600a6121758284614d6f565b61217f9190614d5b565b61219190670de0b6b3a7640000614d6f565b925050505b92915050565b600c5481565b6003546001600160a01b031690565b8060006121bc611c12565b6001600160a01b0316636352211e836040518263ffffffff1660e01b81526004016121e79190614d3a565b60206040518083038186803b1580156121ff57600080fd5b505afa158015612213573d6000803e3d6000fd5b505050506040513d601f19601f820116820180604052508101906122379190614283565b90506001600160a01b03811630146122615760405162461bcd60e51b815260040161068890614bfd565b6000838152600b6020526040812090612278613573565b6005830154909150610100900460ff166122a45760405162461bcd60e51b815260040161068890614b60565b60078201548110156122c85760405162461bcd60e51b8152600401610688906146ca565b600682015460058301546001600160a01b03918216913363010000009092041614806122fc5750336001600160a01b038216145b6123185760405162461bcd60e51b815260040161068890614a0f565b6008830154600090831115612364575060058301805460ff191690819055600060088501556009840180546001600160a01b0319169055630100000090046001600160a01b0316612367565b50805b60058401805461ff00191690556006840180546001600160a01b03191690556000600785018190556123998882613193565b905060006123a682613930565b9050600181101561241c576123b96121a2565b6001600160a01b031663156e29f6846001806040518463ffffffff1660e01b81526004016123e9939291906145bd565b600060405180830381600087803b15801561240357600080fd5b505af1158015612417573d6000803e3d6000fd5b505050505b6124246121a2565b6001600160a01b031663156e29f6848360016040518463ffffffff1660e01b8152600401612454939291906145bd565b600060405180830381600087803b15801561246e57600080fd5b505af1158015612482573d6000803e3d6000fd5b50505050505050505050505050565b6060600061249d611c12565b6001600160a01b03166370a08231846040518263ffffffff1660e01b81526004016124c8919061456c565b60206040518083038186803b1580156124e057600080fd5b505afa1580156124f4573d6000803e3d6000fd5b505050506040513d601f19601f8201168201806040525081019061251891906143eb565b905060008167ffffffffffffffff81111561254357634e487b7160e01b600052604160045260246000fd5b60405190808252806020026020018201604052801561257c57816020015b61256961411e565b8152602001906001900390816125615790505b5090506000805b600a54811015612809576000600a82815481106125b057634e487b7160e01b600052603260045260246000fd5b90600052602060002090600a02016040518060c001604052908160008201548152602001600182015481526020016002820180546125ed90614da5565b80601f016020809104026020016040519081016040528092919081815260200182805461261990614da5565b80156126665780601f1061263b57610100808354040283529160200191612666565b820191906000526020600020905b81548152906001019060200180831161264957829003601f168201915b505050918352505060038201546020808301919091526004830154604080840191909152805160c081018252600585015460ff8082161515835261010082048116151583860152620100008204161515828401526001600160a01b036301000000909104811660608381019190915283518085018552600688015483168152600788015481870152608084015283518085019094526008870154845260099096015481169383019390935260a0810191909152929091019190915281519192508816612730611c12565b6001600160a01b0316636352211e836040518263ffffffff1660e01b815260040161275b9190614d3a565b60206040518083038186803b15801561277357600080fd5b505afa158015612787573d6000803e3d6000fd5b505050506040513d601f19601f820116820180604052508101906127ab9190614283565b6001600160a01b031614156127f457818585815181106127db57634e487b7160e01b600052603260045260246000fd5b60209081029190910101526127f1846001612d11565b93505b5050808061280190614de0565b915050612583565b5090949350505050565b6004546001600160a01b0316331461283d5760405162461bcd60e51b815260040161068890614830565b61284f82670de0b6b3a7640000612cfe565b60065561286481670de0b6b3a7640000612cfe565b6007555050600180546001600160a01b039586166001600160a01b0319918216179091556002805494861694821694909417909355600380549285169284169290921790915560058054919093169116179055565b8060006128c4611c12565b6001600160a01b0316636352211e836040518263ffffffff1660e01b81526004016128ef9190614d3a565b60206040518083038186803b15801561290757600080fd5b505afa15801561291b573d6000803e3d6000fd5b505050506040513d601f19601f8201168201806040525081019061293f9190614283565b90506001600160a01b03811630146129695760405162461bcd60e51b815260040161068890614bfd565b6000838152600b60205260409020600581015460ff161561299c5760405162461bcd60e51b8152600401610688906148d5565b6005810154610100900460ff16156129c65760405162461bcd60e51b815260040161068890614a54565b6129ce613583565b600501805462ff0000191662010000179055505050565b8160006129f0611c12565b6001600160a01b0316636352211e836040518263ffffffff1660e01b8152600401612a1b9190614d3a565b60206040518083038186803b158015612a3357600080fd5b505afa158015612a47573d6000803e3d6000fd5b505050506040513d601f19601f82011682018060405250810190612a6b9190614283565b90506001600160a01b0381163014612a955760405162461bcd60e51b815260040161068890614bfd565b6000848152600b6020526040812090612aac613573565b600583015490915062010000900460ff1615612ada5760405162461bcd60e51b815260040161068890614abb565b6005820154630100000090046001600160a01b03163314612b0d5760405162461bcd60e51b815260040161068890614701565b600080612b1a8888613986565b9150915081612b3b5760405162461bcd60e51b815260040161068890614950565b60208101516000612b4c8a8a613adb565b60058701805460ff191660011790559050612b678583612d11565b600887015582516009870180546001600160a01b0319166001600160a01b03909216919091179055612b97610f53565b6005546040516323b872dd60e01b81526001600160a01b03928316926323b872dd92612bcc9291169030908690600401614599565b602060405180830381600087803b158015612be657600080fd5b505af1158015612bfa573d6000803e3d6000fd5b505050506040513d601f19601f82011682018060405250810190612c1e919061430c565b50612c27610f53565b6001600160a01b031663a9059cbb33836040518363ffffffff1660e01b8152600401612c54929190614580565b602060405180830381600087803b158015612c6e57600080fd5b505af1158015612c82573d6000803e3d6000fd5b505050506040513d601f19601f82011682018060405250810190612ca6919061430c565b5050505050505050505050565b6004546001600160a01b03163314612cdd5760405162461bcd60e51b815260040161068890614830565b6005805460ff60a81b198116600160a81b9182900460ff1615909102179055565b6000612d0a8284614d6f565b9392505050565b6000612d0a8284614d43565b6000612d0a8284614d8e565b612d31611c12565b6001600160a01b0316636a627842336040518263ffffffff1660e01b8152600401612d5c919061456c565b600060405180830381600087803b158015612d7657600080fd5b505af1158015612d8a573d6000803e3d6000fd5b505050506000612d98611c12565b6001600160a01b031663295d3ee86040518163ffffffff1660e01b815260040160206040518083038186803b158015612dd057600080fd5b505afa158015612de4573d6000803e3d6000fd5b505050506040513d601f19601f82011682018060405250810190612e0891906143eb565b90506000612e14611c12565b6001600160a01b031663295d3ee86040518163ffffffff1660e01b815260040160206040518083038186803b158015612e4c57600080fd5b505afa158015612e60573d6000803e3d6000fd5b505050506040513d601f19601f82011682018060405250810190612e8491906143eb565b90506000612e9182613d30565b6040805160c0808201835286825260016020808401828152848601878152426060808801919091526000608080890182905289519788018a52818852878601829052878a018290529187018190528851808a018a52818152808601829052918701919091528751808901895281815280850182905260a087810191909152870195909552898552600b8352959093208451815592519183019190915592518051949550919384939192612f4b926002850192910190614159565b506060828101516003830155608080840151600484015560a09384015180516005850180546020808501516040808701519887015160ff199094169515159590951761ff001916610100911515919091021762ff000019166201000097151597909702969096176301000000600160b81b03191663010000006001600160a01b0392831602179091559282015180516006870180546001600160a01b0319908116928716929092179055908501516007870155919095015180516008860155830151600990940180549091169390911692909217909155600a8054600181018255600082905284517fc65a7bb8d6351c1cf70c95a316cc6a92839c986682d98bc35f958f4883f9d2a891909202908101918255848301517fc65a7bb8d6351c1cf70c95a316cc6a92839c986682d98bc35f958f4883f9d2a9820155928401518051859492936130be937fc65a7bb8d6351c1cf70c95a316cc6a92839c986682d98bc35f958f4883f9d2aa01920190614159565b506060828101516003830155608080840151600484015560a093840151805160058501805460208085015160408601519786015160ff199093169415159490941761ff001916610100941515949094029390931762ff000019166201000096151596909602959095176301000000600160b81b03191663010000006001600160a01b03968716021790559181015180516006860180546001600160a01b031990811692871692909217905590830151600786015594015180516008850155015160099092018054909316911617905550505050565b600081156133e35760006131a5611c12565b6001600160a01b031663295d3ee86040518163ffffffff1660e01b815260040160206040518083038186803b1580156131dd57600080fd5b505afa1580156131f1573d6000803e3d6000fd5b505050506040513d601f19601f8201168201806040525081019061321591906143eb565b9050600060015b8281116133d9576000600b60008381526020019081526020016000206040518060c0016040529081600082015481526020016001820154815260200160028201805461326790614da5565b80601f016020809104026020016040519081016040528092919081815260200182805461329390614da5565b80156132e05780601f106132b5576101008083540402835291602001916132e0565b820191906000526020600020905b8154815290600101906020018083116132c357829003601f168201915b505050918352505060038201546020808301919091526004830154604080840191909152805160c081018252600585015460ff8082161515835261010082048116151583860152620100008204161515828401526001600160a01b036301000000909104811660608381019190915283518085018552600688015483168152600788015481870152608084015283518085018552600888015481526009909701549091169386019390935260a0808201959095529190920152908201510151909150156133c6576133c36133bc82604001518360200151613e70565b8490612d11565b92505b50806133d181614de0565b91505061321c565b5091506121969050565b6000600b60008581526020019081526020016000206040518060c0016040529081600082015481526020016001820154815260200160028201805461342790614da5565b80601f016020809104026020016040519081016040528092919081815260200182805461345390614da5565b80156134a05780601f10613475576101008083540402835291602001916134a0565b820191906000526020600020905b81548152906001019060200180831161348357829003601f168201915b505050918352505060038201546020808301919091526004830154604080840191909152805160c081018252600585015460ff8082161515835261010082048116151583860152620100008204161515828401526001600160a01b036301000000909104811660608381019190915283518085018552600688015483168152600788015481870152608084015283518085018552600888015481526009909701549091168685015260a082019590955293909201929092528201519082015191925061356b91613e70565b915050612196565b4290565b6000612d0a8284614d5b565b61358b610f62565b6136b157600061359d60006001613193565b905060006135a9611c12565b6001600160a01b031663295d3ee86040518163ffffffff1660e01b815260040160206040518083038186803b1580156135e157600080fd5b505afa1580156135f5573d6000803e3d6000fd5b505050506040513d601f19601f8201168201806040525081019061361991906143eb565b9050600061362b600c54610ed4613573565b9050600061364a82610ef9691a784379d99db4200000622819a0613577565b905060015b838111611608576000818152600b602052604081209061366f8382613193565b9050600061368182610ef9878b613577565b60048401549091506136939082612d11565b836004018190555050505080806136a990614de0565b91505061364f565b565b3360009081526020819052604081206136cb916141dd565b3360009081526020819052604090208054600114806136f75750805482906136f590600190614d8e565b145b15613735578080548061371a57634e487b7160e01b600052603160045260246000fd5b60019003818190600052602060002001600090559055611e25565b8054600090829061374890600190614d8e565b8154811061376657634e487b7160e01b600052603260045260246000fd5b906000526020600020015490508082848154811061379457634e487b7160e01b600052603260045260246000fd5b9060005260206000200181905550818054806137c057634e487b7160e01b600052603160045260246000fd5b60019003818190600052602060002001600090559055505050565b805160208201206000907f8c57226533ec41d2857120df9ace6dff88130d9b32385e09c9828f75027730f381146138d4577f181ebe3a8fa130246d49bfd123ac54849b05bdcd02c6b1322c78de2a3988a31081146138cb577f6764d804d57285ae9d4c42cc380377d3d0ee9b90ff9eeccaa32d3b2e3e8d7f1781146138c2577fb2c1aaaf9f516585466c9876e2eaf06ee68751aad537b2a6fa22f473d03b58eb81146138b7577fb5333297a8bd10e190cb97fb1ee0f49587c8b2e015370e943c69fd680dabc6bd81146138af5760006138b2565b60c85b6138ba565b60e15b60ff166138c6565b61012c5b6138cf565b6101c25b6138d8565b6102a35b61ffff169392505050565b600081600114613924578160021461391c5781600314613914578160041461390c57600061390f565b60505b613917565b602a5b61391f565b60165b613927565b600f5b60ff1692915050565b600060015b6005811161397d576000613948826140c8565b90508084106139625761395b8185614d8e565b935061396a565b509050611ffb565b508061397581614de0565b915050613935565b50600092915050565b60006139906141fe565b6000848152600d6020908152604080832080548251818502810185019093528083529192909190849084015b82821015613a04576000848152602090819020604080518082019091526002850290910180546001600160a01b031682526001908101548284015290835290920191016139bc565b50505050905060005b8151811015613aa257846001600160a01b0316828281518110613a4057634e487b7160e01b600052603260045260246000fd5b6020026020010151600001516001600160a01b03161415613a90576001828281518110613a7d57634e487b7160e01b600052603260045260246000fd5b6020026020010151935093505050613ad4565b80613a9a81614de0565b915050613a0d565b50600081600081518110613ac657634e487b7160e01b600052603260045260246000fd5b602002602001015192509250505b9250929050565b6000828152600d6020908152604080832080548251818502810185019093528083528493849084015b82821015613b4c576000848152602090819020604080518082019091526002850290910180546001600160a01b03168252600190810154828401529083529092019101613b04565b5050505090506000805b8251811015613d27576000613ba666038d7ea4c68000858481518110613b8c57634e487b7160e01b600052603260045260246000fd5b602002602001015160200151612cfe90919063ffffffff16565b90506000848381518110613bca57634e487b7160e01b600052603260045260246000fd5b6020026020010151600001519050866001600160a01b0316816001600160a01b031614613d0e57613bf9610f53565b6005546040516323b872dd60e01b81526001600160a01b03928316926323b872dd92613c2e9291169030908790600401614599565b602060405180830381600087803b158015613c4857600080fd5b505af1158015613c5c573d6000803e3d6000fd5b505050506040513d601f19601f82011682018060405250810190613c80919061430c565b50613c89610f53565b6001600160a01b031663a9059cbb82846040518363ffffffff1660e01b8152600401613cb6929190614580565b602060405180830381600087803b158015613cd057600080fd5b505af1158015613ce4573d6000803e3d6000fd5b505050506040513d601f19601f82011682018060405250810190613d08919061430c565b50613d12565b8193505b50508080613d1f90614de0565b915050613b56565b50949350505050565b60606000613d3d83614105565b90506000805b600854811015613db257600060088281548110613d7057634e487b7160e01b600052603260045260246000fd5b9060005260206000200154905080841115613d9657613d8f8482612d1d565b9350613d9f565b81925050613db2565b5080613daa81614de0565b915050613d43565b5060098181548110613dd457634e487b7160e01b600052603260045260246000fd5b906000526020600020018054613de990614da5565b80601f0160208091040260200160405190810160405280929190818152602001828054613e1590614da5565b8015613e625780601f10613e3757610100808354040283529160200191613e62565b820191906000526020600020905b815481529060010190602001808311613e4557829003601f168201915b505050505092505050919050565b81516020830120600090817f8c57226533ec41d2857120df9ace6dff88130d9b32385e09c9828f75027730f38214613f69577f181ebe3a8fa130246d49bfd123ac54849b05bdcd02c6b1322c78de2a3988a3108214613f60577f6764d804d57285ae9d4c42cc380377d3d0ee9b90ff9eeccaa32d3b2e3e8d7f178214613f55577fb2c1aaaf9f516585466c9876e2eaf06ee68751aad537b2a6fa22f473d03b58eb8214613f4d577fb5333297a8bd10e190cb97fb1ee0f49587c8b2e015370e943c69fd680dabc6bd8214613f45576000613f48565b60645b613f50565b60965b613f58565b60c85b60ff16613f64565b61012c5b613f6d565b6101c25b61ffff169050600084600114613fc45784600214613fbc5784600314613fb45784600414613fac5784600514613fa4576000613fa7565b60465b613faf565b60285b613fb7565b60195b613fbf565b600f5b613fc7565b600a5b60ff169050600060015b6005811161409b576000613fe36121a2565b6001600160a01b031662fdd58e33846040518363ffffffff1660e01b815260040161400f929190614580565b60206040518083038186803b15801561402757600080fd5b505afa15801561403b573d6000803e3d6000fd5b505050506040513d601f19601f8201168201806040525081019061405f91906143eb565b9050600061406e836001614d43565b905061407a8282614d6f565b6140849085614d43565b93505050808061409390614de0565b915050613fd1565b50600a826140a98386614d43565b6140b39190614d6f565b6140bd9190614d5b565b979650505050505050565b60006103e84244846040516020016140e293929190614556565b6040516020818303038152906040528051906020012060001c6121969190614dfb565b600060644244846040516020016140e293929190614556565b6040518060c001604052806000815260200160008152602001606081526020016000815260200160008152602001614154614215565b905290565b82805461416590614da5565b90600052602060002090601f01602090048101928261418757600085556141cd565b82601f106141a057805160ff19168380011785556141cd565b828001600101855582156141cd579182015b828111156141cd5782518255916020019190600101906141b2565b506141d9929150614252565b5090565b50805460008255906000526020600020908101906141fb9190614252565b50565b604080518082019091526000808252602082015290565b6040805160c0810182526000808252602082018190529181018290526060810191909152608081016142456141fe565b81526020016141546141fe565b5b808211156141d95760008155600101614253565b600060208284031215614278578081fd5b8135612d0a81614e51565b600060208284031215614294578081fd5b8151612d0a81614e51565b60008060008060008060c087890312156142b7578182fd5b86356142c281614e51565b955060208701356142d281614e51565b945060408701356142e281614e51565b935060608701356142f281614e51565b9598949750929560808101359460a0909101359350915050565b60006020828403121561431d578081fd5b81518015158114612d0a578182fd5b6000806040838503121561433e578182fd5b823567ffffffffffffffff80821115614355578384fd5b818501915085601f830112614368578384fd5b813560208282111561437c5761437c614e3b565b604051601f8301601f191681018201848111828210171561439f5761439f614e3b565b60405282815284830182018910156143b5578687fd5b82828601838301379182018101959095529694909301359450505050565b6000602082840312156143e4578081fd5b5035919050565b6000602082840312156143fc578081fd5b5051919050565b60008060408385031215614415578182fd5b82359150602083013561442781614e51565b809150509250929050565b60008060408385031215614444578182fd5b50508035926020909101359150565b60006101a082518452602080840151818601526040840151826040870152805180848801528493505b8084101561449b578184018301518785016101c001529282019261447c565b808411156144ad57846101c082890101525b606086015160608801526080860151608088015260a086015193506144d560a08801856144ed565b601f01601f1916959095016101c00195945050505050565b8051151582526020808201511515818401526040808301511515908401526060808301516001600160a01b0390811691850191909152608080840151805183169186019190915282015160a08086019190915290920151805160c085015201511660e090910152565b9283526020830191909152604082015260600190565b6001600160a01b0391909116815260200190565b6001600160a01b03929092168252602082015260400190565b6001600160a01b039384168152919092166020820152604081019190915260600190565b6001600160a01b039390931683526020830191909152604082015260600190565b6000602080830181845280855180835260408601915060408482028701019250838701855b8281101561463157603f1988860301845261461f858351614453565b94509285019290850190600101614603565b5092979650505050505050565b901515815260200190565b6020808252602a908201527f4572726f72203a20546f6b656e56616c7565206c6f776572207468616e20507260408201526934b1b2a7b32a37b5b2b760b11b606082015260800190565b6020808252601b908201527f4572726f72203a204e6f7420426f72726f7720456e642054496d650000000000604082015260600190565b6020808252601b908201527f4572726f72203a204e6f742054726176656c20456e642054696d650000000000604082015260600190565b60208082526018908201527f4572726f72203a204e6f7420546f6b656e204f776e6572210000000000000000604082015260600190565b60208082526017908201527f4572726f72203a204e6f7420456e6f756768204b6c6179000000000000000000604082015260600190565b60208082526033908201527f4572726f72203a204e6f7420456e6f7567682054696d6520466f722054726176604082015272656c20262620426f72726f77456e6454696d6560681b606082015260800190565b6020808252601b908201527f4572726f72203a20546f6b656e206973204e6f74204d696e696e670000000000604082015260600190565b60208082526017908201527f4572726f72203a204e6f7420546f6b656e204f776e6572000000000000000000604082015260600190565b6020808252601a908201527f4865726f436f7265204572726f72203a206f6e6c794f776e6572000000000000604082015260600190565b60208082526019908201527f4572726f72203a2054696d654c6f636b204475726174696f6e00000000000000604082015260600190565b6020808252601b908201527f4572726f72203a20546f6b656e20697320426f72726f77656421210000000000604082015260600190565b6020808252601a908201527f4572726f72203a20546f6b656e20697320426f72726f77656421000000000000604082015260600190565b60208082526024908201527f4572726f72203a204865726f2069732042726f7777656420616e6f74686f72206040820152632ab9b2b960e11b606082015260800190565b60208082526031908201527f4572726f72203a205265717565737455736572206973204e6f74204578697374604082015270656420496e20526571756573744461746160781b606082015260800190565b60208082526018908201527f4572726f72203a204e6f742045786f75676820546f6b656e0000000000000000604082015260600190565b6020808252601b908201527f4572726f72203a20546f6b656e2069732054726176656c656421210000000000604082015260600190565b60208082526025908201527f4572726f72203a204e6f742054726176656c4f776e6572206f72207374616b6560408201526427bbb732b960d91b606082015260800190565b6020808252601a908201527f4572726f72203a20546f6b656e2069732054726176656c656421000000000000604082015260600190565b60208082526016908201527522b93937b9101d102737ba102a37b5b2b727bbb732b960511b604082015260600190565b60208082526018908201527f4572726f72203a20546f6b656e206973204d696e696e67210000000000000000604082015260600190565b6020808252601c908201527f4572726f72203a204e6f74204578697374656420526571756573742100000000604082015260600190565b6020808252601e908201527f4572726f72203a204e6f74204f776e6572204f7220426f72726f776572730000604082015260600190565b60208082526019908201527f4572726f72203a206865726f2069732054726176656c65642100000000000000604082015260600190565b60208082526019908201527f4572726f72203a20546f6b656e206973204d696e696e67212100000000000000604082015260600190565b6020808252601590820152744572726f72203a2076616c7565206973205a65726f60581b604082015260600190565b6020808252601c908201527f4572726f72203a204865726f206973204e6f74205374616b6564212100000000604082015260600190565b60208082526023908201527f4572726f72203a206d73672e73656e646572206973204e6f7420426f72726f7760408201526265727360e81b606082015260800190565b6020808252601f908201527f4572726f72203a206d73672e73656e646572206973204e6f74204f776e657200604082015260600190565b60208082526024908201527f4572726f72203a20616c7265616479205265717565737420416e6f74686572206040820152634865726f60e01b606082015260800190565b6020808252818101527f4572726f72203a20546f6b656e206973204d61784c6576656c20537461747573604082015260600190565b600060208252612d0a6020830184614453565b90815260200190565b60008219821115614d5657614d56614e0f565b500190565b600082614d6a57614d6a614e25565b500490565b6000816000190483118215151615614d8957614d89614e0f565b500290565b600082821015614da057614da0614e0f565b500390565b600281046001821680614db957607f821691505b60208210811415614dda57634e487b7160e01b600052602260045260246000fd5b50919050565b6000600019821415614df457614df4614e0f565b5060010190565b600082614e0a57614e0a614e25565b500690565b634e487b7160e01b600052601160045260246000fd5b634e487b7160e01b600052601260045260246000fd5b634e487b7160e01b600052604160045260246000fd5b6001600160a01b03811681146141fb57600080fdfea2646970667358221220b505e280138fe5bec3f31903f7abc15440bec240b9fbaf8f824823638670921664736f6c634300080000336e1540171b6c0c960b71a7020d9f60077f6af931a8bbf590da0223dacf75c7af",
  "immutableReferences": {},
  "source": "// SPDX-License-Identifier: MIT\npragma solidity ^0.8.0;\n\nimport \"./utils/HeroController.sol\";\nimport \"./utils/TimeLock.sol\";\nimport \"./utils/LevelDiagram.sol\";\nimport \"./utils/MakeGrade.sol\";\n\nimport \"./interface/IHeroCore.sol\";\n\nimport \"../utils/SafeMath.sol\";\n\ncontract HeroCore is TimeLock, LevelDiagram, MakeGrade, IHeroCore {\n    using SafeMath for *;\n\n    HERO[] heroArray;\n    mapping(uint256 => HERO) private heroVault;\n\n    uint256 private constant MINT_BUY_LIMIT = 3;\n    uint256 private constant MAX_LEVEL = 5;\n    uint256 private constant TIME_LOCK_DURATION = 7 days;\n    uint256 private constant TRAVEL_DURATION = 7 days;\n    uint256 private constant BORROW_PRICE_PER_BLOCK = 1e15;\n\n    uint256 public constant MINING_REWARD = 125000e18;\n    uint256 public constant MINING_DURATION = 365 days / 12;\n    uint256 public lastClaimTime;\n\n    mapping(uint256 => RequestStruct[]) private borrowRequestMap;\n    mapping(address => uint256) private myRequestMap;\n\n    modifier checkStaked(uint256 _tokenId) {\n        address owner = getHeroNFT().ownerOf(_tokenId);\n        require(owner == address(this), \"Error : Hero is Not Staked!!\");\n        _;\n    }\n\n    function mintBuy() external payable {\n        // klay   \n        uint256 value = msg.value;\n        uint256 overAmount = value.sub(priceOfKlay);\n\n        require(value != 0, \"Error : value is Zero\");\n        require(value >= priceOfKlay, \"Error : Not Enough Klay\");\n\n        _mintHero();\n\n        getOwner().transfer(value);\n        payable(msg.sender).transfer(overAmount);\n    }\n\n    function mintByToken(uint256 _tokenAmount) external {\n        // Token   \n        uint256 value = _tokenAmount;\n\n        require(\n            value >= priceOfToken,\n            \"Error : TokenValue lower than PriceOfToken\"\n        );\n\n        getToken().transferFrom(msg.sender, address(this), value);\n\n        if (value > priceOfToken) {\n            uint256 overValue = value.sub(priceOfToken);\n            getToken().transfer(getOwner(), overValue);\n        }\n\n        heroTimeLock[msg.sender].push(block.timestamp.add(TIME_LOCK_DURATION));\n    }\n\n    function mintTimeLock(uint256 _index) external {\n        uint256 time = heroTimeLock[msg.sender][_index];\n\n        require(time > block.timestamp, \"Error : TimeLock Duration\");\n\n        changeTimeLock(_index);\n        _mintHero();\n    }\n\n    function travel(uint256 _tokenId) external checkStaked(_tokenId) {\n        HERO storage hero = heroVault[_tokenId];\n\n        uint256 currentTime = _currentTime();\n        uint256 travelDuration = currentTime.add(TRAVEL_DURATION);\n\n        require(!hero.status.traveled, \"Error : hero is Traveled!\");\n        require(!hero.status.mining, \"Error : hero is Traveled!\");\n\n        if (hero.status.borrowed) {\n            require(\n                travelDuration <= hero.status.borrowData.borrowEndTime,\n                \"Error : Not Enough Time For Travel && BorrowEndTime\"\n            );\n\n            require(\n                msg.sender == hero.status.borrowData.borrowers,\n                \"Error : msg.sender is Not Borrowers\"\n            );\n        } else {\n            require(\n                msg.sender == hero.status.owner,\n                \"Error : msg.sender is Not Owner\"\n            );\n        }\n\n        hero.status.traveled = true;\n        hero.status.travelData.travelOwner = msg.sender;\n        hero.status.travelData.travelTime = travelDuration;\n    }\n\n    function getRewardToTravel(uint256 _tokenId)\n        external\n        checkStaked(_tokenId)\n    {\n        HERO storage hero = heroVault[_tokenId];\n\n        uint256 currentTime = _currentTime();\n\n        require(hero.status.traveled, \"Error : hero is Traveled!\");\n        require(\n            hero.status.travelData.travelTime <= currentTime,\n            \"Error : Not Travel End Time\"\n        );\n\n        address travelOwner = hero.status.travelData.travelOwner;\n\n        require(\n            msg.sender == hero.status.owner || msg.sender == travelOwner,\n            \"Error : Not TravelOwner or stakeOwner\"\n        );\n\n        address receiver;\n\n        if (hero.status.borrowData.borrowEndTime < currentTime) {\n            hero.status.borrowed = false;\n            hero.status.borrowData.borrowEndTime = 0;\n            hero.status.borrowData.borrowers = address(0x0);\n\n            receiver = hero.status.owner;\n        } else {\n            receiver = travelOwner;\n        }\n\n        hero.status.traveled = false;\n        hero.status.travelData.travelOwner = address(0x0);\n        hero.status.travelData.travelTime = 0;\n\n        uint256 power = _getHeroPower(_tokenId, false);\n        uint256 randomItemNumber = calculateItemIndex(power);\n\n        if (randomItemNumber < 1) {\n            getItem().mint(receiver, 1, 1);\n        }\n\n        getItem().mint(receiver, randomItemNumber, 1);\n    }\n\n    function requestBorrow(uint256 _tokenId, uint256 _duartion)\n        external\n        checkStaked(_tokenId)\n    {\n        HERO storage hero = heroVault[_tokenId];\n\n        require(!hero.status.borrowed, \"Error : Hero is Browwed anothor User\");\n\n        require(\n            myRequestMap[msg.sender] == 0,\n            \"Error : already Request Another Hero\"\n        );\n\n        borrowRequestMap[_tokenId].push(RequestStruct(msg.sender, _duartion));\n        myRequestMap[msg.sender] = _tokenId;\n\n        uint256 borrowPrice = _duartion.mul(BORROW_PRICE_PER_BLOCK);\n\n        getToken().transferFrom(msg.sender, address(this), borrowPrice);\n        getToken().transfer(depositAddress, borrowPrice);\n    }\n\n    function cancelRequest(uint256 _tokenId) external checkStaked(_tokenId) {\n        require(myRequestMap[msg.sender] != 0, \"Error : Not Existed Request!\");\n\n        myRequestMap[msg.sender] = 0;\n\n        RequestStruct[] storage requestList = borrowRequestMap[_tokenId];\n\n        for (uint256 i = 0; i < requestList.length; i++) {\n            if (requestList[i].requestOwner == msg.sender) {\n                delete requestList[i];\n\n                if (requestList.length == 1 || requestList.length.sub(1) == i) {\n                    requestList.pop();\n                } else {\n                    RequestStruct memory lastValue = requestList[\n                        requestList.length.sub(1)\n                    ];\n                    requestList[i] = lastValue;\n                    requestList.pop();\n                }\n\n                uint256 borrowPrice = requestList[i].duration.mul(\n                    BORROW_PRICE_PER_BLOCK\n                );\n\n                getToken().transferFrom(\n                    depositAddress,\n                    address(this),\n                    borrowPrice\n                );\n                getToken().transfer(msg.sender, borrowPrice);\n\n                break;\n            }\n        }\n    }\n\n    function approveBorrow(uint256 _tokenId, address _apprrovedUser)\n        external\n        checkStaked(_tokenId)\n    {\n        HERO storage hero = heroVault[_tokenId];\n        uint256 currentTime = _currentTime();\n\n        require(!hero.status.mining, \"Error : Token is Mining!\");\n\n        require(hero.status.owner == msg.sender, \"Error : Not Token Owner!\");\n\n        (bool inRequest, RequestStruct memory data) = _checkUserInBorrowData(\n            _tokenId,\n            _apprrovedUser\n        );\n\n        require(inRequest, \"Error : RequestUser is Not Existed In RequestData\");\n\n        uint256 duration = data.duration;\n\n        uint256 approvedOwnerPrice = _returnBorrowRequestToken(\n            _tokenId,\n            _apprrovedUser\n        );\n\n        hero.status.borrowed = true;\n        hero.status.borrowData.borrowEndTime = currentTime.add(duration);\n        hero.status.borrowData.borrowers = data.requestOwner;\n\n        getToken().transferFrom(\n            depositAddress,\n            address(this),\n            approvedOwnerPrice\n        );\n        getToken().transfer(msg.sender, approvedOwnerPrice);\n    }\n\n    function returnHero(uint256 _tokenId) external checkStaked(_tokenId) {\n        HERO storage hero = heroVault[_tokenId];\n        uint256 currentTime = _currentTime();\n\n        require(!hero.status.mining, \"Error : Token is Mining!\");\n\n        // borrow Hero  \n        // Owner    User   durtion  .\n        require(\n            hero.status.borrowData.borrowers == msg.sender ||\n                hero.status.owner == msg.sender,\n            \"Error : Not Owner Or Borrowers\"\n        );\n\n        require(\n            hero.status.borrowData.borrowEndTime <= currentTime,\n            \"Error : Not Borrow End TIme\"\n        );\n\n        hero.status.borrowed = false;\n        hero.status.borrowData.borrowEndTime = 0;\n        hero.status.borrowData.borrowers = address(0x0);\n    }\n\n    function mining(uint256 _tokenId) external checkStaked(_tokenId) {\n        HERO storage hero = heroVault[_tokenId];\n\n        require(!hero.status.borrowed, \"Error : Token is Borrowed!\");\n        require(!hero.status.traveled, \"Error : Token is Traveled!\");\n\n        _distributeReward();\n\n        hero.status.mining = true;\n    }\n\n    function claimMiningAmount(uint256 _tokenId)\n        external\n        checkStaked(_tokenId)\n    {\n        HERO storage hero = heroVault[_tokenId];\n\n        _distributeReward();\n\n        uint256 rewardAmount = hero.reward;\n        hero.reward = 0;\n\n        require(hero.status.mining, \"Error : Token is Not Mining\");\n\n        lastClaimTime = _currentTime();\n\n        getToken().transfer(msg.sender, rewardAmount);\n    }\n\n    function viewCanClaimAmount(uint256 _tokenId)\n        external\n        view\n        checkStaked(_tokenId)\n        returns (uint256)\n    {\n        HERO memory hero = heroVault[_tokenId];\n\n        if (!getMiningPaused()) {\n            uint256 totalPower = _getHeroPower(0, true);\n            uint256 cycle = _currentTime().sub(lastClaimTime);\n            uint256 totalReward = MINING_REWARD.div(MINING_DURATION).mul(cycle);\n\n            uint256 heroPower = _getHeroPower(_tokenId, false);\n            uint256 personalReward = totalReward.div(totalPower).mul(heroPower);\n\n            return hero.reward.add(personalReward);\n        }\n\n        return hero.reward;\n    }\n\n    function levelUp(uint256 _tokenId) external checkStaked(_tokenId) {\n        HERO storage hero = heroVault[_tokenId];\n\n        require(msg.sender == hero.status.owner, \"Error : Not TokenOwner\");\n\n        uint256 level = hero.level;\n\n        require(level < MAX_LEVEL, \"Error : Token is MaxLevel Status\");\n\n        uint256 calculatePrice = calculateTokenAmount(hero.grade, level);\n\n        require(\n            getToken().balanceOf(msg.sender) >= calculatePrice,\n            \"Error : Not Exough Token\"\n        );\n\n        hero.level = level.add(1);\n\n        getToken().transferFrom(msg.sender, address(this), calculatePrice);\n        getToken().transfer(getOwner(), calculatePrice);\n    }\n\n    function stake(uint256 _tokenId) external {\n        address tokenOwner = getHeroNFT().ownerOf(_tokenId);\n        HERO storage hero = heroVault[_tokenId];\n\n        require(tokenOwner == msg.sender, \"Error : Not Token Owner\");\n\n        hero.status.owner = msg.sender;\n        getHeroNFT().transferFrom(msg.sender, address(this), _tokenId);\n    }\n\n    function unStake(uint256 _tokenId) external checkStaked(_tokenId) {\n        HERO storage hero = heroVault[_tokenId];\n\n        require(!hero.status.borrowed, \"Error : Token is Borrowed!!\");\n        require(!hero.status.traveled, \"Error : Token is Traveled!!\");\n        require(!hero.status.mining, \"Error : Token is Mining!!\");\n\n        _distributeReward();\n\n        uint256 rewardAmount = hero.reward;\n\n        hero.status.owner = address(0x0);\n        hero.reward = 0;\n\n        lastClaimTime = _currentTime();\n\n        getToken().transfer(msg.sender, rewardAmount);\n        getHeroNFT().transferFrom(address(this), msg.sender, _tokenId);\n    }\n\n    function burn(uint256 _tokenId) external {\n        getHeroNFT().burn(_tokenId);\n    }\n\n    // ** ineternal\n    function _mintHero() internal {\n        getHeroNFT().mint(msg.sender);\n\n        uint256 tokenId = getHeroNFT().getTokenIndex();\n\n        uint256 tokenIndex = getHeroNFT().getTokenIndex();\n        string memory grade = makeGrade(tokenIndex);\n\n        HERO memory newHero = HERO(\n            tokenId,\n            1,\n            grade,\n            block.timestamp,\n            0,\n            chcekStatus(\n                false,\n                false,\n                false,\n                address(0x0),\n                traveledStruct(address(0x0), 0),\n                borrowStruct(0, address(0x0))\n            )\n        );\n\n        heroVault[tokenIndex] = newHero;\n        heroArray.push(newHero);\n    }\n\n    function _checkUserInBorrowData(uint256 _tokenId, address _apprrovedUser)\n        internal\n        view\n        returns (bool, RequestStruct memory)\n    {\n        RequestStruct[] memory requestList = borrowRequestMap[_tokenId];\n\n        for (uint256 i = 0; i < requestList.length; i++) {\n            if (requestList[i].requestOwner == _apprrovedUser) {\n                return (true, requestList[i]);\n            }\n        }\n\n        return (false, requestList[0]);\n    }\n\n    function _returnBorrowRequestToken(uint256 _tokenId, address _approvedOwner)\n        internal\n        returns (uint256)\n    {\n        RequestStruct[] memory requestList = borrowRequestMap[_tokenId];\n\n        uint256 approvedOwnerPrice = 0;\n\n        for (uint256 i = 0; i < requestList.length; i++) {\n            uint256 borrowPrice = requestList[i].duration.mul(\n                BORROW_PRICE_PER_BLOCK\n            );\n\n            address approvedOwner = requestList[i].requestOwner;\n\n            if (approvedOwner != _approvedOwner) {\n                getToken().transferFrom(\n                    depositAddress,\n                    address(this),\n                    borrowPrice\n                );\n                getToken().transfer(approvedOwner, borrowPrice);\n            } else {\n                approvedOwnerPrice = borrowPrice;\n            }\n        }\n\n        return approvedOwnerPrice;\n    }\n\n    function _distributeReward() internal {\n        if (!getMiningPaused()) {\n            uint256 totalPower = _getHeroPower(0, true);\n\n            uint256 totalSupply = getHeroNFT().getTokenIndex();\n\n            uint256 cycle = _currentTime().sub(lastClaimTime);\n            uint256 totalReward = MINING_REWARD.div(MINING_DURATION).mul(cycle);\n\n            for (uint256 i = 1; i <= totalSupply; i++) {\n                HERO storage userHero = heroVault[i];\n\n                uint256 heroPower = _getHeroPower(i, false);\n\n                uint256 personalReward = totalReward.div(totalPower).mul(\n                    heroPower\n                );\n                userHero.reward = userHero.reward.add(personalReward);\n            }\n        }\n    }\n\n    function _getHeroPower(uint256 _tokenId, bool total)\n        internal\n        view\n        returns (uint256)\n    {\n        if (total) {\n            uint256 totalSupply = getHeroNFT().getTokenIndex();\n\n            uint256 totalPower;\n\n            for (uint256 i = 1; i <= totalSupply; i++) {\n                HERO memory userHero = heroVault[i];\n\n                if (userHero.status.mining) {\n                    totalPower = totalPower.add(\n                        calculatePower(userHero.grade, userHero.level)\n                    );\n                }\n            }\n\n            return totalPower;\n        } else {\n            HERO memory userHero = heroVault[_tokenId];\n\n            return calculatePower(userHero.grade, userHero.level);\n        }\n    }\n\n    function _currentTime() internal view returns (uint256) {\n        return block.timestamp;\n    }\n\n    //// **** view function\n\n    function getHeroStatus(uint256 _heroTokenId)\n        public\n        view\n        returns (HERO memory)\n    {\n        return heroVault[_heroTokenId];\n    }\n\n    function getMyTotalHeroStatus(address _user)\n        public\n        view\n        returns (HERO[] memory)\n    {\n        uint256 length = getHeroNFT().balanceOf(_user);\n\n        HERO[] memory myheroList = new HERO[](length);\n        uint256 index;\n\n        for (uint256 i = 0; i < heroArray.length; i++) {\n            HERO memory hero = heroArray[i];\n\n            uint256 tokenId = hero.tokenId;\n\n            if (getHeroNFT().ownerOf(tokenId) == _user) {\n                myheroList[index] = hero;\n                index = index.add(1);\n            }\n        }\n\n        return myheroList;\n    }\n}\n",
  "sourcePath": "/Users/yuhojin/Desktop/NFT-lendProject/truffle/contracts/Hero/HeroCore.sol",
  "compiler": {
    "name": "solc",
    "version": "0.8.0+commit.c7dfd78e.Emscripten.clang"
  },
  "schemaVersion": "3.1.0",
  "updatedAt": "2022-07-28T12:24:02.136Z",
  "devdoc": {
    "kind": "dev",
    "methods": {},
    "version": 1
  },
  "userdoc": {
    "kind": "user",
    "methods": {},
    "version": 1
  }
}