{
  "contractName": "HeroController",
  "abi": [
    {
      "inputs": [],
      "stateMutability": "nonpayable",
      "type": "constructor"
    },
    {
      "inputs": [],
      "name": "depositAddress",
      "outputs": [
        {
          "internalType": "address",
          "name": "",
          "type": "address"
        }
      ],
      "stateMutability": "view",
      "type": "function"
    },
    {
      "inputs": [],
      "name": "priceOfKlay",
      "outputs": [
        {
          "internalType": "uint256",
          "name": "",
          "type": "uint256"
        }
      ],
      "stateMutability": "view",
      "type": "function"
    },
    {
      "inputs": [],
      "name": "priceOfToken",
      "outputs": [
        {
          "internalType": "uint256",
          "name": "",
          "type": "uint256"
        }
      ],
      "stateMutability": "view",
      "type": "function"
    },
    {
      "inputs": [
        {
          "internalType": "address",
          "name": "_heroNFT",
          "type": "address"
        },
        {
          "internalType": "address",
          "name": "_token",
          "type": "address"
        },
        {
          "internalType": "address",
          "name": "_item",
          "type": "address"
        },
        {
          "internalType": "address",
          "name": "_depositAddress",
          "type": "address"
        },
        {
          "internalType": "uint256",
          "name": "_klay",
          "type": "uint256"
        },
        {
          "internalType": "uint256",
          "name": "_tokenPrice",
          "type": "uint256"
        }
      ],
      "name": "initialize",
      "outputs": [],
      "stateMutability": "nonpayable",
      "type": "function"
    },
    {
      "inputs": [],
      "name": "changePaused",
      "outputs": [],
      "stateMutability": "nonpayable",
      "type": "function"
    },
    {
      "inputs": [],
      "name": "changeMiningPaused",
      "outputs": [],
      "stateMutability": "nonpayable",
      "type": "function"
    },
    {
      "inputs": [],
      "name": "getOwner",
      "outputs": [
        {
          "internalType": "address payable",
          "name": "",
          "type": "address"
        }
      ],
      "stateMutability": "view",
      "type": "function"
    },
    {
      "inputs": [],
      "name": "getPaused",
      "outputs": [
        {
          "internalType": "bool",
          "name": "",
          "type": "bool"
        }
      ],
      "stateMutability": "view",
      "type": "function"
    },
    {
      "inputs": [],
      "name": "getMiningPaused",
      "outputs": [
        {
          "internalType": "bool",
          "name": "",
          "type": "bool"
        }
      ],
      "stateMutability": "view",
      "type": "function"
    },
    {
      "inputs": [],
      "name": "getItem",
      "outputs": [
        {
          "internalType": "contract IKIP37Full",
          "name": "",
          "type": "address"
        }
      ],
      "stateMutability": "view",
      "type": "function"
    },
    {
      "inputs": [],
      "name": "getToken",
      "outputs": [
        {
          "internalType": "contract IKIP7",
          "name": "",
          "type": "address"
        }
      ],
      "stateMutability": "view",
      "type": "function"
    },
    {
      "inputs": [],
      "name": "getHeroNFT",
      "outputs": [
        {
          "internalType": "contract IHeroNFT",
          "name": "",
          "type": "address"
        }
      ],
      "stateMutability": "view",
      "type": "function"
    }
  ],
  "bytecode": "0x608060405234801561001057600080fd5b506004805460ff60a81b1960ff60a01b19909116600160a01b1716600160a81b179055600380546001600160a01b03191633179055610466806100546000396000f3fe608060405234801561001057600080fd5b50600436106100b45760003560e01c80637cac00ee116100715780637cac00ee14610119578063893d20e8146101215780639eb4eae514610129578063c412eaba14610133578063d7c41c791461013b578063ee72b8cc1461014e576100b4565b80631b9cbdfb146100b957806321df0da7146100d757806328919df6146100ec57806328f833b7146101015780633a1a8080146101095780636805b84b14610111575b600080fd5b6100c1610156565b6040516100ce91906103fc565b60405180910390f35b6100df61015c565b6040516100ce91906103a6565b6100f461016b565b6040516100ce91906103ba565b6100df61017b565b6100c161018a565b6100f4610190565b6100df6101a0565b6100df6101af565b6101316101be565b005b6100df610212565b610131610149366004610341565b610221565b6101316102c7565b60065481565b6001546001600160a01b031690565b600454600160a81b900460ff1690565b6004546001600160a01b031681565b60055481565b600454600160a01b900460ff1690565b6000546001600160a01b031690565b6003546001600160a01b031690565b6003546001600160a01b031633146101f15760405162461bcd60e51b81526004016101e8906103c5565b60405180910390fd5b6004805460ff60a01b198116600160a01b9182900460ff1615909102179055565b6002546001600160a01b031690565b6003546001600160a01b0316331461024b5760405162461bcd60e51b81526004016101e8906103c5565b61025d82670de0b6b3a7640000610312565b60055561027281670de0b6b3a7640000610312565b6006555050600080546001600160a01b039586166001600160a01b0319918216179091556001805494861694821694909417909355600280549285169284169290921790915560048054919093169116179055565b6003546001600160a01b031633146102f15760405162461bcd60e51b81526004016101e8906103c5565b6004805460ff60a81b198116600160a81b9182900460ff1615909102179055565b600061031e8284610405565b9392505050565b80356001600160a01b038116811461033c57600080fd5b919050565b60008060008060008060c08789031215610359578182fd5b61036287610325565b955061037060208801610325565b945061037e60408801610325565b935061038c60608801610325565b92506080870135915060a087013590509295509295509295565b6001600160a01b0391909116815260200190565b901515815260200190565b6020808252601a908201527f4865726f436f7265204572726f72203a206f6e6c794f776e6572000000000000604082015260600190565b90815260200190565b600081600019048311821515161561042b57634e487b7160e01b81526011600452602481fd5b50029056fea2646970667358221220bc3f92b4884e9ad301266a2e1ed28ade43019b923710f772d8f7953d670fed6464736f6c63430008000033",
  "immutableReferences": {},
  "source": "// SPDX-License-Identifier: MIT\npragma solidity ^0.8.0;\n\nimport \"../../utils/SafeMath.sol\";\n\nimport \"../interface/IHeroNFT.sol\";\n\nimport \"../../interface/IKIP7/IKIP7.sol\";\nimport \"../../interface/IKIP37/IKIP37Full.sol\";\n\ncontract HeroController {\n    using SafeMath for *;\n\n    IHeroNFT private heroNFT;\n    IKIP7 private token;\n    IKIP37Full private item;\n\n    address payable private coreOwner;\n    address public depositAddress;\n\n    bool private paused;\n    bool private miningPaused;\n\n    uint256 public priceOfKlay;\n    uint256 public priceOfToken;\n    uint256 private constant DECIMALS = 1e18;\n\n    modifier notPaused() {\n        require(!paused, \"Paused State\");\n        _;\n    }\n\n    modifier onlyOwner() {\n        require(msg.sender == coreOwner, \"HeroCore Error : onlyOwner\");\n        _;\n    }\n\n    constructor() {\n        paused = true;\n        miningPaused = true;\n        coreOwner = payable(msg.sender);\n    }\n\n    function initialize(\n        address _heroNFT,\n        address _token,\n        address _item,\n        address _depositAddress,\n        uint256 _klay,\n        uint256 _tokenPrice\n    ) external onlyOwner {\n        priceOfKlay = _klay.mul(DECIMALS);\n        priceOfToken = _tokenPrice.mul(DECIMALS);\n\n        heroNFT = IHeroNFT(_heroNFT);\n        token = IKIP7(_token);\n        item = IKIP37Full(_item);\n\n        depositAddress = _depositAddress;\n    }\n\n    function changePaused() external onlyOwner {\n        paused = !paused;\n    }\n\n    function changeMiningPaused() external onlyOwner {\n        miningPaused = !miningPaused;\n    }\n\n    // **** view Function ****\n\n    function getOwner() public view returns (address payable) {\n        return coreOwner;\n    }\n\n    function getPaused() public view returns (bool) {\n        return paused;\n    }\n\n    function getMiningPaused() public view returns (bool) {\n        return miningPaused;\n    }\n\n    function getItem() public view returns (IKIP37Full) {\n        return item;\n    }\n\n    function getToken() public view returns (IKIP7) {\n        return token;\n    }\n\n    function getHeroNFT() public view returns (IHeroNFT) {\n        return heroNFT;\n    }\n}\n",
  "sourcePath": "/Users/yuhojin/Desktop/NFT-lendProject/truffle/contracts/Hero/utils/HeroController.sol",
  "compiler": {
    "name": "solc",
    "version": "0.8.0+commit.c7dfd78e.Emscripten.clang"
  },
  "schemaVersion": "3.1.0",
  "updatedAt": "2022-07-28T11:13:52.529Z",
  "devdoc": {
    "kind": "dev",
    "methods": {},
    "version": 1
  },
  "userdoc": {
    "kind": "user",
    "methods": {},
    "version": 1
  }
}