{
  "contractName": "HeroNFT",
  "abi": [
    {
      "inputs": [],
      "stateMutability": "nonpayable",
      "type": "constructor"
    },
    {
      "anonymous": false,
      "inputs": [
        {
          "indexed": true,
          "internalType": "address",
          "name": "owner",
          "type": "address"
        },
        {
          "indexed": true,
          "internalType": "address",
          "name": "approved",
          "type": "address"
        },
        {
          "indexed": true,
          "internalType": "uint256",
          "name": "tokenId",
          "type": "uint256"
        }
      ],
      "name": "Approval",
      "type": "event"
    },
    {
      "anonymous": false,
      "inputs": [
        {
          "indexed": true,
          "internalType": "address",
          "name": "owner",
          "type": "address"
        },
        {
          "indexed": true,
          "internalType": "address",
          "name": "operator",
          "type": "address"
        },
        {
          "indexed": false,
          "internalType": "bool",
          "name": "approved",
          "type": "bool"
        }
      ],
      "name": "ApprovalForAll",
      "type": "event"
    },
    {
      "anonymous": false,
      "inputs": [
        {
          "indexed": true,
          "internalType": "address",
          "name": "from",
          "type": "address"
        },
        {
          "indexed": true,
          "internalType": "address",
          "name": "to",
          "type": "address"
        },
        {
          "indexed": true,
          "internalType": "uint256",
          "name": "tokenId",
          "type": "uint256"
        }
      ],
      "name": "Transfer",
      "type": "event"
    },
    {
      "inputs": [
        {
          "internalType": "address",
          "name": "to",
          "type": "address"
        },
        {
          "internalType": "uint256",
          "name": "tokenId",
          "type": "uint256"
        }
      ],
      "name": "approve",
      "outputs": [],
      "stateMutability": "nonpayable",
      "type": "function"
    },
    {
      "inputs": [
        {
          "internalType": "address",
          "name": "owner",
          "type": "address"
        }
      ],
      "name": "balanceOf",
      "outputs": [
        {
          "internalType": "uint256",
          "name": "",
          "type": "uint256"
        }
      ],
      "stateMutability": "view",
      "type": "function"
    },
    {
      "inputs": [
        {
          "internalType": "uint256",
          "name": "tokenId",
          "type": "uint256"
        }
      ],
      "name": "getApproved",
      "outputs": [
        {
          "internalType": "address",
          "name": "",
          "type": "address"
        }
      ],
      "stateMutability": "view",
      "type": "function"
    },
    {
      "inputs": [],
      "name": "getOwner",
      "outputs": [
        {
          "internalType": "address payable",
          "name": "",
          "type": "address"
        }
      ],
      "stateMutability": "view",
      "type": "function"
    },
    {
      "inputs": [
        {
          "internalType": "address",
          "name": "owner",
          "type": "address"
        },
        {
          "internalType": "address",
          "name": "operator",
          "type": "address"
        }
      ],
      "name": "isApprovedForAll",
      "outputs": [
        {
          "internalType": "bool",
          "name": "",
          "type": "bool"
        }
      ],
      "stateMutability": "view",
      "type": "function"
    },
    {
      "inputs": [],
      "name": "name",
      "outputs": [
        {
          "internalType": "string",
          "name": "",
          "type": "string"
        }
      ],
      "stateMutability": "view",
      "type": "function"
    },
    {
      "inputs": [
        {
          "internalType": "uint256",
          "name": "tokenId",
          "type": "uint256"
        }
      ],
      "name": "ownerOf",
      "outputs": [
        {
          "internalType": "address",
          "name": "",
          "type": "address"
        }
      ],
      "stateMutability": "view",
      "type": "function"
    },
    {
      "inputs": [
        {
          "internalType": "address",
          "name": "from",
          "type": "address"
        },
        {
          "internalType": "address",
          "name": "to",
          "type": "address"
        },
        {
          "internalType": "uint256",
          "name": "tokenId",
          "type": "uint256"
        }
      ],
      "name": "safeTransferFrom",
      "outputs": [],
      "stateMutability": "nonpayable",
      "type": "function"
    },
    {
      "inputs": [
        {
          "internalType": "address",
          "name": "from",
          "type": "address"
        },
        {
          "internalType": "address",
          "name": "to",
          "type": "address"
        },
        {
          "internalType": "uint256",
          "name": "tokenId",
          "type": "uint256"
        },
        {
          "internalType": "bytes",
          "name": "_data",
          "type": "bytes"
        }
      ],
      "name": "safeTransferFrom",
      "outputs": [],
      "stateMutability": "nonpayable",
      "type": "function"
    },
    {
      "inputs": [
        {
          "internalType": "address",
          "name": "operator",
          "type": "address"
        },
        {
          "internalType": "bool",
          "name": "approved",
          "type": "bool"
        }
      ],
      "name": "setApprovalForAll",
      "outputs": [],
      "stateMutability": "nonpayable",
      "type": "function"
    },
    {
      "inputs": [
        {
          "internalType": "bytes4",
          "name": "interfaceId",
          "type": "bytes4"
        }
      ],
      "name": "supportsInterface",
      "outputs": [
        {
          "internalType": "bool",
          "name": "",
          "type": "bool"
        }
      ],
      "stateMutability": "view",
      "type": "function"
    },
    {
      "inputs": [],
      "name": "symbol",
      "outputs": [
        {
          "internalType": "string",
          "name": "",
          "type": "string"
        }
      ],
      "stateMutability": "view",
      "type": "function"
    },
    {
      "inputs": [
        {
          "internalType": "uint256",
          "name": "tokenId",
          "type": "uint256"
        }
      ],
      "name": "tokenURI",
      "outputs": [
        {
          "internalType": "string",
          "name": "",
          "type": "string"
        }
      ],
      "stateMutability": "view",
      "type": "function"
    },
    {
      "inputs": [
        {
          "internalType": "address",
          "name": "from",
          "type": "address"
        },
        {
          "internalType": "address",
          "name": "to",
          "type": "address"
        },
        {
          "internalType": "uint256",
          "name": "tokenId",
          "type": "uint256"
        }
      ],
      "name": "transferFrom",
      "outputs": [],
      "stateMutability": "nonpayable",
      "type": "function"
    },
    {
      "inputs": [
        {
          "internalType": "address",
          "name": "_to",
          "type": "address"
        }
      ],
      "name": "mint",
      "outputs": [],
      "stateMutability": "nonpayable",
      "type": "function"
    },
    {
      "inputs": [
        {
          "internalType": "uint256",
          "name": "_tokenId",
          "type": "uint256"
        }
      ],
      "name": "burn",
      "outputs": [],
      "stateMutability": "nonpayable",
      "type": "function"
    },
    {
      "inputs": [
        {
          "internalType": "address",
          "name": "_heroCore",
          "type": "address"
        }
      ],
      "name": "setContract",
      "outputs": [],
      "stateMutability": "nonpayable",
      "type": "function"
    },
    {
      "inputs": [],
      "name": "getTokenIndex",
      "outputs": [
        {
          "internalType": "uint256",
          "name": "",
          "type": "uint256"
        }
      ],
      "stateMutability": "view",
      "type": "function"
    },
    {
      "inputs": [],
      "name": "getHeroCore",
      "outputs": [
        {
          "internalType": "address",
          "name": "",
          "type": "address"
        }
      ],
      "stateMutability": "view",
      "type": "function"
    }
  ],
  "bytecode": "0x60c060405260046080819052631d195cdd60e21b60a09081526200002791600a9190620000b2565b503480156200003557600080fd5b5060408051808201825260078152664758544865726f60c81b60208083019182528351808501909452600484526308eb0a8960e31b9084015281519192916200008191600091620000b2565b50805162000097906001906020840190620000b2565b5050600780546001600160a01b031916331790555062000195565b828054620000c09062000158565b90600052602060002090601f016020900481019282620000e457600085556200012f565b82601f10620000ff57805160ff19168380011785556200012f565b828001600101855582156200012f579182015b828111156200012f57825182559160200191906001019062000112565b506200013d92915062000141565b5090565b5b808211156200013d576000815560010162000142565b6002810460018216806200016d57607f821691505b602082108114156200018f57634e487b7160e01b600052602260045260246000fd5b50919050565b6119b180620001a56000396000f3fe608060405234801561001057600080fd5b50600436106101215760003560e01c80636a627842116100ad578063a22cb46511610071578063a22cb46514610243578063b88d4fde14610256578063bcbb72c814610269578063c87b56dd14610271578063e985e9c51461028457610121565b80636a627842146101fa57806370a082311461020d57806375f890ab14610220578063893d20e81461023357806395d89b411461023b57610121565b806323b872dd116100f457806323b872dd14610199578063295d3ee8146101ac57806342842e0e146101c157806342966c68146101d45780636352211e146101e757610121565b806301ffc9a71461012657806306fdde031461014f578063081812fc14610164578063095ea7b314610184575b600080fd5b610139610134366004611264565b610297565b60405161014691906113a3565b60405180910390f35b6101576102df565b60405161014691906113ae565b61017761017236600461129c565b610371565b6040516101469190611352565b61019761019236600461123b565b6103bd565b005b6101976101a73660046110fa565b610455565b6101b461048d565b6040516101469190611841565b6101976101cf3660046110fa565b61049e565b6101976101e236600461129c565b6104b9565b6101776101f536600461129c565b610517565b6101976102083660046110ae565b610532565b6101b461021b3660046110ae565b610666565b61019761022e3660046110ae565b6106aa565b610177610709565b610157610718565b610197610251366004611201565b610727565b610197610264366004611135565b61073d565b61017761077c565b61015761027f36600461129c565b61078b565b6101396102923660046110c8565b61080e565b60006001600160e01b031982166380ac58cd60e01b14806102c857506001600160e01b03198216635b5e139f60e01b145b806102d757506102d78261083c565b90505b919050565b6060600080546102ee906118b9565b80601f016020809104026020016040519081016040528092919081815260200182805461031a906118b9565b80156103675780601f1061033c57610100808354040283529160200191610367565b820191906000526020600020905b81548152906001019060200180831161034a57829003601f168201915b5050505050905090565b600061037c82610855565b6103a15760405162461bcd60e51b8152600401610398906116c9565b60405180910390fd5b506000908152600460205260409020546001600160a01b031690565b60006103c882610517565b9050806001600160a01b0316836001600160a01b031614156103fc5760405162461bcd60e51b815260040161039890611452565b806001600160a01b031661040e610872565b6001600160a01b0316148061042a575061042a81610292610872565b6104465760405162461bcd60e51b815260040161039890611714565b6104508383610876565b505050565b610466610460610872565b826108e4565b6104825760405162461bcd60e51b8152600401610398906115e8565b610450838383610969565b60006104996008610a9c565b905090565b6104508383836040518060200160405280600081525061073d565b6009546001600160a01b03166104e15760405162461bcd60e51b815260040161039890611680565b6009546001600160a01b0316331461050b5760405162461bcd60e51b815260040161039890611771565b61051481610aa0565b50565b6000908152600260205260409020546001600160a01b031690565b6009546001600160a01b031661055a5760405162461bcd60e51b815260040161039890611680565b6009546001600160a01b031633146105845760405162461bcd60e51b815260040161039890611771565b61058e6008610b6a565b600061059a6008610a9c565b90506000610650600a80546105ae906118b9565b80601f01602080910402602001604051908101604052809291908181526020018280546105da906118b9565b80156106275780601f106105fc57610100808354040283529160200191610627565b820191906000526020600020905b81548152906001019060200180831161060a57829003601f168201915b505050505060405180604001604052806005815260200164173539b7b760d91b81525084610b73565b905061065c8383610b88565b6104508282610c6f565b60006001600160a01b03821661068e5760405162461bcd60e51b815260040161039890611638565b506001600160a01b031660009081526003602052604090205490565b6007546001600160a01b031633146106c157600080fd5b6001600160a01b0381166106e75760405162461bcd60e51b815260040161039890611502565b600980546001600160a01b0319166001600160a01b0392909216919091179055565b6007546001600160a01b031690565b6060600180546102ee906118b9565b610739610732610872565b8383610c8e565b5050565b61074e610748610872565b836108e4565b61076a5760405162461bcd60e51b8152600401610398906115e8565b61077684848484610d31565b50505050565b6009546001600160a01b031690565b606061079682610855565b6107b25760405162461bcd60e51b8152600401610398906113c1565b60006107bc610d64565b905060008151116107dc5760405180602001604052806000815250610807565b806107e684610d76565b6040516020016107f79291906112e0565b6040516020818303038152906040525b9392505050565b6001600160a01b03918216600090815260056020908152604080832093909416825291909152205460ff1690565b6001600160e01b031981166301ffc9a760e01b14919050565b6000908152600260205260409020546001600160a01b0316151590565b3390565b600081815260046020526040902080546001600160a01b0319166001600160a01b03841690811790915581906108ab82610517565b6001600160a01b03167f8c5be1e5ebec7d5bd14f71427d1e84f3dd0314c0f7b2291e5b200ac8c7c3b92560405160405180910390a45050565b60006108ef82610855565b61090b5760405162461bcd60e51b8152600401610398906117f6565b600061091683610517565b9050806001600160a01b0316846001600160a01b0316148061093d575061093d818561080e565b806109615750836001600160a01b031661095684610371565b6001600160a01b0316145b949350505050565b826001600160a01b031661097c82610517565b6001600160a01b0316146109a25760405162461bcd60e51b815260040161039890611487565b6001600160a01b0382166109c85760405162461bcd60e51b81526004016103989061140f565b6109d3838383610450565b6109de600082610876565b6001600160a01b0383166000908152600360205260408120805460019290610a07908490611876565b90915550506001600160a01b0382166000908152600360205260408120805460019290610a3590849061184a565b909155505060008181526002602052604080822080546001600160a01b0319166001600160a01b0386811691821790925591518493918716917fddf252ad1be2c89b69c2b068fc378daa952ba7f163c4a11628f55a4df523b3ef91a4610450838383610450565b5490565b6000610aab82610517565b9050610ab981600084610450565b610ac4600083610876565b6001600160a01b0381166000908152600360205260408120805460019290610aed908490611876565b9091555050600082815260026020908152604080832080546001600160a01b031916905580519182019052908152610b26908390610c6f565b60405182906000906001600160a01b038416907fddf252ad1be2c89b69c2b068fc378daa952ba7f163c4a11628f55a4df523b3ef908390a461073981600084610450565b80546001019055565b606061096184610b8284610d76565b85610e91565b6001600160a01b038216610bae5760405162461bcd60e51b8152600401610398906114cb565b610bb781610855565b15610bd45760405162461bcd60e51b8152600401610398906117bf565b610be060008383610450565b6001600160a01b0382166000908152600360205260408120805460019290610c0990849061184a565b909155505060008181526002602052604080822080546001600160a01b0319166001600160a01b03861690811790915590518392907fddf252ad1be2c89b69c2b068fc378daa952ba7f163c4a11628f55a4df523b3ef908290a461073960008383610450565b6000828152600660209081526040909120825161045092840190610ffe565b816001600160a01b0316836001600160a01b03161415610cc05760405162461bcd60e51b8152600401610398906115b1565b6001600160a01b0383811660008181526005602090815260408083209487168084529490915290819020805460ff1916851515179055517f17307eab39ab6107e8899845ad3d59bd9653f200f220920489ca2b5937696c3190610d249085906113a3565b60405180910390a3505050565b610d3c848484610969565b610d4884848484610ec0565b6107765760405162461bcd60e51b81526004016103989061154a565b60408051602081019091526000815290565b606081610d9b57506040805180820190915260018152600360fc1b60208201526102da565b8160005b8115610dc55780610daf816118f4565b9150610dbe9050600a83611862565b9150610d9f565b60008167ffffffffffffffff811115610dee57634e487b7160e01b600052604160045260246000fd5b6040519080825280601f01601f191660200182016040528015610e18576020820181803683370190505b5090505b841561096157610e2d600183611876565b9150610e3a600a8661190f565b610e4590603061184a565b60f81b818381518110610e6857634e487b7160e01b600052603260045260246000fd5b60200101906001600160f81b031916908160001a905350610e8a600a86611862565b9450610e1c565b6060838383604051602001610ea89392919061130f565b60405160208183030381529060405290509392505050565b6000610ed4846001600160a01b0316610fcd565b15610fc257836001600160a01b0316636745782b610ef0610872565b8786866040518563ffffffff1660e01b8152600401610f129493929190611366565b602060405180830381600087803b158015610f2c57600080fd5b505af1925050508015610f5c575060408051601f3d908101601f19168201909252610f5991810190611280565b60015b610fa8573d808015610f8a576040519150601f19603f3d011682016040523d82523d6000602084013e610f8f565b606091505b508051610fa0576000915050610961565b805181602001fd5b6001600160e01b031916636745782b60e01b149050610961565b506001949350505050565b600080826001600160a01b0316803b806020016040519081016040528181526000908060200190933c511192915050565b82805461100a906118b9565b90600052602060002090601f01602090048101928261102c5760008555611072565b82601f1061104557805160ff1916838001178555611072565b82800160010185558215611072579182015b82811115611072578251825591602001919060010190611057565b5061107e929150611082565b5090565b5b8082111561107e5760008155600101611083565b80356001600160a01b03811681146102da57600080fd5b6000602082840312156110bf578081fd5b61080782611097565b600080604083850312156110da578081fd5b6110e383611097565b91506110f160208401611097565b90509250929050565b60008060006060848603121561110e578081fd5b61111784611097565b925061112560208501611097565b9150604084013590509250925092565b6000806000806080858703121561114a578081fd5b61115385611097565b93506020611162818701611097565b935060408601359250606086013567ffffffffffffffff80821115611185578384fd5b818801915088601f830112611198578384fd5b8135818111156111aa576111aa61194f565b604051601f8201601f19168101850183811182821017156111cd576111cd61194f565b60405281815283820185018b10156111e3578586fd5b81858501868301379081019093019390935250939692955090935050565b60008060408385031215611213578182fd5b61121c83611097565b915060208301358015158114611230578182fd5b809150509250929050565b6000806040838503121561124d578182fd5b61125683611097565b946020939093013593505050565b600060208284031215611275578081fd5b813561080781611965565b600060208284031215611291578081fd5b815161080781611965565b6000602082840312156112ad578081fd5b5035919050565b600081518084526112cc81602086016020860161188d565b601f01601f19169290920160200192915050565b600083516112f281846020880161188d565b83519083019061130681836020880161188d565b01949350505050565b6000845161132181846020890161188d565b84519083019061133581836020890161188d565b845191019061134881836020880161188d565b0195945050505050565b6001600160a01b0391909116815260200190565b6001600160a01b0385811682528416602082015260408101839052608060608201819052600090611399908301846112b4565b9695505050505050565b901515815260200190565b60006020825261080760208301846112b4565b6020808252602e908201527f4b495031374d657461646174613a2055524920717565727920666f72206e6f6e60408201526d32bc34b9ba32b73a103a37b5b2b760911b606082015260800190565b60208082526023908201527f4b495031373a207472616e7366657220746f20746865207a65726f206164647260408201526265737360e81b606082015260800190565b6020808252818101527f4b495031373a20617070726f76616c20746f2063757272656e74206f776e6572604082015260600190565b60208082526024908201527f4b495031373a207472616e736665722066726f6d20696e636f7272656374206f6040820152633bb732b960e11b606082015260800190565b6020808252601f908201527f4b495031373a206d696e7420746f20746865207a65726f206164647265737300604082015260600190565b60208082526028908201527f4865726f4e4654204572726f72203a204865726f436f7265206973205a65726f604082015267204164647265737360c01b606082015260800190565b60208082526041908201527f4b495031373a207472616e7366657220746f206e6f6e20494b4950313752656360408201527f65697665722f49455243373231526563656976657220696d706c656d656e74656060820152603960f91b608082015260a00190565b60208082526018908201527f4b495031373a20617070726f766520746f2063616c6c65720000000000000000604082015260600190565b60208082526030908201527f4b495031373a207472616e736665722063616c6c6572206973206e6f74206f7760408201526f1b995c881b9bdc88185c1c1c9bdd995960821b606082015260800190565b60208082526028908201527f4b495031373a2061646472657373207a65726f206973206e6f7420612076616c60408201526734b21037bbb732b960c11b606082015260800190565b60208082526029908201527f4865726f4e4654204572726f72203a204865726f436f726520646f6573204e6f604082015268742053657474696e6760b81b606082015260800190565b6020808252602b908201527f4b495031373a20617070726f76656420717565727920666f72206e6f6e65786960408201526a39ba32b73a103a37b5b2b760a91b606082015260800190565b60208082526037908201527f4b495031373a20617070726f76652063616c6c6572206973206e6f74206f776e60408201527f6572206e6f7220617070726f76656420666f7220616c6c000000000000000000606082015260800190565b6020808252602e908201527f4865726f4e4654204572726f72203a206d73672e73656e64657220213d20486560408201526d726f436f7265204164647265737360901b606082015260800190565b6020808252601b908201527f4b495031373a20746f6b656e20616c7265616479206d696e7465640000000000604082015260600190565b6020808252602b908201527f4b495031373a206f70657261746f7220717565727920666f72206e6f6e65786960408201526a39ba32b73a103a37b5b2b760a91b606082015260800190565b90815260200190565b6000821982111561185d5761185d611923565b500190565b60008261187157611871611939565b500490565b60008282101561188857611888611923565b500390565b60005b838110156118a8578181015183820152602001611890565b838111156107765750506000910152565b6002810460018216806118cd57607f821691505b602082108114156118ee57634e487b7160e01b600052602260045260246000fd5b50919050565b600060001982141561190857611908611923565b5060010190565b60008261191e5761191e611939565b500690565b634e487b7160e01b600052601160045260246000fd5b634e487b7160e01b600052601260045260246000fd5b634e487b7160e01b600052604160045260246000fd5b6001600160e01b03198116811461051457600080fdfea2646970667358221220c2957760da6986078bb225df0cff4275f4632e7a13666a57ba7701fd1bddffd864736f6c63430008000033",
  "immutableReferences": {},
  "source": "// SPDX-License-Identifier: MIT\npragma solidity ^0.8.0;\n\nimport \"../interface/IKIP17/KIP17Token.sol\";\nimport \"./interface/IHeroNFT.sol\";\n\nimport \"../utils/Ownable.sol\";\nimport \"../utils/Counter.sol\";\nimport \"../utils/Strings.sol\";\n\ncontract HeroNFT is KIP17Token, Ownable, IHeroNFT {\n    using Counters for Counters.Counter;\n\n    Counters.Counter private tokenIndex;\n\n    address private heroCore;\n\n    string private PREFIX_DATA = \"test\";\n    string private constant SUFIX_DATA = \".json\";\n\n    modifier onlyHeroCore() {\n        require(\n            heroCore != address(0x0),\n            \"HeroNFT Error : HeroCore does Not Setting\"\n        );\n        require(\n            msg.sender == heroCore,\n            \"HeroNFT Error : msg.sender != HeroCore Address\"\n        );\n        _;\n    }\n\n    constructor() KIP17Token(\"GXTHero\", \"GXTH\") {}\n\n    function mint(address _to) external override onlyHeroCore {\n        tokenIndex.increment();\n\n        uint256 currentTokenId = tokenIndex.current();\n        string memory uri = Strings.tokenURI(\n            PREFIX_DATA,\n            SUFIX_DATA,\n            currentTokenId\n        );\n\n        _mint(_to, currentTokenId);\n        _setTokenUri(currentTokenId, uri);\n    }\n\n    function burn(uint256 _tokenId) external override onlyHeroCore {\n        _burn(_tokenId);\n    }\n\n    function setContract(address _heroCore) external override onlyOwner {\n        require(\n            _heroCore != address(0),\n            \"HeroNFT Error : HeroCore is Zero Address\"\n        );\n        heroCore = _heroCore;\n    }\n\n    function getTokenIndex() external view override returns (uint256) {\n        return tokenIndex.current();\n    }\n\n    function getHeroCore() external view override returns (address) {\n        return heroCore;\n    }\n}\n",
  "sourcePath": "/Users/yuhojin/Desktop/NFT-lendProject/truffle/contracts/Hero/HeroNFT.sol",
  "compiler": {
    "name": "solc",
    "version": "0.8.0+commit.c7dfd78e.Emscripten.clang"
  },
  "schemaVersion": "3.1.0",
  "updatedAt": "2022-07-28T12:24:02.152Z",
  "devdoc": {
    "kind": "dev",
    "methods": {
      "approve(address,uint256)": {
        "details": "See {IKIP17-approve}."
      },
      "balanceOf(address)": {
        "details": "See {IKIP17-balanceOf}."
      },
      "getApproved(uint256)": {
        "details": "See {IKIP17-getApproved}."
      },
      "isApprovedForAll(address,address)": {
        "details": "See {IKIP17-isApprovedForAll}."
      },
      "name()": {
        "details": "See {IKIP17Metadata-name}."
      },
      "ownerOf(uint256)": {
        "details": "See {IKIP17-ownerOf}."
      },
      "safeTransferFrom(address,address,uint256)": {
        "details": "See {IKIP17-safeTransferFrom}."
      },
      "safeTransferFrom(address,address,uint256,bytes)": {
        "details": "See {IKIP17-safeTransferFrom}."
      },
      "setApprovalForAll(address,bool)": {
        "details": "See {IKIP17-setApprovalForAll}."
      },
      "supportsInterface(bytes4)": {
        "details": "See {IKIP13-supportsInterface}."
      },
      "symbol()": {
        "details": "See {IKIP17Metadata-symbol}."
      },
      "tokenURI(uint256)": {
        "details": "See {IKIP17Metadata-tokenURI}."
      },
      "transferFrom(address,address,uint256)": {
        "details": "See {IKIP17-transferFrom}."
      }
    },
    "version": 1
  },
  "userdoc": {
    "kind": "user",
    "methods": {},
    "version": 1
  }
}