{
  "contractName": "HeroCore",
  "abi": [
    {
      "inputs": [],
      "name": "MINING_DURATION",
      "outputs": [
        {
          "internalType": "uint256",
          "name": "",
          "type": "uint256"
        }
      ],
      "stateMutability": "view",
      "type": "function"
    },
    {
      "inputs": [],
      "name": "MINING_REWARD",
      "outputs": [
        {
          "internalType": "uint256",
          "name": "",
          "type": "uint256"
        }
      ],
      "stateMutability": "view",
      "type": "function"
    },
    {
      "inputs": [],
      "name": "changeMiningPaused",
      "outputs": [],
      "stateMutability": "nonpayable",
      "type": "function"
    },
    {
      "inputs": [],
      "name": "changePaused",
      "outputs": [],
      "stateMutability": "nonpayable",
      "type": "function"
    },
    {
      "inputs": [],
      "name": "getHeroNFT",
      "outputs": [
        {
          "internalType": "contract IHeroNFT",
          "name": "",
          "type": "address"
        }
      ],
      "stateMutability": "view",
      "type": "function"
    },
    {
      "inputs": [],
      "name": "getItem",
      "outputs": [
        {
          "internalType": "contract IKIP37Full",
          "name": "",
          "type": "address"
        }
      ],
      "stateMutability": "view",
      "type": "function"
    },
    {
      "inputs": [],
      "name": "getLevelDiagram",
      "outputs": [
        {
          "internalType": "contract ILevelDiagram",
          "name": "",
          "type": "address"
        }
      ],
      "stateMutability": "view",
      "type": "function"
    },
    {
      "inputs": [],
      "name": "getMiningPaused",
      "outputs": [
        {
          "internalType": "bool",
          "name": "",
          "type": "bool"
        }
      ],
      "stateMutability": "view",
      "type": "function"
    },
    {
      "inputs": [],
      "name": "getOwner",
      "outputs": [
        {
          "internalType": "address payable",
          "name": "",
          "type": "address"
        }
      ],
      "stateMutability": "view",
      "type": "function"
    },
    {
      "inputs": [],
      "name": "getPaused",
      "outputs": [
        {
          "internalType": "bool",
          "name": "",
          "type": "bool"
        }
      ],
      "stateMutability": "view",
      "type": "function"
    },
    {
      "inputs": [],
      "name": "getToken",
      "outputs": [
        {
          "internalType": "contract IKIP7",
          "name": "",
          "type": "address"
        }
      ],
      "stateMutability": "view",
      "type": "function"
    },
    {
      "inputs": [
        {
          "internalType": "address",
          "name": "_heroNFT",
          "type": "address"
        },
        {
          "internalType": "address",
          "name": "_token",
          "type": "address"
        },
        {
          "internalType": "address",
          "name": "_item",
          "type": "address"
        },
        {
          "internalType": "address",
          "name": "_levelDiagram",
          "type": "address"
        },
        {
          "internalType": "address",
          "name": "_depositAddress",
          "type": "address"
        },
        {
          "internalType": "address",
          "name": "_miningAddress",
          "type": "address"
        },
        {
          "internalType": "uint256",
          "name": "_klay",
          "type": "uint256"
        },
        {
          "internalType": "uint256",
          "name": "_tokenPrice",
          "type": "uint256"
        }
      ],
      "name": "initialize",
      "outputs": [],
      "stateMutability": "nonpayable",
      "type": "function"
    },
    {
      "inputs": [],
      "name": "priceOfKlay",
      "outputs": [
        {
          "internalType": "uint256",
          "name": "",
          "type": "uint256"
        }
      ],
      "stateMutability": "view",
      "type": "function"
    },
    {
      "inputs": [],
      "name": "priceOfToken",
      "outputs": [
        {
          "internalType": "uint256",
          "name": "",
          "type": "uint256"
        }
      ],
      "stateMutability": "view",
      "type": "function"
    },
    {
      "stateMutability": "payable",
      "type": "receive"
    },
    {
      "inputs": [],
      "name": "mintBuy",
      "outputs": [],
      "stateMutability": "payable",
      "type": "function"
    },
    {
      "inputs": [
        {
          "internalType": "uint256",
          "name": "_tokenAmount",
          "type": "uint256"
        }
      ],
      "name": "mintByToken",
      "outputs": [],
      "stateMutability": "nonpayable",
      "type": "function"
    },
    {
      "inputs": [
        {
          "internalType": "uint256",
          "name": "_index",
          "type": "uint256"
        }
      ],
      "name": "mintTimeLock",
      "outputs": [],
      "stateMutability": "nonpayable",
      "type": "function"
    },
    {
      "inputs": [
        {
          "internalType": "uint256",
          "name": "_tokenId",
          "type": "uint256"
        }
      ],
      "name": "travel",
      "outputs": [],
      "stateMutability": "nonpayable",
      "type": "function"
    },
    {
      "inputs": [
        {
          "internalType": "uint256",
          "name": "_tokenId",
          "type": "uint256"
        }
      ],
      "name": "getRewardToTravel",
      "outputs": [],
      "stateMutability": "nonpayable",
      "type": "function"
    },
    {
      "inputs": [
        {
          "internalType": "uint256",
          "name": "_tokenId",
          "type": "uint256"
        },
        {
          "internalType": "uint256",
          "name": "_duartion",
          "type": "uint256"
        }
      ],
      "name": "requestBorrow",
      "outputs": [],
      "stateMutability": "nonpayable",
      "type": "function"
    },
    {
      "inputs": [
        {
          "internalType": "uint256",
          "name": "_tokenId",
          "type": "uint256"
        }
      ],
      "name": "cancelBorrowRequest",
      "outputs": [],
      "stateMutability": "nonpayable",
      "type": "function"
    },
    {
      "inputs": [
        {
          "internalType": "uint256",
          "name": "_tokenId",
          "type": "uint256"
        },
        {
          "internalType": "address",
          "name": "_apprrovedUser",
          "type": "address"
        }
      ],
      "name": "approveBorrowRequest",
      "outputs": [],
      "stateMutability": "nonpayable",
      "type": "function"
    },
    {
      "inputs": [
        {
          "internalType": "uint256",
          "name": "_tokenId",
          "type": "uint256"
        }
      ],
      "name": "returnBorrowed",
      "outputs": [],
      "stateMutability": "nonpayable",
      "type": "function"
    },
    {
      "inputs": [
        {
          "internalType": "uint256",
          "name": "_tokenId",
          "type": "uint256"
        }
      ],
      "name": "mining",
      "outputs": [],
      "stateMutability": "nonpayable",
      "type": "function"
    },
    {
      "inputs": [
        {
          "internalType": "uint256",
          "name": "_tokenId",
          "type": "uint256"
        }
      ],
      "name": "stopMining",
      "outputs": [],
      "stateMutability": "nonpayable",
      "type": "function"
    },
    {
      "inputs": [
        {
          "internalType": "uint256",
          "name": "_tokenId",
          "type": "uint256"
        }
      ],
      "name": "claimMiningAmount",
      "outputs": [],
      "stateMutability": "nonpayable",
      "type": "function"
    },
    {
      "inputs": [
        {
          "internalType": "uint256",
          "name": "_tokenId",
          "type": "uint256"
        }
      ],
      "name": "viewCanClaimAmount",
      "outputs": [
        {
          "internalType": "uint256",
          "name": "",
          "type": "uint256"
        }
      ],
      "stateMutability": "view",
      "type": "function"
    },
    {
      "inputs": [
        {
          "internalType": "uint256",
          "name": "_tokenId",
          "type": "uint256"
        }
      ],
      "name": "levelUp",
      "outputs": [],
      "stateMutability": "nonpayable",
      "type": "function"
    },
    {
      "inputs": [
        {
          "internalType": "uint256",
          "name": "_tokenId",
          "type": "uint256"
        }
      ],
      "name": "stake",
      "outputs": [],
      "stateMutability": "nonpayable",
      "type": "function"
    },
    {
      "inputs": [
        {
          "internalType": "uint256",
          "name": "_tokenId",
          "type": "uint256"
        }
      ],
      "name": "unStake",
      "outputs": [],
      "stateMutability": "nonpayable",
      "type": "function"
    },
    {
      "inputs": [
        {
          "internalType": "uint256",
          "name": "_tokenId",
          "type": "uint256"
        }
      ],
      "name": "burn",
      "outputs": [],
      "stateMutability": "nonpayable",
      "type": "function"
    },
    {
      "inputs": [
        {
          "internalType": "uint256",
          "name": "_tokenId",
          "type": "uint256"
        },
        {
          "internalType": "bool",
          "name": "total",
          "type": "bool"
        }
      ],
      "name": "getHeroPower",
      "outputs": [
        {
          "internalType": "uint256",
          "name": "",
          "type": "uint256"
        }
      ],
      "stateMutability": "view",
      "type": "function"
    },
    {
      "inputs": [
        {
          "internalType": "uint256",
          "name": "_heroTokenId",
          "type": "uint256"
        }
      ],
      "name": "getHeroStatus",
      "outputs": [
        {
          "components": [
            {
              "internalType": "uint256",
              "name": "tokenId",
              "type": "uint256"
            },
            {
              "internalType": "uint256",
              "name": "level",
              "type": "uint256"
            },
            {
              "internalType": "string",
              "name": "grade",
              "type": "string"
            },
            {
              "internalType": "uint256",
              "name": "birthTime",
              "type": "uint256"
            },
            {
              "internalType": "uint256",
              "name": "reward",
              "type": "uint256"
            },
            {
              "components": [
                {
                  "internalType": "bool",
                  "name": "borrowed",
                  "type": "bool"
                },
                {
                  "internalType": "bool",
                  "name": "traveled",
                  "type": "bool"
                },
                {
                  "internalType": "bool",
                  "name": "mining",
                  "type": "bool"
                },
                {
                  "internalType": "address",
                  "name": "owner",
                  "type": "address"
                },
                {
                  "components": [
                    {
                      "internalType": "address",
                      "name": "travelOwner",
                      "type": "address"
                    },
                    {
                      "internalType": "uint256",
                      "name": "travelTime",
                      "type": "uint256"
                    }
                  ],
                  "internalType": "struct IHeroCore.traveledStruct",
                  "name": "travelData",
                  "type": "tuple"
                },
                {
                  "components": [
                    {
                      "internalType": "uint256",
                      "name": "borrowEndTime",
                      "type": "uint256"
                    },
                    {
                      "internalType": "address",
                      "name": "borrowers",
                      "type": "address"
                    }
                  ],
                  "internalType": "struct IHeroCore.borrowStruct",
                  "name": "borrowData",
                  "type": "tuple"
                }
              ],
              "internalType": "struct IHeroCore.chcekStatus",
              "name": "status",
              "type": "tuple"
            }
          ],
          "internalType": "struct IHeroCore.HERO",
          "name": "",
          "type": "tuple"
        }
      ],
      "stateMutability": "view",
      "type": "function"
    },
    {
      "inputs": [
        {
          "internalType": "address",
          "name": "_user",
          "type": "address"
        }
      ],
      "name": "getMyTotalHeroStatus",
      "outputs": [
        {
          "components": [
            {
              "internalType": "uint256",
              "name": "tokenId",
              "type": "uint256"
            },
            {
              "internalType": "uint256",
              "name": "level",
              "type": "uint256"
            },
            {
              "internalType": "string",
              "name": "grade",
              "type": "string"
            },
            {
              "internalType": "uint256",
              "name": "birthTime",
              "type": "uint256"
            },
            {
              "internalType": "uint256",
              "name": "reward",
              "type": "uint256"
            },
            {
              "components": [
                {
                  "internalType": "bool",
                  "name": "borrowed",
                  "type": "bool"
                },
                {
                  "internalType": "bool",
                  "name": "traveled",
                  "type": "bool"
                },
                {
                  "internalType": "bool",
                  "name": "mining",
                  "type": "bool"
                },
                {
                  "internalType": "address",
                  "name": "owner",
                  "type": "address"
                },
                {
                  "components": [
                    {
                      "internalType": "address",
                      "name": "travelOwner",
                      "type": "address"
                    },
                    {
                      "internalType": "uint256",
                      "name": "travelTime",
                      "type": "uint256"
                    }
                  ],
                  "internalType": "struct IHeroCore.traveledStruct",
                  "name": "travelData",
                  "type": "tuple"
                },
                {
                  "components": [
                    {
                      "internalType": "uint256",
                      "name": "borrowEndTime",
                      "type": "uint256"
                    },
                    {
                      "internalType": "address",
                      "name": "borrowers",
                      "type": "address"
                    }
                  ],
                  "internalType": "struct IHeroCore.borrowStruct",
                  "name": "borrowData",
                  "type": "tuple"
                }
              ],
              "internalType": "struct IHeroCore.chcekStatus",
              "name": "status",
              "type": "tuple"
            }
          ],
          "internalType": "struct IHeroCore.HERO[]",
          "name": "",
          "type": "tuple[]"
        }
      ],
      "stateMutability": "view",
      "type": "function"
    }
  ],
  "bytecode": "0x60806040523480156200001157600080fd5b506007805461ffff60a01b191661010160a01b17905560058054336001600160a01b0319909116178155600a8054600181810183557fc65a7bb8d6351c1cf70c95a316cc6a92839c986682d98bc35f958f4883f9d2a89182018190558254808201845582019390935581548084018355600e9082015581548084018355601e9082015581548084019092556032910155600b80549182018155600052604080518082019091526009808252684d7974686f6c6f677960b81b6020909201918252620000ef92600080516020620060c38339815191520191906200023e565b50600b8054600181018255600091909152604080518082019091526009808252684c6567656e6461727960b81b60209092019182526200014292600080516020620060c38339815191520191906200023e565b50600b8054600181018255600091909152604080518082019091526004808252634570696360e01b60209092019182526200019092600080516020620060c38339815191520191906200023e565b50600b805460018101825560009190915260408051808201909152600d8082526c20b236b4b734b9ba3930ba37b960991b6020909201918252620001e792600080516020620060c38339815191520191906200023e565b50600b805460018101825560009190915260408051808201909152600680825265139bdc9b585b60d21b60209092019182526200023792600080516020620060c38339815191520191906200023e565b5062000321565b8280546200024c90620002e4565b90600052602060002090601f016020900481019282620002705760008555620002bb565b82601f106200028b57805160ff1916838001178555620002bb565b82800160010185558215620002bb579182015b82811115620002bb5782518255916020019190600101906200029e565b50620002c9929150620002cd565b5090565b5b80821115620002c95760008155600101620002ce565b600181811c90821680620002f957607f821691505b602082108114156200031b57634e487b7160e01b600052602260045260246000fd5b50919050565b615d9280620003316000396000f3fe6080604052600436106101fd5760003560e01c806380d953dd1161010d578063c740671f116100a0578063d36d0c181161006f578063d36d0c18146105ac578063d3ee5e8b146105ca578063d7dd41f2146105ea578063e9d1f8df1461060a578063ee72b8cc1461062a57600080fd5b8063c740671f1461051f578063cd7308d61461053f578063cde15d9e1461055f578063cf5dad261461058c57600080fd5b8063a422ba3a116100dc578063a422ba3a14610496578063a694fc3a146104c3578063a8469ce9146104e3578063c412eaba1461050157600080fd5b806380d953dd1461042357806383a1d7e514610443578063893d20e8146104635780639eb4eae51461048157600080fd5b806332590c5c116101905780635d3eea911161015f5780635d3eea91146103865780636805b84b146103a6578063727da60a146103c55780637ac263e5146103e55780637cac00ee1461040557600080fd5b806332590c5c146103195780633a1a8080146103305780633b7141991461034657806342966c681461036657600080fd5b80631b9cbdfb116101cc5780631b9cbdfb1461028657806321df0da71461029c57806328919df6146102ce5780632a47a945146102f957600080fd5b80630ae2fe5c146102095780630ce90ec21461022b578063173489eb1461024b57806317a135221461025357600080fd5b3661020457005b600080fd5b34801561021557600080fd5b506102296102243660046158a6565b61063f565b005b34801561023757600080fd5b50610229610246366004615823565b610aab565b610229610ee2565b34801561025f57600080fd5b5061027361026e366004615823565b610f21565b6040519081526020015b60405180910390f35b34801561029257600080fd5b5061027360095481565b3480156102a857600080fd5b506002546001600160a01b03165b6040516001600160a01b03909116815260200161027d565b3480156102da57600080fd5b50600754600160a81b900460ff165b604051901515815260200161027d565b34801561030557600080fd5b50610229610314366004615823565b611200565b34801561032557600080fd5b50610273622819a081565b34801561033c57600080fd5b5061027360085481565b34801561035257600080fd5b50610229610361366004615823565b61179a565b34801561037257600080fd5b50610229610381366004615823565b611b76565b34801561039257600080fd5b506102296103a1366004615823565b611bd7565b3480156103b257600080fd5b50600754600160a01b900460ff166102e9565b3480156103d157600080fd5b506102296103e0366004615823565b612214565b3480156103f157600080fd5b50610229610400366004615853565b612583565b34801561041157600080fd5b506001546001600160a01b03166102b6565b34801561042f57600080fd5b5061022961043e366004615823565b612a44565b34801561044f57600080fd5b5061022961045e366004615823565b612bdb565b34801561046f57600080fd5b506005546001600160a01b03166102b6565b34801561048d57600080fd5b50610229612c7b565b3480156104a257600080fd5b506104b66104b1366004615823565b612cc6565b60405161027d9190615c2e565b3480156104cf57600080fd5b506102296104de366004615823565b612e41565b3480156104ef57600080fd5b50610273691a784379d99db420000081565b34801561050d57600080fd5b506003546001600160a01b03166102b6565b34801561052b57600080fd5b5061022961053a366004615773565b612fc1565b34801561054b57600080fd5b5061022961055a366004615823565b613086565b34801561056b57600080fd5b5061057f61057a36600461573b565b613467565b60405161027d91906159e9565b34801561059857600080fd5b506102736105a7366004615882565b6137ff565b3480156105b857600080fd5b506004546001600160a01b03166102b6565b3480156105d657600080fd5b506102296105e5366004615823565b613cf0565b3480156105f657600080fd5b50610229610605366004615823565b614051565b34801561061657600080fd5b50610229610625366004615823565b614473565b34801561063657600080fd5b5061022961494b565b8160006106546001546001600160a01b031690565b6001600160a01b0316636352211e836040518263ffffffff1660e01b815260040161068191815260200190565b60206040518083038186803b15801561069957600080fd5b505afa1580156106ad573d6000803e3d6000fd5b505050506040513d601f19601f820116820180604052508101906106d19190615757565b90506001600160a01b03811630146107045760405162461bcd60e51b81526004016106fb90615bf7565b60405180910390fd5b836000600d60008381526020019081526020016000206040518060c0016040529081600082015481526020016001820154815260200160028201805461074990615ca3565b80601f016020809104026020016040519081016040528092919081815260200182805461077590615ca3565b80156107c25780601f10610797576101008083540402835291602001916107c2565b820191906000526020600020905b8154815290600101906020018083116107a557829003601f168201915b505050918352505060038201546020808301919091526004830154604080840191909152805160c081018252600585015460ff8082161515835261010082048116151583860152620100008204161515828401526001600160a01b0363010000009091048116606083810191909152835180850185526006880154831681526007880154818701526080840152835180850190945260088701548452600990960154169282019290925260a0808301919091529290910152810151519091501561089e5760405162461bcd60e51b81526004016106fb90615b89565b33600090815260106020526040902054156109075760405162461bcd60e51b8152602060048201526024808201527f4572726f72203a20616c7265616479205265717565737420416e6f74686572206044820152634865726f60e01b60648201526084016106fb565b6000868152600f6020908152604080832081518083018352338082528185018b81528354600180820186559488528688209351600290910290930180546001600160a01b0319166001600160a01b039094169390931783555191909201558352601090915281208790556109828666038d7ea4c68000614996565b90506109966002546001600160a01b031690565b6001600160a01b03166323b872dd3330846040518463ffffffff1660e01b81526004016109c5939291906159c5565b602060405180830381600087803b1580156109df57600080fd5b505af11580156109f3573d6000803e3d6000fd5b505050506040513d601f19601f82011682018060405250810190610a179190615807565b5060025460065460405163a9059cbb60e01b81526001600160a01b0391821660048201526024810184905291169063a9059cbb906044015b602060405180830381600087803b158015610a6957600080fd5b505af1158015610a7d573d6000803e3d6000fd5b505050506040513d601f19601f82011682018060405250810190610aa19190615807565b5050505050505050565b806000610ac06001546001600160a01b031690565b6001600160a01b0316636352211e836040518263ffffffff1660e01b8152600401610aed91815260200190565b60206040518083038186803b158015610b0557600080fd5b505afa158015610b19573d6000803e3d6000fd5b505050506040513d601f19601f82011682018060405250810190610b3d9190615757565b90506001600160a01b0381163014610b675760405162461bcd60e51b81526004016106fb90615bf7565b6000838152600d602052604090206005810154630100000090046001600160a01b03163314610bd15760405162461bcd60e51b815260206004820152601660248201527522b93937b9101d102737ba102a37b5b2b727bbb732b960511b60448201526064016106fb565b600181015460058110610c265760405162461bcd60e51b815260206004820181905260248201527f4572726f72203a20546f6b656e206973204d61784c6576656c2053746174757360448201526064016106fb565b6000610c3a6004546001600160a01b031690565b6001600160a01b031663aa93c0ee84600201846040518363ffffffff1660e01b8152600401610c6a929190615a6c565b60206040518083038186803b158015610c8257600080fd5b505afa158015610c96573d6000803e3d6000fd5b505050506040513d601f19601f82011682018060405250810190610cba919061583b565b905080610ccf6002546001600160a01b031690565b6040516370a0823160e01b81523360048201526001600160a01b0391909116906370a082319060240160206040518083038186803b158015610d1057600080fd5b505afa158015610d24573d6000803e3d6000fd5b505050506040513d601f19601f82011682018060405250810190610d48919061583b565b1015610d965760405162461bcd60e51b815260206004820152601860248201527f4572726f72203a204e6f742045786f75676820546f6b656e000000000000000060448201526064016106fb565b610da18260016149a9565b60018401556002546040516323b872dd60e01b81526001600160a01b03909116906323b872dd90610dda903390309086906004016159c5565b602060405180830381600087803b158015610df457600080fd5b505af1158015610e08573d6000803e3d6000fd5b505050506040513d601f19601f82011682018060405250810190610e2c9190615807565b506002546001600160a01b03166001600160a01b031663a9059cbb610e596005546001600160a01b031690565b6040516001600160e01b031960e084901b1681526001600160a01b03909116600482015260248101849052604401602060405180830381600087803b158015610ea157600080fd5b505af1158015610eb5573d6000803e3d6000fd5b505050506040513d601f19601f82011682018060405250810190610ed99190615807565b50505050505050565b6008543490600090610ef59083906149b5565b905060005b81811015610f1c57610f0a6149c1565b80610f1481615cde565b915050610efa565b505050565b6000816000610f386001546001600160a01b031690565b6001600160a01b0316636352211e836040518263ffffffff1660e01b8152600401610f6591815260200190565b60206040518083038186803b158015610f7d57600080fd5b505afa158015610f91573d6000803e3d6000fd5b505050506040513d601f19601f82011682018060405250810190610fb59190615757565b90506001600160a01b0381163014610fdf5760405162461bcd60e51b81526004016106fb90615bf7565b6000600d60008681526020019081526020016000206040518060c0016040529081600082015481526020016001820154815260200160028201805461102390615ca3565b80601f016020809104026020016040519081016040528092919081815260200182805461104f90615ca3565b801561109c5780601f106110715761010080835404028352916020019161109c565b820191906000526020600020905b81548152906001019060200180831161107f57829003601f168201915b505050918352505060038201546020808301919091526004830154604080840191909152805160c081018252600585015460ff8082161515835261010082048116151583860152620100008204161515828401526001600160a01b0363010000009091048116606083810191909152835180850185526006880154831681526007880154818701526080840152835180850190945260088701548452600990960154169282019290925260a0820152910152905061116460075460ff600160a81b9091041690565b6111f2576000611176600060016137ff565b9050600061118d600e546111874290565b90614e51565b905060006111b2826111ac691a784379d99db4200000622819a06149b5565b90614996565b905060006111c18960006137ff565b905060006111d3826111ac85886149b5565b60808701519091506111e590826149a9565b98505050505050506111f9565b6080015192505b5050919050565b8060006112156001546001600160a01b031690565b6001600160a01b0316636352211e836040518263ffffffff1660e01b815260040161124291815260200190565b60206040518083038186803b15801561125a57600080fd5b505afa15801561126e573d6000803e3d6000fd5b505050506040513d601f19601f820116820180604052508101906112929190615757565b90506001600160a01b03811630146112bc5760405162461bcd60e51b81526004016106fb90615bf7565b826000600d60008381526020019081526020016000206040518060c0016040529081600082015481526020016001820154815260200160028201805461130190615ca3565b80601f016020809104026020016040519081016040528092919081815260200182805461132d90615ca3565b801561137a5780601f1061134f5761010080835404028352916020019161137a565b820191906000526020600020905b81548152906001019060200180831161135d57829003601f168201915b505050918352505060038201546020808301919091526004830154604080840191909152805160c081018252600585015460ff8082161515835261010082048116151583860152620100008204161515828401526001600160a01b036301000000909104811660608381019190915283518085018552600688015483168152600788015481870152608084015283518085018552600888015481526009909701549091169386019390935260a0808201959095529190920152908201510151909150156114595760405162461bcd60e51b81526004016106fb90615b52565b846000600d60008381526020019081526020016000206040518060c0016040529081600082015481526020016001820154815260200160028201805461149e90615ca3565b80601f01602080910402602001604051908101604052809291908181526020018280546114ca90615ca3565b80156115175780601f106114ec57610100808354040283529160200191611517565b820191906000526020600020905b8154815290600101906020018083116114fa57829003601f168201915b505050918352505060038201546020808301919091526004830154604080840191909152805160c081018252600585015460ff8082161515835261010082048116151583860152620100008204161515828401526001600160a01b0363010000009091048116606083810191909152835180850185526006880154831681526007880154818701526080840152835180850190945260088701548452600990960154168284015260a08082019290925293909201929092528201510151909150156115f45760405162461bcd60e51b81526004016106fb90615bc0565b6000878152600d602052604081209042906116128262093a806149a9565b600584015490915060ff16156116ff5760088301548111156116925760405162461bcd60e51b815260206004820152603360248201527f4572726f72203a204e6f7420456e6f7567682054696d6520466f722054726176604482015272656c20262620426f72726f77456e6454696d6560681b60648201526084016106fb565b60098301546001600160a01b031633146116fa5760405162461bcd60e51b815260206004820152602360248201527f4572726f72203a206d73672e73656e646572206973204e6f7420426f72726f7760448201526265727360e81b60648201526084016106fb565b611762565b6005830154630100000090046001600160a01b031633146117625760405162461bcd60e51b815260206004820152601f60248201527f4572726f72203a206d73672e73656e646572206973204e6f74204f776e65720060448201526064016106fb565b60058301805461ff0019166101001790556006830180546001600160a01b031916331790556007909201919091555050505050505050565b8060006117af6001546001600160a01b031690565b6001600160a01b0316636352211e836040518263ffffffff1660e01b81526004016117dc91815260200190565b60206040518083038186803b1580156117f457600080fd5b505afa158015611808573d6000803e3d6000fd5b505050506040513d601f19601f8201168201806040525081019061182c9190615757565b90506001600160a01b03811630146118565760405162461bcd60e51b81526004016106fb90615bf7565b826000600d60008381526020019081526020016000206040518060c0016040529081600082015481526020016001820154815260200160028201805461189b90615ca3565b80601f01602080910402602001604051908101604052809291908181526020018280546118c790615ca3565b80156119145780601f106118e957610100808354040283529160200191611914565b820191906000526020600020905b8154815290600101906020018083116118f757829003601f168201915b505050918352505060038201546020808301919091526004830154604080840191909152805160c081018252600585015460ff8082161515835261010082048116151583860152620100008204161515828401526001600160a01b036301000000909104811660608381019190915283518085018552600688015483168152600788015481870152608084015283518085018552600888015481526009909701549091169386019390935260a0808201959095529190920152908201510151909150611a225760405162461bcd60e51b815260206004820152601b60248201527f4572726f72203a206865726f206973204e6f74204d696e696e6721000000000060448201526064016106fb565b6000858152600d60205260409020611a38614e5d565b60048181018054600090915542600e556002546007546040516323b872dd60e01b815292936001600160a01b03928316936323b872dd93611a7f93169130918791016159c5565b602060405180830381600087803b158015611a9957600080fd5b505af1158015611aad573d6000803e3d6000fd5b505050506040513d601f19601f82011682018060405250810190611ad19190615807565b506002546001600160a01b031660405163a9059cbb60e01b8152336004820152602481018390526001600160a01b03919091169063a9059cbb90604401602060405180830381600087803b158015611b2857600080fd5b505af1158015611b3c573d6000803e3d6000fd5b505050506040513d601f19601f82011682018060405250810190611b609190615807565b5050600501805462ff0000191690555050505050565b600154604051630852cd8d60e31b8152600481018390526001600160a01b03909116906342966c6890602401600060405180830381600087803b158015611bbc57600080fd5b505af1158015611bd0573d6000803e3d6000fd5b5050505050565b806000611bec6001546001600160a01b031690565b6001600160a01b0316636352211e836040518263ffffffff1660e01b8152600401611c1991815260200190565b60206040518083038186803b158015611c3157600080fd5b505afa158015611c45573d6000803e3d6000fd5b505050506040513d601f19601f82011682018060405250810190611c699190615757565b90506001600160a01b0381163014611c935760405162461bcd60e51b81526004016106fb90615bf7565b826000600d60008381526020019081526020016000206040518060c00160405290816000820154815260200160018201548152602001600282018054611cd890615ca3565b80601f0160208091040260200160405190810160405280929190818152602001828054611d0490615ca3565b8015611d515780601f10611d2657610100808354040283529160200191611d51565b820191906000526020600020905b815481529060010190602001808311611d3457829003601f168201915b505050918352505060038201546020808301919091526004830154604080840191909152805160c081018252600585015460ff8082161515835261010082048116151583860152620100008204161515828401526001600160a01b036301000000909104811660608381019190915283518085018552600688015483168152600788015481870152608084015283518085018552600888015481526009909701549091169386019390935260a080820195909552919092015290820151015190915015611e305760405162461bcd60e51b81526004016106fb90615b52565b846000600d60008381526020019081526020016000206040518060c00160405290816000820154815260200160018201548152602001600282018054611e7590615ca3565b80601f0160208091040260200160405190810160405280929190818152602001828054611ea190615ca3565b8015611eee5780601f10611ec357610100808354040283529160200191611eee565b820191906000526020600020905b815481529060010190602001808311611ed157829003601f168201915b505050918352505060038201546020808301919091526004830154604080840191909152805160c081018252600585015460ff8082161515835261010082048116151583860152620100008204161515828401526001600160a01b0363010000009091048116606083810191909152835180850185526006880154831681526007880154818701526080840152835180850190945260088701548452600990960154168284015260a0808201929092529390920192909252820151015190915015611fcb5760405162461bcd60e51b81526004016106fb90615bc0565b866000600d60008381526020019081526020016000206040518060c0016040529081600082015481526020016001820154815260200160028201805461201090615ca3565b80601f016020809104026020016040519081016040528092919081815260200182805461203c90615ca3565b80156120895780601f1061205e57610100808354040283529160200191612089565b820191906000526020600020905b81548152906001019060200180831161206c57829003601f168201915b505050918352505060038201546020808301919091526004830154604080840191909152805160c081018252600585015460ff8082161515835261010082048116151583860152620100008204161515828401526001600160a01b0363010000009091048116606083810191909152835180850185526006880154831681526007880154818701526080840152835180850190945260088701548452600990960154169282019290925260a080830191909152929091015281015151909150156121655760405162461bcd60e51b81526004016106fb90615b89565b6000898152600d6020526040902061217b614e5d565b6005810180546301000000600160b81b03191690556000600482015542600e556001546001600160a01b03166001600160a01b03166323b872dd30338d6040518463ffffffff1660e01b81526004016121d6939291906159c5565b600060405180830381600087803b1580156121f057600080fd5b505af1158015612204573d6000803e3d6000fd5b5050505050505050505050505050565b8060006122296001546001600160a01b031690565b6001600160a01b0316636352211e836040518263ffffffff1660e01b815260040161225691815260200190565b60206040518083038186803b15801561226e57600080fd5b505afa158015612282573d6000803e3d6000fd5b505050506040513d601f19601f820116820180604052508101906122a69190615757565b90506001600160a01b03811630146122d05760405162461bcd60e51b81526004016106fb90615bf7565b826000600d60008381526020019081526020016000206040518060c0016040529081600082015481526020016001820154815260200160028201805461231590615ca3565b80601f016020809104026020016040519081016040528092919081815260200182805461234190615ca3565b801561238e5780601f106123635761010080835404028352916020019161238e565b820191906000526020600020905b81548152906001019060200180831161237157829003601f168201915b505050918352505060038201546020808301919091526004830154604080840191909152805160c081018252600585015460ff8082161515835261010082048116151583860152620100008204161515828401526001600160a01b036301000000909104811660608381019190915283518085018552600688015483168152600788015481870152608084015283518085018552600888015481526009909701549091169386019390935260a080820195909552919092015290820151015190915061249c5760405162461bcd60e51b815260206004820152601b60248201527f4572726f72203a206865726f206973204e6f74204d696e696e6721000000000060448201526064016106fb565b6000858152600d602052604090206124b2614e5d565b60048181018054600090915542600e556002546007546040516323b872dd60e01b815292936001600160a01b03928316936323b872dd936124f993169130918791016159c5565b602060405180830381600087803b15801561251357600080fd5b505af1158015612527573d6000803e3d6000fd5b505050506040513d601f19601f8201168201806040525081019061254b9190615807565b5060025460405163a9059cbb60e01b8152336004820152602481018390526001600160a01b039091169063a9059cbb90604401610a4f565b8160006125986001546001600160a01b031690565b6001600160a01b0316636352211e836040518263ffffffff1660e01b81526004016125c591815260200190565b60206040518083038186803b1580156125dd57600080fd5b505afa1580156125f1573d6000803e3d6000fd5b505050506040513d601f19601f820116820180604052508101906126159190615757565b90506001600160a01b038116301461263f5760405162461bcd60e51b81526004016106fb90615bf7565b836000600d60008381526020019081526020016000206040518060c0016040529081600082015481526020016001820154815260200160028201805461268490615ca3565b80601f01602080910402602001604051908101604052809291908181526020018280546126b090615ca3565b80156126fd5780601f106126d2576101008083540402835291602001916126fd565b820191906000526020600020905b8154815290600101906020018083116126e057829003601f168201915b505050918352505060038201546020808301919091526004830154604080840191909152805160c081018252600585015460ff8082161515835261010082048116151583860152620100008204161515828401526001600160a01b036301000000909104811660608381019190915283518085018552600688015483168152600788015481870152608084015283518085018552600888015481526009909701549091169386019390935260a0808201959095529190920152908201510151909150156127dc5760405162461bcd60e51b81526004016106fb90615b52565b6000868152600d6020526040812090426005830154909150630100000090046001600160a01b031633146128525760405162461bcd60e51b815260206004820152601860248201527f4572726f72203a204e6f7420546f6b656e204f776e657221000000000000000060448201526064016106fb565b60008061285f8a8a614f9b565b91509150816128ca5760405162461bcd60e51b815260206004820152603160248201527f4572726f72203a205265717565737455736572206973204e6f74204578697374604482015270656420496e20526571756573744461746160781b60648201526084016106fb565b602081015160006128db8c8c6150f6565b60058701805460ff1916600117905590506128f685836149a9565b600887015582516009870180546001600160a01b0319166001600160a01b03928316179055600254166006546040516323b872dd60e01b81526001600160a01b03928316926323b872dd9261295492911690309086906004016159c5565b602060405180830381600087803b15801561296e57600080fd5b505af1158015612982573d6000803e3d6000fd5b505050506040513d601f19601f820116820180604052508101906129a69190615807565b506002546001600160a01b031660405163a9059cbb60e01b8152336004820152602481018390526001600160a01b03919091169063a9059cbb90604401602060405180830381600087803b1580156129fd57600080fd5b505af1158015612a11573d6000803e3d6000fd5b505050506040513d601f19601f82011682018060405250810190612a359190615807565b50505050505050505050505050565b60095442908290600090612a599083906149b5565b905081612aa05760405162461bcd60e51b81526020600482015260156024820152744572726f72203a2076616c7565206973205a65726f60581b60448201526064016106fb565b600954821015612b055760405162461bcd60e51b815260206004820152602a60248201527f4572726f72203a20546f6b656e56616c7565206c6f776572207468616e20507260448201526934b1b2a7b32a37b5b2b760b11b60648201526084016106fb565b60005b81811015612b5457336000908152602081905260409020612b2c8562093a806149a9565b8154600181018355600092835260209092209091015580612b4c81615cde565b915050612b08565b506002546040516323b872dd60e01b81526001600160a01b03909116906323b872dd90612b89903390309087906004016159c5565b602060405180830381600087803b158015612ba357600080fd5b505af1158015612bb7573d6000803e3d6000fd5b505050506040513d601f19601f82011682018060405250810190611bd09190615807565b33600090815260208190526040812080544292919084908110612c0e57634e487b7160e01b600052603260045260246000fd5b90600052602060002001549050818111612c6a5760405162461bcd60e51b815260206004820152601960248201527f4572726f72203a2054696d654c6f636b204475726174696f6e0000000000000060448201526064016106fb565b612c738361534f565b610f1c6149c1565b6005546001600160a01b03163314612ca55760405162461bcd60e51b81526004016106fb90615b1b565b6007805460ff60a01b198116600160a01b9182900460ff1615909102179055565b612cce6155fb565b600d60008381526020019081526020016000206040518060c00160405290816000820154815260200160018201548152602001600282018054612d1090615ca3565b80601f0160208091040260200160405190810160405280929190818152602001828054612d3c90615ca3565b8015612d895780601f10612d5e57610100808354040283529160200191612d89565b820191906000526020600020905b815481529060010190602001808311612d6c57829003601f168201915b505050918352505060038201546020808301919091526004830154604080840191909152805160c081018252600585015460ff8082161515835261010082048116151583860152620100008204161515828401526001600160a01b0363010000009091048116606083810191909152835180850185526006880154831681526007880154818701526080840152835180850190945260088701548452600990960154169282019290925260a082015291015292915050565b6000612e556001546001600160a01b031690565b6001600160a01b0316636352211e836040518263ffffffff1660e01b8152600401612e8291815260200190565b60206040518083038186803b158015612e9a57600080fd5b505afa158015612eae573d6000803e3d6000fd5b505050506040513d601f19601f82011682018060405250810190612ed29190615757565b6000838152600d602052604090209091506001600160a01b0382163314612f3b5760405162461bcd60e51b815260206004820152601760248201527f4572726f72203a204e6f7420546f6b656e204f776e657200000000000000000060448201526064016106fb565b6005810180546301000000600160b81b031916336301000000021790556001546001600160a01b03166001600160a01b03166323b872dd3330866040518463ffffffff1660e01b8152600401612f93939291906159c5565b600060405180830381600087803b158015612fad57600080fd5b505af1158015610ed9573d6000803e3d6000fd5b6005546001600160a01b03163314612feb5760405162461bcd60e51b81526004016106fb90615b1b565b612ffd82670de0b6b3a7640000614996565b60085561301281670de0b6b3a7640000614996565b6009555050600180546001600160a01b03199081166001600160a01b0398891617909155600280548216968816969096179095556003805486169487169490941790935560048054851692861692909217909155600680548416918516919091179055600780549092169216919091179055565b80600061309b6001546001600160a01b031690565b6001600160a01b0316636352211e836040518263ffffffff1660e01b81526004016130c891815260200190565b60206040518083038186803b1580156130e057600080fd5b505afa1580156130f4573d6000803e3d6000fd5b505050506040513d601f19601f820116820180604052508101906131189190615757565b90506001600160a01b03811630146131425760405162461bcd60e51b81526004016106fb90615bf7565b6000838152600d6020526040902060058101544290610100900460ff1661317b5760405162461bcd60e51b81526004016106fb90615bc0565b60078201548110156131cf5760405162461bcd60e51b815260206004820152601b60248201527f4572726f72203a204e6f742054726176656c20456e642054696d65000000000060448201526064016106fb565b600682015460058301546001600160a01b03918216913363010000009092041614806132035750336001600160a01b038216145b61325d5760405162461bcd60e51b815260206004820152602560248201527f4572726f72203a204e6f742054726176656c4f776e6572206f72207374616b6560448201526427bbb732b960d91b60648201526084016106fb565b60088301546000908311156132a9575060058301805460ff191690819055600060088501556009840180546001600160a01b0319169055630100000090046001600160a01b03166132ac565b50805b60058401805461ff00191690556006840180546001600160a01b03191690556000600785018190556132de88826137ff565b905060006132f46004546001600160a01b031690565b6001600160a01b031663b79d5db4836040518263ffffffff1660e01b815260040161332191815260200190565b60206040518083038186803b15801561333957600080fd5b505afa15801561334d573d6000803e3d6000fd5b505050506040513d601f19601f82011682018060405250810190613371919061583b565b905060018110156133f4576003546001600160a01b0316604051630ab714fb60e11b81526001600160a01b0385811660048301526001602483018190526044830152919091169063156e29f690606401600060405180830381600087803b1580156133db57600080fd5b505af11580156133ef573d6000803e3d6000fd5b505050505b6003546001600160a01b0316604051630ab714fb60e11b81526001600160a01b0385811660048301526024820184905260016044830152919091169063156e29f690606401600060405180830381600087803b15801561345357600080fd5b505af1158015612a35573d6000803e3d6000fd5b6060600061347d6001546001600160a01b031690565b6040516370a0823160e01b81526001600160a01b03858116600483015291909116906370a082319060240160206040518083038186803b1580156134c057600080fd5b505afa1580156134d4573d6000803e3d6000fd5b505050506040513d601f19601f820116820180604052508101906134f8919061583b565b905060008167ffffffffffffffff81111561352357634e487b7160e01b600052604160045260246000fd5b60405190808252806020026020018201604052801561355c57816020015b6135496155fb565b8152602001906001900390816135415790505b5090506000805b600c548110156137f5576000600c828154811061359057634e487b7160e01b600052603260045260246000fd5b90600052602060002090600a02016040518060c001604052908160008201548152602001600182015481526020016002820180546135cd90615ca3565b80601f01602080910402602001604051908101604052809291908181526020018280546135f990615ca3565b80156136465780601f1061361b57610100808354040283529160200191613646565b820191906000526020600020905b81548152906001019060200180831161362957829003601f168201915b505050918352505060038201546020808301919091526004830154604080840191909152805160c081018252600585015460ff8082161515835261010082048116151583860152620100008204161515828401526001600160a01b036301000000909104811660608381019190915283518085018552600688015483168152600788015481870152608084015283518085019094526008870154845260099096015481169383019390935260a081019190915292909101919091528151919250881661371a6001546001600160a01b031690565b6001600160a01b0316636352211e836040518263ffffffff1660e01b815260040161374791815260200190565b60206040518083038186803b15801561375f57600080fd5b505afa158015613773573d6000803e3d6000fd5b505050506040513d601f19601f820116820180604052508101906137979190615757565b6001600160a01b031614156137e057818585815181106137c757634e487b7160e01b600052603260045260246000fd5b60209081029190910101526137dd8460016149a9565b93505b505080806137ed90615cde565b915050613563565b5090949350505050565b60008115613ade57600061381b6001546001600160a01b031690565b6001600160a01b031663295d3ee86040518163ffffffff1660e01b815260040160206040518083038186803b15801561385357600080fd5b505afa158015613867573d6000803e3d6000fd5b505050506040513d601f19601f8201168201806040525081019061388b919061583b565b9050600060015b828111613ad4576000600d60008381526020019081526020016000206040518060c001604052908160008201548152602001600182015481526020016002820180546138dd90615ca3565b80601f016020809104026020016040519081016040528092919081815260200182805461390990615ca3565b80156139565780601f1061392b57610100808354040283529160200191613956565b820191906000526020600020905b81548152906001019060200180831161393957829003601f168201915b505050918352505060038201546020808301919091526004830154604080840191909152805160c081018252600585015460ff8082161515835261010082048116151583860152620100008204161515828401526001600160a01b036301000000909104811660608381019190915283518085018552600688015483168152600788015481870152608084015283518085018552600888015481526009909701549091169386019390935260a080820195909552919092015290820151015190915015613ac157613abe613a326004546001600160a01b031690565b6001600160a01b0316638e1fcdd1836040015184602001516040518363ffffffff1660e01b8152600401613a67929190615a4a565b60206040518083038186803b158015613a7f57600080fd5b505afa158015613a93573d6000803e3d6000fd5b505050506040513d601f19601f82011682018060405250810190613ab7919061583b565b84906149a9565b92505b5080613acc81615cde565b915050613892565b509150613cea9050565b6000600d60008581526020019081526020016000206040518060c00160405290816000820154815260200160018201548152602001600282018054613b2290615ca3565b80601f0160208091040260200160405190810160405280929190818152602001828054613b4e90615ca3565b8015613b9b5780601f10613b7057610100808354040283529160200191613b9b565b820191906000526020600020905b815481529060010190602001808311613b7e57829003601f168201915b505050918352505060038201546020808301919091526004830154604080840191909152805160c081018252600585015460ff8082161515835261010082048116151583860152620100008204161515828401526001600160a01b0363010000009091048116606083810191909152835180850185526006880154831681526007880154818701526080840152835180850190945260088701548452600990960154169282019290925260a08201529101529050613c616004546001600160a01b031690565b6001600160a01b0316638e1fcdd1826040015183602001516040518363ffffffff1660e01b8152600401613c96929190615a4a565b60206040518083038186803b158015613cae57600080fd5b505afa158015613cc2573d6000803e3d6000fd5b505050506040513d601f19601f82011682018060405250810190613ce6919061583b565b9150505b92915050565b806000613d056001546001600160a01b031690565b6001600160a01b0316636352211e836040518263ffffffff1660e01b8152600401613d3291815260200190565b60206040518083038186803b158015613d4a57600080fd5b505afa158015613d5e573d6000803e3d6000fd5b505050506040513d601f19601f82011682018060405250810190613d829190615757565b90506001600160a01b0381163014613dac5760405162461bcd60e51b81526004016106fb90615bf7565b826000600d60008381526020019081526020016000206040518060c00160405290816000820154815260200160018201548152602001600282018054613df190615ca3565b80601f0160208091040260200160405190810160405280929190818152602001828054613e1d90615ca3565b8015613e6a5780601f10613e3f57610100808354040283529160200191613e6a565b820191906000526020600020905b815481529060010190602001808311613e4d57829003601f168201915b505050918352505060038201546020808301919091526004830154604080840191909152805160c081018252600585015460ff8082161515835261010082048116151583860152620100008204161515828401526001600160a01b0363010000009091048116606083810191909152835180850185526006880154831681526007880154818701526080840152835180850190945260088701548452600990960154168284015260a0808201929092529390920192909252820151015190915015613f475760405162461bcd60e51b81526004016106fb90615bc0565b6000858152600d60205260409020600981015442906001600160a01b0316331480613f8557506005820154630100000090046001600160a01b031633145b613fd15760405162461bcd60e51b815260206004820152601e60248201527f4572726f72203a204e6f74204f776e6572204f7220426f72726f77657273000060448201526064016106fb565b60088201548110156140255760405162461bcd60e51b815260206004820152601b60248201527f4572726f72203a204e6f7420426f72726f7720456e642054496d65000000000060448201526064016106fb565b5060058101805460ff191690556000600882015560090180546001600160a01b03191690555050505050565b8060006140666001546001600160a01b031690565b6001600160a01b0316636352211e836040518263ffffffff1660e01b815260040161409391815260200190565b60206040518083038186803b1580156140ab57600080fd5b505afa1580156140bf573d6000803e3d6000fd5b505050506040513d601f19601f820116820180604052508101906140e39190615757565b90506001600160a01b038116301461410d5760405162461bcd60e51b81526004016106fb90615bf7565b826000600d60008381526020019081526020016000206040518060c0016040529081600082015481526020016001820154815260200160028201805461415290615ca3565b80601f016020809104026020016040519081016040528092919081815260200182805461417e90615ca3565b80156141cb5780601f106141a0576101008083540402835291602001916141cb565b820191906000526020600020905b8154815290600101906020018083116141ae57829003601f168201915b505050918352505060038201546020808301919091526004830154604080840191909152805160c081018252600585015460ff8082161515835261010082048116151583860152620100008204161515828401526001600160a01b0363010000009091048116606083810191909152835180850185526006880154831681526007880154818701526080840152835180850190945260088701548452600990960154168284015260a08082019290925293909201929092528201510151909150156142a85760405162461bcd60e51b81526004016106fb90615bc0565b846000600d60008381526020019081526020016000206040518060c001604052908160008201548152602001600182015481526020016002820180546142ed90615ca3565b80601f016020809104026020016040519081016040528092919081815260200182805461431990615ca3565b80156143665780601f1061433b57610100808354040283529160200191614366565b820191906000526020600020905b81548152906001019060200180831161434957829003601f168201915b505050918352505060038201546020808301919091526004830154604080840191909152805160c081018252600585015460ff8082161515835261010082048116151583860152620100008204161515828401526001600160a01b0363010000009091048116606083810191909152835180850185526006880154831681526007880154818701526080840152835180850190945260088701548452600990960154169282019290925260a080830191909152929091015281015151909150156144425760405162461bcd60e51b81526004016106fb90615b89565b6000878152600d60205260409020614458614e5d565b600501805462ff000019166201000017905550505050505050565b8060006144886001546001600160a01b031690565b6001600160a01b0316636352211e836040518263ffffffff1660e01b81526004016144b591815260200190565b60206040518083038186803b1580156144cd57600080fd5b505afa1580156144e1573d6000803e3d6000fd5b505050506040513d601f19601f820116820180604052508101906145059190615757565b90506001600160a01b038116301461452f5760405162461bcd60e51b81526004016106fb90615bf7565b3360009081526010602052604090205461458b5760405162461bcd60e51b815260206004820152601c60248201527f4572726f72203a204e6f7420457869737465642052657175657374210000000060448201526064016106fb565b336000908152601060209081526040808320839055858352600f9091528120905b8154811015611bd057336001600160a01b03168282815481106145df57634e487b7160e01b600052603260045260246000fd5b60009182526020909120600290910201546001600160a01b0316141561493957600082828154811061462157634e487b7160e01b600052603260045260246000fd5b906000526020600020906002020160010154905082828154811061465557634e487b7160e01b600052603260045260246000fd5b60009182526020822060029091020180546001600160a01b031916815560019081019190915583541480614695575082548290614693906001614e51565b145b156146e657828054806146b857634e487b7160e01b600052603160045260246000fd5b60008281526020812060026000199093019283020180546001600160a01b03191681556001015590556147f4565b825460009084906146f8906001614e51565b8154811061471657634e487b7160e01b600052603260045260246000fd5b60009182526020918290206040805180820190915260029092020180546001600160a01b0316825260010154918101919091528454909150819085908590811061477057634e487b7160e01b600052603260045260246000fd5b600091825260209182902083516002929092020180546001600160a01b0319166001600160a01b0390921691909117815591015160019091015583548490806147c957634e487b7160e01b600052603160045260246000fd5b60008281526020812060026000199093019283020180546001600160a01b0319168155600101559055505b60006148078266038d7ea4c68000614996565b905061481b6002546001600160a01b031690565b6006546040516323b872dd60e01b81526001600160a01b03928316926323b872dd9261485092911690309086906004016159c5565b602060405180830381600087803b15801561486a57600080fd5b505af115801561487e573d6000803e3d6000fd5b505050506040513d601f19601f820116820180604052508101906148a29190615807565b506002546001600160a01b031660405163a9059cbb60e01b8152336004820152602481018390526001600160a01b03919091169063a9059cbb90604401602060405180830381600087803b1580156148f957600080fd5b505af115801561490d573d6000803e3d6000fd5b505050506040513d601f19601f820116820180604052508101906149319190615807565b505050611bd0565b8061494381615cde565b9150506145ac565b6005546001600160a01b031633146149755760405162461bcd60e51b81526004016106fb90615b1b565b6007805460ff60a81b198116600160a81b9182900460ff1615909102179055565b60006149a28284615c6d565b9392505050565b60006149a28284615c41565b60006149a28284615c59565b60015442906001600160a01b03166040516335313c2160e11b81523360048201526001600160a01b039190911690636a62784290602401600060405180830381600087803b158015614a1257600080fd5b505af1158015614a26573d6000803e3d6000fd5b505050506000614a3e6001546001600160a01b031690565b6001600160a01b031663295d3ee86040518163ffffffff1660e01b815260040160206040518083038186803b158015614a7657600080fd5b505afa158015614a8a573d6000803e3d6000fd5b505050506040513d601f19601f82011682018060405250810190614aae919061583b565b90506000614ac46001546001600160a01b031690565b6001600160a01b031663295d3ee86040518163ffffffff1660e01b815260040160206040518083038186803b158015614afc57600080fd5b505afa158015614b10573d6000803e3d6000fd5b505050506040513d601f19601f82011682018060405250810190614b34919061583b565b90506000614b4182615476565b6040805160c080820183528682526001602080840182815284860187815260608087018d90526000608080890182905289519788018a52818852878601829052878a018290529187018190528851808a018a52818152808601829052918701919091528751808901895281815280850182905260a087810191909152870195909552898552600d8352959093208451815592519183019190915592518051949550919384939192614bf9926002850192910190615681565b506060828101516003830155608080840151600484015560a09384015180516005850180546020808501516040808701519887015161ffff1990941695151561ff00191695909517610100911515919091021762010000600160b81b03191662010000971515979097026301000000600160b81b0319169690961763010000006001600160a01b0392831602179091559282015180516006870180546001600160a01b0319908116928716929092179055908501516007870155919095015180516008860155830151600990940180549091169390911692909217909155600c805460018101825560009190915283517fdf6966c971051c3d54ec59162606531493a51404a002842f56009d7e5cf4a8c7600a909202918201908155848301517fdf6966c971051c3d54ec59162606531493a51404a002842f56009d7e5cf4a8c8830155928401518051859493614d74937fdf6966c971051c3d54ec59162606531493a51404a002842f56009d7e5cf4a8c901920190615681565b506060828101516003830155608080840151600484015560a093840151805160058501805460208085015160408601519786015161ffff1990931694151561ff00191694909417610100941515949094029390931762010000600160b81b03191662010000961515969096026301000000600160b81b0319169590951763010000006001600160a01b03968716021790559181015180516006860180546001600160a01b03199081169287169290921790559083015160078601559401518051600885015501516009909201805490931691161790555050505050565b60006149a28284615c8c565b600754600160a81b900460ff16614f99576000614e7c600060016137ff565b90506000614e926001546001600160a01b031690565b6001600160a01b031663295d3ee86040518163ffffffff1660e01b815260040160206040518083038186803b158015614eca57600080fd5b505afa158015614ede573d6000803e3d6000fd5b505050506040513d601f19601f82011682018060405250810190614f02919061583b565b90506000614f13600e546111874290565b90506000614f32826111ac691a784379d99db4200000622819a06149b5565b905060015b838111611bd0576000818152600d6020526040812090614f5783826137ff565b90506000614f69826111ac878b6149b5565b6004840154909150614f7b90826149a9565b83600401819055505050508080614f9190615cde565b915050614f37565b565b60408051808201825260008082526020808301829052858252600f81528382208054855181840281018401909652808652929485939092849084015b8282101561501f576000848152602090819020604080518082019091526002850290910180546001600160a01b03168252600190810154828401529083529092019101614fd7565b50505050905060005b81518110156150bd57846001600160a01b031682828151811061505b57634e487b7160e01b600052603260045260246000fd5b6020026020010151600001516001600160a01b031614156150ab57600182828151811061509857634e487b7160e01b600052603260045260246000fd5b60200260200101519350935050506150ef565b806150b581615cde565b915050615028565b506000816000815181106150e157634e487b7160e01b600052603260045260246000fd5b602002602001015192509250505b9250929050565b6000828152600f6020908152604080832080548251818502810185019093528083528493849084015b82821015615167576000848152602090819020604080518082019091526002850290910180546001600160a01b0316825260019081015482840152908352909201910161511f565b5050505090506000805b82518110156153465760006151c166038d7ea4c680008584815181106151a757634e487b7160e01b600052603260045260246000fd5b60200260200101516020015161499690919063ffffffff16565b905060008483815181106151e557634e487b7160e01b600052603260045260246000fd5b6020026020010151600001519050866001600160a01b0316816001600160a01b03161461532d576002546006546040516323b872dd60e01b81526001600160a01b03928316926323b872dd9261524492911690309087906004016159c5565b602060405180830381600087803b15801561525e57600080fd5b505af1158015615272573d6000803e3d6000fd5b505050506040513d601f19601f820116820180604052508101906152969190615807565b506002546001600160a01b031660405163a9059cbb60e01b81526001600160a01b03838116600483015260248201859052919091169063a9059cbb90604401602060405180830381600087803b1580156152ef57600080fd5b505af1158015615303573d6000803e3d6000fd5b505050506040513d601f19601f820116820180604052508101906153279190615807565b50615331565b8193505b5050808061533e90615cde565b915050615171565b50949350505050565b33600090815260208190526040812061536791615705565b33600090815260208190526040902080546001148061539357508054829061539190600190615c8c565b145b156153d057808054806153b657634e487b7160e01b600052603160045260246000fd5b600190038181906000526020600020016000905590555050565b805460009082906153e390600190615c8c565b8154811061540157634e487b7160e01b600052603260045260246000fd5b906000526020600020015490508082848154811061542f57634e487b7160e01b600052603260045260246000fd5b90600052602060002001819055508180548061545b57634e487b7160e01b600052603160045260246000fd5b60019003818190600052602060002001600090559055505050565b60606000615483836155b6565b90506000805b600a548110156154f8576000600a82815481106154b657634e487b7160e01b600052603260045260246000fd5b90600052602060002001549050808411156154dc576154d58482614e51565b93506154e5565b819250506154f8565b50806154f081615cde565b915050615489565b50600b818154811061551a57634e487b7160e01b600052603260045260246000fd5b90600052602060002001805461552f90615ca3565b80601f016020809104026020016040519081016040528092919081815260200182805461555b90615ca3565b80156155a85780601f1061557d576101008083540402835291602001916155a8565b820191906000526020600020905b81548152906001019060200180831161558b57829003601f168201915b505050505092505050919050565b604080514260208201524491810191909152606081018290526000906064906080016040516020818303038152906040528051906020012060001c613cea9190615cf9565b6040518060c00160405280600081526020016000815260200160608152602001600081526020016000815260200161567c6040805160c081018252600080825260208083018290528284018290526060830182905283518085018552828152808201839052608084015283518085019094528184528301529060a082015290565b905290565b82805461568d90615ca3565b90600052602060002090601f0160209004810192826156af57600085556156f5565b82601f106156c857805160ff19168380011785556156f5565b828001600101855582156156f5579182015b828111156156f55782518255916020019190600101906156da565b50615701929150615726565b5090565b50805460008255906000526020600020908101906157239190615726565b50565b5b808211156157015760008155600101615727565b60006020828403121561574c578081fd5b81356149a281615d39565b600060208284031215615768578081fd5b81516149a281615d39565b600080600080600080600080610100898b03121561578f578384fd5b883561579a81615d39565b975060208901356157aa81615d39565b965060408901356157ba81615d39565b955060608901356157ca81615d39565b945060808901356157da81615d39565b935060a08901356157ea81615d39565b979a969950949793969295929450505060c08201359160e0013590565b600060208284031215615818578081fd5b81516149a281615d4e565b600060208284031215615834578081fd5b5035919050565b60006020828403121561584c578081fd5b5051919050565b60008060408385031215615865578182fd5b82359150602083013561587781615d39565b809150509250929050565b60008060408385031215615894578182fd5b82359150602083013561587781615d4e565b600080604083850312156158b8578182fd5b50508035926020909101359150565b60008151808452815b818110156158ec576020818501810151868301820152016158d0565b818111156158fd5782602083870101525b50601f01601f19169290920160200192915050565b60006101a08251845260208301516020850152604083015181604086015261593c828601826158c7565b606085810151878201526080808701518189015260a08088015180511515828b0152602080820151151560c08c01526040820151151560e08c0152938101516001600160a01b039081166101008c015292810151805184166101208c01528401516101408b0152015180516101608a015291820151166101808801529092509050509392505050565b6001600160a01b039384168152919092166020820152604081019190915260600190565b6000602080830181845280855180835260408601915060408160051b8701019250838701855b82811015615a3d57603f19888603018452615a2b858351615912565b94509285019290850190600101615a0f565b5092979650505050505050565b604081526000615a5d60408301856158c7565b90508260208301529392505050565b60408152600080845482600182811c915080831680615a8c57607f831692505b6020808410821415615aac57634e487b7160e01b87526022600452602487fd5b6040880184905260608801828015615acb5760018114615adc57615b06565b60ff19871682528282019750615b06565b60008c815260209020895b87811015615b0057815484820152908601908401615ae7565b83019850505b50509690960196909652509095945050505050565b6020808252601a908201527f4865726f436f7265204572726f72203a206f6e6c794f776e6572000000000000604082015260600190565b60208082526017908201527f4572726f72203a206865726f206973204d696e696e6721000000000000000000604082015260600190565b60208082526019908201527f4572726f72203a206865726f20697320426f72726f7765642100000000000000604082015260600190565b60208082526019908201527f4572726f72203a206865726f2069732054726176656c65642100000000000000604082015260600190565b6020808252601c908201527f4572726f72203a204865726f206973204e6f74205374616b6564212100000000604082015260600190565b6020815260006149a26020830184615912565b60008219821115615c5457615c54615d0d565b500190565b600082615c6857615c68615d23565b500490565b6000816000190483118215151615615c8757615c87615d0d565b500290565b600082821015615c9e57615c9e615d0d565b500390565b600181811c90821680615cb757607f821691505b60208210811415615cd857634e487b7160e01b600052602260045260246000fd5b50919050565b6000600019821415615cf257615cf2615d0d565b5060010190565b600082615d0857615d08615d23565b500690565b634e487b7160e01b600052601160045260246000fd5b634e487b7160e01b600052601260045260246000fd5b6001600160a01b038116811461572357600080fd5b801515811461572357600080fdfea26469706673582212206e3c1ed646fe3c2a07b45bb3391923d54df2e3329eec19a8939af041e00b05a864736f6c634300080400330175b7a638427703f0dbe7bb9bbf987a2551717b34e79f33b5b1008d1fa01db9",
  "immutableReferences": {},
  "source": "// SPDX-License-Identifier: MIT\npragma solidity 0.8.4;\n\nimport \"./utils/HeroController.sol\";\nimport \"./utils/TimeLock.sol\";\nimport \"./utils/MakeGrade.sol\";\n\nimport \"./interface/IHeroCore.sol\";\n\nimport \"../utils/SafeMath.sol\";\n\ncontract HeroCore is TimeLock, HeroController, MakeGrade, IHeroCore {\n    using SafeMath for *;\n\n    HERO[] heroArray;\n    mapping(uint256 => HERO) private heroVault;\n\n    uint256 private constant MINT_BUY_LIMIT = 3;\n    uint256 private constant MAX_LEVEL = 5;\n    uint256 private constant TIME_LOCK_DURATION = 7 days;\n    uint256 private constant TRAVEL_DURATION = 7 days;\n    uint256 private constant BORROW_PRICE_PER_BLOCK = 1e15;\n\n    uint256 public constant MINING_REWARD = 125000e18;\n    uint256 public constant MINING_DURATION = 365 days / 12;\n    uint256 private lastClaimTime;\n\n    mapping(uint256 => RequestStruct[]) private borrowRequestMap;\n    mapping(address => uint256) private myRequestMap;\n\n    modifier checkIsStaked(uint256 _tokenId) {\n        address owner = getHeroNFT().ownerOf(_tokenId);\n        require(owner == address(this), \"Error : Hero is Not Staked!!\");\n        _;\n    }\n\n    modifier checkNotMining(uint256 _tokenId) {\n        HERO memory hero = heroVault[_tokenId];\n        require(!hero.status.mining, \"Error : hero is Mining!\");\n        _;\n    }\n\n    modifier checkNotTraveling(uint256 _tokenId) {\n        HERO memory hero = heroVault[_tokenId];\n        require(!hero.status.traveled, \"Error : hero is Traveled!\");\n        _;\n    }\n\n    modifier checkNotBorrowed(uint256 _tokenId) {\n        HERO memory hero = heroVault[_tokenId];\n        require(!hero.status.borrowed, \"Error : hero is Borrowed!\");\n        _;\n    }\n\n    modifier checkIsMining(uint256 _tokenId) {\n        HERO memory hero = heroVault[_tokenId];\n        require(hero.status.mining, \"Error : hero is Not Mining!\");\n        _;\n    }\n\n    receive() external payable {}\n\n    function mintBuy() external payable {\n        uint256 value = msg.value;\n        uint256 amount = value.div(priceOfKlay);\n\n        // require(value != 0, \"Error : value is Zero\");\n        // require(value >= priceOfKlay, \"Error : Not Enough Klay\");\n\n        for (uint256 i = 0; i < amount; i++) {\n            _mintHero();\n        }\n\n        // payable(address(this)).transfer(value);\n    }\n\n    function mintByToken(uint256 _tokenAmount) external {\n        uint256 currentTime = _currentTime();\n        uint256 value = _tokenAmount;\n        uint256 amount = value.div(priceOfToken);\n\n        require(value != 0, \"Error : value is Zero\");\n        require(\n            value >= priceOfToken,\n            \"Error : TokenValue lower than PriceOfToken\"\n        );\n\n        for (uint256 i = 0; i < amount; i++) {\n            heroTimeLock[msg.sender].push(currentTime.add(TIME_LOCK_DURATION));\n        }\n\n        getToken().transferFrom(msg.sender, address(this), value);\n    }\n\n    function mintTimeLock(uint256 _index) external {\n        uint256 currentTime = _currentTime();\n        uint256 time = heroTimeLock[msg.sender][_index];\n\n        require(time > currentTime, \"Error : TimeLock Duration\");\n\n        _changeTimeLock(_index);\n        _mintHero();\n    }\n\n    function travel(uint256 _tokenId)\n        external\n        checkIsStaked(_tokenId)\n        checkNotMining(_tokenId)\n        checkNotTraveling(_tokenId)\n    {\n        HERO storage hero = heroVault[_tokenId];\n\n        uint256 currentTime = _currentTime();\n        uint256 travelDuration = currentTime.add(TRAVEL_DURATION);\n\n        if (hero.status.borrowed) {\n            require(\n                travelDuration <= hero.status.borrowData.borrowEndTime,\n                \"Error : Not Enough Time For Travel && BorrowEndTime\"\n            );\n\n            require(\n                msg.sender == hero.status.borrowData.borrowers,\n                \"Error : msg.sender is Not Borrowers\"\n            );\n        } else {\n            require(\n                msg.sender == hero.status.owner,\n                \"Error : msg.sender is Not Owner\"\n            );\n        }\n\n        hero.status.traveled = true;\n        hero.status.travelData.travelOwner = msg.sender;\n        hero.status.travelData.travelTime = travelDuration;\n    }\n\n    function getRewardToTravel(uint256 _tokenId)\n        external\n        checkIsStaked(_tokenId)\n    {\n        HERO storage hero = heroVault[_tokenId];\n\n        uint256 currentTime = _currentTime();\n\n        require(hero.status.traveled, \"Error : hero is Traveled!\");\n        require(\n            hero.status.travelData.travelTime <= currentTime,\n            \"Error : Not Travel End Time\"\n        );\n\n        address travelOwner = hero.status.travelData.travelOwner;\n\n        require(\n            msg.sender == hero.status.owner || msg.sender == travelOwner,\n            \"Error : Not TravelOwner or stakeOwner\"\n        );\n\n        address receiver;\n\n        if (hero.status.borrowData.borrowEndTime < currentTime) {\n            hero.status.borrowed = false;\n            hero.status.borrowData.borrowEndTime = 0;\n            hero.status.borrowData.borrowers = address(0x0);\n\n            receiver = hero.status.owner;\n        } else {\n            receiver = travelOwner;\n        }\n\n        hero.status.traveled = false;\n        hero.status.travelData.travelOwner = address(0x0);\n        hero.status.travelData.travelTime = 0;\n\n        uint256 power = getHeroPower(_tokenId, false);\n        uint256 randomItemNumber = getLevelDiagram().calculateItemIndex(power);\n\n        if (randomItemNumber < 1) {\n            getItem().mint(receiver, 1, 1);\n        }\n\n        getItem().mint(receiver, randomItemNumber, 1);\n    }\n\n    function requestBorrow(uint256 _tokenId, uint256 _duartion)\n        external\n        checkIsStaked(_tokenId)\n        checkNotBorrowed(_tokenId)\n    {\n        require(\n            myRequestMap[msg.sender] == 0,\n            \"Error : already Request Another Hero\"\n        );\n\n        borrowRequestMap[_tokenId].push(RequestStruct(msg.sender, _duartion));\n        myRequestMap[msg.sender] = _tokenId;\n\n        uint256 borrowPrice = _duartion.mul(BORROW_PRICE_PER_BLOCK);\n\n        getToken().transferFrom(msg.sender, address(this), borrowPrice);\n        getToken().transfer(depositAddress, borrowPrice);\n    }\n\n    function cancelBorrowRequest(uint256 _tokenId)\n        external\n        checkIsStaked(_tokenId)\n    {\n        require(myRequestMap[msg.sender] != 0, \"Error : Not Existed Request!\");\n\n        myRequestMap[msg.sender] = 0;\n\n        RequestStruct[] storage requestList = borrowRequestMap[_tokenId];\n\n        for (uint256 i = 0; i < requestList.length; i++) {\n            if (requestList[i].requestOwner == msg.sender) {\n                uint256 duration = requestList[i].duration;\n\n                delete requestList[i];\n\n                if (requestList.length == 1 || requestList.length.sub(1) == i) {\n                    requestList.pop();\n                } else {\n                    RequestStruct memory lastValue = requestList[\n                        requestList.length.sub(1)\n                    ];\n                    requestList[i] = lastValue;\n                    requestList.pop();\n                }\n\n                uint256 borrowPrice = duration.mul(BORROW_PRICE_PER_BLOCK);\n\n                getToken().transferFrom(\n                    depositAddress,\n                    address(this),\n                    borrowPrice\n                );\n                getToken().transfer(msg.sender, borrowPrice);\n\n                break;\n            }\n        }\n    }\n\n    function approveBorrowRequest(uint256 _tokenId, address _apprrovedUser)\n        external\n        checkIsStaked(_tokenId)\n        checkNotMining(_tokenId)\n    {\n        HERO storage hero = heroVault[_tokenId];\n        uint256 currentTime = _currentTime();\n\n        require(hero.status.owner == msg.sender, \"Error : Not Token Owner!\");\n\n        (bool inRequest, RequestStruct memory data) = _checkUserInBorrowData(\n            _tokenId,\n            _apprrovedUser\n        );\n\n        require(inRequest, \"Error : RequestUser is Not Existed In RequestData\");\n\n        uint256 duration = data.duration;\n\n        uint256 approvedOwnerPrice = _returnTokenToOther(\n            _tokenId,\n            _apprrovedUser\n        );\n\n        hero.status.borrowed = true;\n        hero.status.borrowData.borrowEndTime = currentTime.add(duration);\n        hero.status.borrowData.borrowers = data.requestOwner;\n\n        getToken().transferFrom(\n            depositAddress,\n            address(this),\n            approvedOwnerPrice\n        );\n        getToken().transfer(msg.sender, approvedOwnerPrice);\n    }\n\n    function returnBorrowed(uint256 _tokenId)\n        external\n        checkIsStaked(_tokenId)\n        checkNotTraveling(_tokenId)\n    {\n        //     \n        HERO storage hero = heroVault[_tokenId];\n        uint256 currentTime = _currentTime();\n\n        require(\n            hero.status.borrowData.borrowers == msg.sender ||\n                hero.status.owner == msg.sender,\n            \"Error : Not Owner Or Borrowers\"\n        );\n\n        require(\n            hero.status.borrowData.borrowEndTime <= currentTime,\n            \"Error : Not Borrow End TIme\"\n        );\n\n        hero.status.borrowed = false;\n        hero.status.borrowData.borrowEndTime = 0;\n        hero.status.borrowData.borrowers = address(0x0);\n    }\n\n    function mining(uint256 _tokenId)\n        external\n        checkIsStaked(_tokenId)\n        checkNotTraveling(_tokenId)\n        checkNotBorrowed(_tokenId)\n    {\n        HERO storage hero = heroVault[_tokenId];\n\n        _distributeReward();\n\n        hero.status.mining = true;\n    }\n\n    function stopMining(uint256 _tokenId)\n        external\n        checkIsStaked(_tokenId)\n        checkIsMining(_tokenId)\n    {\n        HERO storage hero = heroVault[_tokenId];\n\n        _distributeReward();\n\n        uint256 rewardAmount = hero.reward;\n        hero.reward = 0;\n\n        lastClaimTime = _currentTime();\n\n        getToken().transferFrom(miningAddress, address(this), rewardAmount);\n        getToken().transfer(msg.sender, rewardAmount);\n\n        hero.status.mining = false;\n    }\n\n    function claimMiningAmount(uint256 _tokenId)\n        external\n        checkIsStaked(_tokenId)\n        checkIsMining(_tokenId)\n    {\n        HERO storage hero = heroVault[_tokenId];\n\n        _distributeReward();\n\n        uint256 rewardAmount = hero.reward;\n        hero.reward = 0;\n\n        lastClaimTime = _currentTime();\n\n        getToken().transferFrom(miningAddress, address(this), rewardAmount);\n        getToken().transfer(msg.sender, rewardAmount);\n    }\n\n    function viewCanClaimAmount(uint256 _tokenId)\n        external\n        view\n        checkIsStaked(_tokenId)\n        returns (uint256)\n    {\n        HERO memory hero = heroVault[_tokenId];\n\n        if (!getMiningPaused()) {\n            uint256 totalPower = getHeroPower(0, true);\n            uint256 cycle = _currentTime().sub(lastClaimTime);\n            uint256 totalReward = MINING_REWARD.div(MINING_DURATION).mul(cycle);\n\n            uint256 heroPower = getHeroPower(_tokenId, false);\n            uint256 personalReward = totalReward.div(totalPower).mul(heroPower);\n\n            return hero.reward.add(personalReward);\n        }\n\n        return hero.reward;\n    }\n\n    function levelUp(uint256 _tokenId) external checkIsStaked(_tokenId) {\n        HERO storage hero = heroVault[_tokenId];\n\n        require(msg.sender == hero.status.owner, \"Error : Not TokenOwner\");\n\n        uint256 level = hero.level;\n\n        require(level < MAX_LEVEL, \"Error : Token is MaxLevel Status\");\n\n        uint256 calculatePrice = getLevelDiagram().calculateTokenAmount(\n            hero.grade,\n            level\n        );\n\n        require(\n            getToken().balanceOf(msg.sender) >= calculatePrice,\n            \"Error : Not Exough Token\"\n        );\n\n        hero.level = level.add(1);\n\n        getToken().transferFrom(msg.sender, address(this), calculatePrice);\n        getToken().transfer(getOwner(), calculatePrice);\n    }\n\n    function stake(uint256 _tokenId) external {\n        address tokenOwner = getHeroNFT().ownerOf(_tokenId);\n        HERO storage hero = heroVault[_tokenId];\n\n        require(tokenOwner == msg.sender, \"Error : Not Token Owner\");\n\n        hero.status.owner = msg.sender;\n        getHeroNFT().transferFrom(msg.sender, address(this), _tokenId);\n    }\n\n    function unStake(uint256 _tokenId)\n        external\n        checkIsStaked(_tokenId)\n        checkNotMining(_tokenId)\n        checkNotTraveling(_tokenId)\n        checkNotBorrowed(_tokenId)\n    {\n        HERO storage hero = heroVault[_tokenId];\n\n        _distributeReward();\n\n        hero.status.owner = address(0x0);\n        hero.reward = 0;\n\n        lastClaimTime = _currentTime();\n\n        getHeroNFT().transferFrom(address(this), msg.sender, _tokenId);\n    }\n\n    function burn(uint256 _tokenId) external {\n        getHeroNFT().burn(_tokenId);\n    }\n\n    // ** ineternal\n    function _mintHero() internal {\n        uint256 currentTime = _currentTime();\n        getHeroNFT().mint(msg.sender);\n\n        uint256 tokenId = getHeroNFT().getTokenIndex();\n\n        uint256 tokenIndex = getHeroNFT().getTokenIndex();\n        string memory grade = makeGrade(tokenIndex);\n\n        HERO memory newHero = HERO(\n            tokenId,\n            1,\n            grade,\n            currentTime,\n            0,\n            chcekStatus(\n                false,\n                false,\n                false,\n                address(0x0),\n                traveledStruct(address(0x0), 0),\n                borrowStruct(0, address(0x0))\n            )\n        );\n\n        heroVault[tokenIndex] = newHero;\n        heroArray.push(newHero);\n    }\n\n    function _checkUserInBorrowData(uint256 _tokenId, address _apprrovedUser)\n        internal\n        view\n        returns (bool, RequestStruct memory)\n    {\n        RequestStruct[] memory requestList = borrowRequestMap[_tokenId];\n\n        for (uint256 i = 0; i < requestList.length; i++) {\n            if (requestList[i].requestOwner == _apprrovedUser) {\n                return (true, requestList[i]);\n            }\n        }\n\n        return (false, requestList[0]);\n    }\n\n    function _returnTokenToOther(uint256 _tokenId, address _approvedOwner)\n        internal\n        returns (uint256)\n    {\n        RequestStruct[] memory requestList = borrowRequestMap[_tokenId];\n        uint256 approvedOwnerPrice = 0;\n\n        for (uint256 i = 0; i < requestList.length; i++) {\n            uint256 borrowPrice = requestList[i].duration.mul(\n                BORROW_PRICE_PER_BLOCK\n            );\n\n            address requestOwner = requestList[i].requestOwner;\n\n            if (requestOwner != _approvedOwner) {\n                getToken().transferFrom(\n                    depositAddress,\n                    address(this),\n                    borrowPrice\n                );\n                getToken().transfer(requestOwner, borrowPrice);\n            } else {\n                approvedOwnerPrice = borrowPrice;\n            }\n        }\n\n        return approvedOwnerPrice;\n    }\n\n    function _distributeReward() internal {\n        if (!getMiningPaused()) {\n            uint256 totalPower = getHeroPower(0, true);\n\n            uint256 totalSupply = getHeroNFT().getTokenIndex();\n\n            uint256 cycle = _currentTime().sub(lastClaimTime);\n            uint256 totalReward = MINING_REWARD.div(MINING_DURATION).mul(cycle);\n\n            for (uint256 i = 1; i <= totalSupply; i++) {\n                HERO storage userHero = heroVault[i];\n\n                uint256 heroPower = getHeroPower(i, false);\n\n                uint256 personalReward = totalReward.div(totalPower).mul(\n                    heroPower\n                );\n                userHero.reward = userHero.reward.add(personalReward);\n            }\n        }\n    }\n\n    function getHeroPower(uint256 _tokenId, bool total)\n        public\n        view\n        returns (uint256)\n    {\n        if (total) {\n            uint256 totalSupply = getHeroNFT().getTokenIndex();\n\n            uint256 totalPower;\n\n            for (uint256 i = 1; i <= totalSupply; i++) {\n                HERO memory userHero = heroVault[i];\n\n                if (userHero.status.mining) {\n                    totalPower = totalPower.add(\n                        getLevelDiagram().calculatePower(\n                            userHero.grade,\n                            userHero.level\n                        )\n                    );\n                }\n            }\n\n            return totalPower;\n        } else {\n            HERO memory userHero = heroVault[_tokenId];\n\n            return\n                getLevelDiagram().calculatePower(\n                    userHero.grade,\n                    userHero.level\n                );\n        }\n    }\n\n    //// **** view function\n\n    function getHeroStatus(uint256 _heroTokenId)\n        public\n        view\n        returns (HERO memory)\n    {\n        return heroVault[_heroTokenId];\n    }\n\n    function getMyTotalHeroStatus(address _user)\n        public\n        view\n        returns (HERO[] memory)\n    {\n        uint256 length = getHeroNFT().balanceOf(_user);\n\n        HERO[] memory myheroList = new HERO[](length);\n        uint256 index;\n\n        for (uint256 i = 0; i < heroArray.length; i++) {\n            HERO memory hero = heroArray[i];\n\n            uint256 tokenId = hero.tokenId;\n\n            if (getHeroNFT().ownerOf(tokenId) == _user) {\n                myheroList[index] = hero;\n                index = index.add(1);\n            }\n        }\n\n        return myheroList;\n    }\n}\n",
  "sourcePath": "/Users/yuhojin/Desktop/NFT-lendProject/Truffle/contracts/Hero/HeroCore.sol",
  "compiler": {
    "name": "solc",
    "version": "0.8.4+commit.c7e474f2.Emscripten.clang"
  },
  "schemaVersion": "3.4.3",
  "updatedAt": "2022-08-12T13:56:19.117Z",
  "devdoc": {
    "kind": "dev",
    "methods": {},
    "version": 1
  },
  "userdoc": {
    "kind": "user",
    "methods": {},
    "version": 1
  }
}