{
  "contractName": "HeroController",
  "abi": [
    {
      "inputs": [],
      "stateMutability": "nonpayable",
      "type": "constructor"
    },
    {
      "inputs": [],
      "name": "priceOfKlay",
      "outputs": [
        {
          "internalType": "uint256",
          "name": "",
          "type": "uint256"
        }
      ],
      "stateMutability": "view",
      "type": "function"
    },
    {
      "inputs": [],
      "name": "priceOfToken",
      "outputs": [
        {
          "internalType": "uint256",
          "name": "",
          "type": "uint256"
        }
      ],
      "stateMutability": "view",
      "type": "function"
    },
    {
      "inputs": [
        {
          "internalType": "address",
          "name": "_heroNFT",
          "type": "address"
        },
        {
          "internalType": "address",
          "name": "_token",
          "type": "address"
        },
        {
          "internalType": "address",
          "name": "_item",
          "type": "address"
        },
        {
          "internalType": "address",
          "name": "_levelDiagram",
          "type": "address"
        },
        {
          "internalType": "address",
          "name": "_depositAddress",
          "type": "address"
        },
        {
          "internalType": "address",
          "name": "_miningAddress",
          "type": "address"
        },
        {
          "internalType": "uint256",
          "name": "_klay",
          "type": "uint256"
        },
        {
          "internalType": "uint256",
          "name": "_tokenPrice",
          "type": "uint256"
        }
      ],
      "name": "initialize",
      "outputs": [],
      "stateMutability": "nonpayable",
      "type": "function"
    },
    {
      "inputs": [],
      "name": "changePaused",
      "outputs": [],
      "stateMutability": "nonpayable",
      "type": "function"
    },
    {
      "inputs": [],
      "name": "changeMiningPaused",
      "outputs": [],
      "stateMutability": "nonpayable",
      "type": "function"
    },
    {
      "inputs": [],
      "name": "getOwner",
      "outputs": [
        {
          "internalType": "address payable",
          "name": "",
          "type": "address"
        }
      ],
      "stateMutability": "view",
      "type": "function"
    },
    {
      "inputs": [],
      "name": "getPaused",
      "outputs": [
        {
          "internalType": "bool",
          "name": "",
          "type": "bool"
        }
      ],
      "stateMutability": "view",
      "type": "function"
    },
    {
      "inputs": [],
      "name": "getMiningPaused",
      "outputs": [
        {
          "internalType": "bool",
          "name": "",
          "type": "bool"
        }
      ],
      "stateMutability": "view",
      "type": "function"
    },
    {
      "inputs": [],
      "name": "getLevelDiagram",
      "outputs": [
        {
          "internalType": "contract ILevelDiagram",
          "name": "",
          "type": "address"
        }
      ],
      "stateMutability": "view",
      "type": "function"
    },
    {
      "inputs": [],
      "name": "getItem",
      "outputs": [
        {
          "internalType": "contract IKIP37Full",
          "name": "",
          "type": "address"
        }
      ],
      "stateMutability": "view",
      "type": "function"
    },
    {
      "inputs": [],
      "name": "getToken",
      "outputs": [
        {
          "internalType": "contract IKIP7",
          "name": "",
          "type": "address"
        }
      ],
      "stateMutability": "view",
      "type": "function"
    },
    {
      "inputs": [],
      "name": "getHeroNFT",
      "outputs": [
        {
          "internalType": "contract IHeroNFT",
          "name": "",
          "type": "address"
        }
      ],
      "stateMutability": "view",
      "type": "function"
    }
  ],
  "bytecode": "0x608060405234801561001057600080fd5b506006805461010160a01b61ffff60a01b19909116179055600480546001600160a01b0319163317905561044f806100496000396000f3fe608060405234801561001057600080fd5b50600436106100b45760003560e01c8063893d20e811610071578063893d20e8146101445780639eb4eae514610155578063c412eaba1461015f578063c740671f14610170578063d36d0c1814610183578063ee72b8cc1461019457600080fd5b80631b9cbdfb146100b957806321df0da7146100d557806328919df6146100fa5780633a1a8080146101185780636805b84b146101215780637cac00ee14610133575b600080fd5b6100c260085481565b6040519081526020015b60405180910390f35b6001546001600160a01b03165b6040516001600160a01b0390911681526020016100cc565b600654600160a81b900460ff165b60405190151581526020016100cc565b6100c260075481565b600654600160a01b900460ff16610108565b6000546001600160a01b03166100e2565b6004546001600160a01b03166100e2565b61015d61019c565b005b6002546001600160a01b03166100e2565b61015d61017e36600461032f565b6101f0565b6003546001600160a01b03166100e2565b61015d6102b5565b6004546001600160a01b031633146101cf5760405162461bcd60e51b81526004016101c6906103b7565b60405180910390fd5b6006805460ff60a01b198116600160a01b9182900460ff1615909102179055565b6004546001600160a01b0316331461021a5760405162461bcd60e51b81526004016101c6906103b7565b61022c82670de0b6b3a7640000610300565b60075561024181670de0b6b3a7640000610300565b6008555050600080546001600160a01b03199081166001600160a01b0398891617909155600180548216968816969096179095556002805486169487169490941790935560038054851692861692909217909155600580548416918516919091179055600680549092169216919091179055565b6004546001600160a01b031633146102df5760405162461bcd60e51b81526004016101c6906103b7565b6006805460ff60a81b198116600160a81b9182900460ff1615909102179055565b600061030c82846103ee565b9392505050565b80356001600160a01b038116811461032a57600080fd5b919050565b600080600080600080600080610100898b03121561034b578384fd5b61035489610313565b975061036260208a01610313565b965061037060408a01610313565b955061037e60608a01610313565b945061038c60808a01610313565b935061039a60a08a01610313565b925060c0890135915060e089013590509295985092959890939650565b6020808252601a908201527f4865726f436f7265204572726f72203a206f6e6c794f776e6572000000000000604082015260600190565b600081600019048311821515161561041457634e487b7160e01b81526011600452602481fd5b50029056fea2646970667358221220183d61c16a0078ef90685fc9000e170dbbdbfe3504444ad55b8ff366b2c1e11764736f6c63430008040033",
  "immutableReferences": {},
  "source": "// SPDX-License-Identifier: MIT\npragma solidity 0.8.4;\n\nimport \"../../utils/SafeMath.sol\";\n\nimport \"../interface/IHeroNFT.sol\";\nimport \"../interface/ILevelDiagram.sol\";\n\nimport \"../../interface/IKIP7/IKIP7.sol\";\nimport \"../../interface/IKIP37/IKIP37Full.sol\";\n\ncontract HeroController {\n    using SafeMath for *;\n\n    IHeroNFT private heroNFT;\n    IKIP7 private token;\n    IKIP37Full private item;\n    ILevelDiagram private levelDiagram;\n\n    address payable private coreOwner;\n    address depositAddress;\n    address miningAddress;\n\n    bool private paused;\n    bool private miningPaused;\n\n    uint256 public priceOfKlay;\n    uint256 public priceOfToken;\n    uint256 private constant DECIMALS = 1e18;\n\n    modifier notPaused() {\n        require(!paused, \"Paused State\");\n        _;\n    }\n\n    modifier onlyOwner() {\n        require(msg.sender == coreOwner, \"HeroCore Error : onlyOwner\");\n        _;\n    }\n\n    constructor() {\n        paused = true;\n        miningPaused = true;\n        coreOwner = payable(msg.sender);\n    }\n\n    function initialize(\n        address _heroNFT,\n        address _token,\n        address _item,\n        address _levelDiagram,\n        address _depositAddress,\n        address _miningAddress,\n        uint256 _klay,\n        uint256 _tokenPrice\n    ) external onlyOwner {\n        priceOfKlay = _klay.mul(DECIMALS);\n        priceOfToken = _tokenPrice.mul(DECIMALS);\n\n        heroNFT = IHeroNFT(_heroNFT);\n        token = IKIP7(_token);\n        item = IKIP37Full(_item);\n        levelDiagram = ILevelDiagram(_levelDiagram);\n\n        depositAddress = _depositAddress;\n        miningAddress = _miningAddress;\n    }\n\n    function changePaused() external onlyOwner {\n        paused = !paused;\n    }\n\n    function changeMiningPaused() external onlyOwner {\n        miningPaused = !miningPaused;\n    }\n\n    // **** view Function ****\n\n    function getOwner() public view returns (address payable) {\n        return coreOwner;\n    }\n\n    function getPaused() public view returns (bool) {\n        return paused;\n    }\n\n    function getMiningPaused() public view returns (bool) {\n        return miningPaused;\n    }\n\n    function getLevelDiagram() public view returns(ILevelDiagram){\n        return levelDiagram;\n    }\n\n    function getItem() public view returns (IKIP37Full) {\n        return item;\n    }\n\n    function getToken() public view returns (IKIP7) {\n        return token;\n    }\n\n    function getHeroNFT() public view returns (IHeroNFT) {\n        return heroNFT;\n    }\n\n    function _currentTime() internal view returns (uint256) {\n        return block.timestamp;\n    }\n}\n",
  "sourcePath": "/Users/yuhojin/Desktop/NFT-lendProject/Truffle/contracts/Hero/utils/HeroController.sol",
  "compiler": {
    "name": "solc",
    "version": "0.8.4+commit.c7e474f2.Emscripten.clang"
  },
  "schemaVersion": "3.4.3",
  "updatedAt": "2022-08-08T11:59:53.722Z",
  "devdoc": {
    "kind": "dev",
    "methods": {},
    "version": 1
  },
  "userdoc": {
    "kind": "user",
    "methods": {},
    "version": 1
  }
}