{
  "contractName": "KIP37",
  "abi": [
    {
      "inputs": [],
      "stateMutability": "nonpayable",
      "type": "constructor"
    },
    {
      "anonymous": false,
      "inputs": [
        {
          "indexed": true,
          "internalType": "address",
          "name": "_owner",
          "type": "address"
        },
        {
          "indexed": true,
          "internalType": "address",
          "name": "_operator",
          "type": "address"
        },
        {
          "indexed": false,
          "internalType": "bool",
          "name": "_approved",
          "type": "bool"
        }
      ],
      "name": "ApprovalForAll",
      "type": "event"
    },
    {
      "anonymous": false,
      "inputs": [
        {
          "indexed": true,
          "internalType": "address",
          "name": "_operator",
          "type": "address"
        },
        {
          "indexed": true,
          "internalType": "address",
          "name": "_from",
          "type": "address"
        },
        {
          "indexed": true,
          "internalType": "address",
          "name": "_to",
          "type": "address"
        },
        {
          "indexed": false,
          "internalType": "uint256[]",
          "name": "_ids",
          "type": "uint256[]"
        },
        {
          "indexed": false,
          "internalType": "uint256[]",
          "name": "_values",
          "type": "uint256[]"
        }
      ],
      "name": "TransferBatch",
      "type": "event"
    },
    {
      "anonymous": false,
      "inputs": [
        {
          "indexed": true,
          "internalType": "address",
          "name": "_operator",
          "type": "address"
        },
        {
          "indexed": true,
          "internalType": "address",
          "name": "_from",
          "type": "address"
        },
        {
          "indexed": true,
          "internalType": "address",
          "name": "_to",
          "type": "address"
        },
        {
          "indexed": false,
          "internalType": "uint256",
          "name": "_id",
          "type": "uint256"
        },
        {
          "indexed": false,
          "internalType": "uint256",
          "name": "_value",
          "type": "uint256"
        }
      ],
      "name": "TransferSingle",
      "type": "event"
    },
    {
      "anonymous": false,
      "inputs": [
        {
          "indexed": false,
          "internalType": "string",
          "name": "_value",
          "type": "string"
        },
        {
          "indexed": true,
          "internalType": "uint256",
          "name": "_id",
          "type": "uint256"
        }
      ],
      "name": "URI",
      "type": "event"
    },
    {
      "inputs": [
        {
          "internalType": "bytes4",
          "name": "interfaceId",
          "type": "bytes4"
        }
      ],
      "name": "supportsInterface",
      "outputs": [
        {
          "internalType": "bool",
          "name": "",
          "type": "bool"
        }
      ],
      "stateMutability": "view",
      "type": "function"
    },
    {
      "inputs": [
        {
          "internalType": "uint256",
          "name": "_id",
          "type": "uint256"
        }
      ],
      "name": "totalSupply",
      "outputs": [
        {
          "internalType": "uint256",
          "name": "",
          "type": "uint256"
        }
      ],
      "stateMutability": "view",
      "type": "function"
    },
    {
      "inputs": [
        {
          "internalType": "uint256",
          "name": "_tokenId",
          "type": "uint256"
        }
      ],
      "name": "uri",
      "outputs": [
        {
          "internalType": "string",
          "name": "",
          "type": "string"
        }
      ],
      "stateMutability": "view",
      "type": "function"
    },
    {
      "inputs": [
        {
          "internalType": "address",
          "name": "owner",
          "type": "address"
        },
        {
          "internalType": "uint256",
          "name": "id",
          "type": "uint256"
        }
      ],
      "name": "balanceOf",
      "outputs": [
        {
          "internalType": "uint256",
          "name": "",
          "type": "uint256"
        }
      ],
      "stateMutability": "view",
      "type": "function"
    },
    {
      "inputs": [
        {
          "internalType": "address[]",
          "name": "owners",
          "type": "address[]"
        },
        {
          "internalType": "uint256[]",
          "name": "ids",
          "type": "uint256[]"
        }
      ],
      "name": "balanceOfBatch",
      "outputs": [
        {
          "internalType": "uint256[]",
          "name": "",
          "type": "uint256[]"
        }
      ],
      "stateMutability": "view",
      "type": "function"
    },
    {
      "inputs": [
        {
          "internalType": "address",
          "name": "operator",
          "type": "address"
        },
        {
          "internalType": "bool",
          "name": "approved",
          "type": "bool"
        }
      ],
      "name": "setApprovalForAll",
      "outputs": [],
      "stateMutability": "nonpayable",
      "type": "function"
    },
    {
      "inputs": [
        {
          "internalType": "address",
          "name": "owner",
          "type": "address"
        },
        {
          "internalType": "address",
          "name": "operator",
          "type": "address"
        }
      ],
      "name": "isApprovedForAll",
      "outputs": [
        {
          "internalType": "bool",
          "name": "",
          "type": "bool"
        }
      ],
      "stateMutability": "view",
      "type": "function"
    },
    {
      "inputs": [
        {
          "internalType": "address",
          "name": "from",
          "type": "address"
        },
        {
          "internalType": "address",
          "name": "to",
          "type": "address"
        },
        {
          "internalType": "uint256",
          "name": "id",
          "type": "uint256"
        },
        {
          "internalType": "uint256",
          "name": "amount",
          "type": "uint256"
        },
        {
          "internalType": "bytes",
          "name": "data",
          "type": "bytes"
        }
      ],
      "name": "safeTransferFrom",
      "outputs": [],
      "stateMutability": "nonpayable",
      "type": "function"
    },
    {
      "inputs": [
        {
          "internalType": "address",
          "name": "from",
          "type": "address"
        },
        {
          "internalType": "address",
          "name": "to",
          "type": "address"
        },
        {
          "internalType": "uint256[]",
          "name": "ids",
          "type": "uint256[]"
        },
        {
          "internalType": "uint256[]",
          "name": "amounts",
          "type": "uint256[]"
        },
        {
          "internalType": "bytes",
          "name": "data",
          "type": "bytes"
        }
      ],
      "name": "safeBatchTransferFrom",
      "outputs": [],
      "stateMutability": "nonpayable",
      "type": "function"
    }
  ],
  "bytecode": "0x608060405234801561001057600080fd5b506114af806100206000396000f3fe608060405234801561001057600080fd5b50600436106100925760003560e01c80634e1273f4116100665780634e1273f414610115578063a22cb46514610135578063bd85b03914610148578063e985e9c51461015b578063f242432a1461016e57610092565b8062fdd58e1461009757806301ffc9a7146100c05780630e89341c146100e05780632eb2c2d614610100575b600080fd5b6100aa6100a5366004610df8565b610181565b6040516100b79190611361565b60405180910390f35b6100d36100ce366004610edf565b6101d8565b6040516100b7919061109f565b6100f36100ee366004610f1e565b610220565b6040516100b791906110aa565b61011361010e366004610cb5565b6102c2565b005b610128610123366004610e21565b610320565b6040516100b7919061105e565b610113610143366004610dbe565b610440565b6100aa610156366004610f1e565b610456565b6100d3610169366004610c83565b610468565b61011361017c366004610d5b565b610496565b60006001600160a01b0383166101b25760405162461bcd60e51b81526004016101a9906110bd565b60405180910390fd5b506000908152602081815260408083206001600160a01b03949094168352929052205490565b60006001600160e01b03198216636433ca1f60e01b148061020957506001600160e01b031982166303a24d0760e21b145b806102185750610218826104ed565b90505b919050565b600081815260026020526040902080546060919061023d906113de565b80601f0160208091040260200160405190810160405280929190818152602001828054610269906113de565b80156102b65780601f1061028b576101008083540402835291602001916102b6565b820191906000526020600020905b81548152906001019060200180831161029957829003601f168201915b50505050509050919050565b6102ca610506565b6001600160a01b0316856001600160a01b031614806102f057506102f085610169610506565b61030c5760405162461bcd60e51b81526004016101a9906111f8565b610319858585858561050a565b5050505050565b606081518351146103435760405162461bcd60e51b81526004016101a990611105565b6000835167ffffffffffffffff81111561036d57634e487b7160e01b600052604160045260246000fd5b604051908082528060200260200182016040528015610396578160200160208202803683370190505b50905060005b8451811015610438576103fd8582815181106103c857634e487b7160e01b600052603260045260246000fd5b60200260200101518583815181106103f057634e487b7160e01b600052603260045260246000fd5b6020026020010151610181565b82828151811061041d57634e487b7160e01b600052603260045260246000fd5b602090810291909101015261043181611419565b905061039c565b509392505050565b61045261044b610506565b83836106e9565b5050565b60009081526003602052604090205490565b6001600160a01b03918216600090815260016020908152604080832093909416825291909152205460ff1690565b61049e610506565b6001600160a01b0316856001600160a01b031614806104c457506104c485610169610506565b6104e05760405162461bcd60e51b81526004016101a9906112d7565b610319858585858561078c565b6001600160e01b031981166301ffc9a760e01b14919050565b3390565b815183511461052b5760405162461bcd60e51b81526004016101a9906111b2565b6001600160a01b0384166105515760405162461bcd60e51b81526004016101a99061131e565b600061055b610506565b905061056b8187878787876106e1565b60005b845181101561066d57600085828151811061059957634e487b7160e01b600052603260045260246000fd5b6020026020010151905060008583815181106105c557634e487b7160e01b600052603260045260246000fd5b602090810291909101810151600084815280835260408082206001600160a01b038e1683529093529190912054909150818110156106155760405162461bcd60e51b81526004016101a990611248565b6000838152602081815260408083206001600160a01b038e8116855292528083208585039055908b168252812080548492906106529084906113c6565b925050819055505050508061066690611419565b905061056e565b50846001600160a01b0316866001600160a01b0316826001600160a01b03167f4a39dc06d4c0dbc64b70af90fd698a233a518aa5d07e595d983b8c0526c8f7fb87876040516106bd929190611071565b60405180910390a46106d38187878787876106e1565b6106e18187878787876108e9565b505050505050565b816001600160a01b0316836001600160a01b0316141561071b5760405162461bcd60e51b81526004016101a990611290565b6001600160a01b0383811660008181526001602090815260408083209487168084529490915290819020805460ff1916851515179055517f17307eab39ab6107e8899845ad3d59bd9653f200f220920489ca2b5937696c319061077f90859061109f565b60405180910390a3505050565b6001600160a01b0384166107b25760405162461bcd60e51b81526004016101a99061131e565b60006107bc610506565b905060006107c985610913565b905060006107d685610913565b90506107e68389898585896106e1565b6000868152602081815260408083206001600160a01b038c168452909152902054858110156108275760405162461bcd60e51b81526004016101a990611248565b6000878152602081815260408083206001600160a01b038d8116855292528083208985039055908a168252812080548892906108649084906113c6565b92505081905550876001600160a01b0316896001600160a01b0316856001600160a01b03167fc3d58168c5ae7397731d063d5bbf3d657854427343f4c083240f7aacaa2d0f628a8a6040516108ba92919061136a565b60405180910390a46108d0848a8a86868a6106e1565b6108de848a8a8a8a8a61096c565b505050505050505050565b6108f786868686868661097a565b6106e15760405162461bcd60e51b81526004016101a99061114a565b6040805160018082528183019092526060916000919060208083019080368337019050509050828160008151811061095b57634e487b7160e01b600052603260045260246000fd5b602090810291909101015292915050565b6108f7868686868686610a85565b600061098e856001600160a01b0316610b64565b15610a7757604051634da4f19960e11b81526001600160a01b03861690639b49e332906109c7908a908a90899089908990600401610fbb565b602060405180830381600087803b1580156109e157600080fd5b505af1925050508015610a11575060408051601f3d908101601f19168201909252610a0e91810190610f02565b60015b610a5d573d808015610a3f576040519150601f19603f3d011682016040523d82523d6000602084013e610a44565b606091505b508051610a55576000915050610a7b565b805181602001fd5b6001600160e01b031916634da4f19960e11b149050610a7b565b5060015b9695505050505050565b6000610a99856001600160a01b0316610b64565b15610a775760405163e78b332560e01b81526001600160a01b0386169063e78b332590610ad2908a908a90899089908990600401611019565b602060405180830381600087803b158015610aec57600080fd5b505af1925050508015610b1c575060408051601f3d908101601f19168201909252610b1991810190610f02565b60015b610b4a573d808015610a3f576040519150601f19603f3d011682016040523d82523d6000602084013e610a44565b6001600160e01b03191663e78b332560e01b149050610a7b565b600080826001600160a01b0316803b806020016040519081016040528181526000908060200190933c511192915050565b80356001600160a01b038116811461021b57600080fd5b600082601f830112610bbc578081fd5b81356020610bd1610bcc836113a2565b611378565b8281528181019085830183850287018401881015610bed578586fd5b855b85811015610c0b57813584529284019290840190600101610bef565b5090979650505050505050565b600082601f830112610c28578081fd5b813567ffffffffffffffff811115610c4257610c4261144a565b610c55601f8201601f1916602001611378565b818152846020838601011115610c69578283fd5b816020850160208301379081016020019190915292915050565b60008060408385031215610c95578182fd5b610c9e83610b95565b9150610cac60208401610b95565b90509250929050565b600080600080600060a08688031215610ccc578081fd5b610cd586610b95565b9450610ce360208701610b95565b9350604086013567ffffffffffffffff80821115610cff578283fd5b610d0b89838a01610bac565b94506060880135915080821115610d20578283fd5b610d2c89838a01610bac565b93506080880135915080821115610d41578283fd5b50610d4e88828901610c18565b9150509295509295909350565b600080600080600060a08688031215610d72578081fd5b610d7b86610b95565b9450610d8960208701610b95565b93506040860135925060608601359150608086013567ffffffffffffffff811115610db2578182fd5b610d4e88828901610c18565b60008060408385031215610dd0578182fd5b610dd983610b95565b915060208301358015158114610ded578182fd5b809150509250929050565b60008060408385031215610e0a578182fd5b610e1383610b95565b946020939093013593505050565b60008060408385031215610e33578182fd5b823567ffffffffffffffff80821115610e4a578384fd5b818501915085601f830112610e5d578384fd5b81356020610e6d610bcc836113a2565b82815281810190858301838502870184018b1015610e89578889fd5b8896505b84871015610eb257610e9e81610b95565b835260019690960195918301918301610e8d565b5096505086013592505080821115610ec8578283fd5b50610ed585828601610bac565b9150509250929050565b600060208284031215610ef0578081fd5b8135610efb81611460565b9392505050565b600060208284031215610f13578081fd5b8151610efb81611460565b600060208284031215610f2f578081fd5b5035919050565b6000815180845260208085019450808401835b83811015610f6557815187529582019590820190600101610f49565b509495945050505050565b60008151808452815b81811015610f9557602081850181015186830182015201610f79565b81811115610fa65782602083870101525b50601f01601f19169290920160200192915050565b6001600160a01b0386811682528516602082015260a060408201819052600090610fe790830186610f36565b8281036060840152610ff98186610f36565b9050828103608084015261100d8185610f70565b98975050505050505050565b6001600160a01b03868116825285166020820152604081018490526060810183905260a06080820181905260009061105390830184610f70565b979650505050505050565b600060208252610efb6020830184610f36565b6000604082526110846040830185610f36565b82810360208401526110968185610f36565b95945050505050565b901515815260200190565b600060208252610efb6020830184610f70565b60208082526028908201527f4b495033373a2061646472657373207a65726f206973206e6f7420612076616c60408201526734b21037bbb732b960c11b606082015260800190565b60208082526025908201527f4b495033373a206f776e65727320616e6420696473206c656e677468206d69736040820152640dac2e8c6d60db1b606082015260800190565b60208082526042908201527f4b495033373a207472616e7366657220746f206e6f6e20494b4950333752656360408201527f65697665722f4945524331313535526563656976657220696d706c656d656e7460608201526132b960f11b608082015260a00190565b60208082526026908201527f4b495033373a2069647320616e6420616d6f756e7473206c656e677468206d696040820152650e6dac2e8c6d60d31b606082015260800190565b60208082526030908201527f4b495033373a207472616e736665722063616c6c6572206973206e6f74206f7760408201526f1b995c881b9bdc88185c1c1c9bdd995960821b606082015260800190565b60208082526028908201527f4b495033373a20696e73756666696369656e742062616c616e636520666f72206040820152673a3930b739b332b960c11b606082015260800190565b60208082526027908201527f4b495033373a2073657474696e6720617070726f76616c20737461747573206660408201526637b91039b2b63360c91b606082015260800190565b60208082526027908201527f4b495033373a2063616c6c6572206973206e6f74206f776e6572206e6f7220616040820152661c1c1c9bdd995960ca1b606082015260800190565b60208082526023908201527f4b495033373a207472616e7366657220746f20746865207a65726f206164647260408201526265737360e81b606082015260800190565b90815260200190565b918252602082015260400190565b60405181810167ffffffffffffffff8111828210171561139a5761139a61144a565b604052919050565b600067ffffffffffffffff8211156113bc576113bc61144a565b5060209081020190565b600082198211156113d9576113d9611434565b500190565b6002810460018216806113f257607f821691505b6020821081141561141357634e487b7160e01b600052602260045260246000fd5b50919050565b600060001982141561142d5761142d611434565b5060010190565b634e487b7160e01b600052601160045260246000fd5b634e487b7160e01b600052604160045260246000fd5b6001600160e01b03198116811461147657600080fd5b5056fea26469706673582212206d0c812a56aa47024c8ee818ade663ef6346d45a6b91cc39edaabf410fd4fc8964736f6c63430008000033",
  "immutableReferences": {},
  "source": "// SPDX-License-Identifier: MIT\npragma solidity ^0.8.0;\n\nimport \"./IKIP37.sol\";\nimport \"./IKIP37Receiver.sol\";\nimport \"./IKIP37MetadataURI.sol\";\n\nimport \"../../utils/Address.sol\";\nimport \"../../utils/Context.sol\";\nimport \"../KIP13.sol\";\n\n/**\n * @dev Implementation of the basic standard multi-token.\n * See http://kips.klaytn.com/KIPs/kip-37\n * Originally based on code by Enjin: https://github.com/enjin/erc-1155\n *\n */\ncontract KIP37 is Context, KIP13, IKIP37, IKIP37MetadataURI {\n    using Address for address;\n\n    // Mapping from token ID to account balances\n    mapping(uint256 => mapping(address => uint256)) private _balances;\n\n    // Mapping from account to operator approvals\n    mapping(address => mapping(address => bool)) private _operatorApprovals;\n\n    // Used as the URI for all token types by relying on ID substitution, e.g. https://token-cdn-domain/{id}.json\n    mapping(uint256 => string) _uri;\n\n    mapping(uint256 => uint256) private supply;\n\n    /**\n     * @dev See {_setURI}.\n     */\n    constructor() {}\n\n    /**\n     * @dev See {IKIP13-supportsInterface}.\n     */\n\n    function supportsInterface(bytes4 interfaceId)\n        public\n        view\n        virtual\n        override(KIP13, IKIP13)\n        returns (bool)\n    {\n        return\n            interfaceId == type(IKIP37).interfaceId ||\n            interfaceId == type(IKIP37MetadataURI).interfaceId ||\n            KIP13.supportsInterface(interfaceId);\n    }\n\n    function totalSupply(uint256 _id) external view override returns (uint256) {\n        return supply[_id];\n    }\n\n    /**\n     * @dev See {IKIP37Metadata-uri}.\n     *\n     * This implementation returns the same URI for *all* token types. It relies\n     * on the token type ID substitution mechanism\n     * http://kips.klaytn.com/KIPs/kip-37#metadata-extension[defined in the KIP].\n     *\n     * Clients calling this function must replace the `\\{id\\}` substring with the\n     * actual token type ID.\n     */\n    function uri(uint256 _tokenId)\n        public\n        view\n        virtual\n        override\n        returns (string memory)\n    {\n        return _uri[_tokenId];\n    }\n\n    /**\n     * @dev See {IKIP37-balanceOf}.\n     *\n     * Requirements:\n     *\n     * - `owner` cannot be the zero address.\n     */\n    function balanceOf(address owner, uint256 id)\n        public\n        view\n        virtual\n        override\n        returns (uint256)\n    {\n        require(\n            owner != address(0),\n            \"KIP37: address zero is not a valid owner\"\n        );\n        return _balances[id][owner];\n    }\n\n    /**\n     * @dev See {IKIP37-balanceOfBatch}.\n     *\n     * Requirements:\n     *\n     * - `owners` and `ids` must have the same length.\n     */\n    function balanceOfBatch(address[] memory owners, uint256[] memory ids)\n        public\n        view\n        virtual\n        override\n        returns (uint256[] memory)\n    {\n        require(\n            owners.length == ids.length,\n            \"KIP37: owners and ids length mismatch\"\n        );\n\n        uint256[] memory batchBalances = new uint256[](owners.length);\n\n        for (uint256 i = 0; i < owners.length; ++i) {\n            batchBalances[i] = balanceOf(owners[i], ids[i]);\n        }\n\n        return batchBalances;\n    }\n\n    /**\n     * @dev See {IKIP37-setApprovalForAll}.\n     */\n    function setApprovalForAll(address operator, bool approved)\n        public\n        virtual\n        override\n    {\n        _setApprovalForAll(_msgSender(), operator, approved);\n    }\n\n    /**\n     * @dev See {IKIP37-isApprovedForAll}.\n     */\n    function isApprovedForAll(address owner, address operator)\n        public\n        view\n        virtual\n        override\n        returns (bool)\n    {\n        return _operatorApprovals[owner][operator];\n    }\n\n    /**\n     * @dev See {IKIP37-safeTransferFrom}.\n     */\n    function safeTransferFrom(\n        address from,\n        address to,\n        uint256 id,\n        uint256 amount,\n        bytes memory data\n    ) public virtual override {\n        require(\n            from == _msgSender() || isApprovedForAll(from, _msgSender()),\n            \"KIP37: caller is not owner nor approved\"\n        );\n        _safeTransferFrom(from, to, id, amount, data);\n    }\n\n    /**\n     * @dev See {IKIP37-safeBatchTransferFrom}.\n     */\n    function safeBatchTransferFrom(\n        address from,\n        address to,\n        uint256[] memory ids,\n        uint256[] memory amounts,\n        bytes memory data\n    ) public virtual override {\n        require(\n            from == _msgSender() || isApprovedForAll(from, _msgSender()),\n            \"KIP37: transfer caller is not owner nor approved\"\n        );\n        _safeBatchTransferFrom(from, to, ids, amounts, data);\n    }\n\n    /**\n     * @dev Transfers `amount` tokens of token type `id` from `from` to `to`.\n     *\n     * Emits a {TransferSingle} event.\n     *\n     * Requirements:\n     *\n     * - `to` cannot be the zero address.\n     * - `from` must have a balance of tokens of type `id` of at least `amount`.\n     * - If `to` refers to a smart contract, it must implement {IKIP37Receiver-onKIP37Received} and return the\n     * acceptance magic amount.\n     */\n    function _safeTransferFrom(\n        address from,\n        address to,\n        uint256 id,\n        uint256 amount,\n        bytes memory data\n    ) internal virtual {\n        require(to != address(0), \"KIP37: transfer to the zero address\");\n\n        address operator = _msgSender();\n        uint256[] memory ids = _asSingletonArray(id);\n        uint256[] memory amounts = _asSingletonArray(amount);\n\n        _beforeTokenTransfer(operator, from, to, ids, amounts, data);\n\n        uint256 fromBalance = _balances[id][from];\n        require(\n            fromBalance >= amount,\n            \"KIP37: insufficient balance for transfer\"\n        );\n        unchecked {\n            _balances[id][from] = fromBalance - amount;\n        }\n        _balances[id][to] += amount;\n\n        emit TransferSingle(operator, from, to, id, amount);\n\n        _afterTokenTransfer(operator, from, to, ids, amounts, data);\n\n        _doSafeTransferAcceptanceCheck(operator, from, to, id, amount, data);\n    }\n\n    /**\n     * @dev xref:ROOT:kip37.adoc#batch-operations[Batched] version of {_safeTransferFrom}.\n     *\n     * Emits a {TransferBatch} event.\n     *\n     * Requirements:\n     *\n     * - If `to` refers to a smart contract, it must implement {IKIP37Receiver-onKIP37BatchReceived} and return the\n     * acceptance magic amount.\n     */\n    function _safeBatchTransferFrom(\n        address from,\n        address to,\n        uint256[] memory ids,\n        uint256[] memory amounts,\n        bytes memory data\n    ) internal virtual {\n        require(\n            ids.length == amounts.length,\n            \"KIP37: ids and amounts length mismatch\"\n        );\n        require(to != address(0), \"KIP37: transfer to the zero address\");\n\n        address operator = _msgSender();\n\n        _beforeTokenTransfer(operator, from, to, ids, amounts, data);\n\n        for (uint256 i = 0; i < ids.length; ++i) {\n            uint256 id = ids[i];\n            uint256 amount = amounts[i];\n\n            uint256 fromBalance = _balances[id][from];\n            require(\n                fromBalance >= amount,\n                \"KIP37: insufficient balance for transfer\"\n            );\n            unchecked {\n                _balances[id][from] = fromBalance - amount;\n            }\n            _balances[id][to] += amount;\n        }\n\n        emit TransferBatch(operator, from, to, ids, amounts);\n\n        _afterTokenTransfer(operator, from, to, ids, amounts, data);\n\n        _doSafeBatchTransferAcceptanceCheck(\n            operator,\n            from,\n            to,\n            ids,\n            amounts,\n            data\n        );\n    }\n\n    /**\n     * @dev Sets a new URI for all token types, by relying on the token type ID\n     * substitution mechanism\n     * http://kips.klaytn.com/KIPs/kip-37#metadata-extension[defined in the KIP].\n     *\n     * By this mechanism, any occurrence of the `\\{id\\}` substring in either the\n     * URI or any of the amounts in the JSON file at said URI will be replaced by\n     * clients with the token type ID.\n     *\n     * For example, the `https://token-cdn-domain/\\{id\\}.json` URI would be\n     * interpreted by clients as\n     * `https://token-cdn-domain/000000000000000000000000000000000000000000000000000000000004cce0.json`\n     * for token type ID 0x4cce0.\n     *\n     * See {uri}.\n     *\n     * Because these URIs cannot be meaningfully represented by the {URI} event,\n     * this function emits no events.\n     */\n    function _setURI(uint256 _tokenId, string memory newuri) internal virtual {\n        _uri[_tokenId] = newuri;\n    }\n\n    /**\n     * @dev Creates `amount` tokens of token type `id`, and assigns them to `to`.\n     *\n     * Emits a {TransferSingle} event.\n     *\n     * Requirements:\n     *\n     * - `to` cannot be the zero address.\n     * - If `to` refers to a smart contract, it must implement {IKIP37Receiver-onKIP37Received} and return the\n     * acceptance magic amount.\n     */\n    function _mint(\n        address to,\n        uint256 id,\n        uint256 amount,\n        bytes memory data\n    ) internal virtual {\n        require(to != address(0), \"KIP37: mint to the zero address\");\n\n        address operator = _msgSender();\n        uint256[] memory ids = _asSingletonArray(id);\n        uint256[] memory amounts = _asSingletonArray(amount);\n\n        _beforeTokenTransfer(operator, address(0), to, ids, amounts, data);\n\n        _balances[id][to] += amount;\n\n        supply[id] += amount;\n\n        emit TransferSingle(operator, address(0), to, id, amount);\n\n        _afterTokenTransfer(operator, address(0), to, ids, amounts, data);\n\n        _doSafeTransferAcceptanceCheck(\n            operator,\n            address(0),\n            to,\n            id,\n            amount,\n            data\n        );\n    }\n\n    /**\n     * @dev xref:ROOT:kip37.adoc#batch-operations[Batched] version of {_mint}.\n     *\n     * Requirements:\n     *\n     * - `ids` and `amounts` must have the same length.\n     * - If `to` refers to a smart contract, it must implement {IKIP37Receiver-onKIP37BatchReceived} and return the\n     * acceptance magic amount.\n     */\n    function _mintBatch(\n        address to,\n        uint256[] memory ids,\n        uint256[] memory amounts,\n        bytes memory data\n    ) internal virtual {\n        require(to != address(0), \"KIP37: mint to the zero address\");\n        require(\n            ids.length == amounts.length,\n            \"KIP37: ids and amounts length mismatch\"\n        );\n\n        address operator = _msgSender();\n\n        _beforeTokenTransfer(operator, address(0), to, ids, amounts, data);\n\n        for (uint256 i = 0; i < ids.length; i++) {\n            _balances[ids[i]][to] += amounts[i];\n            supply[ids[i]] += amounts[i];\n        }\n\n        emit TransferBatch(operator, address(0), to, ids, amounts);\n\n        _afterTokenTransfer(operator, address(0), to, ids, amounts, data);\n\n        _doSafeBatchTransferAcceptanceCheck(\n            operator,\n            address(0),\n            to,\n            ids,\n            amounts,\n            data\n        );\n    }\n\n    /**\n     * @dev Destroys `amount` tokens of token type `id` from `from`\n     *\n     * Requirements:\n     *\n     * - `from` cannot be the zero address.\n     * - `from` must have at least `amount` tokens of token type `id`.\n     */\n    function _burn(\n        address from,\n        uint256 id,\n        uint256 amount\n    ) internal virtual {\n        require(from != address(0), \"KIP37: burn from the zero address\");\n\n        address operator = _msgSender();\n        uint256[] memory ids = _asSingletonArray(id);\n        uint256[] memory amounts = _asSingletonArray(amount);\n\n        _beforeTokenTransfer(operator, from, address(0), ids, amounts, \"\");\n\n        uint256 fromBalance = _balances[id][from];\n        require(fromBalance >= amount, \"KIP37: burn amount exceeds balance\");\n        unchecked {\n            _balances[id][from] = fromBalance - amount;\n        }\n\n        supply[id] -= amount;\n\n        emit TransferSingle(operator, from, address(0), id, amount);\n\n        _afterTokenTransfer(operator, from, address(0), ids, amounts, \"\");\n    }\n\n    /**\n     * @dev xref:ROOT:kip37.adoc#batch-operations[Batched] version of {_burn}.\n     *\n     * Requirements:\n     *\n     * - `ids` and `amounts` must have the same length.\n     */\n    function _burnBatch(\n        address from,\n        uint256[] memory ids,\n        uint256[] memory amounts\n    ) internal virtual {\n        require(from != address(0), \"KIP37: burn from the zero address\");\n        require(\n            ids.length == amounts.length,\n            \"KIP37: ids and amounts length mismatch\"\n        );\n\n        address operator = _msgSender();\n\n        _beforeTokenTransfer(operator, from, address(0), ids, amounts, \"\");\n\n        for (uint256 i = 0; i < ids.length; i++) {\n            uint256 id = ids[i];\n            uint256 amount = amounts[i];\n\n            uint256 fromBalance = _balances[id][from];\n            require(\n                fromBalance >= amount,\n                \"KIP37: burn amount exceeds balance\"\n            );\n            unchecked {\n                _balances[id][from] = fromBalance - amount;\n            }\n\n            supply[ids[i]] -= amounts[i];\n        }\n\n        emit TransferBatch(operator, from, address(0), ids, amounts);\n\n        _afterTokenTransfer(operator, from, address(0), ids, amounts, \"\");\n    }\n\n    /**\n     * @dev Approve `operator` to operate on all of `owner` tokens\n     *\n     * Emits a {ApprovalForAll} event.\n     */\n    function _setApprovalForAll(\n        address owner,\n        address operator,\n        bool approved\n    ) internal virtual {\n        require(owner != operator, \"KIP37: setting approval status for self\");\n        _operatorApprovals[owner][operator] = approved;\n        emit ApprovalForAll(owner, operator, approved);\n    }\n\n    /**\n     * @dev Hook that is called before any token transfer. This includes minting\n     * and burning, as well as batched variants.\n     *\n     * The same hook is called on both single and batched variants. For single\n     * transfers, the length of the `id` and `amount` arrays will be 1.\n     *\n     * Calling conditions (for each `id` and `amount` pair):\n     *\n     * - When `from` and `to` are both non-zero, `amount` of ``from``'s tokens\n     * of token type `id` will be  transferred to `to`.\n     * - When `from` is zero, `amount` tokens of token type `id` will be minted\n     * for `to`.\n     * - when `to` is zero, `amount` of ``from``'s tokens of token type `id`\n     * will be burned.\n     * - `from` and `to` are never both zero.\n     * - `ids` and `amounts` have the same, non-zero length.\n     *\n     * To learn more about hooks, head to xref:ROOT:extending-contracts.adoc#using-hooks[Using Hooks].\n     */\n    function _beforeTokenTransfer(\n        address operator,\n        address from,\n        address to,\n        uint256[] memory ids,\n        uint256[] memory amounts,\n        bytes memory data\n    ) internal virtual {}\n\n    /**\n     * @dev Hook that is called after any token transfer. This includes minting\n     * and burning, as well as batched variants.\n     *\n     * The same hook is called on both single and batched variants. For single\n     * transfers, the length of the `id` and `amount` arrays will be 1.\n     *\n     * Calling conditions (for each `id` and `amount` pair):\n     *\n     * - When `from` and `to` are both non-zero, `amount` of ``from``'s tokens\n     * of token type `id` will be  transferred to `to`.\n     * - When `from` is zero, `amount` tokens of token type `id` will be minted\n     * for `to`.\n     * - when `to` is zero, `amount` of ``from``'s tokens of token type `id`\n     * will be burned.\n     * - `from` and `to` are never both zero.\n     * - `ids` and `amounts` have the same, non-zero length.\n     *\n     * To learn more about hooks, head to xref:ROOT:extending-contracts.adoc#using-hooks[Using Hooks].\n     */\n    function _afterTokenTransfer(\n        address operator,\n        address from,\n        address to,\n        uint256[] memory ids,\n        uint256[] memory amounts,\n        bytes memory data\n    ) internal virtual {}\n\n    function _doSafeTransferAcceptanceCheck(\n        address operator,\n        address from,\n        address to,\n        uint256 id,\n        uint256 amount,\n        bytes memory data\n    ) private {\n        require(\n            _checkOnKIP37Received(operator, from, to, id, amount, data),\n            \"KIP37: transfer to non IKIP37Receiver/IERC1155Receiver implementer\"\n        );\n    }\n\n    function _doSafeBatchTransferAcceptanceCheck(\n        address operator,\n        address from,\n        address to,\n        uint256[] memory ids,\n        uint256[] memory amounts,\n        bytes memory data\n    ) private {\n        require(\n            _checkOnKIP37BatchReceived(operator, from, to, ids, amounts, data),\n            \"KIP37: transfer to non IKIP37Receiver/IERC1155Receiver implementer\"\n        );\n    }\n\n    function _asSingletonArray(uint256 element)\n        private\n        pure\n        returns (uint256[] memory)\n    {\n        uint256[] memory array = new uint256[](1);\n        array[0] = element;\n\n        return array;\n    }\n\n    function _checkOnKIP37Received(\n        address operator,\n        address from,\n        address to,\n        uint256 id,\n        uint256 amount,\n        bytes memory data\n    ) private returns (bool) {\n        if (to.isContract()) {\n            try\n                IKIP37Receiver(to).onKIP37Received(\n                    operator,\n                    from,\n                    id,\n                    amount,\n                    data\n                )\n            returns (bytes4 retval) {\n                return retval == IKIP37Receiver.onKIP37Received.selector;\n            } catch (bytes memory reason) {\n                if (reason.length == 0) {\n                    return false;\n                } else {\n                    assembly {\n                        revert(add(32, reason), mload(reason))\n                    }\n                }\n            }\n        } else {\n            return true;\n        }\n    }\n\n    function _checkOnKIP37BatchReceived(\n        address operator,\n        address from,\n        address to,\n        uint256[] memory ids,\n        uint256[] memory amounts,\n        bytes memory data\n    ) private returns (bool) {\n        if (to.isContract()) {\n            try\n                IKIP37Receiver(to).onKIP37BatchReceived(\n                    operator,\n                    from,\n                    ids,\n                    amounts,\n                    data\n                )\n            returns (bytes4 retval) {\n                return retval == IKIP37Receiver.onKIP37BatchReceived.selector;\n            } catch (bytes memory reason) {\n                if (reason.length == 0) {\n                    return false;\n                } else {\n                    assembly {\n                        revert(add(32, reason), mload(reason))\n                    }\n                }\n            }\n        } else {\n            return true;\n        }\n    }\n}\n",
  "sourcePath": "/Users/yuhojin/Desktop/NFT-lendProject/truffle/contracts/interface/IKIP37/KIP37.sol",
  "compiler": {
    "name": "solc",
    "version": "0.8.0+commit.c7dfd78e.Emscripten.clang"
  },
  "schemaVersion": "3.1.0",
  "updatedAt": "2022-07-28T12:24:02.191Z",
  "devdoc": {
    "details": "Implementation of the basic standard multi-token. See http://kips.klaytn.com/KIPs/kip-37 Originally based on code by Enjin: https://github.com/enjin/erc-1155",
    "kind": "dev",
    "methods": {
      "balanceOf(address,uint256)": {
        "details": "See {IKIP37-balanceOf}. Requirements: - `owner` cannot be the zero address."
      },
      "balanceOfBatch(address[],uint256[])": {
        "details": "See {IKIP37-balanceOfBatch}. Requirements: - `owners` and `ids` must have the same length."
      },
      "constructor": {
        "details": "See {_setURI}."
      },
      "isApprovedForAll(address,address)": {
        "details": "See {IKIP37-isApprovedForAll}."
      },
      "safeBatchTransferFrom(address,address,uint256[],uint256[],bytes)": {
        "details": "See {IKIP37-safeBatchTransferFrom}."
      },
      "safeTransferFrom(address,address,uint256,uint256,bytes)": {
        "details": "See {IKIP37-safeTransferFrom}."
      },
      "setApprovalForAll(address,bool)": {
        "details": "See {IKIP37-setApprovalForAll}."
      },
      "supportsInterface(bytes4)": {
        "details": "See {IKIP13-supportsInterface}."
      },
      "uri(uint256)": {
        "details": "See {IKIP37Metadata-uri}. This implementation returns the same URI for *all* token types. It relies on the token type ID substitution mechanism http://kips.klaytn.com/KIPs/kip-37#metadata-extension[defined in the KIP]. Clients calling this function must replace the `\\{id\\}` substring with the actual token type ID."
      }
    },
    "version": 1
  },
  "userdoc": {
    "kind": "user",
    "methods": {},
    "version": 1
  }
}