{
  "contractName": "KIP7Token",
  "abi": [
    {
      "inputs": [
        {
          "internalType": "string",
          "name": "name_",
          "type": "string"
        },
        {
          "internalType": "string",
          "name": "symbol_",
          "type": "string"
        }
      ],
      "stateMutability": "nonpayable",
      "type": "constructor"
    },
    {
      "anonymous": false,
      "inputs": [
        {
          "indexed": true,
          "internalType": "address",
          "name": "owner",
          "type": "address"
        },
        {
          "indexed": true,
          "internalType": "address",
          "name": "spender",
          "type": "address"
        },
        {
          "indexed": false,
          "internalType": "uint256",
          "name": "value",
          "type": "uint256"
        }
      ],
      "name": "Approval",
      "type": "event"
    },
    {
      "anonymous": false,
      "inputs": [
        {
          "indexed": true,
          "internalType": "address",
          "name": "from",
          "type": "address"
        },
        {
          "indexed": true,
          "internalType": "address",
          "name": "to",
          "type": "address"
        },
        {
          "indexed": false,
          "internalType": "uint256",
          "name": "value",
          "type": "uint256"
        }
      ],
      "name": "Transfer",
      "type": "event"
    },
    {
      "inputs": [
        {
          "internalType": "bytes4",
          "name": "interfaceId",
          "type": "bytes4"
        }
      ],
      "name": "supportsInterface",
      "outputs": [
        {
          "internalType": "bool",
          "name": "",
          "type": "bool"
        }
      ],
      "stateMutability": "view",
      "type": "function"
    },
    {
      "inputs": [],
      "name": "name",
      "outputs": [
        {
          "internalType": "string",
          "name": "",
          "type": "string"
        }
      ],
      "stateMutability": "view",
      "type": "function"
    },
    {
      "inputs": [],
      "name": "symbol",
      "outputs": [
        {
          "internalType": "string",
          "name": "",
          "type": "string"
        }
      ],
      "stateMutability": "view",
      "type": "function"
    },
    {
      "inputs": [],
      "name": "decimals",
      "outputs": [
        {
          "internalType": "uint8",
          "name": "",
          "type": "uint8"
        }
      ],
      "stateMutability": "view",
      "type": "function"
    },
    {
      "inputs": [],
      "name": "totalSupply",
      "outputs": [
        {
          "internalType": "uint256",
          "name": "",
          "type": "uint256"
        }
      ],
      "stateMutability": "view",
      "type": "function"
    },
    {
      "inputs": [
        {
          "internalType": "address",
          "name": "account",
          "type": "address"
        }
      ],
      "name": "balanceOf",
      "outputs": [
        {
          "internalType": "uint256",
          "name": "",
          "type": "uint256"
        }
      ],
      "stateMutability": "view",
      "type": "function"
    },
    {
      "inputs": [
        {
          "internalType": "address",
          "name": "to",
          "type": "address"
        },
        {
          "internalType": "uint256",
          "name": "amount",
          "type": "uint256"
        }
      ],
      "name": "transfer",
      "outputs": [
        {
          "internalType": "bool",
          "name": "",
          "type": "bool"
        }
      ],
      "stateMutability": "nonpayable",
      "type": "function"
    },
    {
      "inputs": [
        {
          "internalType": "address",
          "name": "owner",
          "type": "address"
        },
        {
          "internalType": "address",
          "name": "spender",
          "type": "address"
        }
      ],
      "name": "allowance",
      "outputs": [
        {
          "internalType": "uint256",
          "name": "",
          "type": "uint256"
        }
      ],
      "stateMutability": "view",
      "type": "function"
    },
    {
      "inputs": [
        {
          "internalType": "address",
          "name": "spender",
          "type": "address"
        },
        {
          "internalType": "uint256",
          "name": "amount",
          "type": "uint256"
        }
      ],
      "name": "approve",
      "outputs": [
        {
          "internalType": "bool",
          "name": "",
          "type": "bool"
        }
      ],
      "stateMutability": "nonpayable",
      "type": "function"
    },
    {
      "inputs": [
        {
          "internalType": "address",
          "name": "from",
          "type": "address"
        },
        {
          "internalType": "address",
          "name": "to",
          "type": "address"
        },
        {
          "internalType": "uint256",
          "name": "amount",
          "type": "uint256"
        }
      ],
      "name": "transferFrom",
      "outputs": [
        {
          "internalType": "bool",
          "name": "",
          "type": "bool"
        }
      ],
      "stateMutability": "nonpayable",
      "type": "function"
    },
    {
      "inputs": [
        {
          "internalType": "address",
          "name": "spender",
          "type": "address"
        },
        {
          "internalType": "uint256",
          "name": "addedValue",
          "type": "uint256"
        }
      ],
      "name": "increaseAllowance",
      "outputs": [
        {
          "internalType": "bool",
          "name": "",
          "type": "bool"
        }
      ],
      "stateMutability": "nonpayable",
      "type": "function"
    },
    {
      "inputs": [
        {
          "internalType": "address",
          "name": "spender",
          "type": "address"
        },
        {
          "internalType": "uint256",
          "name": "subtractedValue",
          "type": "uint256"
        }
      ],
      "name": "decreaseAllowance",
      "outputs": [
        {
          "internalType": "bool",
          "name": "",
          "type": "bool"
        }
      ],
      "stateMutability": "nonpayable",
      "type": "function"
    },
    {
      "inputs": [
        {
          "internalType": "address",
          "name": "recipient",
          "type": "address"
        },
        {
          "internalType": "uint256",
          "name": "amount",
          "type": "uint256"
        }
      ],
      "name": "safeTransfer",
      "outputs": [],
      "stateMutability": "nonpayable",
      "type": "function"
    },
    {
      "inputs": [
        {
          "internalType": "address",
          "name": "recipient",
          "type": "address"
        },
        {
          "internalType": "uint256",
          "name": "amount",
          "type": "uint256"
        },
        {
          "internalType": "bytes",
          "name": "_data",
          "type": "bytes"
        }
      ],
      "name": "safeTransfer",
      "outputs": [],
      "stateMutability": "nonpayable",
      "type": "function"
    },
    {
      "inputs": [
        {
          "internalType": "address",
          "name": "sender",
          "type": "address"
        },
        {
          "internalType": "address",
          "name": "recipient",
          "type": "address"
        },
        {
          "internalType": "uint256",
          "name": "amount",
          "type": "uint256"
        }
      ],
      "name": "safeTransferFrom",
      "outputs": [],
      "stateMutability": "nonpayable",
      "type": "function"
    },
    {
      "inputs": [
        {
          "internalType": "address",
          "name": "sender",
          "type": "address"
        },
        {
          "internalType": "address",
          "name": "recipient",
          "type": "address"
        },
        {
          "internalType": "uint256",
          "name": "amount",
          "type": "uint256"
        },
        {
          "internalType": "bytes",
          "name": "_data",
          "type": "bytes"
        }
      ],
      "name": "safeTransferFrom",
      "outputs": [],
      "stateMutability": "nonpayable",
      "type": "function"
    }
  ],
  "bytecode": "0x60806040523480156200001157600080fd5b506040516200116a3803806200116a8339810160408190526200003491620001b9565b81516200004990600390602085019062000068565b5080516200005f90600490602084019062000068565b50505062000273565b828054620000769062000220565b90600052602060002090601f0160209004810192826200009a5760008555620000e5565b82601f10620000b557805160ff1916838001178555620000e5565b82800160010185558215620000e5579182015b82811115620000e5578251825591602001919060010190620000c8565b50620000f3929150620000f7565b5090565b5b80821115620000f35760008155600101620000f8565b600082601f8301126200011f578081fd5b81516001600160401b03808211156200013c576200013c6200025d565b6040516020601f8401601f19168201810183811183821017156200016457620001646200025d565b60405283825285840181018710156200017b578485fd5b8492505b838310156200019e57858301810151828401820152918201916200017f565b83831115620001af57848185840101525b5095945050505050565b60008060408385031215620001cc578182fd5b82516001600160401b0380821115620001e3578384fd5b620001f1868387016200010e565b9350602085015191508082111562000207578283fd5b5062000216858286016200010e565b9150509250929050565b6002810460018216806200023557607f821691505b602082108114156200025757634e487b7160e01b600052602260045260246000fd5b50919050565b634e487b7160e01b600052604160045260246000fd5b610ee780620002836000396000f3fe608060405234801561001057600080fd5b50600436106101005760003560e01c806342842e0e11610097578063a9059cbb11610066578063a9059cbb146101fc578063b88d4fde1461020f578063dd62ed3e14610222578063eb7955491461023557610100565b806342842e0e146101bb57806370a08231146101ce57806395d89b41146101e1578063a457c2d7146101e957610100565b806323b872dd116100d357806323b872dd1461016b578063313ce5671461017e5780633950935114610193578063423f6cef146101a657610100565b806301ffc9a71461010557806306fdde031461012e578063095ea7b31461014357806318160ddd14610156575b600080fd5b610118610113366004610ac7565b610248565b6040516101259190610b87565b60405180910390f35b610136610290565b6040516101259190610b92565b610118610151366004610a49565b610322565b61015e610344565b6040516101259190610e0c565b6101186101793660046109a8565b61034a565b610186610378565b6040516101259190610e15565b6101186101a1366004610a49565b61037d565b6101b96101b4366004610a49565b6103a9565b005b6101b96101c93660046109a8565b6103d5565b61015e6101dc366004610955565b61040d565b610136610428565b6101186101f7366004610a49565b610437565b61011861020a366004610a49565b610488565b6101b961021d3660046109e3565b6104a0565b61015e610230366004610976565b6104ca565b6101b9610243366004610a72565b6104f5565b60006001600160e01b03198216636578737160e01b148061027957506001600160e01b0319821663a219a02560e01b145b8061028857506102888261050d565b90505b919050565b60606003805461029f90610e47565b80601f01602080910402602001604051908101604052809291908181526020018280546102cb90610e47565b80156103185780601f106102ed57610100808354040283529160200191610318565b820191906000526020600020905b8154815290600101906020018083116102fb57829003601f168201915b5050505050905090565b60008061032d610526565b905061033a81858561052a565b5060019392505050565b60025490565b600080610355610526565b90506103628582856105de565b61036d858585610622565b506001949350505050565b601290565b600080610388610526565b905061033a81858561039a85896104ca565b6103a49190610e23565b61052a565b60006103b3610526565b90506103d081848460405180602001604052806000815250610746565b505050565b60006103df610526565b90506103ec8482846105de565b61040784848460405180602001604052806000815250610746565b50505050565b6001600160a01b031660009081526020819052604090205490565b60606004805461029f90610e47565b600080610442610526565b9050600061045082866104ca565b90508381101561047b5760405162461bcd60e51b815260040161047290610cad565b60405180910390fd5b61036d828686840361052a565b600080610493610526565b905061033a818585610622565b60006104aa610526565b90506104b78582856105de565b6104c385858585610746565b5050505050565b6001600160a01b03918216600090815260016020908152604080832093909416825291909152205490565b60006104ff610526565b905061040781858585610746565b6001600160e01b031981166301ffc9a760e01b14919050565b3390565b6001600160a01b0383166105505760405162461bcd60e51b815260040161047290610dc9565b6001600160a01b0382166105765760405162461bcd60e51b815260040161047290610bdc565b6001600160a01b0380841660008181526001602090815260408083209487168084529490915290819020849055517f8c5be1e5ebec7d5bd14f71427d1e84f3dd0314c0f7b2291e5b200ac8c7c3b925906105d1908590610e0c565b60405180910390a3505050565b60006105ea84846104ca565b9050600019811461040757818110156106155760405162461bcd60e51b815260040161047290610ba5565b610407848484840361052a565b6001600160a01b0383166106485760405162461bcd60e51b815260040161047290610cf1565b6001600160a01b03821661066e5760405162461bcd60e51b815260040161047290610c6b565b6106798383836103d0565b6001600160a01b038316600090815260208190526040902054818110156106b25760405162461bcd60e51b815260040161047290610d84565b6001600160a01b038085166000908152602081905260408082208585039055918516815290812080548492906106e9908490610e23565b92505081905550826001600160a01b0316846001600160a01b03167fddf252ad1be2c89b69c2b068fc378daa952ba7f163c4a11628f55a4df523b3ef846040516107339190610e0c565b60405180910390a36104078484846103d0565b610751848484610622565b61075d84848484610779565b6104075760405162461bcd60e51b815260040161047290610d35565b600061078d846001600160a01b031661088c565b1561036d57836001600160a01b0316639d188c226107a9610526565b8786866040518563ffffffff1660e01b81526004016107cb9493929190610b4a565b602060405180830381600087803b1580156107e557600080fd5b505af1925050508015610815575060408051601f3d908101601f1916820190925261081291810190610ae3565b60015b61086f573d808015610843576040519150601f19603f3d011682016040523d82523d6000602084013e610848565b606091505b5080516108675760405162461bcd60e51b815260040161047290610c1d565b805181602001fd5b6001600160e01b031916634e8c461160e11b149050949350505050565b600080826001600160a01b0316803b806020016040519081016040528181526000908060200190933c511192915050565b80356001600160a01b038116811461028b57600080fd5b600082601f8301126108e4578081fd5b813567ffffffffffffffff808211156108ff576108ff610e82565b604051601f8301601f19168101602001828111828210171561092357610923610e82565b60405282815284830160200186101561093a578384fd5b82602086016020830137918201602001929092529392505050565b600060208284031215610966578081fd5b61096f826108bd565b9392505050565b60008060408385031215610988578081fd5b610991836108bd565b915061099f602084016108bd565b90509250929050565b6000806000606084860312156109bc578081fd5b6109c5846108bd565b92506109d3602085016108bd565b9150604084013590509250925092565b600080600080608085870312156109f8578081fd5b610a01856108bd565b9350610a0f602086016108bd565b925060408501359150606085013567ffffffffffffffff811115610a31578182fd5b610a3d878288016108d4565b91505092959194509250565b60008060408385031215610a5b578182fd5b610a64836108bd565b946020939093013593505050565b600080600060608486031215610a86578283fd5b610a8f846108bd565b925060208401359150604084013567ffffffffffffffff811115610ab1578182fd5b610abd868287016108d4565b9150509250925092565b600060208284031215610ad8578081fd5b813561096f81610e98565b600060208284031215610af4578081fd5b815161096f81610e98565b60008151808452815b81811015610b2457602081850181015186830182015201610b08565b81811115610b355782602083870101525b50601f01601f19169290920160200192915050565b6001600160a01b0385811682528416602082015260408101839052608060608201819052600090610b7d90830184610aff565b9695505050505050565b901515815260200190565b60006020825261096f6020830184610aff565b6020808252601c908201527f4b4950373a20696e73756666696369656e7420616c6c6f77616e636500000000604082015260600190565b60208082526021908201527f4b4950373a20617070726f766520746f20746865207a65726f206164647265736040820152607360f81b606082015260800190565b6020808252602e908201527f4b4950373a207472616e7366657220746f206e6f6e204b49503752656365697660408201526d32b91034b6b83632b6b2b73a32b960911b606082015260800190565b60208082526022908201527f4b4950373a207472616e7366657220746f20746865207a65726f206164647265604082015261737360f01b606082015260800190565b60208082526024908201527f4b4950373a2064656372656173656420616c6c6f77616e63652062656c6f77206040820152637a65726f60e01b606082015260800190565b60208082526024908201527f4b4950373a207472616e736665722066726f6d20746865207a65726f206164646040820152637265737360e01b606082015260800190565b6020808252602f908201527f4b4950373a207472616e7366657220746f206e6f6e20494b495037526563656960408201526e3b32b91034b6b83632b6b2b73a32b960891b606082015260800190565b60208082526025908201527f4b4950373a207472616e7366657220616d6f756e7420657863656564732062616040820152646c616e636560d81b606082015260800190565b60208082526023908201527f4b4950373a20617070726f76652066726f6d20746865207a65726f206164647260408201526265737360e81b606082015260800190565b90815260200190565b60ff91909116815260200190565b60008219821115610e4257634e487b7160e01b81526011600452602481fd5b500190565b600281046001821680610e5b57607f821691505b60208210811415610e7c57634e487b7160e01b600052602260045260246000fd5b50919050565b634e487b7160e01b600052604160045260246000fd5b6001600160e01b031981168114610eae57600080fd5b5056fea264697066735822122027f512a8746171d74cf4701e9a5eff7595ba67e1a8c5274b3d41fd174de986be64736f6c63430008000033",
  "immutableReferences": {},
  "source": "// SPDX-License-Identifier: MIT\npragma solidity 0.8.0;\n\nimport \"./IKIP7Metadata.sol\";\nimport \"./IKIP7Receiver.sol\";\n\nimport \"../KIP13.sol\";\n\nimport \"../../utils/Address.sol\";\nimport \"../../utils/Context.sol\";\n\ncontract KIP7Token is KIP13, IKIP7Metadata, Context {\n    using Address for address;\n\n    mapping(address => uint256) private _balances;\n\n    mapping(address => mapping(address => uint256)) private _allowances;\n\n    uint256 private _totalSupply;\n    uint256 private constant MAX_SUPPLY = 1000000e18;\n\n    string private _name;\n    string private _symbol;\n\n    /**\n     * @dev Sets the values for {name} and {symbol}.\n     *\n     * The default value of {decimals} is 18. To select a different value for\n     * {decimals} you should overload it.\n     *\n     * All two of these values are immutable: they can only be set once during\n     * construction.\n     */\n    constructor(string memory name_, string memory symbol_) {\n        _name = name_;\n        _symbol = symbol_;\n    }\n\n    /**\n     * @dev See {IKIP13-supportsInterface}.\n     */\n    function supportsInterface(bytes4 interfaceId)\n        public\n        view\n        virtual\n        override(KIP13)\n        returns (bool)\n    {\n        return\n            interfaceId == type(IKIP7).interfaceId ||\n            interfaceId == type(IKIP7Metadata).interfaceId ||\n            KIP13.supportsInterface(interfaceId);\n    }\n\n    /**\n     * @dev Returns the name of the token.\n     */\n    function name() public view virtual override returns (string memory) {\n        return _name;\n    }\n\n    /**\n     * @dev Returns the symbol of the token, usually a shorter version of the\n     * name.\n     */\n    function symbol() public view virtual override returns (string memory) {\n        return _symbol;\n    }\n\n    /**\n     * @dev Returns the number of decimals used to get its user representation.\n     * For example, if `decimals` equals `2`, a balance of `505` tokens should\n     * be displayed to a user as `5.05` (`505 / 10 ** 2`).\n     *\n     * Tokens usually opt for a value of 18, imitating the relationship between\n     * Ether and Wei. This is the value {KIP7} uses, unless this function is\n     * overridden;\n     *\n     * NOTE: This information is only used for _display_ purposes: it in\n     * no way affects any of the arithmetic of the contract, including\n     * {IKIP7-balanceOf} and {IKIP7-transfer}.\n     */\n    function decimals() public view virtual override returns (uint8) {\n        return 18;\n    }\n\n    /**\n     * @dev See {IKIP7-totalSupply}.\n     */\n    function totalSupply() public view virtual override returns (uint256) {\n        return _totalSupply;\n    }\n\n    /**\n     * @dev See {IKIP7-balanceOf}.\n     */\n    function balanceOf(address account)\n        public\n        view\n        virtual\n        override\n        returns (uint256)\n    {\n        return _balances[account];\n    }\n\n    /**\n     * @dev See {IKIP7-transfer}.\n     *\n     * Requirements:\n     *\n     * - `to` cannot be the zero address.\n     * - the caller must have a balance of at least `amount`.\n     */\n    function transfer(address to, uint256 amount)\n        public\n        virtual\n        override\n        returns (bool)\n    {\n        address owner = _msgSender();\n        _transfer(owner, to, amount);\n        return true;\n    }\n\n    /**\n     * @dev See {IKIP7-allowance}.\n     */\n    function allowance(address owner, address spender)\n        public\n        view\n        virtual\n        override\n        returns (uint256)\n    {\n        return _allowances[owner][spender];\n    }\n\n    /**\n     * @dev See {IKIP7-approve}.\n     *\n     * NOTE: If `amount` is the maximum `uint256`, the allowance is not updated on\n     * `transferFrom`. This is semantically equivalent to an infinite approval.\n     *\n     * Requirements:\n     *\n     * - `spender` cannot be the zero address.\n     */\n    function approve(address spender, uint256 amount)\n        public\n        virtual\n        override\n        returns (bool)\n    {\n        address owner = _msgSender();\n        _approve(owner, spender, amount);\n        return true;\n    }\n\n    /**\n     * @dev See {IKIP7-transferFrom}.\n     *\n     * Emits an {Approval} event indicating the updated allowance. This is not\n     * required by the EIP. See the note at the beginning of {KIP7}.\n     *\n     * NOTE: Does not update the allowance if the current allowance\n     * is the maximum `uint256`.\n     *\n     * Requirements:\n     *\n     * - `from` and `to` cannot be the zero address.\n     * - `from` must have a balance of at least `amount`.\n     * - the caller must have allowance for ``from``'s tokens of at least\n     * `amount`.\n     */\n    function transferFrom(\n        address from,\n        address to,\n        uint256 amount\n    ) public virtual override returns (bool) {\n        address spender = _msgSender();\n        _spendAllowance(from, spender, amount);\n        _transfer(from, to, amount);\n        return true;\n    }\n\n    /**\n     * @dev Atomically increases the allowance granted to `spender` by the caller.\n     *\n     * This is an alternative to {approve} that can be used as a mitigation for\n     * problems described in {IKIP7-approve}.\n     *\n     * Emits an {Approval} event indicating the updated allowance.\n     *\n     * Requirements:\n     *\n     * - `spender` cannot be the zero address.\n     */\n    function increaseAllowance(address spender, uint256 addedValue)\n        public\n        virtual\n        returns (bool)\n    {\n        address owner = _msgSender();\n        _approve(owner, spender, allowance(owner, spender) + addedValue);\n        return true;\n    }\n\n    /**\n     * @dev Atomically decreases the allowance granted to `spender` by the caller.\n     *\n     * This is an alternative to {approve} that can be used as a mitigation for\n     * problems described in {IKIP7-approve}.\n     *\n     * Emits an {Approval} event indicating the updated allowance.\n     *\n     * Requirements:\n     *\n     * - `spender` cannot be the zero address.\n     * - `spender` must have allowance for the caller of at least\n     * `subtractedValue`.\n     */\n    function decreaseAllowance(address spender, uint256 subtractedValue)\n        public\n        virtual\n        returns (bool)\n    {\n        address owner = _msgSender();\n        uint256 currentAllowance = allowance(owner, spender);\n        require(\n            currentAllowance >= subtractedValue,\n            \"KIP7: decreased allowance below zero\"\n        );\n        unchecked {\n            _approve(owner, spender, currentAllowance - subtractedValue);\n        }\n\n        return true;\n    }\n\n    /**\n     * @dev See {IKIP7-safeTransfer}.\n     *\n     * Emits a {Transfer} event\n     *\n     * Requirements:\n     *\n     * - `recipient` cannot be the zero address.\n     * - the caller must have a balance of at least `amount`.\n     * - if `recipient` is a smart contract, it must implement {IKIP7Receiver}\n     */\n    function safeTransfer(address recipient, uint256 amount)\n        public\n        virtual\n        override\n    {\n        address owner = _msgSender();\n        _safeTransfer(owner, recipient, amount, \"\");\n    }\n\n    /**\n     * @dev Same as {xref-KIP7-safeTransfer-address-uint256-}[`safeTransfer`], with an additional `_data` parameter which is\n     * forwarded in {IKIP7Receiver-onKIP7Received} to contract recipients.\n     *\n     * Emits a {Transfer} event\n     */\n    function safeTransfer(\n        address recipient,\n        uint256 amount,\n        bytes memory _data\n    ) public virtual override {\n        address owner = _msgSender();\n        _safeTransfer(owner, recipient, amount, _data);\n    }\n\n    /**\n     * @dev See {IKIP7-safeTransferFrom}.\n     *\n     * Emits a {Transfer} event\n     *\n     * Emits an {Approval} event indicating the updated allowance. This is not\n     * required by the KIP. See the note at the beginning of {KIP7}.\n     *\n     * NOTE: Does not update the allowance if the current allowance\n     * is the maximum `uint256`.\n     *\n     * Requirements:\n     *\n     * - `sender` and `recipient` cannot be the zero address.\n     * - `sender` must have a balance of at least `amount`.\n     * - the caller must have allowance for ``sender``'s tokens of at least `amount`.\n     * - if `recipient` is a smart contract, it must implement {IKIP7Receiver}\n     */\n    function safeTransferFrom(\n        address sender,\n        address recipient,\n        uint256 amount\n    ) public virtual override {\n        address spender = _msgSender();\n        _spendAllowance(sender, spender, amount);\n        _safeTransfer(sender, recipient, amount, \"\");\n    }\n\n    /**\n     * @dev Same as {xref-KIP7-safeTransferFrom-address-uint256-}[`safeTransferFrom`], with an additional `_data` parameter which is\n     * forwarded in {IKIP7Receiver-onKIP7Received} to contract recipients.\n     *\n     * Emits a {Transfer} event\n     *\n     * Emits an {Approval} event indicating the updated allowance.\n     */\n    function safeTransferFrom(\n        address sender,\n        address recipient,\n        uint256 amount,\n        bytes memory _data\n    ) public virtual override {\n        address spender = _msgSender();\n        _spendAllowance(sender, spender, amount);\n        _safeTransfer(sender, recipient, amount, _data);\n    }\n\n    /**\n     * @dev Safely transfers `amout` token from `from` to `to`, checking first that contract recipients\n     * are aware of the KIP7 protocol to prevent tokens from being forever locked.\n     *\n     * `_data` is additional data, it has no specified format and it is sent in call to `to` to be used\n     * for additional KIP7 receiver handler logic\n     *\n     * Emits a {Transfer} event.\n     *\n     * Requirements:\n     *\n     * - `from` cannot be the zero address.\n     * - `to` cannot be the zero address.\n     * - `from` must have a balance of at least `amount`.\n     * - if `to` is a contract it must implement {IKIP7Receiver} and\n     * - If `to` refers to a smart contract, it must implement {IKIP7Receiver}, which is called upon\n     *   a safe transfer.\n     */\n    function _safeTransfer(\n        address from,\n        address to,\n        uint256 amount,\n        bytes memory _data\n    ) internal virtual {\n        _transfer(from, to, amount);\n        require(\n            _checkOnKIP7Received(from, to, amount, _data),\n            \"KIP7: transfer to non IKIP7Receiver implementer\"\n        );\n    }\n\n    /**\n     * @dev Moves `amount` of tokens from `sender` to `recipient`.\n     *\n     * This internal function is equivalent to {transfer}, and can be used to\n     * e.g. implement automatic token fees, slashing mechanisms, etc.\n     *\n     * Emits a {Transfer} event.\n     *\n     * Requirements:\n     *\n     * - `from` cannot be the zero address.\n     * - `to` cannot be the zero address.\n     * - `from` must have a balance of at least `amount`.\n     */\n    function _transfer(\n        address from,\n        address to,\n        uint256 amount\n    ) internal virtual {\n        require(from != address(0), \"KIP7: transfer from the zero address\");\n        require(to != address(0), \"KIP7: transfer to the zero address\");\n\n        _beforeTokenTransfer(from, to, amount);\n\n        uint256 fromBalance = _balances[from];\n        require(fromBalance >= amount, \"KIP7: transfer amount exceeds balance\");\n        unchecked {\n            _balances[from] = fromBalance - amount;\n        }\n        _balances[to] += amount;\n\n        emit Transfer(from, to, amount);\n\n        _afterTokenTransfer(from, to, amount);\n    }\n\n    /**\n     * @dev Safely mints `amount` and transfers it to `account`.\n     *\n     * Requirements:\n     *\n     * - `account` cannot be the zero address.\n     * - If `account` refers to a smart contract, it must implement {IKIP7Receiver-onKIP7Received},\n     *   which is called upon a safe mint.\n     *\n     * Emits a {Transfer} event.\n     */\n    function _safeMint(address account, uint256 amount) internal virtual {\n        _safeMint(account, amount, \"\");\n    }\n\n    /**\n     * @dev Same as {xref-KIP7-_safeMint-address-uint256-}[`_safeMint`], with an additional `_data` parameter which is\n     * forwarded in {IKIP7Receiver-onKIP7Received} to contract recipients.\n     */\n    function _safeMint(\n        address account,\n        uint256 amount,\n        bytes memory _data\n    ) internal virtual {\n        _mint(account, amount);\n        require(\n            _checkOnKIP7Received(address(0), account, amount, _data),\n            \"KIP7: transfer to non IKIP7Receiver implementer\"\n        );\n    }\n\n    /** @dev Creates `amount` tokens and assigns them to `account`, increasing\n     * the total supply.\n     *\n     * WARNING: Usage of this method is discouraged, use {_safeMint} whenever possible\n     *\n     * Emits a {Transfer} event with `from` set to the zero address.\n     *\n     * Requirements:\n     *\n     * - `account` cannot be the zero address.\n     */\n    function _mint(address account, uint256 amount) internal virtual {\n        require(account != address(0), \"KIP7: mint to the zero address\");\n        require(_totalSupply + amount <= MAX_SUPPLY, \"Max Supply Error\");\n        _beforeTokenTransfer(address(0), account, amount);\n\n        _totalSupply += amount;\n        _balances[account] += amount;\n        emit Transfer(address(0), account, amount);\n\n        _afterTokenTransfer(address(0), account, amount);\n    }\n\n    /**\n     * @dev Internal function to invoke {IKIP7Receiver-onKIP7Received} on a target address.\n     * The call is not executed if the target address is not a contract.\n     *\n     * @param from address representing the previous owner of transfer token amount\n     * @param to target address that will receive the tokens\n     * @param amount uint256 value to be transferred\n     * @param _data bytes optional data to send along with the call\n     * @return bool whether the call correctly returned the expected magic value\n     */\n    function _checkOnKIP7Received(\n        address from,\n        address to,\n        uint256 amount,\n        bytes memory _data\n    ) private returns (bool) {\n        if (to.isContract()) {\n            try\n                IKIP7Receiver(to).onKIP7Received(\n                    _msgSender(),\n                    from,\n                    amount,\n                    _data\n                )\n            returns (bytes4 retval) {\n                return retval == IKIP7Receiver.onKIP7Received.selector;\n            } catch (bytes memory reason) {\n                if (reason.length == 0) {\n                    revert(\"KIP7: transfer to non KIP7Receiver implementer\");\n                } else {\n                    assembly {\n                        revert(add(32, reason), mload(reason))\n                    }\n                }\n            }\n        } else {\n            return true;\n        }\n    }\n\n    /**\n     * @dev Destroys `amount` tokens from `account`, reducing the\n     * total supply.\n     *\n     * Emits a {Transfer} event with `to` set to the zero address.\n     *\n     * Requirements:\n     *\n     * - `account` cannot be the zero address.\n     * - `account` must have at least `amount` tokens.\n     */\n    function _burn(address account, uint256 amount) internal virtual {\n        require(account != address(0), \"KIP7: burn from the zero address\");\n\n        _beforeTokenTransfer(account, address(0), amount);\n\n        uint256 accountBalance = _balances[account];\n        require(accountBalance >= amount, \"KIP7: burn amount exceeds balance\");\n        unchecked {\n            _balances[account] = accountBalance - amount;\n        }\n        _totalSupply -= amount;\n\n        emit Transfer(account, address(0), amount);\n\n        _afterTokenTransfer(account, address(0), amount);\n    }\n\n    /**\n     * @dev Sets `amount` as the allowance of `spender` over the `owner` s tokens.\n     *\n     * This internal function is equivalent to `approve`, and can be used to\n     * e.g. set automatic allowances for certain subsystems, etc.\n     *\n     * Emits an {Approval} event.\n     *\n     * Requirements:\n     *\n     * - `owner` cannot be the zero address.\n     * - `spender` cannot be the zero address.\n     */\n    function _approve(\n        address owner,\n        address spender,\n        uint256 amount\n    ) internal virtual {\n        require(owner != address(0), \"KIP7: approve from the zero address\");\n        require(spender != address(0), \"KIP7: approve to the zero address\");\n\n        _allowances[owner][spender] = amount;\n        emit Approval(owner, spender, amount);\n    }\n\n    /**\n     * @dev Updates `owner` s allowance for `spender` based on spent `amount`.\n     *\n     * Does not update the allowance amount in case of infinite allowance.\n     * Revert if not enough allowance is available.\n     *\n     * Might emit an {Approval} event.\n     */\n    function _spendAllowance(\n        address owner,\n        address spender,\n        uint256 amount\n    ) internal virtual {\n        uint256 currentAllowance = allowance(owner, spender);\n        if (currentAllowance != type(uint256).max) {\n            require(currentAllowance >= amount, \"KIP7: insufficient allowance\");\n            unchecked {\n                _approve(owner, spender, currentAllowance - amount);\n            }\n        }\n    }\n\n    /**\n     * @dev Hook that is called before any transfer of tokens. This includes\n     * minting and burning.\n     *\n     * Calling conditions:\n     *\n     * - when `from` and `to` are both non-zero, `amount` of ``from``'s tokens\n     * will be transferred to `to`.\n     * - when `from` is zero, `amount` tokens will be minted for `to`.\n     * - when `to` is zero, `amount` of ``from``'s tokens will be burned.\n     * - `from` and `to` are never both zero.\n     *\n     * To learn more about hooks, head to xref:ROOT:extending-contracts.adoc#using-hooks[Using Hooks].\n     */\n    function _beforeTokenTransfer(\n        address from,\n        address to,\n        uint256 amount\n    ) internal virtual {}\n\n    /**\n     * @dev Hook that is called after any transfer of tokens. This includes\n     * minting and burning.\n     *\n     * Calling conditions:\n     *\n     * - when `from` and `to` are both non-zero, `amount` of ``from``'s tokens\n     * has been transferred to `to`.\n     * - when `from` is zero, `amount` tokens have been minted for `to`.\n     * - when `to` is zero, `amount` of ``from``'s tokens have been burned.\n     * - `from` and `to` are never both zero.\n     *\n     * To learn more about hooks, head to xref:ROOT:extending-contracts.adoc#using-hooks[Using Hooks].\n     */\n    function _afterTokenTransfer(\n        address from,\n        address to,\n        uint256 amount\n    ) internal virtual {}\n}\n",
  "sourcePath": "/Users/yuhojin/Desktop/NFT-lendProject/truffle/contracts/interface/IKIP7/KIP7Token.sol",
  "compiler": {
    "name": "solc",
    "version": "0.8.0+commit.c7dfd78e.Emscripten.clang"
  },
  "schemaVersion": "3.1.0",
  "updatedAt": "2022-07-28T11:32:02.273Z",
  "devdoc": {
    "kind": "dev",
    "methods": {
      "allowance(address,address)": {
        "details": "See {IKIP7-allowance}."
      },
      "approve(address,uint256)": {
        "details": "See {IKIP7-approve}. NOTE: If `amount` is the maximum `uint256`, the allowance is not updated on `transferFrom`. This is semantically equivalent to an infinite approval. Requirements: - `spender` cannot be the zero address."
      },
      "balanceOf(address)": {
        "details": "See {IKIP7-balanceOf}."
      },
      "constructor": {
        "details": "Sets the values for {name} and {symbol}. The default value of {decimals} is 18. To select a different value for {decimals} you should overload it. All two of these values are immutable: they can only be set once during construction."
      },
      "decimals()": {
        "details": "Returns the number of decimals used to get its user representation. For example, if `decimals` equals `2`, a balance of `505` tokens should be displayed to a user as `5.05` (`505 / 10 ** 2`). Tokens usually opt for a value of 18, imitating the relationship between Ether and Wei. This is the value {KIP7} uses, unless this function is overridden; NOTE: This information is only used for _display_ purposes: it in no way affects any of the arithmetic of the contract, including {IKIP7-balanceOf} and {IKIP7-transfer}."
      },
      "decreaseAllowance(address,uint256)": {
        "details": "Atomically decreases the allowance granted to `spender` by the caller. This is an alternative to {approve} that can be used as a mitigation for problems described in {IKIP7-approve}. Emits an {Approval} event indicating the updated allowance. Requirements: - `spender` cannot be the zero address. - `spender` must have allowance for the caller of at least `subtractedValue`."
      },
      "increaseAllowance(address,uint256)": {
        "details": "Atomically increases the allowance granted to `spender` by the caller. This is an alternative to {approve} that can be used as a mitigation for problems described in {IKIP7-approve}. Emits an {Approval} event indicating the updated allowance. Requirements: - `spender` cannot be the zero address."
      },
      "name()": {
        "details": "Returns the name of the token."
      },
      "safeTransfer(address,uint256)": {
        "details": "See {IKIP7-safeTransfer}. Emits a {Transfer} event Requirements: - `recipient` cannot be the zero address. - the caller must have a balance of at least `amount`. - if `recipient` is a smart contract, it must implement {IKIP7Receiver}"
      },
      "safeTransfer(address,uint256,bytes)": {
        "details": "Same as {xref-KIP7-safeTransfer-address-uint256-}[`safeTransfer`], with an additional `_data` parameter which is forwarded in {IKIP7Receiver-onKIP7Received} to contract recipients. Emits a {Transfer} event"
      },
      "safeTransferFrom(address,address,uint256)": {
        "details": "See {IKIP7-safeTransferFrom}. Emits a {Transfer} event Emits an {Approval} event indicating the updated allowance. This is not required by the KIP. See the note at the beginning of {KIP7}. NOTE: Does not update the allowance if the current allowance is the maximum `uint256`. Requirements: - `sender` and `recipient` cannot be the zero address. - `sender` must have a balance of at least `amount`. - the caller must have allowance for ``sender``'s tokens of at least `amount`. - if `recipient` is a smart contract, it must implement {IKIP7Receiver}"
      },
      "safeTransferFrom(address,address,uint256,bytes)": {
        "details": "Same as {xref-KIP7-safeTransferFrom-address-uint256-}[`safeTransferFrom`], with an additional `_data` parameter which is forwarded in {IKIP7Receiver-onKIP7Received} to contract recipients. Emits a {Transfer} event Emits an {Approval} event indicating the updated allowance."
      },
      "supportsInterface(bytes4)": {
        "details": "See {IKIP13-supportsInterface}."
      },
      "symbol()": {
        "details": "Returns the symbol of the token, usually a shorter version of the name."
      },
      "totalSupply()": {
        "details": "See {IKIP7-totalSupply}."
      },
      "transfer(address,uint256)": {
        "details": "See {IKIP7-transfer}. Requirements: - `to` cannot be the zero address. - the caller must have a balance of at least `amount`."
      },
      "transferFrom(address,address,uint256)": {
        "details": "See {IKIP7-transferFrom}. Emits an {Approval} event indicating the updated allowance. This is not required by the EIP. See the note at the beginning of {KIP7}. NOTE: Does not update the allowance if the current allowance is the maximum `uint256`. Requirements: - `from` and `to` cannot be the zero address. - `from` must have a balance of at least `amount`. - the caller must have allowance for ``from``'s tokens of at least `amount`."
      }
    },
    "version": 1
  },
  "userdoc": {
    "kind": "user",
    "methods": {},
    "version": 1
  }
}