{
  "contractName": "LevelDiagram",
  "abi": [
    {
      "inputs": [],
      "name": "changeMiningPaused",
      "outputs": [],
      "stateMutability": "nonpayable",
      "type": "function"
    },
    {
      "inputs": [],
      "name": "changePaused",
      "outputs": [],
      "stateMutability": "nonpayable",
      "type": "function"
    },
    {
      "inputs": [],
      "name": "depositAddress",
      "outputs": [
        {
          "internalType": "address",
          "name": "",
          "type": "address"
        }
      ],
      "stateMutability": "view",
      "type": "function"
    },
    {
      "inputs": [],
      "name": "getHeroNFT",
      "outputs": [
        {
          "internalType": "contract IHeroNFT",
          "name": "",
          "type": "address"
        }
      ],
      "stateMutability": "view",
      "type": "function"
    },
    {
      "inputs": [],
      "name": "getItem",
      "outputs": [
        {
          "internalType": "contract IKIP37Full",
          "name": "",
          "type": "address"
        }
      ],
      "stateMutability": "view",
      "type": "function"
    },
    {
      "inputs": [],
      "name": "getMiningPaused",
      "outputs": [
        {
          "internalType": "bool",
          "name": "",
          "type": "bool"
        }
      ],
      "stateMutability": "view",
      "type": "function"
    },
    {
      "inputs": [],
      "name": "getOwner",
      "outputs": [
        {
          "internalType": "address payable",
          "name": "",
          "type": "address"
        }
      ],
      "stateMutability": "view",
      "type": "function"
    },
    {
      "inputs": [],
      "name": "getPaused",
      "outputs": [
        {
          "internalType": "bool",
          "name": "",
          "type": "bool"
        }
      ],
      "stateMutability": "view",
      "type": "function"
    },
    {
      "inputs": [],
      "name": "getToken",
      "outputs": [
        {
          "internalType": "contract IKIP7",
          "name": "",
          "type": "address"
        }
      ],
      "stateMutability": "view",
      "type": "function"
    },
    {
      "inputs": [
        {
          "internalType": "address",
          "name": "_heroNFT",
          "type": "address"
        },
        {
          "internalType": "address",
          "name": "_token",
          "type": "address"
        },
        {
          "internalType": "address",
          "name": "_item",
          "type": "address"
        },
        {
          "internalType": "address",
          "name": "_depositAddress",
          "type": "address"
        },
        {
          "internalType": "uint256",
          "name": "_klay",
          "type": "uint256"
        },
        {
          "internalType": "uint256",
          "name": "_tokenPrice",
          "type": "uint256"
        }
      ],
      "name": "initialize",
      "outputs": [],
      "stateMutability": "nonpayable",
      "type": "function"
    },
    {
      "inputs": [],
      "name": "priceOfKlay",
      "outputs": [
        {
          "internalType": "uint256",
          "name": "",
          "type": "uint256"
        }
      ],
      "stateMutability": "view",
      "type": "function"
    },
    {
      "inputs": [],
      "name": "priceOfToken",
      "outputs": [
        {
          "internalType": "uint256",
          "name": "",
          "type": "uint256"
        }
      ],
      "stateMutability": "view",
      "type": "function"
    },
    {
      "inputs": [
        {
          "internalType": "string",
          "name": "grade",
          "type": "string"
        },
        {
          "internalType": "uint256",
          "name": "level",
          "type": "uint256"
        }
      ],
      "name": "calculateTokenAmount",
      "outputs": [
        {
          "internalType": "uint256",
          "name": "",
          "type": "uint256"
        }
      ],
      "stateMutability": "pure",
      "type": "function"
    }
  ],
  "bytecode": "0x608060405234801561001057600080fd5b506004805460ff60a81b1960ff60a01b19909116600160a01b1716600160a81b179055600380546001600160a01b0319163317905561070f806100546000396000f3fe608060405234801561001057600080fd5b50600436106100cf5760003560e01c80637cac00ee1161008c578063aa93c0ee11610066578063aa93c0ee1461014e578063c412eaba14610161578063d7c41c7914610169578063ee72b8cc1461017c576100cf565b80637cac00ee14610134578063893d20e81461013c5780639eb4eae514610144576100cf565b80631b9cbdfb146100d457806321df0da7146100f257806328919df61461010757806328f833b71461011c5780633a1a8080146101245780636805b84b1461012c575b600080fd5b6100dc610184565b6040516100e9919061066f565b60405180910390f35b6100fa61018a565b6040516100e99190610619565b61010f610199565b6040516100e9919061062d565b6100fa6101a9565b6100dc6101b8565b61010f6101be565b6100fa6101ce565b6100fa6101dd565b61014c6101ec565b005b6100dc61015c366004610572565b610240565b6100fa61028c565b61014c61017736600461050d565b61029b565b61014c610341565b60065481565b6001546001600160a01b031690565b600454600160a81b900460ff1690565b6004546001600160a01b031681565b60055481565b600454600160a01b900460ff1690565b6000546001600160a01b031690565b6003546001600160a01b031690565b6003546001600160a01b0316331461021f5760405162461bcd60e51b815260040161021690610638565b60405180910390fd5b6004805460ff60a01b198116600160a01b9182900460ff1615909102179055565b60008061024c8461038c565b9050600061025984610496565b9050600a6102678284610698565b6102719190610678565b61028390670de0b6b3a7640000610698565b95945050505050565b6002546001600160a01b031690565b6003546001600160a01b031633146102c55760405162461bcd60e51b815260040161021690610638565b6102d782670de0b6b3a76400006104e3565b6005556102ec81670de0b6b3a76400006104e3565b6006555050600080546001600160a01b039586166001600160a01b0319918216179091556001805494861694821694909417909355600280549285169284169290921790915560048054919093169116179055565b6003546001600160a01b0316331461036b5760405162461bcd60e51b815260040161021690610638565b6004805460ff60a81b198116600160a81b9182900460ff1615909102179055565b805160208201206000907f8c57226533ec41d2857120df9ace6dff88130d9b32385e09c9828f75027730f38114610485577f181ebe3a8fa130246d49bfd123ac54849b05bdcd02c6b1322c78de2a3988a310811461047c577f6764d804d57285ae9d4c42cc380377d3d0ee9b90ff9eeccaa32d3b2e3e8d7f178114610473577fb2c1aaaf9f516585466c9876e2eaf06ee68751aad537b2a6fa22f473d03b58eb8114610468577fb5333297a8bd10e190cb97fb1ee0f49587c8b2e015370e943c69fd680dabc6bd8114610460576000610463565b60c85b61046b565b60e15b60ff16610477565b61012c5b610480565b6101c25b610489565b6102a35b61ffff169150505b919050565b6000816001146104d757816002146104cf57816003146104c757816004146104bf5760006104c2565b60505b6104ca565b602a5b6104d2565b60165b6104da565b600f5b60ff1692915050565b60006104ef8284610698565b9392505050565b80356001600160a01b038116811461049157600080fd5b60008060008060008060c08789031215610525578182fd5b61052e876104f6565b955061053c602088016104f6565b945061054a604088016104f6565b9350610558606088016104f6565b92506080870135915060a087013590509295509295509295565b60008060408385031215610584578182fd5b823567ffffffffffffffff8082111561059b578384fd5b818501915085601f8301126105ae578384fd5b81356020828211156105c2576105c26106c3565b604051601f8301601f19168101820184811182821017156105e5576105e56106c3565b60405282815284830182018910156105fb578687fd5b82828601838301379182018101959095529694909301359450505050565b6001600160a01b0391909116815260200190565b901515815260200190565b6020808252601a908201527f4865726f436f7265204572726f72203a206f6e6c794f776e6572000000000000604082015260600190565b90815260200190565b60008261069357634e487b7160e01b81526012600452602481fd5b500490565b60008160001904831182151516156106be57634e487b7160e01b81526011600452602481fd5b500290565b634e487b7160e01b600052604160045260246000fdfea2646970667358221220603982025730c1e7a9ad44e60280371eb35b66da03dbb0d33564071499cc56ab64736f6c63430008000033",
  "immutableReferences": {},
  "source": "// SPDX-License-Identifier: MIT\npragma solidity ^0.8.0;\n\nimport \"./HeroController.sol\";\n\ncontract LevelDiagram is HeroController {\n    bytes32 private constant MYTHOLOGY = keccak256(\"Mythology\");\n    bytes32 private constant LEGENDARY = keccak256(\"Legendary\");\n    bytes32 private constant EPIC = keccak256(\"Epic\");\n    bytes32 private constant ADMINISTRATOR = keccak256(\"Administrator\");\n    bytes32 private constant NORMAL = keccak256(\"Normal\");\n\n    function calculateTokenAmount(string memory grade, uint256 level)\n        public\n        pure\n        returns (uint256)\n    {\n        uint256 gradeAmount = calculateBasicGradeAmount(grade);\n        uint256 levelAmount = calculateBasicLevelAmount(level);\n\n        return ((gradeAmount * levelAmount) / 10) * 1e18;\n    }\n\n    function calculateBasicLevelAmount(uint256 level)\n        internal\n        pure\n        returns (uint256)\n    {\n        return (\n            level == 1 ? 15 : level == 2 ? 22 : level == 3 ? 42 : level == 4\n                ? 80\n                : 0\n        );\n    }\n\n    function calculateBasicGradeAmount(string memory grade)\n        internal\n        pure\n        returns (uint256)\n    {\n        bytes32 gradeCheck = keccak256(bytes(grade));\n\n        return (\n            gradeCheck == MYTHOLOGY ? 675 : gradeCheck == LEGENDARY\n                ? 450\n                : gradeCheck == EPIC\n                ? 300\n                : gradeCheck == ADMINISTRATOR\n                ? 225\n                : gradeCheck == NORMAL\n                ? 200\n                : 0\n        );\n    }\n\n    function calculateItemIndex(uint256 _power)\n        internal\n        view\n        returns (uint256)\n    {\n        for (uint256 i = 1; i <= 5; i++) {\n            uint256 randomNumber = makeRandomNumberForItem(i);\n\n            if (_power >= randomNumber) {\n                _power -= randomNumber;\n            } else {\n                return i;\n            }\n        }\n\n        return 0;\n    }\n\n    function calculatePower(string memory grade, uint256 level)\n        internal\n        view\n        returns (uint256)\n    {\n        bytes32 gradeCheck = keccak256(bytes(grade));\n\n        uint256 basicPower = (\n            gradeCheck == MYTHOLOGY ? 450 : gradeCheck == LEGENDARY\n                ? 300\n                : gradeCheck == EPIC\n                ? 200\n                : gradeCheck == ADMINISTRATOR\n                ? 150\n                : gradeCheck == NORMAL\n                ? 100\n                : 0\n        );\n\n        uint256 levelCheck = (\n            level == 1 ? 10 : level == 2 ? 15 : level == 3 ? 25 : level == 4\n                ? 40\n                : level == 5\n                ? 70\n                : 0\n        );\n\n        uint256 itemPower = 0;\n\n        for (uint256 i = 1; i <= 5; i++) {\n            uint256 balanceOf = getItem().balanceOf(msg.sender, i);\n            uint256 basicItemPower = i + 1;\n            itemPower = itemPower + (basicItemPower * balanceOf);\n        }\n\n        return ((basicPower + itemPower) * levelCheck) / 10;\n    }\n\n    function makeRandomNumberForItem(uint256 _tokenIndex)\n        internal\n        view\n        returns (uint256)\n    {\n        return\n            uint256(\n                keccak256(\n                    abi.encodePacked(\n                        block.timestamp,\n                        block.difficulty,\n                        _tokenIndex\n                    )\n                )\n            ) % 1000;\n    }\n}\n",
  "sourcePath": "/Users/yuhojin/Desktop/NFT-lendProject/truffle/contracts/Hero/utils/LevelDiagram.sol",
  "compiler": {
    "name": "solc",
    "version": "0.8.0+commit.c7dfd78e.Emscripten.clang"
  },
  "schemaVersion": "3.1.0",
  "updatedAt": "2022-07-28T11:32:02.216Z",
  "devdoc": {
    "kind": "dev",
    "methods": {},
    "version": 1
  },
  "userdoc": {
    "kind": "user",
    "methods": {},
    "version": 1
  }
}