{
  "contractName": "LevelDiagram",
  "abi": [
    {
      "inputs": [
        {
          "internalType": "address",
          "name": "_item",
          "type": "address"
        }
      ],
      "stateMutability": "nonpayable",
      "type": "constructor"
    },
    {
      "inputs": [
        {
          "internalType": "string",
          "name": "grade",
          "type": "string"
        },
        {
          "internalType": "uint256",
          "name": "level",
          "type": "uint256"
        }
      ],
      "name": "calculateTokenAmount",
      "outputs": [
        {
          "internalType": "uint256",
          "name": "",
          "type": "uint256"
        }
      ],
      "stateMutability": "pure",
      "type": "function",
      "constant": true
    },
    {
      "inputs": [
        {
          "internalType": "uint256",
          "name": "_power",
          "type": "uint256"
        }
      ],
      "name": "calculateItemIndex",
      "outputs": [
        {
          "internalType": "uint256",
          "name": "",
          "type": "uint256"
        }
      ],
      "stateMutability": "view",
      "type": "function",
      "constant": true
    },
    {
      "inputs": [
        {
          "internalType": "string",
          "name": "grade",
          "type": "string"
        },
        {
          "internalType": "uint256",
          "name": "level",
          "type": "uint256"
        }
      ],
      "name": "calculatePower",
      "outputs": [
        {
          "internalType": "uint256",
          "name": "",
          "type": "uint256"
        }
      ],
      "stateMutability": "view",
      "type": "function",
      "constant": true
    }
  ],
  "bytecode": "0x608060405234801561001057600080fd5b5060405161079538038061079583398101604081905261002f91610054565b600080546001600160a01b0319166001600160a01b0392909216919091179055610082565b600060208284031215610065578081fd5b81516001600160a01b038116811461007b578182fd5b9392505050565b610704806100916000396000f3fe608060405234801561001057600080fd5b50600436106100415760003560e01c80638e1fcdd114610046578063aa93c0ee1461006b578063b79d5db41461007e575b600080fd5b610059610054366004610519565b610091565b60405190815260200160405180910390f35b610059610079366004610519565b6102dd565b61005961008c3660046105cb565b610329565b81516020830120600090817f8c57226533ec41d2857120df9ace6dff88130d9b32385e09c9828f75027730f38214610187577f181ebe3a8fa130246d49bfd123ac54849b05bdcd02c6b1322c78de2a3988a310821461017f577f6764d804d57285ae9d4c42cc380377d3d0ee9b90ff9eeccaa32d3b2e3e8d7f178214610174577fb2c1aaaf9f516585466c9876e2eaf06ee68751aad537b2a6fa22f473d03b58eb821461016d577fb5333297a8bd10e190cb97fb1ee0f49587c8b2e015370e943c69fd680dabc6bd8214610166576000610177565b6064610177565b6096610177565b60c85b60ff1661018b565b61012c61018b565b6101c25b61ffff1690506000846001146101de57846002146101d757846003146101d057846004146101c957846005146101c25760006101e1565b60466101e1565b60286101e1565b60196101e1565b600f6101e1565b600a5b60ff169050600060015b600581116102b05760008054604051627eeac760e11b8152336004820152602481018490526001600160a01b039091169062fdd58e9060440160206040518083038186803b15801561023c57600080fd5b505afa158015610250573d6000803e3d6000fd5b505050506040513d601f19601f8201168201806040525081019061027491906105e3565b905060006102838360016105fb565b905061028f8282610627565b61029990856105fb565b9350505080806102a89061065d565b9150506101eb565b50600a826102be83866105fb565b6102c89190610627565b6102d29190610613565b979650505050505050565b6000806102e98461037e565b905060006102f684610483565b9050600a6103048284610627565b61030e9190610613565b61032090670de0b6b3a7640000610627565b95945050505050565b600060015b60058111610375576000610341826104cd565b905080841061035b576103548185610646565b9350610362565b5092915050565b508061036d8161065d565b91505061032e565b50600092915050565b805160208201206000907f8c57226533ec41d2857120df9ace6dff88130d9b32385e09c9828f75027730f38114610474577f181ebe3a8fa130246d49bfd123ac54849b05bdcd02c6b1322c78de2a3988a310811461046c577f6764d804d57285ae9d4c42cc380377d3d0ee9b90ff9eeccaa32d3b2e3e8d7f178114610464577fb2c1aaaf9f516585466c9876e2eaf06ee68751aad537b2a6fa22f473d03b58eb8114610459577fb5333297a8bd10e190cb97fb1ee0f49587c8b2e015370e943c69fd680dabc6bd811461045257600061045c565b60c861045c565b60e15b60ff16610478565b61012c610478565b6101c2610478565b6102a35b61ffff169392505050565b6000816001146104c157816002146104ba57816003146104b357816004146104ac5760006104c4565b60506104c4565b602a6104c4565b60166104c4565b600f5b60ff1692915050565b604080514260208201524491810191909152606081018290526000906103e8906080016040516020818303038152906040528051906020012060001c6105139190610678565b92915050565b6000806040838503121561052b578182fd5b823567ffffffffffffffff80821115610542578384fd5b818501915085601f830112610555578384fd5b813581811115610567576105676106b8565b604051601f8201601f19908116603f0116810190838211818310171561058f5761058f6106b8565b816040528281528860208487010111156105a7578687fd5b82602086016020830137918201602090810196909652509694909301359450505050565b6000602082840312156105dc578081fd5b5035919050565b6000602082840312156105f4578081fd5b5051919050565b6000821982111561060e5761060e61068c565b500190565b600082610622576106226106a2565b500490565b60008160001904831182151516156106415761064161068c565b500290565b6000828210156106585761065861068c565b500390565b60006000198214156106715761067161068c565b5060010190565b600082610687576106876106a2565b500690565b634e487b7160e01b600052601160045260246000fd5b634e487b7160e01b600052601260045260246000fd5b634e487b7160e01b600052604160045260246000fdfea26469706673582212205bee21c5323e7c95d921859cb0bfd5df9f83d719e7ccfdfbe3942dffcd324e8464736f6c63430008040033",
  "immutableReferences": {},
  "source": "// SPDX-License-Identifier: MIT\npragma solidity 0.8.4;\n\nimport \"../../interface/IKIP37/IKIP37Full.sol\";\nimport \"../interface/ILevelDiagram.sol\";\n\ncontract LevelDiagram is ILevelDiagram  {\n    bytes32 private constant MYTHOLOGY = keccak256(\"Mythology\");\n    bytes32 private constant LEGENDARY = keccak256(\"Legendary\");\n    bytes32 private constant EPIC = keccak256(\"Epic\");\n    bytes32 private constant ADMINISTRATOR = keccak256(\"Administrator\");\n    bytes32 private constant NORMAL = keccak256(\"Normal\");\n\n    IKIP37Full private item;\n\n    constructor(address _item) {\n        item = IKIP37Full(_item);\n    }\n\n    function calculateTokenAmount(string memory grade, uint256 level)\n        public\n        pure\n        override\n        returns (uint256)\n    {\n        uint256 gradeAmount = calculateBasicGradeAmount(grade);\n        uint256 levelAmount = calculateBasicLevelAmount(level);\n\n        return ((gradeAmount * levelAmount) / 10) * 1e18;\n    }\n\n    function calculateBasicLevelAmount(uint256 level)\n        internal\n        pure\n        override\n        returns (uint256)\n    {\n        return (\n            level == 1 ? 15 : level == 2 ? 22 : level == 3 ? 42 : level == 4\n                ? 80\n                : 0\n        );\n    }\n\n    function calculateBasicGradeAmount(string memory grade)\n        internal\n        pure\n        override\n        returns (uint256)\n    {\n        bytes32 gradeCheck = keccak256(bytes(grade));\n\n        return (\n            gradeCheck == MYTHOLOGY ? 675 : gradeCheck == LEGENDARY\n                ? 450\n                : gradeCheck == EPIC\n                ? 300\n                : gradeCheck == ADMINISTRATOR\n                ? 225\n                : gradeCheck == NORMAL\n                ? 200\n                : 0\n        );\n    }\n\n    function calculateItemIndex(uint256 _power)\n        external\n        view\n        override\n        returns (uint256)\n    {\n        for (uint256 i = 1; i <= 5; i++) {\n            uint256 randomNumber = makeRandomNumberForItem(i);\n\n            if (_power >= randomNumber) {\n                _power -= randomNumber;\n            } else {\n                return i;\n            }\n        }\n\n        return 0;\n    }\n\n    function calculatePower(string memory grade, uint256 level)\n        external\n        view\n        override\n        returns (uint256)\n    {\n        bytes32 gradeCheck = keccak256(bytes(grade));\n\n        uint256 basicPower = (\n            gradeCheck == MYTHOLOGY ? 450 : gradeCheck == LEGENDARY\n                ? 300\n                : gradeCheck == EPIC\n                ? 200\n                : gradeCheck == ADMINISTRATOR\n                ? 150\n                : gradeCheck == NORMAL\n                ? 100\n                : 0\n        );\n\n        uint256 levelCheck = (\n            level == 1 ? 10 : level == 2 ? 15 : level == 3 ? 25 : level == 4\n                ? 40\n                : level == 5\n                ? 70\n                : 0\n        );\n\n        uint256 itemPower = 0;\n\n        for (uint256 i = 1; i <= 5; i++) {\n            uint256 balanceOf = item.balanceOf(msg.sender, i);\n            uint256 basicItemPower = i + 1;\n            itemPower = itemPower + (basicItemPower * balanceOf);\n        }\n\n        return ((basicPower + itemPower) * levelCheck) / 10;\n    }\n\n    function makeRandomNumberForItem(uint256 _tokenIndex)\n        internal\n        view\n        override\n        returns (uint256)\n    {\n        return\n            uint256(\n                keccak256(\n                    abi.encodePacked(\n                        block.timestamp,\n                        block.difficulty,\n                        _tokenIndex\n                    )\n                )\n            ) % 1000;\n    }\n}\n",
  "sourcePath": "/Users/yuhojin/Desktop/NFT-lendProject/Truffle/contracts/Hero/utils/LevelDiagram.sol",
  "compiler": {
    "name": "solc",
    "version": "0.8.4+commit.c7e474f2.Emscripten.clang"
  },
  "schemaVersion": "3.4.3",
  "updatedAt": "2022-08-08T12:27:52.446Z",
  "networkType": "ethereum",
  "devdoc": {
    "kind": "dev",
    "methods": {},
    "version": 1
  },
  "userdoc": {
    "kind": "user",
    "methods": {},
    "version": 1
  }
}