{
  "contractName": "Ownable",
  "abi": [
    {
      "inputs": [],
      "name": "getOwner",
      "outputs": [
        {
          "internalType": "address payable",
          "name": "",
          "type": "address"
        }
      ],
      "stateMutability": "view",
      "type": "function"
    }
  ],
  "bytecode": "0x6080604052348015600f57600080fd5b5060a08061001e6000396000f3fe6080604052348015600f57600080fd5b506004361060285760003560e01c8063893d20e814602d575b600080fd5b60336047565b604051603e91906056565b60405180910390f35b6000546001600160a01b031690565b6001600160a01b039190911681526020019056fea2646970667358221220d35b422e7ebcfcf1499a61172fe9e20d04813cde6e4856b1178ec5c65d9cb8e564736f6c63430008000033",
  "immutableReferences": {},
  "source": "// SPDX-License-Identifier: MIT\npragma solidity ^0.8.0;\n\ncontract Ownable {\n    address payable private owner;\n\n    modifier onlyOwner() {\n        require(msg.sender == owner);\n        _;\n    }\n\n    function getOwner() public view returns(address payable){\n        return owner;\n    }\n}",
  "sourcePath": "/Users/yuhojin/Desktop/NFT-lendProject/truffle/contracts/utils/Ownable.sol",
  "compiler": {
    "name": "solc",
    "version": "0.8.0+commit.c7dfd78e.Emscripten.clang"
  },
  "schemaVersion": "3.1.0",
  "updatedAt": "2022-07-28T11:32:02.285Z",
  "devdoc": {
    "kind": "dev",
    "methods": {},
    "version": 1
  },
  "userdoc": {
    "kind": "user",
    "methods": {},
    "version": 1
  }
}